{
	"EtherWallet.sol": {
		"EtherWallet": {
			"abi": [
				{
					"inputs": [],
					"stateMutability": "nonpayable",
					"type": "constructor"
				},
				{
					"inputs": [],
					"name": "getBalance",
					"outputs": [
						{
							"internalType": "uint256",
							"name": "",
							"type": "uint256"
						}
					],
					"stateMutability": "view",
					"type": "function"
				},
				{
					"inputs": [
						{
							"internalType": "uint256",
							"name": "_amount",
							"type": "uint256"
						}
					],
					"name": "withdraw",
					"outputs": [],
					"stateMutability": "nonpayable",
					"type": "function"
				},
				{
					"stateMutability": "payable",
					"type": "receive"
				}
			],
			"devdoc": {
				"kind": "dev",
				"methods": {},
				"version": 1
			},
			"evm": {
				"assembly": "    /* \"EtherWallet.sol\":75:485  contract EtherWallet{... */\n  mstore(0x40, 0x80)\n    /* \"EtherWallet.sol\":130:187  constructor(){... */\n  callvalue\n  dup1\n  iszero\n  tag_1\n  jumpi\n  0x00\n  dup1\n  revert\ntag_1:\n  pop\n    /* \"EtherWallet.sol\":169:179  msg.sender */\n  caller\n    /* \"EtherWallet.sol\":153:158  owner */\n  0x00\n  dup1\n    /* \"EtherWallet.sol\":153:180  owner = payable(msg.sender) */\n  0x0100\n  exp\n  dup2\n  sload\n  dup2\n  0xffffffffffffffffffffffffffffffffffffffff\n  mul\n  not\n  and\n  swap1\n  dup4\n  0xffffffffffffffffffffffffffffffffffffffff\n  and\n  mul\n  or\n  swap1\n  sstore\n  pop\n    /* \"EtherWallet.sol\":75:485  contract EtherWallet{... */\n  dataSize(sub_0)\n  dup1\n  dataOffset(sub_0)\n  0x00\n  codecopy\n  0x00\n  return\nstop\n\nsub_0: assembly {\n        /* \"EtherWallet.sol\":75:485  contract EtherWallet{... */\n      mstore(0x40, 0x80)\n      jumpi(tag_1, lt(calldatasize, 0x04))\n      shr(0xe0, calldataload(0x00))\n      dup1\n      0x12065fe0\n      eq\n      tag_3\n      jumpi\n      dup1\n      0x2e1a7d4d\n      eq\n      tag_4\n      jumpi\n      jump(tag_2)\n    tag_1:\n      jumpi(tag_2, calldatasize)\n      stop\n    tag_2:\n      0x00\n      dup1\n      revert\n        /* \"EtherWallet.sol\":388:483  function getBalance() external view returns (uint){... */\n    tag_3:\n      callvalue\n      dup1\n      iszero\n      tag_7\n      jumpi\n      0x00\n      dup1\n      revert\n    tag_7:\n      pop\n      tag_8\n      tag_9\n      jump\t// in\n    tag_8:\n      mload(0x40)\n      tag_10\n      swap2\n      swap1\n      tag_11\n      jump\t// in\n    tag_10:\n      mload(0x40)\n      dup1\n      swap2\n      sub\n      swap1\n      return\n        /* \"EtherWallet.sol\":227:382  function withdraw(uint _amount) external{... */\n    tag_4:\n      callvalue\n      dup1\n      iszero\n      tag_12\n      jumpi\n      0x00\n      dup1\n      revert\n    tag_12:\n      pop\n      tag_13\n      0x04\n      dup1\n      calldatasize\n      sub\n      dup2\n      add\n      swap1\n      tag_14\n      swap2\n      swap1\n      tag_15\n      jump\t// in\n    tag_14:\n      tag_16\n      jump\t// in\n    tag_13:\n      stop\n        /* \"EtherWallet.sol\":388:483  function getBalance() external view returns (uint){... */\n    tag_9:\n        /* \"EtherWallet.sol\":433:437  uint */\n      0x00\n        /* \"EtherWallet.sol\":455:476  address(this).balance */\n      selfbalance\n        /* \"EtherWallet.sol\":448:476  return address(this).balance */\n      swap1\n      pop\n        /* \"EtherWallet.sol\":388:483  function getBalance() external view returns (uint){... */\n      swap1\n      jump\t// out\n        /* \"EtherWallet.sol\":227:382  function withdraw(uint _amount) external{... */\n    tag_16:\n        /* \"EtherWallet.sol\":299:304  owner */\n      0x00\n      dup1\n      sload\n      swap1\n      0x0100\n      exp\n      swap1\n      div\n      0xffffffffffffffffffffffffffffffffffffffff\n      and\n        /* \"EtherWallet.sol\":285:304  msg.sender == owner */\n      0xffffffffffffffffffffffffffffffffffffffff\n      and\n        /* \"EtherWallet.sol\":285:295  msg.sender */\n      caller\n        /* \"EtherWallet.sol\":285:304  msg.sender == owner */\n      0xffffffffffffffffffffffffffffffffffffffff\n      and\n      eq\n        /* \"EtherWallet.sol\":277:328  require(msg.sender == owner, \"caller is not owner\") */\n      tag_19\n      jumpi\n      mload(0x40)\n      0x08c379a000000000000000000000000000000000000000000000000000000000\n      dup2\n      mstore\n      0x04\n      add\n      tag_20\n      swap1\n      tag_21\n      jump\t// in\n    tag_20:\n      mload(0x40)\n      dup1\n      swap2\n      sub\n      swap1\n      revert\n    tag_19:\n        /* \"EtherWallet.sol\":346:356  msg.sender */\n      caller\n        /* \"EtherWallet.sol\":338:366  payable(msg.sender).transfer */\n      0xffffffffffffffffffffffffffffffffffffffff\n      and\n        /* \"EtherWallet.sol\":338:375  payable(msg.sender).transfer(_amount) */\n      0x08fc\n        /* \"EtherWallet.sol\":367:374  _amount */\n      dup3\n        /* \"EtherWallet.sol\":338:375  payable(msg.sender).transfer(_amount) */\n      swap1\n      dup2\n      iszero\n      mul\n      swap1\n      mload(0x40)\n      0x00\n      mload(0x40)\n      dup1\n      dup4\n      sub\n      dup2\n      dup6\n      dup9\n      dup9\n      call\n      swap4\n      pop\n      pop\n      pop\n      pop\n      iszero\n      dup1\n      iszero\n      tag_23\n      jumpi\n      returndatasize\n      0x00\n      dup1\n      returndatacopy\n      revert(0x00, returndatasize)\n    tag_23:\n      pop\n        /* \"EtherWallet.sol\":227:382  function withdraw(uint _amount) external{... */\n      pop\n      jump\t// out\n        /* \"#utility.yul\":7:146   */\n    tag_25:\n        /* \"#utility.yul\":53:58   */\n      0x00\n        /* \"#utility.yul\":91:97   */\n      dup2\n        /* \"#utility.yul\":78:98   */\n      calldataload\n        /* \"#utility.yul\":69:98   */\n      swap1\n      pop\n        /* \"#utility.yul\":107:140   */\n      tag_27\n        /* \"#utility.yul\":134:139   */\n      dup2\n        /* \"#utility.yul\":107:140   */\n      tag_28\n      jump\t// in\n    tag_27:\n        /* \"#utility.yul\":7:146   */\n      swap3\n      swap2\n      pop\n      pop\n      jump\t// out\n        /* \"#utility.yul\":152:481   */\n    tag_15:\n        /* \"#utility.yul\":211:217   */\n      0x00\n        /* \"#utility.yul\":260:262   */\n      0x20\n        /* \"#utility.yul\":248:257   */\n      dup3\n        /* \"#utility.yul\":239:246   */\n      dup5\n        /* \"#utility.yul\":235:258   */\n      sub\n        /* \"#utility.yul\":231:263   */\n      slt\n        /* \"#utility.yul\":228:347   */\n      iszero\n      tag_30\n      jumpi\n        /* \"#utility.yul\":266:345   */\n      tag_31\n      tag_32\n      jump\t// in\n    tag_31:\n        /* \"#utility.yul\":228:347   */\n    tag_30:\n        /* \"#utility.yul\":386:387   */\n      0x00\n        /* \"#utility.yul\":411:464   */\n      tag_33\n        /* \"#utility.yul\":456:463   */\n      dup5\n        /* \"#utility.yul\":447:453   */\n      dup3\n        /* \"#utility.yul\":436:445   */\n      dup6\n        /* \"#utility.yul\":432:454   */\n      add\n        /* \"#utility.yul\":411:464   */\n      tag_25\n      jump\t// in\n    tag_33:\n        /* \"#utility.yul\":401:464   */\n      swap2\n      pop\n        /* \"#utility.yul\":357:474   */\n      pop\n        /* \"#utility.yul\":152:481   */\n      swap3\n      swap2\n      pop\n      pop\n      jump\t// out\n        /* \"#utility.yul\":487:853   */\n    tag_34:\n        /* \"#utility.yul\":629:632   */\n      0x00\n        /* \"#utility.yul\":650:717   */\n      tag_36\n        /* \"#utility.yul\":714:716   */\n      0x13\n        /* \"#utility.yul\":709:712   */\n      dup4\n        /* \"#utility.yul\":650:717   */\n      tag_37\n      jump\t// in\n    tag_36:\n        /* \"#utility.yul\":643:717   */\n      swap2\n      pop\n        /* \"#utility.yul\":726:819   */\n      tag_38\n        /* \"#utility.yul\":815:818   */\n      dup3\n        /* \"#utility.yul\":726:819   */\n      tag_39\n      jump\t// in\n    tag_38:\n        /* \"#utility.yul\":844:846   */\n      0x20\n        /* \"#utility.yul\":839:842   */\n      dup3\n        /* \"#utility.yul\":835:847   */\n      add\n        /* \"#utility.yul\":828:847   */\n      swap1\n      pop\n        /* \"#utility.yul\":487:853   */\n      swap2\n      swap1\n      pop\n      jump\t// out\n        /* \"#utility.yul\":859:977   */\n    tag_40:\n        /* \"#utility.yul\":946:970   */\n      tag_42\n        /* \"#utility.yul\":964:969   */\n      dup2\n        /* \"#utility.yul\":946:970   */\n      tag_43\n      jump\t// in\n    tag_42:\n        /* \"#utility.yul\":941:944   */\n      dup3\n        /* \"#utility.yul\":934:971   */\n      mstore\n        /* \"#utility.yul\":859:977   */\n      pop\n      pop\n      jump\t// out\n        /* \"#utility.yul\":983:1402   */\n    tag_21:\n        /* \"#utility.yul\":1149:1153   */\n      0x00\n        /* \"#utility.yul\":1187:1189   */\n      0x20\n        /* \"#utility.yul\":1176:1185   */\n      dup3\n        /* \"#utility.yul\":1172:1190   */\n      add\n        /* \"#utility.yul\":1164:1190   */\n      swap1\n      pop\n        /* \"#utility.yul\":1236:1245   */\n      dup2\n        /* \"#utility.yul\":1230:1234   */\n      dup2\n        /* \"#utility.yul\":1226:1246   */\n      sub\n        /* \"#utility.yul\":1222:1223   */\n      0x00\n        /* \"#utility.yul\":1211:1220   */\n      dup4\n        /* \"#utility.yul\":1207:1224   */\n      add\n        /* \"#utility.yul\":1200:1247   */\n      mstore\n        /* \"#utility.yul\":1264:1395   */\n      tag_45\n        /* \"#utility.yul\":1390:1394   */\n      dup2\n        /* \"#utility.yul\":1264:1395   */\n      tag_34\n      jump\t// in\n    tag_45:\n        /* \"#utility.yul\":1256:1395   */\n      swap1\n      pop\n        /* \"#utility.yul\":983:1402   */\n      swap2\n      swap1\n      pop\n      jump\t// out\n        /* \"#utility.yul\":1408:1630   */\n    tag_11:\n        /* \"#utility.yul\":1501:1505   */\n      0x00\n        /* \"#utility.yul\":1539:1541   */\n      0x20\n        /* \"#utility.yul\":1528:1537   */\n      dup3\n        /* \"#utility.yul\":1524:1542   */\n      add\n        /* \"#utility.yul\":1516:1542   */\n      swap1\n      pop\n        /* \"#utility.yul\":1552:1623   */\n      tag_47\n        /* \"#utility.yul\":1620:1621   */\n      0x00\n        /* \"#utility.yul\":1609:1618   */\n      dup4\n        /* \"#utility.yul\":1605:1622   */\n      add\n        /* \"#utility.yul\":1596:1602   */\n      dup5\n        /* \"#utility.yul\":1552:1623   */\n      tag_40\n      jump\t// in\n    tag_47:\n        /* \"#utility.yul\":1408:1630   */\n      swap3\n      swap2\n      pop\n      pop\n      jump\t// out\n        /* \"#utility.yul\":1717:1886   */\n    tag_37:\n        /* \"#utility.yul\":1801:1812   */\n      0x00\n        /* \"#utility.yul\":1835:1841   */\n      dup3\n        /* \"#utility.yul\":1830:1833   */\n      dup3\n        /* \"#utility.yul\":1823:1842   */\n      mstore\n        /* \"#utility.yul\":1875:1879   */\n      0x20\n        /* \"#utility.yul\":1870:1873   */\n      dup3\n        /* \"#utility.yul\":1866:1880   */\n      add\n        /* \"#utility.yul\":1851:1880   */\n      swap1\n      pop\n        /* \"#utility.yul\":1717:1886   */\n      swap3\n      swap2\n      pop\n      pop\n      jump\t// out\n        /* \"#utility.yul\":1892:1969   */\n    tag_43:\n        /* \"#utility.yul\":1929:1936   */\n      0x00\n        /* \"#utility.yul\":1958:1963   */\n      dup2\n        /* \"#utility.yul\":1947:1963   */\n      swap1\n      pop\n        /* \"#utility.yul\":1892:1969   */\n      swap2\n      swap1\n      pop\n      jump\t// out\n        /* \"#utility.yul\":2098:2215   */\n    tag_32:\n        /* \"#utility.yul\":2207:2208   */\n      0x00\n        /* \"#utility.yul\":2204:2205   */\n      dup1\n        /* \"#utility.yul\":2197:2209   */\n      revert\n        /* \"#utility.yul\":2221:2390   */\n    tag_39:\n        /* \"#utility.yul\":2361:2382   */\n      0x63616c6c6572206973206e6f74206f776e657200000000000000000000000000\n        /* \"#utility.yul\":2357:2358   */\n      0x00\n        /* \"#utility.yul\":2349:2355   */\n      dup3\n        /* \"#utility.yul\":2345:2359   */\n      add\n        /* \"#utility.yul\":2338:2383   */\n      mstore\n        /* \"#utility.yul\":2221:2390   */\n      pop\n      jump\t// out\n        /* \"#utility.yul\":2396:2518   */\n    tag_28:\n        /* \"#utility.yul\":2469:2493   */\n      tag_57\n        /* \"#utility.yul\":2487:2492   */\n      dup2\n        /* \"#utility.yul\":2469:2493   */\n      tag_43\n      jump\t// in\n    tag_57:\n        /* \"#utility.yul\":2462:2467   */\n      dup2\n        /* \"#utility.yul\":2459:2494   */\n      eq\n        /* \"#utility.yul\":2449:2512   */\n      tag_58\n      jumpi\n        /* \"#utility.yul\":2508:2509   */\n      0x00\n        /* \"#utility.yul\":2505:2506   */\n      dup1\n        /* \"#utility.yul\":2498:2510   */\n      revert\n        /* \"#utility.yul\":2449:2512   */\n    tag_58:\n        /* \"#utility.yul\":2396:2518   */\n      pop\n      jump\t// out\n\n    auxdata: 0xa264697066735822122004bc07cbb71c8f2a91189461166c74344c01838a0acc6a8dc97e774d775eea0464736f6c63430008070033\n}\n",
				"bytecode": {
					"linkReferences": {},
					"object": "608060405234801561001057600080fd5b50336000806101000a81548173ffffffffffffffffffffffffffffffffffffffff021916908373ffffffffffffffffffffffffffffffffffffffff1602179055506102b2806100606000396000f3fe60806040526004361061002d5760003560e01c806312065fe0146100395780632e1a7d4d1461006457610034565b3661003457005b600080fd5b34801561004557600080fd5b5061004e61008d565b60405161005b9190610201565b60405180910390f35b34801561007057600080fd5b5061008b60048036038101906100869190610182565b610095565b005b600047905090565b60008054906101000a900473ffffffffffffffffffffffffffffffffffffffff1673ffffffffffffffffffffffffffffffffffffffff163373ffffffffffffffffffffffffffffffffffffffff1614610123576040517f08c379a000000000000000000000000000000000000000000000000000000000815260040161011a906101e1565b60405180910390fd5b3373ffffffffffffffffffffffffffffffffffffffff166108fc829081150290604051600060405180830381858888f19350505050158015610169573d6000803e3d6000fd5b5050565b60008135905061017c81610265565b92915050565b60006020828403121561019857610197610237565b5b60006101a68482850161016d565b91505092915050565b60006101bc60138361021c565b91506101c78261023c565b602082019050919050565b6101db8161022d565b82525050565b600060208201905081810360008301526101fa816101af565b9050919050565b600060208201905061021660008301846101d2565b92915050565b600082825260208201905092915050565b6000819050919050565b600080fd5b7f63616c6c6572206973206e6f74206f776e657200000000000000000000000000600082015250565b61026e8161022d565b811461027957600080fd5b5056fea264697066735822122004bc07cbb71c8f2a91189461166c74344c01838a0acc6a8dc97e774d775eea0464736f6c63430008070033",
					"opcodes": "PUSH1 0x80 PUSH1 0x40 MSTORE CALLVALUE DUP1 ISZERO PUSH2 0x10 JUMPI PUSH1 0x0 DUP1 REVERT JUMPDEST POP CALLER PUSH1 0x0 DUP1 PUSH2 0x100 EXP DUP2 SLOAD DUP2 PUSH20 0xFFFFFFFFFFFFFFFFFFFFFFFFFFFFFFFFFFFFFFFF MUL NOT AND SWAP1 DUP4 PUSH20 0xFFFFFFFFFFFFFFFFFFFFFFFFFFFFFFFFFFFFFFFF AND MUL OR SWAP1 SSTORE POP PUSH2 0x2B2 DUP1 PUSH2 0x60 PUSH1 0x0 CODECOPY PUSH1 0x0 RETURN INVALID PUSH1 0x80 PUSH1 0x40 MSTORE PUSH1 0x4 CALLDATASIZE LT PUSH2 0x2D JUMPI PUSH1 0x0 CALLDATALOAD PUSH1 0xE0 SHR DUP1 PUSH4 0x12065FE0 EQ PUSH2 0x39 JUMPI DUP1 PUSH4 0x2E1A7D4D EQ PUSH2 0x64 JUMPI PUSH2 0x34 JUMP JUMPDEST CALLDATASIZE PUSH2 0x34 JUMPI STOP JUMPDEST PUSH1 0x0 DUP1 REVERT JUMPDEST CALLVALUE DUP1 ISZERO PUSH2 0x45 JUMPI PUSH1 0x0 DUP1 REVERT JUMPDEST POP PUSH2 0x4E PUSH2 0x8D JUMP JUMPDEST PUSH1 0x40 MLOAD PUSH2 0x5B SWAP2 SWAP1 PUSH2 0x201 JUMP JUMPDEST PUSH1 0x40 MLOAD DUP1 SWAP2 SUB SWAP1 RETURN JUMPDEST CALLVALUE DUP1 ISZERO PUSH2 0x70 JUMPI PUSH1 0x0 DUP1 REVERT JUMPDEST POP PUSH2 0x8B PUSH1 0x4 DUP1 CALLDATASIZE SUB DUP2 ADD SWAP1 PUSH2 0x86 SWAP2 SWAP1 PUSH2 0x182 JUMP JUMPDEST PUSH2 0x95 JUMP JUMPDEST STOP JUMPDEST PUSH1 0x0 SELFBALANCE SWAP1 POP SWAP1 JUMP JUMPDEST PUSH1 0x0 DUP1 SLOAD SWAP1 PUSH2 0x100 EXP SWAP1 DIV PUSH20 0xFFFFFFFFFFFFFFFFFFFFFFFFFFFFFFFFFFFFFFFF AND PUSH20 0xFFFFFFFFFFFFFFFFFFFFFFFFFFFFFFFFFFFFFFFF AND CALLER PUSH20 0xFFFFFFFFFFFFFFFFFFFFFFFFFFFFFFFFFFFFFFFF AND EQ PUSH2 0x123 JUMPI PUSH1 0x40 MLOAD PUSH32 0x8C379A000000000000000000000000000000000000000000000000000000000 DUP2 MSTORE PUSH1 0x4 ADD PUSH2 0x11A SWAP1 PUSH2 0x1E1 JUMP JUMPDEST PUSH1 0x40 MLOAD DUP1 SWAP2 SUB SWAP1 REVERT JUMPDEST CALLER PUSH20 0xFFFFFFFFFFFFFFFFFFFFFFFFFFFFFFFFFFFFFFFF AND PUSH2 0x8FC DUP3 SWAP1 DUP2 ISZERO MUL SWAP1 PUSH1 0x40 MLOAD PUSH1 0x0 PUSH1 0x40 MLOAD DUP1 DUP4 SUB DUP2 DUP6 DUP9 DUP9 CALL SWAP4 POP POP POP POP ISZERO DUP1 ISZERO PUSH2 0x169 JUMPI RETURNDATASIZE PUSH1 0x0 DUP1 RETURNDATACOPY RETURNDATASIZE PUSH1 0x0 REVERT JUMPDEST POP POP JUMP JUMPDEST PUSH1 0x0 DUP2 CALLDATALOAD SWAP1 POP PUSH2 0x17C DUP2 PUSH2 0x265 JUMP JUMPDEST SWAP3 SWAP2 POP POP JUMP JUMPDEST PUSH1 0x0 PUSH1 0x20 DUP3 DUP5 SUB SLT ISZERO PUSH2 0x198 JUMPI PUSH2 0x197 PUSH2 0x237 JUMP JUMPDEST JUMPDEST PUSH1 0x0 PUSH2 0x1A6 DUP5 DUP3 DUP6 ADD PUSH2 0x16D JUMP JUMPDEST SWAP2 POP POP SWAP3 SWAP2 POP POP JUMP JUMPDEST PUSH1 0x0 PUSH2 0x1BC PUSH1 0x13 DUP4 PUSH2 0x21C JUMP JUMPDEST SWAP2 POP PUSH2 0x1C7 DUP3 PUSH2 0x23C JUMP JUMPDEST PUSH1 0x20 DUP3 ADD SWAP1 POP SWAP2 SWAP1 POP JUMP JUMPDEST PUSH2 0x1DB DUP2 PUSH2 0x22D JUMP JUMPDEST DUP3 MSTORE POP POP JUMP JUMPDEST PUSH1 0x0 PUSH1 0x20 DUP3 ADD SWAP1 POP DUP2 DUP2 SUB PUSH1 0x0 DUP4 ADD MSTORE PUSH2 0x1FA DUP2 PUSH2 0x1AF JUMP JUMPDEST SWAP1 POP SWAP2 SWAP1 POP JUMP JUMPDEST PUSH1 0x0 PUSH1 0x20 DUP3 ADD SWAP1 POP PUSH2 0x216 PUSH1 0x0 DUP4 ADD DUP5 PUSH2 0x1D2 JUMP JUMPDEST SWAP3 SWAP2 POP POP JUMP JUMPDEST PUSH1 0x0 DUP3 DUP3 MSTORE PUSH1 0x20 DUP3 ADD SWAP1 POP SWAP3 SWAP2 POP POP JUMP JUMPDEST PUSH1 0x0 DUP2 SWAP1 POP SWAP2 SWAP1 POP JUMP JUMPDEST PUSH1 0x0 DUP1 REVERT JUMPDEST PUSH32 0x63616C6C6572206973206E6F74206F776E657200000000000000000000000000 PUSH1 0x0 DUP3 ADD MSTORE POP JUMP JUMPDEST PUSH2 0x26E DUP2 PUSH2 0x22D JUMP JUMPDEST DUP2 EQ PUSH2 0x279 JUMPI PUSH1 0x0 DUP1 REVERT JUMPDEST POP JUMP INVALID LOG2 PUSH5 0x6970667358 0x22 SLT KECCAK256 DIV 0xBC SMOD 0xCB 0xB7 SHR DUP16 0x2A SWAP2 XOR SWAP5 PUSH2 0x166C PUSH21 0x344C01838A0ACC6A8DC97E774D775EEA0464736F6C PUSH4 0x43000807 STOP CALLER "
				},
				"gasEstimates": {
					"creation": {
						"codeDepositCost": "138000",
						"executionCost": "24449",
						"totalCost": "162449"
					},
					"external": {
						"getBalance()": "317",
						"withdraw(uint256)": "infinite"
					}
				},
				"methodIdentifiers": {
					"getBalance()": "12065fe0",
					"withdraw(uint256)": "2e1a7d4d"
				}
			},
			"storageLayout": {
				"storage": [
					{
						"astId": 3,
						"contract": "EtherWallet.sol:EtherWallet",
						"label": "owner",
						"offset": 0,
						"slot": "0",
						"type": "t_address_payable"
					}
				],
				"types": {
					"t_address_payable": {
						"encoding": "inplace",
						"label": "address payable",
						"numberOfBytes": "20"
					}
				}
			},
			"userdoc": {
				"kind": "user",
				"methods": {},
				"version": 1
			}
		}
	}
}