{
	"SelfDestruct.sol": {
		"KillSelf": {
			"abi": [
				{
					"inputs": [],
					"stateMutability": "payable",
					"type": "constructor"
				},
				{
					"inputs": [],
					"name": "getNumber",
					"outputs": [
						{
							"internalType": "uint256",
							"name": "",
							"type": "uint256"
						}
					],
					"stateMutability": "pure",
					"type": "function"
				},
				{
					"inputs": [],
					"name": "kill",
					"outputs": [],
					"stateMutability": "nonpayable",
					"type": "function"
				}
			],
			"devdoc": {
				"kind": "dev",
				"methods": {},
				"version": 1
			},
			"evm": {
				"assembly": "    /* \"SelfDestruct.sol\":75:287  contract KillSelf{... */\n  mstore(0x40, 0x80)\n  dataSize(sub_0)\n  dup1\n  dataOffset(sub_0)\n  0x00\n  codecopy\n  0x00\n  return\nstop\n\nsub_0: assembly {\n        /* \"SelfDestruct.sol\":75:287  contract KillSelf{... */\n      mstore(0x40, 0x80)\n      callvalue\n      dup1\n      iszero\n      tag_1\n      jumpi\n      0x00\n      dup1\n      revert\n    tag_1:\n      pop\n      jumpi(tag_2, lt(calldatasize, 0x04))\n      shr(0xe0, calldataload(0x00))\n      dup1\n      0x41c0e1b5\n      eq\n      tag_3\n      jumpi\n      dup1\n      0xf2c9ecd8\n      eq\n      tag_4\n      jumpi\n    tag_2:\n      0x00\n      dup1\n      revert\n        /* \"SelfDestruct.sol\":128:203  function kill() external {... */\n    tag_3:\n      tag_5\n      tag_6\n      jump\t// in\n    tag_5:\n      stop\n        /* \"SelfDestruct.sol\":209:285  function getNumber() external pure returns (uint){... */\n    tag_4:\n      tag_7\n      tag_8\n      jump\t// in\n    tag_7:\n      mload(0x40)\n      tag_9\n      swap2\n      swap1\n      tag_10\n      jump\t// in\n    tag_9:\n      mload(0x40)\n      dup1\n      swap2\n      sub\n      swap1\n      return\n        /* \"SelfDestruct.sol\":128:203  function kill() external {... */\n    tag_6:\n        /* \"SelfDestruct.sol\":184:194  msg.sender */\n      caller\n        /* \"SelfDestruct.sol\":163:196  selfdestruct(payable(msg.sender)) */\n      0xffffffffffffffffffffffffffffffffffffffff\n      and\n      selfdestruct\n        /* \"SelfDestruct.sol\":209:285  function getNumber() external pure returns (uint){... */\n    tag_8:\n        /* \"SelfDestruct.sol\":253:257  uint */\n      0x00\n        /* \"SelfDestruct.sol\":275:278  123 */\n      0x7b\n        /* \"SelfDestruct.sol\":268:278  return 123 */\n      swap1\n      pop\n        /* \"SelfDestruct.sol\":209:285  function getNumber() external pure returns (uint){... */\n      swap1\n      jump\t// out\n        /* \"#utility.yul\":7:125   */\n    tag_14:\n        /* \"#utility.yul\":94:118   */\n      tag_16\n        /* \"#utility.yul\":112:117   */\n      dup2\n        /* \"#utility.yul\":94:118   */\n      tag_17\n      jump\t// in\n    tag_16:\n        /* \"#utility.yul\":89:92   */\n      dup3\n        /* \"#utility.yul\":82:119   */\n      mstore\n        /* \"#utility.yul\":7:125   */\n      pop\n      pop\n      jump\t// out\n        /* \"#utility.yul\":131:353   */\n    tag_10:\n        /* \"#utility.yul\":224:228   */\n      0x00\n        /* \"#utility.yul\":262:264   */\n      0x20\n        /* \"#utility.yul\":251:260   */\n      dup3\n        /* \"#utility.yul\":247:265   */\n      add\n        /* \"#utility.yul\":239:265   */\n      swap1\n      pop\n        /* \"#utility.yul\":275:346   */\n      tag_19\n        /* \"#utility.yul\":343:344   */\n      0x00\n        /* \"#utility.yul\":332:341   */\n      dup4\n        /* \"#utility.yul\":328:345   */\n      add\n        /* \"#utility.yul\":319:325   */\n      dup5\n        /* \"#utility.yul\":275:346   */\n      tag_14\n      jump\t// in\n    tag_19:\n        /* \"#utility.yul\":131:353   */\n      swap3\n      swap2\n      pop\n      pop\n      jump\t// out\n        /* \"#utility.yul\":359:436   */\n    tag_17:\n        /* \"#utility.yul\":396:403   */\n      0x00\n        /* \"#utility.yul\":425:430   */\n      dup2\n        /* \"#utility.yul\":414:430   */\n      swap1\n      pop\n        /* \"#utility.yul\":359:436   */\n      swap2\n      swap1\n      pop\n      jump\t// out\n\n    auxdata: 0xa26469706673582212207431b8442fb841bd9d0d8b6650d90ec3c920249ae8f98f238bd90a1b2c05d16764736f6c63430008070033\n}\n",
				"bytecode": {
					"linkReferences": {},
					"object": "608060405260e1806100126000396000f3fe6080604052348015600f57600080fd5b506004361060325760003560e01c806341c0e1b5146037578063f2c9ecd814603f575b600080fd5b603d6059565b005b60456072565b604051605091906088565b60405180910390f35b3373ffffffffffffffffffffffffffffffffffffffff16ff5b6000607b905090565b60828160a1565b82525050565b6000602082019050609b6000830184607b565b92915050565b600081905091905056fea26469706673582212207431b8442fb841bd9d0d8b6650d90ec3c920249ae8f98f238bd90a1b2c05d16764736f6c63430008070033",
					"opcodes": "PUSH1 0x80 PUSH1 0x40 MSTORE PUSH1 0xE1 DUP1 PUSH2 0x12 PUSH1 0x0 CODECOPY PUSH1 0x0 RETURN INVALID PUSH1 0x80 PUSH1 0x40 MSTORE CALLVALUE DUP1 ISZERO PUSH1 0xF JUMPI PUSH1 0x0 DUP1 REVERT JUMPDEST POP PUSH1 0x4 CALLDATASIZE LT PUSH1 0x32 JUMPI PUSH1 0x0 CALLDATALOAD PUSH1 0xE0 SHR DUP1 PUSH4 0x41C0E1B5 EQ PUSH1 0x37 JUMPI DUP1 PUSH4 0xF2C9ECD8 EQ PUSH1 0x3F JUMPI JUMPDEST PUSH1 0x0 DUP1 REVERT JUMPDEST PUSH1 0x3D PUSH1 0x59 JUMP JUMPDEST STOP JUMPDEST PUSH1 0x45 PUSH1 0x72 JUMP JUMPDEST PUSH1 0x40 MLOAD PUSH1 0x50 SWAP2 SWAP1 PUSH1 0x88 JUMP JUMPDEST PUSH1 0x40 MLOAD DUP1 SWAP2 SUB SWAP1 RETURN JUMPDEST CALLER PUSH20 0xFFFFFFFFFFFFFFFFFFFFFFFFFFFFFFFFFFFFFFFF AND SELFDESTRUCT JUMPDEST PUSH1 0x0 PUSH1 0x7B SWAP1 POP SWAP1 JUMP JUMPDEST PUSH1 0x82 DUP2 PUSH1 0xA1 JUMP JUMPDEST DUP3 MSTORE POP POP JUMP JUMPDEST PUSH1 0x0 PUSH1 0x20 DUP3 ADD SWAP1 POP PUSH1 0x9B PUSH1 0x0 DUP4 ADD DUP5 PUSH1 0x7B JUMP JUMPDEST SWAP3 SWAP2 POP POP JUMP JUMPDEST PUSH1 0x0 DUP2 SWAP1 POP SWAP2 SWAP1 POP JUMP INVALID LOG2 PUSH5 0x6970667358 0x22 SLT KECCAK256 PUSH21 0x31B8442FB841BD9D0D8B6650D90EC3C920249AE8F9 DUP16 0x23 DUP12 0xD9 EXP SHL 0x2C SDIV 0xD1 PUSH8 0x64736F6C63430008 SMOD STOP CALLER "
				},
				"gasEstimates": {
					"creation": {
						"codeDepositCost": "45000",
						"executionCost": "75",
						"totalCost": "45075"
					},
					"external": {
						"getNumber()": "337",
						"kill()": "27721"
					}
				},
				"methodIdentifiers": {
					"getNumber()": "f2c9ecd8",
					"kill()": "41c0e1b5"
				}
			},
			"storageLayout": {
				"storage": [],
				"types": null
			},
			"userdoc": {
				"kind": "user",
				"methods": {},
				"version": 1
			}
		}
	}
}