{
	"SelfDestruct.sol": {
		"HelperContract": {
			"abi": [
				{
					"inputs": [
						{
							"internalType": "contract KillSelf",
							"name": "_kill",
							"type": "address"
						}
					],
					"name": "destroy",
					"outputs": [],
					"stateMutability": "nonpayable",
					"type": "function"
				},
				{
					"inputs": [],
					"name": "getBalance",
					"outputs": [
						{
							"internalType": "uint256",
							"name": "",
							"type": "uint256"
						}
					],
					"stateMutability": "view",
					"type": "function"
				}
			],
			"devdoc": {
				"kind": "dev",
				"methods": {},
				"version": 1
			},
			"evm": {
				"assembly": "    /* \"SelfDestruct.sol\":288:491  contract HelperContract{... */\n  mstore(0x40, 0x80)\n  callvalue\n  dup1\n  iszero\n  tag_1\n  jumpi\n  0x00\n  dup1\n  revert\ntag_1:\n  pop\n  dataSize(sub_0)\n  dup1\n  dataOffset(sub_0)\n  0x00\n  codecopy\n  0x00\n  return\nstop\n\nsub_0: assembly {\n        /* \"SelfDestruct.sol\":288:491  contract HelperContract{... */\n      mstore(0x40, 0x80)\n      callvalue\n      dup1\n      iszero\n      tag_1\n      jumpi\n      0x00\n      dup1\n      revert\n    tag_1:\n      pop\n      jumpi(tag_2, lt(calldatasize, 0x04))\n      shr(0xe0, calldataload(0x00))\n      dup1\n      0xf55d9d\n      eq\n      tag_3\n      jumpi\n      dup1\n      0x12065fe0\n      eq\n      tag_4\n      jumpi\n    tag_2:\n      0x00\n      dup1\n      revert\n        /* \"SelfDestruct.sol\":318:388  function destroy(KillSelf _kill) external{... */\n    tag_3:\n      tag_5\n      0x04\n      dup1\n      calldatasize\n      sub\n      dup2\n      add\n      swap1\n      tag_6\n      swap2\n      swap1\n      tag_7\n      jump\t// in\n    tag_6:\n      tag_8\n      jump\t// in\n    tag_5:\n      stop\n        /* \"SelfDestruct.sol\":394:489  function getBalance() external view returns (uint){... */\n    tag_4:\n      tag_9\n      tag_10\n      jump\t// in\n    tag_9:\n      mload(0x40)\n      tag_11\n      swap2\n      swap1\n      tag_12\n      jump\t// in\n    tag_11:\n      mload(0x40)\n      dup1\n      swap2\n      sub\n      swap1\n      return\n        /* \"SelfDestruct.sol\":318:388  function destroy(KillSelf _kill) external{... */\n    tag_8:\n        /* \"SelfDestruct.sol\":369:374  _kill */\n      dup1\n        /* \"SelfDestruct.sol\":369:379  _kill.kill */\n      0xffffffffffffffffffffffffffffffffffffffff\n      and\n      0x41c0e1b5\n        /* \"SelfDestruct.sol\":369:381  _kill.kill() */\n      mload(0x40)\n      dup2\n      0xffffffff\n      and\n      0xe0\n      shl\n      dup2\n      mstore\n      0x04\n      add\n      0x00\n      mload(0x40)\n      dup1\n      dup4\n      sub\n      dup2\n      0x00\n      dup8\n      dup1\n      extcodesize\n      iszero\n      dup1\n      iszero\n      tag_14\n      jumpi\n      0x00\n      dup1\n      revert\n    tag_14:\n      pop\n      gas\n      call\n      iszero\n      dup1\n      iszero\n      tag_16\n      jumpi\n      returndatasize\n      0x00\n      dup1\n      returndatacopy\n      revert(0x00, returndatasize)\n    tag_16:\n      pop\n      pop\n      pop\n      pop\n        /* \"SelfDestruct.sol\":318:388  function destroy(KillSelf _kill) external{... */\n      pop\n      jump\t// out\n        /* \"SelfDestruct.sol\":394:489  function getBalance() external view returns (uint){... */\n    tag_10:\n        /* \"SelfDestruct.sol\":439:443  uint */\n      0x00\n        /* \"SelfDestruct.sol\":461:482  address(this).balance */\n      selfbalance\n        /* \"SelfDestruct.sol\":454:482  return address(this).balance */\n      swap1\n      pop\n        /* \"SelfDestruct.sol\":394:489  function getBalance() external view returns (uint){... */\n      swap1\n      jump\t// out\n        /* \"#utility.yul\":7:176   */\n    tag_19:\n        /* \"#utility.yul\":68:73   */\n      0x00\n        /* \"#utility.yul\":106:112   */\n      dup2\n        /* \"#utility.yul\":93:113   */\n      calldataload\n        /* \"#utility.yul\":84:113   */\n      swap1\n      pop\n        /* \"#utility.yul\":122:170   */\n      tag_21\n        /* \"#utility.yul\":164:169   */\n      dup2\n        /* \"#utility.yul\":122:170   */\n      tag_22\n      jump\t// in\n    tag_21:\n        /* \"#utility.yul\":7:176   */\n      swap3\n      swap2\n      pop\n      pop\n      jump\t// out\n        /* \"#utility.yul\":182:541   */\n    tag_7:\n        /* \"#utility.yul\":256:262   */\n      0x00\n        /* \"#utility.yul\":305:307   */\n      0x20\n        /* \"#utility.yul\":293:302   */\n      dup3\n        /* \"#utility.yul\":284:291   */\n      dup5\n        /* \"#utility.yul\":280:303   */\n      sub\n        /* \"#utility.yul\":276:308   */\n      slt\n        /* \"#utility.yul\":273:392   */\n      iszero\n      tag_24\n      jumpi\n        /* \"#utility.yul\":311:390   */\n      tag_25\n      tag_26\n      jump\t// in\n    tag_25:\n        /* \"#utility.yul\":273:392   */\n    tag_24:\n        /* \"#utility.yul\":431:432   */\n      0x00\n        /* \"#utility.yul\":456:524   */\n      tag_27\n        /* \"#utility.yul\":516:523   */\n      dup5\n        /* \"#utility.yul\":507:513   */\n      dup3\n        /* \"#utility.yul\":496:505   */\n      dup6\n        /* \"#utility.yul\":492:514   */\n      add\n        /* \"#utility.yul\":456:524   */\n      tag_19\n      jump\t// in\n    tag_27:\n        /* \"#utility.yul\":446:524   */\n      swap2\n      pop\n        /* \"#utility.yul\":402:534   */\n      pop\n        /* \"#utility.yul\":182:541   */\n      swap3\n      swap2\n      pop\n      pop\n      jump\t// out\n        /* \"#utility.yul\":547:665   */\n    tag_28:\n        /* \"#utility.yul\":634:658   */\n      tag_30\n        /* \"#utility.yul\":652:657   */\n      dup2\n        /* \"#utility.yul\":634:658   */\n      tag_31\n      jump\t// in\n    tag_30:\n        /* \"#utility.yul\":629:632   */\n      dup3\n        /* \"#utility.yul\":622:659   */\n      mstore\n        /* \"#utility.yul\":547:665   */\n      pop\n      pop\n      jump\t// out\n        /* \"#utility.yul\":671:893   */\n    tag_12:\n        /* \"#utility.yul\":764:768   */\n      0x00\n        /* \"#utility.yul\":802:804   */\n      0x20\n        /* \"#utility.yul\":791:800   */\n      dup3\n        /* \"#utility.yul\":787:805   */\n      add\n        /* \"#utility.yul\":779:805   */\n      swap1\n      pop\n        /* \"#utility.yul\":815:886   */\n      tag_33\n        /* \"#utility.yul\":883:884   */\n      0x00\n        /* \"#utility.yul\":872:881   */\n      dup4\n        /* \"#utility.yul\":868:885   */\n      add\n        /* \"#utility.yul\":859:865   */\n      dup5\n        /* \"#utility.yul\":815:886   */\n      tag_28\n      jump\t// in\n    tag_33:\n        /* \"#utility.yul\":671:893   */\n      swap3\n      swap2\n      pop\n      pop\n      jump\t// out\n        /* \"#utility.yul\":980:1076   */\n    tag_36:\n        /* \"#utility.yul\":1017:1024   */\n      0x00\n        /* \"#utility.yul\":1046:1070   */\n      tag_38\n        /* \"#utility.yul\":1064:1069   */\n      dup3\n        /* \"#utility.yul\":1046:1070   */\n      tag_39\n      jump\t// in\n    tag_38:\n        /* \"#utility.yul\":1035:1070   */\n      swap1\n      pop\n        /* \"#utility.yul\":980:1076   */\n      swap2\n      swap1\n      pop\n      jump\t// out\n        /* \"#utility.yul\":1082:1193   */\n    tag_40:\n        /* \"#utility.yul\":1134:1141   */\n      0x00\n        /* \"#utility.yul\":1163:1187   */\n      tag_42\n        /* \"#utility.yul\":1181:1186   */\n      dup3\n        /* \"#utility.yul\":1163:1187   */\n      tag_36\n      jump\t// in\n    tag_42:\n        /* \"#utility.yul\":1152:1187   */\n      swap1\n      pop\n        /* \"#utility.yul\":1082:1193   */\n      swap2\n      swap1\n      pop\n      jump\t// out\n        /* \"#utility.yul\":1199:1325   */\n    tag_39:\n        /* \"#utility.yul\":1236:1243   */\n      0x00\n        /* \"#utility.yul\":1276:1318   */\n      0xffffffffffffffffffffffffffffffffffffffff\n        /* \"#utility.yul\":1269:1274   */\n      dup3\n        /* \"#utility.yul\":1265:1319   */\n      and\n        /* \"#utility.yul\":1254:1319   */\n      swap1\n      pop\n        /* \"#utility.yul\":1199:1325   */\n      swap2\n      swap1\n      pop\n      jump\t// out\n        /* \"#utility.yul\":1331:1408   */\n    tag_31:\n        /* \"#utility.yul\":1368:1375   */\n      0x00\n        /* \"#utility.yul\":1397:1402   */\n      dup2\n        /* \"#utility.yul\":1386:1402   */\n      swap1\n      pop\n        /* \"#utility.yul\":1331:1408   */\n      swap2\n      swap1\n      pop\n      jump\t// out\n        /* \"#utility.yul\":1537:1654   */\n    tag_26:\n        /* \"#utility.yul\":1646:1647   */\n      0x00\n        /* \"#utility.yul\":1643:1644   */\n      dup1\n        /* \"#utility.yul\":1636:1648   */\n      revert\n        /* \"#utility.yul\":1660:1812   */\n    tag_22:\n        /* \"#utility.yul\":1748:1787   */\n      tag_49\n        /* \"#utility.yul\":1781:1786   */\n      dup2\n        /* \"#utility.yul\":1748:1787   */\n      tag_40\n      jump\t// in\n    tag_49:\n        /* \"#utility.yul\":1741:1746   */\n      dup2\n        /* \"#utility.yul\":1738:1788   */\n      eq\n        /* \"#utility.yul\":1728:1806   */\n      tag_50\n      jumpi\n        /* \"#utility.yul\":1802:1803   */\n      0x00\n        /* \"#utility.yul\":1799:1800   */\n      dup1\n        /* \"#utility.yul\":1792:1804   */\n      revert\n        /* \"#utility.yul\":1728:1806   */\n    tag_50:\n        /* \"#utility.yul\":1660:1812   */\n      pop\n      jump\t// out\n\n    auxdata: 0xa2646970667358221220be87f411f44c5d7ab77c0204945c8d5ecc976441438756a0936918cd28d6a78264736f6c63430008070033\n}\n",
				"bytecode": {
					"linkReferences": {},
					"object": "608060405234801561001057600080fd5b506101eb806100206000396000f3fe608060405234801561001057600080fd5b50600436106100355760003560e01c8062f55d9d1461003a57806312065fe014610056575b600080fd5b610054600480360381019061004f91906100f4565b610074565b005b61005e6100d7565b60405161006b9190610130565b60405180910390f35b8073ffffffffffffffffffffffffffffffffffffffff166341c0e1b56040518163ffffffff1660e01b8152600401600060405180830381600087803b1580156100bc57600080fd5b505af11580156100d0573d6000803e3d6000fd5b5050505050565b600047905090565b6000813590506100ee8161019e565b92915050565b60006020828403121561010a57610109610199565b5b6000610118848285016100df565b91505092915050565b61012a8161018f565b82525050565b60006020820190506101456000830184610121565b92915050565b60006101568261016f565b9050919050565b60006101688261014b565b9050919050565b600073ffffffffffffffffffffffffffffffffffffffff82169050919050565b6000819050919050565b600080fd5b6101a78161015d565b81146101b257600080fd5b5056fea2646970667358221220be87f411f44c5d7ab77c0204945c8d5ecc976441438756a0936918cd28d6a78264736f6c63430008070033",
					"opcodes": "PUSH1 0x80 PUSH1 0x40 MSTORE CALLVALUE DUP1 ISZERO PUSH2 0x10 JUMPI PUSH1 0x0 DUP1 REVERT JUMPDEST POP PUSH2 0x1EB DUP1 PUSH2 0x20 PUSH1 0x0 CODECOPY PUSH1 0x0 RETURN INVALID PUSH1 0x80 PUSH1 0x40 MSTORE CALLVALUE DUP1 ISZERO PUSH2 0x10 JUMPI PUSH1 0x0 DUP1 REVERT JUMPDEST POP PUSH1 0x4 CALLDATASIZE LT PUSH2 0x35 JUMPI PUSH1 0x0 CALLDATALOAD PUSH1 0xE0 SHR DUP1 PUSH3 0xF55D9D EQ PUSH2 0x3A JUMPI DUP1 PUSH4 0x12065FE0 EQ PUSH2 0x56 JUMPI JUMPDEST PUSH1 0x0 DUP1 REVERT JUMPDEST PUSH2 0x54 PUSH1 0x4 DUP1 CALLDATASIZE SUB DUP2 ADD SWAP1 PUSH2 0x4F SWAP2 SWAP1 PUSH2 0xF4 JUMP JUMPDEST PUSH2 0x74 JUMP JUMPDEST STOP JUMPDEST PUSH2 0x5E PUSH2 0xD7 JUMP JUMPDEST PUSH1 0x40 MLOAD PUSH2 0x6B SWAP2 SWAP1 PUSH2 0x130 JUMP JUMPDEST PUSH1 0x40 MLOAD DUP1 SWAP2 SUB SWAP1 RETURN JUMPDEST DUP1 PUSH20 0xFFFFFFFFFFFFFFFFFFFFFFFFFFFFFFFFFFFFFFFF AND PUSH4 0x41C0E1B5 PUSH1 0x40 MLOAD DUP2 PUSH4 0xFFFFFFFF AND PUSH1 0xE0 SHL DUP2 MSTORE PUSH1 0x4 ADD PUSH1 0x0 PUSH1 0x40 MLOAD DUP1 DUP4 SUB DUP2 PUSH1 0x0 DUP8 DUP1 EXTCODESIZE ISZERO DUP1 ISZERO PUSH2 0xBC JUMPI PUSH1 0x0 DUP1 REVERT JUMPDEST POP GAS CALL ISZERO DUP1 ISZERO PUSH2 0xD0 JUMPI RETURNDATASIZE PUSH1 0x0 DUP1 RETURNDATACOPY RETURNDATASIZE PUSH1 0x0 REVERT JUMPDEST POP POP POP POP POP JUMP JUMPDEST PUSH1 0x0 SELFBALANCE SWAP1 POP SWAP1 JUMP JUMPDEST PUSH1 0x0 DUP2 CALLDATALOAD SWAP1 POP PUSH2 0xEE DUP2 PUSH2 0x19E JUMP JUMPDEST SWAP3 SWAP2 POP POP JUMP JUMPDEST PUSH1 0x0 PUSH1 0x20 DUP3 DUP5 SUB SLT ISZERO PUSH2 0x10A JUMPI PUSH2 0x109 PUSH2 0x199 JUMP JUMPDEST JUMPDEST PUSH1 0x0 PUSH2 0x118 DUP5 DUP3 DUP6 ADD PUSH2 0xDF JUMP JUMPDEST SWAP2 POP POP SWAP3 SWAP2 POP POP JUMP JUMPDEST PUSH2 0x12A DUP2 PUSH2 0x18F JUMP JUMPDEST DUP3 MSTORE POP POP JUMP JUMPDEST PUSH1 0x0 PUSH1 0x20 DUP3 ADD SWAP1 POP PUSH2 0x145 PUSH1 0x0 DUP4 ADD DUP5 PUSH2 0x121 JUMP JUMPDEST SWAP3 SWAP2 POP POP JUMP JUMPDEST PUSH1 0x0 PUSH2 0x156 DUP3 PUSH2 0x16F JUMP JUMPDEST SWAP1 POP SWAP2 SWAP1 POP JUMP JUMPDEST PUSH1 0x0 PUSH2 0x168 DUP3 PUSH2 0x14B JUMP JUMPDEST SWAP1 POP SWAP2 SWAP1 POP JUMP JUMPDEST PUSH1 0x0 PUSH20 0xFFFFFFFFFFFFFFFFFFFFFFFFFFFFFFFFFFFFFFFF DUP3 AND SWAP1 POP SWAP2 SWAP1 POP JUMP JUMPDEST PUSH1 0x0 DUP2 SWAP1 POP SWAP2 SWAP1 POP JUMP JUMPDEST PUSH1 0x0 DUP1 REVERT JUMPDEST PUSH2 0x1A7 DUP2 PUSH2 0x15D JUMP JUMPDEST DUP2 EQ PUSH2 0x1B2 JUMPI PUSH1 0x0 DUP1 REVERT JUMPDEST POP JUMP INVALID LOG2 PUSH5 0x6970667358 0x22 SLT KECCAK256 0xBE DUP8 DELEGATECALL GT DELEGATECALL 0x4C 0x5D PUSH27 0xB77C0204945C8D5ECC976441438756A0936918CD28D6A78264736F PUSH13 0x63430008070033000000000000 "
				},
				"gasEstimates": {
					"creation": {
						"codeDepositCost": "98200",
						"executionCost": "147",
						"totalCost": "98347"
					},
					"external": {
						"destroy(address)": "infinite",
						"getBalance()": "339"
					}
				},
				"methodIdentifiers": {
					"destroy(address)": "00f55d9d",
					"getBalance()": "12065fe0"
				}
			},
			"storageLayout": {
				"storage": [],
				"types": null
			},
			"userdoc": {
				"kind": "user",
				"methods": {},
				"version": 1
			}
		}
	}
}