{
	"HashFunciton.sol": {
		"HashFunction": {
			"abi": [
				{
					"inputs": [
						{
							"internalType": "string",
							"name": "_text1",
							"type": "string"
						},
						{
							"internalType": "string",
							"name": "_text2",
							"type": "string"
						}
					],
					"name": "encode",
					"outputs": [
						{
							"internalType": "bytes",
							"name": "",
							"type": "bytes"
						}
					],
					"stateMutability": "pure",
					"type": "function"
				},
				{
					"inputs": [
						{
							"internalType": "string",
							"name": "_text1",
							"type": "string"
						},
						{
							"internalType": "string",
							"name": "_text2",
							"type": "string"
						}
					],
					"name": "encodePacked",
					"outputs": [
						{
							"internalType": "bytes",
							"name": "",
							"type": "bytes"
						}
					],
					"stateMutability": "pure",
					"type": "function"
				},
				{
					"inputs": [
						{
							"internalType": "string",
							"name": "_text",
							"type": "string"
						},
						{
							"internalType": "uint256",
							"name": "_num",
							"type": "uint256"
						},
						{
							"internalType": "address",
							"name": "_address",
							"type": "address"
						}
					],
					"name": "hash",
					"outputs": [
						{
							"internalType": "bytes32",
							"name": "",
							"type": "bytes32"
						}
					],
					"stateMutability": "pure",
					"type": "function"
				}
			],
			"devdoc": {
				"kind": "dev",
				"methods": {},
				"version": 1
			},
			"evm": {
				"assembly": "    /* \"HashFunciton.sol\":75:726  contract HashFunction {... */\n  mstore(0x40, 0x80)\n  callvalue\n  dup1\n  iszero\n  tag_1\n  jumpi\n  0x00\n  dup1\n  revert\ntag_1:\n  pop\n  dataSize(sub_0)\n  dup1\n  dataOffset(sub_0)\n  0x00\n  codecopy\n  0x00\n  return\nstop\n\nsub_0: assembly {\n        /* \"HashFunciton.sol\":75:726  contract HashFunction {... */\n      mstore(0x40, 0x80)\n      callvalue\n      dup1\n      iszero\n      tag_1\n      jumpi\n      0x00\n      dup1\n      revert\n    tag_1:\n      pop\n      jumpi(tag_2, lt(calldatasize, 0x04))\n      shr(0xe0, calldataload(0x00))\n      dup1\n      0x17fe2da2\n      eq\n      tag_3\n      jumpi\n      dup1\n      0x5dda416e\n      eq\n      tag_4\n      jumpi\n      dup1\n      0x892e5d01\n      eq\n      tag_5\n      jumpi\n    tag_2:\n      0x00\n      dup1\n      revert\n        /* \"HashFunciton.sol\":413:559  function encode(string memory _text1, string memory _text2) external pure returns (bytes memory){... */\n    tag_3:\n      tag_6\n      0x04\n      dup1\n      calldatasize\n      sub\n      dup2\n      add\n      swap1\n      tag_7\n      swap2\n      swap1\n      tag_8\n      jump\t// in\n    tag_7:\n      tag_9\n      jump\t// in\n    tag_6:\n      mload(0x40)\n      tag_10\n      swap2\n      swap1\n      tag_11\n      jump\t// in\n    tag_10:\n      mload(0x40)\n      dup1\n      swap2\n      sub\n      swap1\n      return\n        /* \"HashFunciton.sol\":108:407  function hash(string memory _text, uint _num, address _address) external pure returns (bytes32) {... */\n    tag_4:\n      tag_12\n      0x04\n      dup1\n      calldatasize\n      sub\n      dup2\n      add\n      swap1\n      tag_13\n      swap2\n      swap1\n      tag_14\n      jump\t// in\n    tag_13:\n      tag_15\n      jump\t// in\n    tag_12:\n      mload(0x40)\n      tag_16\n      swap2\n      swap1\n      tag_17\n      jump\t// in\n    tag_16:\n      mload(0x40)\n      dup1\n      swap2\n      sub\n      swap1\n      return\n        /* \"HashFunciton.sol\":565:723  function encodePacked(string memory _text1, string memory _text2) external pure returns (bytes memory){... */\n    tag_5:\n      tag_18\n      0x04\n      dup1\n      calldatasize\n      sub\n      dup2\n      add\n      swap1\n      tag_19\n      swap2\n      swap1\n      tag_8\n      jump\t// in\n    tag_19:\n      tag_20\n      jump\t// in\n    tag_18:\n      mload(0x40)\n      tag_21\n      swap2\n      swap1\n      tag_11\n      jump\t// in\n    tag_21:\n      mload(0x40)\n      dup1\n      swap2\n      sub\n      swap1\n      return\n        /* \"HashFunciton.sol\":413:559  function encode(string memory _text1, string memory _text2) external pure returns (bytes memory){... */\n    tag_9:\n        /* \"HashFunciton.sol\":496:508  bytes memory */\n      0x60\n        /* \"HashFunciton.sol\":537:543  _text1 */\n      dup3\n        /* \"HashFunciton.sol\":545:551  _text2 */\n      dup3\n        /* \"HashFunciton.sol\":526:552  abi.encode(_text1, _text2) */\n      add(0x20, mload(0x40))\n      tag_23\n      swap3\n      swap2\n      swap1\n      tag_24\n      jump\t// in\n    tag_23:\n      mload(0x40)\n      0x20\n      dup2\n      dup4\n      sub\n      sub\n      dup2\n      mstore\n      swap1\n      0x40\n      mstore\n        /* \"HashFunciton.sol\":519:552  return abi.encode(_text1, _text2) */\n      swap1\n      pop\n        /* \"HashFunciton.sol\":413:559  function encode(string memory _text1, string memory _text2) external pure returns (bytes memory){... */\n      swap3\n      swap2\n      pop\n      pop\n      jump\t// out\n        /* \"HashFunciton.sol\":108:407  function hash(string memory _text, uint _num, address _address) external pure returns (bytes32) {... */\n    tag_15:\n        /* \"HashFunciton.sol\":195:202  bytes32 */\n      0x00\n        /* \"HashFunciton.sol\":377:382  _text */\n      dup4\n        /* \"HashFunciton.sol\":384:388  _num */\n      dup4\n        /* \"HashFunciton.sol\":390:398  _address */\n      dup4\n        /* \"HashFunciton.sol\":360:399  abi.encodePacked(_text, _num, _address) */\n      add(0x20, mload(0x40))\n      tag_26\n      swap4\n      swap3\n      swap2\n      swap1\n      tag_27\n      jump\t// in\n    tag_26:\n      mload(0x40)\n      0x20\n      dup2\n      dup4\n      sub\n      sub\n      dup2\n      mstore\n      swap1\n      0x40\n      mstore\n        /* \"HashFunciton.sol\":350:400  keccak256(abi.encodePacked(_text, _num, _address)) */\n      dup1\n      mload\n      swap1\n      0x20\n      add\n      keccak256\n        /* \"HashFunciton.sol\":343:400  return keccak256(abi.encodePacked(_text, _num, _address)) */\n      swap1\n      pop\n        /* \"HashFunciton.sol\":108:407  function hash(string memory _text, uint _num, address _address) external pure returns (bytes32) {... */\n      swap4\n      swap3\n      pop\n      pop\n      pop\n      jump\t// out\n        /* \"HashFunciton.sol\":565:723  function encodePacked(string memory _text1, string memory _text2) external pure returns (bytes memory){... */\n    tag_20:\n        /* \"HashFunciton.sol\":654:666  bytes memory */\n      0x60\n        /* \"HashFunciton.sol\":701:707  _text1 */\n      dup3\n        /* \"HashFunciton.sol\":709:715  _text2 */\n      dup3\n        /* \"HashFunciton.sol\":684:716  abi.encodePacked(_text1, _text2) */\n      add(0x20, mload(0x40))\n      tag_29\n      swap3\n      swap2\n      swap1\n      tag_30\n      jump\t// in\n    tag_29:\n      mload(0x40)\n      0x20\n      dup2\n      dup4\n      sub\n      sub\n      dup2\n      mstore\n      swap1\n      0x40\n      mstore\n        /* \"HashFunciton.sol\":677:716  return abi.encodePacked(_text1, _text2) */\n      swap1\n      pop\n        /* \"HashFunciton.sol\":565:723  function encodePacked(string memory _text1, string memory _text2) external pure returns (bytes memory){... */\n      swap3\n      swap2\n      pop\n      pop\n      jump\t// out\n        /* \"#utility.yul\":7:419   */\n    tag_32:\n        /* \"#utility.yul\":85:90   */\n      0x00\n        /* \"#utility.yul\":110:176   */\n      tag_34\n        /* \"#utility.yul\":126:175   */\n      tag_35\n        /* \"#utility.yul\":168:174   */\n      dup5\n        /* \"#utility.yul\":126:175   */\n      tag_36\n      jump\t// in\n    tag_35:\n        /* \"#utility.yul\":110:176   */\n      tag_37\n      jump\t// in\n    tag_34:\n        /* \"#utility.yul\":101:176   */\n      swap1\n      pop\n        /* \"#utility.yul\":199:205   */\n      dup3\n        /* \"#utility.yul\":192:197   */\n      dup2\n        /* \"#utility.yul\":185:206   */\n      mstore\n        /* \"#utility.yul\":237:241   */\n      0x20\n        /* \"#utility.yul\":230:235   */\n      dup2\n        /* \"#utility.yul\":226:242   */\n      add\n        /* \"#utility.yul\":275:278   */\n      dup5\n        /* \"#utility.yul\":266:272   */\n      dup5\n        /* \"#utility.yul\":261:264   */\n      dup5\n        /* \"#utility.yul\":257:273   */\n      add\n        /* \"#utility.yul\":254:279   */\n      gt\n        /* \"#utility.yul\":251:363   */\n      iszero\n      tag_38\n      jumpi\n        /* \"#utility.yul\":282:361   */\n      tag_39\n      tag_40\n      jump\t// in\n    tag_39:\n        /* \"#utility.yul\":251:363   */\n    tag_38:\n        /* \"#utility.yul\":372:413   */\n      tag_41\n        /* \"#utility.yul\":406:412   */\n      dup5\n        /* \"#utility.yul\":401:404   */\n      dup3\n        /* \"#utility.yul\":396:399   */\n      dup6\n        /* \"#utility.yul\":372:413   */\n      tag_42\n      jump\t// in\n    tag_41:\n        /* \"#utility.yul\":91:419   */\n      pop\n        /* \"#utility.yul\":7:419   */\n      swap4\n      swap3\n      pop\n      pop\n      pop\n      jump\t// out\n        /* \"#utility.yul\":425:564   */\n    tag_43:\n        /* \"#utility.yul\":471:476   */\n      0x00\n        /* \"#utility.yul\":509:515   */\n      dup2\n        /* \"#utility.yul\":496:516   */\n      calldataload\n        /* \"#utility.yul\":487:516   */\n      swap1\n      pop\n        /* \"#utility.yul\":525:558   */\n      tag_45\n        /* \"#utility.yul\":552:557   */\n      dup2\n        /* \"#utility.yul\":525:558   */\n      tag_46\n      jump\t// in\n    tag_45:\n        /* \"#utility.yul\":425:564   */\n      swap3\n      swap2\n      pop\n      pop\n      jump\t// out\n        /* \"#utility.yul\":584:924   */\n    tag_47:\n        /* \"#utility.yul\":640:645   */\n      0x00\n        /* \"#utility.yul\":689:692   */\n      dup3\n        /* \"#utility.yul\":682:686   */\n      0x1f\n        /* \"#utility.yul\":674:680   */\n      dup4\n        /* \"#utility.yul\":670:687   */\n      add\n        /* \"#utility.yul\":666:693   */\n      slt\n        /* \"#utility.yul\":656:778   */\n      tag_49\n      jumpi\n        /* \"#utility.yul\":697:776   */\n      tag_50\n      tag_51\n      jump\t// in\n    tag_50:\n        /* \"#utility.yul\":656:778   */\n    tag_49:\n        /* \"#utility.yul\":814:820   */\n      dup2\n        /* \"#utility.yul\":801:821   */\n      calldataload\n        /* \"#utility.yul\":839:918   */\n      tag_52\n        /* \"#utility.yul\":914:917   */\n      dup5\n        /* \"#utility.yul\":906:912   */\n      dup3\n        /* \"#utility.yul\":899:903   */\n      0x20\n        /* \"#utility.yul\":891:897   */\n      dup7\n        /* \"#utility.yul\":887:904   */\n      add\n        /* \"#utility.yul\":839:918   */\n      tag_32\n      jump\t// in\n    tag_52:\n        /* \"#utility.yul\":830:918   */\n      swap2\n      pop\n        /* \"#utility.yul\":646:924   */\n      pop\n        /* \"#utility.yul\":584:924   */\n      swap3\n      swap2\n      pop\n      pop\n      jump\t// out\n        /* \"#utility.yul\":930:1069   */\n    tag_53:\n        /* \"#utility.yul\":976:981   */\n      0x00\n        /* \"#utility.yul\":1014:1020   */\n      dup2\n        /* \"#utility.yul\":1001:1021   */\n      calldataload\n        /* \"#utility.yul\":992:1021   */\n      swap1\n      pop\n        /* \"#utility.yul\":1030:1063   */\n      tag_55\n        /* \"#utility.yul\":1057:1062   */\n      dup2\n        /* \"#utility.yul\":1030:1063   */\n      tag_56\n      jump\t// in\n    tag_55:\n        /* \"#utility.yul\":930:1069   */\n      swap3\n      swap2\n      pop\n      pop\n      jump\t// out\n        /* \"#utility.yul\":1075:1909   */\n    tag_8:\n        /* \"#utility.yul\":1163:1169   */\n      0x00\n        /* \"#utility.yul\":1171:1177   */\n      dup1\n        /* \"#utility.yul\":1220:1222   */\n      0x40\n        /* \"#utility.yul\":1208:1217   */\n      dup4\n        /* \"#utility.yul\":1199:1206   */\n      dup6\n        /* \"#utility.yul\":1195:1218   */\n      sub\n        /* \"#utility.yul\":1191:1223   */\n      slt\n        /* \"#utility.yul\":1188:1307   */\n      iszero\n      tag_58\n      jumpi\n        /* \"#utility.yul\":1226:1305   */\n      tag_59\n      tag_60\n      jump\t// in\n    tag_59:\n        /* \"#utility.yul\":1188:1307   */\n    tag_58:\n        /* \"#utility.yul\":1374:1375   */\n      0x00\n        /* \"#utility.yul\":1363:1372   */\n      dup4\n        /* \"#utility.yul\":1359:1376   */\n      add\n        /* \"#utility.yul\":1346:1377   */\n      calldataload\n        /* \"#utility.yul\":1404:1422   */\n      0xffffffffffffffff\n        /* \"#utility.yul\":1396:1402   */\n      dup2\n        /* \"#utility.yul\":1393:1423   */\n      gt\n        /* \"#utility.yul\":1390:1507   */\n      iszero\n      tag_61\n      jumpi\n        /* \"#utility.yul\":1426:1505   */\n      tag_62\n      tag_63\n      jump\t// in\n    tag_62:\n        /* \"#utility.yul\":1390:1507   */\n    tag_61:\n        /* \"#utility.yul\":1531:1594   */\n      tag_64\n        /* \"#utility.yul\":1586:1593   */\n      dup6\n        /* \"#utility.yul\":1577:1583   */\n      dup3\n        /* \"#utility.yul\":1566:1575   */\n      dup7\n        /* \"#utility.yul\":1562:1584   */\n      add\n        /* \"#utility.yul\":1531:1594   */\n      tag_47\n      jump\t// in\n    tag_64:\n        /* \"#utility.yul\":1521:1594   */\n      swap3\n      pop\n        /* \"#utility.yul\":1317:1604   */\n      pop\n        /* \"#utility.yul\":1671:1673   */\n      0x20\n        /* \"#utility.yul\":1660:1669   */\n      dup4\n        /* \"#utility.yul\":1656:1674   */\n      add\n        /* \"#utility.yul\":1643:1675   */\n      calldataload\n        /* \"#utility.yul\":1702:1720   */\n      0xffffffffffffffff\n        /* \"#utility.yul\":1694:1700   */\n      dup2\n        /* \"#utility.yul\":1691:1721   */\n      gt\n        /* \"#utility.yul\":1688:1805   */\n      iszero\n      tag_65\n      jumpi\n        /* \"#utility.yul\":1724:1803   */\n      tag_66\n      tag_63\n      jump\t// in\n    tag_66:\n        /* \"#utility.yul\":1688:1805   */\n    tag_65:\n        /* \"#utility.yul\":1829:1892   */\n      tag_67\n        /* \"#utility.yul\":1884:1891   */\n      dup6\n        /* \"#utility.yul\":1875:1881   */\n      dup3\n        /* \"#utility.yul\":1864:1873   */\n      dup7\n        /* \"#utility.yul\":1860:1882   */\n      add\n        /* \"#utility.yul\":1829:1892   */\n      tag_47\n      jump\t// in\n    tag_67:\n        /* \"#utility.yul\":1819:1892   */\n      swap2\n      pop\n        /* \"#utility.yul\":1614:1902   */\n      pop\n        /* \"#utility.yul\":1075:1909   */\n      swap3\n      pop\n      swap3\n      swap1\n      pop\n      jump\t// out\n        /* \"#utility.yul\":1915:2714   */\n    tag_14:\n        /* \"#utility.yul\":2002:2008   */\n      0x00\n        /* \"#utility.yul\":2010:2016   */\n      dup1\n        /* \"#utility.yul\":2018:2024   */\n      0x00\n        /* \"#utility.yul\":2067:2069   */\n      0x60\n        /* \"#utility.yul\":2055:2064   */\n      dup5\n        /* \"#utility.yul\":2046:2053   */\n      dup7\n        /* \"#utility.yul\":2042:2065   */\n      sub\n        /* \"#utility.yul\":2038:2070   */\n      slt\n        /* \"#utility.yul\":2035:2154   */\n      iszero\n      tag_69\n      jumpi\n        /* \"#utility.yul\":2073:2152   */\n      tag_70\n      tag_60\n      jump\t// in\n    tag_70:\n        /* \"#utility.yul\":2035:2154   */\n    tag_69:\n        /* \"#utility.yul\":2221:2222   */\n      0x00\n        /* \"#utility.yul\":2210:2219   */\n      dup5\n        /* \"#utility.yul\":2206:2223   */\n      add\n        /* \"#utility.yul\":2193:2224   */\n      calldataload\n        /* \"#utility.yul\":2251:2269   */\n      0xffffffffffffffff\n        /* \"#utility.yul\":2243:2249   */\n      dup2\n        /* \"#utility.yul\":2240:2270   */\n      gt\n        /* \"#utility.yul\":2237:2354   */\n      iszero\n      tag_71\n      jumpi\n        /* \"#utility.yul\":2273:2352   */\n      tag_72\n      tag_63\n      jump\t// in\n    tag_72:\n        /* \"#utility.yul\":2237:2354   */\n    tag_71:\n        /* \"#utility.yul\":2378:2441   */\n      tag_73\n        /* \"#utility.yul\":2433:2440   */\n      dup7\n        /* \"#utility.yul\":2424:2430   */\n      dup3\n        /* \"#utility.yul\":2413:2422   */\n      dup8\n        /* \"#utility.yul\":2409:2431   */\n      add\n        /* \"#utility.yul\":2378:2441   */\n      tag_47\n      jump\t// in\n    tag_73:\n        /* \"#utility.yul\":2368:2441   */\n      swap4\n      pop\n        /* \"#utility.yul\":2164:2451   */\n      pop\n        /* \"#utility.yul\":2490:2492   */\n      0x20\n        /* \"#utility.yul\":2516:2569   */\n      tag_74\n        /* \"#utility.yul\":2561:2568   */\n      dup7\n        /* \"#utility.yul\":2552:2558   */\n      dup3\n        /* \"#utility.yul\":2541:2550   */\n      dup8\n        /* \"#utility.yul\":2537:2559   */\n      add\n        /* \"#utility.yul\":2516:2569   */\n      tag_53\n      jump\t// in\n    tag_74:\n        /* \"#utility.yul\":2506:2569   */\n      swap3\n      pop\n        /* \"#utility.yul\":2461:2579   */\n      pop\n        /* \"#utility.yul\":2618:2620   */\n      0x40\n        /* \"#utility.yul\":2644:2697   */\n      tag_75\n        /* \"#utility.yul\":2689:2696   */\n      dup7\n        /* \"#utility.yul\":2680:2686   */\n      dup3\n        /* \"#utility.yul\":2669:2678   */\n      dup8\n        /* \"#utility.yul\":2665:2687   */\n      add\n        /* \"#utility.yul\":2644:2697   */\n      tag_43\n      jump\t// in\n    tag_75:\n        /* \"#utility.yul\":2634:2697   */\n      swap2\n      pop\n        /* \"#utility.yul\":2589:2707   */\n      pop\n        /* \"#utility.yul\":1915:2714   */\n      swap3\n      pop\n      swap3\n      pop\n      swap3\n      jump\t// out\n        /* \"#utility.yul\":2720:2877   */\n    tag_76:\n        /* \"#utility.yul\":2825:2870   */\n      tag_78\n        /* \"#utility.yul\":2845:2869   */\n      tag_79\n        /* \"#utility.yul\":2863:2868   */\n      dup3\n        /* \"#utility.yul\":2845:2869   */\n      tag_80\n      jump\t// in\n    tag_79:\n        /* \"#utility.yul\":2825:2870   */\n      tag_81\n      jump\t// in\n    tag_78:\n        /* \"#utility.yul\":2820:2823   */\n      dup3\n        /* \"#utility.yul\":2813:2871   */\n      mstore\n        /* \"#utility.yul\":2720:2877   */\n      pop\n      pop\n      jump\t// out\n        /* \"#utility.yul\":2883:3001   */\n    tag_82:\n        /* \"#utility.yul\":2970:2994   */\n      tag_84\n        /* \"#utility.yul\":2988:2993   */\n      dup2\n        /* \"#utility.yul\":2970:2994   */\n      tag_85\n      jump\t// in\n    tag_84:\n        /* \"#utility.yul\":2965:2968   */\n      dup3\n        /* \"#utility.yul\":2958:2995   */\n      mstore\n        /* \"#utility.yul\":2883:3001   */\n      pop\n      pop\n      jump\t// out\n        /* \"#utility.yul\":3007:3367   */\n    tag_86:\n        /* \"#utility.yul\":3093:3096   */\n      0x00\n        /* \"#utility.yul\":3121:3159   */\n      tag_88\n        /* \"#utility.yul\":3153:3158   */\n      dup3\n        /* \"#utility.yul\":3121:3159   */\n      tag_89\n      jump\t// in\n    tag_88:\n        /* \"#utility.yul\":3175:3245   */\n      tag_90\n        /* \"#utility.yul\":3238:3244   */\n      dup2\n        /* \"#utility.yul\":3233:3236   */\n      dup6\n        /* \"#utility.yul\":3175:3245   */\n      tag_91\n      jump\t// in\n    tag_90:\n        /* \"#utility.yul\":3168:3245   */\n      swap4\n      pop\n        /* \"#utility.yul\":3254:3306   */\n      tag_92\n        /* \"#utility.yul\":3299:3305   */\n      dup2\n        /* \"#utility.yul\":3294:3297   */\n      dup6\n        /* \"#utility.yul\":3287:3291   */\n      0x20\n        /* \"#utility.yul\":3280:3285   */\n      dup7\n        /* \"#utility.yul\":3276:3292   */\n      add\n        /* \"#utility.yul\":3254:3306   */\n      tag_93\n      jump\t// in\n    tag_92:\n        /* \"#utility.yul\":3331:3360   */\n      tag_94\n        /* \"#utility.yul\":3353:3359   */\n      dup2\n        /* \"#utility.yul\":3331:3360   */\n      tag_95\n      jump\t// in\n    tag_94:\n        /* \"#utility.yul\":3326:3329   */\n      dup5\n        /* \"#utility.yul\":3322:3361   */\n      add\n        /* \"#utility.yul\":3315:3361   */\n      swap2\n      pop\n        /* \"#utility.yul\":3097:3367   */\n      pop\n        /* \"#utility.yul\":3007:3367   */\n      swap3\n      swap2\n      pop\n      pop\n      jump\t// out\n        /* \"#utility.yul\":3373:3737   */\n    tag_96:\n        /* \"#utility.yul\":3461:3464   */\n      0x00\n        /* \"#utility.yul\":3489:3528   */\n      tag_98\n        /* \"#utility.yul\":3522:3527   */\n      dup3\n        /* \"#utility.yul\":3489:3528   */\n      tag_99\n      jump\t// in\n    tag_98:\n        /* \"#utility.yul\":3544:3615   */\n      tag_100\n        /* \"#utility.yul\":3608:3614   */\n      dup2\n        /* \"#utility.yul\":3603:3606   */\n      dup6\n        /* \"#utility.yul\":3544:3615   */\n      tag_101\n      jump\t// in\n    tag_100:\n        /* \"#utility.yul\":3537:3615   */\n      swap4\n      pop\n        /* \"#utility.yul\":3624:3676   */\n      tag_102\n        /* \"#utility.yul\":3669:3675   */\n      dup2\n        /* \"#utility.yul\":3664:3667   */\n      dup6\n        /* \"#utility.yul\":3657:3661   */\n      0x20\n        /* \"#utility.yul\":3650:3655   */\n      dup7\n        /* \"#utility.yul\":3646:3662   */\n      add\n        /* \"#utility.yul\":3624:3676   */\n      tag_93\n      jump\t// in\n    tag_102:\n        /* \"#utility.yul\":3701:3730   */\n      tag_103\n        /* \"#utility.yul\":3723:3729   */\n      dup2\n        /* \"#utility.yul\":3701:3730   */\n      tag_95\n      jump\t// in\n    tag_103:\n        /* \"#utility.yul\":3696:3699   */\n      dup5\n        /* \"#utility.yul\":3692:3731   */\n      add\n        /* \"#utility.yul\":3685:3731   */\n      swap2\n      pop\n        /* \"#utility.yul\":3465:3737   */\n      pop\n        /* \"#utility.yul\":3373:3737   */\n      swap3\n      swap2\n      pop\n      pop\n      jump\t// out\n        /* \"#utility.yul\":3743:4120   */\n    tag_104:\n        /* \"#utility.yul\":3849:3852   */\n      0x00\n        /* \"#utility.yul\":3877:3916   */\n      tag_106\n        /* \"#utility.yul\":3910:3915   */\n      dup3\n        /* \"#utility.yul\":3877:3916   */\n      tag_99\n      jump\t// in\n    tag_106:\n        /* \"#utility.yul\":3932:4021   */\n      tag_107\n        /* \"#utility.yul\":4014:4020   */\n      dup2\n        /* \"#utility.yul\":4009:4012   */\n      dup6\n        /* \"#utility.yul\":3932:4021   */\n      tag_108\n      jump\t// in\n    tag_107:\n        /* \"#utility.yul\":3925:4021   */\n      swap4\n      pop\n        /* \"#utility.yul\":4030:4082   */\n      tag_109\n        /* \"#utility.yul\":4075:4081   */\n      dup2\n        /* \"#utility.yul\":4070:4073   */\n      dup6\n        /* \"#utility.yul\":4063:4067   */\n      0x20\n        /* \"#utility.yul\":4056:4061   */\n      dup7\n        /* \"#utility.yul\":4052:4068   */\n      add\n        /* \"#utility.yul\":4030:4082   */\n      tag_93\n      jump\t// in\n    tag_109:\n        /* \"#utility.yul\":4107:4113   */\n      dup1\n        /* \"#utility.yul\":4102:4105   */\n      dup5\n        /* \"#utility.yul\":4098:4114   */\n      add\n        /* \"#utility.yul\":4091:4114   */\n      swap2\n      pop\n        /* \"#utility.yul\":3853:4120   */\n      pop\n        /* \"#utility.yul\":3743:4120   */\n      swap3\n      swap2\n      pop\n      pop\n      jump\t// out\n        /* \"#utility.yul\":4126:4283   */\n    tag_110:\n        /* \"#utility.yul\":4231:4276   */\n      tag_112\n        /* \"#utility.yul\":4251:4275   */\n      tag_113\n        /* \"#utility.yul\":4269:4274   */\n      dup3\n        /* \"#utility.yul\":4251:4275   */\n      tag_114\n      jump\t// in\n    tag_113:\n        /* \"#utility.yul\":4231:4276   */\n      tag_115\n      jump\t// in\n    tag_112:\n        /* \"#utility.yul\":4226:4229   */\n      dup3\n        /* \"#utility.yul\":4219:4277   */\n      mstore\n        /* \"#utility.yul\":4126:4283   */\n      pop\n      pop\n      jump\t// out\n        /* \"#utility.yul\":4289:4724   */\n    tag_30:\n        /* \"#utility.yul\":4469:4472   */\n      0x00\n        /* \"#utility.yul\":4491:4586   */\n      tag_117\n        /* \"#utility.yul\":4582:4585   */\n      dup3\n        /* \"#utility.yul\":4573:4579   */\n      dup6\n        /* \"#utility.yul\":4491:4586   */\n      tag_104\n      jump\t// in\n    tag_117:\n        /* \"#utility.yul\":4484:4586   */\n      swap2\n      pop\n        /* \"#utility.yul\":4603:4698   */\n      tag_118\n        /* \"#utility.yul\":4694:4697   */\n      dup3\n        /* \"#utility.yul\":4685:4691   */\n      dup5\n        /* \"#utility.yul\":4603:4698   */\n      tag_104\n      jump\t// in\n    tag_118:\n        /* \"#utility.yul\":4596:4698   */\n      swap2\n      pop\n        /* \"#utility.yul\":4715:4718   */\n      dup2\n        /* \"#utility.yul\":4708:4718   */\n      swap1\n      pop\n        /* \"#utility.yul\":4289:4724   */\n      swap4\n      swap3\n      pop\n      pop\n      pop\n      jump\t// out\n        /* \"#utility.yul\":4730:5287   */\n    tag_27:\n        /* \"#utility.yul\":4918:4921   */\n      0x00\n        /* \"#utility.yul\":4940:5035   */\n      tag_120\n        /* \"#utility.yul\":5031:5034   */\n      dup3\n        /* \"#utility.yul\":5022:5028   */\n      dup7\n        /* \"#utility.yul\":4940:5035   */\n      tag_104\n      jump\t// in\n    tag_120:\n        /* \"#utility.yul\":4933:5035   */\n      swap2\n      pop\n        /* \"#utility.yul\":5045:5120   */\n      tag_121\n        /* \"#utility.yul\":5116:5119   */\n      dup3\n        /* \"#utility.yul\":5107:5113   */\n      dup6\n        /* \"#utility.yul\":5045:5120   */\n      tag_110\n      jump\t// in\n    tag_121:\n        /* \"#utility.yul\":5145:5147   */\n      0x20\n        /* \"#utility.yul\":5140:5143   */\n      dup3\n        /* \"#utility.yul\":5136:5148   */\n      add\n        /* \"#utility.yul\":5129:5148   */\n      swap2\n      pop\n        /* \"#utility.yul\":5158:5233   */\n      tag_122\n        /* \"#utility.yul\":5229:5232   */\n      dup3\n        /* \"#utility.yul\":5220:5226   */\n      dup5\n        /* \"#utility.yul\":5158:5233   */\n      tag_76\n      jump\t// in\n    tag_122:\n        /* \"#utility.yul\":5258:5260   */\n      0x14\n        /* \"#utility.yul\":5253:5256   */\n      dup3\n        /* \"#utility.yul\":5249:5261   */\n      add\n        /* \"#utility.yul\":5242:5261   */\n      swap2\n      pop\n        /* \"#utility.yul\":5278:5281   */\n      dup2\n        /* \"#utility.yul\":5271:5281   */\n      swap1\n      pop\n        /* \"#utility.yul\":4730:5287   */\n      swap5\n      swap4\n      pop\n      pop\n      pop\n      pop\n      jump\t// out\n        /* \"#utility.yul\":5293:5515   */\n    tag_17:\n        /* \"#utility.yul\":5386:5390   */\n      0x00\n        /* \"#utility.yul\":5424:5426   */\n      0x20\n        /* \"#utility.yul\":5413:5422   */\n      dup3\n        /* \"#utility.yul\":5409:5427   */\n      add\n        /* \"#utility.yul\":5401:5427   */\n      swap1\n      pop\n        /* \"#utility.yul\":5437:5508   */\n      tag_124\n        /* \"#utility.yul\":5505:5506   */\n      0x00\n        /* \"#utility.yul\":5494:5503   */\n      dup4\n        /* \"#utility.yul\":5490:5507   */\n      add\n        /* \"#utility.yul\":5481:5487   */\n      dup5\n        /* \"#utility.yul\":5437:5508   */\n      tag_82\n      jump\t// in\n    tag_124:\n        /* \"#utility.yul\":5293:5515   */\n      swap3\n      swap2\n      pop\n      pop\n      jump\t// out\n        /* \"#utility.yul\":5521:5830   */\n    tag_11:\n        /* \"#utility.yul\":5632:5636   */\n      0x00\n        /* \"#utility.yul\":5670:5672   */\n      0x20\n        /* \"#utility.yul\":5659:5668   */\n      dup3\n        /* \"#utility.yul\":5655:5673   */\n      add\n        /* \"#utility.yul\":5647:5673   */\n      swap1\n      pop\n        /* \"#utility.yul\":5719:5728   */\n      dup2\n        /* \"#utility.yul\":5713:5717   */\n      dup2\n        /* \"#utility.yul\":5709:5729   */\n      sub\n        /* \"#utility.yul\":5705:5706   */\n      0x00\n        /* \"#utility.yul\":5694:5703   */\n      dup4\n        /* \"#utility.yul\":5690:5707   */\n      add\n        /* \"#utility.yul\":5683:5730   */\n      mstore\n        /* \"#utility.yul\":5747:5823   */\n      tag_126\n        /* \"#utility.yul\":5818:5822   */\n      dup2\n        /* \"#utility.yul\":5809:5815   */\n      dup5\n        /* \"#utility.yul\":5747:5823   */\n      tag_86\n      jump\t// in\n    tag_126:\n        /* \"#utility.yul\":5739:5823   */\n      swap1\n      pop\n        /* \"#utility.yul\":5521:5830   */\n      swap3\n      swap2\n      pop\n      pop\n      jump\t// out\n        /* \"#utility.yul\":5836:6350   */\n    tag_24:\n        /* \"#utility.yul\":5997:6001   */\n      0x00\n        /* \"#utility.yul\":6035:6037   */\n      0x40\n        /* \"#utility.yul\":6024:6033   */\n      dup3\n        /* \"#utility.yul\":6020:6038   */\n      add\n        /* \"#utility.yul\":6012:6038   */\n      swap1\n      pop\n        /* \"#utility.yul\":6084:6093   */\n      dup2\n        /* \"#utility.yul\":6078:6082   */\n      dup2\n        /* \"#utility.yul\":6074:6094   */\n      sub\n        /* \"#utility.yul\":6070:6071   */\n      0x00\n        /* \"#utility.yul\":6059:6068   */\n      dup4\n        /* \"#utility.yul\":6055:6072   */\n      add\n        /* \"#utility.yul\":6048:6095   */\n      mstore\n        /* \"#utility.yul\":6112:6190   */\n      tag_128\n        /* \"#utility.yul\":6185:6189   */\n      dup2\n        /* \"#utility.yul\":6176:6182   */\n      dup6\n        /* \"#utility.yul\":6112:6190   */\n      tag_96\n      jump\t// in\n    tag_128:\n        /* \"#utility.yul\":6104:6190   */\n      swap1\n      pop\n        /* \"#utility.yul\":6237:6246   */\n      dup2\n        /* \"#utility.yul\":6231:6235   */\n      dup2\n        /* \"#utility.yul\":6227:6247   */\n      sub\n        /* \"#utility.yul\":6222:6224   */\n      0x20\n        /* \"#utility.yul\":6211:6220   */\n      dup4\n        /* \"#utility.yul\":6207:6225   */\n      add\n        /* \"#utility.yul\":6200:6248   */\n      mstore\n        /* \"#utility.yul\":6265:6343   */\n      tag_129\n        /* \"#utility.yul\":6338:6342   */\n      dup2\n        /* \"#utility.yul\":6329:6335   */\n      dup5\n        /* \"#utility.yul\":6265:6343   */\n      tag_96\n      jump\t// in\n    tag_129:\n        /* \"#utility.yul\":6257:6343   */\n      swap1\n      pop\n        /* \"#utility.yul\":5836:6350   */\n      swap4\n      swap3\n      pop\n      pop\n      pop\n      jump\t// out\n        /* \"#utility.yul\":6356:6485   */\n    tag_37:\n        /* \"#utility.yul\":6390:6396   */\n      0x00\n        /* \"#utility.yul\":6417:6437   */\n      tag_131\n      tag_132\n      jump\t// in\n    tag_131:\n        /* \"#utility.yul\":6407:6437   */\n      swap1\n      pop\n        /* \"#utility.yul\":6446:6479   */\n      tag_133\n        /* \"#utility.yul\":6474:6478   */\n      dup3\n        /* \"#utility.yul\":6466:6472   */\n      dup3\n        /* \"#utility.yul\":6446:6479   */\n      tag_134\n      jump\t// in\n    tag_133:\n        /* \"#utility.yul\":6356:6485   */\n      swap2\n      swap1\n      pop\n      jump\t// out\n        /* \"#utility.yul\":6491:6566   */\n    tag_132:\n        /* \"#utility.yul\":6524:6530   */\n      0x00\n        /* \"#utility.yul\":6557:6559   */\n      0x40\n        /* \"#utility.yul\":6551:6560   */\n      mload\n        /* \"#utility.yul\":6541:6560   */\n      swap1\n      pop\n        /* \"#utility.yul\":6491:6566   */\n      swap1\n      jump\t// out\n        /* \"#utility.yul\":6572:6880   */\n    tag_36:\n        /* \"#utility.yul\":6634:6638   */\n      0x00\n        /* \"#utility.yul\":6724:6742   */\n      0xffffffffffffffff\n        /* \"#utility.yul\":6716:6722   */\n      dup3\n        /* \"#utility.yul\":6713:6743   */\n      gt\n        /* \"#utility.yul\":6710:6766   */\n      iszero\n      tag_137\n      jumpi\n        /* \"#utility.yul\":6746:6764   */\n      tag_138\n      tag_139\n      jump\t// in\n    tag_138:\n        /* \"#utility.yul\":6710:6766   */\n    tag_137:\n        /* \"#utility.yul\":6784:6813   */\n      tag_140\n        /* \"#utility.yul\":6806:6812   */\n      dup3\n        /* \"#utility.yul\":6784:6813   */\n      tag_95\n      jump\t// in\n    tag_140:\n        /* \"#utility.yul\":6776:6813   */\n      swap1\n      pop\n        /* \"#utility.yul\":6868:6872   */\n      0x20\n        /* \"#utility.yul\":6862:6866   */\n      dup2\n        /* \"#utility.yul\":6858:6873   */\n      add\n        /* \"#utility.yul\":6850:6873   */\n      swap1\n      pop\n        /* \"#utility.yul\":6572:6880   */\n      swap2\n      swap1\n      pop\n      jump\t// out\n        /* \"#utility.yul\":6886:6984   */\n    tag_89:\n        /* \"#utility.yul\":6937:6943   */\n      0x00\n        /* \"#utility.yul\":6971:6976   */\n      dup2\n        /* \"#utility.yul\":6965:6977   */\n      mload\n        /* \"#utility.yul\":6955:6977   */\n      swap1\n      pop\n        /* \"#utility.yul\":6886:6984   */\n      swap2\n      swap1\n      pop\n      jump\t// out\n        /* \"#utility.yul\":6990:7089   */\n    tag_99:\n        /* \"#utility.yul\":7042:7048   */\n      0x00\n        /* \"#utility.yul\":7076:7081   */\n      dup2\n        /* \"#utility.yul\":7070:7082   */\n      mload\n        /* \"#utility.yul\":7060:7082   */\n      swap1\n      pop\n        /* \"#utility.yul\":6990:7089   */\n      swap2\n      swap1\n      pop\n      jump\t// out\n        /* \"#utility.yul\":7095:7263   */\n    tag_91:\n        /* \"#utility.yul\":7178:7189   */\n      0x00\n        /* \"#utility.yul\":7212:7218   */\n      dup3\n        /* \"#utility.yul\":7207:7210   */\n      dup3\n        /* \"#utility.yul\":7200:7219   */\n      mstore\n        /* \"#utility.yul\":7252:7256   */\n      0x20\n        /* \"#utility.yul\":7247:7250   */\n      dup3\n        /* \"#utility.yul\":7243:7257   */\n      add\n        /* \"#utility.yul\":7228:7257   */\n      swap1\n      pop\n        /* \"#utility.yul\":7095:7263   */\n      swap3\n      swap2\n      pop\n      pop\n      jump\t// out\n        /* \"#utility.yul\":7269:7438   */\n    tag_101:\n        /* \"#utility.yul\":7353:7364   */\n      0x00\n        /* \"#utility.yul\":7387:7393   */\n      dup3\n        /* \"#utility.yul\":7382:7385   */\n      dup3\n        /* \"#utility.yul\":7375:7394   */\n      mstore\n        /* \"#utility.yul\":7427:7431   */\n      0x20\n        /* \"#utility.yul\":7422:7425   */\n      dup3\n        /* \"#utility.yul\":7418:7432   */\n      add\n        /* \"#utility.yul\":7403:7432   */\n      swap1\n      pop\n        /* \"#utility.yul\":7269:7438   */\n      swap3\n      swap2\n      pop\n      pop\n      jump\t// out\n        /* \"#utility.yul\":7444:7592   */\n    tag_108:\n        /* \"#utility.yul\":7546:7557   */\n      0x00\n        /* \"#utility.yul\":7583:7586   */\n      dup2\n        /* \"#utility.yul\":7568:7586   */\n      swap1\n      pop\n        /* \"#utility.yul\":7444:7592   */\n      swap3\n      swap2\n      pop\n      pop\n      jump\t// out\n        /* \"#utility.yul\":7598:7694   */\n    tag_80:\n        /* \"#utility.yul\":7635:7642   */\n      0x00\n        /* \"#utility.yul\":7664:7688   */\n      tag_147\n        /* \"#utility.yul\":7682:7687   */\n      dup3\n        /* \"#utility.yul\":7664:7688   */\n      tag_148\n      jump\t// in\n    tag_147:\n        /* \"#utility.yul\":7653:7688   */\n      swap1\n      pop\n        /* \"#utility.yul\":7598:7694   */\n      swap2\n      swap1\n      pop\n      jump\t// out\n        /* \"#utility.yul\":7700:7777   */\n    tag_85:\n        /* \"#utility.yul\":7737:7744   */\n      0x00\n        /* \"#utility.yul\":7766:7771   */\n      dup2\n        /* \"#utility.yul\":7755:7771   */\n      swap1\n      pop\n        /* \"#utility.yul\":7700:7777   */\n      swap2\n      swap1\n      pop\n      jump\t// out\n        /* \"#utility.yul\":7783:7909   */\n    tag_148:\n        /* \"#utility.yul\":7820:7827   */\n      0x00\n        /* \"#utility.yul\":7860:7902   */\n      0xffffffffffffffffffffffffffffffffffffffff\n        /* \"#utility.yul\":7853:7858   */\n      dup3\n        /* \"#utility.yul\":7849:7903   */\n      and\n        /* \"#utility.yul\":7838:7903   */\n      swap1\n      pop\n        /* \"#utility.yul\":7783:7909   */\n      swap2\n      swap1\n      pop\n      jump\t// out\n        /* \"#utility.yul\":7915:7992   */\n    tag_114:\n        /* \"#utility.yul\":7952:7959   */\n      0x00\n        /* \"#utility.yul\":7981:7986   */\n      dup2\n        /* \"#utility.yul\":7970:7986   */\n      swap1\n      pop\n        /* \"#utility.yul\":7915:7992   */\n      swap2\n      swap1\n      pop\n      jump\t// out\n        /* \"#utility.yul\":7998:8152   */\n    tag_42:\n        /* \"#utility.yul\":8082:8088   */\n      dup3\n        /* \"#utility.yul\":8077:8080   */\n      dup2\n        /* \"#utility.yul\":8072:8075   */\n      dup4\n        /* \"#utility.yul\":8059:8089   */\n      calldatacopy\n        /* \"#utility.yul\":8144:8145   */\n      0x00\n        /* \"#utility.yul\":8135:8141   */\n      dup4\n        /* \"#utility.yul\":8130:8133   */\n      dup4\n        /* \"#utility.yul\":8126:8142   */\n      add\n        /* \"#utility.yul\":8119:8146   */\n      mstore\n        /* \"#utility.yul\":7998:8152   */\n      pop\n      pop\n      pop\n      jump\t// out\n        /* \"#utility.yul\":8158:8465   */\n    tag_93:\n        /* \"#utility.yul\":8226:8227   */\n      0x00\n        /* \"#utility.yul\":8236:8349   */\n    tag_154:\n        /* \"#utility.yul\":8250:8256   */\n      dup4\n        /* \"#utility.yul\":8247:8248   */\n      dup2\n        /* \"#utility.yul\":8244:8257   */\n      lt\n        /* \"#utility.yul\":8236:8349   */\n      iszero\n      tag_156\n      jumpi\n        /* \"#utility.yul\":8335:8336   */\n      dup1\n        /* \"#utility.yul\":8330:8333   */\n      dup3\n        /* \"#utility.yul\":8326:8337   */\n      add\n        /* \"#utility.yul\":8320:8338   */\n      mload\n        /* \"#utility.yul\":8316:8317   */\n      dup2\n        /* \"#utility.yul\":8311:8314   */\n      dup5\n        /* \"#utility.yul\":8307:8318   */\n      add\n        /* \"#utility.yul\":8300:8339   */\n      mstore\n        /* \"#utility.yul\":8272:8274   */\n      0x20\n        /* \"#utility.yul\":8269:8270   */\n      dup2\n        /* \"#utility.yul\":8265:8275   */\n      add\n        /* \"#utility.yul\":8260:8275   */\n      swap1\n      pop\n        /* \"#utility.yul\":8236:8349   */\n      jump(tag_154)\n    tag_156:\n        /* \"#utility.yul\":8367:8373   */\n      dup4\n        /* \"#utility.yul\":8364:8365   */\n      dup2\n        /* \"#utility.yul\":8361:8374   */\n      gt\n        /* \"#utility.yul\":8358:8459   */\n      iszero\n      tag_157\n      jumpi\n        /* \"#utility.yul\":8447:8448   */\n      0x00\n        /* \"#utility.yul\":8438:8444   */\n      dup5\n        /* \"#utility.yul\":8433:8436   */\n      dup5\n        /* \"#utility.yul\":8429:8445   */\n      add\n        /* \"#utility.yul\":8422:8449   */\n      mstore\n        /* \"#utility.yul\":8358:8459   */\n    tag_157:\n        /* \"#utility.yul\":8207:8465   */\n      pop\n        /* \"#utility.yul\":8158:8465   */\n      pop\n      pop\n      pop\n      jump\t// out\n        /* \"#utility.yul\":8471:8752   */\n    tag_134:\n        /* \"#utility.yul\":8554:8581   */\n      tag_159\n        /* \"#utility.yul\":8576:8580   */\n      dup3\n        /* \"#utility.yul\":8554:8581   */\n      tag_95\n      jump\t// in\n    tag_159:\n        /* \"#utility.yul\":8546:8552   */\n      dup2\n        /* \"#utility.yul\":8542:8582   */\n      add\n        /* \"#utility.yul\":8684:8690   */\n      dup2\n        /* \"#utility.yul\":8672:8682   */\n      dup2\n        /* \"#utility.yul\":8669:8691   */\n      lt\n        /* \"#utility.yul\":8648:8666   */\n      0xffffffffffffffff\n        /* \"#utility.yul\":8636:8646   */\n      dup3\n        /* \"#utility.yul\":8633:8667   */\n      gt\n        /* \"#utility.yul\":8630:8692   */\n      or\n        /* \"#utility.yul\":8627:8715   */\n      iszero\n      tag_160\n      jumpi\n        /* \"#utility.yul\":8695:8713   */\n      tag_161\n      tag_139\n      jump\t// in\n    tag_161:\n        /* \"#utility.yul\":8627:8715   */\n    tag_160:\n        /* \"#utility.yul\":8735:8745   */\n      dup1\n        /* \"#utility.yul\":8731:8733   */\n      0x40\n        /* \"#utility.yul\":8724:8746   */\n      mstore\n        /* \"#utility.yul\":8514:8752   */\n      pop\n        /* \"#utility.yul\":8471:8752   */\n      pop\n      pop\n      jump\t// out\n        /* \"#utility.yul\":8758:8858   */\n    tag_81:\n        /* \"#utility.yul\":8797:8804   */\n      0x00\n        /* \"#utility.yul\":8826:8852   */\n      tag_163\n        /* \"#utility.yul\":8846:8851   */\n      dup3\n        /* \"#utility.yul\":8826:8852   */\n      tag_164\n      jump\t// in\n    tag_163:\n        /* \"#utility.yul\":8815:8852   */\n      swap1\n      pop\n        /* \"#utility.yul\":8758:8858   */\n      swap2\n      swap1\n      pop\n      jump\t// out\n        /* \"#utility.yul\":8864:8958   */\n    tag_164:\n        /* \"#utility.yul\":8903:8910   */\n      0x00\n        /* \"#utility.yul\":8932:8952   */\n      tag_166\n        /* \"#utility.yul\":8946:8951   */\n      dup3\n        /* \"#utility.yul\":8932:8952   */\n      tag_167\n      jump\t// in\n    tag_166:\n        /* \"#utility.yul\":8921:8952   */\n      swap1\n      pop\n        /* \"#utility.yul\":8864:8958   */\n      swap2\n      swap1\n      pop\n      jump\t// out\n        /* \"#utility.yul\":8964:9043   */\n    tag_115:\n        /* \"#utility.yul\":9003:9010   */\n      0x00\n        /* \"#utility.yul\":9032:9037   */\n      dup2\n        /* \"#utility.yul\":9021:9037   */\n      swap1\n      pop\n        /* \"#utility.yul\":8964:9043   */\n      swap2\n      swap1\n      pop\n      jump\t// out\n        /* \"#utility.yul\":9049:9229   */\n    tag_139:\n        /* \"#utility.yul\":9097:9174   */\n      0x4e487b7100000000000000000000000000000000000000000000000000000000\n        /* \"#utility.yul\":9094:9095   */\n      0x00\n        /* \"#utility.yul\":9087:9175   */\n      mstore\n        /* \"#utility.yul\":9194:9198   */\n      0x41\n        /* \"#utility.yul\":9191:9192   */\n      0x04\n        /* \"#utility.yul\":9184:9199   */\n      mstore\n        /* \"#utility.yul\":9218:9222   */\n      0x24\n        /* \"#utility.yul\":9215:9216   */\n      0x00\n        /* \"#utility.yul\":9208:9223   */\n      revert\n        /* \"#utility.yul\":9235:9352   */\n    tag_51:\n        /* \"#utility.yul\":9344:9345   */\n      0x00\n        /* \"#utility.yul\":9341:9342   */\n      dup1\n        /* \"#utility.yul\":9334:9346   */\n      revert\n        /* \"#utility.yul\":9358:9475   */\n    tag_40:\n        /* \"#utility.yul\":9467:9468   */\n      0x00\n        /* \"#utility.yul\":9464:9465   */\n      dup1\n        /* \"#utility.yul\":9457:9469   */\n      revert\n        /* \"#utility.yul\":9481:9598   */\n    tag_63:\n        /* \"#utility.yul\":9590:9591   */\n      0x00\n        /* \"#utility.yul\":9587:9588   */\n      dup1\n        /* \"#utility.yul\":9580:9592   */\n      revert\n        /* \"#utility.yul\":9604:9721   */\n    tag_60:\n        /* \"#utility.yul\":9713:9714   */\n      0x00\n        /* \"#utility.yul\":9710:9711   */\n      dup1\n        /* \"#utility.yul\":9703:9715   */\n      revert\n        /* \"#utility.yul\":9727:9829   */\n    tag_95:\n        /* \"#utility.yul\":9768:9774   */\n      0x00\n        /* \"#utility.yul\":9819:9821   */\n      0x1f\n        /* \"#utility.yul\":9815:9822   */\n      not\n        /* \"#utility.yul\":9810:9812   */\n      0x1f\n        /* \"#utility.yul\":9803:9808   */\n      dup4\n        /* \"#utility.yul\":9799:9813   */\n      add\n        /* \"#utility.yul\":9795:9823   */\n      and\n        /* \"#utility.yul\":9785:9823   */\n      swap1\n      pop\n        /* \"#utility.yul\":9727:9829   */\n      swap2\n      swap1\n      pop\n      jump\t// out\n        /* \"#utility.yul\":9835:9929   */\n    tag_167:\n        /* \"#utility.yul\":9868:9876   */\n      0x00\n        /* \"#utility.yul\":9916:9921   */\n      dup2\n        /* \"#utility.yul\":9912:9914   */\n      0x60\n        /* \"#utility.yul\":9908:9922   */\n      shl\n        /* \"#utility.yul\":9887:9922   */\n      swap1\n      pop\n        /* \"#utility.yul\":9835:9929   */\n      swap2\n      swap1\n      pop\n      jump\t// out\n        /* \"#utility.yul\":9935:10057   */\n    tag_46:\n        /* \"#utility.yul\":10008:10032   */\n      tag_177\n        /* \"#utility.yul\":10026:10031   */\n      dup2\n        /* \"#utility.yul\":10008:10032   */\n      tag_80\n      jump\t// in\n    tag_177:\n        /* \"#utility.yul\":10001:10006   */\n      dup2\n        /* \"#utility.yul\":9998:10033   */\n      eq\n        /* \"#utility.yul\":9988:10051   */\n      tag_178\n      jumpi\n        /* \"#utility.yul\":10047:10048   */\n      0x00\n        /* \"#utility.yul\":10044:10045   */\n      dup1\n        /* \"#utility.yul\":10037:10049   */\n      revert\n        /* \"#utility.yul\":9988:10051   */\n    tag_178:\n        /* \"#utility.yul\":9935:10057   */\n      pop\n      jump\t// out\n        /* \"#utility.yul\":10063:10185   */\n    tag_56:\n        /* \"#utility.yul\":10136:10160   */\n      tag_180\n        /* \"#utility.yul\":10154:10159   */\n      dup2\n        /* \"#utility.yul\":10136:10160   */\n      tag_114\n      jump\t// in\n    tag_180:\n        /* \"#utility.yul\":10129:10134   */\n      dup2\n        /* \"#utility.yul\":10126:10161   */\n      eq\n        /* \"#utility.yul\":10116:10179   */\n      tag_181\n      jumpi\n        /* \"#utility.yul\":10175:10176   */\n      0x00\n        /* \"#utility.yul\":10172:10173   */\n      dup1\n        /* \"#utility.yul\":10165:10177   */\n      revert\n        /* \"#utility.yul\":10116:10179   */\n    tag_181:\n        /* \"#utility.yul\":10063:10185   */\n      pop\n      jump\t// out\n\n    auxdata: 0xa2646970667358221220ffc9e631f972a16b25682ddc3cb60510ed42e0919c84c9da0eeb9503c12635cf64736f6c63430008070033\n}\n",
				"bytecode": {
					"linkReferences": {},
					"object": "608060405234801561001057600080fd5b506106db806100206000396000f3fe608060405234801561001057600080fd5b50600436106100415760003560e01c806317fe2da2146100465780635dda416e14610076578063892e5d01146100a6575b600080fd5b610060600480360381019061005b91906101fe565b6100d6565b60405161006d919061043d565b60405180910390f35b610090600480360381019061008b9190610276565b610102565b60405161009d9190610422565b60405180910390f35b6100c060048036038101906100bb91906101fe565b610138565b6040516100cd919061043d565b60405180910390f35b606082826040516020016100eb92919061045f565b604051602081830303815290604052905092915050565b6000838383604051602001610119939291906103e9565b6040516020818303038152906040528051906020012090509392505050565b6060828260405160200161014d9291906103c5565b604051602081830303815290604052905092915050565b6000610177610172846104bb565b610496565b9050828152602081018484840111156101935761019261064a565b5b61019e848285610575565b509392505050565b6000813590506101b581610677565b92915050565b600082601f8301126101d0576101cf610645565b5b81356101e0848260208601610164565b91505092915050565b6000813590506101f88161068e565b92915050565b6000806040838503121561021557610214610654565b5b600083013567ffffffffffffffff8111156102335761023261064f565b5b61023f858286016101bb565b925050602083013567ffffffffffffffff8111156102605761025f61064f565b5b61026c858286016101bb565b9150509250929050565b60008060006060848603121561028f5761028e610654565b5b600084013567ffffffffffffffff8111156102ad576102ac61064f565b5b6102b9868287016101bb565b93505060206102ca868287016101e9565b92505060406102db868287016101a6565b9150509250925092565b6102f66102f18261052f565b6105e8565b82525050565b61030581610541565b82525050565b6000610316826104ec565b6103208185610502565b9350610330818560208601610584565b61033981610659565b840191505092915050565b600061034f826104f7565b6103598185610513565b9350610369818560208601610584565b61037281610659565b840191505092915050565b6000610388826104f7565b6103928185610524565b93506103a2818560208601610584565b80840191505092915050565b6103bf6103ba8261056b565b61060c565b82525050565b60006103d1828561037d565b91506103dd828461037d565b91508190509392505050565b60006103f5828661037d565b915061040182856103ae565b60208201915061041182846102e5565b601482019150819050949350505050565b600060208201905061043760008301846102fc565b92915050565b60006020820190508181036000830152610457818461030b565b905092915050565b600060408201905081810360008301526104798185610344565b9050818103602083015261048d8184610344565b90509392505050565b60006104a06104b1565b90506104ac82826105b7565b919050565b6000604051905090565b600067ffffffffffffffff8211156104d6576104d5610616565b5b6104df82610659565b9050602081019050919050565b600081519050919050565b600081519050919050565b600082825260208201905092915050565b600082825260208201905092915050565b600081905092915050565b600061053a8261054b565b9050919050565b6000819050919050565b600073ffffffffffffffffffffffffffffffffffffffff82169050919050565b6000819050919050565b82818337600083830152505050565b60005b838110156105a2578082015181840152602081019050610587565b838111156105b1576000848401525b50505050565b6105c082610659565b810181811067ffffffffffffffff821117156105df576105de610616565b5b80604052505050565b60006105f3826105fa565b9050919050565b60006106058261066a565b9050919050565b6000819050919050565b7f4e487b7100000000000000000000000000000000000000000000000000000000600052604160045260246000fd5b600080fd5b600080fd5b600080fd5b600080fd5b6000601f19601f8301169050919050565b60008160601b9050919050565b6106808161052f565b811461068b57600080fd5b50565b6106978161056b565b81146106a257600080fd5b5056fea2646970667358221220ffc9e631f972a16b25682ddc3cb60510ed42e0919c84c9da0eeb9503c12635cf64736f6c63430008070033",
					"opcodes": "PUSH1 0x80 PUSH1 0x40 MSTORE CALLVALUE DUP1 ISZERO PUSH2 0x10 JUMPI PUSH1 0x0 DUP1 REVERT JUMPDEST POP PUSH2 0x6DB DUP1 PUSH2 0x20 PUSH1 0x0 CODECOPY PUSH1 0x0 RETURN INVALID PUSH1 0x80 PUSH1 0x40 MSTORE CALLVALUE DUP1 ISZERO PUSH2 0x10 JUMPI PUSH1 0x0 DUP1 REVERT JUMPDEST POP PUSH1 0x4 CALLDATASIZE LT PUSH2 0x41 JUMPI PUSH1 0x0 CALLDATALOAD PUSH1 0xE0 SHR DUP1 PUSH4 0x17FE2DA2 EQ PUSH2 0x46 JUMPI DUP1 PUSH4 0x5DDA416E EQ PUSH2 0x76 JUMPI DUP1 PUSH4 0x892E5D01 EQ PUSH2 0xA6 JUMPI JUMPDEST PUSH1 0x0 DUP1 REVERT JUMPDEST PUSH2 0x60 PUSH1 0x4 DUP1 CALLDATASIZE SUB DUP2 ADD SWAP1 PUSH2 0x5B SWAP2 SWAP1 PUSH2 0x1FE JUMP JUMPDEST PUSH2 0xD6 JUMP JUMPDEST PUSH1 0x40 MLOAD PUSH2 0x6D SWAP2 SWAP1 PUSH2 0x43D JUMP JUMPDEST PUSH1 0x40 MLOAD DUP1 SWAP2 SUB SWAP1 RETURN JUMPDEST PUSH2 0x90 PUSH1 0x4 DUP1 CALLDATASIZE SUB DUP2 ADD SWAP1 PUSH2 0x8B SWAP2 SWAP1 PUSH2 0x276 JUMP JUMPDEST PUSH2 0x102 JUMP JUMPDEST PUSH1 0x40 MLOAD PUSH2 0x9D SWAP2 SWAP1 PUSH2 0x422 JUMP JUMPDEST PUSH1 0x40 MLOAD DUP1 SWAP2 SUB SWAP1 RETURN JUMPDEST PUSH2 0xC0 PUSH1 0x4 DUP1 CALLDATASIZE SUB DUP2 ADD SWAP1 PUSH2 0xBB SWAP2 SWAP1 PUSH2 0x1FE JUMP JUMPDEST PUSH2 0x138 JUMP JUMPDEST PUSH1 0x40 MLOAD PUSH2 0xCD SWAP2 SWAP1 PUSH2 0x43D JUMP JUMPDEST PUSH1 0x40 MLOAD DUP1 SWAP2 SUB SWAP1 RETURN JUMPDEST PUSH1 0x60 DUP3 DUP3 PUSH1 0x40 MLOAD PUSH1 0x20 ADD PUSH2 0xEB SWAP3 SWAP2 SWAP1 PUSH2 0x45F JUMP JUMPDEST PUSH1 0x40 MLOAD PUSH1 0x20 DUP2 DUP4 SUB SUB DUP2 MSTORE SWAP1 PUSH1 0x40 MSTORE SWAP1 POP SWAP3 SWAP2 POP POP JUMP JUMPDEST PUSH1 0x0 DUP4 DUP4 DUP4 PUSH1 0x40 MLOAD PUSH1 0x20 ADD PUSH2 0x119 SWAP4 SWAP3 SWAP2 SWAP1 PUSH2 0x3E9 JUMP JUMPDEST PUSH1 0x40 MLOAD PUSH1 0x20 DUP2 DUP4 SUB SUB DUP2 MSTORE SWAP1 PUSH1 0x40 MSTORE DUP1 MLOAD SWAP1 PUSH1 0x20 ADD KECCAK256 SWAP1 POP SWAP4 SWAP3 POP POP POP JUMP JUMPDEST PUSH1 0x60 DUP3 DUP3 PUSH1 0x40 MLOAD PUSH1 0x20 ADD PUSH2 0x14D SWAP3 SWAP2 SWAP1 PUSH2 0x3C5 JUMP JUMPDEST PUSH1 0x40 MLOAD PUSH1 0x20 DUP2 DUP4 SUB SUB DUP2 MSTORE SWAP1 PUSH1 0x40 MSTORE SWAP1 POP SWAP3 SWAP2 POP POP JUMP JUMPDEST PUSH1 0x0 PUSH2 0x177 PUSH2 0x172 DUP5 PUSH2 0x4BB JUMP JUMPDEST PUSH2 0x496 JUMP JUMPDEST SWAP1 POP DUP3 DUP2 MSTORE PUSH1 0x20 DUP2 ADD DUP5 DUP5 DUP5 ADD GT ISZERO PUSH2 0x193 JUMPI PUSH2 0x192 PUSH2 0x64A JUMP JUMPDEST JUMPDEST PUSH2 0x19E DUP5 DUP3 DUP6 PUSH2 0x575 JUMP JUMPDEST POP SWAP4 SWAP3 POP POP POP JUMP JUMPDEST PUSH1 0x0 DUP2 CALLDATALOAD SWAP1 POP PUSH2 0x1B5 DUP2 PUSH2 0x677 JUMP JUMPDEST SWAP3 SWAP2 POP POP JUMP JUMPDEST PUSH1 0x0 DUP3 PUSH1 0x1F DUP4 ADD SLT PUSH2 0x1D0 JUMPI PUSH2 0x1CF PUSH2 0x645 JUMP JUMPDEST JUMPDEST DUP2 CALLDATALOAD PUSH2 0x1E0 DUP5 DUP3 PUSH1 0x20 DUP7 ADD PUSH2 0x164 JUMP JUMPDEST SWAP2 POP POP SWAP3 SWAP2 POP POP JUMP JUMPDEST PUSH1 0x0 DUP2 CALLDATALOAD SWAP1 POP PUSH2 0x1F8 DUP2 PUSH2 0x68E JUMP JUMPDEST SWAP3 SWAP2 POP POP JUMP JUMPDEST PUSH1 0x0 DUP1 PUSH1 0x40 DUP4 DUP6 SUB SLT ISZERO PUSH2 0x215 JUMPI PUSH2 0x214 PUSH2 0x654 JUMP JUMPDEST JUMPDEST PUSH1 0x0 DUP4 ADD CALLDATALOAD PUSH8 0xFFFFFFFFFFFFFFFF DUP2 GT ISZERO PUSH2 0x233 JUMPI PUSH2 0x232 PUSH2 0x64F JUMP JUMPDEST JUMPDEST PUSH2 0x23F DUP6 DUP3 DUP7 ADD PUSH2 0x1BB JUMP JUMPDEST SWAP3 POP POP PUSH1 0x20 DUP4 ADD CALLDATALOAD PUSH8 0xFFFFFFFFFFFFFFFF DUP2 GT ISZERO PUSH2 0x260 JUMPI PUSH2 0x25F PUSH2 0x64F JUMP JUMPDEST JUMPDEST PUSH2 0x26C DUP6 DUP3 DUP7 ADD PUSH2 0x1BB JUMP JUMPDEST SWAP2 POP POP SWAP3 POP SWAP3 SWAP1 POP JUMP JUMPDEST PUSH1 0x0 DUP1 PUSH1 0x0 PUSH1 0x60 DUP5 DUP7 SUB SLT ISZERO PUSH2 0x28F JUMPI PUSH2 0x28E PUSH2 0x654 JUMP JUMPDEST JUMPDEST PUSH1 0x0 DUP5 ADD CALLDATALOAD PUSH8 0xFFFFFFFFFFFFFFFF DUP2 GT ISZERO PUSH2 0x2AD JUMPI PUSH2 0x2AC PUSH2 0x64F JUMP JUMPDEST JUMPDEST PUSH2 0x2B9 DUP7 DUP3 DUP8 ADD PUSH2 0x1BB JUMP JUMPDEST SWAP4 POP POP PUSH1 0x20 PUSH2 0x2CA DUP7 DUP3 DUP8 ADD PUSH2 0x1E9 JUMP JUMPDEST SWAP3 POP POP PUSH1 0x40 PUSH2 0x2DB DUP7 DUP3 DUP8 ADD PUSH2 0x1A6 JUMP JUMPDEST SWAP2 POP POP SWAP3 POP SWAP3 POP SWAP3 JUMP JUMPDEST PUSH2 0x2F6 PUSH2 0x2F1 DUP3 PUSH2 0x52F JUMP JUMPDEST PUSH2 0x5E8 JUMP JUMPDEST DUP3 MSTORE POP POP JUMP JUMPDEST PUSH2 0x305 DUP2 PUSH2 0x541 JUMP JUMPDEST DUP3 MSTORE POP POP JUMP JUMPDEST PUSH1 0x0 PUSH2 0x316 DUP3 PUSH2 0x4EC JUMP JUMPDEST PUSH2 0x320 DUP2 DUP6 PUSH2 0x502 JUMP JUMPDEST SWAP4 POP PUSH2 0x330 DUP2 DUP6 PUSH1 0x20 DUP7 ADD PUSH2 0x584 JUMP JUMPDEST PUSH2 0x339 DUP2 PUSH2 0x659 JUMP JUMPDEST DUP5 ADD SWAP2 POP POP SWAP3 SWAP2 POP POP JUMP JUMPDEST PUSH1 0x0 PUSH2 0x34F DUP3 PUSH2 0x4F7 JUMP JUMPDEST PUSH2 0x359 DUP2 DUP6 PUSH2 0x513 JUMP JUMPDEST SWAP4 POP PUSH2 0x369 DUP2 DUP6 PUSH1 0x20 DUP7 ADD PUSH2 0x584 JUMP JUMPDEST PUSH2 0x372 DUP2 PUSH2 0x659 JUMP JUMPDEST DUP5 ADD SWAP2 POP POP SWAP3 SWAP2 POP POP JUMP JUMPDEST PUSH1 0x0 PUSH2 0x388 DUP3 PUSH2 0x4F7 JUMP JUMPDEST PUSH2 0x392 DUP2 DUP6 PUSH2 0x524 JUMP JUMPDEST SWAP4 POP PUSH2 0x3A2 DUP2 DUP6 PUSH1 0x20 DUP7 ADD PUSH2 0x584 JUMP JUMPDEST DUP1 DUP5 ADD SWAP2 POP POP SWAP3 SWAP2 POP POP JUMP JUMPDEST PUSH2 0x3BF PUSH2 0x3BA DUP3 PUSH2 0x56B JUMP JUMPDEST PUSH2 0x60C JUMP JUMPDEST DUP3 MSTORE POP POP JUMP JUMPDEST PUSH1 0x0 PUSH2 0x3D1 DUP3 DUP6 PUSH2 0x37D JUMP JUMPDEST SWAP2 POP PUSH2 0x3DD DUP3 DUP5 PUSH2 0x37D JUMP JUMPDEST SWAP2 POP DUP2 SWAP1 POP SWAP4 SWAP3 POP POP POP JUMP JUMPDEST PUSH1 0x0 PUSH2 0x3F5 DUP3 DUP7 PUSH2 0x37D JUMP JUMPDEST SWAP2 POP PUSH2 0x401 DUP3 DUP6 PUSH2 0x3AE JUMP JUMPDEST PUSH1 0x20 DUP3 ADD SWAP2 POP PUSH2 0x411 DUP3 DUP5 PUSH2 0x2E5 JUMP JUMPDEST PUSH1 0x14 DUP3 ADD SWAP2 POP DUP2 SWAP1 POP SWAP5 SWAP4 POP POP POP POP JUMP JUMPDEST PUSH1 0x0 PUSH1 0x20 DUP3 ADD SWAP1 POP PUSH2 0x437 PUSH1 0x0 DUP4 ADD DUP5 PUSH2 0x2FC JUMP JUMPDEST SWAP3 SWAP2 POP POP JUMP JUMPDEST PUSH1 0x0 PUSH1 0x20 DUP3 ADD SWAP1 POP DUP2 DUP2 SUB PUSH1 0x0 DUP4 ADD MSTORE PUSH2 0x457 DUP2 DUP5 PUSH2 0x30B JUMP JUMPDEST SWAP1 POP SWAP3 SWAP2 POP POP JUMP JUMPDEST PUSH1 0x0 PUSH1 0x40 DUP3 ADD SWAP1 POP DUP2 DUP2 SUB PUSH1 0x0 DUP4 ADD MSTORE PUSH2 0x479 DUP2 DUP6 PUSH2 0x344 JUMP JUMPDEST SWAP1 POP DUP2 DUP2 SUB PUSH1 0x20 DUP4 ADD MSTORE PUSH2 0x48D DUP2 DUP5 PUSH2 0x344 JUMP JUMPDEST SWAP1 POP SWAP4 SWAP3 POP POP POP JUMP JUMPDEST PUSH1 0x0 PUSH2 0x4A0 PUSH2 0x4B1 JUMP JUMPDEST SWAP1 POP PUSH2 0x4AC DUP3 DUP3 PUSH2 0x5B7 JUMP JUMPDEST SWAP2 SWAP1 POP JUMP JUMPDEST PUSH1 0x0 PUSH1 0x40 MLOAD SWAP1 POP SWAP1 JUMP JUMPDEST PUSH1 0x0 PUSH8 0xFFFFFFFFFFFFFFFF DUP3 GT ISZERO PUSH2 0x4D6 JUMPI PUSH2 0x4D5 PUSH2 0x616 JUMP JUMPDEST JUMPDEST PUSH2 0x4DF DUP3 PUSH2 0x659 JUMP JUMPDEST SWAP1 POP PUSH1 0x20 DUP2 ADD SWAP1 POP SWAP2 SWAP1 POP JUMP JUMPDEST PUSH1 0x0 DUP2 MLOAD SWAP1 POP SWAP2 SWAP1 POP JUMP JUMPDEST PUSH1 0x0 DUP2 MLOAD SWAP1 POP SWAP2 SWAP1 POP JUMP JUMPDEST PUSH1 0x0 DUP3 DUP3 MSTORE PUSH1 0x20 DUP3 ADD SWAP1 POP SWAP3 SWAP2 POP POP JUMP JUMPDEST PUSH1 0x0 DUP3 DUP3 MSTORE PUSH1 0x20 DUP3 ADD SWAP1 POP SWAP3 SWAP2 POP POP JUMP JUMPDEST PUSH1 0x0 DUP2 SWAP1 POP SWAP3 SWAP2 POP POP JUMP JUMPDEST PUSH1 0x0 PUSH2 0x53A DUP3 PUSH2 0x54B JUMP JUMPDEST SWAP1 POP SWAP2 SWAP1 POP JUMP JUMPDEST PUSH1 0x0 DUP2 SWAP1 POP SWAP2 SWAP1 POP JUMP JUMPDEST PUSH1 0x0 PUSH20 0xFFFFFFFFFFFFFFFFFFFFFFFFFFFFFFFFFFFFFFFF DUP3 AND SWAP1 POP SWAP2 SWAP1 POP JUMP JUMPDEST PUSH1 0x0 DUP2 SWAP1 POP SWAP2 SWAP1 POP JUMP JUMPDEST DUP3 DUP2 DUP4 CALLDATACOPY PUSH1 0x0 DUP4 DUP4 ADD MSTORE POP POP POP JUMP JUMPDEST PUSH1 0x0 JUMPDEST DUP4 DUP2 LT ISZERO PUSH2 0x5A2 JUMPI DUP1 DUP3 ADD MLOAD DUP2 DUP5 ADD MSTORE PUSH1 0x20 DUP2 ADD SWAP1 POP PUSH2 0x587 JUMP JUMPDEST DUP4 DUP2 GT ISZERO PUSH2 0x5B1 JUMPI PUSH1 0x0 DUP5 DUP5 ADD MSTORE JUMPDEST POP POP POP POP JUMP JUMPDEST PUSH2 0x5C0 DUP3 PUSH2 0x659 JUMP JUMPDEST DUP2 ADD DUP2 DUP2 LT PUSH8 0xFFFFFFFFFFFFFFFF DUP3 GT OR ISZERO PUSH2 0x5DF JUMPI PUSH2 0x5DE PUSH2 0x616 JUMP JUMPDEST JUMPDEST DUP1 PUSH1 0x40 MSTORE POP POP POP JUMP JUMPDEST PUSH1 0x0 PUSH2 0x5F3 DUP3 PUSH2 0x5FA JUMP JUMPDEST SWAP1 POP SWAP2 SWAP1 POP JUMP JUMPDEST PUSH1 0x0 PUSH2 0x605 DUP3 PUSH2 0x66A JUMP JUMPDEST SWAP1 POP SWAP2 SWAP1 POP JUMP JUMPDEST PUSH1 0x0 DUP2 SWAP1 POP SWAP2 SWAP1 POP JUMP JUMPDEST PUSH32 0x4E487B7100000000000000000000000000000000000000000000000000000000 PUSH1 0x0 MSTORE PUSH1 0x41 PUSH1 0x4 MSTORE PUSH1 0x24 PUSH1 0x0 REVERT JUMPDEST PUSH1 0x0 DUP1 REVERT JUMPDEST PUSH1 0x0 DUP1 REVERT JUMPDEST PUSH1 0x0 DUP1 REVERT JUMPDEST PUSH1 0x0 DUP1 REVERT JUMPDEST PUSH1 0x0 PUSH1 0x1F NOT PUSH1 0x1F DUP4 ADD AND SWAP1 POP SWAP2 SWAP1 POP JUMP JUMPDEST PUSH1 0x0 DUP2 PUSH1 0x60 SHL SWAP1 POP SWAP2 SWAP1 POP JUMP JUMPDEST PUSH2 0x680 DUP2 PUSH2 0x52F JUMP JUMPDEST DUP2 EQ PUSH2 0x68B JUMPI PUSH1 0x0 DUP1 REVERT JUMPDEST POP JUMP JUMPDEST PUSH2 0x697 DUP2 PUSH2 0x56B JUMP JUMPDEST DUP2 EQ PUSH2 0x6A2 JUMPI PUSH1 0x0 DUP1 REVERT JUMPDEST POP JUMP INVALID LOG2 PUSH5 0x6970667358 0x22 SLT KECCAK256 SELFDESTRUCT 0xC9 0xE6 BALANCE 0xF9 PUSH19 0xA16B25682DDC3CB60510ED42E0919C84C9DA0E 0xEB SWAP6 SUB 0xC1 0x26 CALLDATALOAD 0xCF PUSH5 0x736F6C6343 STOP ADDMOD SMOD STOP CALLER "
				},
				"gasEstimates": {
					"creation": {
						"codeDepositCost": "351000",
						"executionCost": "386",
						"totalCost": "351386"
					},
					"external": {
						"encode(string,string)": "infinite",
						"encodePacked(string,string)": "infinite",
						"hash(string,uint256,address)": "infinite"
					}
				},
				"methodIdentifiers": {
					"encode(string,string)": "17fe2da2",
					"encodePacked(string,string)": "892e5d01",
					"hash(string,uint256,address)": "5dda416e"
				}
			},
			"storageLayout": {
				"storage": [],
				"types": null
			},
			"userdoc": {
				"kind": "user",
				"methods": {},
				"version": 1
			}
		}
	}
}