{
	"CallDelegateTest.sol": {
		"Caller": {
			"abi": [
				{
					"inputs": [
						{
							"internalType": "address",
							"name": "e",
							"type": "address"
						},
						{
							"internalType": "uint256",
							"name": "n",
							"type": "uint256"
						}
					],
					"name": "callN",
					"outputs": [],
					"stateMutability": "nonpayable",
					"type": "function"
				},
				{
					"inputs": [
						{
							"internalType": "address",
							"name": "e",
							"type": "address"
						},
						{
							"internalType": "uint256",
							"name": "n",
							"type": "uint256"
						}
					],
					"name": "delegateCallN",
					"outputs": [],
					"stateMutability": "nonpayable",
					"type": "function"
				},
				{
					"inputs": [],
					"name": "num",
					"outputs": [
						{
							"internalType": "uint256",
							"name": "",
							"type": "uint256"
						}
					],
					"stateMutability": "view",
					"type": "function"
				},
				{
					"inputs": [],
					"name": "sender",
					"outputs": [
						{
							"internalType": "address",
							"name": "",
							"type": "address"
						}
					],
					"stateMutability": "view",
					"type": "function"
				}
			],
			"devdoc": {
				"kind": "dev",
				"methods": {},
				"version": 1
			},
			"evm": {
				"assembly": "    /* \"CallDelegateTest.sol\":501:1104  contract Caller{... */\n  mstore(0x40, 0x80)\n  callvalue\n  dup1\n  iszero\n  tag_1\n  jumpi\n  0x00\n  dup1\n  revert\ntag_1:\n  pop\n  dataSize(sub_0)\n  dup1\n  dataOffset(sub_0)\n  0x00\n  codecopy\n  0x00\n  return\nstop\n\nsub_0: assembly {\n        /* \"CallDelegateTest.sol\":501:1104  contract Caller{... */\n      mstore(0x40, 0x80)\n      callvalue\n      dup1\n      iszero\n      tag_1\n      jumpi\n      0x00\n      dup1\n      revert\n    tag_1:\n      pop\n      jumpi(tag_2, lt(calldatasize, 0x04))\n      shr(0xe0, calldataload(0x00))\n      dup1\n      0x171e1996\n      eq\n      tag_3\n      jumpi\n      dup1\n      0x4e70b1dc\n      eq\n      tag_4\n      jumpi\n      dup1\n      0x67e404ce\n      eq\n      tag_5\n      jumpi\n      dup1\n      0x905edae5\n      eq\n      tag_6\n      jumpi\n    tag_2:\n      0x00\n      dup1\n      revert\n        /* \"CallDelegateTest.sol\":571:787  function delegateCallN(address e, uint n) public{... */\n    tag_3:\n      tag_7\n      0x04\n      dup1\n      calldatasize\n      sub\n      dup2\n      add\n      swap1\n      tag_8\n      swap2\n      swap1\n      tag_9\n      jump\t// in\n    tag_8:\n      tag_10\n      jump\t// in\n    tag_7:\n      stop\n        /* \"CallDelegateTest.sol\":522:537  uint public num */\n    tag_4:\n      tag_11\n      tag_12\n      jump\t// in\n    tag_11:\n      mload(0x40)\n      tag_13\n      swap2\n      swap1\n      tag_14\n      jump\t// in\n    tag_13:\n      mload(0x40)\n      dup1\n      swap2\n      sub\n      swap1\n      return\n        /* \"CallDelegateTest.sol\":543:564  address public sender */\n    tag_5:\n      tag_15\n      tag_16\n      jump\t// in\n    tag_15:\n      mload(0x40)\n      tag_17\n      swap2\n      swap1\n      tag_18\n      jump\t// in\n    tag_17:\n      mload(0x40)\n      dup1\n      swap2\n      sub\n      swap1\n      return\n        /* \"CallDelegateTest.sol\":793:1102  function callN(address e, uint n) public{... */\n    tag_6:\n      tag_19\n      0x04\n      dup1\n      calldatasize\n      sub\n      dup2\n      add\n      swap1\n      tag_20\n      swap2\n      swap1\n      tag_9\n      jump\t// in\n    tag_20:\n      tag_21\n      jump\t// in\n    tag_19:\n      stop\n        /* \"CallDelegateTest.sol\":571:787  function delegateCallN(address e, uint n) public{... */\n    tag_10:\n        /* \"CallDelegateTest.sol\":635:636  n */\n      dup1\n        /* \"CallDelegateTest.sol\":629:632  num */\n      0x00\n        /* \"CallDelegateTest.sol\":629:636  num = n */\n      dup2\n      swap1\n      sstore\n      pop\n        /* \"CallDelegateTest.sol\":655:665  msg.sender */\n      caller\n        /* \"CallDelegateTest.sol\":646:652  sender */\n      0x01\n      0x00\n        /* \"CallDelegateTest.sol\":646:665  sender = msg.sender */\n      0x0100\n      exp\n      dup2\n      sload\n      dup2\n      0xffffffffffffffffffffffffffffffffffffffff\n      mul\n      not\n      and\n      swap1\n      dup4\n      0xffffffffffffffffffffffffffffffffffffffff\n      and\n      mul\n      or\n      swap1\n      sstore\n      pop\n        /* \"CallDelegateTest.sol\":675:698  bytes memory methodData */\n      0x00\n        /* \"CallDelegateTest.sol\":742:743  n */\n      dup2\n        /* \"CallDelegateTest.sol\":701:744  abi.encodeWithSignature(\"setN(uint256)\", n) */\n      add(0x24, mload(0x40))\n      tag_23\n      swap2\n      swap1\n      tag_14\n      jump\t// in\n    tag_23:\n      mload(0x40)\n      0x20\n      dup2\n      dup4\n      sub\n      sub\n      dup2\n      mstore\n      swap1\n      0x40\n      mstore\n      and(not(0xffffffffffffffffffffffffffffffffffffffffffffffffffffffff), 0x3f7a027000000000000000000000000000000000000000000000000000000000)\n      0x20\n      dup3\n      add\n      dup1\n      mload\n      0xffffffffffffffffffffffffffffffffffffffffffffffffffffffff\n      dup4\n      dup2\n      dup4\n      and\n      or\n      dup4\n      mstore\n      pop\n      pop\n      pop\n      pop\n        /* \"CallDelegateTest.sol\":675:744  bytes memory methodData = abi.encodeWithSignature(\"setN(uint256)\", n) */\n      swap1\n      pop\n        /* \"CallDelegateTest.sol\":754:755  e */\n      dup3\n        /* \"CallDelegateTest.sol\":754:768  e.delegatecall */\n      0xffffffffffffffffffffffffffffffffffffffff\n      and\n        /* \"CallDelegateTest.sol\":769:779  methodData */\n      dup2\n        /* \"CallDelegateTest.sol\":754:780  e.delegatecall(methodData) */\n      mload(0x40)\n      tag_24\n      swap2\n      swap1\n      tag_25\n      jump\t// in\n    tag_24:\n      0x00\n      mload(0x40)\n      dup1\n      dup4\n      sub\n      dup2\n      dup6\n      gas\n      delegatecall\n      swap2\n      pop\n      pop\n      returndatasize\n      dup1\n      0x00\n      dup2\n      eq\n      tag_28\n      jumpi\n      mload(0x40)\n      swap2\n      pop\n      and(add(returndatasize, 0x3f), not(0x1f))\n      dup3\n      add\n      0x40\n      mstore\n      returndatasize\n      dup3\n      mstore\n      returndatasize\n      0x00\n      0x20\n      dup5\n      add\n      returndatacopy\n      jump(tag_27)\n    tag_28:\n      0x60\n      swap2\n      pop\n    tag_27:\n      pop\n      pop\n      pop\n        /* \"CallDelegateTest.sol\":619:787  {... */\n      pop\n        /* \"CallDelegateTest.sol\":571:787  function delegateCallN(address e, uint n) public{... */\n      pop\n      pop\n      jump\t// out\n        /* \"CallDelegateTest.sol\":522:537  uint public num */\n    tag_12:\n      sload(0x00)\n      dup2\n      jump\t// out\n        /* \"CallDelegateTest.sol\":543:564  address public sender */\n    tag_16:\n      0x01\n      0x00\n      swap1\n      sload\n      swap1\n      0x0100\n      exp\n      swap1\n      div\n      0xffffffffffffffffffffffffffffffffffffffff\n      and\n      dup2\n      jump\t// out\n        /* \"CallDelegateTest.sol\":793:1102  function callN(address e, uint n) public{... */\n    tag_21:\n        /* \"CallDelegateTest.sol\":849:850  n */\n      dup1\n        /* \"CallDelegateTest.sol\":843:846  num */\n      0x00\n        /* \"CallDelegateTest.sol\":843:850  num = n */\n      dup2\n      swap1\n      sstore\n      pop\n        /* \"CallDelegateTest.sol\":869:879  msg.sender */\n      caller\n        /* \"CallDelegateTest.sol\":860:866  sender */\n      0x01\n      0x00\n        /* \"CallDelegateTest.sol\":860:879  sender = msg.sender */\n      0x0100\n      exp\n      dup2\n      sload\n      dup2\n      0xffffffffffffffffffffffffffffffffffffffff\n      mul\n      not\n      and\n      swap1\n      dup4\n      0xffffffffffffffffffffffffffffffffffffffff\n      and\n      mul\n      or\n      swap1\n      sstore\n      pop\n        /* \"CallDelegateTest.sol\":889:912  bytes memory methodData */\n      0x00\n        /* \"CallDelegateTest.sol\":956:957  n */\n      dup2\n        /* \"CallDelegateTest.sol\":915:958  abi.encodeWithSignature(\"setN(uint256)\", n) */\n      add(0x24, mload(0x40))\n      tag_30\n      swap2\n      swap1\n      tag_14\n      jump\t// in\n    tag_30:\n      mload(0x40)\n      0x20\n      dup2\n      dup4\n      sub\n      sub\n      dup2\n      mstore\n      swap1\n      0x40\n      mstore\n      and(not(0xffffffffffffffffffffffffffffffffffffffffffffffffffffffff), 0x3f7a027000000000000000000000000000000000000000000000000000000000)\n      0x20\n      dup3\n      add\n      dup1\n      mload\n      0xffffffffffffffffffffffffffffffffffffffffffffffffffffffff\n      dup4\n      dup2\n      dup4\n      and\n      or\n      dup4\n      mstore\n      pop\n      pop\n      pop\n      pop\n        /* \"CallDelegateTest.sol\":889:958  bytes memory methodData = abi.encodeWithSignature(\"setN(uint256)\", n) */\n      swap1\n      pop\n        /* \"CallDelegateTest.sol\":1036:1037  e */\n      dup3\n        /* \"CallDelegateTest.sol\":1036:1042  e.call */\n      0xffffffffffffffffffffffffffffffffffffffff\n      and\n        /* \"CallDelegateTest.sol\":1047:1052  10000 */\n      0x2710\n        /* \"CallDelegateTest.sol\":1054:1064  methodData */\n      dup3\n        /* \"CallDelegateTest.sol\":1036:1065  e.call{gas:10000}(methodData) */\n      mload(0x40)\n      tag_31\n      swap2\n      swap1\n      tag_25\n      jump\t// in\n    tag_31:\n      0x00\n      mload(0x40)\n      dup1\n      dup4\n      sub\n      dup2\n      0x00\n      dup8\n      dup8\n      call\n      swap3\n      pop\n      pop\n      pop\n      returndatasize\n      dup1\n      0x00\n      dup2\n      eq\n      tag_34\n      jumpi\n      mload(0x40)\n      swap2\n      pop\n      and(add(returndatasize, 0x3f), not(0x1f))\n      dup3\n      add\n      0x40\n      mstore\n      returndatasize\n      dup3\n      mstore\n      returndatasize\n      0x00\n      0x20\n      dup5\n      add\n      returndatacopy\n      jump(tag_33)\n    tag_34:\n      0x60\n      swap2\n      pop\n    tag_33:\n      pop\n      pop\n      pop\n        /* \"CallDelegateTest.sol\":833:1102  {... */\n      pop\n        /* \"CallDelegateTest.sol\":793:1102  function callN(address e, uint n) public{... */\n      pop\n      pop\n      jump\t// out\n        /* \"#utility.yul\":88:205   */\n    tag_36:\n        /* \"#utility.yul\":197:198   */\n      0x00\n        /* \"#utility.yul\":194:195   */\n      dup1\n        /* \"#utility.yul\":187:199   */\n      revert\n        /* \"#utility.yul\":334:460   */\n    tag_38:\n        /* \"#utility.yul\":371:378   */\n      0x00\n        /* \"#utility.yul\":411:453   */\n      0xffffffffffffffffffffffffffffffffffffffff\n        /* \"#utility.yul\":404:409   */\n      dup3\n        /* \"#utility.yul\":400:454   */\n      and\n        /* \"#utility.yul\":389:454   */\n      swap1\n      pop\n        /* \"#utility.yul\":334:460   */\n      swap2\n      swap1\n      pop\n      jump\t// out\n        /* \"#utility.yul\":466:562   */\n    tag_39:\n        /* \"#utility.yul\":503:510   */\n      0x00\n        /* \"#utility.yul\":532:556   */\n      tag_57\n        /* \"#utility.yul\":550:555   */\n      dup3\n        /* \"#utility.yul\":532:556   */\n      tag_38\n      jump\t// in\n    tag_57:\n        /* \"#utility.yul\":521:556   */\n      swap1\n      pop\n        /* \"#utility.yul\":466:562   */\n      swap2\n      swap1\n      pop\n      jump\t// out\n        /* \"#utility.yul\":568:690   */\n    tag_40:\n        /* \"#utility.yul\":641:665   */\n      tag_59\n        /* \"#utility.yul\":659:664   */\n      dup2\n        /* \"#utility.yul\":641:665   */\n      tag_39\n      jump\t// in\n    tag_59:\n        /* \"#utility.yul\":634:639   */\n      dup2\n        /* \"#utility.yul\":631:666   */\n      eq\n        /* \"#utility.yul\":621:684   */\n      tag_60\n      jumpi\n        /* \"#utility.yul\":680:681   */\n      0x00\n        /* \"#utility.yul\":677:678   */\n      dup1\n        /* \"#utility.yul\":670:682   */\n      revert\n        /* \"#utility.yul\":621:684   */\n    tag_60:\n        /* \"#utility.yul\":568:690   */\n      pop\n      jump\t// out\n        /* \"#utility.yul\":696:835   */\n    tag_41:\n        /* \"#utility.yul\":742:747   */\n      0x00\n        /* \"#utility.yul\":780:786   */\n      dup2\n        /* \"#utility.yul\":767:787   */\n      calldataload\n        /* \"#utility.yul\":758:787   */\n      swap1\n      pop\n        /* \"#utility.yul\":796:829   */\n      tag_62\n        /* \"#utility.yul\":823:828   */\n      dup2\n        /* \"#utility.yul\":796:829   */\n      tag_40\n      jump\t// in\n    tag_62:\n        /* \"#utility.yul\":696:835   */\n      swap3\n      swap2\n      pop\n      pop\n      jump\t// out\n        /* \"#utility.yul\":841:918   */\n    tag_42:\n        /* \"#utility.yul\":878:885   */\n      0x00\n        /* \"#utility.yul\":907:912   */\n      dup2\n        /* \"#utility.yul\":896:912   */\n      swap1\n      pop\n        /* \"#utility.yul\":841:918   */\n      swap2\n      swap1\n      pop\n      jump\t// out\n        /* \"#utility.yul\":924:1046   */\n    tag_43:\n        /* \"#utility.yul\":997:1021   */\n      tag_65\n        /* \"#utility.yul\":1015:1020   */\n      dup2\n        /* \"#utility.yul\":997:1021   */\n      tag_42\n      jump\t// in\n    tag_65:\n        /* \"#utility.yul\":990:995   */\n      dup2\n        /* \"#utility.yul\":987:1022   */\n      eq\n        /* \"#utility.yul\":977:1040   */\n      tag_66\n      jumpi\n        /* \"#utility.yul\":1036:1037   */\n      0x00\n        /* \"#utility.yul\":1033:1034   */\n      dup1\n        /* \"#utility.yul\":1026:1038   */\n      revert\n        /* \"#utility.yul\":977:1040   */\n    tag_66:\n        /* \"#utility.yul\":924:1046   */\n      pop\n      jump\t// out\n        /* \"#utility.yul\":1052:1191   */\n    tag_44:\n        /* \"#utility.yul\":1098:1103   */\n      0x00\n        /* \"#utility.yul\":1136:1142   */\n      dup2\n        /* \"#utility.yul\":1123:1143   */\n      calldataload\n        /* \"#utility.yul\":1114:1143   */\n      swap1\n      pop\n        /* \"#utility.yul\":1152:1185   */\n      tag_68\n        /* \"#utility.yul\":1179:1184   */\n      dup2\n        /* \"#utility.yul\":1152:1185   */\n      tag_43\n      jump\t// in\n    tag_68:\n        /* \"#utility.yul\":1052:1191   */\n      swap3\n      swap2\n      pop\n      pop\n      jump\t// out\n        /* \"#utility.yul\":1197:1671   */\n    tag_9:\n        /* \"#utility.yul\":1265:1271   */\n      0x00\n        /* \"#utility.yul\":1273:1279   */\n      dup1\n        /* \"#utility.yul\":1322:1324   */\n      0x40\n        /* \"#utility.yul\":1310:1319   */\n      dup4\n        /* \"#utility.yul\":1301:1308   */\n      dup6\n        /* \"#utility.yul\":1297:1320   */\n      sub\n        /* \"#utility.yul\":1293:1325   */\n      slt\n        /* \"#utility.yul\":1290:1409   */\n      iszero\n      tag_70\n      jumpi\n        /* \"#utility.yul\":1328:1407   */\n      tag_71\n      tag_36\n      jump\t// in\n    tag_71:\n        /* \"#utility.yul\":1290:1409   */\n    tag_70:\n        /* \"#utility.yul\":1448:1449   */\n      0x00\n        /* \"#utility.yul\":1473:1526   */\n      tag_72\n        /* \"#utility.yul\":1518:1525   */\n      dup6\n        /* \"#utility.yul\":1509:1515   */\n      dup3\n        /* \"#utility.yul\":1498:1507   */\n      dup7\n        /* \"#utility.yul\":1494:1516   */\n      add\n        /* \"#utility.yul\":1473:1526   */\n      tag_41\n      jump\t// in\n    tag_72:\n        /* \"#utility.yul\":1463:1526   */\n      swap3\n      pop\n        /* \"#utility.yul\":1419:1536   */\n      pop\n        /* \"#utility.yul\":1575:1577   */\n      0x20\n        /* \"#utility.yul\":1601:1654   */\n      tag_73\n        /* \"#utility.yul\":1646:1653   */\n      dup6\n        /* \"#utility.yul\":1637:1643   */\n      dup3\n        /* \"#utility.yul\":1626:1635   */\n      dup7\n        /* \"#utility.yul\":1622:1644   */\n      add\n        /* \"#utility.yul\":1601:1654   */\n      tag_44\n      jump\t// in\n    tag_73:\n        /* \"#utility.yul\":1591:1654   */\n      swap2\n      pop\n        /* \"#utility.yul\":1546:1664   */\n      pop\n        /* \"#utility.yul\":1197:1671   */\n      swap3\n      pop\n      swap3\n      swap1\n      pop\n      jump\t// out\n        /* \"#utility.yul\":1677:1795   */\n    tag_45:\n        /* \"#utility.yul\":1764:1788   */\n      tag_75\n        /* \"#utility.yul\":1782:1787   */\n      dup2\n        /* \"#utility.yul\":1764:1788   */\n      tag_42\n      jump\t// in\n    tag_75:\n        /* \"#utility.yul\":1759:1762   */\n      dup3\n        /* \"#utility.yul\":1752:1789   */\n      mstore\n        /* \"#utility.yul\":1677:1795   */\n      pop\n      pop\n      jump\t// out\n        /* \"#utility.yul\":1801:2023   */\n    tag_14:\n        /* \"#utility.yul\":1894:1898   */\n      0x00\n        /* \"#utility.yul\":1932:1934   */\n      0x20\n        /* \"#utility.yul\":1921:1930   */\n      dup3\n        /* \"#utility.yul\":1917:1935   */\n      add\n        /* \"#utility.yul\":1909:1935   */\n      swap1\n      pop\n        /* \"#utility.yul\":1945:2016   */\n      tag_77\n        /* \"#utility.yul\":2013:2014   */\n      0x00\n        /* \"#utility.yul\":2002:2011   */\n      dup4\n        /* \"#utility.yul\":1998:2015   */\n      add\n        /* \"#utility.yul\":1989:1995   */\n      dup5\n        /* \"#utility.yul\":1945:2016   */\n      tag_45\n      jump\t// in\n    tag_77:\n        /* \"#utility.yul\":1801:2023   */\n      swap3\n      swap2\n      pop\n      pop\n      jump\t// out\n        /* \"#utility.yul\":2029:2147   */\n    tag_46:\n        /* \"#utility.yul\":2116:2140   */\n      tag_79\n        /* \"#utility.yul\":2134:2139   */\n      dup2\n        /* \"#utility.yul\":2116:2140   */\n      tag_39\n      jump\t// in\n    tag_79:\n        /* \"#utility.yul\":2111:2114   */\n      dup3\n        /* \"#utility.yul\":2104:2141   */\n      mstore\n        /* \"#utility.yul\":2029:2147   */\n      pop\n      pop\n      jump\t// out\n        /* \"#utility.yul\":2153:2375   */\n    tag_18:\n        /* \"#utility.yul\":2246:2250   */\n      0x00\n        /* \"#utility.yul\":2284:2286   */\n      0x20\n        /* \"#utility.yul\":2273:2282   */\n      dup3\n        /* \"#utility.yul\":2269:2287   */\n      add\n        /* \"#utility.yul\":2261:2287   */\n      swap1\n      pop\n        /* \"#utility.yul\":2297:2368   */\n      tag_81\n        /* \"#utility.yul\":2365:2366   */\n      0x00\n        /* \"#utility.yul\":2354:2363   */\n      dup4\n        /* \"#utility.yul\":2350:2367   */\n      add\n        /* \"#utility.yul\":2341:2347   */\n      dup5\n        /* \"#utility.yul\":2297:2368   */\n      tag_46\n      jump\t// in\n    tag_81:\n        /* \"#utility.yul\":2153:2375   */\n      swap3\n      swap2\n      pop\n      pop\n      jump\t// out\n        /* \"#utility.yul\":2381:2479   */\n    tag_47:\n        /* \"#utility.yul\":2432:2438   */\n      0x00\n        /* \"#utility.yul\":2466:2471   */\n      dup2\n        /* \"#utility.yul\":2460:2472   */\n      mload\n        /* \"#utility.yul\":2450:2472   */\n      swap1\n      pop\n        /* \"#utility.yul\":2381:2479   */\n      swap2\n      swap1\n      pop\n      jump\t// out\n        /* \"#utility.yul\":2485:2632   */\n    tag_48:\n        /* \"#utility.yul\":2586:2597   */\n      0x00\n        /* \"#utility.yul\":2623:2626   */\n      dup2\n        /* \"#utility.yul\":2608:2626   */\n      swap1\n      pop\n        /* \"#utility.yul\":2485:2632   */\n      swap3\n      swap2\n      pop\n      pop\n      jump\t// out\n        /* \"#utility.yul\":2638:2884   */\n    tag_49:\n        /* \"#utility.yul\":2719:2720   */\n      0x00\n        /* \"#utility.yul\":2729:2842   */\n    tag_85:\n        /* \"#utility.yul\":2743:2749   */\n      dup4\n        /* \"#utility.yul\":2740:2741   */\n      dup2\n        /* \"#utility.yul\":2737:2750   */\n      lt\n        /* \"#utility.yul\":2729:2842   */\n      iszero\n      tag_87\n      jumpi\n        /* \"#utility.yul\":2828:2829   */\n      dup1\n        /* \"#utility.yul\":2823:2826   */\n      dup3\n        /* \"#utility.yul\":2819:2830   */\n      add\n        /* \"#utility.yul\":2813:2831   */\n      mload\n        /* \"#utility.yul\":2809:2810   */\n      dup2\n        /* \"#utility.yul\":2804:2807   */\n      dup5\n        /* \"#utility.yul\":2800:2811   */\n      add\n        /* \"#utility.yul\":2793:2832   */\n      mstore\n        /* \"#utility.yul\":2765:2767   */\n      0x20\n        /* \"#utility.yul\":2762:2763   */\n      dup2\n        /* \"#utility.yul\":2758:2768   */\n      add\n        /* \"#utility.yul\":2753:2768   */\n      swap1\n      pop\n        /* \"#utility.yul\":2729:2842   */\n      jump(tag_85)\n    tag_87:\n        /* \"#utility.yul\":2876:2877   */\n      0x00\n        /* \"#utility.yul\":2867:2873   */\n      dup5\n        /* \"#utility.yul\":2862:2865   */\n      dup5\n        /* \"#utility.yul\":2858:2874   */\n      add\n        /* \"#utility.yul\":2851:2878   */\n      mstore\n        /* \"#utility.yul\":2700:2884   */\n      pop\n        /* \"#utility.yul\":2638:2884   */\n      pop\n      pop\n      pop\n      jump\t// out\n        /* \"#utility.yul\":2890:3276   */\n    tag_50:\n        /* \"#utility.yul\":2994:2997   */\n      0x00\n        /* \"#utility.yul\":3022:3060   */\n      tag_89\n        /* \"#utility.yul\":3054:3059   */\n      dup3\n        /* \"#utility.yul\":3022:3060   */\n      tag_47\n      jump\t// in\n    tag_89:\n        /* \"#utility.yul\":3076:3164   */\n      tag_90\n        /* \"#utility.yul\":3157:3163   */\n      dup2\n        /* \"#utility.yul\":3152:3155   */\n      dup6\n        /* \"#utility.yul\":3076:3164   */\n      tag_48\n      jump\t// in\n    tag_90:\n        /* \"#utility.yul\":3069:3164   */\n      swap4\n      pop\n        /* \"#utility.yul\":3173:3238   */\n      tag_91\n        /* \"#utility.yul\":3231:3237   */\n      dup2\n        /* \"#utility.yul\":3226:3229   */\n      dup6\n        /* \"#utility.yul\":3219:3223   */\n      0x20\n        /* \"#utility.yul\":3212:3217   */\n      dup7\n        /* \"#utility.yul\":3208:3224   */\n      add\n        /* \"#utility.yul\":3173:3238   */\n      tag_49\n      jump\t// in\n    tag_91:\n        /* \"#utility.yul\":3263:3269   */\n      dup1\n        /* \"#utility.yul\":3258:3261   */\n      dup5\n        /* \"#utility.yul\":3254:3270   */\n      add\n        /* \"#utility.yul\":3247:3270   */\n      swap2\n      pop\n        /* \"#utility.yul\":2998:3276   */\n      pop\n        /* \"#utility.yul\":2890:3276   */\n      swap3\n      swap2\n      pop\n      pop\n      jump\t// out\n        /* \"#utility.yul\":3282:3553   */\n    tag_25:\n        /* \"#utility.yul\":3412:3415   */\n      0x00\n        /* \"#utility.yul\":3434:3527   */\n      tag_93\n        /* \"#utility.yul\":3523:3526   */\n      dup3\n        /* \"#utility.yul\":3514:3520   */\n      dup5\n        /* \"#utility.yul\":3434:3527   */\n      tag_50\n      jump\t// in\n    tag_93:\n        /* \"#utility.yul\":3427:3527   */\n      swap2\n      pop\n        /* \"#utility.yul\":3544:3547   */\n      dup2\n        /* \"#utility.yul\":3537:3547   */\n      swap1\n      pop\n        /* \"#utility.yul\":3282:3553   */\n      swap3\n      swap2\n      pop\n      pop\n      jump\t// out\n\n    auxdata: 0xa26469706673582212204cdb5be320e6598141356c7aeeb63d160686e69a19e4667acc1e7028faf9dd8364736f6c63430008110033\n}\n",
				"bytecode": {
					"linkReferences": {},
					"object": "608060405234801561001057600080fd5b50610570806100206000396000f3fe608060405234801561001057600080fd5b506004361061004c5760003560e01c8063171e1996146100515780634e70b1dc1461006d57806367e404ce1461008b578063905edae5146100a9575b600080fd5b61006b6004803603810190610066919061041e565b6100c5565b005b61007561020c565b604051610082919061046d565b60405180910390f35b610093610212565b6040516100a09190610497565b60405180910390f35b6100c360048036038101906100be919061041e565b610238565b005b8060008190555033600160006101000a81548173ffffffffffffffffffffffffffffffffffffffff021916908373ffffffffffffffffffffffffffffffffffffffff160217905550600081604051602401610120919061046d565b6040516020818303038152906040527f3f7a0270000000000000000000000000000000000000000000000000000000007bffffffffffffffffffffffffffffffffffffffffffffffffffffffff19166020820180517bffffffffffffffffffffffffffffffffffffffffffffffffffffffff838183161783525050505090508273ffffffffffffffffffffffffffffffffffffffff16816040516101c49190610523565b600060405180830381855af49150503d80600081146101ff576040519150601f19603f3d011682016040523d82523d6000602084013e610204565b606091505b505050505050565b60005481565b600160009054906101000a900473ffffffffffffffffffffffffffffffffffffffff1681565b8060008190555033600160006101000a81548173ffffffffffffffffffffffffffffffffffffffff021916908373ffffffffffffffffffffffffffffffffffffffff160217905550600081604051602401610293919061046d565b6040516020818303038152906040527f3f7a0270000000000000000000000000000000000000000000000000000000007bffffffffffffffffffffffffffffffffffffffffffffffffffffffff19166020820180517bffffffffffffffffffffffffffffffffffffffffffffffffffffffff838183161783525050505090508273ffffffffffffffffffffffffffffffffffffffff166127108260405161033a9190610523565b60006040518083038160008787f1925050503d8060008114610378576040519150601f19603f3d011682016040523d82523d6000602084013e61037d565b606091505b505050505050565b600080fd5b600073ffffffffffffffffffffffffffffffffffffffff82169050919050565b60006103b58261038a565b9050919050565b6103c5816103aa565b81146103d057600080fd5b50565b6000813590506103e2816103bc565b92915050565b6000819050919050565b6103fb816103e8565b811461040657600080fd5b50565b600081359050610418816103f2565b92915050565b6000806040838503121561043557610434610385565b5b6000610443858286016103d3565b925050602061045485828601610409565b9150509250929050565b610467816103e8565b82525050565b6000602082019050610482600083018461045e565b92915050565b610491816103aa565b82525050565b60006020820190506104ac6000830184610488565b92915050565b600081519050919050565b600081905092915050565b60005b838110156104e65780820151818401526020810190506104cb565b60008484015250505050565b60006104fd826104b2565b61050781856104bd565b93506105178185602086016104c8565b80840191505092915050565b600061052f82846104f2565b91508190509291505056fea26469706673582212204cdb5be320e6598141356c7aeeb63d160686e69a19e4667acc1e7028faf9dd8364736f6c63430008110033",
					"opcodes": "PUSH1 0x80 PUSH1 0x40 MSTORE CALLVALUE DUP1 ISZERO PUSH2 0x10 JUMPI PUSH1 0x0 DUP1 REVERT JUMPDEST POP PUSH2 0x570 DUP1 PUSH2 0x20 PUSH1 0x0 CODECOPY PUSH1 0x0 RETURN INVALID PUSH1 0x80 PUSH1 0x40 MSTORE CALLVALUE DUP1 ISZERO PUSH2 0x10 JUMPI PUSH1 0x0 DUP1 REVERT JUMPDEST POP PUSH1 0x4 CALLDATASIZE LT PUSH2 0x4C JUMPI PUSH1 0x0 CALLDATALOAD PUSH1 0xE0 SHR DUP1 PUSH4 0x171E1996 EQ PUSH2 0x51 JUMPI DUP1 PUSH4 0x4E70B1DC EQ PUSH2 0x6D JUMPI DUP1 PUSH4 0x67E404CE EQ PUSH2 0x8B JUMPI DUP1 PUSH4 0x905EDAE5 EQ PUSH2 0xA9 JUMPI JUMPDEST PUSH1 0x0 DUP1 REVERT JUMPDEST PUSH2 0x6B PUSH1 0x4 DUP1 CALLDATASIZE SUB DUP2 ADD SWAP1 PUSH2 0x66 SWAP2 SWAP1 PUSH2 0x41E JUMP JUMPDEST PUSH2 0xC5 JUMP JUMPDEST STOP JUMPDEST PUSH2 0x75 PUSH2 0x20C JUMP JUMPDEST PUSH1 0x40 MLOAD PUSH2 0x82 SWAP2 SWAP1 PUSH2 0x46D JUMP JUMPDEST PUSH1 0x40 MLOAD DUP1 SWAP2 SUB SWAP1 RETURN JUMPDEST PUSH2 0x93 PUSH2 0x212 JUMP JUMPDEST PUSH1 0x40 MLOAD PUSH2 0xA0 SWAP2 SWAP1 PUSH2 0x497 JUMP JUMPDEST PUSH1 0x40 MLOAD DUP1 SWAP2 SUB SWAP1 RETURN JUMPDEST PUSH2 0xC3 PUSH1 0x4 DUP1 CALLDATASIZE SUB DUP2 ADD SWAP1 PUSH2 0xBE SWAP2 SWAP1 PUSH2 0x41E JUMP JUMPDEST PUSH2 0x238 JUMP JUMPDEST STOP JUMPDEST DUP1 PUSH1 0x0 DUP2 SWAP1 SSTORE POP CALLER PUSH1 0x1 PUSH1 0x0 PUSH2 0x100 EXP DUP2 SLOAD DUP2 PUSH20 0xFFFFFFFFFFFFFFFFFFFFFFFFFFFFFFFFFFFFFFFF MUL NOT AND SWAP1 DUP4 PUSH20 0xFFFFFFFFFFFFFFFFFFFFFFFFFFFFFFFFFFFFFFFF AND MUL OR SWAP1 SSTORE POP PUSH1 0x0 DUP2 PUSH1 0x40 MLOAD PUSH1 0x24 ADD PUSH2 0x120 SWAP2 SWAP1 PUSH2 0x46D JUMP JUMPDEST PUSH1 0x40 MLOAD PUSH1 0x20 DUP2 DUP4 SUB SUB DUP2 MSTORE SWAP1 PUSH1 0x40 MSTORE PUSH32 0x3F7A027000000000000000000000000000000000000000000000000000000000 PUSH28 0xFFFFFFFFFFFFFFFFFFFFFFFFFFFFFFFFFFFFFFFFFFFFFFFFFFFFFFFF NOT AND PUSH1 0x20 DUP3 ADD DUP1 MLOAD PUSH28 0xFFFFFFFFFFFFFFFFFFFFFFFFFFFFFFFFFFFFFFFFFFFFFFFFFFFFFFFF DUP4 DUP2 DUP4 AND OR DUP4 MSTORE POP POP POP POP SWAP1 POP DUP3 PUSH20 0xFFFFFFFFFFFFFFFFFFFFFFFFFFFFFFFFFFFFFFFF AND DUP2 PUSH1 0x40 MLOAD PUSH2 0x1C4 SWAP2 SWAP1 PUSH2 0x523 JUMP JUMPDEST PUSH1 0x0 PUSH1 0x40 MLOAD DUP1 DUP4 SUB DUP2 DUP6 GAS DELEGATECALL SWAP2 POP POP RETURNDATASIZE DUP1 PUSH1 0x0 DUP2 EQ PUSH2 0x1FF JUMPI PUSH1 0x40 MLOAD SWAP2 POP PUSH1 0x1F NOT PUSH1 0x3F RETURNDATASIZE ADD AND DUP3 ADD PUSH1 0x40 MSTORE RETURNDATASIZE DUP3 MSTORE RETURNDATASIZE PUSH1 0x0 PUSH1 0x20 DUP5 ADD RETURNDATACOPY PUSH2 0x204 JUMP JUMPDEST PUSH1 0x60 SWAP2 POP JUMPDEST POP POP POP POP POP POP JUMP JUMPDEST PUSH1 0x0 SLOAD DUP2 JUMP JUMPDEST PUSH1 0x1 PUSH1 0x0 SWAP1 SLOAD SWAP1 PUSH2 0x100 EXP SWAP1 DIV PUSH20 0xFFFFFFFFFFFFFFFFFFFFFFFFFFFFFFFFFFFFFFFF AND DUP2 JUMP JUMPDEST DUP1 PUSH1 0x0 DUP2 SWAP1 SSTORE POP CALLER PUSH1 0x1 PUSH1 0x0 PUSH2 0x100 EXP DUP2 SLOAD DUP2 PUSH20 0xFFFFFFFFFFFFFFFFFFFFFFFFFFFFFFFFFFFFFFFF MUL NOT AND SWAP1 DUP4 PUSH20 0xFFFFFFFFFFFFFFFFFFFFFFFFFFFFFFFFFFFFFFFF AND MUL OR SWAP1 SSTORE POP PUSH1 0x0 DUP2 PUSH1 0x40 MLOAD PUSH1 0x24 ADD PUSH2 0x293 SWAP2 SWAP1 PUSH2 0x46D JUMP JUMPDEST PUSH1 0x40 MLOAD PUSH1 0x20 DUP2 DUP4 SUB SUB DUP2 MSTORE SWAP1 PUSH1 0x40 MSTORE PUSH32 0x3F7A027000000000000000000000000000000000000000000000000000000000 PUSH28 0xFFFFFFFFFFFFFFFFFFFFFFFFFFFFFFFFFFFFFFFFFFFFFFFFFFFFFFFF NOT AND PUSH1 0x20 DUP3 ADD DUP1 MLOAD PUSH28 0xFFFFFFFFFFFFFFFFFFFFFFFFFFFFFFFFFFFFFFFFFFFFFFFFFFFFFFFF DUP4 DUP2 DUP4 AND OR DUP4 MSTORE POP POP POP POP SWAP1 POP DUP3 PUSH20 0xFFFFFFFFFFFFFFFFFFFFFFFFFFFFFFFFFFFFFFFF AND PUSH2 0x2710 DUP3 PUSH1 0x40 MLOAD PUSH2 0x33A SWAP2 SWAP1 PUSH2 0x523 JUMP JUMPDEST PUSH1 0x0 PUSH1 0x40 MLOAD DUP1 DUP4 SUB DUP2 PUSH1 0x0 DUP8 DUP8 CALL SWAP3 POP POP POP RETURNDATASIZE DUP1 PUSH1 0x0 DUP2 EQ PUSH2 0x378 JUMPI PUSH1 0x40 MLOAD SWAP2 POP PUSH1 0x1F NOT PUSH1 0x3F RETURNDATASIZE ADD AND DUP3 ADD PUSH1 0x40 MSTORE RETURNDATASIZE DUP3 MSTORE RETURNDATASIZE PUSH1 0x0 PUSH1 0x20 DUP5 ADD RETURNDATACOPY PUSH2 0x37D JUMP JUMPDEST PUSH1 0x60 SWAP2 POP JUMPDEST POP POP POP POP POP POP JUMP JUMPDEST PUSH1 0x0 DUP1 REVERT JUMPDEST PUSH1 0x0 PUSH20 0xFFFFFFFFFFFFFFFFFFFFFFFFFFFFFFFFFFFFFFFF DUP3 AND SWAP1 POP SWAP2 SWAP1 POP JUMP JUMPDEST PUSH1 0x0 PUSH2 0x3B5 DUP3 PUSH2 0x38A JUMP JUMPDEST SWAP1 POP SWAP2 SWAP1 POP JUMP JUMPDEST PUSH2 0x3C5 DUP2 PUSH2 0x3AA JUMP JUMPDEST DUP2 EQ PUSH2 0x3D0 JUMPI PUSH1 0x0 DUP1 REVERT JUMPDEST POP JUMP JUMPDEST PUSH1 0x0 DUP2 CALLDATALOAD SWAP1 POP PUSH2 0x3E2 DUP2 PUSH2 0x3BC JUMP JUMPDEST SWAP3 SWAP2 POP POP JUMP JUMPDEST PUSH1 0x0 DUP2 SWAP1 POP SWAP2 SWAP1 POP JUMP JUMPDEST PUSH2 0x3FB DUP2 PUSH2 0x3E8 JUMP JUMPDEST DUP2 EQ PUSH2 0x406 JUMPI PUSH1 0x0 DUP1 REVERT JUMPDEST POP JUMP JUMPDEST PUSH1 0x0 DUP2 CALLDATALOAD SWAP1 POP PUSH2 0x418 DUP2 PUSH2 0x3F2 JUMP JUMPDEST SWAP3 SWAP2 POP POP JUMP JUMPDEST PUSH1 0x0 DUP1 PUSH1 0x40 DUP4 DUP6 SUB SLT ISZERO PUSH2 0x435 JUMPI PUSH2 0x434 PUSH2 0x385 JUMP JUMPDEST JUMPDEST PUSH1 0x0 PUSH2 0x443 DUP6 DUP3 DUP7 ADD PUSH2 0x3D3 JUMP JUMPDEST SWAP3 POP POP PUSH1 0x20 PUSH2 0x454 DUP6 DUP3 DUP7 ADD PUSH2 0x409 JUMP JUMPDEST SWAP2 POP POP SWAP3 POP SWAP3 SWAP1 POP JUMP JUMPDEST PUSH2 0x467 DUP2 PUSH2 0x3E8 JUMP JUMPDEST DUP3 MSTORE POP POP JUMP JUMPDEST PUSH1 0x0 PUSH1 0x20 DUP3 ADD SWAP1 POP PUSH2 0x482 PUSH1 0x0 DUP4 ADD DUP5 PUSH2 0x45E JUMP JUMPDEST SWAP3 SWAP2 POP POP JUMP JUMPDEST PUSH2 0x491 DUP2 PUSH2 0x3AA JUMP JUMPDEST DUP3 MSTORE POP POP JUMP JUMPDEST PUSH1 0x0 PUSH1 0x20 DUP3 ADD SWAP1 POP PUSH2 0x4AC PUSH1 0x0 DUP4 ADD DUP5 PUSH2 0x488 JUMP JUMPDEST SWAP3 SWAP2 POP POP JUMP JUMPDEST PUSH1 0x0 DUP2 MLOAD SWAP1 POP SWAP2 SWAP1 POP JUMP JUMPDEST PUSH1 0x0 DUP2 SWAP1 POP SWAP3 SWAP2 POP POP JUMP JUMPDEST PUSH1 0x0 JUMPDEST DUP4 DUP2 LT ISZERO PUSH2 0x4E6 JUMPI DUP1 DUP3 ADD MLOAD DUP2 DUP5 ADD MSTORE PUSH1 0x20 DUP2 ADD SWAP1 POP PUSH2 0x4CB JUMP JUMPDEST PUSH1 0x0 DUP5 DUP5 ADD MSTORE POP POP POP POP JUMP JUMPDEST PUSH1 0x0 PUSH2 0x4FD DUP3 PUSH2 0x4B2 JUMP JUMPDEST PUSH2 0x507 DUP2 DUP6 PUSH2 0x4BD JUMP JUMPDEST SWAP4 POP PUSH2 0x517 DUP2 DUP6 PUSH1 0x20 DUP7 ADD PUSH2 0x4C8 JUMP JUMPDEST DUP1 DUP5 ADD SWAP2 POP POP SWAP3 SWAP2 POP POP JUMP JUMPDEST PUSH1 0x0 PUSH2 0x52F DUP3 DUP5 PUSH2 0x4F2 JUMP JUMPDEST SWAP2 POP DUP2 SWAP1 POP SWAP3 SWAP2 POP POP JUMP INVALID LOG2 PUSH5 0x6970667358 0x22 SLT KECCAK256 0x4C 0xDB JUMPDEST 0xE3 KECCAK256 0xE6 MSIZE DUP2 COINBASE CALLDATALOAD PUSH13 0x7AEEB63D160686E69A19E4667A 0xCC 0x1E PUSH17 0x28FAF9DD8364736F6C6343000811003300 "
				},
				"gasEstimates": {
					"creation": {
						"codeDepositCost": "278400",
						"executionCost": "318",
						"totalCost": "278718"
					},
					"external": {
						"callN(address,uint256)": "infinite",
						"delegateCallN(address,uint256)": "infinite",
						"num()": "2429",
						"sender()": "2536"
					}
				},
				"methodIdentifiers": {
					"callN(address,uint256)": "905edae5",
					"delegateCallN(address,uint256)": "171e1996",
					"num()": "4e70b1dc",
					"sender()": "67e404ce"
				}
			},
			"storageLayout": {
				"storage": [
					{
						"astId": 52,
						"contract": "CallDelegateTest.sol:Caller",
						"label": "num",
						"offset": 0,
						"slot": "0",
						"type": "t_uint256"
					},
					{
						"astId": 54,
						"contract": "CallDelegateTest.sol:Caller",
						"label": "sender",
						"offset": 0,
						"slot": "1",
						"type": "t_address"
					}
				],
				"types": {
					"t_address": {
						"encoding": "inplace",
						"label": "address",
						"numberOfBytes": "20"
					},
					"t_uint256": {
						"encoding": "inplace",
						"label": "uint256",
						"numberOfBytes": "32"
					}
				}
			},
			"userdoc": {
				"kind": "user",
				"methods": {},
				"version": 1
			}
		}
	}
}