{
	"SendEther.sol": {
		"SendEther": {
			"abi": [
				{
					"inputs": [],
					"stateMutability": "payable",
					"type": "constructor"
				},
				{
					"inputs": [
						{
							"internalType": "address payable",
							"name": "_to",
							"type": "address"
						}
					],
					"name": "callEther",
					"outputs": [],
					"stateMutability": "payable",
					"type": "function"
				},
				{
					"inputs": [
						{
							"internalType": "address payable",
							"name": "_to",
							"type": "address"
						}
					],
					"name": "sendEther",
					"outputs": [],
					"stateMutability": "payable",
					"type": "function"
				},
				{
					"inputs": [
						{
							"internalType": "address payable",
							"name": "_to",
							"type": "address"
						}
					],
					"name": "transferEther",
					"outputs": [],
					"stateMutability": "payable",
					"type": "function"
				},
				{
					"stateMutability": "payable",
					"type": "receive"
				}
			],
			"devdoc": {
				"kind": "dev",
				"methods": {},
				"version": 1
			},
			"evm": {
				"assembly": "    /* \"SendEther.sol\":75:1029  contract SendEther {... */\n  mstore(0x40, 0x80)\n  dataSize(sub_0)\n  dup1\n  dataOffset(sub_0)\n  0x00\n  codecopy\n  0x00\n  return\nstop\n\nsub_0: assembly {\n        /* \"SendEther.sol\":75:1029  contract SendEther {... */\n      mstore(0x40, 0x80)\n      jumpi(tag_1, lt(calldatasize, 0x04))\n      shr(0xe0, calldataload(0x00))\n      dup1\n      0x48c981e2\n      eq\n      tag_3\n      jumpi\n      dup1\n      0x6b55e991\n      eq\n      tag_4\n      jumpi\n      dup1\n      0x6d6e2411\n      eq\n      tag_5\n      jumpi\n      jump(tag_2)\n    tag_1:\n      jumpi(tag_2, calldatasize)\n      stop\n    tag_2:\n      0x00\n      dup1\n      revert\n        /* \"SendEther.sol\":492:714  function sendEther(address payable _to) external payable{... */\n    tag_3:\n      tag_8\n      0x04\n      dup1\n      calldatasize\n      sub\n      dup2\n      add\n      swap1\n      tag_9\n      swap2\n      swap1\n      tag_10\n      jump\t// in\n    tag_9:\n      tag_11\n      jump\t// in\n    tag_8:\n      stop\n        /* \"SendEther.sol\":273:486  function transferEther(address payable _to) external payable {... */\n    tag_4:\n      tag_12\n      0x04\n      dup1\n      calldatasize\n      sub\n      dup2\n      add\n      swap1\n      tag_13\n      swap2\n      swap1\n      tag_10\n      jump\t// in\n    tag_13:\n      tag_14\n      jump\t// in\n    tag_12:\n      stop\n        /* \"SendEther.sol\":720:1027  function callEther(address payable _to) external payable{... */\n    tag_5:\n      tag_15\n      0x04\n      dup1\n      calldatasize\n      sub\n      dup2\n      add\n      swap1\n      tag_16\n      swap2\n      swap1\n      tag_10\n      jump\t// in\n    tag_16:\n      tag_17\n      jump\t// in\n    tag_15:\n      stop\n        /* \"SendEther.sol\":492:714  function sendEther(address payable _to) external payable{... */\n    tag_11:\n        /* \"SendEther.sol\":639:650  bool result */\n      0x00\n        /* \"SendEther.sol\":653:656  _to */\n      dup2\n        /* \"SendEther.sol\":653:661  _to.send */\n      0xffffffffffffffffffffffffffffffffffffffff\n      and\n        /* \"SendEther.sol\":653:667  _to.send(2000) */\n      0x08fc\n        /* \"SendEther.sol\":662:666  2000 */\n      0x07d0\n        /* \"SendEther.sol\":653:667  _to.send(2000) */\n      swap1\n      dup2\n      iszero\n      mul\n      swap1\n      mload(0x40)\n      0x00\n      mload(0x40)\n      dup1\n      dup4\n      sub\n      dup2\n      dup6\n      dup9\n      dup9\n      call\n      swap4\n      pop\n      pop\n      pop\n      pop\n        /* \"SendEther.sol\":639:667  bool result = _to.send(2000) */\n      swap1\n      pop\n        /* \"SendEther.sol\":685:691  result */\n      dup1\n        /* \"SendEther.sol\":677:707  require(result, \"send failed\") */\n      tag_20\n      jumpi\n      mload(0x40)\n      0x08c379a000000000000000000000000000000000000000000000000000000000\n      dup2\n      mstore\n      0x04\n      add\n      tag_21\n      swap1\n      tag_22\n      jump\t// in\n    tag_21:\n      mload(0x40)\n      dup1\n      swap2\n      sub\n      swap1\n      revert\n    tag_20:\n        /* \"SendEther.sol\":548:714  {... */\n      pop\n        /* \"SendEther.sol\":492:714  function sendEther(address payable _to) external payable{... */\n      pop\n      jump\t// out\n        /* \"SendEther.sol\":273:486  function transferEther(address payable _to) external payable {... */\n    tag_14:\n        /* \"SendEther.sol\":461:464  _to */\n      dup1\n        /* \"SendEther.sol\":461:473  _to.transfer */\n      0xffffffffffffffffffffffffffffffffffffffff\n      and\n        /* \"SendEther.sol\":461:479  _to.transfer(2000) */\n      0x08fc\n        /* \"SendEther.sol\":474:478  2000 */\n      0x07d0\n        /* \"SendEther.sol\":461:479  _to.transfer(2000) */\n      swap1\n      dup2\n      iszero\n      mul\n      swap1\n      mload(0x40)\n      0x00\n      mload(0x40)\n      dup1\n      dup4\n      sub\n      dup2\n      dup6\n      dup9\n      dup9\n      call\n      swap4\n      pop\n      pop\n      pop\n      pop\n      iszero\n      dup1\n      iszero\n      tag_25\n      jumpi\n      returndatasize\n      0x00\n      dup1\n      returndatacopy\n      revert(0x00, returndatasize)\n    tag_25:\n      pop\n        /* \"SendEther.sol\":273:486  function transferEther(address payable _to) external payable {... */\n      pop\n      jump\t// out\n        /* \"SendEther.sol\":720:1027  function callEther(address payable _to) external payable{... */\n    tag_17:\n        /* \"SendEther.sol\":922:933  bool result */\n      0x00\n        /* \"SendEther.sol\":935:952  bytes memory data */\n      dup1\n        /* \"SendEther.sol\":957:960  _to */\n      dup3\n        /* \"SendEther.sol\":957:965  _to.call */\n      0xffffffffffffffffffffffffffffffffffffffff\n      and\n        /* \"SendEther.sol\":972:976  2000 */\n      0x07d0\n        /* \"SendEther.sol\":957:981  _to.call{value:2000}(\"\") */\n      mload(0x40)\n      tag_27\n      swap1\n      tag_28\n      jump\t// in\n    tag_27:\n      0x00\n      mload(0x40)\n      dup1\n      dup4\n      sub\n      dup2\n      dup6\n      dup8\n      gas\n      call\n      swap3\n      pop\n      pop\n      pop\n      returndatasize\n      dup1\n      0x00\n      dup2\n      eq\n      tag_31\n      jumpi\n      mload(0x40)\n      swap2\n      pop\n      and(add(returndatasize, 0x3f), not(0x1f))\n      dup3\n      add\n      0x40\n      mstore\n      returndatasize\n      dup3\n      mstore\n      returndatasize\n      0x00\n      0x20\n      dup5\n      add\n      returndatacopy\n      jump(tag_30)\n    tag_31:\n      0x60\n      swap2\n      pop\n    tag_30:\n      pop\n        /* \"SendEther.sol\":921:981  (bool result, bytes memory data) =  _to.call{value:2000}(\"\") */\n      swap2\n      pop\n      swap2\n      pop\n        /* \"SendEther.sol\":998:1004  result */\n      dup2\n        /* \"SendEther.sol\":990:1020  require(result, \"call failed\") */\n      tag_32\n      jumpi\n      mload(0x40)\n      0x08c379a000000000000000000000000000000000000000000000000000000000\n      dup2\n      mstore\n      0x04\n      add\n      tag_33\n      swap1\n      tag_34\n      jump\t// in\n    tag_33:\n      mload(0x40)\n      dup1\n      swap2\n      sub\n      swap1\n      revert\n    tag_32:\n        /* \"SendEther.sol\":776:1027  {... */\n      pop\n      pop\n        /* \"SendEther.sol\":720:1027  function callEther(address payable _to) external payable{... */\n      pop\n      jump\t// out\n        /* \"#utility.yul\":7:162   */\n    tag_36:\n        /* \"#utility.yul\":61:66   */\n      0x00\n        /* \"#utility.yul\":99:105   */\n      dup2\n        /* \"#utility.yul\":86:106   */\n      calldataload\n        /* \"#utility.yul\":77:106   */\n      swap1\n      pop\n        /* \"#utility.yul\":115:156   */\n      tag_38\n        /* \"#utility.yul\":150:155   */\n      dup2\n        /* \"#utility.yul\":115:156   */\n      tag_39\n      jump\t// in\n    tag_38:\n        /* \"#utility.yul\":7:162   */\n      swap3\n      swap2\n      pop\n      pop\n      jump\t// out\n        /* \"#utility.yul\":168:513   */\n    tag_10:\n        /* \"#utility.yul\":235:241   */\n      0x00\n        /* \"#utility.yul\":284:286   */\n      0x20\n        /* \"#utility.yul\":272:281   */\n      dup3\n        /* \"#utility.yul\":263:270   */\n      dup5\n        /* \"#utility.yul\":259:282   */\n      sub\n        /* \"#utility.yul\":255:287   */\n      slt\n        /* \"#utility.yul\":252:371   */\n      iszero\n      tag_41\n      jumpi\n        /* \"#utility.yul\":290:369   */\n      tag_42\n      tag_43\n      jump\t// in\n    tag_42:\n        /* \"#utility.yul\":252:371   */\n    tag_41:\n        /* \"#utility.yul\":410:411   */\n      0x00\n        /* \"#utility.yul\":435:496   */\n      tag_44\n        /* \"#utility.yul\":488:495   */\n      dup5\n        /* \"#utility.yul\":479:485   */\n      dup3\n        /* \"#utility.yul\":468:477   */\n      dup6\n        /* \"#utility.yul\":464:486   */\n      add\n        /* \"#utility.yul\":435:496   */\n      tag_36\n      jump\t// in\n    tag_44:\n        /* \"#utility.yul\":425:496   */\n      swap2\n      pop\n        /* \"#utility.yul\":381:506   */\n      pop\n        /* \"#utility.yul\":168:513   */\n      swap3\n      swap2\n      pop\n      pop\n      jump\t// out\n        /* \"#utility.yul\":519:885   */\n    tag_45:\n        /* \"#utility.yul\":661:664   */\n      0x00\n        /* \"#utility.yul\":682:749   */\n      tag_47\n        /* \"#utility.yul\":746:748   */\n      0x0b\n        /* \"#utility.yul\":741:744   */\n      dup4\n        /* \"#utility.yul\":682:749   */\n      tag_48\n      jump\t// in\n    tag_47:\n        /* \"#utility.yul\":675:749   */\n      swap2\n      pop\n        /* \"#utility.yul\":758:851   */\n      tag_49\n        /* \"#utility.yul\":847:850   */\n      dup3\n        /* \"#utility.yul\":758:851   */\n      tag_50\n      jump\t// in\n    tag_49:\n        /* \"#utility.yul\":876:878   */\n      0x20\n        /* \"#utility.yul\":871:874   */\n      dup3\n        /* \"#utility.yul\":867:879   */\n      add\n        /* \"#utility.yul\":860:879   */\n      swap1\n      pop\n        /* \"#utility.yul\":519:885   */\n      swap2\n      swap1\n      pop\n      jump\t// out\n        /* \"#utility.yul\":891:1257   */\n    tag_51:\n        /* \"#utility.yul\":1033:1036   */\n      0x00\n        /* \"#utility.yul\":1054:1121   */\n      tag_53\n        /* \"#utility.yul\":1118:1120   */\n      0x0b\n        /* \"#utility.yul\":1113:1116   */\n      dup4\n        /* \"#utility.yul\":1054:1121   */\n      tag_48\n      jump\t// in\n    tag_53:\n        /* \"#utility.yul\":1047:1121   */\n      swap2\n      pop\n        /* \"#utility.yul\":1130:1223   */\n      tag_54\n        /* \"#utility.yul\":1219:1222   */\n      dup3\n        /* \"#utility.yul\":1130:1223   */\n      tag_55\n      jump\t// in\n    tag_54:\n        /* \"#utility.yul\":1248:1250   */\n      0x20\n        /* \"#utility.yul\":1243:1246   */\n      dup3\n        /* \"#utility.yul\":1239:1251   */\n      add\n        /* \"#utility.yul\":1232:1251   */\n      swap1\n      pop\n        /* \"#utility.yul\":891:1257   */\n      swap2\n      swap1\n      pop\n      jump\t// out\n        /* \"#utility.yul\":1263:1661   */\n    tag_56:\n        /* \"#utility.yul\":1422:1425   */\n      0x00\n        /* \"#utility.yul\":1443:1526   */\n      tag_58\n        /* \"#utility.yul\":1524:1525   */\n      0x00\n        /* \"#utility.yul\":1519:1522   */\n      dup4\n        /* \"#utility.yul\":1443:1526   */\n      tag_59\n      jump\t// in\n    tag_58:\n        /* \"#utility.yul\":1436:1526   */\n      swap2\n      pop\n        /* \"#utility.yul\":1535:1628   */\n      tag_60\n        /* \"#utility.yul\":1624:1627   */\n      dup3\n        /* \"#utility.yul\":1535:1628   */\n      tag_61\n      jump\t// in\n    tag_60:\n        /* \"#utility.yul\":1653:1654   */\n      0x00\n        /* \"#utility.yul\":1648:1651   */\n      dup3\n        /* \"#utility.yul\":1644:1655   */\n      add\n        /* \"#utility.yul\":1637:1655   */\n      swap1\n      pop\n        /* \"#utility.yul\":1263:1661   */\n      swap2\n      swap1\n      pop\n      jump\t// out\n        /* \"#utility.yul\":1667:2046   */\n    tag_28:\n        /* \"#utility.yul\":1851:1854   */\n      0x00\n        /* \"#utility.yul\":1873:2020   */\n      tag_63\n        /* \"#utility.yul\":2016:2019   */\n      dup3\n        /* \"#utility.yul\":1873:2020   */\n      tag_56\n      jump\t// in\n    tag_63:\n        /* \"#utility.yul\":1866:2020   */\n      swap2\n      pop\n        /* \"#utility.yul\":2037:2040   */\n      dup2\n        /* \"#utility.yul\":2030:2040   */\n      swap1\n      pop\n        /* \"#utility.yul\":1667:2046   */\n      swap2\n      swap1\n      pop\n      jump\t// out\n        /* \"#utility.yul\":2052:2471   */\n    tag_22:\n        /* \"#utility.yul\":2218:2222   */\n      0x00\n        /* \"#utility.yul\":2256:2258   */\n      0x20\n        /* \"#utility.yul\":2245:2254   */\n      dup3\n        /* \"#utility.yul\":2241:2259   */\n      add\n        /* \"#utility.yul\":2233:2259   */\n      swap1\n      pop\n        /* \"#utility.yul\":2305:2314   */\n      dup2\n        /* \"#utility.yul\":2299:2303   */\n      dup2\n        /* \"#utility.yul\":2295:2315   */\n      sub\n        /* \"#utility.yul\":2291:2292   */\n      0x00\n        /* \"#utility.yul\":2280:2289   */\n      dup4\n        /* \"#utility.yul\":2276:2293   */\n      add\n        /* \"#utility.yul\":2269:2316   */\n      mstore\n        /* \"#utility.yul\":2333:2464   */\n      tag_65\n        /* \"#utility.yul\":2459:2463   */\n      dup2\n        /* \"#utility.yul\":2333:2464   */\n      tag_45\n      jump\t// in\n    tag_65:\n        /* \"#utility.yul\":2325:2464   */\n      swap1\n      pop\n        /* \"#utility.yul\":2052:2471   */\n      swap2\n      swap1\n      pop\n      jump\t// out\n        /* \"#utility.yul\":2477:2896   */\n    tag_34:\n        /* \"#utility.yul\":2643:2647   */\n      0x00\n        /* \"#utility.yul\":2681:2683   */\n      0x20\n        /* \"#utility.yul\":2670:2679   */\n      dup3\n        /* \"#utility.yul\":2666:2684   */\n      add\n        /* \"#utility.yul\":2658:2684   */\n      swap1\n      pop\n        /* \"#utility.yul\":2730:2739   */\n      dup2\n        /* \"#utility.yul\":2724:2728   */\n      dup2\n        /* \"#utility.yul\":2720:2740   */\n      sub\n        /* \"#utility.yul\":2716:2717   */\n      0x00\n        /* \"#utility.yul\":2705:2714   */\n      dup4\n        /* \"#utility.yul\":2701:2718   */\n      add\n        /* \"#utility.yul\":2694:2741   */\n      mstore\n        /* \"#utility.yul\":2758:2889   */\n      tag_67\n        /* \"#utility.yul\":2884:2888   */\n      dup2\n        /* \"#utility.yul\":2758:2889   */\n      tag_51\n      jump\t// in\n    tag_67:\n        /* \"#utility.yul\":2750:2889   */\n      swap1\n      pop\n        /* \"#utility.yul\":2477:2896   */\n      swap2\n      swap1\n      pop\n      jump\t// out\n        /* \"#utility.yul\":2983:3130   */\n    tag_59:\n        /* \"#utility.yul\":3084:3095   */\n      0x00\n        /* \"#utility.yul\":3121:3124   */\n      dup2\n        /* \"#utility.yul\":3106:3124   */\n      swap1\n      pop\n        /* \"#utility.yul\":2983:3130   */\n      swap3\n      swap2\n      pop\n      pop\n      jump\t// out\n        /* \"#utility.yul\":3136:3305   */\n    tag_48:\n        /* \"#utility.yul\":3220:3231   */\n      0x00\n        /* \"#utility.yul\":3254:3260   */\n      dup3\n        /* \"#utility.yul\":3249:3252   */\n      dup3\n        /* \"#utility.yul\":3242:3261   */\n      mstore\n        /* \"#utility.yul\":3294:3298   */\n      0x20\n        /* \"#utility.yul\":3289:3292   */\n      dup3\n        /* \"#utility.yul\":3285:3299   */\n      add\n        /* \"#utility.yul\":3270:3299   */\n      swap1\n      pop\n        /* \"#utility.yul\":3136:3305   */\n      swap3\n      swap2\n      pop\n      pop\n      jump\t// out\n        /* \"#utility.yul\":3311:3415   */\n    tag_72:\n        /* \"#utility.yul\":3356:3363   */\n      0x00\n        /* \"#utility.yul\":3385:3409   */\n      tag_74\n        /* \"#utility.yul\":3403:3408   */\n      dup3\n        /* \"#utility.yul\":3385:3409   */\n      tag_75\n      jump\t// in\n    tag_74:\n        /* \"#utility.yul\":3374:3409   */\n      swap1\n      pop\n        /* \"#utility.yul\":3311:3415   */\n      swap2\n      swap1\n      pop\n      jump\t// out\n        /* \"#utility.yul\":3421:3547   */\n    tag_75:\n        /* \"#utility.yul\":3458:3465   */\n      0x00\n        /* \"#utility.yul\":3498:3540   */\n      0xffffffffffffffffffffffffffffffffffffffff\n        /* \"#utility.yul\":3491:3496   */\n      dup3\n        /* \"#utility.yul\":3487:3541   */\n      and\n        /* \"#utility.yul\":3476:3541   */\n      swap1\n      pop\n        /* \"#utility.yul\":3421:3547   */\n      swap2\n      swap1\n      pop\n      jump\t// out\n        /* \"#utility.yul\":3676:3793   */\n    tag_43:\n        /* \"#utility.yul\":3785:3786   */\n      0x00\n        /* \"#utility.yul\":3782:3783   */\n      dup1\n        /* \"#utility.yul\":3775:3787   */\n      revert\n        /* \"#utility.yul\":3799:3960   */\n    tag_50:\n        /* \"#utility.yul\":3939:3952   */\n      0x73656e64206661696c6564000000000000000000000000000000000000000000\n        /* \"#utility.yul\":3935:3936   */\n      0x00\n        /* \"#utility.yul\":3927:3933   */\n      dup3\n        /* \"#utility.yul\":3923:3937   */\n      add\n        /* \"#utility.yul\":3916:3953   */\n      mstore\n        /* \"#utility.yul\":3799:3960   */\n      pop\n      jump\t// out\n        /* \"#utility.yul\":3966:4127   */\n    tag_55:\n        /* \"#utility.yul\":4106:4119   */\n      0x63616c6c206661696c6564000000000000000000000000000000000000000000\n        /* \"#utility.yul\":4102:4103   */\n      0x00\n        /* \"#utility.yul\":4094:4100   */\n      dup3\n        /* \"#utility.yul\":4090:4104   */\n      add\n        /* \"#utility.yul\":4083:4120   */\n      mstore\n        /* \"#utility.yul\":3966:4127   */\n      pop\n      jump\t// out\n        /* \"#utility.yul\":4133:4247   */\n    tag_61:\n      pop\n      jump\t// out\n        /* \"#utility.yul\":4253:4391   */\n    tag_39:\n        /* \"#utility.yul\":4334:4366   */\n      tag_84\n        /* \"#utility.yul\":4360:4365   */\n      dup2\n        /* \"#utility.yul\":4334:4366   */\n      tag_72\n      jump\t// in\n    tag_84:\n        /* \"#utility.yul\":4327:4332   */\n      dup2\n        /* \"#utility.yul\":4324:4367   */\n      eq\n        /* \"#utility.yul\":4314:4385   */\n      tag_85\n      jumpi\n        /* \"#utility.yul\":4381:4382   */\n      0x00\n        /* \"#utility.yul\":4378:4379   */\n      dup1\n        /* \"#utility.yul\":4371:4383   */\n      revert\n        /* \"#utility.yul\":4314:4385   */\n    tag_85:\n        /* \"#utility.yul\":4253:4391   */\n      pop\n      jump\t// out\n\n    auxdata: 0xa2646970667358221220ee98f9c79ff6ede935c3a44e3e100bb51234710a1218fef59245cddfddc9669e64736f6c63430008070033\n}\n",
				"bytecode": {
					"linkReferences": {},
					"object": "608060405261040d806100136000396000f3fe6080604052600436106100385760003560e01c806348c981e2146100445780636b55e991146100605780636d6e24111461007c5761003f565b3661003f57005b600080fd5b61005e6004803603810190610059919061022d565b610098565b005b61007a6004803603810190610075919061022d565b610117565b005b6100966004803603810190610091919061022d565b610163565b005b60008173ffffffffffffffffffffffffffffffffffffffff166108fc6107d09081150290604051600060405180830381858888f19350505050905080610113576040517f08c379a000000000000000000000000000000000000000000000000000000000815260040161010a906102d8565b60405180910390fd5b5050565b8073ffffffffffffffffffffffffffffffffffffffff166108fc6107d09081150290604051600060405180830381858888f1935050505015801561015f573d6000803e3d6000fd5b5050565b6000808273ffffffffffffffffffffffffffffffffffffffff166107d060405161018c906102c3565b60006040518083038185875af1925050503d80600081146101c9576040519150601f19603f3d011682016040523d82523d6000602084013e6101ce565b606091505b509150915081610213576040517f08c379a000000000000000000000000000000000000000000000000000000000815260040161020a906102f8565b60405180910390fd5b505050565b600081359050610227816103c0565b92915050565b60006020828403121561024357610242610366565b5b600061025184828501610218565b91505092915050565b6000610267600b83610323565b91506102728261036b565b602082019050919050565b600061028a600b83610323565b915061029582610394565b602082019050919050565b60006102ad600083610318565b91506102b8826103bd565b600082019050919050565b60006102ce826102a0565b9150819050919050565b600060208201905081810360008301526102f18161025a565b9050919050565b600060208201905081810360008301526103118161027d565b9050919050565b600081905092915050565b600082825260208201905092915050565b600061033f82610346565b9050919050565b600073ffffffffffffffffffffffffffffffffffffffff82169050919050565b600080fd5b7f73656e64206661696c6564000000000000000000000000000000000000000000600082015250565b7f63616c6c206661696c6564000000000000000000000000000000000000000000600082015250565b50565b6103c981610334565b81146103d457600080fd5b5056fea2646970667358221220ee98f9c79ff6ede935c3a44e3e100bb51234710a1218fef59245cddfddc9669e64736f6c63430008070033",
					"opcodes": "PUSH1 0x80 PUSH1 0x40 MSTORE PUSH2 0x40D DUP1 PUSH2 0x13 PUSH1 0x0 CODECOPY PUSH1 0x0 RETURN INVALID PUSH1 0x80 PUSH1 0x40 MSTORE PUSH1 0x4 CALLDATASIZE LT PUSH2 0x38 JUMPI PUSH1 0x0 CALLDATALOAD PUSH1 0xE0 SHR DUP1 PUSH4 0x48C981E2 EQ PUSH2 0x44 JUMPI DUP1 PUSH4 0x6B55E991 EQ PUSH2 0x60 JUMPI DUP1 PUSH4 0x6D6E2411 EQ PUSH2 0x7C JUMPI PUSH2 0x3F JUMP JUMPDEST CALLDATASIZE PUSH2 0x3F JUMPI STOP JUMPDEST PUSH1 0x0 DUP1 REVERT JUMPDEST PUSH2 0x5E PUSH1 0x4 DUP1 CALLDATASIZE SUB DUP2 ADD SWAP1 PUSH2 0x59 SWAP2 SWAP1 PUSH2 0x22D JUMP JUMPDEST PUSH2 0x98 JUMP JUMPDEST STOP JUMPDEST PUSH2 0x7A PUSH1 0x4 DUP1 CALLDATASIZE SUB DUP2 ADD SWAP1 PUSH2 0x75 SWAP2 SWAP1 PUSH2 0x22D JUMP JUMPDEST PUSH2 0x117 JUMP JUMPDEST STOP JUMPDEST PUSH2 0x96 PUSH1 0x4 DUP1 CALLDATASIZE SUB DUP2 ADD SWAP1 PUSH2 0x91 SWAP2 SWAP1 PUSH2 0x22D JUMP JUMPDEST PUSH2 0x163 JUMP JUMPDEST STOP JUMPDEST PUSH1 0x0 DUP2 PUSH20 0xFFFFFFFFFFFFFFFFFFFFFFFFFFFFFFFFFFFFFFFF AND PUSH2 0x8FC PUSH2 0x7D0 SWAP1 DUP2 ISZERO MUL SWAP1 PUSH1 0x40 MLOAD PUSH1 0x0 PUSH1 0x40 MLOAD DUP1 DUP4 SUB DUP2 DUP6 DUP9 DUP9 CALL SWAP4 POP POP POP POP SWAP1 POP DUP1 PUSH2 0x113 JUMPI PUSH1 0x40 MLOAD PUSH32 0x8C379A000000000000000000000000000000000000000000000000000000000 DUP2 MSTORE PUSH1 0x4 ADD PUSH2 0x10A SWAP1 PUSH2 0x2D8 JUMP JUMPDEST PUSH1 0x40 MLOAD DUP1 SWAP2 SUB SWAP1 REVERT JUMPDEST POP POP JUMP JUMPDEST DUP1 PUSH20 0xFFFFFFFFFFFFFFFFFFFFFFFFFFFFFFFFFFFFFFFF AND PUSH2 0x8FC PUSH2 0x7D0 SWAP1 DUP2 ISZERO MUL SWAP1 PUSH1 0x40 MLOAD PUSH1 0x0 PUSH1 0x40 MLOAD DUP1 DUP4 SUB DUP2 DUP6 DUP9 DUP9 CALL SWAP4 POP POP POP POP ISZERO DUP1 ISZERO PUSH2 0x15F JUMPI RETURNDATASIZE PUSH1 0x0 DUP1 RETURNDATACOPY RETURNDATASIZE PUSH1 0x0 REVERT JUMPDEST POP POP JUMP JUMPDEST PUSH1 0x0 DUP1 DUP3 PUSH20 0xFFFFFFFFFFFFFFFFFFFFFFFFFFFFFFFFFFFFFFFF AND PUSH2 0x7D0 PUSH1 0x40 MLOAD PUSH2 0x18C SWAP1 PUSH2 0x2C3 JUMP JUMPDEST PUSH1 0x0 PUSH1 0x40 MLOAD DUP1 DUP4 SUB DUP2 DUP6 DUP8 GAS CALL SWAP3 POP POP POP RETURNDATASIZE DUP1 PUSH1 0x0 DUP2 EQ PUSH2 0x1C9 JUMPI PUSH1 0x40 MLOAD SWAP2 POP PUSH1 0x1F NOT PUSH1 0x3F RETURNDATASIZE ADD AND DUP3 ADD PUSH1 0x40 MSTORE RETURNDATASIZE DUP3 MSTORE RETURNDATASIZE PUSH1 0x0 PUSH1 0x20 DUP5 ADD RETURNDATACOPY PUSH2 0x1CE JUMP JUMPDEST PUSH1 0x60 SWAP2 POP JUMPDEST POP SWAP2 POP SWAP2 POP DUP2 PUSH2 0x213 JUMPI PUSH1 0x40 MLOAD PUSH32 0x8C379A000000000000000000000000000000000000000000000000000000000 DUP2 MSTORE PUSH1 0x4 ADD PUSH2 0x20A SWAP1 PUSH2 0x2F8 JUMP JUMPDEST PUSH1 0x40 MLOAD DUP1 SWAP2 SUB SWAP1 REVERT JUMPDEST POP POP POP JUMP JUMPDEST PUSH1 0x0 DUP2 CALLDATALOAD SWAP1 POP PUSH2 0x227 DUP2 PUSH2 0x3C0 JUMP JUMPDEST SWAP3 SWAP2 POP POP JUMP JUMPDEST PUSH1 0x0 PUSH1 0x20 DUP3 DUP5 SUB SLT ISZERO PUSH2 0x243 JUMPI PUSH2 0x242 PUSH2 0x366 JUMP JUMPDEST JUMPDEST PUSH1 0x0 PUSH2 0x251 DUP5 DUP3 DUP6 ADD PUSH2 0x218 JUMP JUMPDEST SWAP2 POP POP SWAP3 SWAP2 POP POP JUMP JUMPDEST PUSH1 0x0 PUSH2 0x267 PUSH1 0xB DUP4 PUSH2 0x323 JUMP JUMPDEST SWAP2 POP PUSH2 0x272 DUP3 PUSH2 0x36B JUMP JUMPDEST PUSH1 0x20 DUP3 ADD SWAP1 POP SWAP2 SWAP1 POP JUMP JUMPDEST PUSH1 0x0 PUSH2 0x28A PUSH1 0xB DUP4 PUSH2 0x323 JUMP JUMPDEST SWAP2 POP PUSH2 0x295 DUP3 PUSH2 0x394 JUMP JUMPDEST PUSH1 0x20 DUP3 ADD SWAP1 POP SWAP2 SWAP1 POP JUMP JUMPDEST PUSH1 0x0 PUSH2 0x2AD PUSH1 0x0 DUP4 PUSH2 0x318 JUMP JUMPDEST SWAP2 POP PUSH2 0x2B8 DUP3 PUSH2 0x3BD JUMP JUMPDEST PUSH1 0x0 DUP3 ADD SWAP1 POP SWAP2 SWAP1 POP JUMP JUMPDEST PUSH1 0x0 PUSH2 0x2CE DUP3 PUSH2 0x2A0 JUMP JUMPDEST SWAP2 POP DUP2 SWAP1 POP SWAP2 SWAP1 POP JUMP JUMPDEST PUSH1 0x0 PUSH1 0x20 DUP3 ADD SWAP1 POP DUP2 DUP2 SUB PUSH1 0x0 DUP4 ADD MSTORE PUSH2 0x2F1 DUP2 PUSH2 0x25A JUMP JUMPDEST SWAP1 POP SWAP2 SWAP1 POP JUMP JUMPDEST PUSH1 0x0 PUSH1 0x20 DUP3 ADD SWAP1 POP DUP2 DUP2 SUB PUSH1 0x0 DUP4 ADD MSTORE PUSH2 0x311 DUP2 PUSH2 0x27D JUMP JUMPDEST SWAP1 POP SWAP2 SWAP1 POP JUMP JUMPDEST PUSH1 0x0 DUP2 SWAP1 POP SWAP3 SWAP2 POP POP JUMP JUMPDEST PUSH1 0x0 DUP3 DUP3 MSTORE PUSH1 0x20 DUP3 ADD SWAP1 POP SWAP3 SWAP2 POP POP JUMP JUMPDEST PUSH1 0x0 PUSH2 0x33F DUP3 PUSH2 0x346 JUMP JUMPDEST SWAP1 POP SWAP2 SWAP1 POP JUMP JUMPDEST PUSH1 0x0 PUSH20 0xFFFFFFFFFFFFFFFFFFFFFFFFFFFFFFFFFFFFFFFF DUP3 AND SWAP1 POP SWAP2 SWAP1 POP JUMP JUMPDEST PUSH1 0x0 DUP1 REVERT JUMPDEST PUSH32 0x73656E64206661696C6564000000000000000000000000000000000000000000 PUSH1 0x0 DUP3 ADD MSTORE POP JUMP JUMPDEST PUSH32 0x63616C6C206661696C6564000000000000000000000000000000000000000000 PUSH1 0x0 DUP3 ADD MSTORE POP JUMP JUMPDEST POP JUMP JUMPDEST PUSH2 0x3C9 DUP2 PUSH2 0x334 JUMP JUMPDEST DUP2 EQ PUSH2 0x3D4 JUMPI PUSH1 0x0 DUP1 REVERT JUMPDEST POP JUMP INVALID LOG2 PUSH5 0x6970667358 0x22 SLT KECCAK256 0xEE SWAP9 0xF9 0xC7 SWAP16 0xF6 0xED 0xE9 CALLDATALOAD 0xC3 LOG4 0x4E RETURNDATACOPY LT SIGNEXTEND 0xB5 SLT CALLVALUE PUSH18 0xA1218FEF59245CDDFDDC9669E64736F6C63 NUMBER STOP ADDMOD SMOD STOP CALLER "
				},
				"gasEstimates": {
					"creation": {
						"codeDepositCost": "207400",
						"executionCost": "227",
						"totalCost": "207627"
					},
					"external": {
						"callEther(address)": "infinite",
						"sendEther(address)": "infinite",
						"transferEther(address)": "infinite"
					}
				},
				"methodIdentifiers": {
					"callEther(address)": "6d6e2411",
					"sendEther(address)": "48c981e2",
					"transferEther(address)": "6b55e991"
				}
			},
			"storageLayout": {
				"storage": [],
				"types": null
			},
			"userdoc": {
				"kind": "user",
				"methods": {},
				"version": 1
			}
		}
	}
}