{
	"ArrayTest.sol": {
		"Array1": {
			"abi": [
				{
					"inputs": [],
					"name": "testArray",
					"outputs": [],
					"stateMutability": "nonpayable",
					"type": "function"
				}
			],
			"devdoc": {
				"kind": "dev",
				"methods": {},
				"version": 1
			},
			"evm": {
				"assembly": "    /* \"ArrayTest.sol\":75:743  contract Array1{... */\n  mstore(0x40, 0x80)\n  callvalue\n  dup1\n  iszero\n  tag_1\n  jumpi\n  0x00\n  dup1\n  revert\ntag_1:\n  pop\n  dataSize(sub_0)\n  dup1\n  dataOffset(sub_0)\n  0x00\n  codecopy\n  0x00\n  return\nstop\n\nsub_0: assembly {\n        /* \"ArrayTest.sol\":75:743  contract Array1{... */\n      mstore(0x40, 0x80)\n      callvalue\n      dup1\n      iszero\n      tag_1\n      jumpi\n      0x00\n      dup1\n      revert\n    tag_1:\n      pop\n      jumpi(tag_2, lt(calldatasize, 0x04))\n      shr(0xe0, calldataload(0x00))\n      dup1\n      0x2283bffd\n      eq\n      tag_3\n      jumpi\n    tag_2:\n      0x00\n      dup1\n      revert\n        /* \"ArrayTest.sol\":315:741  function testArray() public {... */\n    tag_3:\n      tag_4\n      tag_5\n      jump\t// in\n    tag_4:\n      stop\n    tag_5:\n        /* \"ArrayTest.sol\":612:616  arr4 */\n      0x0c\n        /* \"ArrayTest.sol\":612:623  arr4.push() */\n      0x01\n      dup2\n      0x01\n      dup2\n      sload\n      add\n      dup1\n      dup3\n      sstore\n      dup1\n      swap2\n      pop\n      pop\n      sub\n      swap1\n      0x00\n      mstore\n      pop(keccak256(0x00, 0x20))\n      pop\n        /* \"ArrayTest.sol\":633:637  arr4 */\n      0x0c\n        /* \"ArrayTest.sol\":643:644  1 */\n      0x01\n        /* \"ArrayTest.sol\":633:645  arr4.push(1) */\n      swap1\n      dup1\n      0x01\n      dup2\n      sload\n      add\n      dup1\n      dup3\n      sstore\n      dup1\n      swap2\n      pop\n      pop\n      0x01\n      swap1\n      sub\n      swap1\n      0x00\n      mstore\n      keccak256(0x00, 0x20)\n      add\n      0x00\n      swap1\n      swap2\n      swap1\n      swap2\n      swap1\n      swap2\n      pop\n      sstore\n        /* \"ArrayTest.sol\":655:659  arr4 */\n      0x0c\n        /* \"ArrayTest.sol\":665:666  2 */\n      0x02\n        /* \"ArrayTest.sol\":655:667  arr4.push(2) */\n      swap1\n      dup1\n      0x01\n      dup2\n      sload\n      add\n      dup1\n      dup3\n      sstore\n      dup1\n      swap2\n      pop\n      pop\n      0x01\n      swap1\n      sub\n      swap1\n      0x00\n      mstore\n      keccak256(0x00, 0x20)\n      add\n      0x00\n      swap1\n      swap2\n      swap1\n      swap2\n      swap1\n      swap2\n      pop\n      sstore\n        /* \"ArrayTest.sol\":677:681  arr4 */\n      0x0c\n        /* \"ArrayTest.sol\":687:688  3 */\n      0x03\n        /* \"ArrayTest.sol\":677:689  arr4.push(3) */\n      swap1\n      dup1\n      0x01\n      dup2\n      sload\n      add\n      dup1\n      dup3\n      sstore\n      dup1\n      swap2\n      pop\n      pop\n      0x01\n      swap1\n      sub\n      swap1\n      0x00\n      mstore\n      keccak256(0x00, 0x20)\n      add\n      0x00\n      swap1\n      swap2\n      swap1\n      swap2\n      swap1\n      swap2\n      pop\n      sstore\n        /* \"ArrayTest.sol\":699:703  arr4 */\n      0x0c\n        /* \"ArrayTest.sol\":709:710  4 */\n      0x04\n        /* \"ArrayTest.sol\":699:711  arr4.push(4) */\n      swap1\n      dup1\n      0x01\n      dup2\n      sload\n      add\n      dup1\n      dup3\n      sstore\n      dup1\n      swap2\n      pop\n      pop\n      0x01\n      swap1\n      sub\n      swap1\n      0x00\n      mstore\n      keccak256(0x00, 0x20)\n      add\n      0x00\n      swap1\n      swap2\n      swap1\n      swap2\n      swap1\n      swap2\n      pop\n      sstore\n        /* \"ArrayTest.sol\":721:725  arr4 */\n      0x0c\n        /* \"ArrayTest.sol\":731:732  5 */\n      0x05\n        /* \"ArrayTest.sol\":721:733  arr4.push(5) */\n      swap1\n      dup1\n      0x01\n      dup2\n      sload\n      add\n      dup1\n      dup3\n      sstore\n      dup1\n      swap2\n      pop\n      pop\n      0x01\n      swap1\n      sub\n      swap1\n      0x00\n      mstore\n      keccak256(0x00, 0x20)\n      add\n      0x00\n      swap1\n      swap2\n      swap1\n      swap2\n      swap1\n      swap2\n      pop\n      sstore\n        /* \"ArrayTest.sol\":315:741  function testArray() public {... */\n      jump\t// out\n\n    auxdata: 0xa264697066735822122024a3a2eedfa6a2ab243d9d2f85f31910f52b2b18365317173412d2b1ed10c79164736f6c63430008110033\n}\n",
				"bytecode": {
					"linkReferences": {},
					"object": "6080604052348015600f57600080fd5b506101618061001f6000396000f3fe608060405234801561001057600080fd5b506004361061002b5760003560e01c80632283bffd14610030575b600080fd5b61003861003a565b005b600c600181600181540180825580915050039060005260206000205050600c60019080600181540180825580915050600190039060005260206000200160009091909190915055600c60029080600181540180825580915050600190039060005260206000200160009091909190915055600c60039080600181540180825580915050600190039060005260206000200160009091909190915055600c60049080600181540180825580915050600190039060005260206000200160009091909190915055600c6005908060018154018082558091505060019003906000526020600020016000909190919091505556fea264697066735822122024a3a2eedfa6a2ab243d9d2f85f31910f52b2b18365317173412d2b1ed10c79164736f6c63430008110033",
					"opcodes": "PUSH1 0x80 PUSH1 0x40 MSTORE CALLVALUE DUP1 ISZERO PUSH1 0xF JUMPI PUSH1 0x0 DUP1 REVERT JUMPDEST POP PUSH2 0x161 DUP1 PUSH2 0x1F PUSH1 0x0 CODECOPY PUSH1 0x0 RETURN INVALID PUSH1 0x80 PUSH1 0x40 MSTORE CALLVALUE DUP1 ISZERO PUSH2 0x10 JUMPI PUSH1 0x0 DUP1 REVERT JUMPDEST POP PUSH1 0x4 CALLDATASIZE LT PUSH2 0x2B JUMPI PUSH1 0x0 CALLDATALOAD PUSH1 0xE0 SHR DUP1 PUSH4 0x2283BFFD EQ PUSH2 0x30 JUMPI JUMPDEST PUSH1 0x0 DUP1 REVERT JUMPDEST PUSH2 0x38 PUSH2 0x3A JUMP JUMPDEST STOP JUMPDEST PUSH1 0xC PUSH1 0x1 DUP2 PUSH1 0x1 DUP2 SLOAD ADD DUP1 DUP3 SSTORE DUP1 SWAP2 POP POP SUB SWAP1 PUSH1 0x0 MSTORE PUSH1 0x20 PUSH1 0x0 KECCAK256 POP POP PUSH1 0xC PUSH1 0x1 SWAP1 DUP1 PUSH1 0x1 DUP2 SLOAD ADD DUP1 DUP3 SSTORE DUP1 SWAP2 POP POP PUSH1 0x1 SWAP1 SUB SWAP1 PUSH1 0x0 MSTORE PUSH1 0x20 PUSH1 0x0 KECCAK256 ADD PUSH1 0x0 SWAP1 SWAP2 SWAP1 SWAP2 SWAP1 SWAP2 POP SSTORE PUSH1 0xC PUSH1 0x2 SWAP1 DUP1 PUSH1 0x1 DUP2 SLOAD ADD DUP1 DUP3 SSTORE DUP1 SWAP2 POP POP PUSH1 0x1 SWAP1 SUB SWAP1 PUSH1 0x0 MSTORE PUSH1 0x20 PUSH1 0x0 KECCAK256 ADD PUSH1 0x0 SWAP1 SWAP2 SWAP1 SWAP2 SWAP1 SWAP2 POP SSTORE PUSH1 0xC PUSH1 0x3 SWAP1 DUP1 PUSH1 0x1 DUP2 SLOAD ADD DUP1 DUP3 SSTORE DUP1 SWAP2 POP POP PUSH1 0x1 SWAP1 SUB SWAP1 PUSH1 0x0 MSTORE PUSH1 0x20 PUSH1 0x0 KECCAK256 ADD PUSH1 0x0 SWAP1 SWAP2 SWAP1 SWAP2 SWAP1 SWAP2 POP SSTORE PUSH1 0xC PUSH1 0x4 SWAP1 DUP1 PUSH1 0x1 DUP2 SLOAD ADD DUP1 DUP3 SSTORE DUP1 SWAP2 POP POP PUSH1 0x1 SWAP1 SUB SWAP1 PUSH1 0x0 MSTORE PUSH1 0x20 PUSH1 0x0 KECCAK256 ADD PUSH1 0x0 SWAP1 SWAP2 SWAP1 SWAP2 SWAP1 SWAP2 POP SSTORE PUSH1 0xC PUSH1 0x5 SWAP1 DUP1 PUSH1 0x1 DUP2 SLOAD ADD DUP1 DUP3 SSTORE DUP1 SWAP2 POP POP PUSH1 0x1 SWAP1 SUB SWAP1 PUSH1 0x0 MSTORE PUSH1 0x20 PUSH1 0x0 KECCAK256 ADD PUSH1 0x0 SWAP1 SWAP2 SWAP1 SWAP2 SWAP1 SWAP2 POP SSTORE JUMP INVALID LOG2 PUSH5 0x6970667358 0x22 SLT KECCAK256 0x24 LOG3 LOG2 0xEE 0xDF 0xA6 LOG2 0xAB 0x24 RETURNDATASIZE SWAP14 0x2F DUP6 RETURN NOT LT CREATE2 0x2B 0x2B XOR CALLDATASIZE MSTORE8 OR OR CALLVALUE SLT 0xD2 0xB1 0xED LT 0xC7 SWAP2 PUSH5 0x736F6C6343 STOP ADDMOD GT STOP CALLER "
				},
				"gasEstimates": {
					"creation": {
						"codeDepositCost": "70600",
						"executionCost": "123",
						"totalCost": "70723"
					},
					"external": {
						"testArray()": "256529"
					}
				},
				"methodIdentifiers": {
					"testArray()": "2283bffd"
				}
			},
			"storageLayout": {
				"storage": [
					{
						"astId": 5,
						"contract": "ArrayTest.sol:Array1",
						"label": "arr1",
						"offset": 0,
						"slot": "0",
						"type": "t_array(t_uint256)8_storage"
					},
					{
						"astId": 9,
						"contract": "ArrayTest.sol:Array1",
						"label": "arr2",
						"offset": 0,
						"slot": "8",
						"type": "t_array(t_bytes1)6_storage"
					},
					{
						"astId": 13,
						"contract": "ArrayTest.sol:Array1",
						"label": "arr3",
						"offset": 0,
						"slot": "9",
						"type": "t_array(t_address)3_storage"
					},
					{
						"astId": 16,
						"contract": "ArrayTest.sol:Array1",
						"label": "arr4",
						"offset": 0,
						"slot": "12",
						"type": "t_array(t_uint256)dyn_storage"
					},
					{
						"astId": 19,
						"contract": "ArrayTest.sol:Array1",
						"label": "arr5",
						"offset": 0,
						"slot": "13",
						"type": "t_array(t_bytes1)dyn_storage"
					},
					{
						"astId": 22,
						"contract": "ArrayTest.sol:Array1",
						"label": "arr6",
						"offset": 0,
						"slot": "14",
						"type": "t_array(t_address)dyn_storage"
					},
					{
						"astId": 24,
						"contract": "ArrayTest.sol:Array1",
						"label": "arr7",
						"offset": 0,
						"slot": "15",
						"type": "t_bytes_storage"
					}
				],
				"types": {
					"t_address": {
						"encoding": "inplace",
						"label": "address",
						"numberOfBytes": "20"
					},
					"t_array(t_address)3_storage": {
						"base": "t_address",
						"encoding": "inplace",
						"label": "address[3]",
						"numberOfBytes": "96"
					},
					"t_array(t_address)dyn_storage": {
						"base": "t_address",
						"encoding": "dynamic_array",
						"label": "address[]",
						"numberOfBytes": "32"
					},
					"t_array(t_bytes1)6_storage": {
						"base": "t_bytes1",
						"encoding": "inplace",
						"label": "bytes1[6]",
						"numberOfBytes": "32"
					},
					"t_array(t_bytes1)dyn_storage": {
						"base": "t_bytes1",
						"encoding": "dynamic_array",
						"label": "bytes1[]",
						"numberOfBytes": "32"
					},
					"t_array(t_uint256)8_storage": {
						"base": "t_uint256",
						"encoding": "inplace",
						"label": "uint256[8]",
						"numberOfBytes": "256"
					},
					"t_array(t_uint256)dyn_storage": {
						"base": "t_uint256",
						"encoding": "dynamic_array",
						"label": "uint256[]",
						"numberOfBytes": "32"
					},
					"t_bytes1": {
						"encoding": "inplace",
						"label": "bytes1",
						"numberOfBytes": "1"
					},
					"t_bytes_storage": {
						"encoding": "bytes",
						"label": "bytes",
						"numberOfBytes": "32"
					},
					"t_uint256": {
						"encoding": "inplace",
						"label": "uint256",
						"numberOfBytes": "32"
					}
				}
			},
			"userdoc": {
				"kind": "user",
				"methods": {},
				"version": 1
			}
		}
	}
}