{
	"EnumTest.sol": {
		"EnumTest": {
			"abi": [
				{
					"inputs": [],
					"name": "get",
					"outputs": [
						{
							"internalType": "enum EnumTest.Status",
							"name": "",
							"type": "uint8"
						}
					],
					"stateMutability": "view",
					"type": "function"
				},
				{
					"inputs": [
						{
							"internalType": "enum EnumTest.Status",
							"name": "_sta",
							"type": "uint8"
						}
					],
					"name": "set",
					"outputs": [],
					"stateMutability": "nonpayable",
					"type": "function"
				},
				{
					"inputs": [],
					"name": "sta",
					"outputs": [
						{
							"internalType": "enum EnumTest.Status",
							"name": "",
							"type": "uint8"
						}
					],
					"stateMutability": "view",
					"type": "function"
				}
			],
			"devdoc": {
				"kind": "dev",
				"methods": {},
				"version": 1
			},
			"evm": {
				"assembly": "    /* \"EnumTest.sol\":75:384  contract EnumTest {... */\n  mstore(0x40, 0x80)\n  callvalue\n  dup1\n  iszero\n  tag_1\n  jumpi\n  0x00\n  dup1\n  revert\ntag_1:\n  pop\n  dataSize(sub_0)\n  dup1\n  dataOffset(sub_0)\n  0x00\n  codecopy\n  0x00\n  return\nstop\n\nsub_0: assembly {\n        /* \"EnumTest.sol\":75:384  contract EnumTest {... */\n      mstore(0x40, 0x80)\n      callvalue\n      dup1\n      iszero\n      tag_1\n      jumpi\n      0x00\n      dup1\n      revert\n    tag_1:\n      pop\n      jumpi(tag_2, lt(calldatasize, 0x04))\n      shr(0xe0, calldataload(0x00))\n      dup1\n      0x24b8ba5f\n      eq\n      tag_3\n      jumpi\n      dup1\n      0x4d17f7fc\n      eq\n      tag_4\n      jumpi\n      dup1\n      0x6d4ce63c\n      eq\n      tag_5\n      jumpi\n    tag_2:\n      0x00\n      dup1\n      revert\n        /* \"EnumTest.sol\":321:381  function set(Status _sta) external{... */\n    tag_3:\n      tag_6\n      0x04\n      dup1\n      calldatasize\n      sub\n      dup2\n      add\n      swap1\n      tag_7\n      swap2\n      swap1\n      tag_8\n      jump\t// in\n    tag_7:\n      tag_9\n      jump\t// in\n    tag_6:\n      stop\n        /* \"EnumTest.sol\":222:239  Status public sta */\n    tag_4:\n      tag_10\n      tag_11\n      jump\t// in\n    tag_10:\n      mload(0x40)\n      tag_12\n      swap2\n      swap1\n      tag_13\n      jump\t// in\n    tag_12:\n      mload(0x40)\n      dup1\n      swap2\n      sub\n      swap1\n      return\n        /* \"EnumTest.sol\":245:316  function get() view external returns (Status){... */\n    tag_5:\n      tag_14\n      tag_15\n      jump\t// in\n    tag_14:\n      mload(0x40)\n      tag_16\n      swap2\n      swap1\n      tag_13\n      jump\t// in\n    tag_16:\n      mload(0x40)\n      dup1\n      swap2\n      sub\n      swap1\n      return\n        /* \"EnumTest.sol\":321:381  function set(Status _sta) external{... */\n    tag_9:\n        /* \"EnumTest.sol\":371:375  _sta */\n      dup1\n        /* \"EnumTest.sol\":365:368  sta */\n      0x00\n      dup1\n        /* \"EnumTest.sol\":365:375  sta = _sta */\n      0x0100\n      exp\n      dup2\n      sload\n      dup2\n      0xff\n      mul\n      not\n      and\n      swap1\n      dup4\n      0x05\n      dup2\n      gt\n      iszero\n      tag_18\n      jumpi\n      tag_19\n      tag_20\n      jump\t// in\n    tag_19:\n    tag_18:\n      mul\n      or\n      swap1\n      sstore\n      pop\n        /* \"EnumTest.sol\":321:381  function set(Status _sta) external{... */\n      pop\n      jump\t// out\n        /* \"EnumTest.sol\":222:239  Status public sta */\n    tag_11:\n      0x00\n      dup1\n      sload\n      swap1\n      0x0100\n      exp\n      swap1\n      div\n      0xff\n      and\n      dup2\n      jump\t// out\n        /* \"EnumTest.sol\":245:316  function get() view external returns (Status){... */\n    tag_15:\n        /* \"EnumTest.sol\":283:289  Status */\n      0x00\n        /* \"EnumTest.sol\":307:310  sta */\n      dup1\n      0x00\n      swap1\n      sload\n      swap1\n      0x0100\n      exp\n      swap1\n      div\n      0xff\n      and\n        /* \"EnumTest.sol\":300:310  return sta */\n      swap1\n      pop\n        /* \"EnumTest.sol\":245:316  function get() view external returns (Status){... */\n      swap1\n      jump\t// out\n        /* \"#utility.yul\":88:205   */\n    tag_23:\n        /* \"#utility.yul\":197:198   */\n      0x00\n        /* \"#utility.yul\":194:195   */\n      dup1\n        /* \"#utility.yul\":187:199   */\n      revert\n        /* \"#utility.yul\":334:441   */\n    tag_25:\n        /* \"#utility.yul\":415:416   */\n      0x06\n        /* \"#utility.yul\":408:413   */\n      dup2\n        /* \"#utility.yul\":405:417   */\n      lt\n        /* \"#utility.yul\":395:435   */\n      tag_36\n      jumpi\n        /* \"#utility.yul\":431:432   */\n      0x00\n        /* \"#utility.yul\":428:429   */\n      dup1\n        /* \"#utility.yul\":421:433   */\n      revert\n        /* \"#utility.yul\":395:435   */\n    tag_36:\n        /* \"#utility.yul\":334:441   */\n      pop\n      jump\t// out\n        /* \"#utility.yul\":447:602   */\n    tag_26:\n        /* \"#utility.yul\":501:506   */\n      0x00\n        /* \"#utility.yul\":539:545   */\n      dup2\n        /* \"#utility.yul\":526:546   */\n      calldataload\n        /* \"#utility.yul\":517:546   */\n      swap1\n      pop\n        /* \"#utility.yul\":555:596   */\n      tag_38\n        /* \"#utility.yul\":590:595   */\n      dup2\n        /* \"#utility.yul\":555:596   */\n      tag_25\n      jump\t// in\n    tag_38:\n        /* \"#utility.yul\":447:602   */\n      swap3\n      swap2\n      pop\n      pop\n      jump\t// out\n        /* \"#utility.yul\":608:953   */\n    tag_8:\n        /* \"#utility.yul\":675:681   */\n      0x00\n        /* \"#utility.yul\":724:726   */\n      0x20\n        /* \"#utility.yul\":712:721   */\n      dup3\n        /* \"#utility.yul\":703:710   */\n      dup5\n        /* \"#utility.yul\":699:722   */\n      sub\n        /* \"#utility.yul\":695:727   */\n      slt\n        /* \"#utility.yul\":692:811   */\n      iszero\n      tag_40\n      jumpi\n        /* \"#utility.yul\":730:809   */\n      tag_41\n      tag_23\n      jump\t// in\n    tag_41:\n        /* \"#utility.yul\":692:811   */\n    tag_40:\n        /* \"#utility.yul\":850:851   */\n      0x00\n        /* \"#utility.yul\":875:936   */\n      tag_42\n        /* \"#utility.yul\":928:935   */\n      dup5\n        /* \"#utility.yul\":919:925   */\n      dup3\n        /* \"#utility.yul\":908:917   */\n      dup6\n        /* \"#utility.yul\":904:926   */\n      add\n        /* \"#utility.yul\":875:936   */\n      tag_26\n      jump\t// in\n    tag_42:\n        /* \"#utility.yul\":865:936   */\n      swap2\n      pop\n        /* \"#utility.yul\":821:946   */\n      pop\n        /* \"#utility.yul\":608:953   */\n      swap3\n      swap2\n      pop\n      pop\n      jump\t// out\n        /* \"#utility.yul\":959:1139   */\n    tag_20:\n        /* \"#utility.yul\":1007:1084   */\n      0x4e487b7100000000000000000000000000000000000000000000000000000000\n        /* \"#utility.yul\":1004:1005   */\n      0x00\n        /* \"#utility.yul\":997:1085   */\n      mstore\n        /* \"#utility.yul\":1104:1108   */\n      0x21\n        /* \"#utility.yul\":1101:1102   */\n      0x04\n        /* \"#utility.yul\":1094:1109   */\n      mstore\n        /* \"#utility.yul\":1128:1132   */\n      0x24\n        /* \"#utility.yul\":1125:1126   */\n      0x00\n        /* \"#utility.yul\":1118:1133   */\n      revert\n        /* \"#utility.yul\":1145:1258   */\n    tag_27:\n        /* \"#utility.yul\":1226:1227   */\n      0x06\n        /* \"#utility.yul\":1219:1224   */\n      dup2\n        /* \"#utility.yul\":1216:1228   */\n      lt\n        /* \"#utility.yul\":1206:1252   */\n      tag_45\n      jumpi\n        /* \"#utility.yul\":1232:1250   */\n      tag_46\n      tag_20\n      jump\t// in\n    tag_46:\n        /* \"#utility.yul\":1206:1252   */\n    tag_45:\n        /* \"#utility.yul\":1145:1258   */\n      pop\n      jump\t// out\n        /* \"#utility.yul\":1264:1391   */\n    tag_28:\n        /* \"#utility.yul\":1309:1316   */\n      0x00\n        /* \"#utility.yul\":1338:1343   */\n      dup2\n        /* \"#utility.yul\":1327:1343   */\n      swap1\n      pop\n        /* \"#utility.yul\":1344:1385   */\n      tag_48\n        /* \"#utility.yul\":1379:1384   */\n      dup3\n        /* \"#utility.yul\":1344:1385   */\n      tag_27\n      jump\t// in\n    tag_48:\n        /* \"#utility.yul\":1264:1391   */\n      swap2\n      swap1\n      pop\n      jump\t// out\n        /* \"#utility.yul\":1397:1524   */\n    tag_29:\n        /* \"#utility.yul\":1453:1462   */\n      0x00\n        /* \"#utility.yul\":1486:1518   */\n      tag_50\n        /* \"#utility.yul\":1512:1517   */\n      dup3\n        /* \"#utility.yul\":1486:1518   */\n      tag_28\n      jump\t// in\n    tag_50:\n        /* \"#utility.yul\":1473:1518   */\n      swap1\n      pop\n        /* \"#utility.yul\":1397:1524   */\n      swap2\n      swap1\n      pop\n      jump\t// out\n        /* \"#utility.yul\":1530:1673   */\n    tag_30:\n        /* \"#utility.yul\":1623:1666   */\n      tag_52\n        /* \"#utility.yul\":1660:1665   */\n      dup2\n        /* \"#utility.yul\":1623:1666   */\n      tag_29\n      jump\t// in\n    tag_52:\n        /* \"#utility.yul\":1618:1621   */\n      dup3\n        /* \"#utility.yul\":1611:1667   */\n      mstore\n        /* \"#utility.yul\":1530:1673   */\n      pop\n      pop\n      jump\t// out\n        /* \"#utility.yul\":1679:1913   */\n    tag_13:\n        /* \"#utility.yul\":1778:1782   */\n      0x00\n        /* \"#utility.yul\":1816:1818   */\n      0x20\n        /* \"#utility.yul\":1805:1814   */\n      dup3\n        /* \"#utility.yul\":1801:1819   */\n      add\n        /* \"#utility.yul\":1793:1819   */\n      swap1\n      pop\n        /* \"#utility.yul\":1829:1906   */\n      tag_54\n        /* \"#utility.yul\":1903:1904   */\n      0x00\n        /* \"#utility.yul\":1892:1901   */\n      dup4\n        /* \"#utility.yul\":1888:1905   */\n      add\n        /* \"#utility.yul\":1879:1885   */\n      dup5\n        /* \"#utility.yul\":1829:1906   */\n      tag_30\n      jump\t// in\n    tag_54:\n        /* \"#utility.yul\":1679:1913   */\n      swap3\n      swap2\n      pop\n      pop\n      jump\t// out\n\n    auxdata: 0xa26469706673582212207112570999572c835ca00f197a90124d12e76431bb6a1ae4b1b44a096bf9fb2a64736f6c63430008110033\n}\n",
				"bytecode": {
					"linkReferences": {},
					"object": "608060405234801561001057600080fd5b50610210806100206000396000f3fe608060405234801561001057600080fd5b50600436106100415760003560e01c806324b8ba5f146100465780634d17f7fc146100625780636d4ce63c14610080575b600080fd5b610060600480360381019061005b919061011b565b61009e565b005b61006a6100ca565b60405161007791906101bf565b60405180910390f35b6100886100db565b60405161009591906101bf565b60405180910390f35b806000806101000a81548160ff021916908360058111156100c2576100c1610148565b5b021790555050565b60008054906101000a900460ff1681565b60008060009054906101000a900460ff16905090565b600080fd5b6006811061010357600080fd5b50565b600081359050610115816100f6565b92915050565b600060208284031215610131576101306100f1565b5b600061013f84828501610106565b91505092915050565b7f4e487b7100000000000000000000000000000000000000000000000000000000600052602160045260246000fd5b6006811061018857610187610148565b5b50565b600081905061019982610177565b919050565b60006101a98261018b565b9050919050565b6101b98161019e565b82525050565b60006020820190506101d460008301846101b0565b9291505056fea26469706673582212207112570999572c835ca00f197a90124d12e76431bb6a1ae4b1b44a096bf9fb2a64736f6c63430008110033",
					"opcodes": "PUSH1 0x80 PUSH1 0x40 MSTORE CALLVALUE DUP1 ISZERO PUSH2 0x10 JUMPI PUSH1 0x0 DUP1 REVERT JUMPDEST POP PUSH2 0x210 DUP1 PUSH2 0x20 PUSH1 0x0 CODECOPY PUSH1 0x0 RETURN INVALID PUSH1 0x80 PUSH1 0x40 MSTORE CALLVALUE DUP1 ISZERO PUSH2 0x10 JUMPI PUSH1 0x0 DUP1 REVERT JUMPDEST POP PUSH1 0x4 CALLDATASIZE LT PUSH2 0x41 JUMPI PUSH1 0x0 CALLDATALOAD PUSH1 0xE0 SHR DUP1 PUSH4 0x24B8BA5F EQ PUSH2 0x46 JUMPI DUP1 PUSH4 0x4D17F7FC EQ PUSH2 0x62 JUMPI DUP1 PUSH4 0x6D4CE63C EQ PUSH2 0x80 JUMPI JUMPDEST PUSH1 0x0 DUP1 REVERT JUMPDEST PUSH2 0x60 PUSH1 0x4 DUP1 CALLDATASIZE SUB DUP2 ADD SWAP1 PUSH2 0x5B SWAP2 SWAP1 PUSH2 0x11B JUMP JUMPDEST PUSH2 0x9E JUMP JUMPDEST STOP JUMPDEST PUSH2 0x6A PUSH2 0xCA JUMP JUMPDEST PUSH1 0x40 MLOAD PUSH2 0x77 SWAP2 SWAP1 PUSH2 0x1BF JUMP JUMPDEST PUSH1 0x40 MLOAD DUP1 SWAP2 SUB SWAP1 RETURN JUMPDEST PUSH2 0x88 PUSH2 0xDB JUMP JUMPDEST PUSH1 0x40 MLOAD PUSH2 0x95 SWAP2 SWAP1 PUSH2 0x1BF JUMP JUMPDEST PUSH1 0x40 MLOAD DUP1 SWAP2 SUB SWAP1 RETURN JUMPDEST DUP1 PUSH1 0x0 DUP1 PUSH2 0x100 EXP DUP2 SLOAD DUP2 PUSH1 0xFF MUL NOT AND SWAP1 DUP4 PUSH1 0x5 DUP2 GT ISZERO PUSH2 0xC2 JUMPI PUSH2 0xC1 PUSH2 0x148 JUMP JUMPDEST JUMPDEST MUL OR SWAP1 SSTORE POP POP JUMP JUMPDEST PUSH1 0x0 DUP1 SLOAD SWAP1 PUSH2 0x100 EXP SWAP1 DIV PUSH1 0xFF AND DUP2 JUMP JUMPDEST PUSH1 0x0 DUP1 PUSH1 0x0 SWAP1 SLOAD SWAP1 PUSH2 0x100 EXP SWAP1 DIV PUSH1 0xFF AND SWAP1 POP SWAP1 JUMP JUMPDEST PUSH1 0x0 DUP1 REVERT JUMPDEST PUSH1 0x6 DUP2 LT PUSH2 0x103 JUMPI PUSH1 0x0 DUP1 REVERT JUMPDEST POP JUMP JUMPDEST PUSH1 0x0 DUP2 CALLDATALOAD SWAP1 POP PUSH2 0x115 DUP2 PUSH2 0xF6 JUMP JUMPDEST SWAP3 SWAP2 POP POP JUMP JUMPDEST PUSH1 0x0 PUSH1 0x20 DUP3 DUP5 SUB SLT ISZERO PUSH2 0x131 JUMPI PUSH2 0x130 PUSH2 0xF1 JUMP JUMPDEST JUMPDEST PUSH1 0x0 PUSH2 0x13F DUP5 DUP3 DUP6 ADD PUSH2 0x106 JUMP JUMPDEST SWAP2 POP POP SWAP3 SWAP2 POP POP JUMP JUMPDEST PUSH32 0x4E487B7100000000000000000000000000000000000000000000000000000000 PUSH1 0x0 MSTORE PUSH1 0x21 PUSH1 0x4 MSTORE PUSH1 0x24 PUSH1 0x0 REVERT JUMPDEST PUSH1 0x6 DUP2 LT PUSH2 0x188 JUMPI PUSH2 0x187 PUSH2 0x148 JUMP JUMPDEST JUMPDEST POP JUMP JUMPDEST PUSH1 0x0 DUP2 SWAP1 POP PUSH2 0x199 DUP3 PUSH2 0x177 JUMP JUMPDEST SWAP2 SWAP1 POP JUMP JUMPDEST PUSH1 0x0 PUSH2 0x1A9 DUP3 PUSH2 0x18B JUMP JUMPDEST SWAP1 POP SWAP2 SWAP1 POP JUMP JUMPDEST PUSH2 0x1B9 DUP2 PUSH2 0x19E JUMP JUMPDEST DUP3 MSTORE POP POP JUMP JUMPDEST PUSH1 0x0 PUSH1 0x20 DUP3 ADD SWAP1 POP PUSH2 0x1D4 PUSH1 0x0 DUP4 ADD DUP5 PUSH2 0x1B0 JUMP JUMPDEST SWAP3 SWAP2 POP POP JUMP INVALID LOG2 PUSH5 0x6970667358 0x22 SLT KECCAK256 PUSH18 0x12570999572C835CA00F197A90124D12E764 BALANCE 0xBB PUSH11 0x1AE4B1B44A096BF9FB2A64 PUSH20 0x6F6C634300081100330000000000000000000000 "
				},
				"gasEstimates": {
					"creation": {
						"codeDepositCost": "105600",
						"executionCost": "153",
						"totalCost": "105753"
					},
					"external": {
						"get()": "2590",
						"set(uint8)": "24628",
						"sta()": "2557"
					}
				},
				"methodIdentifiers": {
					"get()": "6d4ce63c",
					"set(uint8)": "24b8ba5f",
					"sta()": "4d17f7fc"
				}
			},
			"storageLayout": {
				"storage": [
					{
						"astId": 11,
						"contract": "EnumTest.sol:EnumTest",
						"label": "sta",
						"offset": 0,
						"slot": "0",
						"type": "t_enum(Status)8"
					}
				],
				"types": {
					"t_enum(Status)8": {
						"encoding": "inplace",
						"label": "enum EnumTest.Status",
						"numberOfBytes": "1"
					}
				}
			},
			"userdoc": {
				"kind": "user",
				"methods": {},
				"version": 1
			}
		}
	}
}