{
	"MappingTest.sol": {
		"MappingTest": {
			"abi": [
				{
					"inputs": [
						{
							"internalType": "address",
							"name": "",
							"type": "address"
						}
					],
					"name": "balances",
					"outputs": [
						{
							"internalType": "uint256",
							"name": "",
							"type": "uint256"
						}
					],
					"stateMutability": "view",
					"type": "function"
				},
				{
					"inputs": [],
					"name": "examples",
					"outputs": [],
					"stateMutability": "nonpayable",
					"type": "function"
				},
				{
					"inputs": [
						{
							"internalType": "address",
							"name": "",
							"type": "address"
						},
						{
							"internalType": "address",
							"name": "",
							"type": "address"
						}
					],
					"name": "isFriends",
					"outputs": [
						{
							"internalType": "bool",
							"name": "",
							"type": "bool"
						}
					],
					"stateMutability": "view",
					"type": "function"
				},
				{
					"inputs": [
						{
							"internalType": "uint256",
							"name": "",
							"type": "uint256"
						}
					],
					"name": "numbers",
					"outputs": [
						{
							"internalType": "address",
							"name": "",
							"type": "address"
						}
					],
					"stateMutability": "view",
					"type": "function"
				}
			],
			"devdoc": {
				"kind": "dev",
				"methods": {},
				"version": 1
			},
			"evm": {
				"assembly": "    /* \"MappingTest.sol\":75:1366  contract MappingTest {... */\n  mstore(0x40, 0x80)\n  callvalue\n  dup1\n  iszero\n  tag_1\n  jumpi\n  0x00\n  dup1\n  revert\ntag_1:\n  pop\n  dataSize(sub_0)\n  dup1\n  dataOffset(sub_0)\n  0x00\n  codecopy\n  0x00\n  return\nstop\n\nsub_0: assembly {\n        /* \"MappingTest.sol\":75:1366  contract MappingTest {... */\n      mstore(0x40, 0x80)\n      callvalue\n      dup1\n      iszero\n      tag_1\n      jumpi\n      0x00\n      dup1\n      revert\n    tag_1:\n      pop\n      jumpi(tag_2, lt(calldatasize, 0x04))\n      shr(0xe0, calldataload(0x00))\n      dup1\n      0x27e235e3\n      eq\n      tag_3\n      jumpi\n      dup1\n      0x335d00c2\n      eq\n      tag_4\n      jumpi\n      dup1\n      0x78f975af\n      eq\n      tag_5\n      jumpi\n      dup1\n      0xd39fa233\n      eq\n      tag_6\n      jumpi\n    tag_2:\n      0x00\n      dup1\n      revert\n        /* \"MappingTest.sol\":154:195  mapping (address => uint) public balances */\n    tag_3:\n      tag_7\n      0x04\n      dup1\n      calldatasize\n      sub\n      dup2\n      add\n      swap1\n      tag_8\n      swap2\n      swap1\n      tag_9\n      jump\t// in\n    tag_8:\n      tag_10\n      jump\t// in\n    tag_7:\n      mload(0x40)\n      tag_11\n      swap2\n      swap1\n      tag_12\n      jump\t// in\n    tag_11:\n      mload(0x40)\n      dup1\n      swap2\n      sub\n      swap1\n      return\n        /* \"MappingTest.sol\":272:1097  function examples() external {... */\n    tag_4:\n      tag_13\n      tag_14\n      jump\t// in\n    tag_13:\n      stop\n        /* \"MappingTest.sol\":202:265  mapping (address => mapping (address => bool)) public isFriends */\n    tag_5:\n      tag_15\n      0x04\n      dup1\n      calldatasize\n      sub\n      dup2\n      add\n      swap1\n      tag_16\n      swap2\n      swap1\n      tag_17\n      jump\t// in\n    tag_16:\n      tag_18\n      jump\t// in\n    tag_15:\n      mload(0x40)\n      tag_19\n      swap2\n      swap1\n      tag_20\n      jump\t// in\n    tag_19:\n      mload(0x40)\n      dup1\n      swap2\n      sub\n      swap1\n      return\n        /* \"MappingTest.sol\":103:143  mapping (uint => address) public numbers */\n    tag_6:\n      tag_21\n      0x04\n      dup1\n      calldatasize\n      sub\n      dup2\n      add\n      swap1\n      tag_22\n      swap2\n      swap1\n      tag_23\n      jump\t// in\n    tag_22:\n      tag_24\n      jump\t// in\n    tag_21:\n      mload(0x40)\n      tag_25\n      swap2\n      swap1\n      tag_26\n      jump\t// in\n    tag_25:\n      mload(0x40)\n      dup1\n      swap2\n      sub\n      swap1\n      return\n        /* \"MappingTest.sol\":154:195  mapping (address => uint) public balances */\n    tag_10:\n      mstore(0x20, 0x01)\n      dup1\n      0x00\n      mstore\n      keccak256(0x00, 0x40)\n      0x00\n      swap2\n      pop\n      swap1\n      pop\n      sload\n      dup2\n      jump\t// out\n        /* \"MappingTest.sol\":272:1097  function examples() external {... */\n    tag_14:\n        /* \"MappingTest.sol\":372:375  123 */\n      0x7b\n        /* \"MappingTest.sol\":349:357  balances */\n      0x01\n        /* \"MappingTest.sol\":349:369  balances[msg.sender] */\n      0x00\n        /* \"MappingTest.sol\":358:368  msg.sender */\n      caller\n        /* \"MappingTest.sol\":349:369  balances[msg.sender] */\n      0xffffffffffffffffffffffffffffffffffffffff\n      and\n      0xffffffffffffffffffffffffffffffffffffffff\n      and\n      dup2\n      mstore\n      0x20\n      add\n      swap1\n      dup2\n      mstore\n      0x20\n      add\n      0x00\n      keccak256\n        /* \"MappingTest.sol\":349:375  balances[msg.sender] = 123 */\n      dup2\n      swap1\n      sstore\n      pop\n        /* \"MappingTest.sol\":385:398  uint balance1 */\n      0x00\n        /* \"MappingTest.sol\":401:409  balances */\n      0x01\n        /* \"MappingTest.sol\":401:421  balances[msg.sender] */\n      0x00\n        /* \"MappingTest.sol\":410:420  msg.sender */\n      caller\n        /* \"MappingTest.sol\":401:421  balances[msg.sender] */\n      0xffffffffffffffffffffffffffffffffffffffff\n      and\n      0xffffffffffffffffffffffffffffffffffffffff\n      and\n      dup2\n      mstore\n      0x20\n      add\n      swap1\n      dup2\n      mstore\n      0x20\n      add\n      0x00\n      keccak256\n      sload\n        /* \"MappingTest.sol\":385:421  uint balance1 = balances[msg.sender] */\n      swap1\n      pop\n        /* \"MappingTest.sol\":553:566  uint balance2 */\n      0x00\n        /* \"MappingTest.sol\":569:577  balances */\n      0x01\n        /* \"MappingTest.sol\":569:589  balances[address(1)] */\n      0x00\n        /* \"MappingTest.sol\":586:587  1 */\n      0x01\n        /* \"MappingTest.sol\":569:589  balances[address(1)] */\n      0xffffffffffffffffffffffffffffffffffffffff\n      and\n      0xffffffffffffffffffffffffffffffffffffffff\n      and\n      dup2\n      mstore\n      0x20\n      add\n      swap1\n      dup2\n      mstore\n      0x20\n      add\n      0x00\n      keccak256\n      sload\n        /* \"MappingTest.sol\":553:589  uint balance2 = balances[address(1)] */\n      swap1\n      pop\n        /* \"MappingTest.sol\":624:627  123 */\n      0x7b\n        /* \"MappingTest.sol\":600:608  balances */\n      0x01\n        /* \"MappingTest.sol\":600:620  balances[msg.sender] */\n      0x00\n        /* \"MappingTest.sol\":609:619  msg.sender */\n      caller\n        /* \"MappingTest.sol\":600:620  balances[msg.sender] */\n      0xffffffffffffffffffffffffffffffffffffffff\n      and\n      0xffffffffffffffffffffffffffffffffffffffff\n      and\n      dup2\n      mstore\n      0x20\n      add\n      swap1\n      dup2\n      mstore\n      0x20\n      add\n      0x00\n      keccak256\n      0x00\n        /* \"MappingTest.sol\":600:627  balances[msg.sender] += 123 */\n      dup3\n      dup3\n      sload\n      tag_28\n      swap2\n      swap1\n      tag_29\n      jump\t// in\n    tag_28:\n      swap3\n      pop\n      pop\n      dup2\n      swap1\n      sstore\n      pop\n        /* \"MappingTest.sol\":706:714  balances */\n      0x01\n        /* \"MappingTest.sol\":706:726  balances[msg.sender] */\n      0x00\n        /* \"MappingTest.sol\":715:725  msg.sender */\n      caller\n        /* \"MappingTest.sol\":706:726  balances[msg.sender] */\n      0xffffffffffffffffffffffffffffffffffffffff\n      and\n      0xffffffffffffffffffffffffffffffffffffffff\n      and\n      dup2\n      mstore\n      0x20\n      add\n      swap1\n      dup2\n      mstore\n      0x20\n      add\n      0x00\n      keccak256\n        /* \"MappingTest.sol\":699:726  delete balances[msg.sender] */\n      0x00\n      swap1\n      sstore\n        /* \"MappingTest.sol\":776:780  true */\n      0x01\n        /* \"MappingTest.sol\":737:746  isFriends */\n      0x02\n        /* \"MappingTest.sol\":737:758  isFriends[msg.sender] */\n      0x00\n        /* \"MappingTest.sol\":747:757  msg.sender */\n      caller\n        /* \"MappingTest.sol\":737:758  isFriends[msg.sender] */\n      0xffffffffffffffffffffffffffffffffffffffff\n      and\n      0xffffffffffffffffffffffffffffffffffffffff\n      and\n      dup2\n      mstore\n      0x20\n      add\n      swap1\n      dup2\n      mstore\n      0x20\n      add\n      0x00\n      keccak256\n        /* \"MappingTest.sol\":737:773  isFriends[msg.sender][address(this)] */\n      0x00\n        /* \"MappingTest.sol\":767:771  this */\n      address\n        /* \"MappingTest.sol\":737:773  isFriends[msg.sender][address(this)] */\n      0xffffffffffffffffffffffffffffffffffffffff\n      and\n      0xffffffffffffffffffffffffffffffffffffffff\n      and\n      dup2\n      mstore\n      0x20\n      add\n      swap1\n      dup2\n      mstore\n      0x20\n      add\n      0x00\n      keccak256\n      0x00\n        /* \"MappingTest.sol\":737:780  isFriends[msg.sender][address(this)] = true */\n      0x0100\n      exp\n      dup2\n      sload\n      dup2\n      0xff\n      mul\n      not\n      and\n      swap1\n      dup4\n      iszero\n      iszero\n      mul\n      or\n      swap1\n      sstore\n      pop\n        /* \"MappingTest.sol\":829:874  mapping (address => bool) storage friendsInfo */\n      0x00\n        /* \"MappingTest.sol\":877:886  isFriends */\n      0x02\n        /* \"MappingTest.sol\":877:898  isFriends[msg.sender] */\n      0x00\n        /* \"MappingTest.sol\":887:897  msg.sender */\n      caller\n        /* \"MappingTest.sol\":877:898  isFriends[msg.sender] */\n      0xffffffffffffffffffffffffffffffffffffffff\n      and\n      0xffffffffffffffffffffffffffffffffffffffff\n      and\n      dup2\n      mstore\n      0x20\n      add\n      swap1\n      dup2\n      mstore\n      0x20\n      add\n      0x00\n      keccak256\n        /* \"MappingTest.sol\":829:898  mapping (address => bool) storage friendsInfo = isFriends[msg.sender] */\n      swap1\n      pop\n        /* \"MappingTest.sol\":942:953  bool result */\n      0x00\n        /* \"MappingTest.sol\":956:967  friendsInfo */\n      dup2\n        /* \"MappingTest.sol\":956:982  friendsInfo[address(this)] */\n      0x00\n        /* \"MappingTest.sol\":976:980  this */\n      address\n        /* \"MappingTest.sol\":956:982  friendsInfo[address(this)] */\n      0xffffffffffffffffffffffffffffffffffffffff\n      and\n      0xffffffffffffffffffffffffffffffffffffffff\n      and\n      dup2\n      mstore\n      0x20\n      add\n      swap1\n      dup2\n      mstore\n      0x20\n      add\n      0x00\n      keccak256\n      0x00\n      swap1\n      sload\n      swap1\n      0x0100\n      exp\n      swap1\n      div\n      0xff\n      and\n        /* \"MappingTest.sol\":942:982  bool result = friendsInfo[address(this)] */\n      swap1\n      pop\n        /* \"MappingTest.sol\":1023:1035  bool result2 */\n      0x00\n        /* \"MappingTest.sol\":1038:1049  friendsInfo */\n      dup3\n        /* \"MappingTest.sol\":1038:1061  friendsInfo[address(1)] */\n      0x00\n        /* \"MappingTest.sol\":1058:1059  1 */\n      0x01\n        /* \"MappingTest.sol\":1038:1061  friendsInfo[address(1)] */\n      0xffffffffffffffffffffffffffffffffffffffff\n      and\n      0xffffffffffffffffffffffffffffffffffffffff\n      and\n      dup2\n      mstore\n      0x20\n      add\n      swap1\n      dup2\n      mstore\n      0x20\n      add\n      0x00\n      keccak256\n      0x00\n      swap1\n      sload\n      swap1\n      0x0100\n      exp\n      swap1\n      div\n      0xff\n      and\n        /* \"MappingTest.sol\":1023:1061  bool result2 = friendsInfo[address(1)] */\n      swap1\n      pop\n        /* \"MappingTest.sol\":301:1097  {... */\n      pop\n      pop\n      pop\n      pop\n      pop\n        /* \"MappingTest.sol\":272:1097  function examples() external {... */\n      jump\t// out\n        /* \"MappingTest.sol\":202:265  mapping (address => mapping (address => bool)) public isFriends */\n    tag_18:\n      mstore(0x20, 0x02)\n      dup2\n      0x00\n      mstore\n      mstore(0x20, keccak256(0x00, 0x40))\n      dup1\n      0x00\n      mstore\n      keccak256(0x00, 0x40)\n      0x00\n      swap2\n      pop\n      swap2\n      pop\n      swap1\n      sload\n      swap1\n      0x0100\n      exp\n      swap1\n      div\n      0xff\n      and\n      dup2\n      jump\t// out\n        /* \"MappingTest.sol\":103:143  mapping (uint => address) public numbers */\n    tag_24:\n      mstore(0x20, 0x00)\n      dup1\n      0x00\n      mstore\n      keccak256(0x00, 0x40)\n      0x00\n      swap2\n      pop\n      sload\n      swap1\n      0x0100\n      exp\n      swap1\n      div\n      0xffffffffffffffffffffffffffffffffffffffff\n      and\n      dup2\n      jump\t// out\n        /* \"#utility.yul\":88:205   */\n    tag_31:\n        /* \"#utility.yul\":197:198   */\n      0x00\n        /* \"#utility.yul\":194:195   */\n      dup1\n        /* \"#utility.yul\":187:199   */\n      revert\n        /* \"#utility.yul\":334:460   */\n    tag_33:\n        /* \"#utility.yul\":371:378   */\n      0x00\n        /* \"#utility.yul\":411:453   */\n      0xffffffffffffffffffffffffffffffffffffffff\n        /* \"#utility.yul\":404:409   */\n      dup3\n        /* \"#utility.yul\":400:454   */\n      and\n        /* \"#utility.yul\":389:454   */\n      swap1\n      pop\n        /* \"#utility.yul\":334:460   */\n      swap2\n      swap1\n      pop\n      jump\t// out\n        /* \"#utility.yul\":466:562   */\n    tag_34:\n        /* \"#utility.yul\":503:510   */\n      0x00\n        /* \"#utility.yul\":532:556   */\n      tag_51\n        /* \"#utility.yul\":550:555   */\n      dup3\n        /* \"#utility.yul\":532:556   */\n      tag_33\n      jump\t// in\n    tag_51:\n        /* \"#utility.yul\":521:556   */\n      swap1\n      pop\n        /* \"#utility.yul\":466:562   */\n      swap2\n      swap1\n      pop\n      jump\t// out\n        /* \"#utility.yul\":568:690   */\n    tag_35:\n        /* \"#utility.yul\":641:665   */\n      tag_53\n        /* \"#utility.yul\":659:664   */\n      dup2\n        /* \"#utility.yul\":641:665   */\n      tag_34\n      jump\t// in\n    tag_53:\n        /* \"#utility.yul\":634:639   */\n      dup2\n        /* \"#utility.yul\":631:666   */\n      eq\n        /* \"#utility.yul\":621:684   */\n      tag_54\n      jumpi\n        /* \"#utility.yul\":680:681   */\n      0x00\n        /* \"#utility.yul\":677:678   */\n      dup1\n        /* \"#utility.yul\":670:682   */\n      revert\n        /* \"#utility.yul\":621:684   */\n    tag_54:\n        /* \"#utility.yul\":568:690   */\n      pop\n      jump\t// out\n        /* \"#utility.yul\":696:835   */\n    tag_36:\n        /* \"#utility.yul\":742:747   */\n      0x00\n        /* \"#utility.yul\":780:786   */\n      dup2\n        /* \"#utility.yul\":767:787   */\n      calldataload\n        /* \"#utility.yul\":758:787   */\n      swap1\n      pop\n        /* \"#utility.yul\":796:829   */\n      tag_56\n        /* \"#utility.yul\":823:828   */\n      dup2\n        /* \"#utility.yul\":796:829   */\n      tag_35\n      jump\t// in\n    tag_56:\n        /* \"#utility.yul\":696:835   */\n      swap3\n      swap2\n      pop\n      pop\n      jump\t// out\n        /* \"#utility.yul\":841:1170   */\n    tag_9:\n        /* \"#utility.yul\":900:906   */\n      0x00\n        /* \"#utility.yul\":949:951   */\n      0x20\n        /* \"#utility.yul\":937:946   */\n      dup3\n        /* \"#utility.yul\":928:935   */\n      dup5\n        /* \"#utility.yul\":924:947   */\n      sub\n        /* \"#utility.yul\":920:952   */\n      slt\n        /* \"#utility.yul\":917:1036   */\n      iszero\n      tag_58\n      jumpi\n        /* \"#utility.yul\":955:1034   */\n      tag_59\n      tag_31\n      jump\t// in\n    tag_59:\n        /* \"#utility.yul\":917:1036   */\n    tag_58:\n        /* \"#utility.yul\":1075:1076   */\n      0x00\n        /* \"#utility.yul\":1100:1153   */\n      tag_60\n        /* \"#utility.yul\":1145:1152   */\n      dup5\n        /* \"#utility.yul\":1136:1142   */\n      dup3\n        /* \"#utility.yul\":1125:1134   */\n      dup6\n        /* \"#utility.yul\":1121:1143   */\n      add\n        /* \"#utility.yul\":1100:1153   */\n      tag_36\n      jump\t// in\n    tag_60:\n        /* \"#utility.yul\":1090:1153   */\n      swap2\n      pop\n        /* \"#utility.yul\":1046:1163   */\n      pop\n        /* \"#utility.yul\":841:1170   */\n      swap3\n      swap2\n      pop\n      pop\n      jump\t// out\n        /* \"#utility.yul\":1176:1253   */\n    tag_37:\n        /* \"#utility.yul\":1213:1220   */\n      0x00\n        /* \"#utility.yul\":1242:1247   */\n      dup2\n        /* \"#utility.yul\":1231:1247   */\n      swap1\n      pop\n        /* \"#utility.yul\":1176:1253   */\n      swap2\n      swap1\n      pop\n      jump\t// out\n        /* \"#utility.yul\":1259:1377   */\n    tag_38:\n        /* \"#utility.yul\":1346:1370   */\n      tag_63\n        /* \"#utility.yul\":1364:1369   */\n      dup2\n        /* \"#utility.yul\":1346:1370   */\n      tag_37\n      jump\t// in\n    tag_63:\n        /* \"#utility.yul\":1341:1344   */\n      dup3\n        /* \"#utility.yul\":1334:1371   */\n      mstore\n        /* \"#utility.yul\":1259:1377   */\n      pop\n      pop\n      jump\t// out\n        /* \"#utility.yul\":1383:1605   */\n    tag_12:\n        /* \"#utility.yul\":1476:1480   */\n      0x00\n        /* \"#utility.yul\":1514:1516   */\n      0x20\n        /* \"#utility.yul\":1503:1512   */\n      dup3\n        /* \"#utility.yul\":1499:1517   */\n      add\n        /* \"#utility.yul\":1491:1517   */\n      swap1\n      pop\n        /* \"#utility.yul\":1527:1598   */\n      tag_65\n        /* \"#utility.yul\":1595:1596   */\n      0x00\n        /* \"#utility.yul\":1584:1593   */\n      dup4\n        /* \"#utility.yul\":1580:1597   */\n      add\n        /* \"#utility.yul\":1571:1577   */\n      dup5\n        /* \"#utility.yul\":1527:1598   */\n      tag_38\n      jump\t// in\n    tag_65:\n        /* \"#utility.yul\":1383:1605   */\n      swap3\n      swap2\n      pop\n      pop\n      jump\t// out\n        /* \"#utility.yul\":1611:2085   */\n    tag_17:\n        /* \"#utility.yul\":1679:1685   */\n      0x00\n        /* \"#utility.yul\":1687:1693   */\n      dup1\n        /* \"#utility.yul\":1736:1738   */\n      0x40\n        /* \"#utility.yul\":1724:1733   */\n      dup4\n        /* \"#utility.yul\":1715:1722   */\n      dup6\n        /* \"#utility.yul\":1711:1734   */\n      sub\n        /* \"#utility.yul\":1707:1739   */\n      slt\n        /* \"#utility.yul\":1704:1823   */\n      iszero\n      tag_67\n      jumpi\n        /* \"#utility.yul\":1742:1821   */\n      tag_68\n      tag_31\n      jump\t// in\n    tag_68:\n        /* \"#utility.yul\":1704:1823   */\n    tag_67:\n        /* \"#utility.yul\":1862:1863   */\n      0x00\n        /* \"#utility.yul\":1887:1940   */\n      tag_69\n        /* \"#utility.yul\":1932:1939   */\n      dup6\n        /* \"#utility.yul\":1923:1929   */\n      dup3\n        /* \"#utility.yul\":1912:1921   */\n      dup7\n        /* \"#utility.yul\":1908:1930   */\n      add\n        /* \"#utility.yul\":1887:1940   */\n      tag_36\n      jump\t// in\n    tag_69:\n        /* \"#utility.yul\":1877:1940   */\n      swap3\n      pop\n        /* \"#utility.yul\":1833:1950   */\n      pop\n        /* \"#utility.yul\":1989:1991   */\n      0x20\n        /* \"#utility.yul\":2015:2068   */\n      tag_70\n        /* \"#utility.yul\":2060:2067   */\n      dup6\n        /* \"#utility.yul\":2051:2057   */\n      dup3\n        /* \"#utility.yul\":2040:2049   */\n      dup7\n        /* \"#utility.yul\":2036:2058   */\n      add\n        /* \"#utility.yul\":2015:2068   */\n      tag_36\n      jump\t// in\n    tag_70:\n        /* \"#utility.yul\":2005:2068   */\n      swap2\n      pop\n        /* \"#utility.yul\":1960:2078   */\n      pop\n        /* \"#utility.yul\":1611:2085   */\n      swap3\n      pop\n      swap3\n      swap1\n      pop\n      jump\t// out\n        /* \"#utility.yul\":2091:2181   */\n    tag_39:\n        /* \"#utility.yul\":2125:2132   */\n      0x00\n        /* \"#utility.yul\":2168:2173   */\n      dup2\n        /* \"#utility.yul\":2161:2174   */\n      iszero\n        /* \"#utility.yul\":2154:2175   */\n      iszero\n        /* \"#utility.yul\":2143:2175   */\n      swap1\n      pop\n        /* \"#utility.yul\":2091:2181   */\n      swap2\n      swap1\n      pop\n      jump\t// out\n        /* \"#utility.yul\":2187:2296   */\n    tag_40:\n        /* \"#utility.yul\":2268:2289   */\n      tag_73\n        /* \"#utility.yul\":2283:2288   */\n      dup2\n        /* \"#utility.yul\":2268:2289   */\n      tag_39\n      jump\t// in\n    tag_73:\n        /* \"#utility.yul\":2263:2266   */\n      dup3\n        /* \"#utility.yul\":2256:2290   */\n      mstore\n        /* \"#utility.yul\":2187:2296   */\n      pop\n      pop\n      jump\t// out\n        /* \"#utility.yul\":2302:2512   */\n    tag_20:\n        /* \"#utility.yul\":2389:2393   */\n      0x00\n        /* \"#utility.yul\":2427:2429   */\n      0x20\n        /* \"#utility.yul\":2416:2425   */\n      dup3\n        /* \"#utility.yul\":2412:2430   */\n      add\n        /* \"#utility.yul\":2404:2430   */\n      swap1\n      pop\n        /* \"#utility.yul\":2440:2505   */\n      tag_75\n        /* \"#utility.yul\":2502:2503   */\n      0x00\n        /* \"#utility.yul\":2491:2500   */\n      dup4\n        /* \"#utility.yul\":2487:2504   */\n      add\n        /* \"#utility.yul\":2478:2484   */\n      dup5\n        /* \"#utility.yul\":2440:2505   */\n      tag_40\n      jump\t// in\n    tag_75:\n        /* \"#utility.yul\":2302:2512   */\n      swap3\n      swap2\n      pop\n      pop\n      jump\t// out\n        /* \"#utility.yul\":2518:2640   */\n    tag_41:\n        /* \"#utility.yul\":2591:2615   */\n      tag_77\n        /* \"#utility.yul\":2609:2614   */\n      dup2\n        /* \"#utility.yul\":2591:2615   */\n      tag_37\n      jump\t// in\n    tag_77:\n        /* \"#utility.yul\":2584:2589   */\n      dup2\n        /* \"#utility.yul\":2581:2616   */\n      eq\n        /* \"#utility.yul\":2571:2634   */\n      tag_78\n      jumpi\n        /* \"#utility.yul\":2630:2631   */\n      0x00\n        /* \"#utility.yul\":2627:2628   */\n      dup1\n        /* \"#utility.yul\":2620:2632   */\n      revert\n        /* \"#utility.yul\":2571:2634   */\n    tag_78:\n        /* \"#utility.yul\":2518:2640   */\n      pop\n      jump\t// out\n        /* \"#utility.yul\":2646:2785   */\n    tag_42:\n        /* \"#utility.yul\":2692:2697   */\n      0x00\n        /* \"#utility.yul\":2730:2736   */\n      dup2\n        /* \"#utility.yul\":2717:2737   */\n      calldataload\n        /* \"#utility.yul\":2708:2737   */\n      swap1\n      pop\n        /* \"#utility.yul\":2746:2779   */\n      tag_80\n        /* \"#utility.yul\":2773:2778   */\n      dup2\n        /* \"#utility.yul\":2746:2779   */\n      tag_41\n      jump\t// in\n    tag_80:\n        /* \"#utility.yul\":2646:2785   */\n      swap3\n      swap2\n      pop\n      pop\n      jump\t// out\n        /* \"#utility.yul\":2791:3120   */\n    tag_23:\n        /* \"#utility.yul\":2850:2856   */\n      0x00\n        /* \"#utility.yul\":2899:2901   */\n      0x20\n        /* \"#utility.yul\":2887:2896   */\n      dup3\n        /* \"#utility.yul\":2878:2885   */\n      dup5\n        /* \"#utility.yul\":2874:2897   */\n      sub\n        /* \"#utility.yul\":2870:2902   */\n      slt\n        /* \"#utility.yul\":2867:2986   */\n      iszero\n      tag_82\n      jumpi\n        /* \"#utility.yul\":2905:2984   */\n      tag_83\n      tag_31\n      jump\t// in\n    tag_83:\n        /* \"#utility.yul\":2867:2986   */\n    tag_82:\n        /* \"#utility.yul\":3025:3026   */\n      0x00\n        /* \"#utility.yul\":3050:3103   */\n      tag_84\n        /* \"#utility.yul\":3095:3102   */\n      dup5\n        /* \"#utility.yul\":3086:3092   */\n      dup3\n        /* \"#utility.yul\":3075:3084   */\n      dup6\n        /* \"#utility.yul\":3071:3093   */\n      add\n        /* \"#utility.yul\":3050:3103   */\n      tag_42\n      jump\t// in\n    tag_84:\n        /* \"#utility.yul\":3040:3103   */\n      swap2\n      pop\n        /* \"#utility.yul\":2996:3113   */\n      pop\n        /* \"#utility.yul\":2791:3120   */\n      swap3\n      swap2\n      pop\n      pop\n      jump\t// out\n        /* \"#utility.yul\":3126:3244   */\n    tag_43:\n        /* \"#utility.yul\":3213:3237   */\n      tag_86\n        /* \"#utility.yul\":3231:3236   */\n      dup2\n        /* \"#utility.yul\":3213:3237   */\n      tag_34\n      jump\t// in\n    tag_86:\n        /* \"#utility.yul\":3208:3211   */\n      dup3\n        /* \"#utility.yul\":3201:3238   */\n      mstore\n        /* \"#utility.yul\":3126:3244   */\n      pop\n      pop\n      jump\t// out\n        /* \"#utility.yul\":3250:3472   */\n    tag_26:\n        /* \"#utility.yul\":3343:3347   */\n      0x00\n        /* \"#utility.yul\":3381:3383   */\n      0x20\n        /* \"#utility.yul\":3370:3379   */\n      dup3\n        /* \"#utility.yul\":3366:3384   */\n      add\n        /* \"#utility.yul\":3358:3384   */\n      swap1\n      pop\n        /* \"#utility.yul\":3394:3465   */\n      tag_88\n        /* \"#utility.yul\":3462:3463   */\n      0x00\n        /* \"#utility.yul\":3451:3460   */\n      dup4\n        /* \"#utility.yul\":3447:3464   */\n      add\n        /* \"#utility.yul\":3438:3444   */\n      dup5\n        /* \"#utility.yul\":3394:3465   */\n      tag_43\n      jump\t// in\n    tag_88:\n        /* \"#utility.yul\":3250:3472   */\n      swap3\n      swap2\n      pop\n      pop\n      jump\t// out\n        /* \"#utility.yul\":3478:3658   */\n    tag_44:\n        /* \"#utility.yul\":3526:3603   */\n      0x4e487b7100000000000000000000000000000000000000000000000000000000\n        /* \"#utility.yul\":3523:3524   */\n      0x00\n        /* \"#utility.yul\":3516:3604   */\n      mstore\n        /* \"#utility.yul\":3623:3627   */\n      0x11\n        /* \"#utility.yul\":3620:3621   */\n      0x04\n        /* \"#utility.yul\":3613:3628   */\n      mstore\n        /* \"#utility.yul\":3647:3651   */\n      0x24\n        /* \"#utility.yul\":3644:3645   */\n      0x00\n        /* \"#utility.yul\":3637:3652   */\n      revert\n        /* \"#utility.yul\":3664:3855   */\n    tag_29:\n        /* \"#utility.yul\":3704:3707   */\n      0x00\n        /* \"#utility.yul\":3723:3743   */\n      tag_91\n        /* \"#utility.yul\":3741:3742   */\n      dup3\n        /* \"#utility.yul\":3723:3743   */\n      tag_37\n      jump\t// in\n    tag_91:\n        /* \"#utility.yul\":3718:3743   */\n      swap2\n      pop\n        /* \"#utility.yul\":3757:3777   */\n      tag_92\n        /* \"#utility.yul\":3775:3776   */\n      dup4\n        /* \"#utility.yul\":3757:3777   */\n      tag_37\n      jump\t// in\n    tag_92:\n        /* \"#utility.yul\":3752:3777   */\n      swap3\n      pop\n        /* \"#utility.yul\":3800:3801   */\n      dup3\n        /* \"#utility.yul\":3797:3798   */\n      dup3\n        /* \"#utility.yul\":3793:3802   */\n      add\n        /* \"#utility.yul\":3786:3802   */\n      swap1\n      pop\n        /* \"#utility.yul\":3821:3824   */\n      dup1\n        /* \"#utility.yul\":3818:3819   */\n      dup3\n        /* \"#utility.yul\":3815:3825   */\n      gt\n        /* \"#utility.yul\":3812:3848   */\n      iszero\n      tag_93\n      jumpi\n        /* \"#utility.yul\":3828:3846   */\n      tag_94\n      tag_44\n      jump\t// in\n    tag_94:\n        /* \"#utility.yul\":3812:3848   */\n    tag_93:\n        /* \"#utility.yul\":3664:3855   */\n      swap3\n      swap2\n      pop\n      pop\n      jump\t// out\n\n    auxdata: 0xa26469706673582212202e2820f434b6885d61403dcb7908e531fcc5e557005778b1df3281c9da72348e64736f6c63430008110033\n}\n",
				"bytecode": {
					"linkReferences": {},
					"object": "608060405234801561001057600080fd5b506106a3806100206000396000f3fe608060405234801561001057600080fd5b506004361061004c5760003560e01c806327e235e314610051578063335d00c21461008157806378f975af1461008b578063d39fa233146100bb575b600080fd5b61006b600480360381019061006691906104b0565b6100eb565b60405161007891906104f6565b60405180910390f35b610089610103565b005b6100a560048036038101906100a09190610511565b6103eb565b6040516100b2919061056c565b60405180910390f35b6100d560048036038101906100d091906105b3565b61041a565b6040516100e291906105ef565b60405180910390f35b60016020528060005260406000206000915090505481565b607b600160003373ffffffffffffffffffffffffffffffffffffffff1673ffffffffffffffffffffffffffffffffffffffff168152602001908152602001600020819055506000600160003373ffffffffffffffffffffffffffffffffffffffff1673ffffffffffffffffffffffffffffffffffffffff168152602001908152602001600020549050600060016000600173ffffffffffffffffffffffffffffffffffffffff1673ffffffffffffffffffffffffffffffffffffffff168152602001908152602001600020549050607b600160003373ffffffffffffffffffffffffffffffffffffffff1673ffffffffffffffffffffffffffffffffffffffff16815260200190815260200160002060008282546102219190610639565b92505081905550600160003373ffffffffffffffffffffffffffffffffffffffff1673ffffffffffffffffffffffffffffffffffffffff168152602001908152602001600020600090556001600260003373ffffffffffffffffffffffffffffffffffffffff1673ffffffffffffffffffffffffffffffffffffffff16815260200190815260200160002060003073ffffffffffffffffffffffffffffffffffffffff1673ffffffffffffffffffffffffffffffffffffffff16815260200190815260200160002060006101000a81548160ff0219169083151502179055506000600260003373ffffffffffffffffffffffffffffffffffffffff1673ffffffffffffffffffffffffffffffffffffffff168152602001908152602001600020905060008160003073ffffffffffffffffffffffffffffffffffffffff1673ffffffffffffffffffffffffffffffffffffffff16815260200190815260200160002060009054906101000a900460ff1690506000826000600173ffffffffffffffffffffffffffffffffffffffff1673ffffffffffffffffffffffffffffffffffffffff16815260200190815260200160002060009054906101000a900460ff1690505050505050565b60026020528160005260406000206020528060005260406000206000915091509054906101000a900460ff1681565b60006020528060005260406000206000915054906101000a900473ffffffffffffffffffffffffffffffffffffffff1681565b600080fd5b600073ffffffffffffffffffffffffffffffffffffffff82169050919050565b600061047d82610452565b9050919050565b61048d81610472565b811461049857600080fd5b50565b6000813590506104aa81610484565b92915050565b6000602082840312156104c6576104c561044d565b5b60006104d48482850161049b565b91505092915050565b6000819050919050565b6104f0816104dd565b82525050565b600060208201905061050b60008301846104e7565b92915050565b600080604083850312156105285761052761044d565b5b60006105368582860161049b565b92505060206105478582860161049b565b9150509250929050565b60008115159050919050565b61056681610551565b82525050565b6000602082019050610581600083018461055d565b92915050565b610590816104dd565b811461059b57600080fd5b50565b6000813590506105ad81610587565b92915050565b6000602082840312156105c9576105c861044d565b5b60006105d78482850161059e565b91505092915050565b6105e981610472565b82525050565b600060208201905061060460008301846105e0565b92915050565b7f4e487b7100000000000000000000000000000000000000000000000000000000600052601160045260246000fd5b6000610644826104dd565b915061064f836104dd565b92508282019050808211156106675761066661060a565b5b9291505056fea26469706673582212202e2820f434b6885d61403dcb7908e531fcc5e557005778b1df3281c9da72348e64736f6c63430008110033",
					"opcodes": "PUSH1 0x80 PUSH1 0x40 MSTORE CALLVALUE DUP1 ISZERO PUSH2 0x10 JUMPI PUSH1 0x0 DUP1 REVERT JUMPDEST POP PUSH2 0x6A3 DUP1 PUSH2 0x20 PUSH1 0x0 CODECOPY PUSH1 0x0 RETURN INVALID PUSH1 0x80 PUSH1 0x40 MSTORE CALLVALUE DUP1 ISZERO PUSH2 0x10 JUMPI PUSH1 0x0 DUP1 REVERT JUMPDEST POP PUSH1 0x4 CALLDATASIZE LT PUSH2 0x4C JUMPI PUSH1 0x0 CALLDATALOAD PUSH1 0xE0 SHR DUP1 PUSH4 0x27E235E3 EQ PUSH2 0x51 JUMPI DUP1 PUSH4 0x335D00C2 EQ PUSH2 0x81 JUMPI DUP1 PUSH4 0x78F975AF EQ PUSH2 0x8B JUMPI DUP1 PUSH4 0xD39FA233 EQ PUSH2 0xBB JUMPI JUMPDEST PUSH1 0x0 DUP1 REVERT JUMPDEST PUSH2 0x6B PUSH1 0x4 DUP1 CALLDATASIZE SUB DUP2 ADD SWAP1 PUSH2 0x66 SWAP2 SWAP1 PUSH2 0x4B0 JUMP JUMPDEST PUSH2 0xEB JUMP JUMPDEST PUSH1 0x40 MLOAD PUSH2 0x78 SWAP2 SWAP1 PUSH2 0x4F6 JUMP JUMPDEST PUSH1 0x40 MLOAD DUP1 SWAP2 SUB SWAP1 RETURN JUMPDEST PUSH2 0x89 PUSH2 0x103 JUMP JUMPDEST STOP JUMPDEST PUSH2 0xA5 PUSH1 0x4 DUP1 CALLDATASIZE SUB DUP2 ADD SWAP1 PUSH2 0xA0 SWAP2 SWAP1 PUSH2 0x511 JUMP JUMPDEST PUSH2 0x3EB JUMP JUMPDEST PUSH1 0x40 MLOAD PUSH2 0xB2 SWAP2 SWAP1 PUSH2 0x56C JUMP JUMPDEST PUSH1 0x40 MLOAD DUP1 SWAP2 SUB SWAP1 RETURN JUMPDEST PUSH2 0xD5 PUSH1 0x4 DUP1 CALLDATASIZE SUB DUP2 ADD SWAP1 PUSH2 0xD0 SWAP2 SWAP1 PUSH2 0x5B3 JUMP JUMPDEST PUSH2 0x41A JUMP JUMPDEST PUSH1 0x40 MLOAD PUSH2 0xE2 SWAP2 SWAP1 PUSH2 0x5EF JUMP JUMPDEST PUSH1 0x40 MLOAD DUP1 SWAP2 SUB SWAP1 RETURN JUMPDEST PUSH1 0x1 PUSH1 0x20 MSTORE DUP1 PUSH1 0x0 MSTORE PUSH1 0x40 PUSH1 0x0 KECCAK256 PUSH1 0x0 SWAP2 POP SWAP1 POP SLOAD DUP2 JUMP JUMPDEST PUSH1 0x7B PUSH1 0x1 PUSH1 0x0 CALLER PUSH20 0xFFFFFFFFFFFFFFFFFFFFFFFFFFFFFFFFFFFFFFFF AND PUSH20 0xFFFFFFFFFFFFFFFFFFFFFFFFFFFFFFFFFFFFFFFF AND DUP2 MSTORE PUSH1 0x20 ADD SWAP1 DUP2 MSTORE PUSH1 0x20 ADD PUSH1 0x0 KECCAK256 DUP2 SWAP1 SSTORE POP PUSH1 0x0 PUSH1 0x1 PUSH1 0x0 CALLER PUSH20 0xFFFFFFFFFFFFFFFFFFFFFFFFFFFFFFFFFFFFFFFF AND PUSH20 0xFFFFFFFFFFFFFFFFFFFFFFFFFFFFFFFFFFFFFFFF AND DUP2 MSTORE PUSH1 0x20 ADD SWAP1 DUP2 MSTORE PUSH1 0x20 ADD PUSH1 0x0 KECCAK256 SLOAD SWAP1 POP PUSH1 0x0 PUSH1 0x1 PUSH1 0x0 PUSH1 0x1 PUSH20 0xFFFFFFFFFFFFFFFFFFFFFFFFFFFFFFFFFFFFFFFF AND PUSH20 0xFFFFFFFFFFFFFFFFFFFFFFFFFFFFFFFFFFFFFFFF AND DUP2 MSTORE PUSH1 0x20 ADD SWAP1 DUP2 MSTORE PUSH1 0x20 ADD PUSH1 0x0 KECCAK256 SLOAD SWAP1 POP PUSH1 0x7B PUSH1 0x1 PUSH1 0x0 CALLER PUSH20 0xFFFFFFFFFFFFFFFFFFFFFFFFFFFFFFFFFFFFFFFF AND PUSH20 0xFFFFFFFFFFFFFFFFFFFFFFFFFFFFFFFFFFFFFFFF AND DUP2 MSTORE PUSH1 0x20 ADD SWAP1 DUP2 MSTORE PUSH1 0x20 ADD PUSH1 0x0 KECCAK256 PUSH1 0x0 DUP3 DUP3 SLOAD PUSH2 0x221 SWAP2 SWAP1 PUSH2 0x639 JUMP JUMPDEST SWAP3 POP POP DUP2 SWAP1 SSTORE POP PUSH1 0x1 PUSH1 0x0 CALLER PUSH20 0xFFFFFFFFFFFFFFFFFFFFFFFFFFFFFFFFFFFFFFFF AND PUSH20 0xFFFFFFFFFFFFFFFFFFFFFFFFFFFFFFFFFFFFFFFF AND DUP2 MSTORE PUSH1 0x20 ADD SWAP1 DUP2 MSTORE PUSH1 0x20 ADD PUSH1 0x0 KECCAK256 PUSH1 0x0 SWAP1 SSTORE PUSH1 0x1 PUSH1 0x2 PUSH1 0x0 CALLER PUSH20 0xFFFFFFFFFFFFFFFFFFFFFFFFFFFFFFFFFFFFFFFF AND PUSH20 0xFFFFFFFFFFFFFFFFFFFFFFFFFFFFFFFFFFFFFFFF AND DUP2 MSTORE PUSH1 0x20 ADD SWAP1 DUP2 MSTORE PUSH1 0x20 ADD PUSH1 0x0 KECCAK256 PUSH1 0x0 ADDRESS PUSH20 0xFFFFFFFFFFFFFFFFFFFFFFFFFFFFFFFFFFFFFFFF AND PUSH20 0xFFFFFFFFFFFFFFFFFFFFFFFFFFFFFFFFFFFFFFFF AND DUP2 MSTORE PUSH1 0x20 ADD SWAP1 DUP2 MSTORE PUSH1 0x20 ADD PUSH1 0x0 KECCAK256 PUSH1 0x0 PUSH2 0x100 EXP DUP2 SLOAD DUP2 PUSH1 0xFF MUL NOT AND SWAP1 DUP4 ISZERO ISZERO MUL OR SWAP1 SSTORE POP PUSH1 0x0 PUSH1 0x2 PUSH1 0x0 CALLER PUSH20 0xFFFFFFFFFFFFFFFFFFFFFFFFFFFFFFFFFFFFFFFF AND PUSH20 0xFFFFFFFFFFFFFFFFFFFFFFFFFFFFFFFFFFFFFFFF AND DUP2 MSTORE PUSH1 0x20 ADD SWAP1 DUP2 MSTORE PUSH1 0x20 ADD PUSH1 0x0 KECCAK256 SWAP1 POP PUSH1 0x0 DUP2 PUSH1 0x0 ADDRESS PUSH20 0xFFFFFFFFFFFFFFFFFFFFFFFFFFFFFFFFFFFFFFFF AND PUSH20 0xFFFFFFFFFFFFFFFFFFFFFFFFFFFFFFFFFFFFFFFF AND DUP2 MSTORE PUSH1 0x20 ADD SWAP1 DUP2 MSTORE PUSH1 0x20 ADD PUSH1 0x0 KECCAK256 PUSH1 0x0 SWAP1 SLOAD SWAP1 PUSH2 0x100 EXP SWAP1 DIV PUSH1 0xFF AND SWAP1 POP PUSH1 0x0 DUP3 PUSH1 0x0 PUSH1 0x1 PUSH20 0xFFFFFFFFFFFFFFFFFFFFFFFFFFFFFFFFFFFFFFFF AND PUSH20 0xFFFFFFFFFFFFFFFFFFFFFFFFFFFFFFFFFFFFFFFF AND DUP2 MSTORE PUSH1 0x20 ADD SWAP1 DUP2 MSTORE PUSH1 0x20 ADD PUSH1 0x0 KECCAK256 PUSH1 0x0 SWAP1 SLOAD SWAP1 PUSH2 0x100 EXP SWAP1 DIV PUSH1 0xFF AND SWAP1 POP POP POP POP POP POP JUMP JUMPDEST PUSH1 0x2 PUSH1 0x20 MSTORE DUP2 PUSH1 0x0 MSTORE PUSH1 0x40 PUSH1 0x0 KECCAK256 PUSH1 0x20 MSTORE DUP1 PUSH1 0x0 MSTORE PUSH1 0x40 PUSH1 0x0 KECCAK256 PUSH1 0x0 SWAP2 POP SWAP2 POP SWAP1 SLOAD SWAP1 PUSH2 0x100 EXP SWAP1 DIV PUSH1 0xFF AND DUP2 JUMP JUMPDEST PUSH1 0x0 PUSH1 0x20 MSTORE DUP1 PUSH1 0x0 MSTORE PUSH1 0x40 PUSH1 0x0 KECCAK256 PUSH1 0x0 SWAP2 POP SLOAD SWAP1 PUSH2 0x100 EXP SWAP1 DIV PUSH20 0xFFFFFFFFFFFFFFFFFFFFFFFFFFFFFFFFFFFFFFFF AND DUP2 JUMP JUMPDEST PUSH1 0x0 DUP1 REVERT JUMPDEST PUSH1 0x0 PUSH20 0xFFFFFFFFFFFFFFFFFFFFFFFFFFFFFFFFFFFFFFFF DUP3 AND SWAP1 POP SWAP2 SWAP1 POP JUMP JUMPDEST PUSH1 0x0 PUSH2 0x47D DUP3 PUSH2 0x452 JUMP JUMPDEST SWAP1 POP SWAP2 SWAP1 POP JUMP JUMPDEST PUSH2 0x48D DUP2 PUSH2 0x472 JUMP JUMPDEST DUP2 EQ PUSH2 0x498 JUMPI PUSH1 0x0 DUP1 REVERT JUMPDEST POP JUMP JUMPDEST PUSH1 0x0 DUP2 CALLDATALOAD SWAP1 POP PUSH2 0x4AA DUP2 PUSH2 0x484 JUMP JUMPDEST SWAP3 SWAP2 POP POP JUMP JUMPDEST PUSH1 0x0 PUSH1 0x20 DUP3 DUP5 SUB SLT ISZERO PUSH2 0x4C6 JUMPI PUSH2 0x4C5 PUSH2 0x44D JUMP JUMPDEST JUMPDEST PUSH1 0x0 PUSH2 0x4D4 DUP5 DUP3 DUP6 ADD PUSH2 0x49B JUMP JUMPDEST SWAP2 POP POP SWAP3 SWAP2 POP POP JUMP JUMPDEST PUSH1 0x0 DUP2 SWAP1 POP SWAP2 SWAP1 POP JUMP JUMPDEST PUSH2 0x4F0 DUP2 PUSH2 0x4DD JUMP JUMPDEST DUP3 MSTORE POP POP JUMP JUMPDEST PUSH1 0x0 PUSH1 0x20 DUP3 ADD SWAP1 POP PUSH2 0x50B PUSH1 0x0 DUP4 ADD DUP5 PUSH2 0x4E7 JUMP JUMPDEST SWAP3 SWAP2 POP POP JUMP JUMPDEST PUSH1 0x0 DUP1 PUSH1 0x40 DUP4 DUP6 SUB SLT ISZERO PUSH2 0x528 JUMPI PUSH2 0x527 PUSH2 0x44D JUMP JUMPDEST JUMPDEST PUSH1 0x0 PUSH2 0x536 DUP6 DUP3 DUP7 ADD PUSH2 0x49B JUMP JUMPDEST SWAP3 POP POP PUSH1 0x20 PUSH2 0x547 DUP6 DUP3 DUP7 ADD PUSH2 0x49B JUMP JUMPDEST SWAP2 POP POP SWAP3 POP SWAP3 SWAP1 POP JUMP JUMPDEST PUSH1 0x0 DUP2 ISZERO ISZERO SWAP1 POP SWAP2 SWAP1 POP JUMP JUMPDEST PUSH2 0x566 DUP2 PUSH2 0x551 JUMP JUMPDEST DUP3 MSTORE POP POP JUMP JUMPDEST PUSH1 0x0 PUSH1 0x20 DUP3 ADD SWAP1 POP PUSH2 0x581 PUSH1 0x0 DUP4 ADD DUP5 PUSH2 0x55D JUMP JUMPDEST SWAP3 SWAP2 POP POP JUMP JUMPDEST PUSH2 0x590 DUP2 PUSH2 0x4DD JUMP JUMPDEST DUP2 EQ PUSH2 0x59B JUMPI PUSH1 0x0 DUP1 REVERT JUMPDEST POP JUMP JUMPDEST PUSH1 0x0 DUP2 CALLDATALOAD SWAP1 POP PUSH2 0x5AD DUP2 PUSH2 0x587 JUMP JUMPDEST SWAP3 SWAP2 POP POP JUMP JUMPDEST PUSH1 0x0 PUSH1 0x20 DUP3 DUP5 SUB SLT ISZERO PUSH2 0x5C9 JUMPI PUSH2 0x5C8 PUSH2 0x44D JUMP JUMPDEST JUMPDEST PUSH1 0x0 PUSH2 0x5D7 DUP5 DUP3 DUP6 ADD PUSH2 0x59E JUMP JUMPDEST SWAP2 POP POP SWAP3 SWAP2 POP POP JUMP JUMPDEST PUSH2 0x5E9 DUP2 PUSH2 0x472 JUMP JUMPDEST DUP3 MSTORE POP POP JUMP JUMPDEST PUSH1 0x0 PUSH1 0x20 DUP3 ADD SWAP1 POP PUSH2 0x604 PUSH1 0x0 DUP4 ADD DUP5 PUSH2 0x5E0 JUMP JUMPDEST SWAP3 SWAP2 POP POP JUMP JUMPDEST PUSH32 0x4E487B7100000000000000000000000000000000000000000000000000000000 PUSH1 0x0 MSTORE PUSH1 0x11 PUSH1 0x4 MSTORE PUSH1 0x24 PUSH1 0x0 REVERT JUMPDEST PUSH1 0x0 PUSH2 0x644 DUP3 PUSH2 0x4DD JUMP JUMPDEST SWAP2 POP PUSH2 0x64F DUP4 PUSH2 0x4DD JUMP JUMPDEST SWAP3 POP DUP3 DUP3 ADD SWAP1 POP DUP1 DUP3 GT ISZERO PUSH2 0x667 JUMPI PUSH2 0x666 PUSH2 0x60A JUMP JUMPDEST JUMPDEST SWAP3 SWAP2 POP POP JUMP INVALID LOG2 PUSH5 0x6970667358 0x22 SLT KECCAK256 0x2E 0x28 KECCAK256 DELEGATECALL CALLVALUE 0xB6 DUP9 0x5D PUSH2 0x403D 0xCB PUSH26 0x8E531FCC5E557005778B1DF3281C9DA72348E64736F6C634300 ADDMOD GT STOP CALLER "
				},
				"gasEstimates": {
					"creation": {
						"codeDepositCost": "339800",
						"executionCost": "380",
						"totalCost": "340180"
					},
					"external": {
						"balances(address)": "2792",
						"examples()": "infinite",
						"isFriends(address,address)": "infinite",
						"numbers(uint256)": "2883"
					}
				},
				"methodIdentifiers": {
					"balances(address)": "27e235e3",
					"examples()": "335d00c2",
					"isFriends(address,address)": "78f975af",
					"numbers(uint256)": "d39fa233"
				}
			},
			"storageLayout": {
				"storage": [
					{
						"astId": 5,
						"contract": "MappingTest.sol:MappingTest",
						"label": "numbers",
						"offset": 0,
						"slot": "0",
						"type": "t_mapping(t_uint256,t_address)"
					},
					{
						"astId": 9,
						"contract": "MappingTest.sol:MappingTest",
						"label": "balances",
						"offset": 0,
						"slot": "1",
						"type": "t_mapping(t_address,t_uint256)"
					},
					{
						"astId": 15,
						"contract": "MappingTest.sol:MappingTest",
						"label": "isFriends",
						"offset": 0,
						"slot": "2",
						"type": "t_mapping(t_address,t_mapping(t_address,t_bool))"
					}
				],
				"types": {
					"t_address": {
						"encoding": "inplace",
						"label": "address",
						"numberOfBytes": "20"
					},
					"t_bool": {
						"encoding": "inplace",
						"label": "bool",
						"numberOfBytes": "1"
					},
					"t_mapping(t_address,t_bool)": {
						"encoding": "mapping",
						"key": "t_address",
						"label": "mapping(address => bool)",
						"numberOfBytes": "32",
						"value": "t_bool"
					},
					"t_mapping(t_address,t_mapping(t_address,t_bool))": {
						"encoding": "mapping",
						"key": "t_address",
						"label": "mapping(address => mapping(address => bool))",
						"numberOfBytes": "32",
						"value": "t_mapping(t_address,t_bool)"
					},
					"t_mapping(t_address,t_uint256)": {
						"encoding": "mapping",
						"key": "t_address",
						"label": "mapping(address => uint256)",
						"numberOfBytes": "32",
						"value": "t_uint256"
					},
					"t_mapping(t_uint256,t_address)": {
						"encoding": "mapping",
						"key": "t_uint256",
						"label": "mapping(uint256 => address)",
						"numberOfBytes": "32",
						"value": "t_address"
					},
					"t_uint256": {
						"encoding": "inplace",
						"label": "uint256",
						"numberOfBytes": "32"
					}
				}
			},
			"userdoc": {
				"kind": "user",
				"methods": {},
				"version": 1
			}
		}
	}
}