{
	"ArrayTest3.sol": {
		"Array3": {
			"abi": [
				{
					"inputs": [],
					"name": "doSomething",
					"outputs": [],
					"stateMutability": "nonpayable",
					"type": "function"
				},
				{
					"inputs": [
						{
							"internalType": "uint256",
							"name": "",
							"type": "uint256"
						}
					],
					"name": "numbers",
					"outputs": [
						{
							"internalType": "uint256",
							"name": "",
							"type": "uint256"
						}
					],
					"stateMutability": "view",
					"type": "function"
				},
				{
					"inputs": [
						{
							"internalType": "uint256",
							"name": "index",
							"type": "uint256"
						}
					],
					"name": "remove1",
					"outputs": [],
					"stateMutability": "nonpayable",
					"type": "function"
				},
				{
					"inputs": [
						{
							"internalType": "uint256",
							"name": "index",
							"type": "uint256"
						}
					],
					"name": "remove2",
					"outputs": [],
					"stateMutability": "nonpayable",
					"type": "function"
				},
				{
					"inputs": [],
					"name": "test1",
					"outputs": [],
					"stateMutability": "nonpayable",
					"type": "function"
				},
				{
					"inputs": [],
					"name": "test2",
					"outputs": [],
					"stateMutability": "nonpayable",
					"type": "function"
				}
			],
			"devdoc": {
				"kind": "dev",
				"methods": {},
				"version": 1
			},
			"evm": {
				"assembly": "    /* \"ArrayTest3.sol\":75:2228  contract Array3{... */\n  mstore(0x40, 0x80)\n  callvalue\n  dup1\n  iszero\n  tag_1\n  jumpi\n  0x00\n  dup1\n  revert\ntag_1:\n  pop\n  dataSize(sub_0)\n  dup1\n  dataOffset(sub_0)\n  0x00\n  codecopy\n  0x00\n  return\nstop\n\nsub_0: assembly {\n        /* \"ArrayTest3.sol\":75:2228  contract Array3{... */\n      mstore(0x40, 0x80)\n      callvalue\n      dup1\n      iszero\n      tag_1\n      jumpi\n      0x00\n      dup1\n      revert\n    tag_1:\n      pop\n      jumpi(tag_2, lt(calldatasize, 0x04))\n      shr(0xe0, calldataload(0x00))\n      dup1\n      0x66e41cb7\n      eq\n      tag_3\n      jumpi\n      dup1\n      0x670ea637\n      eq\n      tag_4\n      jumpi\n      dup1\n      0x6b59084d\n      eq\n      tag_5\n      jumpi\n      dup1\n      0x82692679\n      eq\n      tag_6\n      jumpi\n      dup1\n      0xd39fa233\n      eq\n      tag_7\n      jumpi\n      dup1\n      0xe91e5843\n      eq\n      tag_8\n      jumpi\n    tag_2:\n      0x00\n      dup1\n      revert\n        /* \"ArrayTest3.sol\":1949:2221  function test2() public{... */\n    tag_3:\n      tag_9\n      tag_10\n      jump\t// in\n    tag_9:\n      stop\n        /* \"ArrayTest3.sol\":1053:1296  function remove1(uint index) public{... */\n    tag_4:\n      tag_11\n      0x04\n      dup1\n      calldatasize\n      sub\n      dup2\n      add\n      swap1\n      tag_12\n      swap2\n      swap1\n      tag_13\n      jump\t// in\n    tag_12:\n      tag_14\n      jump\t// in\n    tag_11:\n      stop\n        /* \"ArrayTest3.sol\":1671:1943  function test1() public{... */\n    tag_5:\n      tag_15\n      tag_16\n      jump\t// in\n    tag_15:\n      stop\n        /* \"ArrayTest3.sol\":129:439  function doSomething() public{... */\n    tag_6:\n      tag_17\n      tag_18\n      jump\t// in\n    tag_17:\n      stop\n        /* \"ArrayTest3.sol\":101:122  uint[] public numbers */\n    tag_7:\n      tag_19\n      0x04\n      dup1\n      calldatasize\n      sub\n      dup2\n      add\n      swap1\n      tag_20\n      swap2\n      swap1\n      tag_13\n      jump\t// in\n    tag_20:\n      tag_21\n      jump\t// in\n    tag_19:\n      mload(0x40)\n      tag_22\n      swap2\n      swap1\n      tag_23\n      jump\t// in\n    tag_22:\n      mload(0x40)\n      dup1\n      swap2\n      sub\n      swap1\n      return\n        /* \"ArrayTest3.sol\":1352:1665  function remove2(uint index) public{... */\n    tag_8:\n      tag_24\n      0x04\n      dup1\n      calldatasize\n      sub\n      dup2\n      add\n      swap1\n      tag_25\n      swap2\n      swap1\n      tag_13\n      jump\t// in\n    tag_25:\n      tag_26\n      jump\t// in\n    tag_24:\n      stop\n        /* \"ArrayTest3.sol\":1949:2221  function test2() public{... */\n    tag_10:\n        /* \"ArrayTest3.sol\":1982:2003  numbers = [1,2,3,4,5] */\n      mload(0x40)\n      dup1\n      0xa0\n      add\n      0x40\n      mstore\n      dup1\n        /* \"ArrayTest3.sol\":1993:1994  1 */\n      0x01\n        /* \"ArrayTest3.sol\":1982:2003  numbers = [1,2,3,4,5] */\n      0xff\n      and\n      dup2\n      mstore\n      0x20\n      add\n        /* \"ArrayTest3.sol\":1995:1996  2 */\n      0x02\n        /* \"ArrayTest3.sol\":1982:2003  numbers = [1,2,3,4,5] */\n      0xff\n      and\n      dup2\n      mstore\n      0x20\n      add\n        /* \"ArrayTest3.sol\":1997:1998  3 */\n      0x03\n        /* \"ArrayTest3.sol\":1982:2003  numbers = [1,2,3,4,5] */\n      0xff\n      and\n      dup2\n      mstore\n      0x20\n      add\n        /* \"ArrayTest3.sol\":1999:2000  4 */\n      0x04\n        /* \"ArrayTest3.sol\":1982:2003  numbers = [1,2,3,4,5] */\n      0xff\n      and\n      dup2\n      mstore\n      0x20\n      add\n        /* \"ArrayTest3.sol\":2001:2002  5 */\n      0x05\n        /* \"ArrayTest3.sol\":1982:2003  numbers = [1,2,3,4,5] */\n      0xff\n      and\n      dup2\n      mstore\n      pop\n        /* \"ArrayTest3.sol\":1982:1989  numbers */\n      0x00\n        /* \"ArrayTest3.sol\":1982:2003  numbers = [1,2,3,4,5] */\n      swap1\n      0x05\n      tag_28\n      swap3\n      swap2\n      swap1\n      tag_29\n      jump\t// in\n    tag_28:\n      pop\n        /* \"ArrayTest3.sol\":2013:2023  remove2(2) */\n      tag_30\n        /* \"ArrayTest3.sol\":2021:2022  2 */\n      0x02\n        /* \"ArrayTest3.sol\":2013:2020  remove2 */\n      tag_26\n        /* \"ArrayTest3.sol\":2013:2023  remove2(2) */\n      jump\t// in\n    tag_30:\n        /* \"ArrayTest3.sol\":2079:2080  4 */\n      0x04\n        /* \"ArrayTest3.sol\":2061:2068  numbers */\n      0x00\n        /* \"ArrayTest3.sol\":2061:2075  numbers.length */\n      dup1\n      sload\n      swap1\n      pop\n        /* \"ArrayTest3.sol\":2061:2080  numbers.length == 4 */\n      eq\n        /* \"ArrayTest3.sol\":2054:2081  assert(numbers.length == 4) */\n      tag_31\n      jumpi\n      tag_32\n      tag_33\n      jump\t// in\n    tag_32:\n    tag_31:\n        /* \"ArrayTest3.sol\":2112:2113  1 */\n      0x01\n        /* \"ArrayTest3.sol\":2098:2105  numbers */\n      0x00\n        /* \"ArrayTest3.sol\":2106:2107  0 */\n      dup1\n        /* \"ArrayTest3.sol\":2098:2108  numbers[0] */\n      dup2\n      sload\n      dup2\n      lt\n      tag_34\n      jumpi\n      tag_35\n      tag_36\n      jump\t// in\n    tag_35:\n    tag_34:\n      swap1\n      0x00\n      mstore\n      keccak256(0x00, 0x20)\n      add\n      sload\n        /* \"ArrayTest3.sol\":2098:2113  numbers[0] == 1 */\n      eq\n        /* \"ArrayTest3.sol\":2091:2114  assert(numbers[0] == 1) */\n      tag_38\n      jumpi\n      tag_39\n      tag_33\n      jump\t// in\n    tag_39:\n    tag_38:\n        /* \"ArrayTest3.sol\":2145:2146  2 */\n      0x02\n        /* \"ArrayTest3.sol\":2131:2138  numbers */\n      0x00\n        /* \"ArrayTest3.sol\":2139:2140  1 */\n      0x01\n        /* \"ArrayTest3.sol\":2131:2141  numbers[1] */\n      dup2\n      sload\n      dup2\n      lt\n      tag_40\n      jumpi\n      tag_41\n      tag_36\n      jump\t// in\n    tag_41:\n    tag_40:\n      swap1\n      0x00\n      mstore\n      keccak256(0x00, 0x20)\n      add\n      sload\n        /* \"ArrayTest3.sol\":2131:2146  numbers[1] == 2 */\n      eq\n        /* \"ArrayTest3.sol\":2124:2147  assert(numbers[1] == 2) */\n      tag_43\n      jumpi\n      tag_44\n      tag_33\n      jump\t// in\n    tag_44:\n    tag_43:\n        /* \"ArrayTest3.sol\":2178:2179  4 */\n      0x04\n        /* \"ArrayTest3.sol\":2164:2171  numbers */\n      0x00\n        /* \"ArrayTest3.sol\":2172:2173  2 */\n      0x02\n        /* \"ArrayTest3.sol\":2164:2174  numbers[2] */\n      dup2\n      sload\n      dup2\n      lt\n      tag_45\n      jumpi\n      tag_46\n      tag_36\n      jump\t// in\n    tag_46:\n    tag_45:\n      swap1\n      0x00\n      mstore\n      keccak256(0x00, 0x20)\n      add\n      sload\n        /* \"ArrayTest3.sol\":2164:2179  numbers[2] == 4 */\n      eq\n        /* \"ArrayTest3.sol\":2157:2180  assert(numbers[2] == 4) */\n      tag_48\n      jumpi\n      tag_49\n      tag_33\n      jump\t// in\n    tag_49:\n    tag_48:\n        /* \"ArrayTest3.sol\":2211:2212  5 */\n      0x05\n        /* \"ArrayTest3.sol\":2197:2204  numbers */\n      0x00\n        /* \"ArrayTest3.sol\":2205:2206  3 */\n      0x03\n        /* \"ArrayTest3.sol\":2197:2207  numbers[3] */\n      dup2\n      sload\n      dup2\n      lt\n      tag_50\n      jumpi\n      tag_51\n      tag_36\n      jump\t// in\n    tag_51:\n    tag_50:\n      swap1\n      0x00\n      mstore\n      keccak256(0x00, 0x20)\n      add\n      sload\n        /* \"ArrayTest3.sol\":2197:2212  numbers[3] == 5 */\n      eq\n        /* \"ArrayTest3.sol\":2190:2213  assert(numbers[3] == 5) */\n      tag_53\n      jumpi\n      tag_54\n      tag_33\n      jump\t// in\n    tag_54:\n    tag_53:\n        /* \"ArrayTest3.sol\":1949:2221  function test2() public{... */\n      jump\t// out\n        /* \"ArrayTest3.sol\":1053:1296  function remove1(uint index) public{... */\n    tag_14:\n        /* \"ArrayTest3.sol\":1098:1109  uint length */\n      0x00\n        /* \"ArrayTest3.sol\":1112:1119  numbers */\n      dup1\n        /* \"ArrayTest3.sol\":1112:1126  numbers.length */\n      dup1\n      sload\n      swap1\n      pop\n        /* \"ArrayTest3.sol\":1098:1126  uint length = numbers.length */\n      swap1\n      pop\n        /* \"ArrayTest3.sol\":1157:1158  1 */\n      0x01\n        /* \"ArrayTest3.sol\":1148:1154  length */\n      dup2\n        /* \"ArrayTest3.sol\":1148:1158  length - 1 */\n      tag_56\n      swap2\n      swap1\n      tag_57\n      jump\t// in\n    tag_56:\n        /* \"ArrayTest3.sol\":1139:1144  index */\n      dup3\n        /* \"ArrayTest3.sol\":1139:1158  index == length - 1 */\n      sub\n        /* \"ArrayTest3.sol\":1136:1290  if(index == length - 1){... */\n      tag_58\n      jumpi\n        /* \"ArrayTest3.sol\":1173:1180  numbers */\n      0x00\n        /* \"ArrayTest3.sol\":1173:1186  numbers.pop() */\n      dup1\n      sload\n      dup1\n      tag_59\n      jumpi\n      tag_60\n      tag_61\n      jump\t// in\n    tag_60:\n    tag_59:\n      0x01\n      swap1\n      sub\n      dup2\n      dup2\n      swap1\n      0x00\n      mstore\n      keccak256(0x00, 0x20)\n      add\n      0x00\n      swap1\n      sstore\n      swap1\n      sstore\n        /* \"ArrayTest3.sol\":1136:1290  if(index == length - 1){... */\n      jump(tag_63)\n    tag_58:\n        /* \"ArrayTest3.sol\":1233:1240  numbers */\n      0x00\n        /* \"ArrayTest3.sol\":1250:1251  1 */\n      0x01\n        /* \"ArrayTest3.sol\":1241:1247  length */\n      dup3\n        /* \"ArrayTest3.sol\":1241:1251  length - 1 */\n      tag_64\n      swap2\n      swap1\n      tag_57\n      jump\t// in\n    tag_64:\n        /* \"ArrayTest3.sol\":1233:1252  numbers[length - 1] */\n      dup2\n      sload\n      dup2\n      lt\n      tag_65\n      jumpi\n      tag_66\n      tag_36\n      jump\t// in\n    tag_66:\n    tag_65:\n      swap1\n      0x00\n      mstore\n      keccak256(0x00, 0x20)\n      add\n      sload\n        /* \"ArrayTest3.sol\":1216:1223  numbers */\n      0x00\n        /* \"ArrayTest3.sol\":1224:1229  index */\n      dup4\n        /* \"ArrayTest3.sol\":1216:1230  numbers[index] */\n      dup2\n      sload\n      dup2\n      lt\n      tag_68\n      jumpi\n      tag_69\n      tag_36\n      jump\t// in\n    tag_69:\n    tag_68:\n      swap1\n      0x00\n      mstore\n      keccak256(0x00, 0x20)\n      add\n        /* \"ArrayTest3.sol\":1216:1252  numbers[index] = numbers[length - 1] */\n      dup2\n      swap1\n      sstore\n      pop\n        /* \"ArrayTest3.sol\":1266:1273  numbers */\n      0x00\n        /* \"ArrayTest3.sol\":1266:1279  numbers.pop() */\n      dup1\n      sload\n      dup1\n      tag_71\n      jumpi\n      tag_72\n      tag_61\n      jump\t// in\n    tag_72:\n    tag_71:\n      0x01\n      swap1\n      sub\n      dup2\n      dup2\n      swap1\n      0x00\n      mstore\n      keccak256(0x00, 0x20)\n      add\n      0x00\n      swap1\n      sstore\n      swap1\n      sstore\n        /* \"ArrayTest3.sol\":1136:1290  if(index == length - 1){... */\n    tag_63:\n        /* \"ArrayTest3.sol\":1088:1296  {... */\n      pop\n        /* \"ArrayTest3.sol\":1053:1296  function remove1(uint index) public{... */\n      pop\n      jump\t// out\n        /* \"ArrayTest3.sol\":1671:1943  function test1() public{... */\n    tag_16:\n        /* \"ArrayTest3.sol\":1704:1725  numbers = [1,2,3,4,5] */\n      mload(0x40)\n      dup1\n      0xa0\n      add\n      0x40\n      mstore\n      dup1\n        /* \"ArrayTest3.sol\":1715:1716  1 */\n      0x01\n        /* \"ArrayTest3.sol\":1704:1725  numbers = [1,2,3,4,5] */\n      0xff\n      and\n      dup2\n      mstore\n      0x20\n      add\n        /* \"ArrayTest3.sol\":1717:1718  2 */\n      0x02\n        /* \"ArrayTest3.sol\":1704:1725  numbers = [1,2,3,4,5] */\n      0xff\n      and\n      dup2\n      mstore\n      0x20\n      add\n        /* \"ArrayTest3.sol\":1719:1720  3 */\n      0x03\n        /* \"ArrayTest3.sol\":1704:1725  numbers = [1,2,3,4,5] */\n      0xff\n      and\n      dup2\n      mstore\n      0x20\n      add\n        /* \"ArrayTest3.sol\":1721:1722  4 */\n      0x04\n        /* \"ArrayTest3.sol\":1704:1725  numbers = [1,2,3,4,5] */\n      0xff\n      and\n      dup2\n      mstore\n      0x20\n      add\n        /* \"ArrayTest3.sol\":1723:1724  5 */\n      0x05\n        /* \"ArrayTest3.sol\":1704:1725  numbers = [1,2,3,4,5] */\n      0xff\n      and\n      dup2\n      mstore\n      pop\n        /* \"ArrayTest3.sol\":1704:1711  numbers */\n      0x00\n        /* \"ArrayTest3.sol\":1704:1725  numbers = [1,2,3,4,5] */\n      swap1\n      0x05\n      tag_75\n      swap3\n      swap2\n      swap1\n      tag_29\n      jump\t// in\n    tag_75:\n      pop\n        /* \"ArrayTest3.sol\":1735:1745  remove1(2) */\n      tag_76\n        /* \"ArrayTest3.sol\":1743:1744  2 */\n      0x02\n        /* \"ArrayTest3.sol\":1735:1742  remove1 */\n      tag_14\n        /* \"ArrayTest3.sol\":1735:1745  remove1(2) */\n      jump\t// in\n    tag_76:\n        /* \"ArrayTest3.sol\":1801:1802  4 */\n      0x04\n        /* \"ArrayTest3.sol\":1783:1790  numbers */\n      0x00\n        /* \"ArrayTest3.sol\":1783:1797  numbers.length */\n      dup1\n      sload\n      swap1\n      pop\n        /* \"ArrayTest3.sol\":1783:1802  numbers.length == 4 */\n      eq\n        /* \"ArrayTest3.sol\":1776:1803  assert(numbers.length == 4) */\n      tag_77\n      jumpi\n      tag_78\n      tag_33\n      jump\t// in\n    tag_78:\n    tag_77:\n        /* \"ArrayTest3.sol\":1834:1835  1 */\n      0x01\n        /* \"ArrayTest3.sol\":1820:1827  numbers */\n      0x00\n        /* \"ArrayTest3.sol\":1828:1829  0 */\n      dup1\n        /* \"ArrayTest3.sol\":1820:1830  numbers[0] */\n      dup2\n      sload\n      dup2\n      lt\n      tag_79\n      jumpi\n      tag_80\n      tag_36\n      jump\t// in\n    tag_80:\n    tag_79:\n      swap1\n      0x00\n      mstore\n      keccak256(0x00, 0x20)\n      add\n      sload\n        /* \"ArrayTest3.sol\":1820:1835  numbers[0] == 1 */\n      eq\n        /* \"ArrayTest3.sol\":1813:1836  assert(numbers[0] == 1) */\n      tag_82\n      jumpi\n      tag_83\n      tag_33\n      jump\t// in\n    tag_83:\n    tag_82:\n        /* \"ArrayTest3.sol\":1867:1868  2 */\n      0x02\n        /* \"ArrayTest3.sol\":1853:1860  numbers */\n      0x00\n        /* \"ArrayTest3.sol\":1861:1862  1 */\n      0x01\n        /* \"ArrayTest3.sol\":1853:1863  numbers[1] */\n      dup2\n      sload\n      dup2\n      lt\n      tag_84\n      jumpi\n      tag_85\n      tag_36\n      jump\t// in\n    tag_85:\n    tag_84:\n      swap1\n      0x00\n      mstore\n      keccak256(0x00, 0x20)\n      add\n      sload\n        /* \"ArrayTest3.sol\":1853:1868  numbers[1] == 2 */\n      eq\n        /* \"ArrayTest3.sol\":1846:1869  assert(numbers[1] == 2) */\n      tag_87\n      jumpi\n      tag_88\n      tag_33\n      jump\t// in\n    tag_88:\n    tag_87:\n        /* \"ArrayTest3.sol\":1900:1901  4 */\n      0x04\n        /* \"ArrayTest3.sol\":1886:1893  numbers */\n      0x00\n        /* \"ArrayTest3.sol\":1894:1895  2 */\n      0x02\n        /* \"ArrayTest3.sol\":1886:1896  numbers[2] */\n      dup2\n      sload\n      dup2\n      lt\n      tag_89\n      jumpi\n      tag_90\n      tag_36\n      jump\t// in\n    tag_90:\n    tag_89:\n      swap1\n      0x00\n      mstore\n      keccak256(0x00, 0x20)\n      add\n      sload\n        /* \"ArrayTest3.sol\":1886:1901  numbers[2] == 4 */\n      eq\n        /* \"ArrayTest3.sol\":1879:1902  assert(numbers[2] == 4) */\n      tag_92\n      jumpi\n      tag_93\n      tag_33\n      jump\t// in\n    tag_93:\n    tag_92:\n        /* \"ArrayTest3.sol\":1933:1934  5 */\n      0x05\n        /* \"ArrayTest3.sol\":1919:1926  numbers */\n      0x00\n        /* \"ArrayTest3.sol\":1927:1928  3 */\n      0x03\n        /* \"ArrayTest3.sol\":1919:1929  numbers[3] */\n      dup2\n      sload\n      dup2\n      lt\n      tag_94\n      jumpi\n      tag_95\n      tag_36\n      jump\t// in\n    tag_95:\n    tag_94:\n      swap1\n      0x00\n      mstore\n      keccak256(0x00, 0x20)\n      add\n      sload\n        /* \"ArrayTest3.sol\":1919:1934  numbers[3] == 5 */\n      eq\n        /* \"ArrayTest3.sol\":1912:1935  assert(numbers[3] == 5) */\n      tag_97\n      jumpi\n      tag_98\n      tag_33\n      jump\t// in\n    tag_98:\n    tag_97:\n        /* \"ArrayTest3.sol\":1671:1943  function test1() public{... */\n      jump\t// out\n        /* \"ArrayTest3.sol\":129:439  function doSomething() public{... */\n    tag_18:\n        /* \"ArrayTest3.sol\":168:179  uint length */\n      0x00\n        /* \"ArrayTest3.sol\":182:189  numbers */\n      dup1\n        /* \"ArrayTest3.sol\":182:196  numbers.length */\n      dup1\n      sload\n      swap1\n      pop\n        /* \"ArrayTest3.sol\":168:196  uint length = numbers.length */\n      swap1\n      pop\n        /* \"ArrayTest3.sol\":211:217  uint i */\n      0x00\n        /* \"ArrayTest3.sol\":206:433  for (uint i = 0; i < length; i++) {... */\n    tag_100:\n        /* \"ArrayTest3.sol\":227:233  length */\n      dup2\n        /* \"ArrayTest3.sol\":223:224  i */\n      dup2\n        /* \"ArrayTest3.sol\":223:233  i < length */\n      lt\n        /* \"ArrayTest3.sol\":206:433  for (uint i = 0; i < length; i++) {... */\n      iszero\n      tag_101\n      jumpi\n        /* \"ArrayTest3.sol\":235:238  i++ */\n      dup1\n      dup1\n      tag_103\n      swap1\n      tag_104\n      jump\t// in\n    tag_103:\n      swap2\n      pop\n      pop\n        /* \"ArrayTest3.sol\":206:433  for (uint i = 0; i < length; i++) {... */\n      jump(tag_100)\n    tag_101:\n      pop\n        /* \"ArrayTest3.sol\":158:439  {... */\n      pop\n        /* \"ArrayTest3.sol\":129:439  function doSomething() public{... */\n      jump\t// out\n        /* \"ArrayTest3.sol\":101:122  uint[] public numbers */\n    tag_21:\n      0x00\n      dup2\n      dup2\n      sload\n      dup2\n      lt\n      tag_105\n      jumpi\n      0x00\n      dup1\n      revert\n    tag_105:\n      swap1\n      0x00\n      mstore\n      keccak256(0x00, 0x20)\n      add\n      0x00\n      swap2\n      pop\n      swap1\n      pop\n      sload\n      dup2\n      jump\t// out\n        /* \"ArrayTest3.sol\":1352:1665  function remove2(uint index) public{... */\n    tag_26:\n        /* \"ArrayTest3.sol\":1397:1408  uint length */\n      0x00\n        /* \"ArrayTest3.sol\":1411:1418  numbers */\n      dup1\n        /* \"ArrayTest3.sol\":1411:1425  numbers.length */\n      dup1\n      sload\n      swap1\n      pop\n        /* \"ArrayTest3.sol\":1397:1425  uint length = numbers.length */\n      swap1\n      pop\n        /* \"ArrayTest3.sol\":1457:1458  1 */\n      0x01\n        /* \"ArrayTest3.sol\":1448:1454  length */\n      dup2\n        /* \"ArrayTest3.sol\":1448:1458  length - 1 */\n      tag_108\n      swap2\n      swap1\n      tag_57\n      jump\t// in\n    tag_108:\n        /* \"ArrayTest3.sol\":1438:1443  index */\n      dup3\n        /* \"ArrayTest3.sol\":1438:1458  index  == length - 1 */\n      sub\n        /* \"ArrayTest3.sol\":1435:1659  if(index  == length - 1){... */\n      tag_109\n      jumpi\n        /* \"ArrayTest3.sol\":1473:1480  numbers */\n      0x00\n        /* \"ArrayTest3.sol\":1473:1486  numbers.pop() */\n      dup1\n      sload\n      dup1\n      tag_110\n      jumpi\n      tag_111\n      tag_61\n      jump\t// in\n    tag_111:\n    tag_110:\n      0x01\n      swap1\n      sub\n      dup2\n      dup2\n      swap1\n      0x00\n      mstore\n      keccak256(0x00, 0x20)\n      add\n      0x00\n      swap1\n      sstore\n      swap1\n      sstore\n        /* \"ArrayTest3.sol\":1435:1659  if(index  == length - 1){... */\n      jump(tag_113)\n    tag_109:\n        /* \"ArrayTest3.sol\":1521:1527  uint i */\n      0x00\n        /* \"ArrayTest3.sol\":1530:1535  index */\n      dup3\n        /* \"ArrayTest3.sol\":1521:1535  uint i = index */\n      swap1\n      pop\n        /* \"ArrayTest3.sol\":1516:1622  for (uint i = index; i < numbers.length; i++) {... */\n    tag_114:\n        /* \"ArrayTest3.sol\":1541:1548  numbers */\n      0x00\n        /* \"ArrayTest3.sol\":1541:1555  numbers.length */\n      dup1\n      sload\n      swap1\n      pop\n        /* \"ArrayTest3.sol\":1537:1538  i */\n      dup2\n        /* \"ArrayTest3.sol\":1537:1555  i < numbers.length */\n      lt\n        /* \"ArrayTest3.sol\":1516:1622  for (uint i = index; i < numbers.length; i++) {... */\n      iszero\n      tag_115\n      jumpi\n        /* \"ArrayTest3.sol\":1593:1600  numbers */\n      0x00\n        /* \"ArrayTest3.sol\":1605:1606  1 */\n      0x01\n        /* \"ArrayTest3.sol\":1601:1602  i */\n      dup3\n        /* \"ArrayTest3.sol\":1601:1606  i + 1 */\n      tag_117\n      swap2\n      swap1\n      tag_118\n      jump\t// in\n    tag_117:\n        /* \"ArrayTest3.sol\":1593:1607  numbers[i + 1] */\n      dup2\n      sload\n      dup2\n      lt\n      tag_119\n      jumpi\n      tag_120\n      tag_36\n      jump\t// in\n    tag_120:\n    tag_119:\n      swap1\n      0x00\n      mstore\n      keccak256(0x00, 0x20)\n      add\n      sload\n        /* \"ArrayTest3.sol\":1580:1587  numbers */\n      0x00\n        /* \"ArrayTest3.sol\":1588:1589  i */\n      dup3\n        /* \"ArrayTest3.sol\":1580:1590  numbers[i] */\n      dup2\n      sload\n      dup2\n      lt\n      tag_122\n      jumpi\n      tag_123\n      tag_36\n      jump\t// in\n    tag_123:\n    tag_122:\n      swap1\n      0x00\n      mstore\n      keccak256(0x00, 0x20)\n      add\n        /* \"ArrayTest3.sol\":1580:1607  numbers[i] = numbers[i + 1] */\n      dup2\n      swap1\n      sstore\n      pop\n        /* \"ArrayTest3.sol\":1557:1560  i++ */\n      dup1\n      dup1\n      tag_125\n      swap1\n      tag_104\n      jump\t// in\n    tag_125:\n      swap2\n      pop\n      pop\n        /* \"ArrayTest3.sol\":1516:1622  for (uint i = index; i < numbers.length; i++) {... */\n      jump(tag_114)\n    tag_115:\n      pop\n        /* \"ArrayTest3.sol\":1635:1642  numbers */\n      0x00\n        /* \"ArrayTest3.sol\":1635:1648  numbers.pop() */\n      dup1\n      sload\n      dup1\n      tag_126\n      jumpi\n      tag_127\n      tag_61\n      jump\t// in\n    tag_127:\n    tag_126:\n      0x01\n      swap1\n      sub\n      dup2\n      dup2\n      swap1\n      0x00\n      mstore\n      keccak256(0x00, 0x20)\n      add\n      0x00\n      swap1\n      sstore\n      swap1\n      sstore\n        /* \"ArrayTest3.sol\":1435:1659  if(index  == length - 1){... */\n    tag_113:\n        /* \"ArrayTest3.sol\":1387:1665  {... */\n      pop\n        /* \"ArrayTest3.sol\":1352:1665  function remove2(uint index) public{... */\n      pop\n      jump\t// out\n    tag_29:\n      dup3\n      dup1\n      sload\n      dup3\n      dup3\n      sstore\n      swap1\n      0x00\n      mstore\n      keccak256(0x00, 0x20)\n      swap1\n      dup2\n      add\n      swap3\n      dup3\n      iszero\n      tag_129\n      jumpi\n      swap2\n      0x20\n      mul\n      dup3\n      add\n    tag_130:\n      dup3\n      dup2\n      gt\n      iszero\n      tag_131\n      jumpi\n      dup3\n      mload\n      dup3\n      swap1\n      0xff\n      and\n      swap1\n      sstore\n      swap2\n      0x20\n      add\n      swap2\n      swap1\n      0x01\n      add\n      swap1\n      jump(tag_130)\n    tag_131:\n    tag_129:\n      pop\n      swap1\n      pop\n      tag_132\n      swap2\n      swap1\n      tag_133\n      jump\t// in\n    tag_132:\n      pop\n      swap1\n      jump\t// out\n    tag_133:\n    tag_134:\n      dup1\n      dup3\n      gt\n      iszero\n      tag_135\n      jumpi\n      0x00\n      dup2\n      0x00\n      swap1\n      sstore\n      pop\n      0x01\n      add\n      jump(tag_134)\n    tag_135:\n      pop\n      swap1\n      jump\t// out\n        /* \"#utility.yul\":88:205   */\n    tag_137:\n        /* \"#utility.yul\":197:198   */\n      0x00\n        /* \"#utility.yul\":194:195   */\n      dup1\n        /* \"#utility.yul\":187:199   */\n      revert\n        /* \"#utility.yul\":334:411   */\n    tag_139:\n        /* \"#utility.yul\":371:378   */\n      0x00\n        /* \"#utility.yul\":400:405   */\n      dup2\n        /* \"#utility.yul\":389:405   */\n      swap1\n      pop\n        /* \"#utility.yul\":334:411   */\n      swap2\n      swap1\n      pop\n      jump\t// out\n        /* \"#utility.yul\":417:539   */\n    tag_140:\n        /* \"#utility.yul\":490:514   */\n      tag_150\n        /* \"#utility.yul\":508:513   */\n      dup2\n        /* \"#utility.yul\":490:514   */\n      tag_139\n      jump\t// in\n    tag_150:\n        /* \"#utility.yul\":483:488   */\n      dup2\n        /* \"#utility.yul\":480:515   */\n      eq\n        /* \"#utility.yul\":470:533   */\n      tag_151\n      jumpi\n        /* \"#utility.yul\":529:530   */\n      0x00\n        /* \"#utility.yul\":526:527   */\n      dup1\n        /* \"#utility.yul\":519:531   */\n      revert\n        /* \"#utility.yul\":470:533   */\n    tag_151:\n        /* \"#utility.yul\":417:539   */\n      pop\n      jump\t// out\n        /* \"#utility.yul\":545:684   */\n    tag_141:\n        /* \"#utility.yul\":591:596   */\n      0x00\n        /* \"#utility.yul\":629:635   */\n      dup2\n        /* \"#utility.yul\":616:636   */\n      calldataload\n        /* \"#utility.yul\":607:636   */\n      swap1\n      pop\n        /* \"#utility.yul\":645:678   */\n      tag_153\n        /* \"#utility.yul\":672:677   */\n      dup2\n        /* \"#utility.yul\":645:678   */\n      tag_140\n      jump\t// in\n    tag_153:\n        /* \"#utility.yul\":545:684   */\n      swap3\n      swap2\n      pop\n      pop\n      jump\t// out\n        /* \"#utility.yul\":690:1019   */\n    tag_13:\n        /* \"#utility.yul\":749:755   */\n      0x00\n        /* \"#utility.yul\":798:800   */\n      0x20\n        /* \"#utility.yul\":786:795   */\n      dup3\n        /* \"#utility.yul\":777:784   */\n      dup5\n        /* \"#utility.yul\":773:796   */\n      sub\n        /* \"#utility.yul\":769:801   */\n      slt\n        /* \"#utility.yul\":766:885   */\n      iszero\n      tag_155\n      jumpi\n        /* \"#utility.yul\":804:883   */\n      tag_156\n      tag_137\n      jump\t// in\n    tag_156:\n        /* \"#utility.yul\":766:885   */\n    tag_155:\n        /* \"#utility.yul\":924:925   */\n      0x00\n        /* \"#utility.yul\":949:1002   */\n      tag_157\n        /* \"#utility.yul\":994:1001   */\n      dup5\n        /* \"#utility.yul\":985:991   */\n      dup3\n        /* \"#utility.yul\":974:983   */\n      dup6\n        /* \"#utility.yul\":970:992   */\n      add\n        /* \"#utility.yul\":949:1002   */\n      tag_141\n      jump\t// in\n    tag_157:\n        /* \"#utility.yul\":939:1002   */\n      swap2\n      pop\n        /* \"#utility.yul\":895:1012   */\n      pop\n        /* \"#utility.yul\":690:1019   */\n      swap3\n      swap2\n      pop\n      pop\n      jump\t// out\n        /* \"#utility.yul\":1025:1143   */\n    tag_142:\n        /* \"#utility.yul\":1112:1136   */\n      tag_159\n        /* \"#utility.yul\":1130:1135   */\n      dup2\n        /* \"#utility.yul\":1112:1136   */\n      tag_139\n      jump\t// in\n    tag_159:\n        /* \"#utility.yul\":1107:1110   */\n      dup3\n        /* \"#utility.yul\":1100:1137   */\n      mstore\n        /* \"#utility.yul\":1025:1143   */\n      pop\n      pop\n      jump\t// out\n        /* \"#utility.yul\":1149:1371   */\n    tag_23:\n        /* \"#utility.yul\":1242:1246   */\n      0x00\n        /* \"#utility.yul\":1280:1282   */\n      0x20\n        /* \"#utility.yul\":1269:1278   */\n      dup3\n        /* \"#utility.yul\":1265:1283   */\n      add\n        /* \"#utility.yul\":1257:1283   */\n      swap1\n      pop\n        /* \"#utility.yul\":1293:1364   */\n      tag_161\n        /* \"#utility.yul\":1361:1362   */\n      0x00\n        /* \"#utility.yul\":1350:1359   */\n      dup4\n        /* \"#utility.yul\":1346:1363   */\n      add\n        /* \"#utility.yul\":1337:1343   */\n      dup5\n        /* \"#utility.yul\":1293:1364   */\n      tag_142\n      jump\t// in\n    tag_161:\n        /* \"#utility.yul\":1149:1371   */\n      swap3\n      swap2\n      pop\n      pop\n      jump\t// out\n        /* \"#utility.yul\":1377:1557   */\n    tag_33:\n        /* \"#utility.yul\":1425:1502   */\n      0x4e487b7100000000000000000000000000000000000000000000000000000000\n        /* \"#utility.yul\":1422:1423   */\n      0x00\n        /* \"#utility.yul\":1415:1503   */\n      mstore\n        /* \"#utility.yul\":1522:1526   */\n      0x01\n        /* \"#utility.yul\":1519:1520   */\n      0x04\n        /* \"#utility.yul\":1512:1527   */\n      mstore\n        /* \"#utility.yul\":1546:1550   */\n      0x24\n        /* \"#utility.yul\":1543:1544   */\n      0x00\n        /* \"#utility.yul\":1536:1551   */\n      revert\n        /* \"#utility.yul\":1563:1743   */\n    tag_36:\n        /* \"#utility.yul\":1611:1688   */\n      0x4e487b7100000000000000000000000000000000000000000000000000000000\n        /* \"#utility.yul\":1608:1609   */\n      0x00\n        /* \"#utility.yul\":1601:1689   */\n      mstore\n        /* \"#utility.yul\":1708:1712   */\n      0x32\n        /* \"#utility.yul\":1705:1706   */\n      0x04\n        /* \"#utility.yul\":1698:1713   */\n      mstore\n        /* \"#utility.yul\":1732:1736   */\n      0x24\n        /* \"#utility.yul\":1729:1730   */\n      0x00\n        /* \"#utility.yul\":1722:1737   */\n      revert\n        /* \"#utility.yul\":1749:1929   */\n    tag_143:\n        /* \"#utility.yul\":1797:1874   */\n      0x4e487b7100000000000000000000000000000000000000000000000000000000\n        /* \"#utility.yul\":1794:1795   */\n      0x00\n        /* \"#utility.yul\":1787:1875   */\n      mstore\n        /* \"#utility.yul\":1894:1898   */\n      0x11\n        /* \"#utility.yul\":1891:1892   */\n      0x04\n        /* \"#utility.yul\":1884:1899   */\n      mstore\n        /* \"#utility.yul\":1918:1922   */\n      0x24\n        /* \"#utility.yul\":1915:1916   */\n      0x00\n        /* \"#utility.yul\":1908:1923   */\n      revert\n        /* \"#utility.yul\":1935:2129   */\n    tag_57:\n        /* \"#utility.yul\":1975:1979   */\n      0x00\n        /* \"#utility.yul\":1995:2015   */\n      tag_166\n        /* \"#utility.yul\":2013:2014   */\n      dup3\n        /* \"#utility.yul\":1995:2015   */\n      tag_139\n      jump\t// in\n    tag_166:\n        /* \"#utility.yul\":1990:2015   */\n      swap2\n      pop\n        /* \"#utility.yul\":2029:2049   */\n      tag_167\n        /* \"#utility.yul\":2047:2048   */\n      dup4\n        /* \"#utility.yul\":2029:2049   */\n      tag_139\n      jump\t// in\n    tag_167:\n        /* \"#utility.yul\":2024:2049   */\n      swap3\n      pop\n        /* \"#utility.yul\":2073:2074   */\n      dup3\n        /* \"#utility.yul\":2070:2071   */\n      dup3\n        /* \"#utility.yul\":2066:2075   */\n      sub\n        /* \"#utility.yul\":2058:2075   */\n      swap1\n      pop\n        /* \"#utility.yul\":2097:2098   */\n      dup2\n        /* \"#utility.yul\":2091:2095   */\n      dup2\n        /* \"#utility.yul\":2088:2099   */\n      gt\n        /* \"#utility.yul\":2085:2122   */\n      iszero\n      tag_168\n      jumpi\n        /* \"#utility.yul\":2102:2120   */\n      tag_169\n      tag_143\n      jump\t// in\n    tag_169:\n        /* \"#utility.yul\":2085:2122   */\n    tag_168:\n        /* \"#utility.yul\":1935:2129   */\n      swap3\n      swap2\n      pop\n      pop\n      jump\t// out\n        /* \"#utility.yul\":2135:2315   */\n    tag_61:\n        /* \"#utility.yul\":2183:2260   */\n      0x4e487b7100000000000000000000000000000000000000000000000000000000\n        /* \"#utility.yul\":2180:2181   */\n      0x00\n        /* \"#utility.yul\":2173:2261   */\n      mstore\n        /* \"#utility.yul\":2280:2284   */\n      0x31\n        /* \"#utility.yul\":2277:2278   */\n      0x04\n        /* \"#utility.yul\":2270:2285   */\n      mstore\n        /* \"#utility.yul\":2304:2308   */\n      0x24\n        /* \"#utility.yul\":2301:2302   */\n      0x00\n        /* \"#utility.yul\":2294:2309   */\n      revert\n        /* \"#utility.yul\":2321:2554   */\n    tag_104:\n        /* \"#utility.yul\":2360:2363   */\n      0x00\n        /* \"#utility.yul\":2383:2407   */\n      tag_172\n        /* \"#utility.yul\":2401:2406   */\n      dup3\n        /* \"#utility.yul\":2383:2407   */\n      tag_139\n      jump\t// in\n    tag_172:\n        /* \"#utility.yul\":2374:2407   */\n      swap2\n      pop\n        /* \"#utility.yul\":2429:2495   */\n      0xffffffffffffffffffffffffffffffffffffffffffffffffffffffffffffffff\n        /* \"#utility.yul\":2422:2427   */\n      dup3\n        /* \"#utility.yul\":2419:2496   */\n      sub\n        /* \"#utility.yul\":2416:2519   */\n      tag_173\n      jumpi\n        /* \"#utility.yul\":2499:2517   */\n      tag_174\n      tag_143\n      jump\t// in\n    tag_174:\n        /* \"#utility.yul\":2416:2519   */\n    tag_173:\n        /* \"#utility.yul\":2546:2547   */\n      0x01\n        /* \"#utility.yul\":2539:2544   */\n      dup3\n        /* \"#utility.yul\":2535:2548   */\n      add\n        /* \"#utility.yul\":2528:2548   */\n      swap1\n      pop\n        /* \"#utility.yul\":2321:2554   */\n      swap2\n      swap1\n      pop\n      jump\t// out\n        /* \"#utility.yul\":2560:2751   */\n    tag_118:\n        /* \"#utility.yul\":2600:2603   */\n      0x00\n        /* \"#utility.yul\":2619:2639   */\n      tag_176\n        /* \"#utility.yul\":2637:2638   */\n      dup3\n        /* \"#utility.yul\":2619:2639   */\n      tag_139\n      jump\t// in\n    tag_176:\n        /* \"#utility.yul\":2614:2639   */\n      swap2\n      pop\n        /* \"#utility.yul\":2653:2673   */\n      tag_177\n        /* \"#utility.yul\":2671:2672   */\n      dup4\n        /* \"#utility.yul\":2653:2673   */\n      tag_139\n      jump\t// in\n    tag_177:\n        /* \"#utility.yul\":2648:2673   */\n      swap3\n      pop\n        /* \"#utility.yul\":2696:2697   */\n      dup3\n        /* \"#utility.yul\":2693:2694   */\n      dup3\n        /* \"#utility.yul\":2689:2698   */\n      add\n        /* \"#utility.yul\":2682:2698   */\n      swap1\n      pop\n        /* \"#utility.yul\":2717:2720   */\n      dup1\n        /* \"#utility.yul\":2714:2715   */\n      dup3\n        /* \"#utility.yul\":2711:2721   */\n      gt\n        /* \"#utility.yul\":2708:2744   */\n      iszero\n      tag_178\n      jumpi\n        /* \"#utility.yul\":2724:2742   */\n      tag_179\n      tag_143\n      jump\t// in\n    tag_179:\n        /* \"#utility.yul\":2708:2744   */\n    tag_178:\n        /* \"#utility.yul\":2560:2751   */\n      swap3\n      swap2\n      pop\n      pop\n      jump\t// out\n\n    auxdata: 0xa2646970667358221220cfe1f581520c4660199a1850992819ef09cfeac8cbc74ec19a8b78e944c310a264736f6c63430008110033\n}\n",
				"bytecode": {
					"linkReferences": {},
					"object": "608060405234801561001057600080fd5b506107e6806100206000396000f3fe608060405234801561001057600080fd5b50600436106100625760003560e01c806366e41cb714610067578063670ea637146100715780636b59084d1461008d5780638269267914610097578063d39fa233146100a1578063e91e5843146100d1575b600080fd5b61006f6100ed565b005b61008b600480360381019061008691906105ed565b61021a565b005b6100956102dd565b005b61009f61040a565b005b6100bb60048036038101906100b691906105ed565b610435565b6040516100c89190610629565b60405180910390f35b6100eb60048036038101906100e691906105ed565b610459565b005b6040518060a00160405280600160ff168152602001600260ff168152602001600360ff168152602001600460ff168152602001600560ff168152506000906005610138929190610543565b506101436002610459565b60046000805490501461015957610158610644565b5b60016000808154811061016f5761016e610673565b5b90600052602060002001541461018857610187610644565b5b6002600060018154811061019f5761019e610673565b5b9060005260206000200154146101b8576101b7610644565b5b600460006002815481106101cf576101ce610673565b5b9060005260206000200154146101e8576101e7610644565b5b600560006003815481106101ff576101fe610673565b5b90600052602060002001541461021857610217610644565b5b565b60008080549050905060018161023091906106d1565b820361026357600080548061024857610247610705565b5b600190038181906000526020600020016000905590556102d9565b600060018261027291906106d1565b8154811061028357610282610673565b5b9060005260206000200154600083815481106102a2576102a1610673565b5b906000526020600020018190555060008054806102c2576102c1610705565b5b600190038181906000526020600020016000905590555b5050565b6040518060a00160405280600160ff168152602001600260ff168152602001600360ff168152602001600460ff168152602001600560ff168152506000906005610328929190610543565b50610333600261021a565b60046000805490501461034957610348610644565b5b60016000808154811061035f5761035e610673565b5b90600052602060002001541461037857610377610644565b5b6002600060018154811061038f5761038e610673565b5b9060005260206000200154146103a8576103a7610644565b5b600460006002815481106103bf576103be610673565b5b9060005260206000200154146103d8576103d7610644565b5b600560006003815481106103ef576103ee610673565b5b90600052602060002001541461040857610407610644565b5b565b60008080549050905060005b8181101561043157808061042990610734565b915050610416565b5050565b6000818154811061044557600080fd5b906000526020600020016000915090505481565b60008080549050905060018161046f91906106d1565b82036104a257600080548061048757610486610705565b5b6001900381819060005260206000200160009055905561053f565b60008290505b6000805490508110156105155760006001826104c4919061077c565b815481106104d5576104d4610673565b5b9060005260206000200154600082815481106104f4576104f3610673565b5b9060005260206000200181905550808061050d90610734565b9150506104a8565b50600080548061052857610527610705565b5b600190038181906000526020600020016000905590555b5050565b828054828255906000526020600020908101928215610584579160200282015b82811115610583578251829060ff16905591602001919060010190610563565b5b5090506105919190610595565b5090565b5b808211156105ae576000816000905550600101610596565b5090565b600080fd5b6000819050919050565b6105ca816105b7565b81146105d557600080fd5b50565b6000813590506105e7816105c1565b92915050565b600060208284031215610603576106026105b2565b5b6000610611848285016105d8565b91505092915050565b610623816105b7565b82525050565b600060208201905061063e600083018461061a565b92915050565b7f4e487b7100000000000000000000000000000000000000000000000000000000600052600160045260246000fd5b7f4e487b7100000000000000000000000000000000000000000000000000000000600052603260045260246000fd5b7f4e487b7100000000000000000000000000000000000000000000000000000000600052601160045260246000fd5b60006106dc826105b7565b91506106e7836105b7565b92508282039050818111156106ff576106fe6106a2565b5b92915050565b7f4e487b7100000000000000000000000000000000000000000000000000000000600052603160045260246000fd5b600061073f826105b7565b91507fffffffffffffffffffffffffffffffffffffffffffffffffffffffffffffffff8203610771576107706106a2565b5b600182019050919050565b6000610787826105b7565b9150610792836105b7565b92508282019050808211156107aa576107a96106a2565b5b9291505056fea2646970667358221220cfe1f581520c4660199a1850992819ef09cfeac8cbc74ec19a8b78e944c310a264736f6c63430008110033",
					"opcodes": "PUSH1 0x80 PUSH1 0x40 MSTORE CALLVALUE DUP1 ISZERO PUSH2 0x10 JUMPI PUSH1 0x0 DUP1 REVERT JUMPDEST POP PUSH2 0x7E6 DUP1 PUSH2 0x20 PUSH1 0x0 CODECOPY PUSH1 0x0 RETURN INVALID PUSH1 0x80 PUSH1 0x40 MSTORE CALLVALUE DUP1 ISZERO PUSH2 0x10 JUMPI PUSH1 0x0 DUP1 REVERT JUMPDEST POP PUSH1 0x4 CALLDATASIZE LT PUSH2 0x62 JUMPI PUSH1 0x0 CALLDATALOAD PUSH1 0xE0 SHR DUP1 PUSH4 0x66E41CB7 EQ PUSH2 0x67 JUMPI DUP1 PUSH4 0x670EA637 EQ PUSH2 0x71 JUMPI DUP1 PUSH4 0x6B59084D EQ PUSH2 0x8D JUMPI DUP1 PUSH4 0x82692679 EQ PUSH2 0x97 JUMPI DUP1 PUSH4 0xD39FA233 EQ PUSH2 0xA1 JUMPI DUP1 PUSH4 0xE91E5843 EQ PUSH2 0xD1 JUMPI JUMPDEST PUSH1 0x0 DUP1 REVERT JUMPDEST PUSH2 0x6F PUSH2 0xED JUMP JUMPDEST STOP JUMPDEST PUSH2 0x8B PUSH1 0x4 DUP1 CALLDATASIZE SUB DUP2 ADD SWAP1 PUSH2 0x86 SWAP2 SWAP1 PUSH2 0x5ED JUMP JUMPDEST PUSH2 0x21A JUMP JUMPDEST STOP JUMPDEST PUSH2 0x95 PUSH2 0x2DD JUMP JUMPDEST STOP JUMPDEST PUSH2 0x9F PUSH2 0x40A JUMP JUMPDEST STOP JUMPDEST PUSH2 0xBB PUSH1 0x4 DUP1 CALLDATASIZE SUB DUP2 ADD SWAP1 PUSH2 0xB6 SWAP2 SWAP1 PUSH2 0x5ED JUMP JUMPDEST PUSH2 0x435 JUMP JUMPDEST PUSH1 0x40 MLOAD PUSH2 0xC8 SWAP2 SWAP1 PUSH2 0x629 JUMP JUMPDEST PUSH1 0x40 MLOAD DUP1 SWAP2 SUB SWAP1 RETURN JUMPDEST PUSH2 0xEB PUSH1 0x4 DUP1 CALLDATASIZE SUB DUP2 ADD SWAP1 PUSH2 0xE6 SWAP2 SWAP1 PUSH2 0x5ED JUMP JUMPDEST PUSH2 0x459 JUMP JUMPDEST STOP JUMPDEST PUSH1 0x40 MLOAD DUP1 PUSH1 0xA0 ADD PUSH1 0x40 MSTORE DUP1 PUSH1 0x1 PUSH1 0xFF AND DUP2 MSTORE PUSH1 0x20 ADD PUSH1 0x2 PUSH1 0xFF AND DUP2 MSTORE PUSH1 0x20 ADD PUSH1 0x3 PUSH1 0xFF AND DUP2 MSTORE PUSH1 0x20 ADD PUSH1 0x4 PUSH1 0xFF AND DUP2 MSTORE PUSH1 0x20 ADD PUSH1 0x5 PUSH1 0xFF AND DUP2 MSTORE POP PUSH1 0x0 SWAP1 PUSH1 0x5 PUSH2 0x138 SWAP3 SWAP2 SWAP1 PUSH2 0x543 JUMP JUMPDEST POP PUSH2 0x143 PUSH1 0x2 PUSH2 0x459 JUMP JUMPDEST PUSH1 0x4 PUSH1 0x0 DUP1 SLOAD SWAP1 POP EQ PUSH2 0x159 JUMPI PUSH2 0x158 PUSH2 0x644 JUMP JUMPDEST JUMPDEST PUSH1 0x1 PUSH1 0x0 DUP1 DUP2 SLOAD DUP2 LT PUSH2 0x16F JUMPI PUSH2 0x16E PUSH2 0x673 JUMP JUMPDEST JUMPDEST SWAP1 PUSH1 0x0 MSTORE PUSH1 0x20 PUSH1 0x0 KECCAK256 ADD SLOAD EQ PUSH2 0x188 JUMPI PUSH2 0x187 PUSH2 0x644 JUMP JUMPDEST JUMPDEST PUSH1 0x2 PUSH1 0x0 PUSH1 0x1 DUP2 SLOAD DUP2 LT PUSH2 0x19F JUMPI PUSH2 0x19E PUSH2 0x673 JUMP JUMPDEST JUMPDEST SWAP1 PUSH1 0x0 MSTORE PUSH1 0x20 PUSH1 0x0 KECCAK256 ADD SLOAD EQ PUSH2 0x1B8 JUMPI PUSH2 0x1B7 PUSH2 0x644 JUMP JUMPDEST JUMPDEST PUSH1 0x4 PUSH1 0x0 PUSH1 0x2 DUP2 SLOAD DUP2 LT PUSH2 0x1CF JUMPI PUSH2 0x1CE PUSH2 0x673 JUMP JUMPDEST JUMPDEST SWAP1 PUSH1 0x0 MSTORE PUSH1 0x20 PUSH1 0x0 KECCAK256 ADD SLOAD EQ PUSH2 0x1E8 JUMPI PUSH2 0x1E7 PUSH2 0x644 JUMP JUMPDEST JUMPDEST PUSH1 0x5 PUSH1 0x0 PUSH1 0x3 DUP2 SLOAD DUP2 LT PUSH2 0x1FF JUMPI PUSH2 0x1FE PUSH2 0x673 JUMP JUMPDEST JUMPDEST SWAP1 PUSH1 0x0 MSTORE PUSH1 0x20 PUSH1 0x0 KECCAK256 ADD SLOAD EQ PUSH2 0x218 JUMPI PUSH2 0x217 PUSH2 0x644 JUMP JUMPDEST JUMPDEST JUMP JUMPDEST PUSH1 0x0 DUP1 DUP1 SLOAD SWAP1 POP SWAP1 POP PUSH1 0x1 DUP2 PUSH2 0x230 SWAP2 SWAP1 PUSH2 0x6D1 JUMP JUMPDEST DUP3 SUB PUSH2 0x263 JUMPI PUSH1 0x0 DUP1 SLOAD DUP1 PUSH2 0x248 JUMPI PUSH2 0x247 PUSH2 0x705 JUMP JUMPDEST JUMPDEST PUSH1 0x1 SWAP1 SUB DUP2 DUP2 SWAP1 PUSH1 0x0 MSTORE PUSH1 0x20 PUSH1 0x0 KECCAK256 ADD PUSH1 0x0 SWAP1 SSTORE SWAP1 SSTORE PUSH2 0x2D9 JUMP JUMPDEST PUSH1 0x0 PUSH1 0x1 DUP3 PUSH2 0x272 SWAP2 SWAP1 PUSH2 0x6D1 JUMP JUMPDEST DUP2 SLOAD DUP2 LT PUSH2 0x283 JUMPI PUSH2 0x282 PUSH2 0x673 JUMP JUMPDEST JUMPDEST SWAP1 PUSH1 0x0 MSTORE PUSH1 0x20 PUSH1 0x0 KECCAK256 ADD SLOAD PUSH1 0x0 DUP4 DUP2 SLOAD DUP2 LT PUSH2 0x2A2 JUMPI PUSH2 0x2A1 PUSH2 0x673 JUMP JUMPDEST JUMPDEST SWAP1 PUSH1 0x0 MSTORE PUSH1 0x20 PUSH1 0x0 KECCAK256 ADD DUP2 SWAP1 SSTORE POP PUSH1 0x0 DUP1 SLOAD DUP1 PUSH2 0x2C2 JUMPI PUSH2 0x2C1 PUSH2 0x705 JUMP JUMPDEST JUMPDEST PUSH1 0x1 SWAP1 SUB DUP2 DUP2 SWAP1 PUSH1 0x0 MSTORE PUSH1 0x20 PUSH1 0x0 KECCAK256 ADD PUSH1 0x0 SWAP1 SSTORE SWAP1 SSTORE JUMPDEST POP POP JUMP JUMPDEST PUSH1 0x40 MLOAD DUP1 PUSH1 0xA0 ADD PUSH1 0x40 MSTORE DUP1 PUSH1 0x1 PUSH1 0xFF AND DUP2 MSTORE PUSH1 0x20 ADD PUSH1 0x2 PUSH1 0xFF AND DUP2 MSTORE PUSH1 0x20 ADD PUSH1 0x3 PUSH1 0xFF AND DUP2 MSTORE PUSH1 0x20 ADD PUSH1 0x4 PUSH1 0xFF AND DUP2 MSTORE PUSH1 0x20 ADD PUSH1 0x5 PUSH1 0xFF AND DUP2 MSTORE POP PUSH1 0x0 SWAP1 PUSH1 0x5 PUSH2 0x328 SWAP3 SWAP2 SWAP1 PUSH2 0x543 JUMP JUMPDEST POP PUSH2 0x333 PUSH1 0x2 PUSH2 0x21A JUMP JUMPDEST PUSH1 0x4 PUSH1 0x0 DUP1 SLOAD SWAP1 POP EQ PUSH2 0x349 JUMPI PUSH2 0x348 PUSH2 0x644 JUMP JUMPDEST JUMPDEST PUSH1 0x1 PUSH1 0x0 DUP1 DUP2 SLOAD DUP2 LT PUSH2 0x35F JUMPI PUSH2 0x35E PUSH2 0x673 JUMP JUMPDEST JUMPDEST SWAP1 PUSH1 0x0 MSTORE PUSH1 0x20 PUSH1 0x0 KECCAK256 ADD SLOAD EQ PUSH2 0x378 JUMPI PUSH2 0x377 PUSH2 0x644 JUMP JUMPDEST JUMPDEST PUSH1 0x2 PUSH1 0x0 PUSH1 0x1 DUP2 SLOAD DUP2 LT PUSH2 0x38F JUMPI PUSH2 0x38E PUSH2 0x673 JUMP JUMPDEST JUMPDEST SWAP1 PUSH1 0x0 MSTORE PUSH1 0x20 PUSH1 0x0 KECCAK256 ADD SLOAD EQ PUSH2 0x3A8 JUMPI PUSH2 0x3A7 PUSH2 0x644 JUMP JUMPDEST JUMPDEST PUSH1 0x4 PUSH1 0x0 PUSH1 0x2 DUP2 SLOAD DUP2 LT PUSH2 0x3BF JUMPI PUSH2 0x3BE PUSH2 0x673 JUMP JUMPDEST JUMPDEST SWAP1 PUSH1 0x0 MSTORE PUSH1 0x20 PUSH1 0x0 KECCAK256 ADD SLOAD EQ PUSH2 0x3D8 JUMPI PUSH2 0x3D7 PUSH2 0x644 JUMP JUMPDEST JUMPDEST PUSH1 0x5 PUSH1 0x0 PUSH1 0x3 DUP2 SLOAD DUP2 LT PUSH2 0x3EF JUMPI PUSH2 0x3EE PUSH2 0x673 JUMP JUMPDEST JUMPDEST SWAP1 PUSH1 0x0 MSTORE PUSH1 0x20 PUSH1 0x0 KECCAK256 ADD SLOAD EQ PUSH2 0x408 JUMPI PUSH2 0x407 PUSH2 0x644 JUMP JUMPDEST JUMPDEST JUMP JUMPDEST PUSH1 0x0 DUP1 DUP1 SLOAD SWAP1 POP SWAP1 POP PUSH1 0x0 JUMPDEST DUP2 DUP2 LT ISZERO PUSH2 0x431 JUMPI DUP1 DUP1 PUSH2 0x429 SWAP1 PUSH2 0x734 JUMP JUMPDEST SWAP2 POP POP PUSH2 0x416 JUMP JUMPDEST POP POP JUMP JUMPDEST PUSH1 0x0 DUP2 DUP2 SLOAD DUP2 LT PUSH2 0x445 JUMPI PUSH1 0x0 DUP1 REVERT JUMPDEST SWAP1 PUSH1 0x0 MSTORE PUSH1 0x20 PUSH1 0x0 KECCAK256 ADD PUSH1 0x0 SWAP2 POP SWAP1 POP SLOAD DUP2 JUMP JUMPDEST PUSH1 0x0 DUP1 DUP1 SLOAD SWAP1 POP SWAP1 POP PUSH1 0x1 DUP2 PUSH2 0x46F SWAP2 SWAP1 PUSH2 0x6D1 JUMP JUMPDEST DUP3 SUB PUSH2 0x4A2 JUMPI PUSH1 0x0 DUP1 SLOAD DUP1 PUSH2 0x487 JUMPI PUSH2 0x486 PUSH2 0x705 JUMP JUMPDEST JUMPDEST PUSH1 0x1 SWAP1 SUB DUP2 DUP2 SWAP1 PUSH1 0x0 MSTORE PUSH1 0x20 PUSH1 0x0 KECCAK256 ADD PUSH1 0x0 SWAP1 SSTORE SWAP1 SSTORE PUSH2 0x53F JUMP JUMPDEST PUSH1 0x0 DUP3 SWAP1 POP JUMPDEST PUSH1 0x0 DUP1 SLOAD SWAP1 POP DUP2 LT ISZERO PUSH2 0x515 JUMPI PUSH1 0x0 PUSH1 0x1 DUP3 PUSH2 0x4C4 SWAP2 SWAP1 PUSH2 0x77C JUMP JUMPDEST DUP2 SLOAD DUP2 LT PUSH2 0x4D5 JUMPI PUSH2 0x4D4 PUSH2 0x673 JUMP JUMPDEST JUMPDEST SWAP1 PUSH1 0x0 MSTORE PUSH1 0x20 PUSH1 0x0 KECCAK256 ADD SLOAD PUSH1 0x0 DUP3 DUP2 SLOAD DUP2 LT PUSH2 0x4F4 JUMPI PUSH2 0x4F3 PUSH2 0x673 JUMP JUMPDEST JUMPDEST SWAP1 PUSH1 0x0 MSTORE PUSH1 0x20 PUSH1 0x0 KECCAK256 ADD DUP2 SWAP1 SSTORE POP DUP1 DUP1 PUSH2 0x50D SWAP1 PUSH2 0x734 JUMP JUMPDEST SWAP2 POP POP PUSH2 0x4A8 JUMP JUMPDEST POP PUSH1 0x0 DUP1 SLOAD DUP1 PUSH2 0x528 JUMPI PUSH2 0x527 PUSH2 0x705 JUMP JUMPDEST JUMPDEST PUSH1 0x1 SWAP1 SUB DUP2 DUP2 SWAP1 PUSH1 0x0 MSTORE PUSH1 0x20 PUSH1 0x0 KECCAK256 ADD PUSH1 0x0 SWAP1 SSTORE SWAP1 SSTORE JUMPDEST POP POP JUMP JUMPDEST DUP3 DUP1 SLOAD DUP3 DUP3 SSTORE SWAP1 PUSH1 0x0 MSTORE PUSH1 0x20 PUSH1 0x0 KECCAK256 SWAP1 DUP2 ADD SWAP3 DUP3 ISZERO PUSH2 0x584 JUMPI SWAP2 PUSH1 0x20 MUL DUP3 ADD JUMPDEST DUP3 DUP2 GT ISZERO PUSH2 0x583 JUMPI DUP3 MLOAD DUP3 SWAP1 PUSH1 0xFF AND SWAP1 SSTORE SWAP2 PUSH1 0x20 ADD SWAP2 SWAP1 PUSH1 0x1 ADD SWAP1 PUSH2 0x563 JUMP JUMPDEST JUMPDEST POP SWAP1 POP PUSH2 0x591 SWAP2 SWAP1 PUSH2 0x595 JUMP JUMPDEST POP SWAP1 JUMP JUMPDEST JUMPDEST DUP1 DUP3 GT ISZERO PUSH2 0x5AE JUMPI PUSH1 0x0 DUP2 PUSH1 0x0 SWAP1 SSTORE POP PUSH1 0x1 ADD PUSH2 0x596 JUMP JUMPDEST POP SWAP1 JUMP JUMPDEST PUSH1 0x0 DUP1 REVERT JUMPDEST PUSH1 0x0 DUP2 SWAP1 POP SWAP2 SWAP1 POP JUMP JUMPDEST PUSH2 0x5CA DUP2 PUSH2 0x5B7 JUMP JUMPDEST DUP2 EQ PUSH2 0x5D5 JUMPI PUSH1 0x0 DUP1 REVERT JUMPDEST POP JUMP JUMPDEST PUSH1 0x0 DUP2 CALLDATALOAD SWAP1 POP PUSH2 0x5E7 DUP2 PUSH2 0x5C1 JUMP JUMPDEST SWAP3 SWAP2 POP POP JUMP JUMPDEST PUSH1 0x0 PUSH1 0x20 DUP3 DUP5 SUB SLT ISZERO PUSH2 0x603 JUMPI PUSH2 0x602 PUSH2 0x5B2 JUMP JUMPDEST JUMPDEST PUSH1 0x0 PUSH2 0x611 DUP5 DUP3 DUP6 ADD PUSH2 0x5D8 JUMP JUMPDEST SWAP2 POP POP SWAP3 SWAP2 POP POP JUMP JUMPDEST PUSH2 0x623 DUP2 PUSH2 0x5B7 JUMP JUMPDEST DUP3 MSTORE POP POP JUMP JUMPDEST PUSH1 0x0 PUSH1 0x20 DUP3 ADD SWAP1 POP PUSH2 0x63E PUSH1 0x0 DUP4 ADD DUP5 PUSH2 0x61A JUMP JUMPDEST SWAP3 SWAP2 POP POP JUMP JUMPDEST PUSH32 0x4E487B7100000000000000000000000000000000000000000000000000000000 PUSH1 0x0 MSTORE PUSH1 0x1 PUSH1 0x4 MSTORE PUSH1 0x24 PUSH1 0x0 REVERT JUMPDEST PUSH32 0x4E487B7100000000000000000000000000000000000000000000000000000000 PUSH1 0x0 MSTORE PUSH1 0x32 PUSH1 0x4 MSTORE PUSH1 0x24 PUSH1 0x0 REVERT JUMPDEST PUSH32 0x4E487B7100000000000000000000000000000000000000000000000000000000 PUSH1 0x0 MSTORE PUSH1 0x11 PUSH1 0x4 MSTORE PUSH1 0x24 PUSH1 0x0 REVERT JUMPDEST PUSH1 0x0 PUSH2 0x6DC DUP3 PUSH2 0x5B7 JUMP JUMPDEST SWAP2 POP PUSH2 0x6E7 DUP4 PUSH2 0x5B7 JUMP JUMPDEST SWAP3 POP DUP3 DUP3 SUB SWAP1 POP DUP2 DUP2 GT ISZERO PUSH2 0x6FF JUMPI PUSH2 0x6FE PUSH2 0x6A2 JUMP JUMPDEST JUMPDEST SWAP3 SWAP2 POP POP JUMP JUMPDEST PUSH32 0x4E487B7100000000000000000000000000000000000000000000000000000000 PUSH1 0x0 MSTORE PUSH1 0x31 PUSH1 0x4 MSTORE PUSH1 0x24 PUSH1 0x0 REVERT JUMPDEST PUSH1 0x0 PUSH2 0x73F DUP3 PUSH2 0x5B7 JUMP JUMPDEST SWAP2 POP PUSH32 0xFFFFFFFFFFFFFFFFFFFFFFFFFFFFFFFFFFFFFFFFFFFFFFFFFFFFFFFFFFFFFFFF DUP3 SUB PUSH2 0x771 JUMPI PUSH2 0x770 PUSH2 0x6A2 JUMP JUMPDEST JUMPDEST PUSH1 0x1 DUP3 ADD SWAP1 POP SWAP2 SWAP1 POP JUMP JUMPDEST PUSH1 0x0 PUSH2 0x787 DUP3 PUSH2 0x5B7 JUMP JUMPDEST SWAP2 POP PUSH2 0x792 DUP4 PUSH2 0x5B7 JUMP JUMPDEST SWAP3 POP DUP3 DUP3 ADD SWAP1 POP DUP1 DUP3 GT ISZERO PUSH2 0x7AA JUMPI PUSH2 0x7A9 PUSH2 0x6A2 JUMP JUMPDEST JUMPDEST SWAP3 SWAP2 POP POP JUMP INVALID LOG2 PUSH5 0x6970667358 0x22 SLT KECCAK256 0xCF 0xE1 CREATE2 DUP2 MSTORE 0xC CHAINID PUSH1 0x19 SWAP11 XOR POP SWAP10 0x28 NOT 0xEF MULMOD 0xCF 0xEA 0xC8 0xCB 0xC7 0x4E 0xC1 SWAP11 DUP12 PUSH25 0xE944C310A264736F6C63430008110033000000000000000000 "
				},
				"gasEstimates": {
					"creation": {
						"codeDepositCost": "404400",
						"executionCost": "443",
						"totalCost": "404843"
					},
					"external": {
						"doSomething()": "infinite",
						"numbers(uint256)": "infinite",
						"remove1(uint256)": "infinite",
						"remove2(uint256)": "infinite",
						"test1()": "infinite",
						"test2()": "infinite"
					}
				},
				"methodIdentifiers": {
					"doSomething()": "82692679",
					"numbers(uint256)": "d39fa233",
					"remove1(uint256)": "670ea637",
					"remove2(uint256)": "e91e5843",
					"test1()": "6b59084d",
					"test2()": "66e41cb7"
				}
			},
			"storageLayout": {
				"storage": [
					{
						"astId": 4,
						"contract": "ArrayTest3.sol:Array3",
						"label": "numbers",
						"offset": 0,
						"slot": "0",
						"type": "t_array(t_uint256)dyn_storage"
					}
				],
				"types": {
					"t_array(t_uint256)dyn_storage": {
						"base": "t_uint256",
						"encoding": "dynamic_array",
						"label": "uint256[]",
						"numberOfBytes": "32"
					},
					"t_uint256": {
						"encoding": "inplace",
						"label": "uint256",
						"numberOfBytes": "32"
					}
				}
			},
			"userdoc": {
				"kind": "user",
				"methods": {
					"remove1(uint256)": {
						"notice": "删除数组中间某个元素时，不可以像其他编程语言一样，删除该元素，其他后面的元素往前移动 这样会消耗巨量的gas 删除数组两种方式： 1.像上述提及的一样，比如[1,2,3,4,5,6] -----remove(2)下标-----[1,2,4,5,6,6]---pop---[1,2,4,5,6] 2.还有另外一种方式：比如[1,2,3,4,5,6] -----remove(2)下标,最后一个元素赋值给需要删除的元素 [1,2,6,4,5,6]--pop---[1,2,6,4,5] 下面这种方式更加节省gas费，但是如果需要保障数组的顺序，那么只能使用方式1"
					},
					"remove2(uint256)": {
						"notice": "[1,2,3,4]  remove index 2"
					}
				},
				"version": 1
			}
		}
	}
}