{
	"CallTest.sol": {
		"Call1": {
			"abi": [
				{
					"inputs": [],
					"stateMutability": "payable",
					"type": "constructor"
				},
				{
					"inputs": [],
					"name": "getOwner",
					"outputs": [
						{
							"internalType": "address",
							"name": "",
							"type": "address"
						}
					],
					"stateMutability": "nonpayable",
					"type": "function"
				},
				{
					"inputs": [
						{
							"internalType": "address",
							"name": "toAddress",
							"type": "address"
						}
					],
					"name": "transferEther",
					"outputs": [
						{
							"internalType": "bool",
							"name": "",
							"type": "bool"
						}
					],
					"stateMutability": "nonpayable",
					"type": "function"
				},
				{
					"inputs": [
						{
							"internalType": "address",
							"name": "toAddress",
							"type": "address"
						}
					],
					"name": "transferEtherViaCall",
					"outputs": [],
					"stateMutability": "nonpayable",
					"type": "function"
				}
			],
			"devdoc": {
				"kind": "dev",
				"methods": {},
				"version": 1
			},
			"evm": {
				"assembly": "    /* \"CallTest.sol\":342:1090  contract Call1{... */\n  mstore(0x40, 0x80)\n    /* \"CallTest.sol\":525:535  msg.sender */\n  caller\n    /* \"CallTest.sol\":517:522  owner */\n  0x00\n  dup1\n    /* \"CallTest.sol\":517:535  owner = msg.sender */\n  0x0100\n  exp\n  dup2\n  sload\n  dup2\n  0xffffffffffffffffffffffffffffffffffffffff\n  mul\n  not\n  and\n  swap1\n  dup4\n  0xffffffffffffffffffffffffffffffffffffffff\n  and\n  mul\n  or\n  swap1\n  sstore\n  pop\n    /* \"CallTest.sol\":342:1090  contract Call1{... */\n  dataSize(sub_0)\n  dup1\n  dataOffset(sub_0)\n  0x00\n  codecopy\n  0x00\n  return\nstop\n\nsub_0: assembly {\n        /* \"CallTest.sol\":342:1090  contract Call1{... */\n      mstore(0x40, 0x80)\n      callvalue\n      dup1\n      iszero\n      tag_1\n      jumpi\n      0x00\n      dup1\n      revert\n    tag_1:\n      pop\n      jumpi(tag_2, lt(calldatasize, 0x04))\n      shr(0xe0, calldataload(0x00))\n      dup1\n      0x13b74095\n      eq\n      tag_3\n      jumpi\n      dup1\n      0x6b55e991\n      eq\n      tag_4\n      jumpi\n      dup1\n      0x893d20e8\n      eq\n      tag_5\n      jumpi\n    tag_2:\n      0x00\n      dup1\n      revert\n        /* \"CallTest.sol\":792:971  function transferEtherViaCall(address toAddress) public{... */\n    tag_3:\n      tag_6\n      0x04\n      dup1\n      calldatasize\n      sub\n      dup2\n      add\n      swap1\n      tag_7\n      swap2\n      swap1\n      tag_8\n      jump\t// in\n    tag_7:\n      tag_9\n      jump\t// in\n    tag_6:\n      stop\n        /* \"CallTest.sol\":646:786  function transferEther(address toAddress) public returns (bool){... */\n    tag_4:\n      tag_10\n      0x04\n      dup1\n      calldatasize\n      sub\n      dup2\n      add\n      swap1\n      tag_11\n      swap2\n      swap1\n      tag_8\n      jump\t// in\n    tag_11:\n      tag_12\n      jump\t// in\n    tag_10:\n      mload(0x40)\n      tag_13\n      swap2\n      swap1\n      tag_14\n      jump\t// in\n    tag_13:\n      mload(0x40)\n      dup1\n      swap2\n      sub\n      swap1\n      return\n        /* \"CallTest.sol\":567:640  function getOwner() public returns (address){... */\n    tag_5:\n      tag_15\n      tag_16\n      jump\t// in\n    tag_15:\n      mload(0x40)\n      tag_17\n      swap2\n      swap1\n      tag_18\n      jump\t// in\n    tag_17:\n      mload(0x40)\n      dup1\n      swap2\n      sub\n      swap1\n      return\n        /* \"CallTest.sol\":792:971  function transferEtherViaCall(address toAddress) public{... */\n    tag_9:\n        /* \"CallTest.sol\":858:870  bool success */\n      0x00\n        /* \"CallTest.sol\":876:885  toAddress */\n      dup2\n        /* \"CallTest.sol\":876:890  toAddress.call */\n      0xffffffffffffffffffffffffffffffffffffffff\n      and\n        /* \"CallTest.sol\":898:908  0.01 ether */\n      0x2386f26fc10000\n        /* \"CallTest.sol\":876:913  toAddress.call{value: 0.01 ether}(\"\") */\n      mload(0x40)\n      tag_20\n      swap1\n      tag_21\n      jump\t// in\n    tag_20:\n      0x00\n      mload(0x40)\n      dup1\n      dup4\n      sub\n      dup2\n      dup6\n      dup8\n      gas\n      call\n      swap3\n      pop\n      pop\n      pop\n      returndatasize\n      dup1\n      0x00\n      dup2\n      eq\n      tag_24\n      jumpi\n      mload(0x40)\n      swap2\n      pop\n      and(add(returndatasize, 0x3f), not(0x1f))\n      dup3\n      add\n      0x40\n      mstore\n      returndatasize\n      dup3\n      mstore\n      returndatasize\n      0x00\n      0x20\n      dup5\n      add\n      returndatacopy\n      jump(tag_23)\n    tag_24:\n      0x60\n      swap2\n      pop\n    tag_23:\n      pop\n        /* \"CallTest.sol\":857:913  (bool success, ) = toAddress.call{value: 0.01 ether}(\"\") */\n      pop\n      swap1\n      pop\n        /* \"CallTest.sol\":931:938  success */\n      dup1\n        /* \"CallTest.sol\":923:964  require(success, \"transfer ether failed\") */\n      tag_25\n      jumpi\n      mload(0x40)\n      0x08c379a000000000000000000000000000000000000000000000000000000000\n      dup2\n      mstore\n      0x04\n      add\n      tag_26\n      swap1\n      tag_27\n      jump\t// in\n    tag_26:\n      mload(0x40)\n      dup1\n      swap2\n      sub\n      swap1\n      revert\n    tag_25:\n        /* \"CallTest.sol\":847:971  {... */\n      pop\n        /* \"CallTest.sol\":792:971  function transferEtherViaCall(address toAddress) public{... */\n      pop\n      jump\t// out\n        /* \"CallTest.sol\":646:786  function transferEther(address toAddress) public returns (bool){... */\n    tag_12:\n        /* \"CallTest.sol\":704:708  bool */\n      0x00\n        /* \"CallTest.sol\":727:736  toAddress */\n      dup2\n        /* \"CallTest.sol\":719:746  payable(toAddress).transfer */\n      0xffffffffffffffffffffffffffffffffffffffff\n      and\n        /* \"CallTest.sol\":719:758  payable(toAddress).transfer(0.01 ether) */\n      0x08fc\n        /* \"CallTest.sol\":747:757  0.01 ether */\n      0x2386f26fc10000\n        /* \"CallTest.sol\":719:758  payable(toAddress).transfer(0.01 ether) */\n      swap1\n      dup2\n      iszero\n      mul\n      swap1\n      mload(0x40)\n      0x00\n      mload(0x40)\n      dup1\n      dup4\n      sub\n      dup2\n      dup6\n      dup9\n      dup9\n      call\n      swap4\n      pop\n      pop\n      pop\n      pop\n      iszero\n      dup1\n      iszero\n      tag_30\n      jumpi\n      returndatasize\n      0x00\n      dup1\n      returndatacopy\n      revert(0x00, returndatasize)\n    tag_30:\n      pop\n        /* \"CallTest.sol\":775:779  true */\n      0x01\n        /* \"CallTest.sol\":768:779  return true */\n      swap1\n      pop\n        /* \"CallTest.sol\":646:786  function transferEther(address toAddress) public returns (bool){... */\n      swap2\n      swap1\n      pop\n      jump\t// out\n        /* \"CallTest.sol\":567:640  function getOwner() public returns (address){... */\n    tag_16:\n        /* \"CallTest.sol\":603:610  address */\n      0x00\n        /* \"CallTest.sol\":628:633  owner */\n      dup1\n      0x00\n      swap1\n      sload\n      swap1\n      0x0100\n      exp\n      swap1\n      div\n      0xffffffffffffffffffffffffffffffffffffffff\n      and\n        /* \"CallTest.sol\":621:633  return owner */\n      swap1\n      pop\n        /* \"CallTest.sol\":567:640  function getOwner() public returns (address){... */\n      swap1\n      jump\t// out\n        /* \"#utility.yul\":88:205   */\n    tag_33:\n        /* \"#utility.yul\":197:198   */\n      0x00\n        /* \"#utility.yul\":194:195   */\n      dup1\n        /* \"#utility.yul\":187:199   */\n      revert\n        /* \"#utility.yul\":334:460   */\n    tag_35:\n        /* \"#utility.yul\":371:378   */\n      0x00\n        /* \"#utility.yul\":411:453   */\n      0xffffffffffffffffffffffffffffffffffffffff\n        /* \"#utility.yul\":404:409   */\n      dup3\n        /* \"#utility.yul\":400:454   */\n      and\n        /* \"#utility.yul\":389:454   */\n      swap1\n      pop\n        /* \"#utility.yul\":334:460   */\n      swap2\n      swap1\n      pop\n      jump\t// out\n        /* \"#utility.yul\":466:562   */\n    tag_36:\n        /* \"#utility.yul\":503:510   */\n      0x00\n        /* \"#utility.yul\":532:556   */\n      tag_54\n        /* \"#utility.yul\":550:555   */\n      dup3\n        /* \"#utility.yul\":532:556   */\n      tag_35\n      jump\t// in\n    tag_54:\n        /* \"#utility.yul\":521:556   */\n      swap1\n      pop\n        /* \"#utility.yul\":466:562   */\n      swap2\n      swap1\n      pop\n      jump\t// out\n        /* \"#utility.yul\":568:690   */\n    tag_37:\n        /* \"#utility.yul\":641:665   */\n      tag_56\n        /* \"#utility.yul\":659:664   */\n      dup2\n        /* \"#utility.yul\":641:665   */\n      tag_36\n      jump\t// in\n    tag_56:\n        /* \"#utility.yul\":634:639   */\n      dup2\n        /* \"#utility.yul\":631:666   */\n      eq\n        /* \"#utility.yul\":621:684   */\n      tag_57\n      jumpi\n        /* \"#utility.yul\":680:681   */\n      0x00\n        /* \"#utility.yul\":677:678   */\n      dup1\n        /* \"#utility.yul\":670:682   */\n      revert\n        /* \"#utility.yul\":621:684   */\n    tag_57:\n        /* \"#utility.yul\":568:690   */\n      pop\n      jump\t// out\n        /* \"#utility.yul\":696:835   */\n    tag_38:\n        /* \"#utility.yul\":742:747   */\n      0x00\n        /* \"#utility.yul\":780:786   */\n      dup2\n        /* \"#utility.yul\":767:787   */\n      calldataload\n        /* \"#utility.yul\":758:787   */\n      swap1\n      pop\n        /* \"#utility.yul\":796:829   */\n      tag_59\n        /* \"#utility.yul\":823:828   */\n      dup2\n        /* \"#utility.yul\":796:829   */\n      tag_37\n      jump\t// in\n    tag_59:\n        /* \"#utility.yul\":696:835   */\n      swap3\n      swap2\n      pop\n      pop\n      jump\t// out\n        /* \"#utility.yul\":841:1170   */\n    tag_8:\n        /* \"#utility.yul\":900:906   */\n      0x00\n        /* \"#utility.yul\":949:951   */\n      0x20\n        /* \"#utility.yul\":937:946   */\n      dup3\n        /* \"#utility.yul\":928:935   */\n      dup5\n        /* \"#utility.yul\":924:947   */\n      sub\n        /* \"#utility.yul\":920:952   */\n      slt\n        /* \"#utility.yul\":917:1036   */\n      iszero\n      tag_61\n      jumpi\n        /* \"#utility.yul\":955:1034   */\n      tag_62\n      tag_33\n      jump\t// in\n    tag_62:\n        /* \"#utility.yul\":917:1036   */\n    tag_61:\n        /* \"#utility.yul\":1075:1076   */\n      0x00\n        /* \"#utility.yul\":1100:1153   */\n      tag_63\n        /* \"#utility.yul\":1145:1152   */\n      dup5\n        /* \"#utility.yul\":1136:1142   */\n      dup3\n        /* \"#utility.yul\":1125:1134   */\n      dup6\n        /* \"#utility.yul\":1121:1143   */\n      add\n        /* \"#utility.yul\":1100:1153   */\n      tag_38\n      jump\t// in\n    tag_63:\n        /* \"#utility.yul\":1090:1153   */\n      swap2\n      pop\n        /* \"#utility.yul\":1046:1163   */\n      pop\n        /* \"#utility.yul\":841:1170   */\n      swap3\n      swap2\n      pop\n      pop\n      jump\t// out\n        /* \"#utility.yul\":1176:1266   */\n    tag_39:\n        /* \"#utility.yul\":1210:1217   */\n      0x00\n        /* \"#utility.yul\":1253:1258   */\n      dup2\n        /* \"#utility.yul\":1246:1259   */\n      iszero\n        /* \"#utility.yul\":1239:1260   */\n      iszero\n        /* \"#utility.yul\":1228:1260   */\n      swap1\n      pop\n        /* \"#utility.yul\":1176:1266   */\n      swap2\n      swap1\n      pop\n      jump\t// out\n        /* \"#utility.yul\":1272:1381   */\n    tag_40:\n        /* \"#utility.yul\":1353:1374   */\n      tag_66\n        /* \"#utility.yul\":1368:1373   */\n      dup2\n        /* \"#utility.yul\":1353:1374   */\n      tag_39\n      jump\t// in\n    tag_66:\n        /* \"#utility.yul\":1348:1351   */\n      dup3\n        /* \"#utility.yul\":1341:1375   */\n      mstore\n        /* \"#utility.yul\":1272:1381   */\n      pop\n      pop\n      jump\t// out\n        /* \"#utility.yul\":1387:1597   */\n    tag_14:\n        /* \"#utility.yul\":1474:1478   */\n      0x00\n        /* \"#utility.yul\":1512:1514   */\n      0x20\n        /* \"#utility.yul\":1501:1510   */\n      dup3\n        /* \"#utility.yul\":1497:1515   */\n      add\n        /* \"#utility.yul\":1489:1515   */\n      swap1\n      pop\n        /* \"#utility.yul\":1525:1590   */\n      tag_68\n        /* \"#utility.yul\":1587:1588   */\n      0x00\n        /* \"#utility.yul\":1576:1585   */\n      dup4\n        /* \"#utility.yul\":1572:1589   */\n      add\n        /* \"#utility.yul\":1563:1569   */\n      dup5\n        /* \"#utility.yul\":1525:1590   */\n      tag_40\n      jump\t// in\n    tag_68:\n        /* \"#utility.yul\":1387:1597   */\n      swap3\n      swap2\n      pop\n      pop\n      jump\t// out\n        /* \"#utility.yul\":1603:1721   */\n    tag_41:\n        /* \"#utility.yul\":1690:1714   */\n      tag_70\n        /* \"#utility.yul\":1708:1713   */\n      dup2\n        /* \"#utility.yul\":1690:1714   */\n      tag_36\n      jump\t// in\n    tag_70:\n        /* \"#utility.yul\":1685:1688   */\n      dup3\n        /* \"#utility.yul\":1678:1715   */\n      mstore\n        /* \"#utility.yul\":1603:1721   */\n      pop\n      pop\n      jump\t// out\n        /* \"#utility.yul\":1727:1949   */\n    tag_18:\n        /* \"#utility.yul\":1820:1824   */\n      0x00\n        /* \"#utility.yul\":1858:1860   */\n      0x20\n        /* \"#utility.yul\":1847:1856   */\n      dup3\n        /* \"#utility.yul\":1843:1861   */\n      add\n        /* \"#utility.yul\":1835:1861   */\n      swap1\n      pop\n        /* \"#utility.yul\":1871:1942   */\n      tag_72\n        /* \"#utility.yul\":1939:1940   */\n      0x00\n        /* \"#utility.yul\":1928:1937   */\n      dup4\n        /* \"#utility.yul\":1924:1941   */\n      add\n        /* \"#utility.yul\":1915:1921   */\n      dup5\n        /* \"#utility.yul\":1871:1942   */\n      tag_41\n      jump\t// in\n    tag_72:\n        /* \"#utility.yul\":1727:1949   */\n      swap3\n      swap2\n      pop\n      pop\n      jump\t// out\n        /* \"#utility.yul\":1955:2102   */\n    tag_42:\n        /* \"#utility.yul\":2056:2067   */\n      0x00\n        /* \"#utility.yul\":2093:2096   */\n      dup2\n        /* \"#utility.yul\":2078:2096   */\n      swap1\n      pop\n        /* \"#utility.yul\":1955:2102   */\n      swap3\n      swap2\n      pop\n      pop\n      jump\t// out\n        /* \"#utility.yul\":2108:2222   */\n    tag_43:\n      pop\n      jump\t// out\n        /* \"#utility.yul\":2228:2626   */\n    tag_44:\n        /* \"#utility.yul\":2387:2390   */\n      0x00\n        /* \"#utility.yul\":2408:2491   */\n      tag_76\n        /* \"#utility.yul\":2489:2490   */\n      0x00\n        /* \"#utility.yul\":2484:2487   */\n      dup4\n        /* \"#utility.yul\":2408:2491   */\n      tag_42\n      jump\t// in\n    tag_76:\n        /* \"#utility.yul\":2401:2491   */\n      swap2\n      pop\n        /* \"#utility.yul\":2500:2593   */\n      tag_77\n        /* \"#utility.yul\":2589:2592   */\n      dup3\n        /* \"#utility.yul\":2500:2593   */\n      tag_43\n      jump\t// in\n    tag_77:\n        /* \"#utility.yul\":2618:2619   */\n      0x00\n        /* \"#utility.yul\":2613:2616   */\n      dup3\n        /* \"#utility.yul\":2609:2620   */\n      add\n        /* \"#utility.yul\":2602:2620   */\n      swap1\n      pop\n        /* \"#utility.yul\":2228:2626   */\n      swap2\n      swap1\n      pop\n      jump\t// out\n        /* \"#utility.yul\":2632:3011   */\n    tag_21:\n        /* \"#utility.yul\":2816:2819   */\n      0x00\n        /* \"#utility.yul\":2838:2985   */\n      tag_79\n        /* \"#utility.yul\":2981:2984   */\n      dup3\n        /* \"#utility.yul\":2838:2985   */\n      tag_44\n      jump\t// in\n    tag_79:\n        /* \"#utility.yul\":2831:2985   */\n      swap2\n      pop\n        /* \"#utility.yul\":3002:3005   */\n      dup2\n        /* \"#utility.yul\":2995:3005   */\n      swap1\n      pop\n        /* \"#utility.yul\":2632:3011   */\n      swap2\n      swap1\n      pop\n      jump\t// out\n        /* \"#utility.yul\":3017:3186   */\n    tag_45:\n        /* \"#utility.yul\":3101:3112   */\n      0x00\n        /* \"#utility.yul\":3135:3141   */\n      dup3\n        /* \"#utility.yul\":3130:3133   */\n      dup3\n        /* \"#utility.yul\":3123:3142   */\n      mstore\n        /* \"#utility.yul\":3175:3179   */\n      0x20\n        /* \"#utility.yul\":3170:3173   */\n      dup3\n        /* \"#utility.yul\":3166:3180   */\n      add\n        /* \"#utility.yul\":3151:3180   */\n      swap1\n      pop\n        /* \"#utility.yul\":3017:3186   */\n      swap3\n      swap2\n      pop\n      pop\n      jump\t// out\n        /* \"#utility.yul\":3192:3363   */\n    tag_46:\n        /* \"#utility.yul\":3332:3355   */\n      0x7472616e73666572206574686572206661696c65640000000000000000000000\n        /* \"#utility.yul\":3328:3329   */\n      0x00\n        /* \"#utility.yul\":3320:3326   */\n      dup3\n        /* \"#utility.yul\":3316:3330   */\n      add\n        /* \"#utility.yul\":3309:3356   */\n      mstore\n        /* \"#utility.yul\":3192:3363   */\n      pop\n      jump\t// out\n        /* \"#utility.yul\":3369:3735   */\n    tag_47:\n        /* \"#utility.yul\":3511:3514   */\n      0x00\n        /* \"#utility.yul\":3532:3599   */\n      tag_83\n        /* \"#utility.yul\":3596:3598   */\n      0x15\n        /* \"#utility.yul\":3591:3594   */\n      dup4\n        /* \"#utility.yul\":3532:3599   */\n      tag_45\n      jump\t// in\n    tag_83:\n        /* \"#utility.yul\":3525:3599   */\n      swap2\n      pop\n        /* \"#utility.yul\":3608:3701   */\n      tag_84\n        /* \"#utility.yul\":3697:3700   */\n      dup3\n        /* \"#utility.yul\":3608:3701   */\n      tag_46\n      jump\t// in\n    tag_84:\n        /* \"#utility.yul\":3726:3728   */\n      0x20\n        /* \"#utility.yul\":3721:3724   */\n      dup3\n        /* \"#utility.yul\":3717:3729   */\n      add\n        /* \"#utility.yul\":3710:3729   */\n      swap1\n      pop\n        /* \"#utility.yul\":3369:3735   */\n      swap2\n      swap1\n      pop\n      jump\t// out\n        /* \"#utility.yul\":3741:4160   */\n    tag_27:\n        /* \"#utility.yul\":3907:3911   */\n      0x00\n        /* \"#utility.yul\":3945:3947   */\n      0x20\n        /* \"#utility.yul\":3934:3943   */\n      dup3\n        /* \"#utility.yul\":3930:3948   */\n      add\n        /* \"#utility.yul\":3922:3948   */\n      swap1\n      pop\n        /* \"#utility.yul\":3994:4003   */\n      dup2\n        /* \"#utility.yul\":3988:3992   */\n      dup2\n        /* \"#utility.yul\":3984:4004   */\n      sub\n        /* \"#utility.yul\":3980:3981   */\n      0x00\n        /* \"#utility.yul\":3969:3978   */\n      dup4\n        /* \"#utility.yul\":3965:3982   */\n      add\n        /* \"#utility.yul\":3958:4005   */\n      mstore\n        /* \"#utility.yul\":4022:4153   */\n      tag_86\n        /* \"#utility.yul\":4148:4152   */\n      dup2\n        /* \"#utility.yul\":4022:4153   */\n      tag_47\n      jump\t// in\n    tag_86:\n        /* \"#utility.yul\":4014:4153   */\n      swap1\n      pop\n        /* \"#utility.yul\":3741:4160   */\n      swap2\n      swap1\n      pop\n      jump\t// out\n\n    auxdata: 0xa264697066735822122068148a44a895d525d6d5f8850db32a661e90ab53efebc61d1526473defe4529d64736f6c63430008110033\n}\n",
				"bytecode": {
					"linkReferences": {},
					"object": "6080604052336000806101000a81548173ffffffffffffffffffffffffffffffffffffffff021916908373ffffffffffffffffffffffffffffffffffffffff1602179055506103d2806100536000396000f3fe608060405234801561001057600080fd5b50600436106100415760003560e01c806313b74095146100465780636b55e99114610062578063893d20e814610092575b600080fd5b610060600480360381019061005b919061024c565b6100b0565b005b61007c6004803603810190610077919061024c565b610167565b6040516100899190610294565b60405180910390f35b61009a6101c0565b6040516100a791906102be565b60405180910390f35b60008173ffffffffffffffffffffffffffffffffffffffff16662386f26fc100006040516100dd9061030a565b60006040518083038185875af1925050503d806000811461011a576040519150601f19603f3d011682016040523d82523d6000602084013e61011f565b606091505b5050905080610163576040517f08c379a000000000000000000000000000000000000000000000000000000000815260040161015a9061037c565b60405180910390fd5b5050565b60008173ffffffffffffffffffffffffffffffffffffffff166108fc662386f26fc100009081150290604051600060405180830381858888f193505050501580156101b6573d6000803e3d6000fd5b5060019050919050565b60008060009054906101000a900473ffffffffffffffffffffffffffffffffffffffff16905090565b600080fd5b600073ffffffffffffffffffffffffffffffffffffffff82169050919050565b6000610219826101ee565b9050919050565b6102298161020e565b811461023457600080fd5b50565b60008135905061024681610220565b92915050565b600060208284031215610262576102616101e9565b5b600061027084828501610237565b91505092915050565b60008115159050919050565b61028e81610279565b82525050565b60006020820190506102a96000830184610285565b92915050565b6102b88161020e565b82525050565b60006020820190506102d360008301846102af565b92915050565b600081905092915050565b50565b60006102f46000836102d9565b91506102ff826102e4565b600082019050919050565b6000610315826102e7565b9150819050919050565b600082825260208201905092915050565b7f7472616e73666572206574686572206661696c65640000000000000000000000600082015250565b600061036660158361031f565b915061037182610330565b602082019050919050565b6000602082019050818103600083015261039581610359565b905091905056fea264697066735822122068148a44a895d525d6d5f8850db32a661e90ab53efebc61d1526473defe4529d64736f6c63430008110033",
					"opcodes": "PUSH1 0x80 PUSH1 0x40 MSTORE CALLER PUSH1 0x0 DUP1 PUSH2 0x100 EXP DUP2 SLOAD DUP2 PUSH20 0xFFFFFFFFFFFFFFFFFFFFFFFFFFFFFFFFFFFFFFFF MUL NOT AND SWAP1 DUP4 PUSH20 0xFFFFFFFFFFFFFFFFFFFFFFFFFFFFFFFFFFFFFFFF AND MUL OR SWAP1 SSTORE POP PUSH2 0x3D2 DUP1 PUSH2 0x53 PUSH1 0x0 CODECOPY PUSH1 0x0 RETURN INVALID PUSH1 0x80 PUSH1 0x40 MSTORE CALLVALUE DUP1 ISZERO PUSH2 0x10 JUMPI PUSH1 0x0 DUP1 REVERT JUMPDEST POP PUSH1 0x4 CALLDATASIZE LT PUSH2 0x41 JUMPI PUSH1 0x0 CALLDATALOAD PUSH1 0xE0 SHR DUP1 PUSH4 0x13B74095 EQ PUSH2 0x46 JUMPI DUP1 PUSH4 0x6B55E991 EQ PUSH2 0x62 JUMPI DUP1 PUSH4 0x893D20E8 EQ PUSH2 0x92 JUMPI JUMPDEST PUSH1 0x0 DUP1 REVERT JUMPDEST PUSH2 0x60 PUSH1 0x4 DUP1 CALLDATASIZE SUB DUP2 ADD SWAP1 PUSH2 0x5B SWAP2 SWAP1 PUSH2 0x24C JUMP JUMPDEST PUSH2 0xB0 JUMP JUMPDEST STOP JUMPDEST PUSH2 0x7C PUSH1 0x4 DUP1 CALLDATASIZE SUB DUP2 ADD SWAP1 PUSH2 0x77 SWAP2 SWAP1 PUSH2 0x24C JUMP JUMPDEST PUSH2 0x167 JUMP JUMPDEST PUSH1 0x40 MLOAD PUSH2 0x89 SWAP2 SWAP1 PUSH2 0x294 JUMP JUMPDEST PUSH1 0x40 MLOAD DUP1 SWAP2 SUB SWAP1 RETURN JUMPDEST PUSH2 0x9A PUSH2 0x1C0 JUMP JUMPDEST PUSH1 0x40 MLOAD PUSH2 0xA7 SWAP2 SWAP1 PUSH2 0x2BE JUMP JUMPDEST PUSH1 0x40 MLOAD DUP1 SWAP2 SUB SWAP1 RETURN JUMPDEST PUSH1 0x0 DUP2 PUSH20 0xFFFFFFFFFFFFFFFFFFFFFFFFFFFFFFFFFFFFFFFF AND PUSH7 0x2386F26FC10000 PUSH1 0x40 MLOAD PUSH2 0xDD SWAP1 PUSH2 0x30A JUMP JUMPDEST PUSH1 0x0 PUSH1 0x40 MLOAD DUP1 DUP4 SUB DUP2 DUP6 DUP8 GAS CALL SWAP3 POP POP POP RETURNDATASIZE DUP1 PUSH1 0x0 DUP2 EQ PUSH2 0x11A JUMPI PUSH1 0x40 MLOAD SWAP2 POP PUSH1 0x1F NOT PUSH1 0x3F RETURNDATASIZE ADD AND DUP3 ADD PUSH1 0x40 MSTORE RETURNDATASIZE DUP3 MSTORE RETURNDATASIZE PUSH1 0x0 PUSH1 0x20 DUP5 ADD RETURNDATACOPY PUSH2 0x11F JUMP JUMPDEST PUSH1 0x60 SWAP2 POP JUMPDEST POP POP SWAP1 POP DUP1 PUSH2 0x163 JUMPI PUSH1 0x40 MLOAD PUSH32 0x8C379A000000000000000000000000000000000000000000000000000000000 DUP2 MSTORE PUSH1 0x4 ADD PUSH2 0x15A SWAP1 PUSH2 0x37C JUMP JUMPDEST PUSH1 0x40 MLOAD DUP1 SWAP2 SUB SWAP1 REVERT JUMPDEST POP POP JUMP JUMPDEST PUSH1 0x0 DUP2 PUSH20 0xFFFFFFFFFFFFFFFFFFFFFFFFFFFFFFFFFFFFFFFF AND PUSH2 0x8FC PUSH7 0x2386F26FC10000 SWAP1 DUP2 ISZERO MUL SWAP1 PUSH1 0x40 MLOAD PUSH1 0x0 PUSH1 0x40 MLOAD DUP1 DUP4 SUB DUP2 DUP6 DUP9 DUP9 CALL SWAP4 POP POP POP POP ISZERO DUP1 ISZERO PUSH2 0x1B6 JUMPI RETURNDATASIZE PUSH1 0x0 DUP1 RETURNDATACOPY RETURNDATASIZE PUSH1 0x0 REVERT JUMPDEST POP PUSH1 0x1 SWAP1 POP SWAP2 SWAP1 POP JUMP JUMPDEST PUSH1 0x0 DUP1 PUSH1 0x0 SWAP1 SLOAD SWAP1 PUSH2 0x100 EXP SWAP1 DIV PUSH20 0xFFFFFFFFFFFFFFFFFFFFFFFFFFFFFFFFFFFFFFFF AND SWAP1 POP SWAP1 JUMP JUMPDEST PUSH1 0x0 DUP1 REVERT JUMPDEST PUSH1 0x0 PUSH20 0xFFFFFFFFFFFFFFFFFFFFFFFFFFFFFFFFFFFFFFFF DUP3 AND SWAP1 POP SWAP2 SWAP1 POP JUMP JUMPDEST PUSH1 0x0 PUSH2 0x219 DUP3 PUSH2 0x1EE JUMP JUMPDEST SWAP1 POP SWAP2 SWAP1 POP JUMP JUMPDEST PUSH2 0x229 DUP2 PUSH2 0x20E JUMP JUMPDEST DUP2 EQ PUSH2 0x234 JUMPI PUSH1 0x0 DUP1 REVERT JUMPDEST POP JUMP JUMPDEST PUSH1 0x0 DUP2 CALLDATALOAD SWAP1 POP PUSH2 0x246 DUP2 PUSH2 0x220 JUMP JUMPDEST SWAP3 SWAP2 POP POP JUMP JUMPDEST PUSH1 0x0 PUSH1 0x20 DUP3 DUP5 SUB SLT ISZERO PUSH2 0x262 JUMPI PUSH2 0x261 PUSH2 0x1E9 JUMP JUMPDEST JUMPDEST PUSH1 0x0 PUSH2 0x270 DUP5 DUP3 DUP6 ADD PUSH2 0x237 JUMP JUMPDEST SWAP2 POP POP SWAP3 SWAP2 POP POP JUMP JUMPDEST PUSH1 0x0 DUP2 ISZERO ISZERO SWAP1 POP SWAP2 SWAP1 POP JUMP JUMPDEST PUSH2 0x28E DUP2 PUSH2 0x279 JUMP JUMPDEST DUP3 MSTORE POP POP JUMP JUMPDEST PUSH1 0x0 PUSH1 0x20 DUP3 ADD SWAP1 POP PUSH2 0x2A9 PUSH1 0x0 DUP4 ADD DUP5 PUSH2 0x285 JUMP JUMPDEST SWAP3 SWAP2 POP POP JUMP JUMPDEST PUSH2 0x2B8 DUP2 PUSH2 0x20E JUMP JUMPDEST DUP3 MSTORE POP POP JUMP JUMPDEST PUSH1 0x0 PUSH1 0x20 DUP3 ADD SWAP1 POP PUSH2 0x2D3 PUSH1 0x0 DUP4 ADD DUP5 PUSH2 0x2AF JUMP JUMPDEST SWAP3 SWAP2 POP POP JUMP JUMPDEST PUSH1 0x0 DUP2 SWAP1 POP SWAP3 SWAP2 POP POP JUMP JUMPDEST POP JUMP JUMPDEST PUSH1 0x0 PUSH2 0x2F4 PUSH1 0x0 DUP4 PUSH2 0x2D9 JUMP JUMPDEST SWAP2 POP PUSH2 0x2FF DUP3 PUSH2 0x2E4 JUMP JUMPDEST PUSH1 0x0 DUP3 ADD SWAP1 POP SWAP2 SWAP1 POP JUMP JUMPDEST PUSH1 0x0 PUSH2 0x315 DUP3 PUSH2 0x2E7 JUMP JUMPDEST SWAP2 POP DUP2 SWAP1 POP SWAP2 SWAP1 POP JUMP JUMPDEST PUSH1 0x0 DUP3 DUP3 MSTORE PUSH1 0x20 DUP3 ADD SWAP1 POP SWAP3 SWAP2 POP POP JUMP JUMPDEST PUSH32 0x7472616E73666572206574686572206661696C65640000000000000000000000 PUSH1 0x0 DUP3 ADD MSTORE POP JUMP JUMPDEST PUSH1 0x0 PUSH2 0x366 PUSH1 0x15 DUP4 PUSH2 0x31F JUMP JUMPDEST SWAP2 POP PUSH2 0x371 DUP3 PUSH2 0x330 JUMP JUMPDEST PUSH1 0x20 DUP3 ADD SWAP1 POP SWAP2 SWAP1 POP JUMP JUMPDEST PUSH1 0x0 PUSH1 0x20 DUP3 ADD SWAP1 POP DUP2 DUP2 SUB PUSH1 0x0 DUP4 ADD MSTORE PUSH2 0x395 DUP2 PUSH2 0x359 JUMP JUMPDEST SWAP1 POP SWAP2 SWAP1 POP JUMP INVALID LOG2 PUSH5 0x6970667358 0x22 SLT KECCAK256 PUSH9 0x148A44A895D525D6D5 0xF8 DUP6 0xD 0xB3 0x2A PUSH7 0x1E90AB53EFEBC6 SAR ISZERO 0x26 SELFBALANCE RETURNDATASIZE 0xEF 0xE4 MSTORE SWAP14 PUSH5 0x736F6C6343 STOP ADDMOD GT STOP CALLER "
				},
				"gasEstimates": {
					"creation": {
						"codeDepositCost": "195600",
						"executionCost": "24480",
						"totalCost": "220080"
					},
					"external": {
						"getOwner()": "2544",
						"transferEther(address)": "infinite",
						"transferEtherViaCall(address)": "infinite"
					}
				},
				"methodIdentifiers": {
					"getOwner()": "893d20e8",
					"transferEther(address)": "6b55e991",
					"transferEtherViaCall(address)": "13b74095"
				}
			},
			"storageLayout": {
				"storage": [
					{
						"astId": 36,
						"contract": "CallTest.sol:Call1",
						"label": "owner",
						"offset": 0,
						"slot": "0",
						"type": "t_address"
					}
				],
				"types": {
					"t_address": {
						"encoding": "inplace",
						"label": "address",
						"numberOfBytes": "20"
					}
				}
			},
			"userdoc": {
				"kind": "user",
				"methods": {},
				"version": 1
			}
		}
	}
}