{
	"DataStorage.sol": {
		"DataStorage": {
			"abi": [
				{
					"inputs": [
						{
							"internalType": "uint256[]",
							"name": "_x",
							"type": "uint256[]"
						}
					],
					"name": "callData1",
					"outputs": [
						{
							"internalType": "uint256[]",
							"name": "",
							"type": "uint256[]"
						}
					],
					"stateMutability": "pure",
					"type": "function"
				},
				{
					"inputs": [],
					"name": "memory1",
					"outputs": [],
					"stateMutability": "nonpayable",
					"type": "function"
				},
				{
					"inputs": [],
					"name": "storage1",
					"outputs": [],
					"stateMutability": "nonpayable",
					"type": "function"
				}
			],
			"devdoc": {
				"kind": "dev",
				"methods": {},
				"version": 1
			},
			"evm": {
				"assembly": "    /* \"DataStorage.sol\":76:574  contract DataStorage {... */\n  mstore(0x40, 0x80)\n    /* \"DataStorage.sol\":104:123  uint[] x  = [1,2,3] */\n  mload(0x40)\n  dup1\n  0x60\n  add\n  0x40\n  mstore\n  dup1\n    /* \"DataStorage.sol\":117:118  1 */\n  0x01\n    /* \"DataStorage.sol\":104:123  uint[] x  = [1,2,3] */\n  0xff\n  and\n  dup2\n  mstore\n  0x20\n  add\n    /* \"DataStorage.sol\":119:120  2 */\n  0x02\n    /* \"DataStorage.sol\":104:123  uint[] x  = [1,2,3] */\n  0xff\n  and\n  dup2\n  mstore\n  0x20\n  add\n    /* \"DataStorage.sol\":121:122  3 */\n  0x03\n    /* \"DataStorage.sol\":104:123  uint[] x  = [1,2,3] */\n  0xff\n  and\n  dup2\n  mstore\n  pop\n  0x00\n  swap1\n  0x03\n  tag_1\n  swap3\n  swap2\n  swap1\n  tag_2\n  jump\t// in\ntag_1:\n  pop\n    /* \"DataStorage.sol\":76:574  contract DataStorage {... */\n  callvalue\n  dup1\n  iszero\n  tag_3\n  jumpi\n  0x00\n  dup1\n  revert\ntag_3:\n  pop\n  jump(tag_4)\ntag_2:\n  dup3\n  dup1\n  sload\n  dup3\n  dup3\n  sstore\n  swap1\n  0x00\n  mstore\n  keccak256(0x00, 0x20)\n  swap1\n  dup2\n  add\n  swap3\n  dup3\n  iszero\n  tag_5\n  jumpi\n  swap2\n  0x20\n  mul\n  dup3\n  add\ntag_6:\n  dup3\n  dup2\n  gt\n  iszero\n  tag_7\n  jumpi\n  dup3\n  mload\n  dup3\n  swap1\n  0xff\n  and\n  swap1\n  sstore\n  swap2\n  0x20\n  add\n  swap2\n  swap1\n  0x01\n  add\n  swap1\n  jump(tag_6)\ntag_7:\ntag_5:\n  pop\n  swap1\n  pop\n  tag_8\n  swap2\n  swap1\n  tag_9\n  jump\t// in\ntag_8:\n  pop\n  swap1\n  jump\t// out\ntag_9:\ntag_10:\n  dup1\n  dup3\n  gt\n  iszero\n  tag_11\n  jumpi\n  0x00\n  dup2\n  0x00\n  swap1\n  sstore\n  pop\n  0x01\n  add\n  jump(tag_10)\ntag_11:\n  pop\n  swap1\n  jump\t// out\ntag_4:\n  dataSize(sub_0)\n  dup1\n  dataOffset(sub_0)\n  0x00\n  codecopy\n  0x00\n  return\nstop\n\nsub_0: assembly {\n        /* \"DataStorage.sol\":76:574  contract DataStorage {... */\n      mstore(0x40, 0x80)\n      callvalue\n      dup1\n      iszero\n      tag_1\n      jumpi\n      0x00\n      dup1\n      revert\n    tag_1:\n      pop\n      jumpi(tag_2, lt(calldatasize, 0x04))\n      shr(0xe0, calldataload(0x00))\n      dup1\n      0x0208c2ea\n      eq\n      tag_3\n      jumpi\n      dup1\n      0x6509be50\n      eq\n      tag_4\n      jumpi\n      dup1\n      0x79f03d9b\n      eq\n      tag_5\n      jumpi\n    tag_2:\n      0x00\n      dup1\n      revert\n        /* \"DataStorage.sol\":447:571  function memory1() public{... */\n    tag_3:\n      tag_6\n      tag_7\n      jump\t// in\n    tag_6:\n      stop\n        /* \"DataStorage.sol\":134:350  function callData1(uint[] calldata _x) public pure returns (uint[] calldata) {... */\n    tag_4:\n      tag_8\n      0x04\n      dup1\n      calldatasize\n      sub\n      dup2\n      add\n      swap1\n      tag_9\n      swap2\n      swap1\n      tag_10\n      jump\t// in\n    tag_9:\n      tag_11\n      jump\t// in\n    tag_8:\n      mload(0x40)\n      tag_12\n      swap3\n      swap2\n      swap1\n      tag_13\n      jump\t// in\n    tag_12:\n      mload(0x40)\n      dup1\n      swap2\n      sub\n      swap1\n      return\n        /* \"DataStorage.sol\":356:441  function storage1() public{... */\n    tag_5:\n      tag_14\n      tag_15\n      jump\t// in\n    tag_14:\n      stop\n        /* \"DataStorage.sol\":447:571  function memory1() public{... */\n    tag_7:\n        /* \"DataStorage.sol\":482:498  uint[] memory xm */\n      0x00\n        /* \"DataStorage.sol\":501:502  x */\n      dup1\n        /* \"DataStorage.sol\":482:502  uint[] memory xm = x */\n      dup1\n      sload\n      dup1\n      0x20\n      mul\n      0x20\n      add\n      mload(0x40)\n      swap1\n      dup2\n      add\n      0x40\n      mstore\n      dup1\n      swap3\n      swap2\n      swap1\n      dup2\n      dup2\n      mstore\n      0x20\n      add\n      dup3\n      dup1\n      sload\n      dup1\n      iszero\n      tag_17\n      jumpi\n      0x20\n      mul\n      dup3\n      add\n      swap2\n      swap1\n      0x00\n      mstore\n      keccak256(0x00, 0x20)\n      swap1\n    tag_18:\n      dup2\n      sload\n      dup2\n      mstore\n      0x20\n      add\n      swap1\n      0x01\n      add\n      swap1\n      dup1\n      dup4\n      gt\n      tag_18\n      jumpi\n    tag_17:\n      pop\n      pop\n      pop\n      pop\n      pop\n      swap1\n      pop\n        /* \"DataStorage.sol\":520:523  100 */\n      0x64\n        /* \"DataStorage.sol\":512:514  xm */\n      dup2\n        /* \"DataStorage.sol\":515:516  0 */\n      0x00\n        /* \"DataStorage.sol\":512:517  xm[0] */\n      dup2\n      mload\n      dup2\n      lt\n      tag_19\n      jumpi\n      tag_20\n      tag_21\n      jump\t// in\n    tag_20:\n    tag_19:\n      0x20\n      mul\n      0x20\n      add\n      add\n        /* \"DataStorage.sol\":512:523  xm[0] = 100 */\n      dup2\n      dup2\n      mstore\n      pop\n      pop\n        /* \"DataStorage.sol\":541:544  200 */\n      0xc8\n        /* \"DataStorage.sol\":533:535  xm */\n      dup2\n        /* \"DataStorage.sol\":536:537  1 */\n      0x01\n        /* \"DataStorage.sol\":533:538  xm[1] */\n      dup2\n      mload\n      dup2\n      lt\n      tag_22\n      jumpi\n      tag_23\n      tag_21\n      jump\t// in\n    tag_23:\n    tag_22:\n      0x20\n      mul\n      0x20\n      add\n      add\n        /* \"DataStorage.sol\":533:544  xm[1] = 200 */\n      dup2\n      dup2\n      mstore\n      pop\n      pop\n        /* \"DataStorage.sol\":561:564  400 */\n      0x0190\n        /* \"DataStorage.sol\":554:555  x */\n      0x00\n        /* \"DataStorage.sol\":556:557  0 */\n      dup1\n        /* \"DataStorage.sol\":554:558  x[0] */\n      dup2\n      sload\n      dup2\n      lt\n      tag_24\n      jumpi\n      tag_25\n      tag_21\n      jump\t// in\n    tag_25:\n    tag_24:\n      swap1\n      0x00\n      mstore\n      keccak256(0x00, 0x20)\n      add\n        /* \"DataStorage.sol\":554:564  x[0] = 400 */\n      dup2\n      swap1\n      sstore\n      pop\n        /* \"DataStorage.sol\":472:571  {... */\n      pop\n        /* \"DataStorage.sol\":447:571  function memory1() public{... */\n      jump\t// out\n        /* \"DataStorage.sol\":134:350  function callData1(uint[] calldata _x) public pure returns (uint[] calldata) {... */\n    tag_11:\n        /* \"DataStorage.sol\":194:209  uint[] calldata */\n      calldatasize\n      0x00\n        /* \"DataStorage.sol\":341:343  _x */\n      dup4\n      dup4\n        /* \"DataStorage.sol\":334:343  return _x */\n      swap2\n      pop\n      swap2\n      pop\n        /* \"DataStorage.sol\":134:350  function callData1(uint[] calldata _x) public pure returns (uint[] calldata) {... */\n      swap3\n      pop\n      swap3\n      swap1\n      pop\n      jump\t// out\n        /* \"DataStorage.sol\":356:441  function storage1() public{... */\n    tag_15:\n        /* \"DataStorage.sol\":392:409  uint[] storage xs */\n      0x00\n        /* \"DataStorage.sol\":431:434  100 */\n      0x64\n        /* \"DataStorage.sol\":423:425  xs */\n      dup2\n        /* \"DataStorage.sol\":426:427  0 */\n      0x00\n        /* \"DataStorage.sol\":423:428  xs[0] */\n      dup2\n      sload\n      dup2\n      lt\n      tag_29\n      jumpi\n      tag_30\n      tag_21\n      jump\t// in\n    tag_30:\n    tag_29:\n      swap1\n      0x00\n      mstore\n      keccak256(0x00, 0x20)\n      add\n        /* \"DataStorage.sol\":423:434  xs[0] = 100 */\n      dup2\n      swap1\n      sstore\n      pop\n        /* \"DataStorage.sol\":382:441  {... */\n      pop\n        /* \"DataStorage.sol\":356:441  function storage1() public{... */\n      jump\t// out\n        /* \"#utility.yul\":88:205   */\n    tag_33:\n        /* \"#utility.yul\":197:198   */\n      0x00\n        /* \"#utility.yul\":194:195   */\n      dup1\n        /* \"#utility.yul\":187:199   */\n      revert\n        /* \"#utility.yul\":211:328   */\n    tag_34:\n        /* \"#utility.yul\":320:321   */\n      0x00\n        /* \"#utility.yul\":317:318   */\n      dup1\n        /* \"#utility.yul\":310:322   */\n      revert\n        /* \"#utility.yul\":334:451   */\n    tag_35:\n        /* \"#utility.yul\":443:444   */\n      0x00\n        /* \"#utility.yul\":440:441   */\n      dup1\n        /* \"#utility.yul\":433:445   */\n      revert\n        /* \"#utility.yul\":457:574   */\n    tag_36:\n        /* \"#utility.yul\":566:567   */\n      0x00\n        /* \"#utility.yul\":563:564   */\n      dup1\n        /* \"#utility.yul\":556:568   */\n      revert\n        /* \"#utility.yul\":580:697   */\n    tag_37:\n        /* \"#utility.yul\":689:690   */\n      0x00\n        /* \"#utility.yul\":686:687   */\n      dup1\n        /* \"#utility.yul\":679:691   */\n      revert\n        /* \"#utility.yul\":720:1288   */\n    tag_38:\n        /* \"#utility.yul\":793:801   */\n      0x00\n        /* \"#utility.yul\":803:809   */\n      dup1\n        /* \"#utility.yul\":853:856   */\n      dup4\n        /* \"#utility.yul\":846:850   */\n      0x1f\n        /* \"#utility.yul\":838:844   */\n      dup5\n        /* \"#utility.yul\":834:851   */\n      add\n        /* \"#utility.yul\":830:857   */\n      slt\n        /* \"#utility.yul\":820:942   */\n      tag_51\n      jumpi\n        /* \"#utility.yul\":861:940   */\n      tag_52\n      tag_35\n      jump\t// in\n    tag_52:\n        /* \"#utility.yul\":820:942   */\n    tag_51:\n        /* \"#utility.yul\":974:980   */\n      dup3\n        /* \"#utility.yul\":961:981   */\n      calldataload\n        /* \"#utility.yul\":951:981   */\n      swap1\n      pop\n        /* \"#utility.yul\":1004:1022   */\n      0xffffffffffffffff\n        /* \"#utility.yul\":996:1002   */\n      dup2\n        /* \"#utility.yul\":993:1023   */\n      gt\n        /* \"#utility.yul\":990:1107   */\n      iszero\n      tag_53\n      jumpi\n        /* \"#utility.yul\":1026:1105   */\n      tag_54\n      tag_36\n      jump\t// in\n    tag_54:\n        /* \"#utility.yul\":990:1107   */\n    tag_53:\n        /* \"#utility.yul\":1140:1144   */\n      0x20\n        /* \"#utility.yul\":1132:1138   */\n      dup4\n        /* \"#utility.yul\":1128:1145   */\n      add\n        /* \"#utility.yul\":1116:1145   */\n      swap2\n      pop\n        /* \"#utility.yul\":1194:1197   */\n      dup4\n        /* \"#utility.yul\":1186:1190   */\n      0x20\n        /* \"#utility.yul\":1178:1184   */\n      dup3\n        /* \"#utility.yul\":1174:1191   */\n      mul\n        /* \"#utility.yul\":1164:1172   */\n      dup4\n        /* \"#utility.yul\":1160:1192   */\n      add\n        /* \"#utility.yul\":1157:1198   */\n      gt\n        /* \"#utility.yul\":1154:1282   */\n      iszero\n      tag_55\n      jumpi\n        /* \"#utility.yul\":1201:1280   */\n      tag_56\n      tag_37\n      jump\t// in\n    tag_56:\n        /* \"#utility.yul\":1154:1282   */\n    tag_55:\n        /* \"#utility.yul\":720:1288   */\n      swap3\n      pop\n      swap3\n      swap1\n      pop\n      jump\t// out\n        /* \"#utility.yul\":1294:1853   */\n    tag_10:\n        /* \"#utility.yul\":1380:1386   */\n      0x00\n        /* \"#utility.yul\":1388:1394   */\n      dup1\n        /* \"#utility.yul\":1437:1439   */\n      0x20\n        /* \"#utility.yul\":1425:1434   */\n      dup4\n        /* \"#utility.yul\":1416:1423   */\n      dup6\n        /* \"#utility.yul\":1412:1435   */\n      sub\n        /* \"#utility.yul\":1408:1440   */\n      slt\n        /* \"#utility.yul\":1405:1524   */\n      iszero\n      tag_58\n      jumpi\n        /* \"#utility.yul\":1443:1522   */\n      tag_59\n      tag_33\n      jump\t// in\n    tag_59:\n        /* \"#utility.yul\":1405:1524   */\n    tag_58:\n        /* \"#utility.yul\":1591:1592   */\n      0x00\n        /* \"#utility.yul\":1580:1589   */\n      dup4\n        /* \"#utility.yul\":1576:1593   */\n      add\n        /* \"#utility.yul\":1563:1594   */\n      calldataload\n        /* \"#utility.yul\":1621:1639   */\n      0xffffffffffffffff\n        /* \"#utility.yul\":1613:1619   */\n      dup2\n        /* \"#utility.yul\":1610:1640   */\n      gt\n        /* \"#utility.yul\":1607:1724   */\n      iszero\n      tag_60\n      jumpi\n        /* \"#utility.yul\":1643:1722   */\n      tag_61\n      tag_34\n      jump\t// in\n    tag_61:\n        /* \"#utility.yul\":1607:1724   */\n    tag_60:\n        /* \"#utility.yul\":1756:1836   */\n      tag_62\n        /* \"#utility.yul\":1828:1835   */\n      dup6\n        /* \"#utility.yul\":1819:1825   */\n      dup3\n        /* \"#utility.yul\":1808:1817   */\n      dup7\n        /* \"#utility.yul\":1804:1826   */\n      add\n        /* \"#utility.yul\":1756:1836   */\n      tag_38\n      jump\t// in\n    tag_62:\n        /* \"#utility.yul\":1738:1836   */\n      swap3\n      pop\n      swap3\n      pop\n        /* \"#utility.yul\":1534:1846   */\n      pop\n        /* \"#utility.yul\":1294:1853   */\n      swap3\n      pop\n      swap3\n      swap1\n      pop\n      jump\t// out\n        /* \"#utility.yul\":1859:2043   */\n    tag_39:\n        /* \"#utility.yul\":1958:1969   */\n      0x00\n        /* \"#utility.yul\":1992:1998   */\n      dup3\n        /* \"#utility.yul\":1987:1990   */\n      dup3\n        /* \"#utility.yul\":1980:1999   */\n      mstore\n        /* \"#utility.yul\":2032:2036   */\n      0x20\n        /* \"#utility.yul\":2027:2030   */\n      dup3\n        /* \"#utility.yul\":2023:2037   */\n      add\n        /* \"#utility.yul\":2008:2037   */\n      swap1\n      pop\n        /* \"#utility.yul\":1859:2043   */\n      swap3\n      swap2\n      pop\n      pop\n      jump\t// out\n        /* \"#utility.yul\":2049:2166   */\n    tag_40:\n        /* \"#utility.yul\":2158:2159   */\n      0x00\n        /* \"#utility.yul\":2155:2156   */\n      dup1\n        /* \"#utility.yul\":2148:2160   */\n      revert\n        /* \"#utility.yul\":2172:2270   */\n    tag_41:\n        /* \"#utility.yul\":2256:2262   */\n      dup3\n        /* \"#utility.yul\":2251:2254   */\n      dup2\n        /* \"#utility.yul\":2246:2249   */\n      dup4\n        /* \"#utility.yul\":2233:2263   */\n      calldatacopy\n        /* \"#utility.yul\":2172:2270   */\n      pop\n      pop\n      pop\n      jump\t// out\n        /* \"#utility.yul\":2306:2843   */\n    tag_42:\n        /* \"#utility.yul\":2434:2437   */\n      0x00\n        /* \"#utility.yul\":2455:2541   */\n      tag_67\n        /* \"#utility.yul\":2534:2540   */\n      dup4\n        /* \"#utility.yul\":2529:2532   */\n      dup6\n        /* \"#utility.yul\":2455:2541   */\n      tag_39\n      jump\t// in\n    tag_67:\n        /* \"#utility.yul\":2448:2541   */\n      swap4\n      pop\n        /* \"#utility.yul\":2565:2631   */\n      0x07ffffffffffffffffffffffffffffffffffffffffffffffffffffffffffffff\n        /* \"#utility.yul\":2557:2563   */\n      dup4\n        /* \"#utility.yul\":2554:2632   */\n      gt\n        /* \"#utility.yul\":2551:2716   */\n      iszero\n      tag_68\n      jumpi\n        /* \"#utility.yul\":2635:2714   */\n      tag_69\n      tag_40\n      jump\t// in\n    tag_69:\n        /* \"#utility.yul\":2551:2716   */\n    tag_68:\n        /* \"#utility.yul\":2747:2751   */\n      0x20\n        /* \"#utility.yul\":2739:2745   */\n      dup4\n        /* \"#utility.yul\":2735:2752   */\n      mul\n        /* \"#utility.yul\":2725:2752   */\n      swap3\n      pop\n        /* \"#utility.yul\":2762:2805   */\n      tag_70\n        /* \"#utility.yul\":2798:2804   */\n      dup4\n        /* \"#utility.yul\":2793:2796   */\n      dup6\n        /* \"#utility.yul\":2786:2791   */\n      dup5\n        /* \"#utility.yul\":2762:2805   */\n      tag_41\n      jump\t// in\n    tag_70:\n        /* \"#utility.yul\":2830:2836   */\n      dup3\n        /* \"#utility.yul\":2825:2828   */\n      dup5\n        /* \"#utility.yul\":2821:2837   */\n      add\n        /* \"#utility.yul\":2814:2837   */\n      swap1\n      pop\n        /* \"#utility.yul\":2306:2843   */\n      swap4\n      swap3\n      pop\n      pop\n      pop\n      jump\t// out\n        /* \"#utility.yul\":2849:3242   */\n    tag_13:\n        /* \"#utility.yul\":3002:3006   */\n      0x00\n        /* \"#utility.yul\":3040:3042   */\n      0x20\n        /* \"#utility.yul\":3029:3038   */\n      dup3\n        /* \"#utility.yul\":3025:3043   */\n      add\n        /* \"#utility.yul\":3017:3043   */\n      swap1\n      pop\n        /* \"#utility.yul\":3089:3098   */\n      dup2\n        /* \"#utility.yul\":3083:3087   */\n      dup2\n        /* \"#utility.yul\":3079:3099   */\n      sub\n        /* \"#utility.yul\":3075:3076   */\n      0x00\n        /* \"#utility.yul\":3064:3073   */\n      dup4\n        /* \"#utility.yul\":3060:3077   */\n      add\n        /* \"#utility.yul\":3053:3100   */\n      mstore\n        /* \"#utility.yul\":3117:3235   */\n      tag_72\n        /* \"#utility.yul\":3230:3234   */\n      dup2\n        /* \"#utility.yul\":3221:3227   */\n      dup5\n        /* \"#utility.yul\":3213:3219   */\n      dup7\n        /* \"#utility.yul\":3117:3235   */\n      tag_42\n      jump\t// in\n    tag_72:\n        /* \"#utility.yul\":3109:3235   */\n      swap1\n      pop\n        /* \"#utility.yul\":2849:3242   */\n      swap4\n      swap3\n      pop\n      pop\n      pop\n      jump\t// out\n        /* \"#utility.yul\":3248:3428   */\n    tag_21:\n        /* \"#utility.yul\":3296:3373   */\n      0x4e487b7100000000000000000000000000000000000000000000000000000000\n        /* \"#utility.yul\":3293:3294   */\n      0x00\n        /* \"#utility.yul\":3286:3374   */\n      mstore\n        /* \"#utility.yul\":3393:3397   */\n      0x32\n        /* \"#utility.yul\":3390:3391   */\n      0x04\n        /* \"#utility.yul\":3383:3398   */\n      mstore\n        /* \"#utility.yul\":3417:3421   */\n      0x24\n        /* \"#utility.yul\":3414:3415   */\n      0x00\n        /* \"#utility.yul\":3407:3422   */\n      revert\n\n    auxdata: 0xa264697066735822122009309a2af297bce439fb77114ab1b357588efab634ed38c5b307782e356f8b2d64736f6c63430008110033\n}\n",
				"bytecode": {
					"linkReferences": {},
					"object": "60806040526040518060600160405280600160ff168152602001600260ff168152602001600360ff16815250600090600361003b92919061004e565b5034801561004857600080fd5b506100bd565b82805482825590600052602060002090810192821561008f579160200282015b8281111561008e578251829060ff1690559160200191906001019061006e565b5b50905061009c91906100a0565b5090565b5b808211156100b95760008160009055506001016100a1565b5090565b610344806100cc6000396000f3fe608060405234801561001057600080fd5b50600436106100415760003560e01c80630208c2ea146100465780636509be501461005057806379f03d9b14610081575b600080fd5b61004e61008b565b005b61006a600480360381019061006591906101f3565b61014b565b6040516100789291906102bb565b60405180910390f35b61008961015b565b005b6000808054806020026020016040519081016040528092919081815260200182805480156100d857602002820191906000526020600020905b8154815260200190600101908083116100c4575b505050505090506064816000815181106100f5576100f46102df565b5b60200260200101818152505060c881600181518110610117576101166102df565b5b6020026020010181815250506101906000808154811061013a576101396102df565b5b906000526020600020018190555050565b3660008383915091509250929050565b6000606481600081548110610173576101726102df565b5b906000526020600020018190555050565b600080fd5b600080fd5b600080fd5b600080fd5b600080fd5b60008083601f8401126101b3576101b261018e565b5b8235905067ffffffffffffffff8111156101d0576101cf610193565b5b6020830191508360208202830111156101ec576101eb610198565b5b9250929050565b6000806020838503121561020a57610209610184565b5b600083013567ffffffffffffffff81111561022857610227610189565b5b6102348582860161019d565b92509250509250929050565b600082825260208201905092915050565b600080fd5b82818337505050565b600061026b8385610240565b93507f07ffffffffffffffffffffffffffffffffffffffffffffffffffffffffffffff83111561029e5761029d610251565b5b6020830292506102af838584610256565b82840190509392505050565b600060208201905081810360008301526102d681848661025f565b90509392505050565b7f4e487b7100000000000000000000000000000000000000000000000000000000600052603260045260246000fdfea264697066735822122009309a2af297bce439fb77114ab1b357588efab634ed38c5b307782e356f8b2d64736f6c63430008110033",
					"opcodes": "PUSH1 0x80 PUSH1 0x40 MSTORE PUSH1 0x40 MLOAD DUP1 PUSH1 0x60 ADD PUSH1 0x40 MSTORE DUP1 PUSH1 0x1 PUSH1 0xFF AND DUP2 MSTORE PUSH1 0x20 ADD PUSH1 0x2 PUSH1 0xFF AND DUP2 MSTORE PUSH1 0x20 ADD PUSH1 0x3 PUSH1 0xFF AND DUP2 MSTORE POP PUSH1 0x0 SWAP1 PUSH1 0x3 PUSH2 0x3B SWAP3 SWAP2 SWAP1 PUSH2 0x4E JUMP JUMPDEST POP CALLVALUE DUP1 ISZERO PUSH2 0x48 JUMPI PUSH1 0x0 DUP1 REVERT JUMPDEST POP PUSH2 0xBD JUMP JUMPDEST DUP3 DUP1 SLOAD DUP3 DUP3 SSTORE SWAP1 PUSH1 0x0 MSTORE PUSH1 0x20 PUSH1 0x0 KECCAK256 SWAP1 DUP2 ADD SWAP3 DUP3 ISZERO PUSH2 0x8F JUMPI SWAP2 PUSH1 0x20 MUL DUP3 ADD JUMPDEST DUP3 DUP2 GT ISZERO PUSH2 0x8E JUMPI DUP3 MLOAD DUP3 SWAP1 PUSH1 0xFF AND SWAP1 SSTORE SWAP2 PUSH1 0x20 ADD SWAP2 SWAP1 PUSH1 0x1 ADD SWAP1 PUSH2 0x6E JUMP JUMPDEST JUMPDEST POP SWAP1 POP PUSH2 0x9C SWAP2 SWAP1 PUSH2 0xA0 JUMP JUMPDEST POP SWAP1 JUMP JUMPDEST JUMPDEST DUP1 DUP3 GT ISZERO PUSH2 0xB9 JUMPI PUSH1 0x0 DUP2 PUSH1 0x0 SWAP1 SSTORE POP PUSH1 0x1 ADD PUSH2 0xA1 JUMP JUMPDEST POP SWAP1 JUMP JUMPDEST PUSH2 0x344 DUP1 PUSH2 0xCC PUSH1 0x0 CODECOPY PUSH1 0x0 RETURN INVALID PUSH1 0x80 PUSH1 0x40 MSTORE CALLVALUE DUP1 ISZERO PUSH2 0x10 JUMPI PUSH1 0x0 DUP1 REVERT JUMPDEST POP PUSH1 0x4 CALLDATASIZE LT PUSH2 0x41 JUMPI PUSH1 0x0 CALLDATALOAD PUSH1 0xE0 SHR DUP1 PUSH4 0x208C2EA EQ PUSH2 0x46 JUMPI DUP1 PUSH4 0x6509BE50 EQ PUSH2 0x50 JUMPI DUP1 PUSH4 0x79F03D9B EQ PUSH2 0x81 JUMPI JUMPDEST PUSH1 0x0 DUP1 REVERT JUMPDEST PUSH2 0x4E PUSH2 0x8B JUMP JUMPDEST STOP JUMPDEST PUSH2 0x6A PUSH1 0x4 DUP1 CALLDATASIZE SUB DUP2 ADD SWAP1 PUSH2 0x65 SWAP2 SWAP1 PUSH2 0x1F3 JUMP JUMPDEST PUSH2 0x14B JUMP JUMPDEST PUSH1 0x40 MLOAD PUSH2 0x78 SWAP3 SWAP2 SWAP1 PUSH2 0x2BB JUMP JUMPDEST PUSH1 0x40 MLOAD DUP1 SWAP2 SUB SWAP1 RETURN JUMPDEST PUSH2 0x89 PUSH2 0x15B JUMP JUMPDEST STOP JUMPDEST PUSH1 0x0 DUP1 DUP1 SLOAD DUP1 PUSH1 0x20 MUL PUSH1 0x20 ADD PUSH1 0x40 MLOAD SWAP1 DUP2 ADD PUSH1 0x40 MSTORE DUP1 SWAP3 SWAP2 SWAP1 DUP2 DUP2 MSTORE PUSH1 0x20 ADD DUP3 DUP1 SLOAD DUP1 ISZERO PUSH2 0xD8 JUMPI PUSH1 0x20 MUL DUP3 ADD SWAP2 SWAP1 PUSH1 0x0 MSTORE PUSH1 0x20 PUSH1 0x0 KECCAK256 SWAP1 JUMPDEST DUP2 SLOAD DUP2 MSTORE PUSH1 0x20 ADD SWAP1 PUSH1 0x1 ADD SWAP1 DUP1 DUP4 GT PUSH2 0xC4 JUMPI JUMPDEST POP POP POP POP POP SWAP1 POP PUSH1 0x64 DUP2 PUSH1 0x0 DUP2 MLOAD DUP2 LT PUSH2 0xF5 JUMPI PUSH2 0xF4 PUSH2 0x2DF JUMP JUMPDEST JUMPDEST PUSH1 0x20 MUL PUSH1 0x20 ADD ADD DUP2 DUP2 MSTORE POP POP PUSH1 0xC8 DUP2 PUSH1 0x1 DUP2 MLOAD DUP2 LT PUSH2 0x117 JUMPI PUSH2 0x116 PUSH2 0x2DF JUMP JUMPDEST JUMPDEST PUSH1 0x20 MUL PUSH1 0x20 ADD ADD DUP2 DUP2 MSTORE POP POP PUSH2 0x190 PUSH1 0x0 DUP1 DUP2 SLOAD DUP2 LT PUSH2 0x13A JUMPI PUSH2 0x139 PUSH2 0x2DF JUMP JUMPDEST JUMPDEST SWAP1 PUSH1 0x0 MSTORE PUSH1 0x20 PUSH1 0x0 KECCAK256 ADD DUP2 SWAP1 SSTORE POP POP JUMP JUMPDEST CALLDATASIZE PUSH1 0x0 DUP4 DUP4 SWAP2 POP SWAP2 POP SWAP3 POP SWAP3 SWAP1 POP JUMP JUMPDEST PUSH1 0x0 PUSH1 0x64 DUP2 PUSH1 0x0 DUP2 SLOAD DUP2 LT PUSH2 0x173 JUMPI PUSH2 0x172 PUSH2 0x2DF JUMP JUMPDEST JUMPDEST SWAP1 PUSH1 0x0 MSTORE PUSH1 0x20 PUSH1 0x0 KECCAK256 ADD DUP2 SWAP1 SSTORE POP POP JUMP JUMPDEST PUSH1 0x0 DUP1 REVERT JUMPDEST PUSH1 0x0 DUP1 REVERT JUMPDEST PUSH1 0x0 DUP1 REVERT JUMPDEST PUSH1 0x0 DUP1 REVERT JUMPDEST PUSH1 0x0 DUP1 REVERT JUMPDEST PUSH1 0x0 DUP1 DUP4 PUSH1 0x1F DUP5 ADD SLT PUSH2 0x1B3 JUMPI PUSH2 0x1B2 PUSH2 0x18E JUMP JUMPDEST JUMPDEST DUP3 CALLDATALOAD SWAP1 POP PUSH8 0xFFFFFFFFFFFFFFFF DUP2 GT ISZERO PUSH2 0x1D0 JUMPI PUSH2 0x1CF PUSH2 0x193 JUMP JUMPDEST JUMPDEST PUSH1 0x20 DUP4 ADD SWAP2 POP DUP4 PUSH1 0x20 DUP3 MUL DUP4 ADD GT ISZERO PUSH2 0x1EC JUMPI PUSH2 0x1EB PUSH2 0x198 JUMP JUMPDEST JUMPDEST SWAP3 POP SWAP3 SWAP1 POP JUMP JUMPDEST PUSH1 0x0 DUP1 PUSH1 0x20 DUP4 DUP6 SUB SLT ISZERO PUSH2 0x20A JUMPI PUSH2 0x209 PUSH2 0x184 JUMP JUMPDEST JUMPDEST PUSH1 0x0 DUP4 ADD CALLDATALOAD PUSH8 0xFFFFFFFFFFFFFFFF DUP2 GT ISZERO PUSH2 0x228 JUMPI PUSH2 0x227 PUSH2 0x189 JUMP JUMPDEST JUMPDEST PUSH2 0x234 DUP6 DUP3 DUP7 ADD PUSH2 0x19D JUMP JUMPDEST SWAP3 POP SWAP3 POP POP SWAP3 POP SWAP3 SWAP1 POP JUMP JUMPDEST PUSH1 0x0 DUP3 DUP3 MSTORE PUSH1 0x20 DUP3 ADD SWAP1 POP SWAP3 SWAP2 POP POP JUMP JUMPDEST PUSH1 0x0 DUP1 REVERT JUMPDEST DUP3 DUP2 DUP4 CALLDATACOPY POP POP POP JUMP JUMPDEST PUSH1 0x0 PUSH2 0x26B DUP4 DUP6 PUSH2 0x240 JUMP JUMPDEST SWAP4 POP PUSH32 0x7FFFFFFFFFFFFFFFFFFFFFFFFFFFFFFFFFFFFFFFFFFFFFFFFFFFFFFFFFFFFFF DUP4 GT ISZERO PUSH2 0x29E JUMPI PUSH2 0x29D PUSH2 0x251 JUMP JUMPDEST JUMPDEST PUSH1 0x20 DUP4 MUL SWAP3 POP PUSH2 0x2AF DUP4 DUP6 DUP5 PUSH2 0x256 JUMP JUMPDEST DUP3 DUP5 ADD SWAP1 POP SWAP4 SWAP3 POP POP POP JUMP JUMPDEST PUSH1 0x0 PUSH1 0x20 DUP3 ADD SWAP1 POP DUP2 DUP2 SUB PUSH1 0x0 DUP4 ADD MSTORE PUSH2 0x2D6 DUP2 DUP5 DUP7 PUSH2 0x25F JUMP JUMPDEST SWAP1 POP SWAP4 SWAP3 POP POP POP JUMP JUMPDEST PUSH32 0x4E487B7100000000000000000000000000000000000000000000000000000000 PUSH1 0x0 MSTORE PUSH1 0x32 PUSH1 0x4 MSTORE PUSH1 0x24 PUSH1 0x0 REVERT INVALID LOG2 PUSH5 0x6970667358 0x22 SLT KECCAK256 MULMOD ADDRESS SWAP11 0x2A CALLCODE SWAP8 0xBC 0xE4 CODECOPY 0xFB PUSH24 0x114AB1B357588EFAB634ED38C5B307782E356F8B2D64736F PUSH13 0x63430008110033000000000000 "
				},
				"gasEstimates": {
					"creation": {
						"codeDepositCost": "167200",
						"executionCost": "infinite",
						"totalCost": "infinite"
					},
					"external": {
						"callData1(uint256[])": "infinite",
						"memory1()": "infinite",
						"storage1()": "24465"
					}
				},
				"methodIdentifiers": {
					"callData1(uint256[])": "6509be50",
					"memory1()": "0208c2ea",
					"storage1()": "79f03d9b"
				}
			},
			"storageLayout": {
				"storage": [
					{
						"astId": 8,
						"contract": "DataStorage.sol:DataStorage",
						"label": "x",
						"offset": 0,
						"slot": "0",
						"type": "t_array(t_uint256)dyn_storage"
					}
				],
				"types": {
					"t_array(t_uint256)dyn_storage": {
						"base": "t_uint256",
						"encoding": "dynamic_array",
						"label": "uint256[]",
						"numberOfBytes": "32"
					},
					"t_uint256": {
						"encoding": "inplace",
						"label": "uint256",
						"numberOfBytes": "32"
					}
				}
			},
			"userdoc": {
				"kind": "user",
				"methods": {},
				"version": 1
			}
		}
	}
}