{
	"ABIEncodeDecode.sol": {
		"ABIEncodeAndDecode": {
			"abi": [
				{
					"inputs": [
						{
							"internalType": "bytes",
							"name": "data",
							"type": "bytes"
						}
					],
					"name": "decode",
					"outputs": [
						{
							"internalType": "uint256",
							"name": "_a",
							"type": "uint256"
						},
						{
							"internalType": "address",
							"name": "_b",
							"type": "address"
						},
						{
							"internalType": "uint256[]",
							"name": "_c",
							"type": "uint256[]"
						},
						{
							"components": [
								{
									"internalType": "string",
									"name": "name",
									"type": "string"
								},
								{
									"internalType": "uint256[]",
									"name": "nums",
									"type": "uint256[]"
								}
							],
							"internalType": "struct ABIEncodeAndDecode.Car",
							"name": "_d",
							"type": "tuple"
						}
					],
					"stateMutability": "pure",
					"type": "function"
				},
				{
					"inputs": [
						{
							"internalType": "uint256",
							"name": "_a",
							"type": "uint256"
						},
						{
							"internalType": "address",
							"name": "_b",
							"type": "address"
						},
						{
							"internalType": "uint256[]",
							"name": "_c",
							"type": "uint256[]"
						},
						{
							"components": [
								{
									"internalType": "string",
									"name": "name",
									"type": "string"
								},
								{
									"internalType": "uint256[]",
									"name": "nums",
									"type": "uint256[]"
								}
							],
							"internalType": "struct ABIEncodeAndDecode.Car",
							"name": "_d",
							"type": "tuple"
						}
					],
					"name": "encode",
					"outputs": [
						{
							"internalType": "bytes",
							"name": "",
							"type": "bytes"
						}
					],
					"stateMutability": "pure",
					"type": "function"
				},
				{
					"inputs": [
						{
							"internalType": "uint256",
							"name": "_a",
							"type": "uint256"
						},
						{
							"internalType": "address",
							"name": "_b",
							"type": "address"
						},
						{
							"internalType": "uint256[]",
							"name": "_c",
							"type": "uint256[]"
						}
					],
					"name": "encodePacked",
					"outputs": [
						{
							"internalType": "bytes",
							"name": "",
							"type": "bytes"
						}
					],
					"stateMutability": "pure",
					"type": "function"
				}
			],
			"devdoc": {
				"kind": "dev",
				"methods": {},
				"version": 1
			},
			"evm": {
				"assembly": "    /* \"ABIEncodeDecode.sol\":75:838  contract ABIEncodeAndDecode {... */\n  mstore(0x40, 0x80)\n  callvalue\n  dup1\n  iszero\n  tag_1\n  jumpi\n  0x00\n  dup1\n  revert\ntag_1:\n  pop\n  dataSize(sub_0)\n  dup1\n  dataOffset(sub_0)\n  0x00\n  codecopy\n  0x00\n  return\nstop\n\nsub_0: assembly {\n        /* \"ABIEncodeDecode.sol\":75:838  contract ABIEncodeAndDecode {... */\n      mstore(0x40, 0x80)\n      callvalue\n      dup1\n      iszero\n      tag_1\n      jumpi\n      0x00\n      dup1\n      revert\n    tag_1:\n      pop\n      jumpi(tag_2, lt(calldatasize, 0x04))\n      shr(0xe0, calldataload(0x00))\n      dup1\n      0xb9ff2f08\n      eq\n      tag_3\n      jumpi\n      dup1\n      0xe5c5e9a3\n      eq\n      tag_4\n      jumpi\n      dup1\n      0xeacc0e01\n      eq\n      tag_5\n      jumpi\n    tag_2:\n      0x00\n      dup1\n      revert\n        /* \"ABIEncodeDecode.sol\":228:388  function encode(uint _a, address _b, uint[] calldata _c, Car calldata _d) external pure returns (bytes memory){... */\n    tag_3:\n      tag_6\n      0x04\n      dup1\n      calldatasize\n      sub\n      dup2\n      add\n      swap1\n      tag_7\n      swap2\n      swap1\n      tag_8\n      jump\t// in\n    tag_7:\n      tag_9\n      jump\t// in\n    tag_6:\n      mload(0x40)\n      tag_10\n      swap2\n      swap1\n      tag_11\n      jump\t// in\n    tag_10:\n      mload(0x40)\n      dup1\n      swap2\n      sub\n      swap1\n      return\n        /* \"ABIEncodeDecode.sol\":641:836  function decode(bytes calldata data) external pure returns (uint _a, address _b, uint[] memory _c, Car memory _d){... */\n    tag_4:\n      tag_12\n      0x04\n      dup1\n      calldatasize\n      sub\n      dup2\n      add\n      swap1\n      tag_13\n      swap2\n      swap1\n      tag_14\n      jump\t// in\n    tag_13:\n      tag_15\n      jump\t// in\n    tag_12:\n      mload(0x40)\n      tag_16\n      swap5\n      swap4\n      swap3\n      swap2\n      swap1\n      tag_17\n      jump\t// in\n    tag_16:\n      mload(0x40)\n      dup1\n      swap2\n      sub\n      swap1\n      return\n        /* \"ABIEncodeDecode.sol\":484:635  function encodePacked(uint _a, address _b, uint[] calldata _c) external pure returns (bytes memory){... */\n    tag_5:\n      tag_18\n      0x04\n      dup1\n      calldatasize\n      sub\n      dup2\n      add\n      swap1\n      tag_19\n      swap2\n      swap1\n      tag_20\n      jump\t// in\n    tag_19:\n      tag_21\n      jump\t// in\n    tag_18:\n      mload(0x40)\n      tag_22\n      swap2\n      swap1\n      tag_11\n      jump\t// in\n    tag_22:\n      mload(0x40)\n      dup1\n      swap2\n      sub\n      swap1\n      return\n        /* \"ABIEncodeDecode.sol\":228:388  function encode(uint _a, address _b, uint[] calldata _c, Car calldata _d) external pure returns (bytes memory){... */\n    tag_9:\n        /* \"ABIEncodeDecode.sol\":325:337  bytes memory */\n      0x60\n        /* \"ABIEncodeDecode.sol\":366:368  _a */\n      dup6\n        /* \"ABIEncodeDecode.sol\":370:372  _b */\n      dup6\n        /* \"ABIEncodeDecode.sol\":374:376  _c */\n      dup6\n      dup6\n        /* \"ABIEncodeDecode.sol\":378:380  _d */\n      dup6\n        /* \"ABIEncodeDecode.sol\":355:381  abi.encode(_a, _b, _c, _d) */\n      add(0x20, mload(0x40))\n      tag_24\n      swap6\n      swap5\n      swap4\n      swap3\n      swap2\n      swap1\n      tag_25\n      jump\t// in\n    tag_24:\n      mload(0x40)\n      0x20\n      dup2\n      dup4\n      sub\n      sub\n      dup2\n      mstore\n      swap1\n      0x40\n      mstore\n        /* \"ABIEncodeDecode.sol\":348:381  return abi.encode(_a, _b, _c, _d) */\n      swap1\n      pop\n        /* \"ABIEncodeDecode.sol\":228:388  function encode(uint _a, address _b, uint[] calldata _c, Car calldata _d) external pure returns (bytes memory){... */\n      swap6\n      swap5\n      pop\n      pop\n      pop\n      pop\n      pop\n      jump\t// out\n        /* \"ABIEncodeDecode.sol\":641:836  function decode(bytes calldata data) external pure returns (uint _a, address _b, uint[] memory _c, Car memory _d){... */\n    tag_15:\n        /* \"ABIEncodeDecode.sol\":701:708  uint _a */\n      0x00\n        /* \"ABIEncodeDecode.sol\":710:720  address _b */\n      dup1\n        /* \"ABIEncodeDecode.sol\":722:738  uint[] memory _c */\n      0x60\n        /* \"ABIEncodeDecode.sol\":740:753  Car memory _d */\n      tag_26\n      tag_27\n      jump\t// in\n    tag_26:\n        /* \"ABIEncodeDecode.sol\":794:798  data */\n      dup6\n      dup6\n        /* \"ABIEncodeDecode.sol\":783:829  abi.decode(data, (uint, address, uint[], Car)) */\n      dup2\n      add\n      swap1\n      tag_29\n      swap2\n      swap1\n      tag_30\n      jump\t// in\n    tag_29:\n        /* \"ABIEncodeDecode.sol\":764:829  (_a, _b, _c, _d) = abi.decode(data, (uint, address, uint[], Car)) */\n      dup1\n      swap5\n      pop\n      dup2\n      swap6\n      pop\n      dup3\n      swap7\n      pop\n      dup4\n      swap8\n      pop\n      pop\n      pop\n      pop\n      pop\n        /* \"ABIEncodeDecode.sol\":641:836  function decode(bytes calldata data) external pure returns (uint _a, address _b, uint[] memory _c, Car memory _d){... */\n      swap3\n      swap6\n      swap2\n      swap5\n      pop\n      swap3\n      pop\n      jump\t// out\n        /* \"ABIEncodeDecode.sol\":484:635  function encodePacked(uint _a, address _b, uint[] calldata _c) external pure returns (bytes memory){... */\n    tag_21:\n        /* \"ABIEncodeDecode.sol\":570:582  bytes memory */\n      0x60\n        /* \"ABIEncodeDecode.sol\":617:619  _a */\n      dup5\n        /* \"ABIEncodeDecode.sol\":621:623  _b */\n      dup5\n        /* \"ABIEncodeDecode.sol\":625:627  _c */\n      dup5\n      dup5\n        /* \"ABIEncodeDecode.sol\":600:628  abi.encodePacked(_a, _b, _c) */\n      add(0x20, mload(0x40))\n      tag_32\n      swap5\n      swap4\n      swap3\n      swap2\n      swap1\n      tag_33\n      jump\t// in\n    tag_32:\n      mload(0x40)\n      0x20\n      dup2\n      dup4\n      sub\n      sub\n      dup2\n      mstore\n      swap1\n      0x40\n      mstore\n        /* \"ABIEncodeDecode.sol\":593:628  return abi.encodePacked(_a, _b, _c) */\n      swap1\n      pop\n        /* \"ABIEncodeDecode.sol\":484:635  function encodePacked(uint _a, address _b, uint[] calldata _c) external pure returns (bytes memory){... */\n      swap5\n      swap4\n      pop\n      pop\n      pop\n      pop\n      jump\t// out\n    tag_27:\n      mload(0x40)\n      dup1\n      0x40\n      add\n      0x40\n      mstore\n      dup1\n      0x60\n      dup2\n      mstore\n      0x20\n      add\n      0x60\n      dup2\n      mstore\n      pop\n      swap1\n      jump\t// out\n        /* \"#utility.yul\":24:746   */\n    tag_35:\n        /* \"#utility.yul\":120:125   */\n      0x00\n        /* \"#utility.yul\":145:226   */\n      tag_37\n        /* \"#utility.yul\":161:225   */\n      tag_38\n        /* \"#utility.yul\":218:224   */\n      dup5\n        /* \"#utility.yul\":161:225   */\n      tag_39\n      jump\t// in\n    tag_38:\n        /* \"#utility.yul\":145:226   */\n      tag_40\n      jump\t// in\n    tag_37:\n        /* \"#utility.yul\":136:226   */\n      swap1\n      pop\n        /* \"#utility.yul\":246:251   */\n      dup1\n        /* \"#utility.yul\":275:281   */\n      dup4\n        /* \"#utility.yul\":268:273   */\n      dup3\n        /* \"#utility.yul\":261:282   */\n      mstore\n        /* \"#utility.yul\":309:313   */\n      0x20\n        /* \"#utility.yul\":302:307   */\n      dup3\n        /* \"#utility.yul\":298:314   */\n      add\n        /* \"#utility.yul\":291:314   */\n      swap1\n      pop\n        /* \"#utility.yul\":335:341   */\n      dup3\n        /* \"#utility.yul\":385:388   */\n      dup6\n        /* \"#utility.yul\":377:381   */\n      0x20\n        /* \"#utility.yul\":369:375   */\n      dup7\n        /* \"#utility.yul\":365:382   */\n      mul\n        /* \"#utility.yul\":360:363   */\n      dup3\n        /* \"#utility.yul\":356:383   */\n      add\n        /* \"#utility.yul\":353:389   */\n      gt\n        /* \"#utility.yul\":350:493   */\n      iszero\n      tag_41\n      jumpi\n        /* \"#utility.yul\":404:483   */\n      tag_42\n      tag_43\n      jump\t// in\n    tag_42:\n        /* \"#utility.yul\":350:493   */\n    tag_41:\n        /* \"#utility.yul\":517:518   */\n      0x00\n        /* \"#utility.yul\":502:740   */\n    tag_44:\n        /* \"#utility.yul\":527:533   */\n      dup6\n        /* \"#utility.yul\":524:525   */\n      dup2\n        /* \"#utility.yul\":521:534   */\n      lt\n        /* \"#utility.yul\":502:740   */\n      iszero\n      tag_46\n      jumpi\n        /* \"#utility.yul\":595:598   */\n      dup2\n        /* \"#utility.yul\":624:661   */\n      tag_47\n        /* \"#utility.yul\":657:660   */\n      dup9\n        /* \"#utility.yul\":645:655   */\n      dup3\n        /* \"#utility.yul\":624:661   */\n      tag_48\n      jump\t// in\n    tag_47:\n        /* \"#utility.yul\":619:622   */\n      dup5\n        /* \"#utility.yul\":612:662   */\n      mstore\n        /* \"#utility.yul\":691:695   */\n      0x20\n        /* \"#utility.yul\":686:689   */\n      dup5\n        /* \"#utility.yul\":682:696   */\n      add\n        /* \"#utility.yul\":675:696   */\n      swap4\n      pop\n        /* \"#utility.yul\":725:729   */\n      0x20\n        /* \"#utility.yul\":720:723   */\n      dup4\n        /* \"#utility.yul\":716:730   */\n      add\n        /* \"#utility.yul\":709:730   */\n      swap3\n      pop\n        /* \"#utility.yul\":562:740   */\n      pop\n        /* \"#utility.yul\":549:550   */\n      0x01\n        /* \"#utility.yul\":546:547   */\n      dup2\n        /* \"#utility.yul\":542:551   */\n      add\n        /* \"#utility.yul\":537:551   */\n      swap1\n      pop\n        /* \"#utility.yul\":502:740   */\n      jump(tag_44)\n    tag_46:\n        /* \"#utility.yul\":506:520   */\n      pop\n        /* \"#utility.yul\":126:746   */\n      pop\n      pop\n        /* \"#utility.yul\":24:746   */\n      swap4\n      swap3\n      pop\n      pop\n      pop\n      jump\t// out\n        /* \"#utility.yul\":752:1164   */\n    tag_49:\n        /* \"#utility.yul\":830:835   */\n      0x00\n        /* \"#utility.yul\":855:921   */\n      tag_51\n        /* \"#utility.yul\":871:920   */\n      tag_52\n        /* \"#utility.yul\":913:919   */\n      dup5\n        /* \"#utility.yul\":871:920   */\n      tag_53\n      jump\t// in\n    tag_52:\n        /* \"#utility.yul\":855:921   */\n      tag_40\n      jump\t// in\n    tag_51:\n        /* \"#utility.yul\":846:921   */\n      swap1\n      pop\n        /* \"#utility.yul\":944:950   */\n      dup3\n        /* \"#utility.yul\":937:942   */\n      dup2\n        /* \"#utility.yul\":930:951   */\n      mstore\n        /* \"#utility.yul\":982:986   */\n      0x20\n        /* \"#utility.yul\":975:980   */\n      dup2\n        /* \"#utility.yul\":971:987   */\n      add\n        /* \"#utility.yul\":1020:1023   */\n      dup5\n        /* \"#utility.yul\":1011:1017   */\n      dup5\n        /* \"#utility.yul\":1006:1009   */\n      dup5\n        /* \"#utility.yul\":1002:1018   */\n      add\n        /* \"#utility.yul\":999:1024   */\n      gt\n        /* \"#utility.yul\":996:1108   */\n      iszero\n      tag_54\n      jumpi\n        /* \"#utility.yul\":1027:1106   */\n      tag_55\n      tag_56\n      jump\t// in\n    tag_55:\n        /* \"#utility.yul\":996:1108   */\n    tag_54:\n        /* \"#utility.yul\":1117:1158   */\n      tag_57\n        /* \"#utility.yul\":1151:1157   */\n      dup5\n        /* \"#utility.yul\":1146:1149   */\n      dup3\n        /* \"#utility.yul\":1141:1144   */\n      dup6\n        /* \"#utility.yul\":1117:1158   */\n      tag_58\n      jump\t// in\n    tag_57:\n        /* \"#utility.yul\":836:1164   */\n      pop\n        /* \"#utility.yul\":752:1164   */\n      swap4\n      swap3\n      pop\n      pop\n      pop\n      jump\t// out\n        /* \"#utility.yul\":1170:1309   */\n    tag_59:\n        /* \"#utility.yul\":1216:1221   */\n      0x00\n        /* \"#utility.yul\":1254:1260   */\n      dup2\n        /* \"#utility.yul\":1241:1261   */\n      calldataload\n        /* \"#utility.yul\":1232:1261   */\n      swap1\n      pop\n        /* \"#utility.yul\":1270:1303   */\n      tag_61\n        /* \"#utility.yul\":1297:1302   */\n      dup2\n        /* \"#utility.yul\":1270:1303   */\n      tag_62\n      jump\t// in\n    tag_61:\n        /* \"#utility.yul\":1170:1309   */\n      swap3\n      swap2\n      pop\n      pop\n      jump\t// out\n        /* \"#utility.yul\":1315:1470   */\n    tag_63:\n        /* \"#utility.yul\":1369:1374   */\n      0x00\n        /* \"#utility.yul\":1407:1413   */\n      dup2\n        /* \"#utility.yul\":1394:1414   */\n      calldataload\n        /* \"#utility.yul\":1385:1414   */\n      swap1\n      pop\n        /* \"#utility.yul\":1423:1464   */\n      tag_65\n        /* \"#utility.yul\":1458:1463   */\n      dup2\n        /* \"#utility.yul\":1423:1464   */\n      tag_66\n      jump\t// in\n    tag_65:\n        /* \"#utility.yul\":1315:1470   */\n      swap3\n      swap2\n      pop\n      pop\n      jump\t// out\n        /* \"#utility.yul\":1493:2061   */\n    tag_67:\n        /* \"#utility.yul\":1566:1574   */\n      0x00\n        /* \"#utility.yul\":1576:1582   */\n      dup1\n        /* \"#utility.yul\":1626:1629   */\n      dup4\n        /* \"#utility.yul\":1619:1623   */\n      0x1f\n        /* \"#utility.yul\":1611:1617   */\n      dup5\n        /* \"#utility.yul\":1607:1624   */\n      add\n        /* \"#utility.yul\":1603:1630   */\n      slt\n        /* \"#utility.yul\":1593:1715   */\n      tag_69\n      jumpi\n        /* \"#utility.yul\":1634:1713   */\n      tag_70\n      tag_71\n      jump\t// in\n    tag_70:\n        /* \"#utility.yul\":1593:1715   */\n    tag_69:\n        /* \"#utility.yul\":1747:1753   */\n      dup3\n        /* \"#utility.yul\":1734:1754   */\n      calldataload\n        /* \"#utility.yul\":1724:1754   */\n      swap1\n      pop\n        /* \"#utility.yul\":1777:1795   */\n      0xffffffffffffffff\n        /* \"#utility.yul\":1769:1775   */\n      dup2\n        /* \"#utility.yul\":1766:1796   */\n      gt\n        /* \"#utility.yul\":1763:1880   */\n      iszero\n      tag_72\n      jumpi\n        /* \"#utility.yul\":1799:1878   */\n      tag_73\n      tag_74\n      jump\t// in\n    tag_73:\n        /* \"#utility.yul\":1763:1880   */\n    tag_72:\n        /* \"#utility.yul\":1913:1917   */\n      0x20\n        /* \"#utility.yul\":1905:1911   */\n      dup4\n        /* \"#utility.yul\":1901:1918   */\n      add\n        /* \"#utility.yul\":1889:1918   */\n      swap2\n      pop\n        /* \"#utility.yul\":1967:1970   */\n      dup4\n        /* \"#utility.yul\":1959:1963   */\n      0x20\n        /* \"#utility.yul\":1951:1957   */\n      dup3\n        /* \"#utility.yul\":1947:1964   */\n      mul\n        /* \"#utility.yul\":1937:1945   */\n      dup4\n        /* \"#utility.yul\":1933:1965   */\n      add\n        /* \"#utility.yul\":1930:1971   */\n      gt\n        /* \"#utility.yul\":1927:2055   */\n      iszero\n      tag_75\n      jumpi\n        /* \"#utility.yul\":1974:2053   */\n      tag_76\n      tag_43\n      jump\t// in\n    tag_76:\n        /* \"#utility.yul\":1927:2055   */\n    tag_75:\n        /* \"#utility.yul\":1493:2061   */\n      swap3\n      pop\n      swap3\n      swap1\n      pop\n      jump\t// out\n        /* \"#utility.yul\":2084:2454   */\n    tag_77:\n        /* \"#utility.yul\":2155:2160   */\n      0x00\n        /* \"#utility.yul\":2204:2207   */\n      dup3\n        /* \"#utility.yul\":2197:2201   */\n      0x1f\n        /* \"#utility.yul\":2189:2195   */\n      dup4\n        /* \"#utility.yul\":2185:2202   */\n      add\n        /* \"#utility.yul\":2181:2208   */\n      slt\n        /* \"#utility.yul\":2171:2293   */\n      tag_79\n      jumpi\n        /* \"#utility.yul\":2212:2291   */\n      tag_80\n      tag_71\n      jump\t// in\n    tag_80:\n        /* \"#utility.yul\":2171:2293   */\n    tag_79:\n        /* \"#utility.yul\":2329:2335   */\n      dup2\n        /* \"#utility.yul\":2316:2336   */\n      calldataload\n        /* \"#utility.yul\":2354:2448   */\n      tag_81\n        /* \"#utility.yul\":2444:2447   */\n      dup5\n        /* \"#utility.yul\":2436:2442   */\n      dup3\n        /* \"#utility.yul\":2429:2433   */\n      0x20\n        /* \"#utility.yul\":2421:2427   */\n      dup7\n        /* \"#utility.yul\":2417:2434   */\n      add\n        /* \"#utility.yul\":2354:2448   */\n      tag_35\n      jump\t// in\n    tag_81:\n        /* \"#utility.yul\":2345:2448   */\n      swap2\n      pop\n        /* \"#utility.yul\":2161:2454   */\n      pop\n        /* \"#utility.yul\":2084:2454   */\n      swap3\n      swap2\n      pop\n      pop\n      jump\t// out\n        /* \"#utility.yul\":2473:3025   */\n    tag_82:\n        /* \"#utility.yul\":2530:2538   */\n      0x00\n        /* \"#utility.yul\":2540:2546   */\n      dup1\n        /* \"#utility.yul\":2590:2593   */\n      dup4\n        /* \"#utility.yul\":2583:2587   */\n      0x1f\n        /* \"#utility.yul\":2575:2581   */\n      dup5\n        /* \"#utility.yul\":2571:2588   */\n      add\n        /* \"#utility.yul\":2567:2594   */\n      slt\n        /* \"#utility.yul\":2557:2679   */\n      tag_84\n      jumpi\n        /* \"#utility.yul\":2598:2677   */\n      tag_85\n      tag_71\n      jump\t// in\n    tag_85:\n        /* \"#utility.yul\":2557:2679   */\n    tag_84:\n        /* \"#utility.yul\":2711:2717   */\n      dup3\n        /* \"#utility.yul\":2698:2718   */\n      calldataload\n        /* \"#utility.yul\":2688:2718   */\n      swap1\n      pop\n        /* \"#utility.yul\":2741:2759   */\n      0xffffffffffffffff\n        /* \"#utility.yul\":2733:2739   */\n      dup2\n        /* \"#utility.yul\":2730:2760   */\n      gt\n        /* \"#utility.yul\":2727:2844   */\n      iszero\n      tag_86\n      jumpi\n        /* \"#utility.yul\":2763:2842   */\n      tag_87\n      tag_74\n      jump\t// in\n    tag_87:\n        /* \"#utility.yul\":2727:2844   */\n    tag_86:\n        /* \"#utility.yul\":2877:2881   */\n      0x20\n        /* \"#utility.yul\":2869:2875   */\n      dup4\n        /* \"#utility.yul\":2865:2882   */\n      add\n        /* \"#utility.yul\":2853:2882   */\n      swap2\n      pop\n        /* \"#utility.yul\":2931:2934   */\n      dup4\n        /* \"#utility.yul\":2923:2927   */\n      0x01\n        /* \"#utility.yul\":2915:2921   */\n      dup3\n        /* \"#utility.yul\":2911:2928   */\n      mul\n        /* \"#utility.yul\":2901:2909   */\n      dup4\n        /* \"#utility.yul\":2897:2929   */\n      add\n        /* \"#utility.yul\":2894:2935   */\n      gt\n        /* \"#utility.yul\":2891:3019   */\n      iszero\n      tag_88\n      jumpi\n        /* \"#utility.yul\":2938:3017   */\n      tag_89\n      tag_43\n      jump\t// in\n    tag_89:\n        /* \"#utility.yul\":2891:3019   */\n    tag_88:\n        /* \"#utility.yul\":2473:3025   */\n      swap3\n      pop\n      swap3\n      swap1\n      pop\n      jump\t// out\n        /* \"#utility.yul\":3045:3385   */\n    tag_90:\n        /* \"#utility.yul\":3101:3106   */\n      0x00\n        /* \"#utility.yul\":3150:3153   */\n      dup3\n        /* \"#utility.yul\":3143:3147   */\n      0x1f\n        /* \"#utility.yul\":3135:3141   */\n      dup4\n        /* \"#utility.yul\":3131:3148   */\n      add\n        /* \"#utility.yul\":3127:3154   */\n      slt\n        /* \"#utility.yul\":3117:3239   */\n      tag_92\n      jumpi\n        /* \"#utility.yul\":3158:3237   */\n      tag_93\n      tag_71\n      jump\t// in\n    tag_93:\n        /* \"#utility.yul\":3117:3239   */\n    tag_92:\n        /* \"#utility.yul\":3275:3281   */\n      dup2\n        /* \"#utility.yul\":3262:3282   */\n      calldataload\n        /* \"#utility.yul\":3300:3379   */\n      tag_94\n        /* \"#utility.yul\":3375:3378   */\n      dup5\n        /* \"#utility.yul\":3367:3373   */\n      dup3\n        /* \"#utility.yul\":3360:3364   */\n      0x20\n        /* \"#utility.yul\":3352:3358   */\n      dup7\n        /* \"#utility.yul\":3348:3365   */\n      add\n        /* \"#utility.yul\":3300:3379   */\n      tag_49\n      jump\t// in\n    tag_94:\n        /* \"#utility.yul\":3291:3379   */\n      swap2\n      pop\n        /* \"#utility.yul\":3107:3385   */\n      pop\n        /* \"#utility.yul\":3045:3385   */\n      swap3\n      swap2\n      pop\n      pop\n      jump\t// out\n        /* \"#utility.yul\":3428:3652   */\n    tag_95:\n        /* \"#utility.yul\":3494:3499   */\n      0x00\n        /* \"#utility.yul\":3535:3537   */\n      0x40\n        /* \"#utility.yul\":3526:3532   */\n      dup3\n        /* \"#utility.yul\":3521:3524   */\n      dup5\n        /* \"#utility.yul\":3517:3533   */\n      sub\n        /* \"#utility.yul\":3513:3538   */\n      slt\n        /* \"#utility.yul\":3510:3622   */\n      iszero\n      tag_97\n      jumpi\n        /* \"#utility.yul\":3541:3620   */\n      tag_98\n      tag_99\n      jump\t// in\n    tag_98:\n        /* \"#utility.yul\":3510:3622   */\n    tag_97:\n        /* \"#utility.yul\":3640:3646   */\n      dup2\n        /* \"#utility.yul\":3631:3646   */\n      swap1\n      pop\n        /* \"#utility.yul\":3428:3652   */\n      swap3\n      swap2\n      pop\n      pop\n      jump\t// out\n        /* \"#utility.yul\":3695:4617   */\n    tag_100:\n        /* \"#utility.yul\":3762:3767   */\n      0x00\n        /* \"#utility.yul\":3806:3810   */\n      0x40\n        /* \"#utility.yul\":3794:3803   */\n      dup3\n        /* \"#utility.yul\":3789:3792   */\n      dup5\n        /* \"#utility.yul\":3785:3804   */\n      sub\n        /* \"#utility.yul\":3781:3811   */\n      slt\n        /* \"#utility.yul\":3778:3895   */\n      iszero\n      tag_102\n      jumpi\n        /* \"#utility.yul\":3814:3893   */\n      tag_103\n      tag_104\n      jump\t// in\n    tag_103:\n        /* \"#utility.yul\":3778:3895   */\n    tag_102:\n        /* \"#utility.yul\":3913:3934   */\n      tag_105\n        /* \"#utility.yul\":3929:3933   */\n      0x40\n        /* \"#utility.yul\":3913:3934   */\n      tag_40\n      jump\t// in\n    tag_105:\n        /* \"#utility.yul\":3904:3934   */\n      swap1\n      pop\n        /* \"#utility.yul\":4021:4022   */\n      0x00\n        /* \"#utility.yul\":4010:4019   */\n      dup3\n        /* \"#utility.yul\":4006:4023   */\n      add\n        /* \"#utility.yul\":3993:4024   */\n      calldataload\n        /* \"#utility.yul\":4051:4069   */\n      0xffffffffffffffff\n        /* \"#utility.yul\":4043:4049   */\n      dup2\n        /* \"#utility.yul\":4040:4070   */\n      gt\n        /* \"#utility.yul\":4037:4154   */\n      iszero\n      tag_106\n      jumpi\n        /* \"#utility.yul\":4073:4152   */\n      tag_107\n      tag_108\n      jump\t// in\n    tag_107:\n        /* \"#utility.yul\":4037:4154   */\n    tag_106:\n        /* \"#utility.yul\":4193:4252   */\n      tag_109\n        /* \"#utility.yul\":4248:4251   */\n      dup5\n        /* \"#utility.yul\":4239:4245   */\n      dup3\n        /* \"#utility.yul\":4228:4237   */\n      dup6\n        /* \"#utility.yul\":4224:4246   */\n      add\n        /* \"#utility.yul\":4193:4252   */\n      tag_90\n      jump\t// in\n    tag_109:\n        /* \"#utility.yul\":4186:4190   */\n      0x00\n        /* \"#utility.yul\":4179:4184   */\n      dup4\n        /* \"#utility.yul\":4175:4191   */\n      add\n        /* \"#utility.yul\":4168:4253   */\n      mstore\n        /* \"#utility.yul\":3944:4264   */\n      pop\n        /* \"#utility.yul\":4351:4353   */\n      0x20\n        /* \"#utility.yul\":4340:4349   */\n      dup3\n        /* \"#utility.yul\":4336:4354   */\n      add\n        /* \"#utility.yul\":4323:4355   */\n      calldataload\n        /* \"#utility.yul\":4382:4400   */\n      0xffffffffffffffff\n        /* \"#utility.yul\":4374:4380   */\n      dup2\n        /* \"#utility.yul\":4371:4401   */\n      gt\n        /* \"#utility.yul\":4368:4485   */\n      iszero\n      tag_110\n      jumpi\n        /* \"#utility.yul\":4404:4483   */\n      tag_111\n      tag_108\n      jump\t// in\n    tag_111:\n        /* \"#utility.yul\":4368:4485   */\n    tag_110:\n        /* \"#utility.yul\":4524:4598   */\n      tag_112\n        /* \"#utility.yul\":4594:4597   */\n      dup5\n        /* \"#utility.yul\":4585:4591   */\n      dup3\n        /* \"#utility.yul\":4574:4583   */\n      dup6\n        /* \"#utility.yul\":4570:4592   */\n      add\n        /* \"#utility.yul\":4524:4598   */\n      tag_77\n      jump\t// in\n    tag_112:\n        /* \"#utility.yul\":4517:4521   */\n      0x20\n        /* \"#utility.yul\":4510:4515   */\n      dup4\n        /* \"#utility.yul\":4506:4522   */\n      add\n        /* \"#utility.yul\":4499:4599   */\n      mstore\n        /* \"#utility.yul\":4274:4610   */\n      pop\n        /* \"#utility.yul\":3695:4617   */\n      swap3\n      swap2\n      pop\n      pop\n      jump\t// out\n        /* \"#utility.yul\":4623:4762   */\n    tag_48:\n        /* \"#utility.yul\":4669:4674   */\n      0x00\n        /* \"#utility.yul\":4707:4713   */\n      dup2\n        /* \"#utility.yul\":4694:4714   */\n      calldataload\n        /* \"#utility.yul\":4685:4714   */\n      swap1\n      pop\n        /* \"#utility.yul\":4723:4756   */\n      tag_114\n        /* \"#utility.yul\":4750:4755   */\n      dup2\n        /* \"#utility.yul\":4723:4756   */\n      tag_115\n      jump\t// in\n    tag_114:\n        /* \"#utility.yul\":4623:4762   */\n      swap3\n      swap2\n      pop\n      pop\n      jump\t// out\n        /* \"#utility.yul\":4768:5295   */\n    tag_14:\n        /* \"#utility.yul\":4838:4844   */\n      0x00\n        /* \"#utility.yul\":4846:4852   */\n      dup1\n        /* \"#utility.yul\":4895:4897   */\n      0x20\n        /* \"#utility.yul\":4883:4892   */\n      dup4\n        /* \"#utility.yul\":4874:4881   */\n      dup6\n        /* \"#utility.yul\":4870:4893   */\n      sub\n        /* \"#utility.yul\":4866:4898   */\n      slt\n        /* \"#utility.yul\":4863:4982   */\n      iszero\n      tag_117\n      jumpi\n        /* \"#utility.yul\":4901:4980   */\n      tag_118\n      tag_119\n      jump\t// in\n    tag_118:\n        /* \"#utility.yul\":4863:4982   */\n    tag_117:\n        /* \"#utility.yul\":5049:5050   */\n      0x00\n        /* \"#utility.yul\":5038:5047   */\n      dup4\n        /* \"#utility.yul\":5034:5051   */\n      add\n        /* \"#utility.yul\":5021:5052   */\n      calldataload\n        /* \"#utility.yul\":5079:5097   */\n      0xffffffffffffffff\n        /* \"#utility.yul\":5071:5077   */\n      dup2\n        /* \"#utility.yul\":5068:5098   */\n      gt\n        /* \"#utility.yul\":5065:5182   */\n      iszero\n      tag_120\n      jumpi\n        /* \"#utility.yul\":5101:5180   */\n      tag_121\n      tag_122\n      jump\t// in\n    tag_121:\n        /* \"#utility.yul\":5065:5182   */\n    tag_120:\n        /* \"#utility.yul\":5214:5278   */\n      tag_123\n        /* \"#utility.yul\":5270:5277   */\n      dup6\n        /* \"#utility.yul\":5261:5267   */\n      dup3\n        /* \"#utility.yul\":5250:5259   */\n      dup7\n        /* \"#utility.yul\":5246:5268   */\n      add\n        /* \"#utility.yul\":5214:5278   */\n      tag_82\n      jump\t// in\n    tag_123:\n        /* \"#utility.yul\":5196:5278   */\n      swap3\n      pop\n      swap3\n      pop\n        /* \"#utility.yul\":4992:5288   */\n      pop\n        /* \"#utility.yul\":4768:5295   */\n      swap3\n      pop\n      swap3\n      swap1\n      pop\n      jump\t// out\n        /* \"#utility.yul\":5301:6488   */\n    tag_30:\n        /* \"#utility.yul\":5438:5444   */\n      0x00\n        /* \"#utility.yul\":5446:5452   */\n      dup1\n        /* \"#utility.yul\":5454:5460   */\n      0x00\n        /* \"#utility.yul\":5462:5468   */\n      dup1\n        /* \"#utility.yul\":5511:5514   */\n      0x80\n        /* \"#utility.yul\":5499:5508   */\n      dup6\n        /* \"#utility.yul\":5490:5497   */\n      dup8\n        /* \"#utility.yul\":5486:5509   */\n      sub\n        /* \"#utility.yul\":5482:5515   */\n      slt\n        /* \"#utility.yul\":5479:5599   */\n      iszero\n      tag_125\n      jumpi\n        /* \"#utility.yul\":5518:5597   */\n      tag_126\n      tag_119\n      jump\t// in\n    tag_126:\n        /* \"#utility.yul\":5479:5599   */\n    tag_125:\n        /* \"#utility.yul\":5638:5639   */\n      0x00\n        /* \"#utility.yul\":5663:5716   */\n      tag_127\n        /* \"#utility.yul\":5708:5715   */\n      dup8\n        /* \"#utility.yul\":5699:5705   */\n      dup3\n        /* \"#utility.yul\":5688:5697   */\n      dup9\n        /* \"#utility.yul\":5684:5706   */\n      add\n        /* \"#utility.yul\":5663:5716   */\n      tag_48\n      jump\t// in\n    tag_127:\n        /* \"#utility.yul\":5653:5716   */\n      swap5\n      pop\n        /* \"#utility.yul\":5609:5726   */\n      pop\n        /* \"#utility.yul\":5765:5767   */\n      0x20\n        /* \"#utility.yul\":5791:5852   */\n      tag_128\n        /* \"#utility.yul\":5844:5851   */\n      dup8\n        /* \"#utility.yul\":5835:5841   */\n      dup3\n        /* \"#utility.yul\":5824:5833   */\n      dup9\n        /* \"#utility.yul\":5820:5842   */\n      add\n        /* \"#utility.yul\":5791:5852   */\n      tag_63\n      jump\t// in\n    tag_128:\n        /* \"#utility.yul\":5781:5852   */\n      swap4\n      pop\n        /* \"#utility.yul\":5736:5862   */\n      pop\n        /* \"#utility.yul\":5929:5931   */\n      0x40\n        /* \"#utility.yul\":5918:5927   */\n      dup6\n        /* \"#utility.yul\":5914:5932   */\n      add\n        /* \"#utility.yul\":5901:5933   */\n      calldataload\n        /* \"#utility.yul\":5960:5978   */\n      0xffffffffffffffff\n        /* \"#utility.yul\":5952:5958   */\n      dup2\n        /* \"#utility.yul\":5949:5979   */\n      gt\n        /* \"#utility.yul\":5946:6063   */\n      iszero\n      tag_129\n      jumpi\n        /* \"#utility.yul\":5982:6061   */\n      tag_130\n      tag_122\n      jump\t// in\n    tag_130:\n        /* \"#utility.yul\":5946:6063   */\n    tag_129:\n        /* \"#utility.yul\":6087:6165   */\n      tag_131\n        /* \"#utility.yul\":6157:6164   */\n      dup8\n        /* \"#utility.yul\":6148:6154   */\n      dup3\n        /* \"#utility.yul\":6137:6146   */\n      dup9\n        /* \"#utility.yul\":6133:6155   */\n      add\n        /* \"#utility.yul\":6087:6165   */\n      tag_77\n      jump\t// in\n    tag_131:\n        /* \"#utility.yul\":6077:6165   */\n      swap3\n      pop\n        /* \"#utility.yul\":5872:6175   */\n      pop\n        /* \"#utility.yul\":6242:6244   */\n      0x60\n        /* \"#utility.yul\":6231:6240   */\n      dup6\n        /* \"#utility.yul\":6227:6245   */\n      add\n        /* \"#utility.yul\":6214:6246   */\n      calldataload\n        /* \"#utility.yul\":6273:6291   */\n      0xffffffffffffffff\n        /* \"#utility.yul\":6265:6271   */\n      dup2\n        /* \"#utility.yul\":6262:6292   */\n      gt\n        /* \"#utility.yul\":6259:6376   */\n      iszero\n      tag_132\n      jumpi\n        /* \"#utility.yul\":6295:6374   */\n      tag_133\n      tag_122\n      jump\t// in\n    tag_133:\n        /* \"#utility.yul\":6259:6376   */\n    tag_132:\n        /* \"#utility.yul\":6400:6471   */\n      tag_134\n        /* \"#utility.yul\":6463:6470   */\n      dup8\n        /* \"#utility.yul\":6454:6460   */\n      dup3\n        /* \"#utility.yul\":6443:6452   */\n      dup9\n        /* \"#utility.yul\":6439:6461   */\n      add\n        /* \"#utility.yul\":6400:6471   */\n      tag_100\n      jump\t// in\n    tag_134:\n        /* \"#utility.yul\":6390:6471   */\n      swap2\n      pop\n        /* \"#utility.yul\":6185:6481   */\n      pop\n        /* \"#utility.yul\":5301:6488   */\n      swap3\n      swap6\n      swap2\n      swap5\n      pop\n      swap3\n      pop\n      jump\t// out\n        /* \"#utility.yul\":6494:7343   */\n    tag_20:\n        /* \"#utility.yul\":6598:6604   */\n      0x00\n        /* \"#utility.yul\":6606:6612   */\n      dup1\n        /* \"#utility.yul\":6614:6620   */\n      0x00\n        /* \"#utility.yul\":6622:6628   */\n      dup1\n        /* \"#utility.yul\":6671:6673   */\n      0x60\n        /* \"#utility.yul\":6659:6668   */\n      dup6\n        /* \"#utility.yul\":6650:6657   */\n      dup8\n        /* \"#utility.yul\":6646:6669   */\n      sub\n        /* \"#utility.yul\":6642:6674   */\n      slt\n        /* \"#utility.yul\":6639:6758   */\n      iszero\n      tag_136\n      jumpi\n        /* \"#utility.yul\":6677:6756   */\n      tag_137\n      tag_119\n      jump\t// in\n    tag_137:\n        /* \"#utility.yul\":6639:6758   */\n    tag_136:\n        /* \"#utility.yul\":6797:6798   */\n      0x00\n        /* \"#utility.yul\":6822:6875   */\n      tag_138\n        /* \"#utility.yul\":6867:6874   */\n      dup8\n        /* \"#utility.yul\":6858:6864   */\n      dup3\n        /* \"#utility.yul\":6847:6856   */\n      dup9\n        /* \"#utility.yul\":6843:6865   */\n      add\n        /* \"#utility.yul\":6822:6875   */\n      tag_48\n      jump\t// in\n    tag_138:\n        /* \"#utility.yul\":6812:6875   */\n      swap5\n      pop\n        /* \"#utility.yul\":6768:6885   */\n      pop\n        /* \"#utility.yul\":6924:6926   */\n      0x20\n        /* \"#utility.yul\":6950:7003   */\n      tag_139\n        /* \"#utility.yul\":6995:7002   */\n      dup8\n        /* \"#utility.yul\":6986:6992   */\n      dup3\n        /* \"#utility.yul\":6975:6984   */\n      dup9\n        /* \"#utility.yul\":6971:6993   */\n      add\n        /* \"#utility.yul\":6950:7003   */\n      tag_59\n      jump\t// in\n    tag_139:\n        /* \"#utility.yul\":6940:7003   */\n      swap4\n      pop\n        /* \"#utility.yul\":6895:7013   */\n      pop\n        /* \"#utility.yul\":7080:7082   */\n      0x40\n        /* \"#utility.yul\":7069:7078   */\n      dup6\n        /* \"#utility.yul\":7065:7083   */\n      add\n        /* \"#utility.yul\":7052:7084   */\n      calldataload\n        /* \"#utility.yul\":7111:7129   */\n      0xffffffffffffffff\n        /* \"#utility.yul\":7103:7109   */\n      dup2\n        /* \"#utility.yul\":7100:7130   */\n      gt\n        /* \"#utility.yul\":7097:7214   */\n      iszero\n      tag_140\n      jumpi\n        /* \"#utility.yul\":7133:7212   */\n      tag_141\n      tag_122\n      jump\t// in\n    tag_141:\n        /* \"#utility.yul\":7097:7214   */\n    tag_140:\n        /* \"#utility.yul\":7246:7326   */\n      tag_142\n        /* \"#utility.yul\":7318:7325   */\n      dup8\n        /* \"#utility.yul\":7309:7315   */\n      dup3\n        /* \"#utility.yul\":7298:7307   */\n      dup9\n        /* \"#utility.yul\":7294:7316   */\n      add\n        /* \"#utility.yul\":7246:7326   */\n      tag_67\n      jump\t// in\n    tag_142:\n        /* \"#utility.yul\":7228:7326   */\n      swap3\n      pop\n      swap3\n      pop\n        /* \"#utility.yul\":7023:7336   */\n      pop\n        /* \"#utility.yul\":6494:7343   */\n      swap3\n      swap6\n      swap2\n      swap5\n      pop\n      swap3\n      pop\n      jump\t// out\n        /* \"#utility.yul\":7349:8544   */\n    tag_8:\n        /* \"#utility.yul\":7482:7488   */\n      0x00\n        /* \"#utility.yul\":7490:7496   */\n      dup1\n        /* \"#utility.yul\":7498:7504   */\n      0x00\n        /* \"#utility.yul\":7506:7512   */\n      dup1\n        /* \"#utility.yul\":7514:7520   */\n      0x00\n        /* \"#utility.yul\":7563:7566   */\n      0x80\n        /* \"#utility.yul\":7551:7560   */\n      dup7\n        /* \"#utility.yul\":7542:7549   */\n      dup9\n        /* \"#utility.yul\":7538:7561   */\n      sub\n        /* \"#utility.yul\":7534:7567   */\n      slt\n        /* \"#utility.yul\":7531:7651   */\n      iszero\n      tag_144\n      jumpi\n        /* \"#utility.yul\":7570:7649   */\n      tag_145\n      tag_119\n      jump\t// in\n    tag_145:\n        /* \"#utility.yul\":7531:7651   */\n    tag_144:\n        /* \"#utility.yul\":7690:7691   */\n      0x00\n        /* \"#utility.yul\":7715:7768   */\n      tag_146\n        /* \"#utility.yul\":7760:7767   */\n      dup9\n        /* \"#utility.yul\":7751:7757   */\n      dup3\n        /* \"#utility.yul\":7740:7749   */\n      dup10\n        /* \"#utility.yul\":7736:7758   */\n      add\n        /* \"#utility.yul\":7715:7768   */\n      tag_48\n      jump\t// in\n    tag_146:\n        /* \"#utility.yul\":7705:7768   */\n      swap6\n      pop\n        /* \"#utility.yul\":7661:7778   */\n      pop\n        /* \"#utility.yul\":7817:7819   */\n      0x20\n        /* \"#utility.yul\":7843:7896   */\n      tag_147\n        /* \"#utility.yul\":7888:7895   */\n      dup9\n        /* \"#utility.yul\":7879:7885   */\n      dup3\n        /* \"#utility.yul\":7868:7877   */\n      dup10\n        /* \"#utility.yul\":7864:7886   */\n      add\n        /* \"#utility.yul\":7843:7896   */\n      tag_59\n      jump\t// in\n    tag_147:\n        /* \"#utility.yul\":7833:7896   */\n      swap5\n      pop\n        /* \"#utility.yul\":7788:7906   */\n      pop\n        /* \"#utility.yul\":7973:7975   */\n      0x40\n        /* \"#utility.yul\":7962:7971   */\n      dup7\n        /* \"#utility.yul\":7958:7976   */\n      add\n        /* \"#utility.yul\":7945:7977   */\n      calldataload\n        /* \"#utility.yul\":8004:8022   */\n      0xffffffffffffffff\n        /* \"#utility.yul\":7996:8002   */\n      dup2\n        /* \"#utility.yul\":7993:8023   */\n      gt\n        /* \"#utility.yul\":7990:8107   */\n      iszero\n      tag_148\n      jumpi\n        /* \"#utility.yul\":8026:8105   */\n      tag_149\n      tag_122\n      jump\t// in\n    tag_149:\n        /* \"#utility.yul\":7990:8107   */\n    tag_148:\n        /* \"#utility.yul\":8139:8219   */\n      tag_150\n        /* \"#utility.yul\":8211:8218   */\n      dup9\n        /* \"#utility.yul\":8202:8208   */\n      dup3\n        /* \"#utility.yul\":8191:8200   */\n      dup10\n        /* \"#utility.yul\":8187:8209   */\n      add\n        /* \"#utility.yul\":8139:8219   */\n      tag_67\n      jump\t// in\n    tag_150:\n        /* \"#utility.yul\":8121:8219   */\n      swap4\n      pop\n      swap4\n      pop\n        /* \"#utility.yul\":7916:8229   */\n      pop\n        /* \"#utility.yul\":8296:8298   */\n      0x60\n        /* \"#utility.yul\":8285:8294   */\n      dup7\n        /* \"#utility.yul\":8281:8299   */\n      add\n        /* \"#utility.yul\":8268:8300   */\n      calldataload\n        /* \"#utility.yul\":8327:8345   */\n      0xffffffffffffffff\n        /* \"#utility.yul\":8319:8325   */\n      dup2\n        /* \"#utility.yul\":8316:8346   */\n      gt\n        /* \"#utility.yul\":8313:8430   */\n      iszero\n      tag_151\n      jumpi\n        /* \"#utility.yul\":8349:8428   */\n      tag_152\n      tag_122\n      jump\t// in\n    tag_152:\n        /* \"#utility.yul\":8313:8430   */\n    tag_151:\n        /* \"#utility.yul\":8454:8527   */\n      tag_153\n        /* \"#utility.yul\":8519:8526   */\n      dup9\n        /* \"#utility.yul\":8510:8516   */\n      dup3\n        /* \"#utility.yul\":8499:8508   */\n      dup10\n        /* \"#utility.yul\":8495:8517   */\n      add\n        /* \"#utility.yul\":8454:8527   */\n      tag_95\n      jump\t// in\n    tag_153:\n        /* \"#utility.yul\":8444:8527   */\n      swap2\n      pop\n        /* \"#utility.yul\":8239:8537   */\n      pop\n        /* \"#utility.yul\":7349:8544   */\n      swap3\n      swap6\n      pop\n      swap3\n      swap6\n      swap1\n      swap4\n      pop\n      jump\t// out\n        /* \"#utility.yul\":8550:8729   */\n    tag_154:\n        /* \"#utility.yul\":8619:8629   */\n      0x00\n        /* \"#utility.yul\":8640:8686   */\n      tag_156\n        /* \"#utility.yul\":8682:8685   */\n      dup4\n        /* \"#utility.yul\":8674:8680   */\n      dup4\n        /* \"#utility.yul\":8640:8686   */\n      tag_157\n      jump\t// in\n    tag_156:\n        /* \"#utility.yul\":8718:8722   */\n      0x20\n        /* \"#utility.yul\":8713:8716   */\n      dup4\n        /* \"#utility.yul\":8709:8723   */\n      add\n        /* \"#utility.yul\":8695:8723   */\n      swap1\n      pop\n        /* \"#utility.yul\":8550:8729   */\n      swap3\n      swap2\n      pop\n      pop\n      jump\t// out\n        /* \"#utility.yul\":8735:8853   */\n    tag_158:\n        /* \"#utility.yul\":8822:8846   */\n      tag_160\n        /* \"#utility.yul\":8840:8845   */\n      dup2\n        /* \"#utility.yul\":8822:8846   */\n      tag_161\n      jump\t// in\n    tag_160:\n        /* \"#utility.yul\":8817:8820   */\n      dup3\n        /* \"#utility.yul\":8810:8847   */\n      mstore\n        /* \"#utility.yul\":8735:8853   */\n      pop\n      pop\n      jump\t// out\n        /* \"#utility.yul\":8859:9016   */\n    tag_162:\n        /* \"#utility.yul\":8964:9009   */\n      tag_164\n        /* \"#utility.yul\":8984:9008   */\n      tag_165\n        /* \"#utility.yul\":9002:9007   */\n      dup3\n        /* \"#utility.yul\":8984:9008   */\n      tag_161\n      jump\t// in\n    tag_165:\n        /* \"#utility.yul\":8964:9009   */\n      tag_166\n      jump\t// in\n    tag_164:\n        /* \"#utility.yul\":8959:8962   */\n      dup3\n        /* \"#utility.yul\":8952:9010   */\n      mstore\n        /* \"#utility.yul\":8859:9016   */\n      pop\n      pop\n      jump\t// out\n        /* \"#utility.yul\":9052:9569   */\n    tag_167:\n        /* \"#utility.yul\":9170:9173   */\n      0x00\n        /* \"#utility.yul\":9191:9267   */\n      tag_169\n        /* \"#utility.yul\":9260:9266   */\n      dup4\n        /* \"#utility.yul\":9255:9258   */\n      dup6\n        /* \"#utility.yul\":9191:9267   */\n      tag_170\n      jump\t// in\n    tag_169:\n        /* \"#utility.yul\":9184:9267   */\n      swap4\n      pop\n        /* \"#utility.yul\":9291:9357   */\n      0x07ffffffffffffffffffffffffffffffffffffffffffffffffffffffffffffff\n        /* \"#utility.yul\":9283:9289   */\n      dup4\n        /* \"#utility.yul\":9280:9358   */\n      gt\n        /* \"#utility.yul\":9277:9442   */\n      iszero\n      tag_171\n      jumpi\n        /* \"#utility.yul\":9361:9440   */\n      tag_172\n      tag_173\n      jump\t// in\n    tag_172:\n        /* \"#utility.yul\":9277:9442   */\n    tag_171:\n        /* \"#utility.yul\":9473:9477   */\n      0x20\n        /* \"#utility.yul\":9465:9471   */\n      dup4\n        /* \"#utility.yul\":9461:9478   */\n      mul\n        /* \"#utility.yul\":9451:9478   */\n      swap3\n      pop\n        /* \"#utility.yul\":9488:9531   */\n      tag_174\n        /* \"#utility.yul\":9524:9530   */\n      dup4\n        /* \"#utility.yul\":9519:9522   */\n      dup6\n        /* \"#utility.yul\":9512:9517   */\n      dup5\n        /* \"#utility.yul\":9488:9531   */\n      tag_58\n      jump\t// in\n    tag_174:\n        /* \"#utility.yul\":9556:9562   */\n      dup3\n        /* \"#utility.yul\":9551:9554   */\n      dup5\n        /* \"#utility.yul\":9547:9563   */\n      add\n        /* \"#utility.yul\":9540:9563   */\n      swap1\n      pop\n        /* \"#utility.yul\":9052:9569   */\n      swap4\n      swap3\n      pop\n      pop\n      pop\n      jump\t// out\n        /* \"#utility.yul\":9605:10142   */\n    tag_175:\n        /* \"#utility.yul\":9733:9736   */\n      0x00\n        /* \"#utility.yul\":9754:9840   */\n      tag_177\n        /* \"#utility.yul\":9833:9839   */\n      dup4\n        /* \"#utility.yul\":9828:9831   */\n      dup6\n        /* \"#utility.yul\":9754:9840   */\n      tag_178\n      jump\t// in\n    tag_177:\n        /* \"#utility.yul\":9747:9840   */\n      swap4\n      pop\n        /* \"#utility.yul\":9864:9930   */\n      0x07ffffffffffffffffffffffffffffffffffffffffffffffffffffffffffffff\n        /* \"#utility.yul\":9856:9862   */\n      dup4\n        /* \"#utility.yul\":9853:9931   */\n      gt\n        /* \"#utility.yul\":9850:10015   */\n      iszero\n      tag_179\n      jumpi\n        /* \"#utility.yul\":9934:10013   */\n      tag_180\n      tag_173\n      jump\t// in\n    tag_180:\n        /* \"#utility.yul\":9850:10015   */\n    tag_179:\n        /* \"#utility.yul\":10046:10050   */\n      0x20\n        /* \"#utility.yul\":10038:10044   */\n      dup4\n        /* \"#utility.yul\":10034:10051   */\n      mul\n        /* \"#utility.yul\":10024:10051   */\n      swap3\n      pop\n        /* \"#utility.yul\":10061:10104   */\n      tag_181\n        /* \"#utility.yul\":10097:10103   */\n      dup4\n        /* \"#utility.yul\":10092:10095   */\n      dup6\n        /* \"#utility.yul\":10085:10090   */\n      dup5\n        /* \"#utility.yul\":10061:10104   */\n      tag_58\n      jump\t// in\n    tag_181:\n        /* \"#utility.yul\":10129:10135   */\n      dup3\n        /* \"#utility.yul\":10124:10127   */\n      dup5\n        /* \"#utility.yul\":10120:10136   */\n      add\n        /* \"#utility.yul\":10113:10136   */\n      swap1\n      pop\n        /* \"#utility.yul\":9605:10142   */\n      swap4\n      swap3\n      pop\n      pop\n      pop\n      jump\t// out\n        /* \"#utility.yul\":10178:10751   */\n    tag_182:\n        /* \"#utility.yul\":10324:10327   */\n      0x00\n        /* \"#utility.yul\":10345:10449   */\n      tag_184\n        /* \"#utility.yul\":10442:10448   */\n      dup4\n        /* \"#utility.yul\":10437:10440   */\n      dup6\n        /* \"#utility.yul\":10345:10449   */\n      tag_185\n      jump\t// in\n    tag_184:\n        /* \"#utility.yul\":10338:10449   */\n      swap4\n      pop\n        /* \"#utility.yul\":10473:10539   */\n      0x07ffffffffffffffffffffffffffffffffffffffffffffffffffffffffffffff\n        /* \"#utility.yul\":10465:10471   */\n      dup4\n        /* \"#utility.yul\":10462:10540   */\n      gt\n        /* \"#utility.yul\":10459:10624   */\n      iszero\n      tag_186\n      jumpi\n        /* \"#utility.yul\":10543:10622   */\n      tag_187\n      tag_173\n      jump\t// in\n    tag_187:\n        /* \"#utility.yul\":10459:10624   */\n    tag_186:\n        /* \"#utility.yul\":10655:10659   */\n      0x20\n        /* \"#utility.yul\":10647:10653   */\n      dup4\n        /* \"#utility.yul\":10643:10660   */\n      mul\n        /* \"#utility.yul\":10633:10660   */\n      swap3\n      pop\n        /* \"#utility.yul\":10670:10713   */\n      tag_188\n        /* \"#utility.yul\":10706:10712   */\n      dup4\n        /* \"#utility.yul\":10701:10704   */\n      dup6\n        /* \"#utility.yul\":10694:10699   */\n      dup5\n        /* \"#utility.yul\":10670:10713   */\n      tag_58\n      jump\t// in\n    tag_188:\n        /* \"#utility.yul\":10738:10744   */\n      dup3\n        /* \"#utility.yul\":10733:10736   */\n      dup5\n        /* \"#utility.yul\":10729:10745   */\n      add\n        /* \"#utility.yul\":10722:10745   */\n      swap1\n      pop\n        /* \"#utility.yul\":10178:10751   */\n      swap4\n      swap3\n      pop\n      pop\n      pop\n      jump\t// out\n        /* \"#utility.yul\":10787:11499   */\n    tag_189:\n        /* \"#utility.yul\":10896:10899   */\n      0x00\n        /* \"#utility.yul\":10925:10979   */\n      tag_191\n        /* \"#utility.yul\":10973:10978   */\n      dup3\n        /* \"#utility.yul\":10925:10979   */\n      tag_192\n      jump\t// in\n    tag_191:\n        /* \"#utility.yul\":10995:11071   */\n      tag_193\n        /* \"#utility.yul\":11064:11070   */\n      dup2\n        /* \"#utility.yul\":11059:11062   */\n      dup6\n        /* \"#utility.yul\":10995:11071   */\n      tag_170\n      jump\t// in\n    tag_193:\n        /* \"#utility.yul\":10988:11071   */\n      swap4\n      pop\n        /* \"#utility.yul\":11095:11151   */\n      tag_194\n        /* \"#utility.yul\":11145:11150   */\n      dup4\n        /* \"#utility.yul\":11095:11151   */\n      tag_195\n      jump\t// in\n    tag_194:\n        /* \"#utility.yul\":11174:11181   */\n      dup1\n        /* \"#utility.yul\":11205:11206   */\n      0x00\n        /* \"#utility.yul\":11190:11474   */\n    tag_196:\n        /* \"#utility.yul\":11215:11221   */\n      dup4\n        /* \"#utility.yul\":11212:11213   */\n      dup2\n        /* \"#utility.yul\":11209:11222   */\n      lt\n        /* \"#utility.yul\":11190:11474   */\n      iszero\n      tag_198\n      jumpi\n        /* \"#utility.yul\":11291:11297   */\n      dup2\n        /* \"#utility.yul\":11285:11298   */\n      mload\n        /* \"#utility.yul\":11318:11381   */\n      tag_199\n        /* \"#utility.yul\":11377:11380   */\n      dup9\n        /* \"#utility.yul\":11362:11375   */\n      dup3\n        /* \"#utility.yul\":11318:11381   */\n      tag_154\n      jump\t// in\n    tag_199:\n        /* \"#utility.yul\":11311:11381   */\n      swap8\n      pop\n        /* \"#utility.yul\":11404:11464   */\n      tag_200\n        /* \"#utility.yul\":11457:11463   */\n      dup4\n        /* \"#utility.yul\":11404:11464   */\n      tag_201\n      jump\t// in\n    tag_200:\n        /* \"#utility.yul\":11394:11464   */\n      swap3\n      pop\n        /* \"#utility.yul\":11250:11474   */\n      pop\n        /* \"#utility.yul\":11237:11238   */\n      0x01\n        /* \"#utility.yul\":11234:11235   */\n      dup2\n        /* \"#utility.yul\":11230:11239   */\n      add\n        /* \"#utility.yul\":11225:11239   */\n      swap1\n      pop\n        /* \"#utility.yul\":11190:11474   */\n      jump(tag_196)\n    tag_198:\n        /* \"#utility.yul\":11194:11208   */\n      pop\n        /* \"#utility.yul\":11490:11493   */\n      dup6\n        /* \"#utility.yul\":11483:11493   */\n      swap4\n      pop\n        /* \"#utility.yul\":10901:11499   */\n      pop\n      pop\n      pop\n        /* \"#utility.yul\":10787:11499   */\n      swap3\n      swap2\n      pop\n      pop\n      jump\t// out\n        /* \"#utility.yul\":11535:12267   */\n    tag_202:\n        /* \"#utility.yul\":11654:11657   */\n      0x00\n        /* \"#utility.yul\":11683:11737   */\n      tag_204\n        /* \"#utility.yul\":11731:11736   */\n      dup3\n        /* \"#utility.yul\":11683:11737   */\n      tag_192\n      jump\t// in\n    tag_204:\n        /* \"#utility.yul\":11753:11839   */\n      tag_205\n        /* \"#utility.yul\":11832:11838   */\n      dup2\n        /* \"#utility.yul\":11827:11830   */\n      dup6\n        /* \"#utility.yul\":11753:11839   */\n      tag_178\n      jump\t// in\n    tag_205:\n        /* \"#utility.yul\":11746:11839   */\n      swap4\n      pop\n        /* \"#utility.yul\":11863:11919   */\n      tag_206\n        /* \"#utility.yul\":11913:11918   */\n      dup4\n        /* \"#utility.yul\":11863:11919   */\n      tag_195\n      jump\t// in\n    tag_206:\n        /* \"#utility.yul\":11942:11949   */\n      dup1\n        /* \"#utility.yul\":11973:11974   */\n      0x00\n        /* \"#utility.yul\":11958:12242   */\n    tag_207:\n        /* \"#utility.yul\":11983:11989   */\n      dup4\n        /* \"#utility.yul\":11980:11981   */\n      dup2\n        /* \"#utility.yul\":11977:11990   */\n      lt\n        /* \"#utility.yul\":11958:12242   */\n      iszero\n      tag_209\n      jumpi\n        /* \"#utility.yul\":12059:12065   */\n      dup2\n        /* \"#utility.yul\":12053:12066   */\n      mload\n        /* \"#utility.yul\":12086:12149   */\n      tag_210\n        /* \"#utility.yul\":12145:12148   */\n      dup9\n        /* \"#utility.yul\":12130:12143   */\n      dup3\n        /* \"#utility.yul\":12086:12149   */\n      tag_154\n      jump\t// in\n    tag_210:\n        /* \"#utility.yul\":12079:12149   */\n      swap8\n      pop\n        /* \"#utility.yul\":12172:12232   */\n      tag_211\n        /* \"#utility.yul\":12225:12231   */\n      dup4\n        /* \"#utility.yul\":12172:12232   */\n      tag_201\n      jump\t// in\n    tag_211:\n        /* \"#utility.yul\":12162:12232   */\n      swap3\n      pop\n        /* \"#utility.yul\":12018:12242   */\n      pop\n        /* \"#utility.yul\":12005:12006   */\n      0x01\n        /* \"#utility.yul\":12002:12003   */\n      dup2\n        /* \"#utility.yul\":11998:12007   */\n      add\n        /* \"#utility.yul\":11993:12007   */\n      swap1\n      pop\n        /* \"#utility.yul\":11958:12242   */\n      jump(tag_207)\n    tag_209:\n        /* \"#utility.yul\":11962:11976   */\n      pop\n        /* \"#utility.yul\":12258:12261   */\n      dup6\n        /* \"#utility.yul\":12251:12261   */\n      swap4\n      pop\n        /* \"#utility.yul\":11659:12267   */\n      pop\n      pop\n      pop\n        /* \"#utility.yul\":11535:12267   */\n      swap3\n      swap2\n      pop\n      pop\n      jump\t// out\n        /* \"#utility.yul\":12273:12633   */\n    tag_212:\n        /* \"#utility.yul\":12359:12362   */\n      0x00\n        /* \"#utility.yul\":12387:12425   */\n      tag_214\n        /* \"#utility.yul\":12419:12424   */\n      dup3\n        /* \"#utility.yul\":12387:12425   */\n      tag_215\n      jump\t// in\n    tag_214:\n        /* \"#utility.yul\":12441:12511   */\n      tag_216\n        /* \"#utility.yul\":12504:12510   */\n      dup2\n        /* \"#utility.yul\":12499:12502   */\n      dup6\n        /* \"#utility.yul\":12441:12511   */\n      tag_217\n      jump\t// in\n    tag_216:\n        /* \"#utility.yul\":12434:12511   */\n      swap4\n      pop\n        /* \"#utility.yul\":12520:12572   */\n      tag_218\n        /* \"#utility.yul\":12565:12571   */\n      dup2\n        /* \"#utility.yul\":12560:12563   */\n      dup6\n        /* \"#utility.yul\":12553:12557   */\n      0x20\n        /* \"#utility.yul\":12546:12551   */\n      dup7\n        /* \"#utility.yul\":12542:12558   */\n      add\n        /* \"#utility.yul\":12520:12572   */\n      tag_219\n      jump\t// in\n    tag_218:\n        /* \"#utility.yul\":12597:12626   */\n      tag_220\n        /* \"#utility.yul\":12619:12625   */\n      dup2\n        /* \"#utility.yul\":12597:12626   */\n      tag_221\n      jump\t// in\n    tag_220:\n        /* \"#utility.yul\":12592:12595   */\n      dup5\n        /* \"#utility.yul\":12588:12627   */\n      add\n        /* \"#utility.yul\":12581:12627   */\n      swap2\n      pop\n        /* \"#utility.yul\":12363:12633   */\n      pop\n        /* \"#utility.yul\":12273:12633   */\n      swap3\n      swap2\n      pop\n      pop\n      jump\t// out\n        /* \"#utility.yul\":12663:12947   */\n    tag_222:\n        /* \"#utility.yul\":12751:12754   */\n      0x00\n        /* \"#utility.yul\":12772:12833   */\n      tag_224\n        /* \"#utility.yul\":12826:12832   */\n      dup4\n        /* \"#utility.yul\":12821:12824   */\n      dup6\n        /* \"#utility.yul\":12772:12833   */\n      tag_225\n      jump\t// in\n    tag_224:\n        /* \"#utility.yul\":12765:12833   */\n      swap4\n      pop\n        /* \"#utility.yul\":12843:12886   */\n      tag_226\n        /* \"#utility.yul\":12879:12885   */\n      dup4\n        /* \"#utility.yul\":12874:12877   */\n      dup6\n        /* \"#utility.yul\":12867:12872   */\n      dup5\n        /* \"#utility.yul\":12843:12886   */\n      tag_58\n      jump\t// in\n    tag_226:\n        /* \"#utility.yul\":12911:12940   */\n      tag_227\n        /* \"#utility.yul\":12933:12939   */\n      dup4\n        /* \"#utility.yul\":12911:12940   */\n      tag_221\n      jump\t// in\n    tag_227:\n        /* \"#utility.yul\":12906:12909   */\n      dup5\n        /* \"#utility.yul\":12902:12941   */\n      add\n        /* \"#utility.yul\":12895:12941   */\n      swap1\n      pop\n        /* \"#utility.yul\":12663:12947   */\n      swap4\n      swap3\n      pop\n      pop\n      pop\n      jump\t// out\n        /* \"#utility.yul\":12953:13297   */\n    tag_228:\n        /* \"#utility.yul\":13031:13034   */\n      0x00\n        /* \"#utility.yul\":13059:13098   */\n      tag_230\n        /* \"#utility.yul\":13092:13097   */\n      dup3\n        /* \"#utility.yul\":13059:13098   */\n      tag_231\n      jump\t// in\n    tag_230:\n        /* \"#utility.yul\":13114:13175   */\n      tag_232\n        /* \"#utility.yul\":13168:13174   */\n      dup2\n        /* \"#utility.yul\":13163:13166   */\n      dup6\n        /* \"#utility.yul\":13114:13175   */\n      tag_225\n      jump\t// in\n    tag_232:\n        /* \"#utility.yul\":13107:13175   */\n      swap4\n      pop\n        /* \"#utility.yul\":13184:13236   */\n      tag_233\n        /* \"#utility.yul\":13229:13235   */\n      dup2\n        /* \"#utility.yul\":13224:13227   */\n      dup6\n        /* \"#utility.yul\":13217:13221   */\n      0x20\n        /* \"#utility.yul\":13210:13215   */\n      dup7\n        /* \"#utility.yul\":13206:13222   */\n      add\n        /* \"#utility.yul\":13184:13236   */\n      tag_219\n      jump\t// in\n    tag_233:\n        /* \"#utility.yul\":13261:13290   */\n      tag_234\n        /* \"#utility.yul\":13283:13289   */\n      dup2\n        /* \"#utility.yul\":13261:13290   */\n      tag_221\n      jump\t// in\n    tag_234:\n        /* \"#utility.yul\":13256:13259   */\n      dup5\n        /* \"#utility.yul\":13252:13291   */\n      add\n        /* \"#utility.yul\":13245:13291   */\n      swap2\n      pop\n        /* \"#utility.yul\":13035:13297   */\n      pop\n        /* \"#utility.yul\":12953:13297   */\n      swap3\n      swap2\n      pop\n      pop\n      jump\t// out\n        /* \"#utility.yul\":13373:14221   */\n    tag_235:\n        /* \"#utility.yul\":13480:13483   */\n      0x00\n        /* \"#utility.yul\":13516:13520   */\n      0x40\n        /* \"#utility.yul\":13511:13514   */\n      dup4\n        /* \"#utility.yul\":13507:13521   */\n      add\n        /* \"#utility.yul\":13600:13662   */\n      tag_237\n        /* \"#utility.yul\":13656:13660   */\n      0x00\n        /* \"#utility.yul\":13649:13654   */\n      dup5\n        /* \"#utility.yul\":13645:13661   */\n      add\n        /* \"#utility.yul\":13638:13643   */\n      dup5\n        /* \"#utility.yul\":13600:13662   */\n      tag_238\n      jump\t// in\n    tag_237:\n        /* \"#utility.yul\":13709:13712   */\n      dup6\n        /* \"#utility.yul\":13703:13707   */\n      dup4\n        /* \"#utility.yul\":13699:13713   */\n      sub\n        /* \"#utility.yul\":13692:13696   */\n      0x00\n        /* \"#utility.yul\":13687:13690   */\n      dup8\n        /* \"#utility.yul\":13683:13697   */\n      add\n        /* \"#utility.yul\":13676:13714   */\n      mstore\n        /* \"#utility.yul\":13735:13824   */\n      tag_239\n        /* \"#utility.yul\":13819:13823   */\n      dup4\n        /* \"#utility.yul\":13805:13817   */\n      dup3\n        /* \"#utility.yul\":13791:13803   */\n      dup5\n        /* \"#utility.yul\":13735:13824   */\n      tag_222\n      jump\t// in\n    tag_239:\n        /* \"#utility.yul\":13727:13824   */\n      swap3\n      pop\n        /* \"#utility.yul\":13531:13835   */\n      pop\n      pop\n        /* \"#utility.yul\":13914:13991   */\n      tag_240\n        /* \"#utility.yul\":13985:13989   */\n      0x20\n        /* \"#utility.yul\":13978:13983   */\n      dup5\n        /* \"#utility.yul\":13974:13990   */\n      add\n        /* \"#utility.yul\":13967:13972   */\n      dup5\n        /* \"#utility.yul\":13914:13991   */\n      tag_241\n      jump\t// in\n    tag_240:\n        /* \"#utility.yul\":14038:14041   */\n      dup6\n        /* \"#utility.yul\":14032:14036   */\n      dup4\n        /* \"#utility.yul\":14028:14042   */\n      sub\n        /* \"#utility.yul\":14021:14025   */\n      0x20\n        /* \"#utility.yul\":14016:14019   */\n      dup8\n        /* \"#utility.yul\":14012:14026   */\n      add\n        /* \"#utility.yul\":14005:14043   */\n      mstore\n        /* \"#utility.yul\":14064:14183   */\n      tag_242\n        /* \"#utility.yul\":14178:14182   */\n      dup4\n        /* \"#utility.yul\":14164:14176   */\n      dup3\n        /* \"#utility.yul\":14150:14162   */\n      dup5\n        /* \"#utility.yul\":14064:14183   */\n      tag_167\n      jump\t// in\n    tag_242:\n        /* \"#utility.yul\":14056:14183   */\n      swap3\n      pop\n        /* \"#utility.yul\":13845:14194   */\n      pop\n      pop\n        /* \"#utility.yul\":14211:14215   */\n      dup1\n        /* \"#utility.yul\":14204:14215   */\n      swap2\n      pop\n        /* \"#utility.yul\":13485:14221   */\n      pop\n        /* \"#utility.yul\":13373:14221   */\n      swap3\n      swap2\n      pop\n      pop\n      jump\t// out\n        /* \"#utility.yul\":14297:14990   */\n    tag_243:\n        /* \"#utility.yul\":14402:14405   */\n      0x00\n        /* \"#utility.yul\":14438:14442   */\n      0x40\n        /* \"#utility.yul\":14433:14436   */\n      dup4\n        /* \"#utility.yul\":14429:14443   */\n      add\n        /* \"#utility.yul\":14525:14529   */\n      0x00\n        /* \"#utility.yul\":14518:14523   */\n      dup4\n        /* \"#utility.yul\":14514:14530   */\n      add\n        /* \"#utility.yul\":14508:14531   */\n      mload\n        /* \"#utility.yul\":14578:14581   */\n      dup5\n        /* \"#utility.yul\":14572:14576   */\n      dup3\n        /* \"#utility.yul\":14568:14582   */\n      sub\n        /* \"#utility.yul\":14561:14565   */\n      0x00\n        /* \"#utility.yul\":14556:14559   */\n      dup7\n        /* \"#utility.yul\":14552:14566   */\n      add\n        /* \"#utility.yul\":14545:14583   */\n      mstore\n        /* \"#utility.yul\":14604:14677   */\n      tag_245\n        /* \"#utility.yul\":14672:14676   */\n      dup3\n        /* \"#utility.yul\":14658:14670   */\n      dup3\n        /* \"#utility.yul\":14604:14677   */\n      tag_228\n      jump\t// in\n    tag_245:\n        /* \"#utility.yul\":14596:14677   */\n      swap2\n      pop\n        /* \"#utility.yul\":14453:14688   */\n      pop\n        /* \"#utility.yul\":14770:14774   */\n      0x20\n        /* \"#utility.yul\":14763:14768   */\n      dup4\n        /* \"#utility.yul\":14759:14775   */\n      add\n        /* \"#utility.yul\":14753:14776   */\n      mload\n        /* \"#utility.yul\":14823:14826   */\n      dup5\n        /* \"#utility.yul\":14817:14821   */\n      dup3\n        /* \"#utility.yul\":14813:14827   */\n      sub\n        /* \"#utility.yul\":14806:14810   */\n      0x20\n        /* \"#utility.yul\":14801:14804   */\n      dup7\n        /* \"#utility.yul\":14797:14811   */\n      add\n        /* \"#utility.yul\":14790:14828   */\n      mstore\n        /* \"#utility.yul\":14849:14952   */\n      tag_246\n        /* \"#utility.yul\":14947:14951   */\n      dup3\n        /* \"#utility.yul\":14933:14945   */\n      dup3\n        /* \"#utility.yul\":14849:14952   */\n      tag_189\n      jump\t// in\n    tag_246:\n        /* \"#utility.yul\":14841:14952   */\n      swap2\n      pop\n        /* \"#utility.yul\":14698:14963   */\n      pop\n        /* \"#utility.yul\":14980:14984   */\n      dup1\n        /* \"#utility.yul\":14973:14984   */\n      swap2\n      pop\n        /* \"#utility.yul\":14407:14990   */\n      pop\n        /* \"#utility.yul\":14297:14990   */\n      swap3\n      swap2\n      pop\n      pop\n      jump\t// out\n        /* \"#utility.yul\":14996:15104   */\n    tag_157:\n        /* \"#utility.yul\":15073:15097   */\n      tag_248\n        /* \"#utility.yul\":15091:15096   */\n      dup2\n        /* \"#utility.yul\":15073:15097   */\n      tag_249\n      jump\t// in\n    tag_248:\n        /* \"#utility.yul\":15068:15071   */\n      dup3\n        /* \"#utility.yul\":15061:15098   */\n      mstore\n        /* \"#utility.yul\":14996:15104   */\n      pop\n      pop\n      jump\t// out\n        /* \"#utility.yul\":15110:15228   */\n    tag_250:\n        /* \"#utility.yul\":15197:15221   */\n      tag_252\n        /* \"#utility.yul\":15215:15220   */\n      dup2\n        /* \"#utility.yul\":15197:15221   */\n      tag_249\n      jump\t// in\n    tag_252:\n        /* \"#utility.yul\":15192:15195   */\n      dup3\n        /* \"#utility.yul\":15185:15222   */\n      mstore\n        /* \"#utility.yul\":15110:15228   */\n      pop\n      pop\n      jump\t// out\n        /* \"#utility.yul\":15234:15391   */\n    tag_253:\n        /* \"#utility.yul\":15339:15384   */\n      tag_255\n        /* \"#utility.yul\":15359:15383   */\n      tag_256\n        /* \"#utility.yul\":15377:15382   */\n      dup3\n        /* \"#utility.yul\":15359:15383   */\n      tag_249\n      jump\t// in\n    tag_256:\n        /* \"#utility.yul\":15339:15384   */\n      tag_257\n      jump\t// in\n    tag_255:\n        /* \"#utility.yul\":15334:15337   */\n      dup3\n        /* \"#utility.yul\":15327:15385   */\n      mstore\n        /* \"#utility.yul\":15234:15391   */\n      pop\n      pop\n      jump\t// out\n        /* \"#utility.yul\":15397:16034   */\n    tag_33:\n        /* \"#utility.yul\":15625:15628   */\n      0x00\n        /* \"#utility.yul\":15640:15715   */\n      tag_259\n        /* \"#utility.yul\":15711:15714   */\n      dup3\n        /* \"#utility.yul\":15702:15708   */\n      dup8\n        /* \"#utility.yul\":15640:15715   */\n      tag_253\n      jump\t// in\n    tag_259:\n        /* \"#utility.yul\":15740:15742   */\n      0x20\n        /* \"#utility.yul\":15735:15738   */\n      dup3\n        /* \"#utility.yul\":15731:15743   */\n      add\n        /* \"#utility.yul\":15724:15743   */\n      swap2\n      pop\n        /* \"#utility.yul\":15753:15828   */\n      tag_260\n        /* \"#utility.yul\":15824:15827   */\n      dup3\n        /* \"#utility.yul\":15815:15821   */\n      dup7\n        /* \"#utility.yul\":15753:15828   */\n      tag_162\n      jump\t// in\n    tag_260:\n        /* \"#utility.yul\":15853:15855   */\n      0x14\n        /* \"#utility.yul\":15848:15851   */\n      dup3\n        /* \"#utility.yul\":15844:15856   */\n      add\n        /* \"#utility.yul\":15837:15856   */\n      swap2\n      pop\n        /* \"#utility.yul\":15873:16008   */\n      tag_261\n        /* \"#utility.yul\":16004:16007   */\n      dup3\n        /* \"#utility.yul\":15995:16001   */\n      dup5\n        /* \"#utility.yul\":15987:15993   */\n      dup7\n        /* \"#utility.yul\":15873:16008   */\n      tag_182\n      jump\t// in\n    tag_261:\n        /* \"#utility.yul\":15866:16008   */\n      swap2\n      pop\n        /* \"#utility.yul\":16025:16028   */\n      dup2\n        /* \"#utility.yul\":16018:16028   */\n      swap1\n      pop\n        /* \"#utility.yul\":15397:16034   */\n      swap6\n      swap5\n      pop\n      pop\n      pop\n      pop\n      pop\n      jump\t// out\n        /* \"#utility.yul\":16040:16349   */\n    tag_11:\n        /* \"#utility.yul\":16151:16155   */\n      0x00\n        /* \"#utility.yul\":16189:16191   */\n      0x20\n        /* \"#utility.yul\":16178:16187   */\n      dup3\n        /* \"#utility.yul\":16174:16192   */\n      add\n        /* \"#utility.yul\":16166:16192   */\n      swap1\n      pop\n        /* \"#utility.yul\":16238:16247   */\n      dup2\n        /* \"#utility.yul\":16232:16236   */\n      dup2\n        /* \"#utility.yul\":16228:16248   */\n      sub\n        /* \"#utility.yul\":16224:16225   */\n      0x00\n        /* \"#utility.yul\":16213:16222   */\n      dup4\n        /* \"#utility.yul\":16209:16226   */\n      add\n        /* \"#utility.yul\":16202:16249   */\n      mstore\n        /* \"#utility.yul\":16266:16342   */\n      tag_263\n        /* \"#utility.yul\":16337:16341   */\n      dup2\n        /* \"#utility.yul\":16328:16334   */\n      dup5\n        /* \"#utility.yul\":16266:16342   */\n      tag_212\n      jump\t// in\n    tag_263:\n        /* \"#utility.yul\":16258:16342   */\n      swap1\n      pop\n        /* \"#utility.yul\":16040:16349   */\n      swap3\n      swap2\n      pop\n      pop\n      jump\t// out\n        /* \"#utility.yul\":16355:17206   */\n    tag_25:\n        /* \"#utility.yul\":16630:16634   */\n      0x00\n        /* \"#utility.yul\":16668:16671   */\n      0x80\n        /* \"#utility.yul\":16657:16666   */\n      dup3\n        /* \"#utility.yul\":16653:16672   */\n      add\n        /* \"#utility.yul\":16645:16672   */\n      swap1\n      pop\n        /* \"#utility.yul\":16682:16753   */\n      tag_265\n        /* \"#utility.yul\":16750:16751   */\n      0x00\n        /* \"#utility.yul\":16739:16748   */\n      dup4\n        /* \"#utility.yul\":16735:16752   */\n      add\n        /* \"#utility.yul\":16726:16732   */\n      dup9\n        /* \"#utility.yul\":16682:16753   */\n      tag_250\n      jump\t// in\n    tag_265:\n        /* \"#utility.yul\":16763:16835   */\n      tag_266\n        /* \"#utility.yul\":16831:16833   */\n      0x20\n        /* \"#utility.yul\":16820:16829   */\n      dup4\n        /* \"#utility.yul\":16816:16834   */\n      add\n        /* \"#utility.yul\":16807:16813   */\n      dup8\n        /* \"#utility.yul\":16763:16835   */\n      tag_158\n      jump\t// in\n    tag_266:\n        /* \"#utility.yul\":16882:16891   */\n      dup2\n        /* \"#utility.yul\":16876:16880   */\n      dup2\n        /* \"#utility.yul\":16872:16892   */\n      sub\n        /* \"#utility.yul\":16867:16869   */\n      0x40\n        /* \"#utility.yul\":16856:16865   */\n      dup4\n        /* \"#utility.yul\":16852:16870   */\n      add\n        /* \"#utility.yul\":16845:16893   */\n      mstore\n        /* \"#utility.yul\":16910:17028   */\n      tag_267\n        /* \"#utility.yul\":17023:17027   */\n      dup2\n        /* \"#utility.yul\":17014:17020   */\n      dup6\n        /* \"#utility.yul\":17006:17012   */\n      dup8\n        /* \"#utility.yul\":16910:17028   */\n      tag_175\n      jump\t// in\n    tag_267:\n        /* \"#utility.yul\":16902:17028   */\n      swap1\n      pop\n        /* \"#utility.yul\":17075:17084   */\n      dup2\n        /* \"#utility.yul\":17069:17073   */\n      dup2\n        /* \"#utility.yul\":17065:17085   */\n      sub\n        /* \"#utility.yul\":17060:17062   */\n      0x60\n        /* \"#utility.yul\":17049:17058   */\n      dup4\n        /* \"#utility.yul\":17045:17063   */\n      add\n        /* \"#utility.yul\":17038:17086   */\n      mstore\n        /* \"#utility.yul\":17103:17199   */\n      tag_268\n        /* \"#utility.yul\":17194:17198   */\n      dup2\n        /* \"#utility.yul\":17185:17191   */\n      dup5\n        /* \"#utility.yul\":17103:17199   */\n      tag_235\n      jump\t// in\n    tag_268:\n        /* \"#utility.yul\":17095:17199   */\n      swap1\n      pop\n        /* \"#utility.yul\":16355:17206   */\n      swap7\n      swap6\n      pop\n      pop\n      pop\n      pop\n      pop\n      pop\n      jump\t// out\n        /* \"#utility.yul\":17212:18039   */\n    tag_17:\n        /* \"#utility.yul\":17475:17479   */\n      0x00\n        /* \"#utility.yul\":17513:17516   */\n      0x80\n        /* \"#utility.yul\":17502:17511   */\n      dup3\n        /* \"#utility.yul\":17498:17517   */\n      add\n        /* \"#utility.yul\":17490:17517   */\n      swap1\n      pop\n        /* \"#utility.yul\":17527:17598   */\n      tag_270\n        /* \"#utility.yul\":17595:17596   */\n      0x00\n        /* \"#utility.yul\":17584:17593   */\n      dup4\n        /* \"#utility.yul\":17580:17597   */\n      add\n        /* \"#utility.yul\":17571:17577   */\n      dup8\n        /* \"#utility.yul\":17527:17598   */\n      tag_250\n      jump\t// in\n    tag_270:\n        /* \"#utility.yul\":17608:17680   */\n      tag_271\n        /* \"#utility.yul\":17676:17678   */\n      0x20\n        /* \"#utility.yul\":17665:17674   */\n      dup4\n        /* \"#utility.yul\":17661:17679   */\n      add\n        /* \"#utility.yul\":17652:17658   */\n      dup7\n        /* \"#utility.yul\":17608:17680   */\n      tag_158\n      jump\t// in\n    tag_271:\n        /* \"#utility.yul\":17727:17736   */\n      dup2\n        /* \"#utility.yul\":17721:17725   */\n      dup2\n        /* \"#utility.yul\":17717:17737   */\n      sub\n        /* \"#utility.yul\":17712:17714   */\n      0x40\n        /* \"#utility.yul\":17701:17710   */\n      dup4\n        /* \"#utility.yul\":17697:17715   */\n      add\n        /* \"#utility.yul\":17690:17738   */\n      mstore\n        /* \"#utility.yul\":17755:17863   */\n      tag_272\n        /* \"#utility.yul\":17858:17862   */\n      dup2\n        /* \"#utility.yul\":17849:17855   */\n      dup6\n        /* \"#utility.yul\":17755:17863   */\n      tag_202\n      jump\t// in\n    tag_272:\n        /* \"#utility.yul\":17747:17863   */\n      swap1\n      pop\n        /* \"#utility.yul\":17910:17919   */\n      dup2\n        /* \"#utility.yul\":17904:17908   */\n      dup2\n        /* \"#utility.yul\":17900:17920   */\n      sub\n        /* \"#utility.yul\":17895:17897   */\n      0x60\n        /* \"#utility.yul\":17884:17893   */\n      dup4\n        /* \"#utility.yul\":17880:17898   */\n      add\n        /* \"#utility.yul\":17873:17921   */\n      mstore\n        /* \"#utility.yul\":17938:18032   */\n      tag_273\n        /* \"#utility.yul\":18027:18031   */\n      dup2\n        /* \"#utility.yul\":18018:18024   */\n      dup5\n        /* \"#utility.yul\":17938:18032   */\n      tag_243\n      jump\t// in\n    tag_273:\n        /* \"#utility.yul\":17930:18032   */\n      swap1\n      pop\n        /* \"#utility.yul\":17212:18039   */\n      swap6\n      swap5\n      pop\n      pop\n      pop\n      pop\n      pop\n      jump\t// out\n        /* \"#utility.yul\":18045:18174   */\n    tag_40:\n        /* \"#utility.yul\":18079:18085   */\n      0x00\n        /* \"#utility.yul\":18106:18126   */\n      tag_275\n      tag_276\n      jump\t// in\n    tag_275:\n        /* \"#utility.yul\":18096:18126   */\n      swap1\n      pop\n        /* \"#utility.yul\":18135:18168   */\n      tag_277\n        /* \"#utility.yul\":18163:18167   */\n      dup3\n        /* \"#utility.yul\":18155:18161   */\n      dup3\n        /* \"#utility.yul\":18135:18168   */\n      tag_278\n      jump\t// in\n    tag_277:\n        /* \"#utility.yul\":18045:18174   */\n      swap2\n      swap1\n      pop\n      jump\t// out\n        /* \"#utility.yul\":18180:18255   */\n    tag_276:\n        /* \"#utility.yul\":18213:18219   */\n      0x00\n        /* \"#utility.yul\":18246:18248   */\n      0x40\n        /* \"#utility.yul\":18240:18249   */\n      mload\n        /* \"#utility.yul\":18230:18249   */\n      swap1\n      pop\n        /* \"#utility.yul\":18180:18255   */\n      swap1\n      jump\t// out\n        /* \"#utility.yul\":18261:18572   */\n    tag_39:\n        /* \"#utility.yul\":18338:18342   */\n      0x00\n        /* \"#utility.yul\":18428:18446   */\n      0xffffffffffffffff\n        /* \"#utility.yul\":18420:18426   */\n      dup3\n        /* \"#utility.yul\":18417:18447   */\n      gt\n        /* \"#utility.yul\":18414:18470   */\n      iszero\n      tag_281\n      jumpi\n        /* \"#utility.yul\":18450:18468   */\n      tag_282\n      tag_283\n      jump\t// in\n    tag_282:\n        /* \"#utility.yul\":18414:18470   */\n    tag_281:\n        /* \"#utility.yul\":18500:18504   */\n      0x20\n        /* \"#utility.yul\":18492:18498   */\n      dup3\n        /* \"#utility.yul\":18488:18505   */\n      mul\n        /* \"#utility.yul\":18480:18505   */\n      swap1\n      pop\n        /* \"#utility.yul\":18560:18564   */\n      0x20\n        /* \"#utility.yul\":18554:18558   */\n      dup2\n        /* \"#utility.yul\":18550:18565   */\n      add\n        /* \"#utility.yul\":18542:18565   */\n      swap1\n      pop\n        /* \"#utility.yul\":18261:18572   */\n      swap2\n      swap1\n      pop\n      jump\t// out\n        /* \"#utility.yul\":18578:18886   */\n    tag_53:\n        /* \"#utility.yul\":18640:18644   */\n      0x00\n        /* \"#utility.yul\":18730:18748   */\n      0xffffffffffffffff\n        /* \"#utility.yul\":18722:18728   */\n      dup3\n        /* \"#utility.yul\":18719:18749   */\n      gt\n        /* \"#utility.yul\":18716:18772   */\n      iszero\n      tag_285\n      jumpi\n        /* \"#utility.yul\":18752:18770   */\n      tag_286\n      tag_283\n      jump\t// in\n    tag_286:\n        /* \"#utility.yul\":18716:18772   */\n    tag_285:\n        /* \"#utility.yul\":18790:18819   */\n      tag_287\n        /* \"#utility.yul\":18812:18818   */\n      dup3\n        /* \"#utility.yul\":18790:18819   */\n      tag_221\n      jump\t// in\n    tag_287:\n        /* \"#utility.yul\":18782:18819   */\n      swap1\n      pop\n        /* \"#utility.yul\":18874:18878   */\n      0x20\n        /* \"#utility.yul\":18868:18872   */\n      dup2\n        /* \"#utility.yul\":18864:18879   */\n      add\n        /* \"#utility.yul\":18856:18879   */\n      swap1\n      pop\n        /* \"#utility.yul\":18578:18886   */\n      swap2\n      swap1\n      pop\n      jump\t// out\n        /* \"#utility.yul\":18892:19024   */\n    tag_195:\n        /* \"#utility.yul\":18959:18963   */\n      0x00\n        /* \"#utility.yul\":18982:18985   */\n      dup2\n        /* \"#utility.yul\":18974:18985   */\n      swap1\n      pop\n        /* \"#utility.yul\":19012:19016   */\n      0x20\n        /* \"#utility.yul\":19007:19010   */\n      dup3\n        /* \"#utility.yul\":19003:19017   */\n      add\n        /* \"#utility.yul\":18995:19017   */\n      swap1\n      pop\n        /* \"#utility.yul\":18892:19024   */\n      swap2\n      swap1\n      pop\n      jump\t// out\n        /* \"#utility.yul\":19030:19144   */\n    tag_192:\n        /* \"#utility.yul\":19097:19103   */\n      0x00\n        /* \"#utility.yul\":19131:19136   */\n      dup2\n        /* \"#utility.yul\":19125:19137   */\n      mload\n        /* \"#utility.yul\":19115:19137   */\n      swap1\n      pop\n        /* \"#utility.yul\":19030:19144   */\n      swap2\n      swap1\n      pop\n      jump\t// out\n        /* \"#utility.yul\":19150:19248   */\n    tag_215:\n        /* \"#utility.yul\":19201:19207   */\n      0x00\n        /* \"#utility.yul\":19235:19240   */\n      dup2\n        /* \"#utility.yul\":19229:19241   */\n      mload\n        /* \"#utility.yul\":19219:19241   */\n      swap1\n      pop\n        /* \"#utility.yul\":19150:19248   */\n      swap2\n      swap1\n      pop\n      jump\t// out\n        /* \"#utility.yul\":19254:19353   */\n    tag_231:\n        /* \"#utility.yul\":19306:19312   */\n      0x00\n        /* \"#utility.yul\":19340:19345   */\n      dup2\n        /* \"#utility.yul\":19334:19346   */\n      mload\n        /* \"#utility.yul\":19324:19346   */\n      swap1\n      pop\n        /* \"#utility.yul\":19254:19353   */\n      swap2\n      swap1\n      pop\n      jump\t// out\n        /* \"#utility.yul\":19359:19472   */\n    tag_201:\n        /* \"#utility.yul\":19429:19433   */\n      0x00\n        /* \"#utility.yul\":19461:19465   */\n      0x20\n        /* \"#utility.yul\":19456:19459   */\n      dup3\n        /* \"#utility.yul\":19452:19466   */\n      add\n        /* \"#utility.yul\":19444:19466   */\n      swap1\n      pop\n        /* \"#utility.yul\":19359:19472   */\n      swap2\n      swap1\n      pop\n      jump\t// out\n        /* \"#utility.yul\":19478:19652   */\n    tag_170:\n        /* \"#utility.yul\":19567:19578   */\n      0x00\n        /* \"#utility.yul\":19601:19607   */\n      dup3\n        /* \"#utility.yul\":19596:19599   */\n      dup3\n        /* \"#utility.yul\":19589:19608   */\n      mstore\n        /* \"#utility.yul\":19641:19645   */\n      0x20\n        /* \"#utility.yul\":19636:19639   */\n      dup3\n        /* \"#utility.yul\":19632:19646   */\n      add\n        /* \"#utility.yul\":19617:19646   */\n      swap1\n      pop\n        /* \"#utility.yul\":19478:19652   */\n      swap3\n      swap2\n      pop\n      pop\n      jump\t// out\n        /* \"#utility.yul\":19658:19842   */\n    tag_178:\n        /* \"#utility.yul\":19757:19768   */\n      0x00\n        /* \"#utility.yul\":19791:19797   */\n      dup3\n        /* \"#utility.yul\":19786:19789   */\n      dup3\n        /* \"#utility.yul\":19779:19798   */\n      mstore\n        /* \"#utility.yul\":19831:19835   */\n      0x20\n        /* \"#utility.yul\":19826:19829   */\n      dup3\n        /* \"#utility.yul\":19822:19836   */\n      add\n        /* \"#utility.yul\":19807:19836   */\n      swap1\n      pop\n        /* \"#utility.yul\":19658:19842   */\n      swap3\n      swap2\n      pop\n      pop\n      jump\t// out\n        /* \"#utility.yul\":19848:20011   */\n    tag_185:\n        /* \"#utility.yul\":19965:19976   */\n      0x00\n        /* \"#utility.yul\":20002:20005   */\n      dup2\n        /* \"#utility.yul\":19987:20005   */\n      swap1\n      pop\n        /* \"#utility.yul\":19848:20011   */\n      swap3\n      swap2\n      pop\n      pop\n      jump\t// out\n        /* \"#utility.yul\":20017:20185   */\n    tag_217:\n        /* \"#utility.yul\":20100:20111   */\n      0x00\n        /* \"#utility.yul\":20134:20140   */\n      dup3\n        /* \"#utility.yul\":20129:20132   */\n      dup3\n        /* \"#utility.yul\":20122:20141   */\n      mstore\n        /* \"#utility.yul\":20174:20178   */\n      0x20\n        /* \"#utility.yul\":20169:20172   */\n      dup3\n        /* \"#utility.yul\":20165:20179   */\n      add\n        /* \"#utility.yul\":20150:20179   */\n      swap1\n      pop\n        /* \"#utility.yul\":20017:20185   */\n      swap3\n      swap2\n      pop\n      pop\n      jump\t// out\n        /* \"#utility.yul\":20191:20350   */\n    tag_225:\n        /* \"#utility.yul\":20265:20276   */\n      0x00\n        /* \"#utility.yul\":20299:20305   */\n      dup3\n        /* \"#utility.yul\":20294:20297   */\n      dup3\n        /* \"#utility.yul\":20287:20306   */\n      mstore\n        /* \"#utility.yul\":20339:20343   */\n      0x20\n        /* \"#utility.yul\":20334:20337   */\n      dup3\n        /* \"#utility.yul\":20330:20344   */\n      add\n        /* \"#utility.yul\":20315:20344   */\n      swap1\n      pop\n        /* \"#utility.yul\":20191:20350   */\n      swap3\n      swap2\n      pop\n      pop\n      jump\t// out\n        /* \"#utility.yul\":20356:21086   */\n    tag_241:\n        /* \"#utility.yul\":20436:20441   */\n      0x00\n        /* \"#utility.yul\":20443:20449   */\n      dup1\n        /* \"#utility.yul\":20499:20502   */\n      dup4\n        /* \"#utility.yul\":20486:20503   */\n      calldataload\n        /* \"#utility.yul\":20591:20592   */\n      0x01\n        /* \"#utility.yul\":20585:20589   */\n      0x20\n        /* \"#utility.yul\":20581:20593   */\n      sub\n        /* \"#utility.yul\":20570:20578   */\n      dup5\n        /* \"#utility.yul\":20554:20568   */\n      calldatasize\n        /* \"#utility.yul\":20550:20579   */\n      sub\n        /* \"#utility.yul\":20546:20594   */\n      sub\n        /* \"#utility.yul\":20526:20544   */\n      dup2\n        /* \"#utility.yul\":20522:20595   */\n      slt\n        /* \"#utility.yul\":20512:20680   */\n      tag_299\n      jumpi\n        /* \"#utility.yul\":20599:20678   */\n      tag_300\n      tag_301\n      jump\t// in\n    tag_300:\n        /* \"#utility.yul\":20512:20680   */\n    tag_299:\n        /* \"#utility.yul\":20722:20730   */\n      dup4\n        /* \"#utility.yul\":20702:20720   */\n      dup2\n        /* \"#utility.yul\":20698:20731   */\n      add\n        /* \"#utility.yul\":20689:20731   */\n      swap3\n      pop\n        /* \"#utility.yul\":20764:20769   */\n      dup3\n        /* \"#utility.yul\":20751:20770   */\n      calldataload\n        /* \"#utility.yul\":20741:20770   */\n      swap2\n      pop\n        /* \"#utility.yul\":20799:20803   */\n      0x20\n        /* \"#utility.yul\":20792:20797   */\n      dup4\n        /* \"#utility.yul\":20788:20804   */\n      add\n        /* \"#utility.yul\":20779:20804   */\n      swap3\n      pop\n        /* \"#utility.yul\":20827:20845   */\n      0xffffffffffffffff\n        /* \"#utility.yul\":20819:20825   */\n      dup3\n        /* \"#utility.yul\":20816:20846   */\n      gt\n        /* \"#utility.yul\":20813:20930   */\n      iszero\n      tag_302\n      jumpi\n        /* \"#utility.yul\":20849:20928   */\n      tag_303\n      tag_304\n      jump\t// in\n    tag_303:\n        /* \"#utility.yul\":20813:20930   */\n    tag_302:\n        /* \"#utility.yul\":20988:20992   */\n      0x20\n        /* \"#utility.yul\":20980:20986   */\n      dup3\n        /* \"#utility.yul\":20976:20993   */\n      mul\n        /* \"#utility.yul\":20960:20974   */\n      calldatasize\n        /* \"#utility.yul\":20956:20994   */\n      sub\n        /* \"#utility.yul\":20946:20954   */\n      dup5\n        /* \"#utility.yul\":20942:20995   */\n      sgt\n        /* \"#utility.yul\":20939:21079   */\n      iszero\n      tag_305\n      jumpi\n        /* \"#utility.yul\":20998:21077   */\n      tag_306\n      tag_307\n      jump\t// in\n    tag_306:\n        /* \"#utility.yul\":20939:21079   */\n    tag_305:\n        /* \"#utility.yul\":20450:21086   */\n      pop\n        /* \"#utility.yul\":20356:21086   */\n      swap3\n      pop\n      swap3\n      swap1\n      pop\n      jump\t// out\n        /* \"#utility.yul\":21092:21807   */\n    tag_238:\n        /* \"#utility.yul\":21157:21162   */\n      0x00\n        /* \"#utility.yul\":21164:21170   */\n      dup1\n        /* \"#utility.yul\":21220:21223   */\n      dup4\n        /* \"#utility.yul\":21207:21224   */\n      calldataload\n        /* \"#utility.yul\":21312:21313   */\n      0x01\n        /* \"#utility.yul\":21306:21310   */\n      0x20\n        /* \"#utility.yul\":21302:21314   */\n      sub\n        /* \"#utility.yul\":21291:21299   */\n      dup5\n        /* \"#utility.yul\":21275:21289   */\n      calldatasize\n        /* \"#utility.yul\":21271:21300   */\n      sub\n        /* \"#utility.yul\":21267:21315   */\n      sub\n        /* \"#utility.yul\":21247:21265   */\n      dup2\n        /* \"#utility.yul\":21243:21316   */\n      slt\n        /* \"#utility.yul\":21233:21401   */\n      tag_309\n      jumpi\n        /* \"#utility.yul\":21320:21399   */\n      tag_310\n      tag_301\n      jump\t// in\n    tag_310:\n        /* \"#utility.yul\":21233:21401   */\n    tag_309:\n        /* \"#utility.yul\":21443:21451   */\n      dup4\n        /* \"#utility.yul\":21423:21441   */\n      dup2\n        /* \"#utility.yul\":21419:21452   */\n      add\n        /* \"#utility.yul\":21410:21452   */\n      swap3\n      pop\n        /* \"#utility.yul\":21485:21490   */\n      dup3\n        /* \"#utility.yul\":21472:21491   */\n      calldataload\n        /* \"#utility.yul\":21462:21491   */\n      swap2\n      pop\n        /* \"#utility.yul\":21520:21524   */\n      0x20\n        /* \"#utility.yul\":21513:21518   */\n      dup4\n        /* \"#utility.yul\":21509:21525   */\n      add\n        /* \"#utility.yul\":21500:21525   */\n      swap3\n      pop\n        /* \"#utility.yul\":21548:21566   */\n      0xffffffffffffffff\n        /* \"#utility.yul\":21540:21546   */\n      dup3\n        /* \"#utility.yul\":21537:21567   */\n      gt\n        /* \"#utility.yul\":21534:21651   */\n      iszero\n      tag_311\n      jumpi\n        /* \"#utility.yul\":21570:21649   */\n      tag_312\n      tag_304\n      jump\t// in\n    tag_312:\n        /* \"#utility.yul\":21534:21651   */\n    tag_311:\n        /* \"#utility.yul\":21709:21713   */\n      0x01\n        /* \"#utility.yul\":21701:21707   */\n      dup3\n        /* \"#utility.yul\":21697:21714   */\n      mul\n        /* \"#utility.yul\":21681:21695   */\n      calldatasize\n        /* \"#utility.yul\":21677:21715   */\n      sub\n        /* \"#utility.yul\":21667:21675   */\n      dup5\n        /* \"#utility.yul\":21663:21716   */\n      sgt\n        /* \"#utility.yul\":21660:21800   */\n      iszero\n      tag_313\n      jumpi\n        /* \"#utility.yul\":21719:21798   */\n      tag_314\n      tag_307\n      jump\t// in\n    tag_314:\n        /* \"#utility.yul\":21660:21800   */\n    tag_313:\n        /* \"#utility.yul\":21171:21807   */\n      pop\n        /* \"#utility.yul\":21092:21807   */\n      swap3\n      pop\n      swap3\n      swap1\n      pop\n      jump\t// out\n        /* \"#utility.yul\":21813:21909   */\n    tag_161:\n        /* \"#utility.yul\":21850:21857   */\n      0x00\n        /* \"#utility.yul\":21879:21903   */\n      tag_316\n        /* \"#utility.yul\":21897:21902   */\n      dup3\n        /* \"#utility.yul\":21879:21903   */\n      tag_317\n      jump\t// in\n    tag_316:\n        /* \"#utility.yul\":21868:21903   */\n      swap1\n      pop\n        /* \"#utility.yul\":21813:21909   */\n      swap2\n      swap1\n      pop\n      jump\t// out\n        /* \"#utility.yul\":21915:22019   */\n    tag_318:\n        /* \"#utility.yul\":21960:21967   */\n      0x00\n        /* \"#utility.yul\":21989:22013   */\n      tag_320\n        /* \"#utility.yul\":22007:22012   */\n      dup3\n        /* \"#utility.yul\":21989:22013   */\n      tag_317\n      jump\t// in\n    tag_320:\n        /* \"#utility.yul\":21978:22013   */\n      swap1\n      pop\n        /* \"#utility.yul\":21915:22019   */\n      swap2\n      swap1\n      pop\n      jump\t// out\n        /* \"#utility.yul\":22025:22151   */\n    tag_317:\n        /* \"#utility.yul\":22062:22069   */\n      0x00\n        /* \"#utility.yul\":22102:22144   */\n      0xffffffffffffffffffffffffffffffffffffffff\n        /* \"#utility.yul\":22095:22100   */\n      dup3\n        /* \"#utility.yul\":22091:22145   */\n      and\n        /* \"#utility.yul\":22080:22145   */\n      swap1\n      pop\n        /* \"#utility.yul\":22025:22151   */\n      swap2\n      swap1\n      pop\n      jump\t// out\n        /* \"#utility.yul\":22157:22234   */\n    tag_249:\n        /* \"#utility.yul\":22194:22201   */\n      0x00\n        /* \"#utility.yul\":22223:22228   */\n      dup2\n        /* \"#utility.yul\":22212:22228   */\n      swap1\n      pop\n        /* \"#utility.yul\":22157:22234   */\n      swap2\n      swap1\n      pop\n      jump\t// out\n        /* \"#utility.yul\":22240:22394   */\n    tag_58:\n        /* \"#utility.yul\":22324:22330   */\n      dup3\n        /* \"#utility.yul\":22319:22322   */\n      dup2\n        /* \"#utility.yul\":22314:22317   */\n      dup4\n        /* \"#utility.yul\":22301:22331   */\n      calldatacopy\n        /* \"#utility.yul\":22386:22387   */\n      0x00\n        /* \"#utility.yul\":22377:22383   */\n      dup4\n        /* \"#utility.yul\":22372:22375   */\n      dup4\n        /* \"#utility.yul\":22368:22384   */\n      add\n        /* \"#utility.yul\":22361:22388   */\n      mstore\n        /* \"#utility.yul\":22240:22394   */\n      pop\n      pop\n      pop\n      jump\t// out\n        /* \"#utility.yul\":22400:22707   */\n    tag_219:\n        /* \"#utility.yul\":22468:22469   */\n      0x00\n        /* \"#utility.yul\":22478:22591   */\n    tag_325:\n        /* \"#utility.yul\":22492:22498   */\n      dup4\n        /* \"#utility.yul\":22489:22490   */\n      dup2\n        /* \"#utility.yul\":22486:22499   */\n      lt\n        /* \"#utility.yul\":22478:22591   */\n      iszero\n      tag_327\n      jumpi\n        /* \"#utility.yul\":22577:22578   */\n      dup1\n        /* \"#utility.yul\":22572:22575   */\n      dup3\n        /* \"#utility.yul\":22568:22579   */\n      add\n        /* \"#utility.yul\":22562:22580   */\n      mload\n        /* \"#utility.yul\":22558:22559   */\n      dup2\n        /* \"#utility.yul\":22553:22556   */\n      dup5\n        /* \"#utility.yul\":22549:22560   */\n      add\n        /* \"#utility.yul\":22542:22581   */\n      mstore\n        /* \"#utility.yul\":22514:22516   */\n      0x20\n        /* \"#utility.yul\":22511:22512   */\n      dup2\n        /* \"#utility.yul\":22507:22517   */\n      add\n        /* \"#utility.yul\":22502:22517   */\n      swap1\n      pop\n        /* \"#utility.yul\":22478:22591   */\n      jump(tag_325)\n    tag_327:\n        /* \"#utility.yul\":22609:22615   */\n      dup4\n        /* \"#utility.yul\":22606:22607   */\n      dup2\n        /* \"#utility.yul\":22603:22616   */\n      gt\n        /* \"#utility.yul\":22600:22701   */\n      iszero\n      tag_328\n      jumpi\n        /* \"#utility.yul\":22689:22690   */\n      0x00\n        /* \"#utility.yul\":22680:22686   */\n      dup5\n        /* \"#utility.yul\":22675:22678   */\n      dup5\n        /* \"#utility.yul\":22671:22687   */\n      add\n        /* \"#utility.yul\":22664:22691   */\n      mstore\n        /* \"#utility.yul\":22600:22701   */\n    tag_328:\n        /* \"#utility.yul\":22449:22707   */\n      pop\n        /* \"#utility.yul\":22400:22707   */\n      pop\n      pop\n      pop\n      jump\t// out\n        /* \"#utility.yul\":22713:22994   */\n    tag_278:\n        /* \"#utility.yul\":22796:22823   */\n      tag_330\n        /* \"#utility.yul\":22818:22822   */\n      dup3\n        /* \"#utility.yul\":22796:22823   */\n      tag_221\n      jump\t// in\n    tag_330:\n        /* \"#utility.yul\":22788:22794   */\n      dup2\n        /* \"#utility.yul\":22784:22824   */\n      add\n        /* \"#utility.yul\":22926:22932   */\n      dup2\n        /* \"#utility.yul\":22914:22924   */\n      dup2\n        /* \"#utility.yul\":22911:22933   */\n      lt\n        /* \"#utility.yul\":22890:22908   */\n      0xffffffffffffffff\n        /* \"#utility.yul\":22878:22888   */\n      dup3\n        /* \"#utility.yul\":22875:22909   */\n      gt\n        /* \"#utility.yul\":22872:22934   */\n      or\n        /* \"#utility.yul\":22869:22957   */\n      iszero\n      tag_331\n      jumpi\n        /* \"#utility.yul\":22937:22955   */\n      tag_332\n      tag_283\n      jump\t// in\n    tag_332:\n        /* \"#utility.yul\":22869:22957   */\n    tag_331:\n        /* \"#utility.yul\":22977:22987   */\n      dup1\n        /* \"#utility.yul\":22973:22975   */\n      0x40\n        /* \"#utility.yul\":22966:22988   */\n      mstore\n        /* \"#utility.yul\":22756:22994   */\n      pop\n        /* \"#utility.yul\":22713:22994   */\n      pop\n      pop\n      jump\t// out\n        /* \"#utility.yul\":23000:23100   */\n    tag_166:\n        /* \"#utility.yul\":23039:23046   */\n      0x00\n        /* \"#utility.yul\":23068:23094   */\n      tag_334\n        /* \"#utility.yul\":23088:23093   */\n      dup3\n        /* \"#utility.yul\":23068:23094   */\n      tag_335\n      jump\t// in\n    tag_334:\n        /* \"#utility.yul\":23057:23094   */\n      swap1\n      pop\n        /* \"#utility.yul\":23000:23100   */\n      swap2\n      swap1\n      pop\n      jump\t// out\n        /* \"#utility.yul\":23106:23200   */\n    tag_335:\n        /* \"#utility.yul\":23145:23152   */\n      0x00\n        /* \"#utility.yul\":23174:23194   */\n      tag_337\n        /* \"#utility.yul\":23188:23193   */\n      dup3\n        /* \"#utility.yul\":23174:23194   */\n      tag_338\n      jump\t// in\n    tag_337:\n        /* \"#utility.yul\":23163:23194   */\n      swap1\n      pop\n        /* \"#utility.yul\":23106:23200   */\n      swap2\n      swap1\n      pop\n      jump\t// out\n        /* \"#utility.yul\":23206:23285   */\n    tag_257:\n        /* \"#utility.yul\":23245:23252   */\n      0x00\n        /* \"#utility.yul\":23274:23279   */\n      dup2\n        /* \"#utility.yul\":23263:23279   */\n      swap1\n      pop\n        /* \"#utility.yul\":23206:23285   */\n      swap2\n      swap1\n      pop\n      jump\t// out\n        /* \"#utility.yul\":23291:23471   */\n    tag_283:\n        /* \"#utility.yul\":23339:23416   */\n      0x4e487b7100000000000000000000000000000000000000000000000000000000\n        /* \"#utility.yul\":23336:23337   */\n      0x00\n        /* \"#utility.yul\":23329:23417   */\n      mstore\n        /* \"#utility.yul\":23436:23440   */\n      0x41\n        /* \"#utility.yul\":23433:23434   */\n      0x04\n        /* \"#utility.yul\":23426:23441   */\n      mstore\n        /* \"#utility.yul\":23460:23464   */\n      0x24\n        /* \"#utility.yul\":23457:23458   */\n      0x00\n        /* \"#utility.yul\":23450:23465   */\n      revert\n        /* \"#utility.yul\":23477:23594   */\n    tag_304:\n        /* \"#utility.yul\":23586:23587   */\n      0x00\n        /* \"#utility.yul\":23583:23584   */\n      dup1\n        /* \"#utility.yul\":23576:23588   */\n      revert\n        /* \"#utility.yul\":23600:23717   */\n    tag_74:\n        /* \"#utility.yul\":23709:23710   */\n      0x00\n        /* \"#utility.yul\":23706:23707   */\n      dup1\n        /* \"#utility.yul\":23699:23711   */\n      revert\n        /* \"#utility.yul\":23723:23840   */\n    tag_71:\n        /* \"#utility.yul\":23832:23833   */\n      0x00\n        /* \"#utility.yul\":23829:23830   */\n      dup1\n        /* \"#utility.yul\":23822:23834   */\n      revert\n        /* \"#utility.yul\":23846:23963   */\n    tag_99:\n        /* \"#utility.yul\":23955:23956   */\n      0x00\n        /* \"#utility.yul\":23952:23953   */\n      dup1\n        /* \"#utility.yul\":23945:23957   */\n      revert\n        /* \"#utility.yul\":23969:24086   */\n    tag_104:\n        /* \"#utility.yul\":24078:24079   */\n      0x00\n        /* \"#utility.yul\":24075:24076   */\n      dup1\n        /* \"#utility.yul\":24068:24080   */\n      revert\n        /* \"#utility.yul\":24092:24209   */\n    tag_307:\n        /* \"#utility.yul\":24201:24202   */\n      0x00\n        /* \"#utility.yul\":24198:24199   */\n      dup1\n        /* \"#utility.yul\":24191:24203   */\n      revert\n        /* \"#utility.yul\":24215:24332   */\n    tag_108:\n        /* \"#utility.yul\":24324:24325   */\n      0x00\n        /* \"#utility.yul\":24321:24322   */\n      dup1\n        /* \"#utility.yul\":24314:24326   */\n      revert\n        /* \"#utility.yul\":24338:24455   */\n    tag_43:\n        /* \"#utility.yul\":24447:24448   */\n      0x00\n        /* \"#utility.yul\":24444:24445   */\n      dup1\n        /* \"#utility.yul\":24437:24449   */\n      revert\n        /* \"#utility.yul\":24461:24578   */\n    tag_56:\n        /* \"#utility.yul\":24570:24571   */\n      0x00\n        /* \"#utility.yul\":24567:24568   */\n      dup1\n        /* \"#utility.yul\":24560:24572   */\n      revert\n        /* \"#utility.yul\":24584:24701   */\n    tag_122:\n        /* \"#utility.yul\":24693:24694   */\n      0x00\n        /* \"#utility.yul\":24690:24691   */\n      dup1\n        /* \"#utility.yul\":24683:24695   */\n      revert\n        /* \"#utility.yul\":24707:24824   */\n    tag_173:\n        /* \"#utility.yul\":24816:24817   */\n      0x00\n        /* \"#utility.yul\":24813:24814   */\n      dup1\n        /* \"#utility.yul\":24806:24818   */\n      revert\n        /* \"#utility.yul\":24830:24947   */\n    tag_301:\n        /* \"#utility.yul\":24939:24940   */\n      0x00\n        /* \"#utility.yul\":24936:24937   */\n      dup1\n        /* \"#utility.yul\":24929:24941   */\n      revert\n        /* \"#utility.yul\":24953:25070   */\n    tag_119:\n        /* \"#utility.yul\":25062:25063   */\n      0x00\n        /* \"#utility.yul\":25059:25060   */\n      dup1\n        /* \"#utility.yul\":25052:25064   */\n      revert\n        /* \"#utility.yul\":25076:25178   */\n    tag_221:\n        /* \"#utility.yul\":25117:25123   */\n      0x00\n        /* \"#utility.yul\":25168:25170   */\n      0x1f\n        /* \"#utility.yul\":25164:25171   */\n      not\n        /* \"#utility.yul\":25159:25161   */\n      0x1f\n        /* \"#utility.yul\":25152:25157   */\n      dup4\n        /* \"#utility.yul\":25148:25162   */\n      add\n        /* \"#utility.yul\":25144:25172   */\n      and\n        /* \"#utility.yul\":25134:25172   */\n      swap1\n      pop\n        /* \"#utility.yul\":25076:25178   */\n      swap2\n      swap1\n      pop\n      jump\t// out\n        /* \"#utility.yul\":25184:25278   */\n    tag_338:\n        /* \"#utility.yul\":25217:25225   */\n      0x00\n        /* \"#utility.yul\":25265:25270   */\n      dup2\n        /* \"#utility.yul\":25261:25263   */\n      0x60\n        /* \"#utility.yul\":25257:25271   */\n      shl\n        /* \"#utility.yul\":25236:25271   */\n      swap1\n      pop\n        /* \"#utility.yul\":25184:25278   */\n      swap2\n      swap1\n      pop\n      jump\t// out\n        /* \"#utility.yul\":25284:25406   */\n    tag_62:\n        /* \"#utility.yul\":25357:25381   */\n      tag_357\n        /* \"#utility.yul\":25375:25380   */\n      dup2\n        /* \"#utility.yul\":25357:25381   */\n      tag_161\n      jump\t// in\n    tag_357:\n        /* \"#utility.yul\":25350:25355   */\n      dup2\n        /* \"#utility.yul\":25347:25382   */\n      eq\n        /* \"#utility.yul\":25337:25400   */\n      tag_358\n      jumpi\n        /* \"#utility.yul\":25396:25397   */\n      0x00\n        /* \"#utility.yul\":25393:25394   */\n      dup1\n        /* \"#utility.yul\":25386:25398   */\n      revert\n        /* \"#utility.yul\":25337:25400   */\n    tag_358:\n        /* \"#utility.yul\":25284:25406   */\n      pop\n      jump\t// out\n        /* \"#utility.yul\":25412:25550   */\n    tag_66:\n        /* \"#utility.yul\":25493:25525   */\n      tag_360\n        /* \"#utility.yul\":25519:25524   */\n      dup2\n        /* \"#utility.yul\":25493:25525   */\n      tag_318\n      jump\t// in\n    tag_360:\n        /* \"#utility.yul\":25486:25491   */\n      dup2\n        /* \"#utility.yul\":25483:25526   */\n      eq\n        /* \"#utility.yul\":25473:25544   */\n      tag_361\n      jumpi\n        /* \"#utility.yul\":25540:25541   */\n      0x00\n        /* \"#utility.yul\":25537:25538   */\n      dup1\n        /* \"#utility.yul\":25530:25542   */\n      revert\n        /* \"#utility.yul\":25473:25544   */\n    tag_361:\n        /* \"#utility.yul\":25412:25550   */\n      pop\n      jump\t// out\n        /* \"#utility.yul\":25556:25678   */\n    tag_115:\n        /* \"#utility.yul\":25629:25653   */\n      tag_363\n        /* \"#utility.yul\":25647:25652   */\n      dup2\n        /* \"#utility.yul\":25629:25653   */\n      tag_249\n      jump\t// in\n    tag_363:\n        /* \"#utility.yul\":25622:25627   */\n      dup2\n        /* \"#utility.yul\":25619:25654   */\n      eq\n        /* \"#utility.yul\":25609:25672   */\n      tag_364\n      jumpi\n        /* \"#utility.yul\":25668:25669   */\n      0x00\n        /* \"#utility.yul\":25665:25666   */\n      dup1\n        /* \"#utility.yul\":25658:25670   */\n      revert\n        /* \"#utility.yul\":25609:25672   */\n    tag_364:\n        /* \"#utility.yul\":25556:25678   */\n      pop\n      jump\t// out\n\n    auxdata: 0xa264697066735822122024e727076a6366cbca27f5de09f15a8fe183046aade27909e93b669d9e2e736a64736f6c63430008070033\n}\n",
				"bytecode": {
					"linkReferences": {},
					"object": "608060405234801561001057600080fd5b50610e83806100206000396000f3fe608060405234801561001057600080fd5b50600436106100415760003560e01c8063b9ff2f0814610046578063e5c5e9a314610076578063eacc0e01146100a9575b600080fd5b610060600480360381019061005b919061058f565b6100d9565b60405161006d91906109ec565b60405180910390f35b610090600480360381019061008b919061042f565b61010e565b6040516100a09493929190610a63565b60405180910390f35b6100c360048036038101906100be919061051b565b610143565b6040516100d091906109ec565b60405180910390f35b606085858585856040516020016100f4959493929190610a0e565b604051602081830303815290604052905095945050505050565b600080606061011b610175565b858581019061012a919061047c565b8094508195508296508397505050505092959194509250565b60608484848460405160200161015c94939291906109b1565b6040516020818303038152906040529050949350505050565b604051806040016040528060608152602001606081525090565b60006101a261019d84610adb565b610ab6565b905080838252602082019050828560208602820111156101c5576101c4610dcc565b5b60005b858110156101f557816101db888261041a565b8452602084019350602083019250506001810190506101c8565b5050509392505050565b600061021261020d84610b07565b610ab6565b90508281526020810184848401111561022e5761022d610dd1565b5b610239848285610cd9565b509392505050565b60008135905061025081610e08565b92915050565b60008135905061026581610e1f565b92915050565b60008083601f84011261028157610280610db3565b5b8235905067ffffffffffffffff81111561029e5761029d610dae565b5b6020830191508360208202830111156102ba576102b9610dcc565b5b9250929050565b600082601f8301126102d6576102d5610db3565b5b81356102e684826020860161018f565b91505092915050565b60008083601f84011261030557610304610db3565b5b8235905067ffffffffffffffff81111561032257610321610dae565b5b60208301915083600182028301111561033e5761033d610dcc565b5b9250929050565b600082601f83011261035a57610359610db3565b5b813561036a8482602086016101ff565b91505092915050565b60006040828403121561038957610388610db8565b5b81905092915050565b6000604082840312156103a8576103a7610dbd565b5b6103b26040610ab6565b9050600082013567ffffffffffffffff8111156103d2576103d1610dc7565b5b6103de84828501610345565b600083015250602082013567ffffffffffffffff81111561040257610401610dc7565b5b61040e848285016102c1565b60208301525092915050565b60008135905061042981610e36565b92915050565b6000806020838503121561044657610445610de5565b5b600083013567ffffffffffffffff81111561046457610463610dd6565b5b610470858286016102ef565b92509250509250929050565b6000806000806080858703121561049657610495610de5565b5b60006104a48782880161041a565b94505060206104b587828801610256565b935050604085013567ffffffffffffffff8111156104d6576104d5610dd6565b5b6104e2878288016102c1565b925050606085013567ffffffffffffffff81111561050357610502610dd6565b5b61050f87828801610392565b91505092959194509250565b6000806000806060858703121561053557610534610de5565b5b60006105438782880161041a565b945050602061055487828801610241565b935050604085013567ffffffffffffffff81111561057557610574610dd6565b5b6105818782880161026b565b925092505092959194509250565b6000806000806000608086880312156105ab576105aa610de5565b5b60006105b98882890161041a565b95505060206105ca88828901610241565b945050604086013567ffffffffffffffff8111156105eb576105ea610dd6565b5b6105f78882890161026b565b9350935050606086013567ffffffffffffffff81111561061a57610619610dd6565b5b61062688828901610373565b9150509295509295909350565b600061063f838361097c565b60208301905092915050565b61065481610c8b565b82525050565b61066b61066682610c8b565b610d4c565b82525050565b600061067d8385610b76565b93507f07ffffffffffffffffffffffffffffffffffffffffffffffffffffffffffffff8311156106b0576106af610ddb565b5b6020830292506106c1838584610cd9565b82840190509392505050565b60006106d98385610b87565b93507f07ffffffffffffffffffffffffffffffffffffffffffffffffffffffffffffff83111561070c5761070b610ddb565b5b60208302925061071d838584610cd9565b82840190509392505050565b60006107358385610b98565b93507f07ffffffffffffffffffffffffffffffffffffffffffffffffffffffffffffff83111561076857610767610ddb565b5b602083029250610779838584610cd9565b82840190509392505050565b600061079082610b48565b61079a8185610b76565b93506107a583610b38565b8060005b838110156107d65781516107bd8882610633565b97506107c883610b69565b9250506001810190506107a9565b5085935050505092915050565b60006107ee82610b48565b6107f88185610b87565b935061080383610b38565b8060005b8381101561083457815161081b8882610633565b975061082683610b69565b925050600181019050610807565b5085935050505092915050565b600061084c82610b53565b6108568185610ba3565b9350610866818560208601610ce8565b61086f81610dea565b840191505092915050565b60006108868385610bb4565b9350610893838584610cd9565b61089c83610dea565b840190509392505050565b60006108b282610b5e565b6108bc8185610bb4565b93506108cc818560208601610ce8565b6108d581610dea565b840191505092915050565b6000604083016108f36000840184610c28565b858303600087015261090683828461087a565b925050506109176020840184610bc5565b858303602087015261092a838284610671565b925050508091505092915050565b6000604083016000830151848203600086015261095582826108a7565b9150506020830151848203602086015261096f8282610785565b9150508091505092915050565b61098581610ccf565b82525050565b61099481610ccf565b82525050565b6109ab6109a682610ccf565b610d70565b82525050565b60006109bd828761099a565b6020820191506109cd828661065a565b6014820191506109de828486610729565b915081905095945050505050565b60006020820190508181036000830152610a068184610841565b905092915050565b6000608082019050610a23600083018861098b565b610a30602083018761064b565b8181036040830152610a438185876106cd565b90508181036060830152610a5781846108e0565b90509695505050505050565b6000608082019050610a78600083018761098b565b610a85602083018661064b565b8181036040830152610a9781856107e3565b90508181036060830152610aab8184610938565b905095945050505050565b6000610ac0610ad1565b9050610acc8282610d1b565b919050565b6000604051905090565b600067ffffffffffffffff821115610af657610af5610d7a565b5b602082029050602081019050919050565b600067ffffffffffffffff821115610b2257610b21610d7a565b5b610b2b82610dea565b9050602081019050919050565b6000819050602082019050919050565b600081519050919050565b600081519050919050565b600081519050919050565b6000602082019050919050565b600082825260208201905092915050565b600082825260208201905092915050565b600081905092915050565b600082825260208201905092915050565b600082825260208201905092915050565b60008083356001602003843603038112610be257610be1610de0565b5b83810192508235915060208301925067ffffffffffffffff821115610c0a57610c09610da9565b5b602082023603841315610c2057610c1f610dc2565b5b509250929050565b60008083356001602003843603038112610c4557610c44610de0565b5b83810192508235915060208301925067ffffffffffffffff821115610c6d57610c6c610da9565b5b600182023603841315610c8357610c82610dc2565b5b509250929050565b6000610c9682610caf565b9050919050565b6000610ca882610caf565b9050919050565b600073ffffffffffffffffffffffffffffffffffffffff82169050919050565b6000819050919050565b82818337600083830152505050565b60005b83811015610d06578082015181840152602081019050610ceb565b83811115610d15576000848401525b50505050565b610d2482610dea565b810181811067ffffffffffffffff82111715610d4357610d42610d7a565b5b80604052505050565b6000610d5782610d5e565b9050919050565b6000610d6982610dfb565b9050919050565b6000819050919050565b7f4e487b7100000000000000000000000000000000000000000000000000000000600052604160045260246000fd5b600080fd5b600080fd5b600080fd5b600080fd5b600080fd5b600080fd5b600080fd5b600080fd5b600080fd5b600080fd5b600080fd5b600080fd5b600080fd5b6000601f19601f8301169050919050565b60008160601b9050919050565b610e1181610c8b565b8114610e1c57600080fd5b50565b610e2881610c9d565b8114610e3357600080fd5b50565b610e3f81610ccf565b8114610e4a57600080fd5b5056fea264697066735822122024e727076a6366cbca27f5de09f15a8fe183046aade27909e93b669d9e2e736a64736f6c63430008070033",
					"opcodes": "PUSH1 0x80 PUSH1 0x40 MSTORE CALLVALUE DUP1 ISZERO PUSH2 0x10 JUMPI PUSH1 0x0 DUP1 REVERT JUMPDEST POP PUSH2 0xE83 DUP1 PUSH2 0x20 PUSH1 0x0 CODECOPY PUSH1 0x0 RETURN INVALID PUSH1 0x80 PUSH1 0x40 MSTORE CALLVALUE DUP1 ISZERO PUSH2 0x10 JUMPI PUSH1 0x0 DUP1 REVERT JUMPDEST POP PUSH1 0x4 CALLDATASIZE LT PUSH2 0x41 JUMPI PUSH1 0x0 CALLDATALOAD PUSH1 0xE0 SHR DUP1 PUSH4 0xB9FF2F08 EQ PUSH2 0x46 JUMPI DUP1 PUSH4 0xE5C5E9A3 EQ PUSH2 0x76 JUMPI DUP1 PUSH4 0xEACC0E01 EQ PUSH2 0xA9 JUMPI JUMPDEST PUSH1 0x0 DUP1 REVERT JUMPDEST PUSH2 0x60 PUSH1 0x4 DUP1 CALLDATASIZE SUB DUP2 ADD SWAP1 PUSH2 0x5B SWAP2 SWAP1 PUSH2 0x58F JUMP JUMPDEST PUSH2 0xD9 JUMP JUMPDEST PUSH1 0x40 MLOAD PUSH2 0x6D SWAP2 SWAP1 PUSH2 0x9EC JUMP JUMPDEST PUSH1 0x40 MLOAD DUP1 SWAP2 SUB SWAP1 RETURN JUMPDEST PUSH2 0x90 PUSH1 0x4 DUP1 CALLDATASIZE SUB DUP2 ADD SWAP1 PUSH2 0x8B SWAP2 SWAP1 PUSH2 0x42F JUMP JUMPDEST PUSH2 0x10E JUMP JUMPDEST PUSH1 0x40 MLOAD PUSH2 0xA0 SWAP5 SWAP4 SWAP3 SWAP2 SWAP1 PUSH2 0xA63 JUMP JUMPDEST PUSH1 0x40 MLOAD DUP1 SWAP2 SUB SWAP1 RETURN JUMPDEST PUSH2 0xC3 PUSH1 0x4 DUP1 CALLDATASIZE SUB DUP2 ADD SWAP1 PUSH2 0xBE SWAP2 SWAP1 PUSH2 0x51B JUMP JUMPDEST PUSH2 0x143 JUMP JUMPDEST PUSH1 0x40 MLOAD PUSH2 0xD0 SWAP2 SWAP1 PUSH2 0x9EC JUMP JUMPDEST PUSH1 0x40 MLOAD DUP1 SWAP2 SUB SWAP1 RETURN JUMPDEST PUSH1 0x60 DUP6 DUP6 DUP6 DUP6 DUP6 PUSH1 0x40 MLOAD PUSH1 0x20 ADD PUSH2 0xF4 SWAP6 SWAP5 SWAP4 SWAP3 SWAP2 SWAP1 PUSH2 0xA0E JUMP JUMPDEST PUSH1 0x40 MLOAD PUSH1 0x20 DUP2 DUP4 SUB SUB DUP2 MSTORE SWAP1 PUSH1 0x40 MSTORE SWAP1 POP SWAP6 SWAP5 POP POP POP POP POP JUMP JUMPDEST PUSH1 0x0 DUP1 PUSH1 0x60 PUSH2 0x11B PUSH2 0x175 JUMP JUMPDEST DUP6 DUP6 DUP2 ADD SWAP1 PUSH2 0x12A SWAP2 SWAP1 PUSH2 0x47C JUMP JUMPDEST DUP1 SWAP5 POP DUP2 SWAP6 POP DUP3 SWAP7 POP DUP4 SWAP8 POP POP POP POP POP SWAP3 SWAP6 SWAP2 SWAP5 POP SWAP3 POP JUMP JUMPDEST PUSH1 0x60 DUP5 DUP5 DUP5 DUP5 PUSH1 0x40 MLOAD PUSH1 0x20 ADD PUSH2 0x15C SWAP5 SWAP4 SWAP3 SWAP2 SWAP1 PUSH2 0x9B1 JUMP JUMPDEST PUSH1 0x40 MLOAD PUSH1 0x20 DUP2 DUP4 SUB SUB DUP2 MSTORE SWAP1 PUSH1 0x40 MSTORE SWAP1 POP SWAP5 SWAP4 POP POP POP POP JUMP JUMPDEST PUSH1 0x40 MLOAD DUP1 PUSH1 0x40 ADD PUSH1 0x40 MSTORE DUP1 PUSH1 0x60 DUP2 MSTORE PUSH1 0x20 ADD PUSH1 0x60 DUP2 MSTORE POP SWAP1 JUMP JUMPDEST PUSH1 0x0 PUSH2 0x1A2 PUSH2 0x19D DUP5 PUSH2 0xADB JUMP JUMPDEST PUSH2 0xAB6 JUMP JUMPDEST SWAP1 POP DUP1 DUP4 DUP3 MSTORE PUSH1 0x20 DUP3 ADD SWAP1 POP DUP3 DUP6 PUSH1 0x20 DUP7 MUL DUP3 ADD GT ISZERO PUSH2 0x1C5 JUMPI PUSH2 0x1C4 PUSH2 0xDCC JUMP JUMPDEST JUMPDEST PUSH1 0x0 JUMPDEST DUP6 DUP2 LT ISZERO PUSH2 0x1F5 JUMPI DUP2 PUSH2 0x1DB DUP9 DUP3 PUSH2 0x41A JUMP JUMPDEST DUP5 MSTORE PUSH1 0x20 DUP5 ADD SWAP4 POP PUSH1 0x20 DUP4 ADD SWAP3 POP POP PUSH1 0x1 DUP2 ADD SWAP1 POP PUSH2 0x1C8 JUMP JUMPDEST POP POP POP SWAP4 SWAP3 POP POP POP JUMP JUMPDEST PUSH1 0x0 PUSH2 0x212 PUSH2 0x20D DUP5 PUSH2 0xB07 JUMP JUMPDEST PUSH2 0xAB6 JUMP JUMPDEST SWAP1 POP DUP3 DUP2 MSTORE PUSH1 0x20 DUP2 ADD DUP5 DUP5 DUP5 ADD GT ISZERO PUSH2 0x22E JUMPI PUSH2 0x22D PUSH2 0xDD1 JUMP JUMPDEST JUMPDEST PUSH2 0x239 DUP5 DUP3 DUP6 PUSH2 0xCD9 JUMP JUMPDEST POP SWAP4 SWAP3 POP POP POP JUMP JUMPDEST PUSH1 0x0 DUP2 CALLDATALOAD SWAP1 POP PUSH2 0x250 DUP2 PUSH2 0xE08 JUMP JUMPDEST SWAP3 SWAP2 POP POP JUMP JUMPDEST PUSH1 0x0 DUP2 CALLDATALOAD SWAP1 POP PUSH2 0x265 DUP2 PUSH2 0xE1F JUMP JUMPDEST SWAP3 SWAP2 POP POP JUMP JUMPDEST PUSH1 0x0 DUP1 DUP4 PUSH1 0x1F DUP5 ADD SLT PUSH2 0x281 JUMPI PUSH2 0x280 PUSH2 0xDB3 JUMP JUMPDEST JUMPDEST DUP3 CALLDATALOAD SWAP1 POP PUSH8 0xFFFFFFFFFFFFFFFF DUP2 GT ISZERO PUSH2 0x29E JUMPI PUSH2 0x29D PUSH2 0xDAE JUMP JUMPDEST JUMPDEST PUSH1 0x20 DUP4 ADD SWAP2 POP DUP4 PUSH1 0x20 DUP3 MUL DUP4 ADD GT ISZERO PUSH2 0x2BA JUMPI PUSH2 0x2B9 PUSH2 0xDCC JUMP JUMPDEST JUMPDEST SWAP3 POP SWAP3 SWAP1 POP JUMP JUMPDEST PUSH1 0x0 DUP3 PUSH1 0x1F DUP4 ADD SLT PUSH2 0x2D6 JUMPI PUSH2 0x2D5 PUSH2 0xDB3 JUMP JUMPDEST JUMPDEST DUP2 CALLDATALOAD PUSH2 0x2E6 DUP5 DUP3 PUSH1 0x20 DUP7 ADD PUSH2 0x18F JUMP JUMPDEST SWAP2 POP POP SWAP3 SWAP2 POP POP JUMP JUMPDEST PUSH1 0x0 DUP1 DUP4 PUSH1 0x1F DUP5 ADD SLT PUSH2 0x305 JUMPI PUSH2 0x304 PUSH2 0xDB3 JUMP JUMPDEST JUMPDEST DUP3 CALLDATALOAD SWAP1 POP PUSH8 0xFFFFFFFFFFFFFFFF DUP2 GT ISZERO PUSH2 0x322 JUMPI PUSH2 0x321 PUSH2 0xDAE JUMP JUMPDEST JUMPDEST PUSH1 0x20 DUP4 ADD SWAP2 POP DUP4 PUSH1 0x1 DUP3 MUL DUP4 ADD GT ISZERO PUSH2 0x33E JUMPI PUSH2 0x33D PUSH2 0xDCC JUMP JUMPDEST JUMPDEST SWAP3 POP SWAP3 SWAP1 POP JUMP JUMPDEST PUSH1 0x0 DUP3 PUSH1 0x1F DUP4 ADD SLT PUSH2 0x35A JUMPI PUSH2 0x359 PUSH2 0xDB3 JUMP JUMPDEST JUMPDEST DUP2 CALLDATALOAD PUSH2 0x36A DUP5 DUP3 PUSH1 0x20 DUP7 ADD PUSH2 0x1FF JUMP JUMPDEST SWAP2 POP POP SWAP3 SWAP2 POP POP JUMP JUMPDEST PUSH1 0x0 PUSH1 0x40 DUP3 DUP5 SUB SLT ISZERO PUSH2 0x389 JUMPI PUSH2 0x388 PUSH2 0xDB8 JUMP JUMPDEST JUMPDEST DUP2 SWAP1 POP SWAP3 SWAP2 POP POP JUMP JUMPDEST PUSH1 0x0 PUSH1 0x40 DUP3 DUP5 SUB SLT ISZERO PUSH2 0x3A8 JUMPI PUSH2 0x3A7 PUSH2 0xDBD JUMP JUMPDEST JUMPDEST PUSH2 0x3B2 PUSH1 0x40 PUSH2 0xAB6 JUMP JUMPDEST SWAP1 POP PUSH1 0x0 DUP3 ADD CALLDATALOAD PUSH8 0xFFFFFFFFFFFFFFFF DUP2 GT ISZERO PUSH2 0x3D2 JUMPI PUSH2 0x3D1 PUSH2 0xDC7 JUMP JUMPDEST JUMPDEST PUSH2 0x3DE DUP5 DUP3 DUP6 ADD PUSH2 0x345 JUMP JUMPDEST PUSH1 0x0 DUP4 ADD MSTORE POP PUSH1 0x20 DUP3 ADD CALLDATALOAD PUSH8 0xFFFFFFFFFFFFFFFF DUP2 GT ISZERO PUSH2 0x402 JUMPI PUSH2 0x401 PUSH2 0xDC7 JUMP JUMPDEST JUMPDEST PUSH2 0x40E DUP5 DUP3 DUP6 ADD PUSH2 0x2C1 JUMP JUMPDEST PUSH1 0x20 DUP4 ADD MSTORE POP SWAP3 SWAP2 POP POP JUMP JUMPDEST PUSH1 0x0 DUP2 CALLDATALOAD SWAP1 POP PUSH2 0x429 DUP2 PUSH2 0xE36 JUMP JUMPDEST SWAP3 SWAP2 POP POP JUMP JUMPDEST PUSH1 0x0 DUP1 PUSH1 0x20 DUP4 DUP6 SUB SLT ISZERO PUSH2 0x446 JUMPI PUSH2 0x445 PUSH2 0xDE5 JUMP JUMPDEST JUMPDEST PUSH1 0x0 DUP4 ADD CALLDATALOAD PUSH8 0xFFFFFFFFFFFFFFFF DUP2 GT ISZERO PUSH2 0x464 JUMPI PUSH2 0x463 PUSH2 0xDD6 JUMP JUMPDEST JUMPDEST PUSH2 0x470 DUP6 DUP3 DUP7 ADD PUSH2 0x2EF JUMP JUMPDEST SWAP3 POP SWAP3 POP POP SWAP3 POP SWAP3 SWAP1 POP JUMP JUMPDEST PUSH1 0x0 DUP1 PUSH1 0x0 DUP1 PUSH1 0x80 DUP6 DUP8 SUB SLT ISZERO PUSH2 0x496 JUMPI PUSH2 0x495 PUSH2 0xDE5 JUMP JUMPDEST JUMPDEST PUSH1 0x0 PUSH2 0x4A4 DUP8 DUP3 DUP9 ADD PUSH2 0x41A JUMP JUMPDEST SWAP5 POP POP PUSH1 0x20 PUSH2 0x4B5 DUP8 DUP3 DUP9 ADD PUSH2 0x256 JUMP JUMPDEST SWAP4 POP POP PUSH1 0x40 DUP6 ADD CALLDATALOAD PUSH8 0xFFFFFFFFFFFFFFFF DUP2 GT ISZERO PUSH2 0x4D6 JUMPI PUSH2 0x4D5 PUSH2 0xDD6 JUMP JUMPDEST JUMPDEST PUSH2 0x4E2 DUP8 DUP3 DUP9 ADD PUSH2 0x2C1 JUMP JUMPDEST SWAP3 POP POP PUSH1 0x60 DUP6 ADD CALLDATALOAD PUSH8 0xFFFFFFFFFFFFFFFF DUP2 GT ISZERO PUSH2 0x503 JUMPI PUSH2 0x502 PUSH2 0xDD6 JUMP JUMPDEST JUMPDEST PUSH2 0x50F DUP8 DUP3 DUP9 ADD PUSH2 0x392 JUMP JUMPDEST SWAP2 POP POP SWAP3 SWAP6 SWAP2 SWAP5 POP SWAP3 POP JUMP JUMPDEST PUSH1 0x0 DUP1 PUSH1 0x0 DUP1 PUSH1 0x60 DUP6 DUP8 SUB SLT ISZERO PUSH2 0x535 JUMPI PUSH2 0x534 PUSH2 0xDE5 JUMP JUMPDEST JUMPDEST PUSH1 0x0 PUSH2 0x543 DUP8 DUP3 DUP9 ADD PUSH2 0x41A JUMP JUMPDEST SWAP5 POP POP PUSH1 0x20 PUSH2 0x554 DUP8 DUP3 DUP9 ADD PUSH2 0x241 JUMP JUMPDEST SWAP4 POP POP PUSH1 0x40 DUP6 ADD CALLDATALOAD PUSH8 0xFFFFFFFFFFFFFFFF DUP2 GT ISZERO PUSH2 0x575 JUMPI PUSH2 0x574 PUSH2 0xDD6 JUMP JUMPDEST JUMPDEST PUSH2 0x581 DUP8 DUP3 DUP9 ADD PUSH2 0x26B JUMP JUMPDEST SWAP3 POP SWAP3 POP POP SWAP3 SWAP6 SWAP2 SWAP5 POP SWAP3 POP JUMP JUMPDEST PUSH1 0x0 DUP1 PUSH1 0x0 DUP1 PUSH1 0x0 PUSH1 0x80 DUP7 DUP9 SUB SLT ISZERO PUSH2 0x5AB JUMPI PUSH2 0x5AA PUSH2 0xDE5 JUMP JUMPDEST JUMPDEST PUSH1 0x0 PUSH2 0x5B9 DUP9 DUP3 DUP10 ADD PUSH2 0x41A JUMP JUMPDEST SWAP6 POP POP PUSH1 0x20 PUSH2 0x5CA DUP9 DUP3 DUP10 ADD PUSH2 0x241 JUMP JUMPDEST SWAP5 POP POP PUSH1 0x40 DUP7 ADD CALLDATALOAD PUSH8 0xFFFFFFFFFFFFFFFF DUP2 GT ISZERO PUSH2 0x5EB JUMPI PUSH2 0x5EA PUSH2 0xDD6 JUMP JUMPDEST JUMPDEST PUSH2 0x5F7 DUP9 DUP3 DUP10 ADD PUSH2 0x26B JUMP JUMPDEST SWAP4 POP SWAP4 POP POP PUSH1 0x60 DUP7 ADD CALLDATALOAD PUSH8 0xFFFFFFFFFFFFFFFF DUP2 GT ISZERO PUSH2 0x61A JUMPI PUSH2 0x619 PUSH2 0xDD6 JUMP JUMPDEST JUMPDEST PUSH2 0x626 DUP9 DUP3 DUP10 ADD PUSH2 0x373 JUMP JUMPDEST SWAP2 POP POP SWAP3 SWAP6 POP SWAP3 SWAP6 SWAP1 SWAP4 POP JUMP JUMPDEST PUSH1 0x0 PUSH2 0x63F DUP4 DUP4 PUSH2 0x97C JUMP JUMPDEST PUSH1 0x20 DUP4 ADD SWAP1 POP SWAP3 SWAP2 POP POP JUMP JUMPDEST PUSH2 0x654 DUP2 PUSH2 0xC8B JUMP JUMPDEST DUP3 MSTORE POP POP JUMP JUMPDEST PUSH2 0x66B PUSH2 0x666 DUP3 PUSH2 0xC8B JUMP JUMPDEST PUSH2 0xD4C JUMP JUMPDEST DUP3 MSTORE POP POP JUMP JUMPDEST PUSH1 0x0 PUSH2 0x67D DUP4 DUP6 PUSH2 0xB76 JUMP JUMPDEST SWAP4 POP PUSH32 0x7FFFFFFFFFFFFFFFFFFFFFFFFFFFFFFFFFFFFFFFFFFFFFFFFFFFFFFFFFFFFFF DUP4 GT ISZERO PUSH2 0x6B0 JUMPI PUSH2 0x6AF PUSH2 0xDDB JUMP JUMPDEST JUMPDEST PUSH1 0x20 DUP4 MUL SWAP3 POP PUSH2 0x6C1 DUP4 DUP6 DUP5 PUSH2 0xCD9 JUMP JUMPDEST DUP3 DUP5 ADD SWAP1 POP SWAP4 SWAP3 POP POP POP JUMP JUMPDEST PUSH1 0x0 PUSH2 0x6D9 DUP4 DUP6 PUSH2 0xB87 JUMP JUMPDEST SWAP4 POP PUSH32 0x7FFFFFFFFFFFFFFFFFFFFFFFFFFFFFFFFFFFFFFFFFFFFFFFFFFFFFFFFFFFFFF DUP4 GT ISZERO PUSH2 0x70C JUMPI PUSH2 0x70B PUSH2 0xDDB JUMP JUMPDEST JUMPDEST PUSH1 0x20 DUP4 MUL SWAP3 POP PUSH2 0x71D DUP4 DUP6 DUP5 PUSH2 0xCD9 JUMP JUMPDEST DUP3 DUP5 ADD SWAP1 POP SWAP4 SWAP3 POP POP POP JUMP JUMPDEST PUSH1 0x0 PUSH2 0x735 DUP4 DUP6 PUSH2 0xB98 JUMP JUMPDEST SWAP4 POP PUSH32 0x7FFFFFFFFFFFFFFFFFFFFFFFFFFFFFFFFFFFFFFFFFFFFFFFFFFFFFFFFFFFFFF DUP4 GT ISZERO PUSH2 0x768 JUMPI PUSH2 0x767 PUSH2 0xDDB JUMP JUMPDEST JUMPDEST PUSH1 0x20 DUP4 MUL SWAP3 POP PUSH2 0x779 DUP4 DUP6 DUP5 PUSH2 0xCD9 JUMP JUMPDEST DUP3 DUP5 ADD SWAP1 POP SWAP4 SWAP3 POP POP POP JUMP JUMPDEST PUSH1 0x0 PUSH2 0x790 DUP3 PUSH2 0xB48 JUMP JUMPDEST PUSH2 0x79A DUP2 DUP6 PUSH2 0xB76 JUMP JUMPDEST SWAP4 POP PUSH2 0x7A5 DUP4 PUSH2 0xB38 JUMP JUMPDEST DUP1 PUSH1 0x0 JUMPDEST DUP4 DUP2 LT ISZERO PUSH2 0x7D6 JUMPI DUP2 MLOAD PUSH2 0x7BD DUP9 DUP3 PUSH2 0x633 JUMP JUMPDEST SWAP8 POP PUSH2 0x7C8 DUP4 PUSH2 0xB69 JUMP JUMPDEST SWAP3 POP POP PUSH1 0x1 DUP2 ADD SWAP1 POP PUSH2 0x7A9 JUMP JUMPDEST POP DUP6 SWAP4 POP POP POP POP SWAP3 SWAP2 POP POP JUMP JUMPDEST PUSH1 0x0 PUSH2 0x7EE DUP3 PUSH2 0xB48 JUMP JUMPDEST PUSH2 0x7F8 DUP2 DUP6 PUSH2 0xB87 JUMP JUMPDEST SWAP4 POP PUSH2 0x803 DUP4 PUSH2 0xB38 JUMP JUMPDEST DUP1 PUSH1 0x0 JUMPDEST DUP4 DUP2 LT ISZERO PUSH2 0x834 JUMPI DUP2 MLOAD PUSH2 0x81B DUP9 DUP3 PUSH2 0x633 JUMP JUMPDEST SWAP8 POP PUSH2 0x826 DUP4 PUSH2 0xB69 JUMP JUMPDEST SWAP3 POP POP PUSH1 0x1 DUP2 ADD SWAP1 POP PUSH2 0x807 JUMP JUMPDEST POP DUP6 SWAP4 POP POP POP POP SWAP3 SWAP2 POP POP JUMP JUMPDEST PUSH1 0x0 PUSH2 0x84C DUP3 PUSH2 0xB53 JUMP JUMPDEST PUSH2 0x856 DUP2 DUP6 PUSH2 0xBA3 JUMP JUMPDEST SWAP4 POP PUSH2 0x866 DUP2 DUP6 PUSH1 0x20 DUP7 ADD PUSH2 0xCE8 JUMP JUMPDEST PUSH2 0x86F DUP2 PUSH2 0xDEA JUMP JUMPDEST DUP5 ADD SWAP2 POP POP SWAP3 SWAP2 POP POP JUMP JUMPDEST PUSH1 0x0 PUSH2 0x886 DUP4 DUP6 PUSH2 0xBB4 JUMP JUMPDEST SWAP4 POP PUSH2 0x893 DUP4 DUP6 DUP5 PUSH2 0xCD9 JUMP JUMPDEST PUSH2 0x89C DUP4 PUSH2 0xDEA JUMP JUMPDEST DUP5 ADD SWAP1 POP SWAP4 SWAP3 POP POP POP JUMP JUMPDEST PUSH1 0x0 PUSH2 0x8B2 DUP3 PUSH2 0xB5E JUMP JUMPDEST PUSH2 0x8BC DUP2 DUP6 PUSH2 0xBB4 JUMP JUMPDEST SWAP4 POP PUSH2 0x8CC DUP2 DUP6 PUSH1 0x20 DUP7 ADD PUSH2 0xCE8 JUMP JUMPDEST PUSH2 0x8D5 DUP2 PUSH2 0xDEA JUMP JUMPDEST DUP5 ADD SWAP2 POP POP SWAP3 SWAP2 POP POP JUMP JUMPDEST PUSH1 0x0 PUSH1 0x40 DUP4 ADD PUSH2 0x8F3 PUSH1 0x0 DUP5 ADD DUP5 PUSH2 0xC28 JUMP JUMPDEST DUP6 DUP4 SUB PUSH1 0x0 DUP8 ADD MSTORE PUSH2 0x906 DUP4 DUP3 DUP5 PUSH2 0x87A JUMP JUMPDEST SWAP3 POP POP POP PUSH2 0x917 PUSH1 0x20 DUP5 ADD DUP5 PUSH2 0xBC5 JUMP JUMPDEST DUP6 DUP4 SUB PUSH1 0x20 DUP8 ADD MSTORE PUSH2 0x92A DUP4 DUP3 DUP5 PUSH2 0x671 JUMP JUMPDEST SWAP3 POP POP POP DUP1 SWAP2 POP POP SWAP3 SWAP2 POP POP JUMP JUMPDEST PUSH1 0x0 PUSH1 0x40 DUP4 ADD PUSH1 0x0 DUP4 ADD MLOAD DUP5 DUP3 SUB PUSH1 0x0 DUP7 ADD MSTORE PUSH2 0x955 DUP3 DUP3 PUSH2 0x8A7 JUMP JUMPDEST SWAP2 POP POP PUSH1 0x20 DUP4 ADD MLOAD DUP5 DUP3 SUB PUSH1 0x20 DUP7 ADD MSTORE PUSH2 0x96F DUP3 DUP3 PUSH2 0x785 JUMP JUMPDEST SWAP2 POP POP DUP1 SWAP2 POP POP SWAP3 SWAP2 POP POP JUMP JUMPDEST PUSH2 0x985 DUP2 PUSH2 0xCCF JUMP JUMPDEST DUP3 MSTORE POP POP JUMP JUMPDEST PUSH2 0x994 DUP2 PUSH2 0xCCF JUMP JUMPDEST DUP3 MSTORE POP POP JUMP JUMPDEST PUSH2 0x9AB PUSH2 0x9A6 DUP3 PUSH2 0xCCF JUMP JUMPDEST PUSH2 0xD70 JUMP JUMPDEST DUP3 MSTORE POP POP JUMP JUMPDEST PUSH1 0x0 PUSH2 0x9BD DUP3 DUP8 PUSH2 0x99A JUMP JUMPDEST PUSH1 0x20 DUP3 ADD SWAP2 POP PUSH2 0x9CD DUP3 DUP7 PUSH2 0x65A JUMP JUMPDEST PUSH1 0x14 DUP3 ADD SWAP2 POP PUSH2 0x9DE DUP3 DUP5 DUP7 PUSH2 0x729 JUMP JUMPDEST SWAP2 POP DUP2 SWAP1 POP SWAP6 SWAP5 POP POP POP POP POP JUMP JUMPDEST PUSH1 0x0 PUSH1 0x20 DUP3 ADD SWAP1 POP DUP2 DUP2 SUB PUSH1 0x0 DUP4 ADD MSTORE PUSH2 0xA06 DUP2 DUP5 PUSH2 0x841 JUMP JUMPDEST SWAP1 POP SWAP3 SWAP2 POP POP JUMP JUMPDEST PUSH1 0x0 PUSH1 0x80 DUP3 ADD SWAP1 POP PUSH2 0xA23 PUSH1 0x0 DUP4 ADD DUP9 PUSH2 0x98B JUMP JUMPDEST PUSH2 0xA30 PUSH1 0x20 DUP4 ADD DUP8 PUSH2 0x64B JUMP JUMPDEST DUP2 DUP2 SUB PUSH1 0x40 DUP4 ADD MSTORE PUSH2 0xA43 DUP2 DUP6 DUP8 PUSH2 0x6CD JUMP JUMPDEST SWAP1 POP DUP2 DUP2 SUB PUSH1 0x60 DUP4 ADD MSTORE PUSH2 0xA57 DUP2 DUP5 PUSH2 0x8E0 JUMP JUMPDEST SWAP1 POP SWAP7 SWAP6 POP POP POP POP POP POP JUMP JUMPDEST PUSH1 0x0 PUSH1 0x80 DUP3 ADD SWAP1 POP PUSH2 0xA78 PUSH1 0x0 DUP4 ADD DUP8 PUSH2 0x98B JUMP JUMPDEST PUSH2 0xA85 PUSH1 0x20 DUP4 ADD DUP7 PUSH2 0x64B JUMP JUMPDEST DUP2 DUP2 SUB PUSH1 0x40 DUP4 ADD MSTORE PUSH2 0xA97 DUP2 DUP6 PUSH2 0x7E3 JUMP JUMPDEST SWAP1 POP DUP2 DUP2 SUB PUSH1 0x60 DUP4 ADD MSTORE PUSH2 0xAAB DUP2 DUP5 PUSH2 0x938 JUMP JUMPDEST SWAP1 POP SWAP6 SWAP5 POP POP POP POP POP JUMP JUMPDEST PUSH1 0x0 PUSH2 0xAC0 PUSH2 0xAD1 JUMP JUMPDEST SWAP1 POP PUSH2 0xACC DUP3 DUP3 PUSH2 0xD1B JUMP JUMPDEST SWAP2 SWAP1 POP JUMP JUMPDEST PUSH1 0x0 PUSH1 0x40 MLOAD SWAP1 POP SWAP1 JUMP JUMPDEST PUSH1 0x0 PUSH8 0xFFFFFFFFFFFFFFFF DUP3 GT ISZERO PUSH2 0xAF6 JUMPI PUSH2 0xAF5 PUSH2 0xD7A JUMP JUMPDEST JUMPDEST PUSH1 0x20 DUP3 MUL SWAP1 POP PUSH1 0x20 DUP2 ADD SWAP1 POP SWAP2 SWAP1 POP JUMP JUMPDEST PUSH1 0x0 PUSH8 0xFFFFFFFFFFFFFFFF DUP3 GT ISZERO PUSH2 0xB22 JUMPI PUSH2 0xB21 PUSH2 0xD7A JUMP JUMPDEST JUMPDEST PUSH2 0xB2B DUP3 PUSH2 0xDEA JUMP JUMPDEST SWAP1 POP PUSH1 0x20 DUP2 ADD SWAP1 POP SWAP2 SWAP1 POP JUMP JUMPDEST PUSH1 0x0 DUP2 SWAP1 POP PUSH1 0x20 DUP3 ADD SWAP1 POP SWAP2 SWAP1 POP JUMP JUMPDEST PUSH1 0x0 DUP2 MLOAD SWAP1 POP SWAP2 SWAP1 POP JUMP JUMPDEST PUSH1 0x0 DUP2 MLOAD SWAP1 POP SWAP2 SWAP1 POP JUMP JUMPDEST PUSH1 0x0 DUP2 MLOAD SWAP1 POP SWAP2 SWAP1 POP JUMP JUMPDEST PUSH1 0x0 PUSH1 0x20 DUP3 ADD SWAP1 POP SWAP2 SWAP1 POP JUMP JUMPDEST PUSH1 0x0 DUP3 DUP3 MSTORE PUSH1 0x20 DUP3 ADD SWAP1 POP SWAP3 SWAP2 POP POP JUMP JUMPDEST PUSH1 0x0 DUP3 DUP3 MSTORE PUSH1 0x20 DUP3 ADD SWAP1 POP SWAP3 SWAP2 POP POP JUMP JUMPDEST PUSH1 0x0 DUP2 SWAP1 POP SWAP3 SWAP2 POP POP JUMP JUMPDEST PUSH1 0x0 DUP3 DUP3 MSTORE PUSH1 0x20 DUP3 ADD SWAP1 POP SWAP3 SWAP2 POP POP JUMP JUMPDEST PUSH1 0x0 DUP3 DUP3 MSTORE PUSH1 0x20 DUP3 ADD SWAP1 POP SWAP3 SWAP2 POP POP JUMP JUMPDEST PUSH1 0x0 DUP1 DUP4 CALLDATALOAD PUSH1 0x1 PUSH1 0x20 SUB DUP5 CALLDATASIZE SUB SUB DUP2 SLT PUSH2 0xBE2 JUMPI PUSH2 0xBE1 PUSH2 0xDE0 JUMP JUMPDEST JUMPDEST DUP4 DUP2 ADD SWAP3 POP DUP3 CALLDATALOAD SWAP2 POP PUSH1 0x20 DUP4 ADD SWAP3 POP PUSH8 0xFFFFFFFFFFFFFFFF DUP3 GT ISZERO PUSH2 0xC0A JUMPI PUSH2 0xC09 PUSH2 0xDA9 JUMP JUMPDEST JUMPDEST PUSH1 0x20 DUP3 MUL CALLDATASIZE SUB DUP5 SGT ISZERO PUSH2 0xC20 JUMPI PUSH2 0xC1F PUSH2 0xDC2 JUMP JUMPDEST JUMPDEST POP SWAP3 POP SWAP3 SWAP1 POP JUMP JUMPDEST PUSH1 0x0 DUP1 DUP4 CALLDATALOAD PUSH1 0x1 PUSH1 0x20 SUB DUP5 CALLDATASIZE SUB SUB DUP2 SLT PUSH2 0xC45 JUMPI PUSH2 0xC44 PUSH2 0xDE0 JUMP JUMPDEST JUMPDEST DUP4 DUP2 ADD SWAP3 POP DUP3 CALLDATALOAD SWAP2 POP PUSH1 0x20 DUP4 ADD SWAP3 POP PUSH8 0xFFFFFFFFFFFFFFFF DUP3 GT ISZERO PUSH2 0xC6D JUMPI PUSH2 0xC6C PUSH2 0xDA9 JUMP JUMPDEST JUMPDEST PUSH1 0x1 DUP3 MUL CALLDATASIZE SUB DUP5 SGT ISZERO PUSH2 0xC83 JUMPI PUSH2 0xC82 PUSH2 0xDC2 JUMP JUMPDEST JUMPDEST POP SWAP3 POP SWAP3 SWAP1 POP JUMP JUMPDEST PUSH1 0x0 PUSH2 0xC96 DUP3 PUSH2 0xCAF JUMP JUMPDEST SWAP1 POP SWAP2 SWAP1 POP JUMP JUMPDEST PUSH1 0x0 PUSH2 0xCA8 DUP3 PUSH2 0xCAF JUMP JUMPDEST SWAP1 POP SWAP2 SWAP1 POP JUMP JUMPDEST PUSH1 0x0 PUSH20 0xFFFFFFFFFFFFFFFFFFFFFFFFFFFFFFFFFFFFFFFF DUP3 AND SWAP1 POP SWAP2 SWAP1 POP JUMP JUMPDEST PUSH1 0x0 DUP2 SWAP1 POP SWAP2 SWAP1 POP JUMP JUMPDEST DUP3 DUP2 DUP4 CALLDATACOPY PUSH1 0x0 DUP4 DUP4 ADD MSTORE POP POP POP JUMP JUMPDEST PUSH1 0x0 JUMPDEST DUP4 DUP2 LT ISZERO PUSH2 0xD06 JUMPI DUP1 DUP3 ADD MLOAD DUP2 DUP5 ADD MSTORE PUSH1 0x20 DUP2 ADD SWAP1 POP PUSH2 0xCEB JUMP JUMPDEST DUP4 DUP2 GT ISZERO PUSH2 0xD15 JUMPI PUSH1 0x0 DUP5 DUP5 ADD MSTORE JUMPDEST POP POP POP POP JUMP JUMPDEST PUSH2 0xD24 DUP3 PUSH2 0xDEA JUMP JUMPDEST DUP2 ADD DUP2 DUP2 LT PUSH8 0xFFFFFFFFFFFFFFFF DUP3 GT OR ISZERO PUSH2 0xD43 JUMPI PUSH2 0xD42 PUSH2 0xD7A JUMP JUMPDEST JUMPDEST DUP1 PUSH1 0x40 MSTORE POP POP POP JUMP JUMPDEST PUSH1 0x0 PUSH2 0xD57 DUP3 PUSH2 0xD5E JUMP JUMPDEST SWAP1 POP SWAP2 SWAP1 POP JUMP JUMPDEST PUSH1 0x0 PUSH2 0xD69 DUP3 PUSH2 0xDFB JUMP JUMPDEST SWAP1 POP SWAP2 SWAP1 POP JUMP JUMPDEST PUSH1 0x0 DUP2 SWAP1 POP SWAP2 SWAP1 POP JUMP JUMPDEST PUSH32 0x4E487B7100000000000000000000000000000000000000000000000000000000 PUSH1 0x0 MSTORE PUSH1 0x41 PUSH1 0x4 MSTORE PUSH1 0x24 PUSH1 0x0 REVERT JUMPDEST PUSH1 0x0 DUP1 REVERT JUMPDEST PUSH1 0x0 DUP1 REVERT JUMPDEST PUSH1 0x0 DUP1 REVERT JUMPDEST PUSH1 0x0 DUP1 REVERT JUMPDEST PUSH1 0x0 DUP1 REVERT JUMPDEST PUSH1 0x0 DUP1 REVERT JUMPDEST PUSH1 0x0 DUP1 REVERT JUMPDEST PUSH1 0x0 DUP1 REVERT JUMPDEST PUSH1 0x0 DUP1 REVERT JUMPDEST PUSH1 0x0 DUP1 REVERT JUMPDEST PUSH1 0x0 DUP1 REVERT JUMPDEST PUSH1 0x0 DUP1 REVERT JUMPDEST PUSH1 0x0 DUP1 REVERT JUMPDEST PUSH1 0x0 PUSH1 0x1F NOT PUSH1 0x1F DUP4 ADD AND SWAP1 POP SWAP2 SWAP1 POP JUMP JUMPDEST PUSH1 0x0 DUP2 PUSH1 0x60 SHL SWAP1 POP SWAP2 SWAP1 POP JUMP JUMPDEST PUSH2 0xE11 DUP2 PUSH2 0xC8B JUMP JUMPDEST DUP2 EQ PUSH2 0xE1C JUMPI PUSH1 0x0 DUP1 REVERT JUMPDEST POP JUMP JUMPDEST PUSH2 0xE28 DUP2 PUSH2 0xC9D JUMP JUMPDEST DUP2 EQ PUSH2 0xE33 JUMPI PUSH1 0x0 DUP1 REVERT JUMPDEST POP JUMP JUMPDEST PUSH2 0xE3F DUP2 PUSH2 0xCCF JUMP JUMPDEST DUP2 EQ PUSH2 0xE4A JUMPI PUSH1 0x0 DUP1 REVERT JUMPDEST POP JUMP INVALID LOG2 PUSH5 0x6970667358 0x22 SLT KECCAK256 0x24 0xE7 0x27 SMOD PUSH11 0x6366CBCA27F5DE09F15A8F 0xE1 DUP4 DIV PUSH11 0xADE27909E93B669D9E2E73 PUSH11 0x64736F6C63430008070033 "
				},
				"gasEstimates": {
					"creation": {
						"codeDepositCost": "743000",
						"executionCost": "779",
						"totalCost": "743779"
					},
					"external": {
						"decode(bytes)": "infinite",
						"encode(uint256,address,uint256[],(string,uint256[]))": "infinite",
						"encodePacked(uint256,address,uint256[])": "infinite"
					}
				},
				"methodIdentifiers": {
					"decode(bytes)": "e5c5e9a3",
					"encode(uint256,address,uint256[],(string,uint256[]))": "b9ff2f08",
					"encodePacked(uint256,address,uint256[])": "eacc0e01"
				}
			},
			"storageLayout": {
				"storage": [],
				"types": null
			},
			"userdoc": {
				"kind": "user",
				"methods": {},
				"version": 1
			}
		}
	}
}