{
	"ArrayTest4.sol": {
		"Array4": {
			"abi": [
				{
					"inputs": [
						{
							"internalType": "uint256",
							"name": "",
							"type": "uint256"
						}
					],
					"name": "numbers",
					"outputs": [
						{
							"internalType": "uint256",
							"name": "",
							"type": "uint256"
						}
					],
					"stateMutability": "view",
					"type": "function"
				},
				{
					"inputs": [
						{
							"internalType": "uint256",
							"name": "index",
							"type": "uint256"
						}
					],
					"name": "remove1",
					"outputs": [],
					"stateMutability": "nonpayable",
					"type": "function"
				},
				{
					"inputs": [
						{
							"internalType": "uint256",
							"name": "index",
							"type": "uint256"
						}
					],
					"name": "remove2",
					"outputs": [],
					"stateMutability": "nonpayable",
					"type": "function"
				},
				{
					"inputs": [],
					"name": "test1",
					"outputs": [],
					"stateMutability": "nonpayable",
					"type": "function"
				}
			],
			"devdoc": {
				"kind": "dev",
				"methods": {},
				"version": 1
			},
			"evm": {
				"assembly": "    /* \"ArrayTest4.sol\":75:1945  contract Array4{... */\n  mstore(0x40, 0x80)\n  callvalue\n  dup1\n  iszero\n  tag_1\n  jumpi\n  0x00\n  dup1\n  revert\ntag_1:\n  pop\n  dataSize(sub_0)\n  dup1\n  dataOffset(sub_0)\n  0x00\n  codecopy\n  0x00\n  return\nstop\n\nsub_0: assembly {\n        /* \"ArrayTest4.sol\":75:1945  contract Array4{... */\n      mstore(0x40, 0x80)\n      callvalue\n      dup1\n      iszero\n      tag_1\n      jumpi\n      0x00\n      dup1\n      revert\n    tag_1:\n      pop\n      jumpi(tag_2, lt(calldatasize, 0x04))\n      shr(0xe0, calldataload(0x00))\n      dup1\n      0x670ea637\n      eq\n      tag_3\n      jumpi\n      dup1\n      0x6b59084d\n      eq\n      tag_4\n      jumpi\n      dup1\n      0xd39fa233\n      eq\n      tag_5\n      jumpi\n      dup1\n      0xe91e5843\n      eq\n      tag_6\n      jumpi\n    tag_2:\n      0x00\n      dup1\n      revert\n        /* \"ArrayTest4.sol\":738:981  function remove1(uint index) public{... */\n    tag_3:\n      tag_7\n      0x04\n      dup1\n      calldatasize\n      sub\n      dup2\n      add\n      swap1\n      tag_8\n      swap2\n      swap1\n      tag_9\n      jump\t// in\n    tag_8:\n      tag_10\n      jump\t// in\n    tag_7:\n      stop\n        /* \"ArrayTest4.sol\":1356:1629  function test1() external{... */\n    tag_4:\n      tag_11\n      tag_12\n      jump\t// in\n    tag_11:\n      stop\n        /* \"ArrayTest4.sol\":101:122  uint[] public numbers */\n    tag_5:\n      tag_13\n      0x04\n      dup1\n      calldatasize\n      sub\n      dup2\n      add\n      swap1\n      tag_14\n      swap2\n      swap1\n      tag_9\n      jump\t// in\n    tag_14:\n      tag_15\n      jump\t// in\n    tag_13:\n      mload(0x40)\n      tag_16\n      swap2\n      swap1\n      tag_17\n      jump\t// in\n    tag_16:\n      mload(0x40)\n      dup1\n      swap2\n      sub\n      swap1\n      return\n        /* \"ArrayTest4.sol\":1037:1350  function remove2(uint index) public{... */\n    tag_6:\n      tag_18\n      0x04\n      dup1\n      calldatasize\n      sub\n      dup2\n      add\n      swap1\n      tag_19\n      swap2\n      swap1\n      tag_9\n      jump\t// in\n    tag_19:\n      tag_20\n      jump\t// in\n    tag_18:\n      stop\n        /* \"ArrayTest4.sol\":738:981  function remove1(uint index) public{... */\n    tag_10:\n        /* \"ArrayTest4.sol\":783:794  uint length */\n      0x00\n        /* \"ArrayTest4.sol\":797:804  numbers */\n      dup1\n        /* \"ArrayTest4.sol\":797:811  numbers.length */\n      dup1\n      sload\n      swap1\n      pop\n        /* \"ArrayTest4.sol\":783:811  uint length = numbers.length */\n      swap1\n      pop\n        /* \"ArrayTest4.sol\":842:843  1 */\n      0x01\n        /* \"ArrayTest4.sol\":833:839  length */\n      dup2\n        /* \"ArrayTest4.sol\":833:843  length - 1 */\n      tag_22\n      swap2\n      swap1\n      tag_23\n      jump\t// in\n    tag_22:\n        /* \"ArrayTest4.sol\":824:829  index */\n      dup3\n        /* \"ArrayTest4.sol\":824:843  index == length - 1 */\n      sub\n        /* \"ArrayTest4.sol\":821:975  if(index == length - 1){... */\n      tag_24\n      jumpi\n        /* \"ArrayTest4.sol\":858:865  numbers */\n      0x00\n        /* \"ArrayTest4.sol\":858:871  numbers.pop() */\n      dup1\n      sload\n      dup1\n      tag_25\n      jumpi\n      tag_26\n      tag_27\n      jump\t// in\n    tag_26:\n    tag_25:\n      0x01\n      swap1\n      sub\n      dup2\n      dup2\n      swap1\n      0x00\n      mstore\n      keccak256(0x00, 0x20)\n      add\n      0x00\n      swap1\n      sstore\n      swap1\n      sstore\n        /* \"ArrayTest4.sol\":821:975  if(index == length - 1){... */\n      jump(tag_29)\n    tag_24:\n        /* \"ArrayTest4.sol\":918:925  numbers */\n      0x00\n        /* \"ArrayTest4.sol\":935:936  1 */\n      0x01\n        /* \"ArrayTest4.sol\":926:932  length */\n      dup3\n        /* \"ArrayTest4.sol\":926:936  length - 1 */\n      tag_30\n      swap2\n      swap1\n      tag_23\n      jump\t// in\n    tag_30:\n        /* \"ArrayTest4.sol\":918:937  numbers[length - 1] */\n      dup2\n      sload\n      dup2\n      lt\n      tag_31\n      jumpi\n      tag_32\n      tag_33\n      jump\t// in\n    tag_32:\n    tag_31:\n      swap1\n      0x00\n      mstore\n      keccak256(0x00, 0x20)\n      add\n      sload\n        /* \"ArrayTest4.sol\":901:908  numbers */\n      0x00\n        /* \"ArrayTest4.sol\":909:914  index */\n      dup4\n        /* \"ArrayTest4.sol\":901:915  numbers[index] */\n      dup2\n      sload\n      dup2\n      lt\n      tag_35\n      jumpi\n      tag_36\n      tag_33\n      jump\t// in\n    tag_36:\n    tag_35:\n      swap1\n      0x00\n      mstore\n      keccak256(0x00, 0x20)\n      add\n        /* \"ArrayTest4.sol\":901:937  numbers[index] = numbers[length - 1] */\n      dup2\n      swap1\n      sstore\n      pop\n        /* \"ArrayTest4.sol\":951:958  numbers */\n      0x00\n        /* \"ArrayTest4.sol\":951:964  numbers.pop() */\n      dup1\n      sload\n      dup1\n      tag_38\n      jumpi\n      tag_39\n      tag_27\n      jump\t// in\n    tag_39:\n    tag_38:\n      0x01\n      swap1\n      sub\n      dup2\n      dup2\n      swap1\n      0x00\n      mstore\n      keccak256(0x00, 0x20)\n      add\n      0x00\n      swap1\n      sstore\n      swap1\n      sstore\n        /* \"ArrayTest4.sol\":821:975  if(index == length - 1){... */\n    tag_29:\n        /* \"ArrayTest4.sol\":773:981  {... */\n      pop\n        /* \"ArrayTest4.sol\":738:981  function remove1(uint index) public{... */\n      pop\n      jump\t// out\n        /* \"ArrayTest4.sol\":1356:1629  function test1() external{... */\n    tag_12:\n        /* \"ArrayTest4.sol\":1391:1412  numbers = [1,2,3,4,5] */\n      mload(0x40)\n      dup1\n      0xa0\n      add\n      0x40\n      mstore\n      dup1\n        /* \"ArrayTest4.sol\":1402:1403  1 */\n      0x01\n        /* \"ArrayTest4.sol\":1391:1412  numbers = [1,2,3,4,5] */\n      0xff\n      and\n      dup2\n      mstore\n      0x20\n      add\n        /* \"ArrayTest4.sol\":1404:1405  2 */\n      0x02\n        /* \"ArrayTest4.sol\":1391:1412  numbers = [1,2,3,4,5] */\n      0xff\n      and\n      dup2\n      mstore\n      0x20\n      add\n        /* \"ArrayTest4.sol\":1406:1407  3 */\n      0x03\n        /* \"ArrayTest4.sol\":1391:1412  numbers = [1,2,3,4,5] */\n      0xff\n      and\n      dup2\n      mstore\n      0x20\n      add\n        /* \"ArrayTest4.sol\":1408:1409  4 */\n      0x04\n        /* \"ArrayTest4.sol\":1391:1412  numbers = [1,2,3,4,5] */\n      0xff\n      and\n      dup2\n      mstore\n      0x20\n      add\n        /* \"ArrayTest4.sol\":1410:1411  5 */\n      0x05\n        /* \"ArrayTest4.sol\":1391:1412  numbers = [1,2,3,4,5] */\n      0xff\n      and\n      dup2\n      mstore\n      pop\n        /* \"ArrayTest4.sol\":1391:1398  numbers */\n      0x00\n        /* \"ArrayTest4.sol\":1391:1412  numbers = [1,2,3,4,5] */\n      swap1\n      0x05\n      tag_42\n      swap3\n      swap2\n      swap1\n      tag_43\n      jump\t// in\n    tag_42:\n      pop\n        /* \"ArrayTest4.sol\":1422:1432  remove1(2) */\n      tag_44\n        /* \"ArrayTest4.sol\":1430:1431  2 */\n      0x02\n        /* \"ArrayTest4.sol\":1422:1429  remove1 */\n      tag_10\n        /* \"ArrayTest4.sol\":1422:1432  remove1(2) */\n      jump\t// in\n    tag_44:\n        /* \"ArrayTest4.sol\":1488:1489  4 */\n      0x04\n        /* \"ArrayTest4.sol\":1470:1477  numbers */\n      0x00\n        /* \"ArrayTest4.sol\":1470:1484  numbers.length */\n      dup1\n      sload\n      swap1\n      pop\n        /* \"ArrayTest4.sol\":1470:1489  numbers.length == 4 */\n      eq\n        /* \"ArrayTest4.sol\":1463:1490  assert(numbers.length == 4) */\n      tag_45\n      jumpi\n      tag_46\n      tag_47\n      jump\t// in\n    tag_46:\n    tag_45:\n        /* \"ArrayTest4.sol\":1521:1522  1 */\n      0x01\n        /* \"ArrayTest4.sol\":1507:1514  numbers */\n      0x00\n        /* \"ArrayTest4.sol\":1515:1516  0 */\n      dup1\n        /* \"ArrayTest4.sol\":1507:1517  numbers[0] */\n      dup2\n      sload\n      dup2\n      lt\n      tag_48\n      jumpi\n      tag_49\n      tag_33\n      jump\t// in\n    tag_49:\n    tag_48:\n      swap1\n      0x00\n      mstore\n      keccak256(0x00, 0x20)\n      add\n      sload\n        /* \"ArrayTest4.sol\":1507:1522  numbers[0] == 1 */\n      eq\n        /* \"ArrayTest4.sol\":1500:1523  assert(numbers[0] == 1) */\n      tag_51\n      jumpi\n      tag_52\n      tag_47\n      jump\t// in\n    tag_52:\n    tag_51:\n        /* \"ArrayTest4.sol\":1554:1555  2 */\n      0x02\n        /* \"ArrayTest4.sol\":1540:1547  numbers */\n      0x00\n        /* \"ArrayTest4.sol\":1548:1549  1 */\n      0x01\n        /* \"ArrayTest4.sol\":1540:1550  numbers[1] */\n      dup2\n      sload\n      dup2\n      lt\n      tag_53\n      jumpi\n      tag_54\n      tag_33\n      jump\t// in\n    tag_54:\n    tag_53:\n      swap1\n      0x00\n      mstore\n      keccak256(0x00, 0x20)\n      add\n      sload\n        /* \"ArrayTest4.sol\":1540:1555  numbers[1] == 2 */\n      eq\n        /* \"ArrayTest4.sol\":1533:1556  assert(numbers[1] == 2) */\n      tag_56\n      jumpi\n      tag_57\n      tag_47\n      jump\t// in\n    tag_57:\n    tag_56:\n        /* \"ArrayTest4.sol\":1587:1588  5 */\n      0x05\n        /* \"ArrayTest4.sol\":1573:1580  numbers */\n      0x00\n        /* \"ArrayTest4.sol\":1581:1582  2 */\n      0x02\n        /* \"ArrayTest4.sol\":1573:1583  numbers[2] */\n      dup2\n      sload\n      dup2\n      lt\n      tag_58\n      jumpi\n      tag_59\n      tag_33\n      jump\t// in\n    tag_59:\n    tag_58:\n      swap1\n      0x00\n      mstore\n      keccak256(0x00, 0x20)\n      add\n      sload\n        /* \"ArrayTest4.sol\":1573:1588  numbers[2] == 5 */\n      eq\n        /* \"ArrayTest4.sol\":1566:1589  assert(numbers[2] == 5) */\n      tag_61\n      jumpi\n      tag_62\n      tag_47\n      jump\t// in\n    tag_62:\n    tag_61:\n        /* \"ArrayTest4.sol\":1620:1621  4 */\n      0x04\n        /* \"ArrayTest4.sol\":1606:1613  numbers */\n      0x00\n        /* \"ArrayTest4.sol\":1614:1615  3 */\n      0x03\n        /* \"ArrayTest4.sol\":1606:1616  numbers[3] */\n      dup2\n      sload\n      dup2\n      lt\n      tag_63\n      jumpi\n      tag_64\n      tag_33\n      jump\t// in\n    tag_64:\n    tag_63:\n      swap1\n      0x00\n      mstore\n      keccak256(0x00, 0x20)\n      add\n      sload\n        /* \"ArrayTest4.sol\":1606:1621  numbers[3] == 4 */\n      eq\n        /* \"ArrayTest4.sol\":1599:1622  assert(numbers[3] == 4) */\n      tag_66\n      jumpi\n      tag_67\n      tag_47\n      jump\t// in\n    tag_67:\n    tag_66:\n        /* \"ArrayTest4.sol\":1356:1629  function test1() external{... */\n      jump\t// out\n        /* \"ArrayTest4.sol\":101:122  uint[] public numbers */\n    tag_15:\n      0x00\n      dup2\n      dup2\n      sload\n      dup2\n      lt\n      tag_68\n      jumpi\n      0x00\n      dup1\n      revert\n    tag_68:\n      swap1\n      0x00\n      mstore\n      keccak256(0x00, 0x20)\n      add\n      0x00\n      swap2\n      pop\n      swap1\n      pop\n      sload\n      dup2\n      jump\t// out\n        /* \"ArrayTest4.sol\":1037:1350  function remove2(uint index) public{... */\n    tag_20:\n        /* \"ArrayTest4.sol\":1082:1093  uint length */\n      0x00\n        /* \"ArrayTest4.sol\":1096:1103  numbers */\n      dup1\n        /* \"ArrayTest4.sol\":1096:1110  numbers.length */\n      dup1\n      sload\n      swap1\n      pop\n        /* \"ArrayTest4.sol\":1082:1110  uint length = numbers.length */\n      swap1\n      pop\n        /* \"ArrayTest4.sol\":1142:1143  1 */\n      0x01\n        /* \"ArrayTest4.sol\":1133:1139  length */\n      dup2\n        /* \"ArrayTest4.sol\":1133:1143  length - 1 */\n      tag_71\n      swap2\n      swap1\n      tag_23\n      jump\t// in\n    tag_71:\n        /* \"ArrayTest4.sol\":1123:1128  index */\n      dup3\n        /* \"ArrayTest4.sol\":1123:1143  index  == length - 1 */\n      sub\n        /* \"ArrayTest4.sol\":1120:1344  if(index  == length - 1){... */\n      tag_72\n      jumpi\n        /* \"ArrayTest4.sol\":1158:1165  numbers */\n      0x00\n        /* \"ArrayTest4.sol\":1158:1171  numbers.pop() */\n      dup1\n      sload\n      dup1\n      tag_73\n      jumpi\n      tag_74\n      tag_27\n      jump\t// in\n    tag_74:\n    tag_73:\n      0x01\n      swap1\n      sub\n      dup2\n      dup2\n      swap1\n      0x00\n      mstore\n      keccak256(0x00, 0x20)\n      add\n      0x00\n      swap1\n      sstore\n      swap1\n      sstore\n        /* \"ArrayTest4.sol\":1120:1344  if(index  == length - 1){... */\n      jump(tag_76)\n    tag_72:\n        /* \"ArrayTest4.sol\":1206:1212  uint i */\n      0x00\n        /* \"ArrayTest4.sol\":1215:1220  index */\n      dup3\n        /* \"ArrayTest4.sol\":1206:1220  uint i = index */\n      swap1\n      pop\n        /* \"ArrayTest4.sol\":1201:1307  for (uint i = index; i < numbers.length; i++) {... */\n    tag_77:\n        /* \"ArrayTest4.sol\":1226:1233  numbers */\n      0x00\n        /* \"ArrayTest4.sol\":1226:1240  numbers.length */\n      dup1\n      sload\n      swap1\n      pop\n        /* \"ArrayTest4.sol\":1222:1223  i */\n      dup2\n        /* \"ArrayTest4.sol\":1222:1240  i < numbers.length */\n      lt\n        /* \"ArrayTest4.sol\":1201:1307  for (uint i = index; i < numbers.length; i++) {... */\n      iszero\n      tag_78\n      jumpi\n        /* \"ArrayTest4.sol\":1278:1285  numbers */\n      0x00\n        /* \"ArrayTest4.sol\":1290:1291  1 */\n      0x01\n        /* \"ArrayTest4.sol\":1286:1287  i */\n      dup3\n        /* \"ArrayTest4.sol\":1286:1291  i + 1 */\n      tag_80\n      swap2\n      swap1\n      tag_81\n      jump\t// in\n    tag_80:\n        /* \"ArrayTest4.sol\":1278:1292  numbers[i + 1] */\n      dup2\n      sload\n      dup2\n      lt\n      tag_82\n      jumpi\n      tag_83\n      tag_33\n      jump\t// in\n    tag_83:\n    tag_82:\n      swap1\n      0x00\n      mstore\n      keccak256(0x00, 0x20)\n      add\n      sload\n        /* \"ArrayTest4.sol\":1265:1272  numbers */\n      0x00\n        /* \"ArrayTest4.sol\":1273:1274  i */\n      dup3\n        /* \"ArrayTest4.sol\":1265:1275  numbers[i] */\n      dup2\n      sload\n      dup2\n      lt\n      tag_85\n      jumpi\n      tag_86\n      tag_33\n      jump\t// in\n    tag_86:\n    tag_85:\n      swap1\n      0x00\n      mstore\n      keccak256(0x00, 0x20)\n      add\n        /* \"ArrayTest4.sol\":1265:1292  numbers[i] = numbers[i + 1] */\n      dup2\n      swap1\n      sstore\n      pop\n        /* \"ArrayTest4.sol\":1242:1245  i++ */\n      dup1\n      dup1\n      tag_88\n      swap1\n      tag_89\n      jump\t// in\n    tag_88:\n      swap2\n      pop\n      pop\n        /* \"ArrayTest4.sol\":1201:1307  for (uint i = index; i < numbers.length; i++) {... */\n      jump(tag_77)\n    tag_78:\n      pop\n        /* \"ArrayTest4.sol\":1320:1327  numbers */\n      0x00\n        /* \"ArrayTest4.sol\":1320:1333  numbers.pop() */\n      dup1\n      sload\n      dup1\n      tag_90\n      jumpi\n      tag_91\n      tag_27\n      jump\t// in\n    tag_91:\n    tag_90:\n      0x01\n      swap1\n      sub\n      dup2\n      dup2\n      swap1\n      0x00\n      mstore\n      keccak256(0x00, 0x20)\n      add\n      0x00\n      swap1\n      sstore\n      swap1\n      sstore\n        /* \"ArrayTest4.sol\":1120:1344  if(index  == length - 1){... */\n    tag_76:\n        /* \"ArrayTest4.sol\":1072:1350  {... */\n      pop\n        /* \"ArrayTest4.sol\":1037:1350  function remove2(uint index) public{... */\n      pop\n      jump\t// out\n    tag_43:\n      dup3\n      dup1\n      sload\n      dup3\n      dup3\n      sstore\n      swap1\n      0x00\n      mstore\n      keccak256(0x00, 0x20)\n      swap1\n      dup2\n      add\n      swap3\n      dup3\n      iszero\n      tag_93\n      jumpi\n      swap2\n      0x20\n      mul\n      dup3\n      add\n    tag_94:\n      dup3\n      dup2\n      gt\n      iszero\n      tag_95\n      jumpi\n      dup3\n      mload\n      dup3\n      swap1\n      0xff\n      and\n      swap1\n      sstore\n      swap2\n      0x20\n      add\n      swap2\n      swap1\n      0x01\n      add\n      swap1\n      jump(tag_94)\n    tag_95:\n    tag_93:\n      pop\n      swap1\n      pop\n      tag_96\n      swap2\n      swap1\n      tag_97\n      jump\t// in\n    tag_96:\n      pop\n      swap1\n      jump\t// out\n    tag_97:\n    tag_98:\n      dup1\n      dup3\n      gt\n      iszero\n      tag_99\n      jumpi\n      0x00\n      dup2\n      0x00\n      swap1\n      sstore\n      pop\n      0x01\n      add\n      jump(tag_98)\n    tag_99:\n      pop\n      swap1\n      jump\t// out\n        /* \"#utility.yul\":88:205   */\n    tag_101:\n        /* \"#utility.yul\":197:198   */\n      0x00\n        /* \"#utility.yul\":194:195   */\n      dup1\n        /* \"#utility.yul\":187:199   */\n      revert\n        /* \"#utility.yul\":334:411   */\n    tag_103:\n        /* \"#utility.yul\":371:378   */\n      0x00\n        /* \"#utility.yul\":400:405   */\n      dup2\n        /* \"#utility.yul\":389:405   */\n      swap1\n      pop\n        /* \"#utility.yul\":334:411   */\n      swap2\n      swap1\n      pop\n      jump\t// out\n        /* \"#utility.yul\":417:539   */\n    tag_104:\n        /* \"#utility.yul\":490:514   */\n      tag_114\n        /* \"#utility.yul\":508:513   */\n      dup2\n        /* \"#utility.yul\":490:514   */\n      tag_103\n      jump\t// in\n    tag_114:\n        /* \"#utility.yul\":483:488   */\n      dup2\n        /* \"#utility.yul\":480:515   */\n      eq\n        /* \"#utility.yul\":470:533   */\n      tag_115\n      jumpi\n        /* \"#utility.yul\":529:530   */\n      0x00\n        /* \"#utility.yul\":526:527   */\n      dup1\n        /* \"#utility.yul\":519:531   */\n      revert\n        /* \"#utility.yul\":470:533   */\n    tag_115:\n        /* \"#utility.yul\":417:539   */\n      pop\n      jump\t// out\n        /* \"#utility.yul\":545:684   */\n    tag_105:\n        /* \"#utility.yul\":591:596   */\n      0x00\n        /* \"#utility.yul\":629:635   */\n      dup2\n        /* \"#utility.yul\":616:636   */\n      calldataload\n        /* \"#utility.yul\":607:636   */\n      swap1\n      pop\n        /* \"#utility.yul\":645:678   */\n      tag_117\n        /* \"#utility.yul\":672:677   */\n      dup2\n        /* \"#utility.yul\":645:678   */\n      tag_104\n      jump\t// in\n    tag_117:\n        /* \"#utility.yul\":545:684   */\n      swap3\n      swap2\n      pop\n      pop\n      jump\t// out\n        /* \"#utility.yul\":690:1019   */\n    tag_9:\n        /* \"#utility.yul\":749:755   */\n      0x00\n        /* \"#utility.yul\":798:800   */\n      0x20\n        /* \"#utility.yul\":786:795   */\n      dup3\n        /* \"#utility.yul\":777:784   */\n      dup5\n        /* \"#utility.yul\":773:796   */\n      sub\n        /* \"#utility.yul\":769:801   */\n      slt\n        /* \"#utility.yul\":766:885   */\n      iszero\n      tag_119\n      jumpi\n        /* \"#utility.yul\":804:883   */\n      tag_120\n      tag_101\n      jump\t// in\n    tag_120:\n        /* \"#utility.yul\":766:885   */\n    tag_119:\n        /* \"#utility.yul\":924:925   */\n      0x00\n        /* \"#utility.yul\":949:1002   */\n      tag_121\n        /* \"#utility.yul\":994:1001   */\n      dup5\n        /* \"#utility.yul\":985:991   */\n      dup3\n        /* \"#utility.yul\":974:983   */\n      dup6\n        /* \"#utility.yul\":970:992   */\n      add\n        /* \"#utility.yul\":949:1002   */\n      tag_105\n      jump\t// in\n    tag_121:\n        /* \"#utility.yul\":939:1002   */\n      swap2\n      pop\n        /* \"#utility.yul\":895:1012   */\n      pop\n        /* \"#utility.yul\":690:1019   */\n      swap3\n      swap2\n      pop\n      pop\n      jump\t// out\n        /* \"#utility.yul\":1025:1143   */\n    tag_106:\n        /* \"#utility.yul\":1112:1136   */\n      tag_123\n        /* \"#utility.yul\":1130:1135   */\n      dup2\n        /* \"#utility.yul\":1112:1136   */\n      tag_103\n      jump\t// in\n    tag_123:\n        /* \"#utility.yul\":1107:1110   */\n      dup3\n        /* \"#utility.yul\":1100:1137   */\n      mstore\n        /* \"#utility.yul\":1025:1143   */\n      pop\n      pop\n      jump\t// out\n        /* \"#utility.yul\":1149:1371   */\n    tag_17:\n        /* \"#utility.yul\":1242:1246   */\n      0x00\n        /* \"#utility.yul\":1280:1282   */\n      0x20\n        /* \"#utility.yul\":1269:1278   */\n      dup3\n        /* \"#utility.yul\":1265:1283   */\n      add\n        /* \"#utility.yul\":1257:1283   */\n      swap1\n      pop\n        /* \"#utility.yul\":1293:1364   */\n      tag_125\n        /* \"#utility.yul\":1361:1362   */\n      0x00\n        /* \"#utility.yul\":1350:1359   */\n      dup4\n        /* \"#utility.yul\":1346:1363   */\n      add\n        /* \"#utility.yul\":1337:1343   */\n      dup5\n        /* \"#utility.yul\":1293:1364   */\n      tag_106\n      jump\t// in\n    tag_125:\n        /* \"#utility.yul\":1149:1371   */\n      swap3\n      swap2\n      pop\n      pop\n      jump\t// out\n        /* \"#utility.yul\":1377:1557   */\n    tag_107:\n        /* \"#utility.yul\":1425:1502   */\n      0x4e487b7100000000000000000000000000000000000000000000000000000000\n        /* \"#utility.yul\":1422:1423   */\n      0x00\n        /* \"#utility.yul\":1415:1503   */\n      mstore\n        /* \"#utility.yul\":1522:1526   */\n      0x11\n        /* \"#utility.yul\":1519:1520   */\n      0x04\n        /* \"#utility.yul\":1512:1527   */\n      mstore\n        /* \"#utility.yul\":1546:1550   */\n      0x24\n        /* \"#utility.yul\":1543:1544   */\n      0x00\n        /* \"#utility.yul\":1536:1551   */\n      revert\n        /* \"#utility.yul\":1563:1757   */\n    tag_23:\n        /* \"#utility.yul\":1603:1607   */\n      0x00\n        /* \"#utility.yul\":1623:1643   */\n      tag_128\n        /* \"#utility.yul\":1641:1642   */\n      dup3\n        /* \"#utility.yul\":1623:1643   */\n      tag_103\n      jump\t// in\n    tag_128:\n        /* \"#utility.yul\":1618:1643   */\n      swap2\n      pop\n        /* \"#utility.yul\":1657:1677   */\n      tag_129\n        /* \"#utility.yul\":1675:1676   */\n      dup4\n        /* \"#utility.yul\":1657:1677   */\n      tag_103\n      jump\t// in\n    tag_129:\n        /* \"#utility.yul\":1652:1677   */\n      swap3\n      pop\n        /* \"#utility.yul\":1701:1702   */\n      dup3\n        /* \"#utility.yul\":1698:1699   */\n      dup3\n        /* \"#utility.yul\":1694:1703   */\n      sub\n        /* \"#utility.yul\":1686:1703   */\n      swap1\n      pop\n        /* \"#utility.yul\":1725:1726   */\n      dup2\n        /* \"#utility.yul\":1719:1723   */\n      dup2\n        /* \"#utility.yul\":1716:1727   */\n      gt\n        /* \"#utility.yul\":1713:1750   */\n      iszero\n      tag_130\n      jumpi\n        /* \"#utility.yul\":1730:1748   */\n      tag_131\n      tag_107\n      jump\t// in\n    tag_131:\n        /* \"#utility.yul\":1713:1750   */\n    tag_130:\n        /* \"#utility.yul\":1563:1757   */\n      swap3\n      swap2\n      pop\n      pop\n      jump\t// out\n        /* \"#utility.yul\":1763:1943   */\n    tag_27:\n        /* \"#utility.yul\":1811:1888   */\n      0x4e487b7100000000000000000000000000000000000000000000000000000000\n        /* \"#utility.yul\":1808:1809   */\n      0x00\n        /* \"#utility.yul\":1801:1889   */\n      mstore\n        /* \"#utility.yul\":1908:1912   */\n      0x31\n        /* \"#utility.yul\":1905:1906   */\n      0x04\n        /* \"#utility.yul\":1898:1913   */\n      mstore\n        /* \"#utility.yul\":1932:1936   */\n      0x24\n        /* \"#utility.yul\":1929:1930   */\n      0x00\n        /* \"#utility.yul\":1922:1937   */\n      revert\n        /* \"#utility.yul\":1949:2129   */\n    tag_33:\n        /* \"#utility.yul\":1997:2074   */\n      0x4e487b7100000000000000000000000000000000000000000000000000000000\n        /* \"#utility.yul\":1994:1995   */\n      0x00\n        /* \"#utility.yul\":1987:2075   */\n      mstore\n        /* \"#utility.yul\":2094:2098   */\n      0x32\n        /* \"#utility.yul\":2091:2092   */\n      0x04\n        /* \"#utility.yul\":2084:2099   */\n      mstore\n        /* \"#utility.yul\":2118:2122   */\n      0x24\n        /* \"#utility.yul\":2115:2116   */\n      0x00\n        /* \"#utility.yul\":2108:2123   */\n      revert\n        /* \"#utility.yul\":2135:2315   */\n    tag_47:\n        /* \"#utility.yul\":2183:2260   */\n      0x4e487b7100000000000000000000000000000000000000000000000000000000\n        /* \"#utility.yul\":2180:2181   */\n      0x00\n        /* \"#utility.yul\":2173:2261   */\n      mstore\n        /* \"#utility.yul\":2280:2284   */\n      0x01\n        /* \"#utility.yul\":2277:2278   */\n      0x04\n        /* \"#utility.yul\":2270:2285   */\n      mstore\n        /* \"#utility.yul\":2304:2308   */\n      0x24\n        /* \"#utility.yul\":2301:2302   */\n      0x00\n        /* \"#utility.yul\":2294:2309   */\n      revert\n        /* \"#utility.yul\":2321:2512   */\n    tag_81:\n        /* \"#utility.yul\":2361:2364   */\n      0x00\n        /* \"#utility.yul\":2380:2400   */\n      tag_136\n        /* \"#utility.yul\":2398:2399   */\n      dup3\n        /* \"#utility.yul\":2380:2400   */\n      tag_103\n      jump\t// in\n    tag_136:\n        /* \"#utility.yul\":2375:2400   */\n      swap2\n      pop\n        /* \"#utility.yul\":2414:2434   */\n      tag_137\n        /* \"#utility.yul\":2432:2433   */\n      dup4\n        /* \"#utility.yul\":2414:2434   */\n      tag_103\n      jump\t// in\n    tag_137:\n        /* \"#utility.yul\":2409:2434   */\n      swap3\n      pop\n        /* \"#utility.yul\":2457:2458   */\n      dup3\n        /* \"#utility.yul\":2454:2455   */\n      dup3\n        /* \"#utility.yul\":2450:2459   */\n      add\n        /* \"#utility.yul\":2443:2459   */\n      swap1\n      pop\n        /* \"#utility.yul\":2478:2481   */\n      dup1\n        /* \"#utility.yul\":2475:2476   */\n      dup3\n        /* \"#utility.yul\":2472:2482   */\n      gt\n        /* \"#utility.yul\":2469:2505   */\n      iszero\n      tag_138\n      jumpi\n        /* \"#utility.yul\":2485:2503   */\n      tag_139\n      tag_107\n      jump\t// in\n    tag_139:\n        /* \"#utility.yul\":2469:2505   */\n    tag_138:\n        /* \"#utility.yul\":2321:2512   */\n      swap3\n      swap2\n      pop\n      pop\n      jump\t// out\n        /* \"#utility.yul\":2518:2751   */\n    tag_89:\n        /* \"#utility.yul\":2557:2560   */\n      0x00\n        /* \"#utility.yul\":2580:2604   */\n      tag_141\n        /* \"#utility.yul\":2598:2603   */\n      dup3\n        /* \"#utility.yul\":2580:2604   */\n      tag_103\n      jump\t// in\n    tag_141:\n        /* \"#utility.yul\":2571:2604   */\n      swap2\n      pop\n        /* \"#utility.yul\":2626:2692   */\n      0xffffffffffffffffffffffffffffffffffffffffffffffffffffffffffffffff\n        /* \"#utility.yul\":2619:2624   */\n      dup3\n        /* \"#utility.yul\":2616:2693   */\n      sub\n        /* \"#utility.yul\":2613:2716   */\n      tag_142\n      jumpi\n        /* \"#utility.yul\":2696:2714   */\n      tag_143\n      tag_107\n      jump\t// in\n    tag_143:\n        /* \"#utility.yul\":2613:2716   */\n    tag_142:\n        /* \"#utility.yul\":2743:2744   */\n      0x01\n        /* \"#utility.yul\":2736:2741   */\n      dup3\n        /* \"#utility.yul\":2732:2745   */\n      add\n        /* \"#utility.yul\":2725:2745   */\n      swap1\n      pop\n        /* \"#utility.yul\":2518:2751   */\n      swap2\n      swap1\n      pop\n      jump\t// out\n\n    auxdata: 0xa2646970667358221220822f997bb8a857724fac3b6190a83da9bdf9e786727f6cb8be7eeb5728f5380864736f6c63430008110033\n}\n",
				"bytecode": {
					"linkReferences": {},
					"object": "608060405234801561001057600080fd5b50610664806100206000396000f3fe608060405234801561001057600080fd5b506004361061004c5760003560e01c8063670ea637146100515780636b59084d1461006d578063d39fa23314610077578063e91e5843146100a7575b600080fd5b61006b6004803603810190610066919061046b565b6100c3565b005b610075610186565b005b610091600480360381019061008c919061046b565b6102b3565b60405161009e91906104a7565b60405180910390f35b6100c160048036038101906100bc919061046b565b6102d7565b005b6000808054905090506001816100d991906104f1565b820361010c5760008054806100f1576100f0610525565b5b60019003818190600052602060002001600090559055610182565b600060018261011b91906104f1565b8154811061012c5761012b610554565b5b90600052602060002001546000838154811061014b5761014a610554565b5b9060005260206000200181905550600080548061016b5761016a610525565b5b600190038181906000526020600020016000905590555b5050565b6040518060a00160405280600160ff168152602001600260ff168152602001600360ff168152602001600460ff168152602001600560ff1681525060009060056101d19291906103c1565b506101dc60026100c3565b6004600080549050146101f2576101f1610583565b5b60016000808154811061020857610207610554565b5b90600052602060002001541461022157610220610583565b5b6002600060018154811061023857610237610554565b5b90600052602060002001541461025157610250610583565b5b6005600060028154811061026857610267610554565b5b90600052602060002001541461028157610280610583565b5b6004600060038154811061029857610297610554565b5b9060005260206000200154146102b1576102b0610583565b5b565b600081815481106102c357600080fd5b906000526020600020016000915090505481565b6000808054905090506001816102ed91906104f1565b820361032057600080548061030557610304610525565b5b600190038181906000526020600020016000905590556103bd565b60008290505b60008054905081101561039357600060018261034291906105b2565b8154811061035357610352610554565b5b90600052602060002001546000828154811061037257610371610554565b5b9060005260206000200181905550808061038b906105e6565b915050610326565b5060008054806103a6576103a5610525565b5b600190038181906000526020600020016000905590555b5050565b828054828255906000526020600020908101928215610402579160200282015b82811115610401578251829060ff169055916020019190600101906103e1565b5b50905061040f9190610413565b5090565b5b8082111561042c576000816000905550600101610414565b5090565b600080fd5b6000819050919050565b61044881610435565b811461045357600080fd5b50565b6000813590506104658161043f565b92915050565b60006020828403121561048157610480610430565b5b600061048f84828501610456565b91505092915050565b6104a181610435565b82525050565b60006020820190506104bc6000830184610498565b92915050565b7f4e487b7100000000000000000000000000000000000000000000000000000000600052601160045260246000fd5b60006104fc82610435565b915061050783610435565b925082820390508181111561051f5761051e6104c2565b5b92915050565b7f4e487b7100000000000000000000000000000000000000000000000000000000600052603160045260246000fd5b7f4e487b7100000000000000000000000000000000000000000000000000000000600052603260045260246000fd5b7f4e487b7100000000000000000000000000000000000000000000000000000000600052600160045260246000fd5b60006105bd82610435565b91506105c883610435565b92508282019050808211156105e0576105df6104c2565b5b92915050565b60006105f182610435565b91507fffffffffffffffffffffffffffffffffffffffffffffffffffffffffffffffff8203610623576106226104c2565b5b60018201905091905056fea2646970667358221220822f997bb8a857724fac3b6190a83da9bdf9e786727f6cb8be7eeb5728f5380864736f6c63430008110033",
					"opcodes": "PUSH1 0x80 PUSH1 0x40 MSTORE CALLVALUE DUP1 ISZERO PUSH2 0x10 JUMPI PUSH1 0x0 DUP1 REVERT JUMPDEST POP PUSH2 0x664 DUP1 PUSH2 0x20 PUSH1 0x0 CODECOPY PUSH1 0x0 RETURN INVALID PUSH1 0x80 PUSH1 0x40 MSTORE CALLVALUE DUP1 ISZERO PUSH2 0x10 JUMPI PUSH1 0x0 DUP1 REVERT JUMPDEST POP PUSH1 0x4 CALLDATASIZE LT PUSH2 0x4C JUMPI PUSH1 0x0 CALLDATALOAD PUSH1 0xE0 SHR DUP1 PUSH4 0x670EA637 EQ PUSH2 0x51 JUMPI DUP1 PUSH4 0x6B59084D EQ PUSH2 0x6D JUMPI DUP1 PUSH4 0xD39FA233 EQ PUSH2 0x77 JUMPI DUP1 PUSH4 0xE91E5843 EQ PUSH2 0xA7 JUMPI JUMPDEST PUSH1 0x0 DUP1 REVERT JUMPDEST PUSH2 0x6B PUSH1 0x4 DUP1 CALLDATASIZE SUB DUP2 ADD SWAP1 PUSH2 0x66 SWAP2 SWAP1 PUSH2 0x46B JUMP JUMPDEST PUSH2 0xC3 JUMP JUMPDEST STOP JUMPDEST PUSH2 0x75 PUSH2 0x186 JUMP JUMPDEST STOP JUMPDEST PUSH2 0x91 PUSH1 0x4 DUP1 CALLDATASIZE SUB DUP2 ADD SWAP1 PUSH2 0x8C SWAP2 SWAP1 PUSH2 0x46B JUMP JUMPDEST PUSH2 0x2B3 JUMP JUMPDEST PUSH1 0x40 MLOAD PUSH2 0x9E SWAP2 SWAP1 PUSH2 0x4A7 JUMP JUMPDEST PUSH1 0x40 MLOAD DUP1 SWAP2 SUB SWAP1 RETURN JUMPDEST PUSH2 0xC1 PUSH1 0x4 DUP1 CALLDATASIZE SUB DUP2 ADD SWAP1 PUSH2 0xBC SWAP2 SWAP1 PUSH2 0x46B JUMP JUMPDEST PUSH2 0x2D7 JUMP JUMPDEST STOP JUMPDEST PUSH1 0x0 DUP1 DUP1 SLOAD SWAP1 POP SWAP1 POP PUSH1 0x1 DUP2 PUSH2 0xD9 SWAP2 SWAP1 PUSH2 0x4F1 JUMP JUMPDEST DUP3 SUB PUSH2 0x10C JUMPI PUSH1 0x0 DUP1 SLOAD DUP1 PUSH2 0xF1 JUMPI PUSH2 0xF0 PUSH2 0x525 JUMP JUMPDEST JUMPDEST PUSH1 0x1 SWAP1 SUB DUP2 DUP2 SWAP1 PUSH1 0x0 MSTORE PUSH1 0x20 PUSH1 0x0 KECCAK256 ADD PUSH1 0x0 SWAP1 SSTORE SWAP1 SSTORE PUSH2 0x182 JUMP JUMPDEST PUSH1 0x0 PUSH1 0x1 DUP3 PUSH2 0x11B SWAP2 SWAP1 PUSH2 0x4F1 JUMP JUMPDEST DUP2 SLOAD DUP2 LT PUSH2 0x12C JUMPI PUSH2 0x12B PUSH2 0x554 JUMP JUMPDEST JUMPDEST SWAP1 PUSH1 0x0 MSTORE PUSH1 0x20 PUSH1 0x0 KECCAK256 ADD SLOAD PUSH1 0x0 DUP4 DUP2 SLOAD DUP2 LT PUSH2 0x14B JUMPI PUSH2 0x14A PUSH2 0x554 JUMP JUMPDEST JUMPDEST SWAP1 PUSH1 0x0 MSTORE PUSH1 0x20 PUSH1 0x0 KECCAK256 ADD DUP2 SWAP1 SSTORE POP PUSH1 0x0 DUP1 SLOAD DUP1 PUSH2 0x16B JUMPI PUSH2 0x16A PUSH2 0x525 JUMP JUMPDEST JUMPDEST PUSH1 0x1 SWAP1 SUB DUP2 DUP2 SWAP1 PUSH1 0x0 MSTORE PUSH1 0x20 PUSH1 0x0 KECCAK256 ADD PUSH1 0x0 SWAP1 SSTORE SWAP1 SSTORE JUMPDEST POP POP JUMP JUMPDEST PUSH1 0x40 MLOAD DUP1 PUSH1 0xA0 ADD PUSH1 0x40 MSTORE DUP1 PUSH1 0x1 PUSH1 0xFF AND DUP2 MSTORE PUSH1 0x20 ADD PUSH1 0x2 PUSH1 0xFF AND DUP2 MSTORE PUSH1 0x20 ADD PUSH1 0x3 PUSH1 0xFF AND DUP2 MSTORE PUSH1 0x20 ADD PUSH1 0x4 PUSH1 0xFF AND DUP2 MSTORE PUSH1 0x20 ADD PUSH1 0x5 PUSH1 0xFF AND DUP2 MSTORE POP PUSH1 0x0 SWAP1 PUSH1 0x5 PUSH2 0x1D1 SWAP3 SWAP2 SWAP1 PUSH2 0x3C1 JUMP JUMPDEST POP PUSH2 0x1DC PUSH1 0x2 PUSH2 0xC3 JUMP JUMPDEST PUSH1 0x4 PUSH1 0x0 DUP1 SLOAD SWAP1 POP EQ PUSH2 0x1F2 JUMPI PUSH2 0x1F1 PUSH2 0x583 JUMP JUMPDEST JUMPDEST PUSH1 0x1 PUSH1 0x0 DUP1 DUP2 SLOAD DUP2 LT PUSH2 0x208 JUMPI PUSH2 0x207 PUSH2 0x554 JUMP JUMPDEST JUMPDEST SWAP1 PUSH1 0x0 MSTORE PUSH1 0x20 PUSH1 0x0 KECCAK256 ADD SLOAD EQ PUSH2 0x221 JUMPI PUSH2 0x220 PUSH2 0x583 JUMP JUMPDEST JUMPDEST PUSH1 0x2 PUSH1 0x0 PUSH1 0x1 DUP2 SLOAD DUP2 LT PUSH2 0x238 JUMPI PUSH2 0x237 PUSH2 0x554 JUMP JUMPDEST JUMPDEST SWAP1 PUSH1 0x0 MSTORE PUSH1 0x20 PUSH1 0x0 KECCAK256 ADD SLOAD EQ PUSH2 0x251 JUMPI PUSH2 0x250 PUSH2 0x583 JUMP JUMPDEST JUMPDEST PUSH1 0x5 PUSH1 0x0 PUSH1 0x2 DUP2 SLOAD DUP2 LT PUSH2 0x268 JUMPI PUSH2 0x267 PUSH2 0x554 JUMP JUMPDEST JUMPDEST SWAP1 PUSH1 0x0 MSTORE PUSH1 0x20 PUSH1 0x0 KECCAK256 ADD SLOAD EQ PUSH2 0x281 JUMPI PUSH2 0x280 PUSH2 0x583 JUMP JUMPDEST JUMPDEST PUSH1 0x4 PUSH1 0x0 PUSH1 0x3 DUP2 SLOAD DUP2 LT PUSH2 0x298 JUMPI PUSH2 0x297 PUSH2 0x554 JUMP JUMPDEST JUMPDEST SWAP1 PUSH1 0x0 MSTORE PUSH1 0x20 PUSH1 0x0 KECCAK256 ADD SLOAD EQ PUSH2 0x2B1 JUMPI PUSH2 0x2B0 PUSH2 0x583 JUMP JUMPDEST JUMPDEST JUMP JUMPDEST PUSH1 0x0 DUP2 DUP2 SLOAD DUP2 LT PUSH2 0x2C3 JUMPI PUSH1 0x0 DUP1 REVERT JUMPDEST SWAP1 PUSH1 0x0 MSTORE PUSH1 0x20 PUSH1 0x0 KECCAK256 ADD PUSH1 0x0 SWAP2 POP SWAP1 POP SLOAD DUP2 JUMP JUMPDEST PUSH1 0x0 DUP1 DUP1 SLOAD SWAP1 POP SWAP1 POP PUSH1 0x1 DUP2 PUSH2 0x2ED SWAP2 SWAP1 PUSH2 0x4F1 JUMP JUMPDEST DUP3 SUB PUSH2 0x320 JUMPI PUSH1 0x0 DUP1 SLOAD DUP1 PUSH2 0x305 JUMPI PUSH2 0x304 PUSH2 0x525 JUMP JUMPDEST JUMPDEST PUSH1 0x1 SWAP1 SUB DUP2 DUP2 SWAP1 PUSH1 0x0 MSTORE PUSH1 0x20 PUSH1 0x0 KECCAK256 ADD PUSH1 0x0 SWAP1 SSTORE SWAP1 SSTORE PUSH2 0x3BD JUMP JUMPDEST PUSH1 0x0 DUP3 SWAP1 POP JUMPDEST PUSH1 0x0 DUP1 SLOAD SWAP1 POP DUP2 LT ISZERO PUSH2 0x393 JUMPI PUSH1 0x0 PUSH1 0x1 DUP3 PUSH2 0x342 SWAP2 SWAP1 PUSH2 0x5B2 JUMP JUMPDEST DUP2 SLOAD DUP2 LT PUSH2 0x353 JUMPI PUSH2 0x352 PUSH2 0x554 JUMP JUMPDEST JUMPDEST SWAP1 PUSH1 0x0 MSTORE PUSH1 0x20 PUSH1 0x0 KECCAK256 ADD SLOAD PUSH1 0x0 DUP3 DUP2 SLOAD DUP2 LT PUSH2 0x372 JUMPI PUSH2 0x371 PUSH2 0x554 JUMP JUMPDEST JUMPDEST SWAP1 PUSH1 0x0 MSTORE PUSH1 0x20 PUSH1 0x0 KECCAK256 ADD DUP2 SWAP1 SSTORE POP DUP1 DUP1 PUSH2 0x38B SWAP1 PUSH2 0x5E6 JUMP JUMPDEST SWAP2 POP POP PUSH2 0x326 JUMP JUMPDEST POP PUSH1 0x0 DUP1 SLOAD DUP1 PUSH2 0x3A6 JUMPI PUSH2 0x3A5 PUSH2 0x525 JUMP JUMPDEST JUMPDEST PUSH1 0x1 SWAP1 SUB DUP2 DUP2 SWAP1 PUSH1 0x0 MSTORE PUSH1 0x20 PUSH1 0x0 KECCAK256 ADD PUSH1 0x0 SWAP1 SSTORE SWAP1 SSTORE JUMPDEST POP POP JUMP JUMPDEST DUP3 DUP1 SLOAD DUP3 DUP3 SSTORE SWAP1 PUSH1 0x0 MSTORE PUSH1 0x20 PUSH1 0x0 KECCAK256 SWAP1 DUP2 ADD SWAP3 DUP3 ISZERO PUSH2 0x402 JUMPI SWAP2 PUSH1 0x20 MUL DUP3 ADD JUMPDEST DUP3 DUP2 GT ISZERO PUSH2 0x401 JUMPI DUP3 MLOAD DUP3 SWAP1 PUSH1 0xFF AND SWAP1 SSTORE SWAP2 PUSH1 0x20 ADD SWAP2 SWAP1 PUSH1 0x1 ADD SWAP1 PUSH2 0x3E1 JUMP JUMPDEST JUMPDEST POP SWAP1 POP PUSH2 0x40F SWAP2 SWAP1 PUSH2 0x413 JUMP JUMPDEST POP SWAP1 JUMP JUMPDEST JUMPDEST DUP1 DUP3 GT ISZERO PUSH2 0x42C JUMPI PUSH1 0x0 DUP2 PUSH1 0x0 SWAP1 SSTORE POP PUSH1 0x1 ADD PUSH2 0x414 JUMP JUMPDEST POP SWAP1 JUMP JUMPDEST PUSH1 0x0 DUP1 REVERT JUMPDEST PUSH1 0x0 DUP2 SWAP1 POP SWAP2 SWAP1 POP JUMP JUMPDEST PUSH2 0x448 DUP2 PUSH2 0x435 JUMP JUMPDEST DUP2 EQ PUSH2 0x453 JUMPI PUSH1 0x0 DUP1 REVERT JUMPDEST POP JUMP JUMPDEST PUSH1 0x0 DUP2 CALLDATALOAD SWAP1 POP PUSH2 0x465 DUP2 PUSH2 0x43F JUMP JUMPDEST SWAP3 SWAP2 POP POP JUMP JUMPDEST PUSH1 0x0 PUSH1 0x20 DUP3 DUP5 SUB SLT ISZERO PUSH2 0x481 JUMPI PUSH2 0x480 PUSH2 0x430 JUMP JUMPDEST JUMPDEST PUSH1 0x0 PUSH2 0x48F DUP5 DUP3 DUP6 ADD PUSH2 0x456 JUMP JUMPDEST SWAP2 POP POP SWAP3 SWAP2 POP POP JUMP JUMPDEST PUSH2 0x4A1 DUP2 PUSH2 0x435 JUMP JUMPDEST DUP3 MSTORE POP POP JUMP JUMPDEST PUSH1 0x0 PUSH1 0x20 DUP3 ADD SWAP1 POP PUSH2 0x4BC PUSH1 0x0 DUP4 ADD DUP5 PUSH2 0x498 JUMP JUMPDEST SWAP3 SWAP2 POP POP JUMP JUMPDEST PUSH32 0x4E487B7100000000000000000000000000000000000000000000000000000000 PUSH1 0x0 MSTORE PUSH1 0x11 PUSH1 0x4 MSTORE PUSH1 0x24 PUSH1 0x0 REVERT JUMPDEST PUSH1 0x0 PUSH2 0x4FC DUP3 PUSH2 0x435 JUMP JUMPDEST SWAP2 POP PUSH2 0x507 DUP4 PUSH2 0x435 JUMP JUMPDEST SWAP3 POP DUP3 DUP3 SUB SWAP1 POP DUP2 DUP2 GT ISZERO PUSH2 0x51F JUMPI PUSH2 0x51E PUSH2 0x4C2 JUMP JUMPDEST JUMPDEST SWAP3 SWAP2 POP POP JUMP JUMPDEST PUSH32 0x4E487B7100000000000000000000000000000000000000000000000000000000 PUSH1 0x0 MSTORE PUSH1 0x31 PUSH1 0x4 MSTORE PUSH1 0x24 PUSH1 0x0 REVERT JUMPDEST PUSH32 0x4E487B7100000000000000000000000000000000000000000000000000000000 PUSH1 0x0 MSTORE PUSH1 0x32 PUSH1 0x4 MSTORE PUSH1 0x24 PUSH1 0x0 REVERT JUMPDEST PUSH32 0x4E487B7100000000000000000000000000000000000000000000000000000000 PUSH1 0x0 MSTORE PUSH1 0x1 PUSH1 0x4 MSTORE PUSH1 0x24 PUSH1 0x0 REVERT JUMPDEST PUSH1 0x0 PUSH2 0x5BD DUP3 PUSH2 0x435 JUMP JUMPDEST SWAP2 POP PUSH2 0x5C8 DUP4 PUSH2 0x435 JUMP JUMPDEST SWAP3 POP DUP3 DUP3 ADD SWAP1 POP DUP1 DUP3 GT ISZERO PUSH2 0x5E0 JUMPI PUSH2 0x5DF PUSH2 0x4C2 JUMP JUMPDEST JUMPDEST SWAP3 SWAP2 POP POP JUMP JUMPDEST PUSH1 0x0 PUSH2 0x5F1 DUP3 PUSH2 0x435 JUMP JUMPDEST SWAP2 POP PUSH32 0xFFFFFFFFFFFFFFFFFFFFFFFFFFFFFFFFFFFFFFFFFFFFFFFFFFFFFFFFFFFFFFFF DUP3 SUB PUSH2 0x623 JUMPI PUSH2 0x622 PUSH2 0x4C2 JUMP JUMPDEST JUMPDEST PUSH1 0x1 DUP3 ADD SWAP1 POP SWAP2 SWAP1 POP JUMP INVALID LOG2 PUSH5 0x6970667358 0x22 SLT KECCAK256 DUP3 0x2F SWAP10 PUSH28 0xB8A857724FAC3B6190A83DA9BDF9E786727F6CB8BE7EEB5728F53808 PUSH5 0x736F6C6343 STOP ADDMOD GT STOP CALLER "
				},
				"gasEstimates": {
					"creation": {
						"codeDepositCost": "327200",
						"executionCost": "368",
						"totalCost": "327568"
					},
					"external": {
						"numbers(uint256)": "infinite",
						"remove1(uint256)": "infinite",
						"remove2(uint256)": "infinite",
						"test1()": "infinite"
					}
				},
				"methodIdentifiers": {
					"numbers(uint256)": "d39fa233",
					"remove1(uint256)": "670ea637",
					"remove2(uint256)": "e91e5843",
					"test1()": "6b59084d"
				}
			},
			"storageLayout": {
				"storage": [
					{
						"astId": 4,
						"contract": "ArrayTest4.sol:Array4",
						"label": "numbers",
						"offset": 0,
						"slot": "0",
						"type": "t_array(t_uint256)dyn_storage"
					}
				],
				"types": {
					"t_array(t_uint256)dyn_storage": {
						"base": "t_uint256",
						"encoding": "dynamic_array",
						"label": "uint256[]",
						"numberOfBytes": "32"
					},
					"t_uint256": {
						"encoding": "inplace",
						"label": "uint256",
						"numberOfBytes": "32"
					}
				}
			},
			"userdoc": {
				"kind": "user",
				"methods": {
					"remove1(uint256)": {
						"notice": "删除数组中间某个元素时，不可以像其他编程语言一样，删除该元素，其他后面的元素往前移动 这样会消耗巨量的gas 删除数组两种方式： 1.像上述提及的一样，比如[1,2,3,4,5,6] -----remove(2)下标-----[1,2,4,5,6,6]---pop---[1,2,4,5,6] 2.还有另外一种方式：比如[1,2,3,4,5,6] -----remove(2)下标,最后一个元素赋值给需要删除的元素 [1,2,6,4,5,6]--pop---[1,2,6,4,5] 下面这种方式更加节省gas费，但是如果需要保障数组的顺序，那么只能使用方式1"
					},
					"remove2(uint256)": {
						"notice": "[1,2,3,4]  remove index 2"
					}
				},
				"version": 1
			}
		}
	}
}