{
	"IterableMapping.sol": {
		"IterableMapping": {
			"abi": [
				{
					"inputs": [
						{
							"internalType": "address",
							"name": "",
							"type": "address"
						}
					],
					"name": "balances",
					"outputs": [
						{
							"internalType": "uint256",
							"name": "",
							"type": "uint256"
						}
					],
					"stateMutability": "view",
					"type": "function"
				},
				{
					"inputs": [],
					"name": "first",
					"outputs": [
						{
							"internalType": "uint256",
							"name": "",
							"type": "uint256"
						}
					],
					"stateMutability": "view",
					"type": "function"
				},
				{
					"inputs": [
						{
							"internalType": "uint256",
							"name": "_index",
							"type": "uint256"
						}
					],
					"name": "get",
					"outputs": [
						{
							"internalType": "uint256",
							"name": "",
							"type": "uint256"
						}
					],
					"stateMutability": "view",
					"type": "function"
				},
				{
					"inputs": [
						{
							"internalType": "address",
							"name": "",
							"type": "address"
						}
					],
					"name": "inserted",
					"outputs": [
						{
							"internalType": "bool",
							"name": "",
							"type": "bool"
						}
					],
					"stateMutability": "view",
					"type": "function"
				},
				{
					"inputs": [
						{
							"internalType": "uint256",
							"name": "",
							"type": "uint256"
						}
					],
					"name": "keys",
					"outputs": [
						{
							"internalType": "address",
							"name": "",
							"type": "address"
						}
					],
					"stateMutability": "view",
					"type": "function"
				},
				{
					"inputs": [],
					"name": "last",
					"outputs": [
						{
							"internalType": "uint256",
							"name": "",
							"type": "uint256"
						}
					],
					"stateMutability": "view",
					"type": "function"
				},
				{
					"inputs": [],
					"name": "length",
					"outputs": [
						{
							"internalType": "uint256",
							"name": "",
							"type": "uint256"
						}
					],
					"stateMutability": "view",
					"type": "function"
				},
				{
					"inputs": [
						{
							"internalType": "address",
							"name": "_key",
							"type": "address"
						},
						{
							"internalType": "uint256",
							"name": "_value",
							"type": "uint256"
						}
					],
					"name": "set",
					"outputs": [],
					"stateMutability": "nonpayable",
					"type": "function"
				}
			],
			"devdoc": {
				"kind": "dev",
				"methods": {},
				"version": 1
			},
			"evm": {
				"assembly": "    /* \"IterableMapping.sol\":75:977  contract IterableMapping {... */\n  mstore(0x40, 0x80)\n  callvalue\n  dup1\n  iszero\n  tag_1\n  jumpi\n  0x00\n  dup1\n  revert\ntag_1:\n  pop\n  dataSize(sub_0)\n  dup1\n  dataOffset(sub_0)\n  0x00\n  codecopy\n  0x00\n  return\nstop\n\nsub_0: assembly {\n        /* \"IterableMapping.sol\":75:977  contract IterableMapping {... */\n      mstore(0x40, 0x80)\n      callvalue\n      dup1\n      iszero\n      tag_1\n      jumpi\n      0x00\n      dup1\n      revert\n    tag_1:\n      pop\n      jumpi(tag_2, lt(calldatasize, 0x04))\n      shr(0xe0, calldataload(0x00))\n      dup1\n      0x3df4ddf4\n      gt\n      tag_11\n      jumpi\n      dup1\n      0x3df4ddf4\n      eq\n      tag_7\n      jumpi\n      dup1\n      0x47799da8\n      eq\n      tag_8\n      jumpi\n      dup1\n      0x7cd380f1\n      eq\n      tag_9\n      jumpi\n      dup1\n      0x9507d39a\n      eq\n      tag_10\n      jumpi\n      jump(tag_2)\n    tag_11:\n      dup1\n      0x0cb6aaf1\n      eq\n      tag_3\n      jumpi\n      dup1\n      0x1f7b6d32\n      eq\n      tag_4\n      jumpi\n      dup1\n      0x27e235e3\n      eq\n      tag_5\n      jumpi\n      dup1\n      0x3825d828\n      eq\n      tag_6\n      jumpi\n    tag_2:\n      0x00\n      dup1\n      revert\n        /* \"IterableMapping.sol\":299:320  address[] public keys */\n    tag_3:\n      tag_12\n      0x04\n      dup1\n      calldatasize\n      sub\n      dup2\n      add\n      swap1\n      tag_13\n      swap2\n      swap1\n      tag_14\n      jump\t// in\n    tag_13:\n      tag_15\n      jump\t// in\n    tag_12:\n      mload(0x40)\n      tag_16\n      swap2\n      swap1\n      tag_17\n      jump\t// in\n    tag_16:\n      mload(0x40)\n      dup1\n      swap2\n      sub\n      swap1\n      return\n        /* \"IterableMapping.sol\":524:605  function length() external view returns (uint){... */\n    tag_4:\n      tag_18\n      tag_19\n      jump\t// in\n    tag_18:\n      mload(0x40)\n      tag_20\n      swap2\n      swap1\n      tag_21\n      jump\t// in\n    tag_20:\n      mload(0x40)\n      dup1\n      swap2\n      sub\n      swap1\n      return\n        /* \"IterableMapping.sol\":143:184  mapping (address => uint) public balances */\n    tag_5:\n      tag_22\n      0x04\n      dup1\n      calldatasize\n      sub\n      dup2\n      add\n      swap1\n      tag_23\n      swap2\n      swap1\n      tag_24\n      jump\t// in\n    tag_23:\n      tag_25\n      jump\t// in\n    tag_22:\n      mload(0x40)\n      tag_26\n      swap2\n      swap1\n      tag_21\n      jump\t// in\n    tag_26:\n      mload(0x40)\n      dup1\n      swap2\n      sub\n      swap1\n      return\n        /* \"IterableMapping.sol\":327:518  function set(address _key, uint _value) external{... */\n    tag_6:\n      tag_27\n      0x04\n      dup1\n      calldatasize\n      sub\n      dup2\n      add\n      swap1\n      tag_28\n      swap2\n      swap1\n      tag_29\n      jump\t// in\n    tag_28:\n      tag_30\n      jump\t// in\n    tag_27:\n      stop\n        /* \"IterableMapping.sol\":611:697  function first() external view returns (uint){... */\n    tag_7:\n      tag_31\n      tag_32\n      jump\t// in\n    tag_31:\n      mload(0x40)\n      tag_33\n      swap2\n      swap1\n      tag_21\n      jump\t// in\n    tag_33:\n      mload(0x40)\n      dup1\n      swap2\n      sub\n      swap1\n      return\n        /* \"IterableMapping.sol\":703:802  function last() external view returns (uint){... */\n    tag_8:\n      tag_34\n      tag_35\n      jump\t// in\n    tag_34:\n      mload(0x40)\n      tag_36\n      swap2\n      swap1\n      tag_21\n      jump\t// in\n    tag_36:\n      mload(0x40)\n      dup1\n      swap2\n      sub\n      swap1\n      return\n        /* \"IterableMapping.sol\":224:265  mapping (address => bool) public inserted */\n    tag_9:\n      tag_37\n      0x04\n      dup1\n      calldatasize\n      sub\n      dup2\n      add\n      swap1\n      tag_38\n      swap2\n      swap1\n      tag_24\n      jump\t// in\n    tag_38:\n      tag_39\n      jump\t// in\n    tag_37:\n      mload(0x40)\n      tag_40\n      swap2\n      swap1\n      tag_41\n      jump\t// in\n    tag_40:\n      mload(0x40)\n      dup1\n      swap2\n      sub\n      swap1\n      return\n        /* \"IterableMapping.sol\":808:975  function get(uint _index) external view returns (uint){... */\n    tag_10:\n      tag_42\n      0x04\n      dup1\n      calldatasize\n      sub\n      dup2\n      add\n      swap1\n      tag_43\n      swap2\n      swap1\n      tag_14\n      jump\t// in\n    tag_43:\n      tag_44\n      jump\t// in\n    tag_42:\n      mload(0x40)\n      tag_45\n      swap2\n      swap1\n      tag_21\n      jump\t// in\n    tag_45:\n      mload(0x40)\n      dup1\n      swap2\n      sub\n      swap1\n      return\n        /* \"IterableMapping.sol\":299:320  address[] public keys */\n    tag_15:\n      0x02\n      dup2\n      dup2\n      sload\n      dup2\n      lt\n      tag_46\n      jumpi\n      0x00\n      dup1\n      revert\n    tag_46:\n      swap1\n      0x00\n      mstore\n      keccak256(0x00, 0x20)\n      add\n      0x00\n      swap2\n      pop\n      sload\n      swap1\n      0x0100\n      exp\n      swap1\n      div\n      0xffffffffffffffffffffffffffffffffffffffff\n      and\n      dup2\n      jump\t// out\n        /* \"IterableMapping.sol\":524:605  function length() external view returns (uint){... */\n    tag_19:\n        /* \"IterableMapping.sol\":565:569  uint */\n      0x00\n        /* \"IterableMapping.sol\":587:591  keys */\n      0x02\n        /* \"IterableMapping.sol\":587:598  keys.length */\n      dup1\n      sload\n      swap1\n      pop\n        /* \"IterableMapping.sol\":580:598  return keys.length */\n      swap1\n      pop\n        /* \"IterableMapping.sol\":524:605  function length() external view returns (uint){... */\n      swap1\n      jump\t// out\n        /* \"IterableMapping.sol\":143:184  mapping (address => uint) public balances */\n    tag_25:\n      mstore(0x20, 0x00)\n      dup1\n      0x00\n      mstore\n      keccak256(0x00, 0x40)\n      0x00\n      swap2\n      pop\n      swap1\n      pop\n      sload\n      dup2\n      jump\t// out\n        /* \"IterableMapping.sol\":327:518  function set(address _key, uint _value) external{... */\n    tag_30:\n        /* \"IterableMapping.sol\":402:408  _value */\n      dup1\n        /* \"IterableMapping.sol\":385:393  balances */\n      0x00\n        /* \"IterableMapping.sol\":385:399  balances[_key] */\n      dup1\n        /* \"IterableMapping.sol\":394:398  _key */\n      dup5\n        /* \"IterableMapping.sol\":385:399  balances[_key] */\n      0xffffffffffffffffffffffffffffffffffffffff\n      and\n      0xffffffffffffffffffffffffffffffffffffffff\n      and\n      dup2\n      mstore\n      0x20\n      add\n      swap1\n      dup2\n      mstore\n      0x20\n      add\n      0x00\n      keccak256\n        /* \"IterableMapping.sol\":385:408  balances[_key] = _value */\n      dup2\n      swap1\n      sstore\n      pop\n        /* \"IterableMapping.sol\":422:430  inserted */\n      0x01\n        /* \"IterableMapping.sol\":422:436  inserted[_key] */\n      0x00\n        /* \"IterableMapping.sol\":431:435  _key */\n      dup4\n        /* \"IterableMapping.sol\":422:436  inserted[_key] */\n      0xffffffffffffffffffffffffffffffffffffffff\n      and\n      0xffffffffffffffffffffffffffffffffffffffff\n      and\n      dup2\n      mstore\n      0x20\n      add\n      swap1\n      dup2\n      mstore\n      0x20\n      add\n      0x00\n      keccak256\n      0x00\n      swap1\n      sload\n      swap1\n      0x0100\n      exp\n      swap1\n      div\n      0xff\n      and\n        /* \"IterableMapping.sol\":418:512  if(!inserted[_key]){... */\n      tag_50\n      jumpi\n        /* \"IterableMapping.sol\":468:472  true */\n      0x01\n        /* \"IterableMapping.sol\":451:459  inserted */\n      dup1\n        /* \"IterableMapping.sol\":451:465  inserted[_key] */\n      0x00\n        /* \"IterableMapping.sol\":460:464  _key */\n      dup5\n        /* \"IterableMapping.sol\":451:465  inserted[_key] */\n      0xffffffffffffffffffffffffffffffffffffffff\n      and\n      0xffffffffffffffffffffffffffffffffffffffff\n      and\n      dup2\n      mstore\n      0x20\n      add\n      swap1\n      dup2\n      mstore\n      0x20\n      add\n      0x00\n      keccak256\n      0x00\n        /* \"IterableMapping.sol\":451:472  inserted[_key] = true */\n      0x0100\n      exp\n      dup2\n      sload\n      dup2\n      0xff\n      mul\n      not\n      and\n      swap1\n      dup4\n      iszero\n      iszero\n      mul\n      or\n      swap1\n      sstore\n      pop\n        /* \"IterableMapping.sol\":486:490  keys */\n      0x02\n        /* \"IterableMapping.sol\":496:500  _key */\n      dup3\n        /* \"IterableMapping.sol\":486:501  keys.push(_key) */\n      swap1\n      dup1\n      0x01\n      dup2\n      sload\n      add\n      dup1\n      dup3\n      sstore\n      dup1\n      swap2\n      pop\n      pop\n      0x01\n      swap1\n      sub\n      swap1\n      0x00\n      mstore\n      keccak256(0x00, 0x20)\n      add\n      0x00\n      swap1\n      swap2\n      swap1\n      swap2\n      swap1\n      swap2\n      0x0100\n      exp\n      dup2\n      sload\n      dup2\n      0xffffffffffffffffffffffffffffffffffffffff\n      mul\n      not\n      and\n      swap1\n      dup4\n      0xffffffffffffffffffffffffffffffffffffffff\n      and\n      mul\n      or\n      swap1\n      sstore\n      pop\n        /* \"IterableMapping.sol\":418:512  if(!inserted[_key]){... */\n    tag_50:\n        /* \"IterableMapping.sol\":327:518  function set(address _key, uint _value) external{... */\n      pop\n      pop\n      jump\t// out\n        /* \"IterableMapping.sol\":611:697  function first() external view returns (uint){... */\n    tag_32:\n        /* \"IterableMapping.sol\":651:655  uint */\n      0x00\n        /* \"IterableMapping.sol\":673:681  balances */\n      dup1\n        /* \"IterableMapping.sol\":673:690  balances[keys[0]] */\n      0x00\n        /* \"IterableMapping.sol\":682:686  keys */\n      0x02\n        /* \"IterableMapping.sol\":687:688  0 */\n      0x00\n        /* \"IterableMapping.sol\":682:689  keys[0] */\n      dup2\n      sload\n      dup2\n      lt\n      tag_53\n      jumpi\n      tag_54\n      tag_55\n      jump\t// in\n    tag_54:\n    tag_53:\n      swap1\n      0x00\n      mstore\n      keccak256(0x00, 0x20)\n      add\n      0x00\n      swap1\n      sload\n      swap1\n      0x0100\n      exp\n      swap1\n      div\n      0xffffffffffffffffffffffffffffffffffffffff\n      and\n        /* \"IterableMapping.sol\":673:690  balances[keys[0]] */\n      0xffffffffffffffffffffffffffffffffffffffff\n      and\n      0xffffffffffffffffffffffffffffffffffffffff\n      and\n      dup2\n      mstore\n      0x20\n      add\n      swap1\n      dup2\n      mstore\n      0x20\n      add\n      0x00\n      keccak256\n      sload\n        /* \"IterableMapping.sol\":666:690  return balances[keys[0]] */\n      swap1\n      pop\n        /* \"IterableMapping.sol\":611:697  function first() external view returns (uint){... */\n      swap1\n      jump\t// out\n        /* \"IterableMapping.sol\":703:802  function last() external view returns (uint){... */\n    tag_35:\n        /* \"IterableMapping.sol\":742:746  uint */\n      0x00\n        /* \"IterableMapping.sol\":764:772  balances */\n      dup1\n        /* \"IterableMapping.sol\":764:795  balances[keys[keys.length - 1]] */\n      0x00\n        /* \"IterableMapping.sol\":773:777  keys */\n      0x02\n        /* \"IterableMapping.sol\":792:793  1 */\n      0x01\n        /* \"IterableMapping.sol\":778:782  keys */\n      0x02\n        /* \"IterableMapping.sol\":778:789  keys.length */\n      dup1\n      sload\n      swap1\n      pop\n        /* \"IterableMapping.sol\":778:793  keys.length - 1 */\n      tag_58\n      swap2\n      swap1\n      tag_59\n      jump\t// in\n    tag_58:\n        /* \"IterableMapping.sol\":773:794  keys[keys.length - 1] */\n      dup2\n      sload\n      dup2\n      lt\n      tag_60\n      jumpi\n      tag_61\n      tag_55\n      jump\t// in\n    tag_61:\n    tag_60:\n      swap1\n      0x00\n      mstore\n      keccak256(0x00, 0x20)\n      add\n      0x00\n      swap1\n      sload\n      swap1\n      0x0100\n      exp\n      swap1\n      div\n      0xffffffffffffffffffffffffffffffffffffffff\n      and\n        /* \"IterableMapping.sol\":764:795  balances[keys[keys.length - 1]] */\n      0xffffffffffffffffffffffffffffffffffffffff\n      and\n      0xffffffffffffffffffffffffffffffffffffffff\n      and\n      dup2\n      mstore\n      0x20\n      add\n      swap1\n      dup2\n      mstore\n      0x20\n      add\n      0x00\n      keccak256\n      sload\n        /* \"IterableMapping.sol\":757:795  return balances[keys[keys.length - 1]] */\n      swap1\n      pop\n        /* \"IterableMapping.sol\":703:802  function last() external view returns (uint){... */\n      swap1\n      jump\t// out\n        /* \"IterableMapping.sol\":224:265  mapping (address => bool) public inserted */\n    tag_39:\n      mstore(0x20, 0x01)\n      dup1\n      0x00\n      mstore\n      keccak256(0x00, 0x40)\n      0x00\n      swap2\n      pop\n      sload\n      swap1\n      0x0100\n      exp\n      swap1\n      div\n      0xff\n      and\n      dup2\n      jump\t// out\n        /* \"IterableMapping.sol\":808:975  function get(uint _index) external view returns (uint){... */\n    tag_44:\n        /* \"IterableMapping.sol\":857:861  uint */\n      0x00\n        /* \"IterableMapping.sol\":904:905  1 */\n      0x01\n        /* \"IterableMapping.sol\":890:894  keys */\n      0x02\n        /* \"IterableMapping.sol\":890:901  keys.length */\n      dup1\n      sload\n      swap1\n      pop\n        /* \"IterableMapping.sol\":890:905  keys.length - 1 */\n      tag_64\n      swap2\n      swap1\n      tag_59\n      jump\t// in\n    tag_64:\n        /* \"IterableMapping.sol\":880:886  _index */\n      dup3\n        /* \"IterableMapping.sol\":880:905  _index <= keys.length - 1 */\n      gt\n      iszero\n        /* \"IterableMapping.sol\":872:929  require(_index <= keys.length - 1, \"index out of bounds\") */\n      tag_65\n      jumpi\n      mload(0x40)\n      0x08c379a000000000000000000000000000000000000000000000000000000000\n      dup2\n      mstore\n      0x04\n      add\n      tag_66\n      swap1\n      tag_67\n      jump\t// in\n    tag_66:\n      mload(0x40)\n      dup1\n      swap2\n      sub\n      swap1\n      revert\n    tag_65:\n        /* \"IterableMapping.sol\":946:954  balances */\n      0x00\n        /* \"IterableMapping.sol\":946:968  balances[keys[_index]] */\n      dup1\n        /* \"IterableMapping.sol\":955:959  keys */\n      0x02\n        /* \"IterableMapping.sol\":960:966  _index */\n      dup5\n        /* \"IterableMapping.sol\":955:967  keys[_index] */\n      dup2\n      sload\n      dup2\n      lt\n      tag_68\n      jumpi\n      tag_69\n      tag_55\n      jump\t// in\n    tag_69:\n    tag_68:\n      swap1\n      0x00\n      mstore\n      keccak256(0x00, 0x20)\n      add\n      0x00\n      swap1\n      sload\n      swap1\n      0x0100\n      exp\n      swap1\n      div\n      0xffffffffffffffffffffffffffffffffffffffff\n      and\n        /* \"IterableMapping.sol\":946:968  balances[keys[_index]] */\n      0xffffffffffffffffffffffffffffffffffffffff\n      and\n      0xffffffffffffffffffffffffffffffffffffffff\n      and\n      dup2\n      mstore\n      0x20\n      add\n      swap1\n      dup2\n      mstore\n      0x20\n      add\n      0x00\n      keccak256\n      sload\n        /* \"IterableMapping.sol\":939:968  return balances[keys[_index]] */\n      swap1\n      pop\n        /* \"IterableMapping.sol\":808:975  function get(uint _index) external view returns (uint){... */\n      swap2\n      swap1\n      pop\n      jump\t// out\n        /* \"#utility.yul\":88:205   */\n    tag_72:\n        /* \"#utility.yul\":197:198   */\n      0x00\n        /* \"#utility.yul\":194:195   */\n      dup1\n        /* \"#utility.yul\":187:199   */\n      revert\n        /* \"#utility.yul\":334:411   */\n    tag_74:\n        /* \"#utility.yul\":371:378   */\n      0x00\n        /* \"#utility.yul\":400:405   */\n      dup2\n        /* \"#utility.yul\":389:405   */\n      swap1\n      pop\n        /* \"#utility.yul\":334:411   */\n      swap2\n      swap1\n      pop\n      jump\t// out\n        /* \"#utility.yul\":417:539   */\n    tag_75:\n        /* \"#utility.yul\":490:514   */\n      tag_95\n        /* \"#utility.yul\":508:513   */\n      dup2\n        /* \"#utility.yul\":490:514   */\n      tag_74\n      jump\t// in\n    tag_95:\n        /* \"#utility.yul\":483:488   */\n      dup2\n        /* \"#utility.yul\":480:515   */\n      eq\n        /* \"#utility.yul\":470:533   */\n      tag_96\n      jumpi\n        /* \"#utility.yul\":529:530   */\n      0x00\n        /* \"#utility.yul\":526:527   */\n      dup1\n        /* \"#utility.yul\":519:531   */\n      revert\n        /* \"#utility.yul\":470:533   */\n    tag_96:\n        /* \"#utility.yul\":417:539   */\n      pop\n      jump\t// out\n        /* \"#utility.yul\":545:684   */\n    tag_76:\n        /* \"#utility.yul\":591:596   */\n      0x00\n        /* \"#utility.yul\":629:635   */\n      dup2\n        /* \"#utility.yul\":616:636   */\n      calldataload\n        /* \"#utility.yul\":607:636   */\n      swap1\n      pop\n        /* \"#utility.yul\":645:678   */\n      tag_98\n        /* \"#utility.yul\":672:677   */\n      dup2\n        /* \"#utility.yul\":645:678   */\n      tag_75\n      jump\t// in\n    tag_98:\n        /* \"#utility.yul\":545:684   */\n      swap3\n      swap2\n      pop\n      pop\n      jump\t// out\n        /* \"#utility.yul\":690:1019   */\n    tag_14:\n        /* \"#utility.yul\":749:755   */\n      0x00\n        /* \"#utility.yul\":798:800   */\n      0x20\n        /* \"#utility.yul\":786:795   */\n      dup3\n        /* \"#utility.yul\":777:784   */\n      dup5\n        /* \"#utility.yul\":773:796   */\n      sub\n        /* \"#utility.yul\":769:801   */\n      slt\n        /* \"#utility.yul\":766:885   */\n      iszero\n      tag_100\n      jumpi\n        /* \"#utility.yul\":804:883   */\n      tag_101\n      tag_72\n      jump\t// in\n    tag_101:\n        /* \"#utility.yul\":766:885   */\n    tag_100:\n        /* \"#utility.yul\":924:925   */\n      0x00\n        /* \"#utility.yul\":949:1002   */\n      tag_102\n        /* \"#utility.yul\":994:1001   */\n      dup5\n        /* \"#utility.yul\":985:991   */\n      dup3\n        /* \"#utility.yul\":974:983   */\n      dup6\n        /* \"#utility.yul\":970:992   */\n      add\n        /* \"#utility.yul\":949:1002   */\n      tag_76\n      jump\t// in\n    tag_102:\n        /* \"#utility.yul\":939:1002   */\n      swap2\n      pop\n        /* \"#utility.yul\":895:1012   */\n      pop\n        /* \"#utility.yul\":690:1019   */\n      swap3\n      swap2\n      pop\n      pop\n      jump\t// out\n        /* \"#utility.yul\":1025:1151   */\n    tag_77:\n        /* \"#utility.yul\":1062:1069   */\n      0x00\n        /* \"#utility.yul\":1102:1144   */\n      0xffffffffffffffffffffffffffffffffffffffff\n        /* \"#utility.yul\":1095:1100   */\n      dup3\n        /* \"#utility.yul\":1091:1145   */\n      and\n        /* \"#utility.yul\":1080:1145   */\n      swap1\n      pop\n        /* \"#utility.yul\":1025:1151   */\n      swap2\n      swap1\n      pop\n      jump\t// out\n        /* \"#utility.yul\":1157:1253   */\n    tag_78:\n        /* \"#utility.yul\":1194:1201   */\n      0x00\n        /* \"#utility.yul\":1223:1247   */\n      tag_105\n        /* \"#utility.yul\":1241:1246   */\n      dup3\n        /* \"#utility.yul\":1223:1247   */\n      tag_77\n      jump\t// in\n    tag_105:\n        /* \"#utility.yul\":1212:1247   */\n      swap1\n      pop\n        /* \"#utility.yul\":1157:1253   */\n      swap2\n      swap1\n      pop\n      jump\t// out\n        /* \"#utility.yul\":1259:1377   */\n    tag_79:\n        /* \"#utility.yul\":1346:1370   */\n      tag_107\n        /* \"#utility.yul\":1364:1369   */\n      dup2\n        /* \"#utility.yul\":1346:1370   */\n      tag_78\n      jump\t// in\n    tag_107:\n        /* \"#utility.yul\":1341:1344   */\n      dup3\n        /* \"#utility.yul\":1334:1371   */\n      mstore\n        /* \"#utility.yul\":1259:1377   */\n      pop\n      pop\n      jump\t// out\n        /* \"#utility.yul\":1383:1605   */\n    tag_17:\n        /* \"#utility.yul\":1476:1480   */\n      0x00\n        /* \"#utility.yul\":1514:1516   */\n      0x20\n        /* \"#utility.yul\":1503:1512   */\n      dup3\n        /* \"#utility.yul\":1499:1517   */\n      add\n        /* \"#utility.yul\":1491:1517   */\n      swap1\n      pop\n        /* \"#utility.yul\":1527:1598   */\n      tag_109\n        /* \"#utility.yul\":1595:1596   */\n      0x00\n        /* \"#utility.yul\":1584:1593   */\n      dup4\n        /* \"#utility.yul\":1580:1597   */\n      add\n        /* \"#utility.yul\":1571:1577   */\n      dup5\n        /* \"#utility.yul\":1527:1598   */\n      tag_79\n      jump\t// in\n    tag_109:\n        /* \"#utility.yul\":1383:1605   */\n      swap3\n      swap2\n      pop\n      pop\n      jump\t// out\n        /* \"#utility.yul\":1611:1729   */\n    tag_80:\n        /* \"#utility.yul\":1698:1722   */\n      tag_111\n        /* \"#utility.yul\":1716:1721   */\n      dup2\n        /* \"#utility.yul\":1698:1722   */\n      tag_74\n      jump\t// in\n    tag_111:\n        /* \"#utility.yul\":1693:1696   */\n      dup3\n        /* \"#utility.yul\":1686:1723   */\n      mstore\n        /* \"#utility.yul\":1611:1729   */\n      pop\n      pop\n      jump\t// out\n        /* \"#utility.yul\":1735:1957   */\n    tag_21:\n        /* \"#utility.yul\":1828:1832   */\n      0x00\n        /* \"#utility.yul\":1866:1868   */\n      0x20\n        /* \"#utility.yul\":1855:1864   */\n      dup3\n        /* \"#utility.yul\":1851:1869   */\n      add\n        /* \"#utility.yul\":1843:1869   */\n      swap1\n      pop\n        /* \"#utility.yul\":1879:1950   */\n      tag_113\n        /* \"#utility.yul\":1947:1948   */\n      0x00\n        /* \"#utility.yul\":1936:1945   */\n      dup4\n        /* \"#utility.yul\":1932:1949   */\n      add\n        /* \"#utility.yul\":1923:1929   */\n      dup5\n        /* \"#utility.yul\":1879:1950   */\n      tag_80\n      jump\t// in\n    tag_113:\n        /* \"#utility.yul\":1735:1957   */\n      swap3\n      swap2\n      pop\n      pop\n      jump\t// out\n        /* \"#utility.yul\":1963:2085   */\n    tag_81:\n        /* \"#utility.yul\":2036:2060   */\n      tag_115\n        /* \"#utility.yul\":2054:2059   */\n      dup2\n        /* \"#utility.yul\":2036:2060   */\n      tag_78\n      jump\t// in\n    tag_115:\n        /* \"#utility.yul\":2029:2034   */\n      dup2\n        /* \"#utility.yul\":2026:2061   */\n      eq\n        /* \"#utility.yul\":2016:2079   */\n      tag_116\n      jumpi\n        /* \"#utility.yul\":2075:2076   */\n      0x00\n        /* \"#utility.yul\":2072:2073   */\n      dup1\n        /* \"#utility.yul\":2065:2077   */\n      revert\n        /* \"#utility.yul\":2016:2079   */\n    tag_116:\n        /* \"#utility.yul\":1963:2085   */\n      pop\n      jump\t// out\n        /* \"#utility.yul\":2091:2230   */\n    tag_82:\n        /* \"#utility.yul\":2137:2142   */\n      0x00\n        /* \"#utility.yul\":2175:2181   */\n      dup2\n        /* \"#utility.yul\":2162:2182   */\n      calldataload\n        /* \"#utility.yul\":2153:2182   */\n      swap1\n      pop\n        /* \"#utility.yul\":2191:2224   */\n      tag_118\n        /* \"#utility.yul\":2218:2223   */\n      dup2\n        /* \"#utility.yul\":2191:2224   */\n      tag_81\n      jump\t// in\n    tag_118:\n        /* \"#utility.yul\":2091:2230   */\n      swap3\n      swap2\n      pop\n      pop\n      jump\t// out\n        /* \"#utility.yul\":2236:2565   */\n    tag_24:\n        /* \"#utility.yul\":2295:2301   */\n      0x00\n        /* \"#utility.yul\":2344:2346   */\n      0x20\n        /* \"#utility.yul\":2332:2341   */\n      dup3\n        /* \"#utility.yul\":2323:2330   */\n      dup5\n        /* \"#utility.yul\":2319:2342   */\n      sub\n        /* \"#utility.yul\":2315:2347   */\n      slt\n        /* \"#utility.yul\":2312:2431   */\n      iszero\n      tag_120\n      jumpi\n        /* \"#utility.yul\":2350:2429   */\n      tag_121\n      tag_72\n      jump\t// in\n    tag_121:\n        /* \"#utility.yul\":2312:2431   */\n    tag_120:\n        /* \"#utility.yul\":2470:2471   */\n      0x00\n        /* \"#utility.yul\":2495:2548   */\n      tag_122\n        /* \"#utility.yul\":2540:2547   */\n      dup5\n        /* \"#utility.yul\":2531:2537   */\n      dup3\n        /* \"#utility.yul\":2520:2529   */\n      dup6\n        /* \"#utility.yul\":2516:2538   */\n      add\n        /* \"#utility.yul\":2495:2548   */\n      tag_82\n      jump\t// in\n    tag_122:\n        /* \"#utility.yul\":2485:2548   */\n      swap2\n      pop\n        /* \"#utility.yul\":2441:2558   */\n      pop\n        /* \"#utility.yul\":2236:2565   */\n      swap3\n      swap2\n      pop\n      pop\n      jump\t// out\n        /* \"#utility.yul\":2571:3045   */\n    tag_29:\n        /* \"#utility.yul\":2639:2645   */\n      0x00\n        /* \"#utility.yul\":2647:2653   */\n      dup1\n        /* \"#utility.yul\":2696:2698   */\n      0x40\n        /* \"#utility.yul\":2684:2693   */\n      dup4\n        /* \"#utility.yul\":2675:2682   */\n      dup6\n        /* \"#utility.yul\":2671:2694   */\n      sub\n        /* \"#utility.yul\":2667:2699   */\n      slt\n        /* \"#utility.yul\":2664:2783   */\n      iszero\n      tag_124\n      jumpi\n        /* \"#utility.yul\":2702:2781   */\n      tag_125\n      tag_72\n      jump\t// in\n    tag_125:\n        /* \"#utility.yul\":2664:2783   */\n    tag_124:\n        /* \"#utility.yul\":2822:2823   */\n      0x00\n        /* \"#utility.yul\":2847:2900   */\n      tag_126\n        /* \"#utility.yul\":2892:2899   */\n      dup6\n        /* \"#utility.yul\":2883:2889   */\n      dup3\n        /* \"#utility.yul\":2872:2881   */\n      dup7\n        /* \"#utility.yul\":2868:2890   */\n      add\n        /* \"#utility.yul\":2847:2900   */\n      tag_82\n      jump\t// in\n    tag_126:\n        /* \"#utility.yul\":2837:2900   */\n      swap3\n      pop\n        /* \"#utility.yul\":2793:2910   */\n      pop\n        /* \"#utility.yul\":2949:2951   */\n      0x20\n        /* \"#utility.yul\":2975:3028   */\n      tag_127\n        /* \"#utility.yul\":3020:3027   */\n      dup6\n        /* \"#utility.yul\":3011:3017   */\n      dup3\n        /* \"#utility.yul\":3000:3009   */\n      dup7\n        /* \"#utility.yul\":2996:3018   */\n      add\n        /* \"#utility.yul\":2975:3028   */\n      tag_76\n      jump\t// in\n    tag_127:\n        /* \"#utility.yul\":2965:3028   */\n      swap2\n      pop\n        /* \"#utility.yul\":2920:3038   */\n      pop\n        /* \"#utility.yul\":2571:3045   */\n      swap3\n      pop\n      swap3\n      swap1\n      pop\n      jump\t// out\n        /* \"#utility.yul\":3051:3141   */\n    tag_83:\n        /* \"#utility.yul\":3085:3092   */\n      0x00\n        /* \"#utility.yul\":3128:3133   */\n      dup2\n        /* \"#utility.yul\":3121:3134   */\n      iszero\n        /* \"#utility.yul\":3114:3135   */\n      iszero\n        /* \"#utility.yul\":3103:3135   */\n      swap1\n      pop\n        /* \"#utility.yul\":3051:3141   */\n      swap2\n      swap1\n      pop\n      jump\t// out\n        /* \"#utility.yul\":3147:3256   */\n    tag_84:\n        /* \"#utility.yul\":3228:3249   */\n      tag_130\n        /* \"#utility.yul\":3243:3248   */\n      dup2\n        /* \"#utility.yul\":3228:3249   */\n      tag_83\n      jump\t// in\n    tag_130:\n        /* \"#utility.yul\":3223:3226   */\n      dup3\n        /* \"#utility.yul\":3216:3250   */\n      mstore\n        /* \"#utility.yul\":3147:3256   */\n      pop\n      pop\n      jump\t// out\n        /* \"#utility.yul\":3262:3472   */\n    tag_41:\n        /* \"#utility.yul\":3349:3353   */\n      0x00\n        /* \"#utility.yul\":3387:3389   */\n      0x20\n        /* \"#utility.yul\":3376:3385   */\n      dup3\n        /* \"#utility.yul\":3372:3390   */\n      add\n        /* \"#utility.yul\":3364:3390   */\n      swap1\n      pop\n        /* \"#utility.yul\":3400:3465   */\n      tag_132\n        /* \"#utility.yul\":3462:3463   */\n      0x00\n        /* \"#utility.yul\":3451:3460   */\n      dup4\n        /* \"#utility.yul\":3447:3464   */\n      add\n        /* \"#utility.yul\":3438:3444   */\n      dup5\n        /* \"#utility.yul\":3400:3465   */\n      tag_84\n      jump\t// in\n    tag_132:\n        /* \"#utility.yul\":3262:3472   */\n      swap3\n      swap2\n      pop\n      pop\n      jump\t// out\n        /* \"#utility.yul\":3478:3658   */\n    tag_55:\n        /* \"#utility.yul\":3526:3603   */\n      0x4e487b7100000000000000000000000000000000000000000000000000000000\n        /* \"#utility.yul\":3523:3524   */\n      0x00\n        /* \"#utility.yul\":3516:3604   */\n      mstore\n        /* \"#utility.yul\":3623:3627   */\n      0x32\n        /* \"#utility.yul\":3620:3621   */\n      0x04\n        /* \"#utility.yul\":3613:3628   */\n      mstore\n        /* \"#utility.yul\":3647:3651   */\n      0x24\n        /* \"#utility.yul\":3644:3645   */\n      0x00\n        /* \"#utility.yul\":3637:3652   */\n      revert\n        /* \"#utility.yul\":3664:3844   */\n    tag_85:\n        /* \"#utility.yul\":3712:3789   */\n      0x4e487b7100000000000000000000000000000000000000000000000000000000\n        /* \"#utility.yul\":3709:3710   */\n      0x00\n        /* \"#utility.yul\":3702:3790   */\n      mstore\n        /* \"#utility.yul\":3809:3813   */\n      0x11\n        /* \"#utility.yul\":3806:3807   */\n      0x04\n        /* \"#utility.yul\":3799:3814   */\n      mstore\n        /* \"#utility.yul\":3833:3837   */\n      0x24\n        /* \"#utility.yul\":3830:3831   */\n      0x00\n        /* \"#utility.yul\":3823:3838   */\n      revert\n        /* \"#utility.yul\":3850:4044   */\n    tag_59:\n        /* \"#utility.yul\":3890:3894   */\n      0x00\n        /* \"#utility.yul\":3910:3930   */\n      tag_136\n        /* \"#utility.yul\":3928:3929   */\n      dup3\n        /* \"#utility.yul\":3910:3930   */\n      tag_74\n      jump\t// in\n    tag_136:\n        /* \"#utility.yul\":3905:3930   */\n      swap2\n      pop\n        /* \"#utility.yul\":3944:3964   */\n      tag_137\n        /* \"#utility.yul\":3962:3963   */\n      dup4\n        /* \"#utility.yul\":3944:3964   */\n      tag_74\n      jump\t// in\n    tag_137:\n        /* \"#utility.yul\":3939:3964   */\n      swap3\n      pop\n        /* \"#utility.yul\":3988:3989   */\n      dup3\n        /* \"#utility.yul\":3985:3986   */\n      dup3\n        /* \"#utility.yul\":3981:3990   */\n      sub\n        /* \"#utility.yul\":3973:3990   */\n      swap1\n      pop\n        /* \"#utility.yul\":4012:4013   */\n      dup2\n        /* \"#utility.yul\":4006:4010   */\n      dup2\n        /* \"#utility.yul\":4003:4014   */\n      gt\n        /* \"#utility.yul\":4000:4037   */\n      iszero\n      tag_138\n      jumpi\n        /* \"#utility.yul\":4017:4035   */\n      tag_139\n      tag_85\n      jump\t// in\n    tag_139:\n        /* \"#utility.yul\":4000:4037   */\n    tag_138:\n        /* \"#utility.yul\":3850:4044   */\n      swap3\n      swap2\n      pop\n      pop\n      jump\t// out\n        /* \"#utility.yul\":4050:4219   */\n    tag_86:\n        /* \"#utility.yul\":4134:4145   */\n      0x00\n        /* \"#utility.yul\":4168:4174   */\n      dup3\n        /* \"#utility.yul\":4163:4166   */\n      dup3\n        /* \"#utility.yul\":4156:4175   */\n      mstore\n        /* \"#utility.yul\":4208:4212   */\n      0x20\n        /* \"#utility.yul\":4203:4206   */\n      dup3\n        /* \"#utility.yul\":4199:4213   */\n      add\n        /* \"#utility.yul\":4184:4213   */\n      swap1\n      pop\n        /* \"#utility.yul\":4050:4219   */\n      swap3\n      swap2\n      pop\n      pop\n      jump\t// out\n        /* \"#utility.yul\":4225:4394   */\n    tag_87:\n        /* \"#utility.yul\":4365:4386   */\n      0x696e646578206f7574206f6620626f756e647300000000000000000000000000\n        /* \"#utility.yul\":4361:4362   */\n      0x00\n        /* \"#utility.yul\":4353:4359   */\n      dup3\n        /* \"#utility.yul\":4349:4363   */\n      add\n        /* \"#utility.yul\":4342:4387   */\n      mstore\n        /* \"#utility.yul\":4225:4394   */\n      pop\n      jump\t// out\n        /* \"#utility.yul\":4400:4766   */\n    tag_88:\n        /* \"#utility.yul\":4542:4545   */\n      0x00\n        /* \"#utility.yul\":4563:4630   */\n      tag_143\n        /* \"#utility.yul\":4627:4629   */\n      0x13\n        /* \"#utility.yul\":4622:4625   */\n      dup4\n        /* \"#utility.yul\":4563:4630   */\n      tag_86\n      jump\t// in\n    tag_143:\n        /* \"#utility.yul\":4556:4630   */\n      swap2\n      pop\n        /* \"#utility.yul\":4639:4732   */\n      tag_144\n        /* \"#utility.yul\":4728:4731   */\n      dup3\n        /* \"#utility.yul\":4639:4732   */\n      tag_87\n      jump\t// in\n    tag_144:\n        /* \"#utility.yul\":4757:4759   */\n      0x20\n        /* \"#utility.yul\":4752:4755   */\n      dup3\n        /* \"#utility.yul\":4748:4760   */\n      add\n        /* \"#utility.yul\":4741:4760   */\n      swap1\n      pop\n        /* \"#utility.yul\":4400:4766   */\n      swap2\n      swap1\n      pop\n      jump\t// out\n        /* \"#utility.yul\":4772:5191   */\n    tag_67:\n        /* \"#utility.yul\":4938:4942   */\n      0x00\n        /* \"#utility.yul\":4976:4978   */\n      0x20\n        /* \"#utility.yul\":4965:4974   */\n      dup3\n        /* \"#utility.yul\":4961:4979   */\n      add\n        /* \"#utility.yul\":4953:4979   */\n      swap1\n      pop\n        /* \"#utility.yul\":5025:5034   */\n      dup2\n        /* \"#utility.yul\":5019:5023   */\n      dup2\n        /* \"#utility.yul\":5015:5035   */\n      sub\n        /* \"#utility.yul\":5011:5012   */\n      0x00\n        /* \"#utility.yul\":5000:5009   */\n      dup4\n        /* \"#utility.yul\":4996:5013   */\n      add\n        /* \"#utility.yul\":4989:5036   */\n      mstore\n        /* \"#utility.yul\":5053:5184   */\n      tag_146\n        /* \"#utility.yul\":5179:5183   */\n      dup2\n        /* \"#utility.yul\":5053:5184   */\n      tag_88\n      jump\t// in\n    tag_146:\n        /* \"#utility.yul\":5045:5184   */\n      swap1\n      pop\n        /* \"#utility.yul\":4772:5191   */\n      swap2\n      swap1\n      pop\n      jump\t// out\n\n    auxdata: 0xa2646970667358221220920db0320e49d12b715116e142a360529f5e0bdfa9fc883ffce735b17ee4bbc764736f6c63430008110033\n}\n",
				"bytecode": {
					"linkReferences": {},
					"object": "608060405234801561001057600080fd5b50610890806100206000396000f3fe608060405234801561001057600080fd5b50600436106100885760003560e01c80633df4ddf41161005b5780633df4ddf41461012757806347799da8146101455780637cd380f1146101635780639507d39a1461019357610088565b80630cb6aaf11461008d5780631f7b6d32146100bd57806327e235e3146100db5780633825d8281461010b575b600080fd5b6100a760048036038101906100a291906105c9565b6101c3565b6040516100b49190610637565b60405180910390f35b6100c5610202565b6040516100d29190610661565b60405180910390f35b6100f560048036038101906100f091906106a8565b61020f565b6040516101029190610661565b60405180910390f35b610125600480360381019061012091906106d5565b610227565b005b61012f61037a565b60405161013c9190610661565b60405180910390f35b61014d6103ff565b60405161015a9190610661565b60405180910390f35b61017d600480360381019061017891906106a8565b610494565b60405161018a9190610730565b60405180910390f35b6101ad60048036038101906101a891906105c9565b6104b4565b6040516101ba9190610661565b60405180910390f35b600281815481106101d357600080fd5b906000526020600020016000915054906101000a900473ffffffffffffffffffffffffffffffffffffffff1681565b6000600280549050905090565b60006020528060005260406000206000915090505481565b806000808473ffffffffffffffffffffffffffffffffffffffff1673ffffffffffffffffffffffffffffffffffffffff16815260200190815260200160002081905550600160008373ffffffffffffffffffffffffffffffffffffffff1673ffffffffffffffffffffffffffffffffffffffff16815260200190815260200160002060009054906101000a900460ff166103765760018060008473ffffffffffffffffffffffffffffffffffffffff1673ffffffffffffffffffffffffffffffffffffffff16815260200190815260200160002060006101000a81548160ff0219169083151502179055506002829080600181540180825580915050600190039060005260206000200160009091909190916101000a81548173ffffffffffffffffffffffffffffffffffffffff021916908373ffffffffffffffffffffffffffffffffffffffff1602179055505b5050565b600080600060026000815481106103945761039361074b565b5b9060005260206000200160009054906101000a900473ffffffffffffffffffffffffffffffffffffffff1673ffffffffffffffffffffffffffffffffffffffff1673ffffffffffffffffffffffffffffffffffffffff16815260200190815260200160002054905090565b60008060006002600160028054905061041891906107a9565b815481106104295761042861074b565b5b9060005260206000200160009054906101000a900473ffffffffffffffffffffffffffffffffffffffff1673ffffffffffffffffffffffffffffffffffffffff1673ffffffffffffffffffffffffffffffffffffffff16815260200190815260200160002054905090565b60016020528060005260406000206000915054906101000a900460ff1681565b600060016002805490506104c891906107a9565b82111561050a576040517f08c379a00000000000000000000000000000000000000000000000000000000081526004016105019061083a565b60405180910390fd5b600080600284815481106105215761052061074b565b5b9060005260206000200160009054906101000a900473ffffffffffffffffffffffffffffffffffffffff1673ffffffffffffffffffffffffffffffffffffffff1673ffffffffffffffffffffffffffffffffffffffff168152602001908152602001600020549050919050565b600080fd5b6000819050919050565b6105a681610593565b81146105b157600080fd5b50565b6000813590506105c38161059d565b92915050565b6000602082840312156105df576105de61058e565b5b60006105ed848285016105b4565b91505092915050565b600073ffffffffffffffffffffffffffffffffffffffff82169050919050565b6000610621826105f6565b9050919050565b61063181610616565b82525050565b600060208201905061064c6000830184610628565b92915050565b61065b81610593565b82525050565b60006020820190506106766000830184610652565b92915050565b61068581610616565b811461069057600080fd5b50565b6000813590506106a28161067c565b92915050565b6000602082840312156106be576106bd61058e565b5b60006106cc84828501610693565b91505092915050565b600080604083850312156106ec576106eb61058e565b5b60006106fa85828601610693565b925050602061070b858286016105b4565b9150509250929050565b60008115159050919050565b61072a81610715565b82525050565b60006020820190506107456000830184610721565b92915050565b7f4e487b7100000000000000000000000000000000000000000000000000000000600052603260045260246000fd5b7f4e487b7100000000000000000000000000000000000000000000000000000000600052601160045260246000fd5b60006107b482610593565b91506107bf83610593565b92508282039050818111156107d7576107d661077a565b5b92915050565b600082825260208201905092915050565b7f696e646578206f7574206f6620626f756e647300000000000000000000000000600082015250565b60006108246013836107dd565b915061082f826107ee565b602082019050919050565b6000602082019050818103600083015261085381610817565b905091905056fea2646970667358221220920db0320e49d12b715116e142a360529f5e0bdfa9fc883ffce735b17ee4bbc764736f6c63430008110033",
					"opcodes": "PUSH1 0x80 PUSH1 0x40 MSTORE CALLVALUE DUP1 ISZERO PUSH2 0x10 JUMPI PUSH1 0x0 DUP1 REVERT JUMPDEST POP PUSH2 0x890 DUP1 PUSH2 0x20 PUSH1 0x0 CODECOPY PUSH1 0x0 RETURN INVALID PUSH1 0x80 PUSH1 0x40 MSTORE CALLVALUE DUP1 ISZERO PUSH2 0x10 JUMPI PUSH1 0x0 DUP1 REVERT JUMPDEST POP PUSH1 0x4 CALLDATASIZE LT PUSH2 0x88 JUMPI PUSH1 0x0 CALLDATALOAD PUSH1 0xE0 SHR DUP1 PUSH4 0x3DF4DDF4 GT PUSH2 0x5B JUMPI DUP1 PUSH4 0x3DF4DDF4 EQ PUSH2 0x127 JUMPI DUP1 PUSH4 0x47799DA8 EQ PUSH2 0x145 JUMPI DUP1 PUSH4 0x7CD380F1 EQ PUSH2 0x163 JUMPI DUP1 PUSH4 0x9507D39A EQ PUSH2 0x193 JUMPI PUSH2 0x88 JUMP JUMPDEST DUP1 PUSH4 0xCB6AAF1 EQ PUSH2 0x8D JUMPI DUP1 PUSH4 0x1F7B6D32 EQ PUSH2 0xBD JUMPI DUP1 PUSH4 0x27E235E3 EQ PUSH2 0xDB JUMPI DUP1 PUSH4 0x3825D828 EQ PUSH2 0x10B JUMPI JUMPDEST PUSH1 0x0 DUP1 REVERT JUMPDEST PUSH2 0xA7 PUSH1 0x4 DUP1 CALLDATASIZE SUB DUP2 ADD SWAP1 PUSH2 0xA2 SWAP2 SWAP1 PUSH2 0x5C9 JUMP JUMPDEST PUSH2 0x1C3 JUMP JUMPDEST PUSH1 0x40 MLOAD PUSH2 0xB4 SWAP2 SWAP1 PUSH2 0x637 JUMP JUMPDEST PUSH1 0x40 MLOAD DUP1 SWAP2 SUB SWAP1 RETURN JUMPDEST PUSH2 0xC5 PUSH2 0x202 JUMP JUMPDEST PUSH1 0x40 MLOAD PUSH2 0xD2 SWAP2 SWAP1 PUSH2 0x661 JUMP JUMPDEST PUSH1 0x40 MLOAD DUP1 SWAP2 SUB SWAP1 RETURN JUMPDEST PUSH2 0xF5 PUSH1 0x4 DUP1 CALLDATASIZE SUB DUP2 ADD SWAP1 PUSH2 0xF0 SWAP2 SWAP1 PUSH2 0x6A8 JUMP JUMPDEST PUSH2 0x20F JUMP JUMPDEST PUSH1 0x40 MLOAD PUSH2 0x102 SWAP2 SWAP1 PUSH2 0x661 JUMP JUMPDEST PUSH1 0x40 MLOAD DUP1 SWAP2 SUB SWAP1 RETURN JUMPDEST PUSH2 0x125 PUSH1 0x4 DUP1 CALLDATASIZE SUB DUP2 ADD SWAP1 PUSH2 0x120 SWAP2 SWAP1 PUSH2 0x6D5 JUMP JUMPDEST PUSH2 0x227 JUMP JUMPDEST STOP JUMPDEST PUSH2 0x12F PUSH2 0x37A JUMP JUMPDEST PUSH1 0x40 MLOAD PUSH2 0x13C SWAP2 SWAP1 PUSH2 0x661 JUMP JUMPDEST PUSH1 0x40 MLOAD DUP1 SWAP2 SUB SWAP1 RETURN JUMPDEST PUSH2 0x14D PUSH2 0x3FF JUMP JUMPDEST PUSH1 0x40 MLOAD PUSH2 0x15A SWAP2 SWAP1 PUSH2 0x661 JUMP JUMPDEST PUSH1 0x40 MLOAD DUP1 SWAP2 SUB SWAP1 RETURN JUMPDEST PUSH2 0x17D PUSH1 0x4 DUP1 CALLDATASIZE SUB DUP2 ADD SWAP1 PUSH2 0x178 SWAP2 SWAP1 PUSH2 0x6A8 JUMP JUMPDEST PUSH2 0x494 JUMP JUMPDEST PUSH1 0x40 MLOAD PUSH2 0x18A SWAP2 SWAP1 PUSH2 0x730 JUMP JUMPDEST PUSH1 0x40 MLOAD DUP1 SWAP2 SUB SWAP1 RETURN JUMPDEST PUSH2 0x1AD PUSH1 0x4 DUP1 CALLDATASIZE SUB DUP2 ADD SWAP1 PUSH2 0x1A8 SWAP2 SWAP1 PUSH2 0x5C9 JUMP JUMPDEST PUSH2 0x4B4 JUMP JUMPDEST PUSH1 0x40 MLOAD PUSH2 0x1BA SWAP2 SWAP1 PUSH2 0x661 JUMP JUMPDEST PUSH1 0x40 MLOAD DUP1 SWAP2 SUB SWAP1 RETURN JUMPDEST PUSH1 0x2 DUP2 DUP2 SLOAD DUP2 LT PUSH2 0x1D3 JUMPI PUSH1 0x0 DUP1 REVERT JUMPDEST SWAP1 PUSH1 0x0 MSTORE PUSH1 0x20 PUSH1 0x0 KECCAK256 ADD PUSH1 0x0 SWAP2 POP SLOAD SWAP1 PUSH2 0x100 EXP SWAP1 DIV PUSH20 0xFFFFFFFFFFFFFFFFFFFFFFFFFFFFFFFFFFFFFFFF AND DUP2 JUMP JUMPDEST PUSH1 0x0 PUSH1 0x2 DUP1 SLOAD SWAP1 POP SWAP1 POP SWAP1 JUMP JUMPDEST PUSH1 0x0 PUSH1 0x20 MSTORE DUP1 PUSH1 0x0 MSTORE PUSH1 0x40 PUSH1 0x0 KECCAK256 PUSH1 0x0 SWAP2 POP SWAP1 POP SLOAD DUP2 JUMP JUMPDEST DUP1 PUSH1 0x0 DUP1 DUP5 PUSH20 0xFFFFFFFFFFFFFFFFFFFFFFFFFFFFFFFFFFFFFFFF AND PUSH20 0xFFFFFFFFFFFFFFFFFFFFFFFFFFFFFFFFFFFFFFFF AND DUP2 MSTORE PUSH1 0x20 ADD SWAP1 DUP2 MSTORE PUSH1 0x20 ADD PUSH1 0x0 KECCAK256 DUP2 SWAP1 SSTORE POP PUSH1 0x1 PUSH1 0x0 DUP4 PUSH20 0xFFFFFFFFFFFFFFFFFFFFFFFFFFFFFFFFFFFFFFFF AND PUSH20 0xFFFFFFFFFFFFFFFFFFFFFFFFFFFFFFFFFFFFFFFF AND DUP2 MSTORE PUSH1 0x20 ADD SWAP1 DUP2 MSTORE PUSH1 0x20 ADD PUSH1 0x0 KECCAK256 PUSH1 0x0 SWAP1 SLOAD SWAP1 PUSH2 0x100 EXP SWAP1 DIV PUSH1 0xFF AND PUSH2 0x376 JUMPI PUSH1 0x1 DUP1 PUSH1 0x0 DUP5 PUSH20 0xFFFFFFFFFFFFFFFFFFFFFFFFFFFFFFFFFFFFFFFF AND PUSH20 0xFFFFFFFFFFFFFFFFFFFFFFFFFFFFFFFFFFFFFFFF AND DUP2 MSTORE PUSH1 0x20 ADD SWAP1 DUP2 MSTORE PUSH1 0x20 ADD PUSH1 0x0 KECCAK256 PUSH1 0x0 PUSH2 0x100 EXP DUP2 SLOAD DUP2 PUSH1 0xFF MUL NOT AND SWAP1 DUP4 ISZERO ISZERO MUL OR SWAP1 SSTORE POP PUSH1 0x2 DUP3 SWAP1 DUP1 PUSH1 0x1 DUP2 SLOAD ADD DUP1 DUP3 SSTORE DUP1 SWAP2 POP POP PUSH1 0x1 SWAP1 SUB SWAP1 PUSH1 0x0 MSTORE PUSH1 0x20 PUSH1 0x0 KECCAK256 ADD PUSH1 0x0 SWAP1 SWAP2 SWAP1 SWAP2 SWAP1 SWAP2 PUSH2 0x100 EXP DUP2 SLOAD DUP2 PUSH20 0xFFFFFFFFFFFFFFFFFFFFFFFFFFFFFFFFFFFFFFFF MUL NOT AND SWAP1 DUP4 PUSH20 0xFFFFFFFFFFFFFFFFFFFFFFFFFFFFFFFFFFFFFFFF AND MUL OR SWAP1 SSTORE POP JUMPDEST POP POP JUMP JUMPDEST PUSH1 0x0 DUP1 PUSH1 0x0 PUSH1 0x2 PUSH1 0x0 DUP2 SLOAD DUP2 LT PUSH2 0x394 JUMPI PUSH2 0x393 PUSH2 0x74B JUMP JUMPDEST JUMPDEST SWAP1 PUSH1 0x0 MSTORE PUSH1 0x20 PUSH1 0x0 KECCAK256 ADD PUSH1 0x0 SWAP1 SLOAD SWAP1 PUSH2 0x100 EXP SWAP1 DIV PUSH20 0xFFFFFFFFFFFFFFFFFFFFFFFFFFFFFFFFFFFFFFFF AND PUSH20 0xFFFFFFFFFFFFFFFFFFFFFFFFFFFFFFFFFFFFFFFF AND PUSH20 0xFFFFFFFFFFFFFFFFFFFFFFFFFFFFFFFFFFFFFFFF AND DUP2 MSTORE PUSH1 0x20 ADD SWAP1 DUP2 MSTORE PUSH1 0x20 ADD PUSH1 0x0 KECCAK256 SLOAD SWAP1 POP SWAP1 JUMP JUMPDEST PUSH1 0x0 DUP1 PUSH1 0x0 PUSH1 0x2 PUSH1 0x1 PUSH1 0x2 DUP1 SLOAD SWAP1 POP PUSH2 0x418 SWAP2 SWAP1 PUSH2 0x7A9 JUMP JUMPDEST DUP2 SLOAD DUP2 LT PUSH2 0x429 JUMPI PUSH2 0x428 PUSH2 0x74B JUMP JUMPDEST JUMPDEST SWAP1 PUSH1 0x0 MSTORE PUSH1 0x20 PUSH1 0x0 KECCAK256 ADD PUSH1 0x0 SWAP1 SLOAD SWAP1 PUSH2 0x100 EXP SWAP1 DIV PUSH20 0xFFFFFFFFFFFFFFFFFFFFFFFFFFFFFFFFFFFFFFFF AND PUSH20 0xFFFFFFFFFFFFFFFFFFFFFFFFFFFFFFFFFFFFFFFF AND PUSH20 0xFFFFFFFFFFFFFFFFFFFFFFFFFFFFFFFFFFFFFFFF AND DUP2 MSTORE PUSH1 0x20 ADD SWAP1 DUP2 MSTORE PUSH1 0x20 ADD PUSH1 0x0 KECCAK256 SLOAD SWAP1 POP SWAP1 JUMP JUMPDEST PUSH1 0x1 PUSH1 0x20 MSTORE DUP1 PUSH1 0x0 MSTORE PUSH1 0x40 PUSH1 0x0 KECCAK256 PUSH1 0x0 SWAP2 POP SLOAD SWAP1 PUSH2 0x100 EXP SWAP1 DIV PUSH1 0xFF AND DUP2 JUMP JUMPDEST PUSH1 0x0 PUSH1 0x1 PUSH1 0x2 DUP1 SLOAD SWAP1 POP PUSH2 0x4C8 SWAP2 SWAP1 PUSH2 0x7A9 JUMP JUMPDEST DUP3 GT ISZERO PUSH2 0x50A JUMPI PUSH1 0x40 MLOAD PUSH32 0x8C379A000000000000000000000000000000000000000000000000000000000 DUP2 MSTORE PUSH1 0x4 ADD PUSH2 0x501 SWAP1 PUSH2 0x83A JUMP JUMPDEST PUSH1 0x40 MLOAD DUP1 SWAP2 SUB SWAP1 REVERT JUMPDEST PUSH1 0x0 DUP1 PUSH1 0x2 DUP5 DUP2 SLOAD DUP2 LT PUSH2 0x521 JUMPI PUSH2 0x520 PUSH2 0x74B JUMP JUMPDEST JUMPDEST SWAP1 PUSH1 0x0 MSTORE PUSH1 0x20 PUSH1 0x0 KECCAK256 ADD PUSH1 0x0 SWAP1 SLOAD SWAP1 PUSH2 0x100 EXP SWAP1 DIV PUSH20 0xFFFFFFFFFFFFFFFFFFFFFFFFFFFFFFFFFFFFFFFF AND PUSH20 0xFFFFFFFFFFFFFFFFFFFFFFFFFFFFFFFFFFFFFFFF AND PUSH20 0xFFFFFFFFFFFFFFFFFFFFFFFFFFFFFFFFFFFFFFFF AND DUP2 MSTORE PUSH1 0x20 ADD SWAP1 DUP2 MSTORE PUSH1 0x20 ADD PUSH1 0x0 KECCAK256 SLOAD SWAP1 POP SWAP2 SWAP1 POP JUMP JUMPDEST PUSH1 0x0 DUP1 REVERT JUMPDEST PUSH1 0x0 DUP2 SWAP1 POP SWAP2 SWAP1 POP JUMP JUMPDEST PUSH2 0x5A6 DUP2 PUSH2 0x593 JUMP JUMPDEST DUP2 EQ PUSH2 0x5B1 JUMPI PUSH1 0x0 DUP1 REVERT JUMPDEST POP JUMP JUMPDEST PUSH1 0x0 DUP2 CALLDATALOAD SWAP1 POP PUSH2 0x5C3 DUP2 PUSH2 0x59D JUMP JUMPDEST SWAP3 SWAP2 POP POP JUMP JUMPDEST PUSH1 0x0 PUSH1 0x20 DUP3 DUP5 SUB SLT ISZERO PUSH2 0x5DF JUMPI PUSH2 0x5DE PUSH2 0x58E JUMP JUMPDEST JUMPDEST PUSH1 0x0 PUSH2 0x5ED DUP5 DUP3 DUP6 ADD PUSH2 0x5B4 JUMP JUMPDEST SWAP2 POP POP SWAP3 SWAP2 POP POP JUMP JUMPDEST PUSH1 0x0 PUSH20 0xFFFFFFFFFFFFFFFFFFFFFFFFFFFFFFFFFFFFFFFF DUP3 AND SWAP1 POP SWAP2 SWAP1 POP JUMP JUMPDEST PUSH1 0x0 PUSH2 0x621 DUP3 PUSH2 0x5F6 JUMP JUMPDEST SWAP1 POP SWAP2 SWAP1 POP JUMP JUMPDEST PUSH2 0x631 DUP2 PUSH2 0x616 JUMP JUMPDEST DUP3 MSTORE POP POP JUMP JUMPDEST PUSH1 0x0 PUSH1 0x20 DUP3 ADD SWAP1 POP PUSH2 0x64C PUSH1 0x0 DUP4 ADD DUP5 PUSH2 0x628 JUMP JUMPDEST SWAP3 SWAP2 POP POP JUMP JUMPDEST PUSH2 0x65B DUP2 PUSH2 0x593 JUMP JUMPDEST DUP3 MSTORE POP POP JUMP JUMPDEST PUSH1 0x0 PUSH1 0x20 DUP3 ADD SWAP1 POP PUSH2 0x676 PUSH1 0x0 DUP4 ADD DUP5 PUSH2 0x652 JUMP JUMPDEST SWAP3 SWAP2 POP POP JUMP JUMPDEST PUSH2 0x685 DUP2 PUSH2 0x616 JUMP JUMPDEST DUP2 EQ PUSH2 0x690 JUMPI PUSH1 0x0 DUP1 REVERT JUMPDEST POP JUMP JUMPDEST PUSH1 0x0 DUP2 CALLDATALOAD SWAP1 POP PUSH2 0x6A2 DUP2 PUSH2 0x67C JUMP JUMPDEST SWAP3 SWAP2 POP POP JUMP JUMPDEST PUSH1 0x0 PUSH1 0x20 DUP3 DUP5 SUB SLT ISZERO PUSH2 0x6BE JUMPI PUSH2 0x6BD PUSH2 0x58E JUMP JUMPDEST JUMPDEST PUSH1 0x0 PUSH2 0x6CC DUP5 DUP3 DUP6 ADD PUSH2 0x693 JUMP JUMPDEST SWAP2 POP POP SWAP3 SWAP2 POP POP JUMP JUMPDEST PUSH1 0x0 DUP1 PUSH1 0x40 DUP4 DUP6 SUB SLT ISZERO PUSH2 0x6EC JUMPI PUSH2 0x6EB PUSH2 0x58E JUMP JUMPDEST JUMPDEST PUSH1 0x0 PUSH2 0x6FA DUP6 DUP3 DUP7 ADD PUSH2 0x693 JUMP JUMPDEST SWAP3 POP POP PUSH1 0x20 PUSH2 0x70B DUP6 DUP3 DUP7 ADD PUSH2 0x5B4 JUMP JUMPDEST SWAP2 POP POP SWAP3 POP SWAP3 SWAP1 POP JUMP JUMPDEST PUSH1 0x0 DUP2 ISZERO ISZERO SWAP1 POP SWAP2 SWAP1 POP JUMP JUMPDEST PUSH2 0x72A DUP2 PUSH2 0x715 JUMP JUMPDEST DUP3 MSTORE POP POP JUMP JUMPDEST PUSH1 0x0 PUSH1 0x20 DUP3 ADD SWAP1 POP PUSH2 0x745 PUSH1 0x0 DUP4 ADD DUP5 PUSH2 0x721 JUMP JUMPDEST SWAP3 SWAP2 POP POP JUMP JUMPDEST PUSH32 0x4E487B7100000000000000000000000000000000000000000000000000000000 PUSH1 0x0 MSTORE PUSH1 0x32 PUSH1 0x4 MSTORE PUSH1 0x24 PUSH1 0x0 REVERT JUMPDEST PUSH32 0x4E487B7100000000000000000000000000000000000000000000000000000000 PUSH1 0x0 MSTORE PUSH1 0x11 PUSH1 0x4 MSTORE PUSH1 0x24 PUSH1 0x0 REVERT JUMPDEST PUSH1 0x0 PUSH2 0x7B4 DUP3 PUSH2 0x593 JUMP JUMPDEST SWAP2 POP PUSH2 0x7BF DUP4 PUSH2 0x593 JUMP JUMPDEST SWAP3 POP DUP3 DUP3 SUB SWAP1 POP DUP2 DUP2 GT ISZERO PUSH2 0x7D7 JUMPI PUSH2 0x7D6 PUSH2 0x77A JUMP JUMPDEST JUMPDEST SWAP3 SWAP2 POP POP JUMP JUMPDEST PUSH1 0x0 DUP3 DUP3 MSTORE PUSH1 0x20 DUP3 ADD SWAP1 POP SWAP3 SWAP2 POP POP JUMP JUMPDEST PUSH32 0x696E646578206F7574206F6620626F756E647300000000000000000000000000 PUSH1 0x0 DUP3 ADD MSTORE POP JUMP JUMPDEST PUSH1 0x0 PUSH2 0x824 PUSH1 0x13 DUP4 PUSH2 0x7DD JUMP JUMPDEST SWAP2 POP PUSH2 0x82F DUP3 PUSH2 0x7EE JUMP JUMPDEST PUSH1 0x20 DUP3 ADD SWAP1 POP SWAP2 SWAP1 POP JUMP JUMPDEST PUSH1 0x0 PUSH1 0x20 DUP3 ADD SWAP1 POP DUP2 DUP2 SUB PUSH1 0x0 DUP4 ADD MSTORE PUSH2 0x853 DUP2 PUSH2 0x817 JUMP JUMPDEST SWAP1 POP SWAP2 SWAP1 POP JUMP INVALID LOG2 PUSH5 0x6970667358 0x22 SLT KECCAK256 SWAP3 0xD 0xB0 ORIGIN 0xE 0x49 0xD1 0x2B PUSH18 0x5116E142A360529F5E0BDFA9FC883FFCE735 0xB1 PUSH31 0xE4BBC764736F6C634300081100330000000000000000000000000000000000 "
				},
				"gasEstimates": {
					"creation": {
						"codeDepositCost": "438400",
						"executionCost": "474",
						"totalCost": "438874"
					},
					"external": {
						"balances(address)": "2859",
						"first()": "6843",
						"get(uint256)": "infinite",
						"inserted(address)": "2889",
						"keys(uint256)": "4957",
						"last()": "infinite",
						"length()": "2468",
						"set(address,uint256)": "98078"
					}
				},
				"methodIdentifiers": {
					"balances(address)": "27e235e3",
					"first()": "3df4ddf4",
					"get(uint256)": "9507d39a",
					"inserted(address)": "7cd380f1",
					"keys(uint256)": "0cb6aaf1",
					"last()": "47799da8",
					"length()": "1f7b6d32",
					"set(address,uint256)": "3825d828"
				}
			},
			"storageLayout": {
				"storage": [
					{
						"astId": 5,
						"contract": "IterableMapping.sol:IterableMapping",
						"label": "balances",
						"offset": 0,
						"slot": "0",
						"type": "t_mapping(t_address,t_uint256)"
					},
					{
						"astId": 9,
						"contract": "IterableMapping.sol:IterableMapping",
						"label": "inserted",
						"offset": 0,
						"slot": "1",
						"type": "t_mapping(t_address,t_bool)"
					},
					{
						"astId": 12,
						"contract": "IterableMapping.sol:IterableMapping",
						"label": "keys",
						"offset": 0,
						"slot": "2",
						"type": "t_array(t_address)dyn_storage"
					}
				],
				"types": {
					"t_address": {
						"encoding": "inplace",
						"label": "address",
						"numberOfBytes": "20"
					},
					"t_array(t_address)dyn_storage": {
						"base": "t_address",
						"encoding": "dynamic_array",
						"label": "address[]",
						"numberOfBytes": "32"
					},
					"t_bool": {
						"encoding": "inplace",
						"label": "bool",
						"numberOfBytes": "1"
					},
					"t_mapping(t_address,t_bool)": {
						"encoding": "mapping",
						"key": "t_address",
						"label": "mapping(address => bool)",
						"numberOfBytes": "32",
						"value": "t_bool"
					},
					"t_mapping(t_address,t_uint256)": {
						"encoding": "mapping",
						"key": "t_address",
						"label": "mapping(address => uint256)",
						"numberOfBytes": "32",
						"value": "t_uint256"
					},
					"t_uint256": {
						"encoding": "inplace",
						"label": "uint256",
						"numberOfBytes": "32"
					}
				}
			},
			"userdoc": {
				"kind": "user",
				"methods": {},
				"version": 1
			}
		}
	}
}