{
	"StructTest.sol": {
		"StructTest": {
			"abi": [
				{
					"inputs": [],
					"name": "car",
					"outputs": [
						{
							"internalType": "string",
							"name": "name",
							"type": "string"
						},
						{
							"internalType": "uint256",
							"name": "year",
							"type": "uint256"
						},
						{
							"internalType": "address",
							"name": "owner",
							"type": "address"
						}
					],
					"stateMutability": "view",
					"type": "function"
				},
				{
					"inputs": [
						{
							"internalType": "uint256",
							"name": "",
							"type": "uint256"
						}
					],
					"name": "cars",
					"outputs": [
						{
							"internalType": "string",
							"name": "name",
							"type": "string"
						},
						{
							"internalType": "uint256",
							"name": "year",
							"type": "uint256"
						},
						{
							"internalType": "address",
							"name": "owner",
							"type": "address"
						}
					],
					"stateMutability": "view",
					"type": "function"
				},
				{
					"inputs": [],
					"name": "examples",
					"outputs": [],
					"stateMutability": "nonpayable",
					"type": "function"
				}
			],
			"devdoc": {
				"kind": "dev",
				"methods": {},
				"version": 1
			},
			"evm": {
				"assembly": "    /* \"StructTest.sol\":76:944  contract StructTest{... */\n  mstore(0x40, 0x80)\n  callvalue\n  dup1\n  iszero\n  tag_1\n  jumpi\n  0x00\n  dup1\n  revert\ntag_1:\n  pop\n  dataSize(sub_0)\n  dup1\n  dataOffset(sub_0)\n  0x00\n  codecopy\n  0x00\n  return\nstop\n\nsub_0: assembly {\n        /* \"StructTest.sol\":76:944  contract StructTest{... */\n      mstore(0x40, 0x80)\n      callvalue\n      dup1\n      iszero\n      tag_1\n      jumpi\n      0x00\n      dup1\n      revert\n    tag_1:\n      pop\n      jumpi(tag_2, lt(calldatasize, 0x04))\n      shr(0xe0, calldataload(0x00))\n      dup1\n      0x335d00c2\n      eq\n      tag_3\n      jumpi\n      dup1\n      0xee26fac3\n      eq\n      tag_4\n      jumpi\n      dup1\n      0xf7746e36\n      eq\n      tag_5\n      jumpi\n    tag_2:\n      0x00\n      dup1\n      revert\n        /* \"StructTest.sol\":275:942  function examples() external{... */\n    tag_3:\n      tag_6\n      tag_7\n      jump\t// in\n    tag_6:\n      stop\n        /* \"StructTest.sol\":231:245  Car public car */\n    tag_4:\n      tag_8\n      tag_9\n      jump\t// in\n    tag_8:\n      mload(0x40)\n      tag_10\n      swap4\n      swap3\n      swap2\n      swap1\n      tag_11\n      jump\t// in\n    tag_10:\n      mload(0x40)\n      dup1\n      swap2\n      sub\n      swap1\n      return\n        /* \"StructTest.sol\":251:268  Car[] public cars */\n    tag_5:\n      tag_12\n      0x04\n      dup1\n      calldatasize\n      sub\n      dup2\n      add\n      swap1\n      tag_13\n      swap2\n      swap1\n      tag_14\n      jump\t// in\n    tag_13:\n      tag_15\n      jump\t// in\n    tag_12:\n      mload(0x40)\n      tag_16\n      swap4\n      swap3\n      swap2\n      swap1\n      tag_11\n      jump\t// in\n    tag_16:\n      mload(0x40)\n      dup1\n      swap2\n      sub\n      swap1\n      return\n        /* \"StructTest.sol\":275:942  function examples() external{... */\n    tag_7:\n        /* \"StructTest.sol\":354:371  Car memory toyota */\n      0x00\n        /* \"StructTest.sol\":374:405  Car(\"Toyota\", 2000, msg.sender) */\n      mload(0x40)\n      dup1\n      0x60\n      add\n      0x40\n      mstore\n      dup1\n      mload(0x40)\n      dup1\n      0x40\n      add\n      0x40\n      mstore\n      dup1\n      0x06\n      dup2\n      mstore\n      0x20\n      add\n      0x546f796f74610000000000000000000000000000000000000000000000000000\n      dup2\n      mstore\n      pop\n      dup2\n      mstore\n      0x20\n      add\n        /* \"StructTest.sol\":388:392  2000 */\n      0x07d0\n        /* \"StructTest.sol\":374:405  Car(\"Toyota\", 2000, msg.sender) */\n      dup2\n      mstore\n      0x20\n      add\n        /* \"StructTest.sol\":394:404  msg.sender */\n      caller\n        /* \"StructTest.sol\":374:405  Car(\"Toyota\", 2000, msg.sender) */\n      0xffffffffffffffffffffffffffffffffffffffff\n      and\n      dup2\n      mstore\n      pop\n        /* \"StructTest.sol\":354:405  Car memory toyota = Car(\"Toyota\", 2000, msg.sender) */\n      swap1\n      pop\n        /* \"StructTest.sol\":415:429  Car memory bmw */\n      0x00\n        /* \"StructTest.sol\":432:481  Car({name: \"BMW\", year: 2022, owner: msg.sender}) */\n      mload(0x40)\n      dup1\n      0x60\n      add\n      0x40\n      mstore\n      dup1\n      mload(0x40)\n      dup1\n      0x40\n      add\n      0x40\n      mstore\n      dup1\n      0x03\n      dup2\n      mstore\n      0x20\n      add\n      0x424d570000000000000000000000000000000000000000000000000000000000\n      dup2\n      mstore\n      pop\n      dup2\n      mstore\n      0x20\n      add\n        /* \"StructTest.sol\":456:460  2022 */\n      0x07e6\n        /* \"StructTest.sol\":432:481  Car({name: \"BMW\", year: 2022, owner: msg.sender}) */\n      dup2\n      mstore\n      0x20\n      add\n        /* \"StructTest.sol\":469:479  msg.sender */\n      caller\n        /* \"StructTest.sol\":432:481  Car({name: \"BMW\", year: 2022, owner: msg.sender}) */\n      0xffffffffffffffffffffffffffffffffffffffff\n      and\n      dup2\n      mstore\n      pop\n        /* \"StructTest.sol\":415:481  Car memory bmw = Car({name: \"BMW\", year: 2022, owner: msg.sender}) */\n      swap1\n      pop\n        /* \"StructTest.sol\":491:507  Car memory tesla */\n      tag_18\n      tag_19\n      jump\t// in\n    tag_18:\n        /* \"StructTest.sol\":517:537  tesla.name = \"Tesla\" */\n      mload(0x40)\n      dup1\n      0x40\n      add\n      0x40\n      mstore\n      dup1\n      0x05\n      dup2\n      mstore\n      0x20\n      add\n      0x5465736c61000000000000000000000000000000000000000000000000000000\n      dup2\n      mstore\n      pop\n        /* \"StructTest.sol\":517:522  tesla */\n      dup2\n        /* \"StructTest.sol\":517:527  tesla.name */\n      0x00\n      add\n        /* \"StructTest.sol\":517:537  tesla.name = \"Tesla\" */\n      dup2\n      swap1\n      mstore\n      pop\n        /* \"StructTest.sol\":560:564  2021 */\n      0x07e5\n        /* \"StructTest.sol\":547:552  tesla */\n      dup2\n        /* \"StructTest.sol\":547:557  tesla.year */\n      0x20\n      add\n        /* \"StructTest.sol\":547:564  tesla.year = 2021 */\n      dup2\n      dup2\n      mstore\n      pop\n      pop\n        /* \"StructTest.sol\":588:598  msg.sender */\n      caller\n        /* \"StructTest.sol\":574:579  tesla */\n      dup2\n        /* \"StructTest.sol\":574:585  tesla.owner */\n      0x40\n      add\n        /* \"StructTest.sol\":574:598  tesla.owner = msg.sender */\n      swap1\n      0xffffffffffffffffffffffffffffffffffffffff\n      and\n      swap1\n      dup2\n      0xffffffffffffffffffffffffffffffffffffffff\n      and\n      dup2\n      mstore\n      pop\n      pop\n        /* \"StructTest.sol\":650:654  cars */\n      0x03\n        /* \"StructTest.sol\":660:666  toyota */\n      dup4\n        /* \"StructTest.sol\":650:667  cars.push(toyota) */\n      swap1\n      dup1\n      0x01\n      dup2\n      sload\n      add\n      dup1\n      dup3\n      sstore\n      dup1\n      swap2\n      pop\n      pop\n      0x01\n      swap1\n      sub\n      swap1\n      0x00\n      mstore\n      keccak256(0x00, 0x20)\n      swap1\n      0x03\n      mul\n      add\n      0x00\n      swap1\n      swap2\n      swap1\n      swap2\n      swap1\n      swap2\n      pop\n      0x00\n      dup3\n      add\n      mload\n      dup2\n      0x00\n      add\n      swap1\n      dup2\n      tag_21\n      swap2\n      swap1\n      tag_22\n      jump\t// in\n    tag_21:\n      pop\n      0x20\n      dup3\n      add\n      mload\n      dup2\n      0x01\n      add\n      sstore\n      0x40\n      dup3\n      add\n      mload\n      dup2\n      0x02\n      add\n      exp(0x0100, 0x00)\n      dup2\n      sload\n      dup2\n      0xffffffffffffffffffffffffffffffffffffffff\n      mul\n      not\n      and\n      swap1\n      dup4\n      0xffffffffffffffffffffffffffffffffffffffff\n      and\n      mul\n      or\n      swap1\n      sstore\n      pop\n      pop\n      pop\n        /* \"StructTest.sol\":677:681  cars */\n      0x03\n        /* \"StructTest.sol\":687:690  bmw */\n      dup3\n        /* \"StructTest.sol\":677:691  cars.push(bmw) */\n      swap1\n      dup1\n      0x01\n      dup2\n      sload\n      add\n      dup1\n      dup3\n      sstore\n      dup1\n      swap2\n      pop\n      pop\n      0x01\n      swap1\n      sub\n      swap1\n      0x00\n      mstore\n      keccak256(0x00, 0x20)\n      swap1\n      0x03\n      mul\n      add\n      0x00\n      swap1\n      swap2\n      swap1\n      swap2\n      swap1\n      swap2\n      pop\n      0x00\n      dup3\n      add\n      mload\n      dup2\n      0x00\n      add\n      swap1\n      dup2\n      tag_24\n      swap2\n      swap1\n      tag_22\n      jump\t// in\n    tag_24:\n      pop\n      0x20\n      dup3\n      add\n      mload\n      dup2\n      0x01\n      add\n      sstore\n      0x40\n      dup3\n      add\n      mload\n      dup2\n      0x02\n      add\n      exp(0x0100, 0x00)\n      dup2\n      sload\n      dup2\n      0xffffffffffffffffffffffffffffffffffffffff\n      mul\n      not\n      and\n      swap1\n      dup4\n      0xffffffffffffffffffffffffffffffffffffffff\n      and\n      mul\n      or\n      swap1\n      sstore\n      pop\n      pop\n      pop\n        /* \"StructTest.sol\":701:705  cars */\n      0x03\n        /* \"StructTest.sol\":711:716  tesla */\n      dup2\n        /* \"StructTest.sol\":701:717  cars.push(tesla) */\n      swap1\n      dup1\n      0x01\n      dup2\n      sload\n      add\n      dup1\n      dup3\n      sstore\n      dup1\n      swap2\n      pop\n      pop\n      0x01\n      swap1\n      sub\n      swap1\n      0x00\n      mstore\n      keccak256(0x00, 0x20)\n      swap1\n      0x03\n      mul\n      add\n      0x00\n      swap1\n      swap2\n      swap1\n      swap2\n      swap1\n      swap2\n      pop\n      0x00\n      dup3\n      add\n      mload\n      dup2\n      0x00\n      add\n      swap1\n      dup2\n      tag_26\n      swap2\n      swap1\n      tag_22\n      jump\t// in\n    tag_26:\n      pop\n      0x20\n      dup3\n      add\n      mload\n      dup2\n      0x01\n      add\n      sstore\n      0x40\n      dup3\n      add\n      mload\n      dup2\n      0x02\n      add\n      exp(0x0100, 0x00)\n      dup2\n      sload\n      dup2\n      0xffffffffffffffffffffffffffffffffffffffff\n      mul\n      not\n      and\n      swap1\n      dup4\n      0xffffffffffffffffffffffffffffffffffffffff\n      and\n      mul\n      or\n      swap1\n      sstore\n      pop\n      pop\n      pop\n        /* \"StructTest.sol\":781:785  cars */\n      0x03\n        /* \"StructTest.sol\":791:844  Car({name: \"ferrari\", owner: msg.sender, year: 2009}) */\n      mload(0x40)\n      dup1\n      0x60\n      add\n      0x40\n      mstore\n      dup1\n      mload(0x40)\n      dup1\n      0x40\n      add\n      0x40\n      mstore\n      dup1\n      0x07\n      dup2\n      mstore\n      0x20\n      add\n      0x6665727261726900000000000000000000000000000000000000000000000000\n      dup2\n      mstore\n      pop\n      dup2\n      mstore\n      0x20\n      add\n        /* \"StructTest.sol\":838:842  2009 */\n      0x07d9\n        /* \"StructTest.sol\":791:844  Car({name: \"ferrari\", owner: msg.sender, year: 2009}) */\n      dup2\n      mstore\n      0x20\n      add\n        /* \"StructTest.sol\":820:830  msg.sender */\n      caller\n        /* \"StructTest.sol\":791:844  Car({name: \"ferrari\", owner: msg.sender, year: 2009}) */\n      0xffffffffffffffffffffffffffffffffffffffff\n      and\n      dup2\n      mstore\n      pop\n        /* \"StructTest.sol\":781:845  cars.push(Car({name: \"ferrari\", owner: msg.sender, year: 2009})) */\n      swap1\n      dup1\n      0x01\n      dup2\n      sload\n      add\n      dup1\n      dup3\n      sstore\n      dup1\n      swap2\n      pop\n      pop\n      0x01\n      swap1\n      sub\n      swap1\n      0x00\n      mstore\n      keccak256(0x00, 0x20)\n      swap1\n      0x03\n      mul\n      add\n      0x00\n      swap1\n      swap2\n      swap1\n      swap2\n      swap1\n      swap2\n      pop\n      0x00\n      dup3\n      add\n      mload\n      dup2\n      0x00\n      add\n      swap1\n      dup2\n      tag_28\n      swap2\n      swap1\n      tag_22\n      jump\t// in\n    tag_28:\n      pop\n      0x20\n      dup3\n      add\n      mload\n      dup2\n      0x01\n      add\n      sstore\n      0x40\n      dup3\n      add\n      mload\n      dup2\n      0x02\n      add\n      exp(0x0100, 0x00)\n      dup2\n      sload\n      dup2\n      0xffffffffffffffffffffffffffffffffffffffff\n      mul\n      not\n      and\n      swap1\n      dup4\n      0xffffffffffffffffffffffffffffffffffffffff\n      and\n      mul\n      or\n      swap1\n      sstore\n      pop\n      pop\n      pop\n        /* \"StructTest.sol\":856:871  Car memory _car */\n      0x00\n        /* \"StructTest.sol\":874:878  cars */\n      0x03\n        /* \"StructTest.sol\":879:880  0 */\n      0x00\n        /* \"StructTest.sol\":874:881  cars[0] */\n      dup2\n      sload\n      dup2\n      lt\n      tag_29\n      jumpi\n      tag_30\n      tag_31\n      jump\t// in\n    tag_30:\n    tag_29:\n      swap1\n      0x00\n      mstore\n      keccak256(0x00, 0x20)\n      swap1\n      0x03\n      mul\n      add\n        /* \"StructTest.sol\":856:881  Car memory _car = cars[0] */\n      mload(0x40)\n      dup1\n      0x60\n      add\n      0x40\n      mstore\n      swap1\n      dup2\n      0x00\n      dup3\n      add\n      dup1\n      sload\n      tag_33\n      swap1\n      tag_34\n      jump\t// in\n    tag_33:\n      dup1\n      0x1f\n      add\n      0x20\n      dup1\n      swap2\n      div\n      mul\n      0x20\n      add\n      mload(0x40)\n      swap1\n      dup2\n      add\n      0x40\n      mstore\n      dup1\n      swap3\n      swap2\n      swap1\n      dup2\n      dup2\n      mstore\n      0x20\n      add\n      dup3\n      dup1\n      sload\n      tag_35\n      swap1\n      tag_34\n      jump\t// in\n    tag_35:\n      dup1\n      iszero\n      tag_36\n      jumpi\n      dup1\n      0x1f\n      lt\n      tag_37\n      jumpi\n      0x0100\n      dup1\n      dup4\n      sload\n      div\n      mul\n      dup4\n      mstore\n      swap2\n      0x20\n      add\n      swap2\n      jump(tag_36)\n    tag_37:\n      dup3\n      add\n      swap2\n      swap1\n      0x00\n      mstore\n      keccak256(0x00, 0x20)\n      swap1\n    tag_38:\n      dup2\n      sload\n      dup2\n      mstore\n      swap1\n      0x01\n      add\n      swap1\n      0x20\n      add\n      dup1\n      dup4\n      gt\n      tag_38\n      jumpi\n      dup3\n      swap1\n      sub\n      0x1f\n      and\n      dup3\n      add\n      swap2\n    tag_36:\n      pop\n      pop\n      pop\n      pop\n      pop\n      dup2\n      mstore\n      0x20\n      add\n      0x01\n      dup3\n      add\n      sload\n      dup2\n      mstore\n      0x20\n      add\n      0x02\n      dup3\n      add\n      0x00\n      swap1\n      sload\n      swap1\n      0x0100\n      exp\n      swap1\n      div\n      0xffffffffffffffffffffffffffffffffffffffff\n      and\n      0xffffffffffffffffffffffffffffffffffffffff\n      and\n      0xffffffffffffffffffffffffffffffffffffffff\n      and\n      dup2\n      mstore\n      pop\n      pop\n      swap1\n      pop\n        /* \"StructTest.sol\":891:909  _car.name = \"Benz\" */\n      mload(0x40)\n      dup1\n      0x40\n      add\n      0x40\n      mstore\n      dup1\n      0x04\n      dup2\n      mstore\n      0x20\n      add\n      0x42656e7a00000000000000000000000000000000000000000000000000000000\n      dup2\n      mstore\n      pop\n        /* \"StructTest.sol\":891:895  _car */\n      dup2\n        /* \"StructTest.sol\":891:900  _car.name */\n      0x00\n      add\n        /* \"StructTest.sol\":891:909  _car.name = \"Benz\" */\n      dup2\n      swap1\n      mstore\n      pop\n        /* \"StructTest.sol\":931:935  1999 */\n      0x07cf\n        /* \"StructTest.sol\":919:923  _car */\n      dup2\n        /* \"StructTest.sol\":919:928  _car.year */\n      0x20\n      add\n        /* \"StructTest.sol\":919:935  _car.year = 1999 */\n      dup2\n      dup2\n      mstore\n      pop\n      pop\n        /* \"StructTest.sol\":303:942  {... */\n      pop\n      pop\n      pop\n      pop\n        /* \"StructTest.sol\":275:942  function examples() external{... */\n      jump\t// out\n        /* \"StructTest.sol\":231:245  Car public car */\n    tag_9:\n      0x00\n      dup1\n      0x00\n      add\n      dup1\n      sload\n      tag_39\n      swap1\n      tag_34\n      jump\t// in\n    tag_39:\n      dup1\n      0x1f\n      add\n      0x20\n      dup1\n      swap2\n      div\n      mul\n      0x20\n      add\n      mload(0x40)\n      swap1\n      dup2\n      add\n      0x40\n      mstore\n      dup1\n      swap3\n      swap2\n      swap1\n      dup2\n      dup2\n      mstore\n      0x20\n      add\n      dup3\n      dup1\n      sload\n      tag_40\n      swap1\n      tag_34\n      jump\t// in\n    tag_40:\n      dup1\n      iszero\n      tag_41\n      jumpi\n      dup1\n      0x1f\n      lt\n      tag_42\n      jumpi\n      0x0100\n      dup1\n      dup4\n      sload\n      div\n      mul\n      dup4\n      mstore\n      swap2\n      0x20\n      add\n      swap2\n      jump(tag_41)\n    tag_42:\n      dup3\n      add\n      swap2\n      swap1\n      0x00\n      mstore\n      keccak256(0x00, 0x20)\n      swap1\n    tag_43:\n      dup2\n      sload\n      dup2\n      mstore\n      swap1\n      0x01\n      add\n      swap1\n      0x20\n      add\n      dup1\n      dup4\n      gt\n      tag_43\n      jumpi\n      dup3\n      swap1\n      sub\n      0x1f\n      and\n      dup3\n      add\n      swap2\n    tag_41:\n      pop\n      pop\n      pop\n      pop\n      pop\n      swap1\n      dup1\n      0x01\n      add\n      sload\n      swap1\n      dup1\n      0x02\n      add\n      0x00\n      swap1\n      sload\n      swap1\n      0x0100\n      exp\n      swap1\n      div\n      0xffffffffffffffffffffffffffffffffffffffff\n      and\n      swap1\n      pop\n      dup4\n      jump\t// out\n        /* \"StructTest.sol\":251:268  Car[] public cars */\n    tag_15:\n      0x03\n      dup2\n      dup2\n      sload\n      dup2\n      lt\n      tag_44\n      jumpi\n      0x00\n      dup1\n      revert\n    tag_44:\n      swap1\n      0x00\n      mstore\n      keccak256(0x00, 0x20)\n      swap1\n      0x03\n      mul\n      add\n      0x00\n      swap2\n      pop\n      swap1\n      pop\n      dup1\n      0x00\n      add\n      dup1\n      sload\n      tag_46\n      swap1\n      tag_34\n      jump\t// in\n    tag_46:\n      dup1\n      0x1f\n      add\n      0x20\n      dup1\n      swap2\n      div\n      mul\n      0x20\n      add\n      mload(0x40)\n      swap1\n      dup2\n      add\n      0x40\n      mstore\n      dup1\n      swap3\n      swap2\n      swap1\n      dup2\n      dup2\n      mstore\n      0x20\n      add\n      dup3\n      dup1\n      sload\n      tag_47\n      swap1\n      tag_34\n      jump\t// in\n    tag_47:\n      dup1\n      iszero\n      tag_48\n      jumpi\n      dup1\n      0x1f\n      lt\n      tag_49\n      jumpi\n      0x0100\n      dup1\n      dup4\n      sload\n      div\n      mul\n      dup4\n      mstore\n      swap2\n      0x20\n      add\n      swap2\n      jump(tag_48)\n    tag_49:\n      dup3\n      add\n      swap2\n      swap1\n      0x00\n      mstore\n      keccak256(0x00, 0x20)\n      swap1\n    tag_50:\n      dup2\n      sload\n      dup2\n      mstore\n      swap1\n      0x01\n      add\n      swap1\n      0x20\n      add\n      dup1\n      dup4\n      gt\n      tag_50\n      jumpi\n      dup3\n      swap1\n      sub\n      0x1f\n      and\n      dup3\n      add\n      swap2\n    tag_48:\n      pop\n      pop\n      pop\n      pop\n      pop\n      swap1\n      dup1\n      0x01\n      add\n      sload\n      swap1\n      dup1\n      0x02\n      add\n      0x00\n      swap1\n      sload\n      swap1\n      0x0100\n      exp\n      swap1\n      div\n      0xffffffffffffffffffffffffffffffffffffffff\n      and\n      swap1\n      pop\n      dup4\n      jump\t// out\n    tag_19:\n      mload(0x40)\n      dup1\n      0x60\n      add\n      0x40\n      mstore\n      dup1\n      0x60\n      dup2\n      mstore\n      0x20\n      add\n      0x00\n      dup2\n      mstore\n      0x20\n      add\n      and(0xffffffffffffffffffffffffffffffffffffffff, 0x00)\n      dup2\n      mstore\n      pop\n      swap1\n      jump\t// out\n        /* \"#utility.yul\":7:106   */\n    tag_51:\n        /* \"#utility.yul\":59:65   */\n      0x00\n        /* \"#utility.yul\":93:98   */\n      dup2\n        /* \"#utility.yul\":87:99   */\n      mload\n        /* \"#utility.yul\":77:99   */\n      swap1\n      pop\n        /* \"#utility.yul\":7:106   */\n      swap2\n      swap1\n      pop\n      jump\t// out\n        /* \"#utility.yul\":112:281   */\n    tag_52:\n        /* \"#utility.yul\":196:207   */\n      0x00\n        /* \"#utility.yul\":230:236   */\n      dup3\n        /* \"#utility.yul\":225:228   */\n      dup3\n        /* \"#utility.yul\":218:237   */\n      mstore\n        /* \"#utility.yul\":270:274   */\n      0x20\n        /* \"#utility.yul\":265:268   */\n      dup3\n        /* \"#utility.yul\":261:275   */\n      add\n        /* \"#utility.yul\":246:275   */\n      swap1\n      pop\n        /* \"#utility.yul\":112:281   */\n      swap3\n      swap2\n      pop\n      pop\n      jump\t// out\n        /* \"#utility.yul\":287:533   */\n    tag_53:\n        /* \"#utility.yul\":368:369   */\n      0x00\n        /* \"#utility.yul\":378:491   */\n    tag_87:\n        /* \"#utility.yul\":392:398   */\n      dup4\n        /* \"#utility.yul\":389:390   */\n      dup2\n        /* \"#utility.yul\":386:399   */\n      lt\n        /* \"#utility.yul\":378:491   */\n      iszero\n      tag_89\n      jumpi\n        /* \"#utility.yul\":477:478   */\n      dup1\n        /* \"#utility.yul\":472:475   */\n      dup3\n        /* \"#utility.yul\":468:479   */\n      add\n        /* \"#utility.yul\":462:480   */\n      mload\n        /* \"#utility.yul\":458:459   */\n      dup2\n        /* \"#utility.yul\":453:456   */\n      dup5\n        /* \"#utility.yul\":449:460   */\n      add\n        /* \"#utility.yul\":442:481   */\n      mstore\n        /* \"#utility.yul\":414:416   */\n      0x20\n        /* \"#utility.yul\":411:412   */\n      dup2\n        /* \"#utility.yul\":407:417   */\n      add\n        /* \"#utility.yul\":402:417   */\n      swap1\n      pop\n        /* \"#utility.yul\":378:491   */\n      jump(tag_87)\n    tag_89:\n        /* \"#utility.yul\":525:526   */\n      0x00\n        /* \"#utility.yul\":516:522   */\n      dup5\n        /* \"#utility.yul\":511:514   */\n      dup5\n        /* \"#utility.yul\":507:523   */\n      add\n        /* \"#utility.yul\":500:527   */\n      mstore\n        /* \"#utility.yul\":349:533   */\n      pop\n        /* \"#utility.yul\":287:533   */\n      pop\n      pop\n      pop\n      jump\t// out\n        /* \"#utility.yul\":539:641   */\n    tag_54:\n        /* \"#utility.yul\":580:586   */\n      0x00\n        /* \"#utility.yul\":631:633   */\n      0x1f\n        /* \"#utility.yul\":627:634   */\n      not\n        /* \"#utility.yul\":622:624   */\n      0x1f\n        /* \"#utility.yul\":615:620   */\n      dup4\n        /* \"#utility.yul\":611:625   */\n      add\n        /* \"#utility.yul\":607:635   */\n      and\n        /* \"#utility.yul\":597:635   */\n      swap1\n      pop\n        /* \"#utility.yul\":539:641   */\n      swap2\n      swap1\n      pop\n      jump\t// out\n        /* \"#utility.yul\":647:1024   */\n    tag_55:\n        /* \"#utility.yul\":735:738   */\n      0x00\n        /* \"#utility.yul\":763:802   */\n      tag_92\n        /* \"#utility.yul\":796:801   */\n      dup3\n        /* \"#utility.yul\":763:802   */\n      tag_51\n      jump\t// in\n    tag_92:\n        /* \"#utility.yul\":818:889   */\n      tag_93\n        /* \"#utility.yul\":882:888   */\n      dup2\n        /* \"#utility.yul\":877:880   */\n      dup6\n        /* \"#utility.yul\":818:889   */\n      tag_52\n      jump\t// in\n    tag_93:\n        /* \"#utility.yul\":811:889   */\n      swap4\n      pop\n        /* \"#utility.yul\":898:963   */\n      tag_94\n        /* \"#utility.yul\":956:962   */\n      dup2\n        /* \"#utility.yul\":951:954   */\n      dup6\n        /* \"#utility.yul\":944:948   */\n      0x20\n        /* \"#utility.yul\":937:942   */\n      dup7\n        /* \"#utility.yul\":933:949   */\n      add\n        /* \"#utility.yul\":898:963   */\n      tag_53\n      jump\t// in\n    tag_94:\n        /* \"#utility.yul\":988:1017   */\n      tag_95\n        /* \"#utility.yul\":1010:1016   */\n      dup2\n        /* \"#utility.yul\":988:1017   */\n      tag_54\n      jump\t// in\n    tag_95:\n        /* \"#utility.yul\":983:986   */\n      dup5\n        /* \"#utility.yul\":979:1018   */\n      add\n        /* \"#utility.yul\":972:1018   */\n      swap2\n      pop\n        /* \"#utility.yul\":739:1024   */\n      pop\n        /* \"#utility.yul\":647:1024   */\n      swap3\n      swap2\n      pop\n      pop\n      jump\t// out\n        /* \"#utility.yul\":1030:1107   */\n    tag_56:\n        /* \"#utility.yul\":1067:1074   */\n      0x00\n        /* \"#utility.yul\":1096:1101   */\n      dup2\n        /* \"#utility.yul\":1085:1101   */\n      swap1\n      pop\n        /* \"#utility.yul\":1030:1107   */\n      swap2\n      swap1\n      pop\n      jump\t// out\n        /* \"#utility.yul\":1113:1231   */\n    tag_57:\n        /* \"#utility.yul\":1200:1224   */\n      tag_98\n        /* \"#utility.yul\":1218:1223   */\n      dup2\n        /* \"#utility.yul\":1200:1224   */\n      tag_56\n      jump\t// in\n    tag_98:\n        /* \"#utility.yul\":1195:1198   */\n      dup3\n        /* \"#utility.yul\":1188:1225   */\n      mstore\n        /* \"#utility.yul\":1113:1231   */\n      pop\n      pop\n      jump\t// out\n        /* \"#utility.yul\":1237:1363   */\n    tag_58:\n        /* \"#utility.yul\":1274:1281   */\n      0x00\n        /* \"#utility.yul\":1314:1356   */\n      0xffffffffffffffffffffffffffffffffffffffff\n        /* \"#utility.yul\":1307:1312   */\n      dup3\n        /* \"#utility.yul\":1303:1357   */\n      and\n        /* \"#utility.yul\":1292:1357   */\n      swap1\n      pop\n        /* \"#utility.yul\":1237:1363   */\n      swap2\n      swap1\n      pop\n      jump\t// out\n        /* \"#utility.yul\":1369:1465   */\n    tag_59:\n        /* \"#utility.yul\":1406:1413   */\n      0x00\n        /* \"#utility.yul\":1435:1459   */\n      tag_101\n        /* \"#utility.yul\":1453:1458   */\n      dup3\n        /* \"#utility.yul\":1435:1459   */\n      tag_58\n      jump\t// in\n    tag_101:\n        /* \"#utility.yul\":1424:1459   */\n      swap1\n      pop\n        /* \"#utility.yul\":1369:1465   */\n      swap2\n      swap1\n      pop\n      jump\t// out\n        /* \"#utility.yul\":1471:1589   */\n    tag_60:\n        /* \"#utility.yul\":1558:1582   */\n      tag_103\n        /* \"#utility.yul\":1576:1581   */\n      dup2\n        /* \"#utility.yul\":1558:1582   */\n      tag_59\n      jump\t// in\n    tag_103:\n        /* \"#utility.yul\":1553:1556   */\n      dup3\n        /* \"#utility.yul\":1546:1583   */\n      mstore\n        /* \"#utility.yul\":1471:1589   */\n      pop\n      pop\n      jump\t// out\n        /* \"#utility.yul\":1595:2128   */\n    tag_11:\n        /* \"#utility.yul\":1764:1768   */\n      0x00\n        /* \"#utility.yul\":1802:1804   */\n      0x60\n        /* \"#utility.yul\":1791:1800   */\n      dup3\n        /* \"#utility.yul\":1787:1805   */\n      add\n        /* \"#utility.yul\":1779:1805   */\n      swap1\n      pop\n        /* \"#utility.yul\":1851:1860   */\n      dup2\n        /* \"#utility.yul\":1845:1849   */\n      dup2\n        /* \"#utility.yul\":1841:1861   */\n      sub\n        /* \"#utility.yul\":1837:1838   */\n      0x00\n        /* \"#utility.yul\":1826:1835   */\n      dup4\n        /* \"#utility.yul\":1822:1839   */\n      add\n        /* \"#utility.yul\":1815:1862   */\n      mstore\n        /* \"#utility.yul\":1879:1957   */\n      tag_105\n        /* \"#utility.yul\":1952:1956   */\n      dup2\n        /* \"#utility.yul\":1943:1949   */\n      dup7\n        /* \"#utility.yul\":1879:1957   */\n      tag_55\n      jump\t// in\n    tag_105:\n        /* \"#utility.yul\":1871:1957   */\n      swap1\n      pop\n        /* \"#utility.yul\":1967:2039   */\n      tag_106\n        /* \"#utility.yul\":2035:2037   */\n      0x20\n        /* \"#utility.yul\":2024:2033   */\n      dup4\n        /* \"#utility.yul\":2020:2038   */\n      add\n        /* \"#utility.yul\":2011:2017   */\n      dup6\n        /* \"#utility.yul\":1967:2039   */\n      tag_57\n      jump\t// in\n    tag_106:\n        /* \"#utility.yul\":2049:2121   */\n      tag_107\n        /* \"#utility.yul\":2117:2119   */\n      0x40\n        /* \"#utility.yul\":2106:2115   */\n      dup4\n        /* \"#utility.yul\":2102:2120   */\n      add\n        /* \"#utility.yul\":2093:2099   */\n      dup5\n        /* \"#utility.yul\":2049:2121   */\n      tag_60\n      jump\t// in\n    tag_107:\n        /* \"#utility.yul\":1595:2128   */\n      swap5\n      swap4\n      pop\n      pop\n      pop\n      pop\n      jump\t// out\n        /* \"#utility.yul\":2215:2332   */\n    tag_62:\n        /* \"#utility.yul\":2324:2325   */\n      0x00\n        /* \"#utility.yul\":2321:2322   */\n      dup1\n        /* \"#utility.yul\":2314:2326   */\n      revert\n        /* \"#utility.yul\":2461:2583   */\n    tag_64:\n        /* \"#utility.yul\":2534:2558   */\n      tag_112\n        /* \"#utility.yul\":2552:2557   */\n      dup2\n        /* \"#utility.yul\":2534:2558   */\n      tag_56\n      jump\t// in\n    tag_112:\n        /* \"#utility.yul\":2527:2532   */\n      dup2\n        /* \"#utility.yul\":2524:2559   */\n      eq\n        /* \"#utility.yul\":2514:2577   */\n      tag_113\n      jumpi\n        /* \"#utility.yul\":2573:2574   */\n      0x00\n        /* \"#utility.yul\":2570:2571   */\n      dup1\n        /* \"#utility.yul\":2563:2575   */\n      revert\n        /* \"#utility.yul\":2514:2577   */\n    tag_113:\n        /* \"#utility.yul\":2461:2583   */\n      pop\n      jump\t// out\n        /* \"#utility.yul\":2589:2728   */\n    tag_65:\n        /* \"#utility.yul\":2635:2640   */\n      0x00\n        /* \"#utility.yul\":2673:2679   */\n      dup2\n        /* \"#utility.yul\":2660:2680   */\n      calldataload\n        /* \"#utility.yul\":2651:2680   */\n      swap1\n      pop\n        /* \"#utility.yul\":2689:2722   */\n      tag_115\n        /* \"#utility.yul\":2716:2721   */\n      dup2\n        /* \"#utility.yul\":2689:2722   */\n      tag_64\n      jump\t// in\n    tag_115:\n        /* \"#utility.yul\":2589:2728   */\n      swap3\n      swap2\n      pop\n      pop\n      jump\t// out\n        /* \"#utility.yul\":2734:3063   */\n    tag_14:\n        /* \"#utility.yul\":2793:2799   */\n      0x00\n        /* \"#utility.yul\":2842:2844   */\n      0x20\n        /* \"#utility.yul\":2830:2839   */\n      dup3\n        /* \"#utility.yul\":2821:2828   */\n      dup5\n        /* \"#utility.yul\":2817:2840   */\n      sub\n        /* \"#utility.yul\":2813:2845   */\n      slt\n        /* \"#utility.yul\":2810:2929   */\n      iszero\n      tag_117\n      jumpi\n        /* \"#utility.yul\":2848:2927   */\n      tag_118\n      tag_62\n      jump\t// in\n    tag_118:\n        /* \"#utility.yul\":2810:2929   */\n    tag_117:\n        /* \"#utility.yul\":2968:2969   */\n      0x00\n        /* \"#utility.yul\":2993:3046   */\n      tag_119\n        /* \"#utility.yul\":3038:3045   */\n      dup5\n        /* \"#utility.yul\":3029:3035   */\n      dup3\n        /* \"#utility.yul\":3018:3027   */\n      dup6\n        /* \"#utility.yul\":3014:3036   */\n      add\n        /* \"#utility.yul\":2993:3046   */\n      tag_65\n      jump\t// in\n    tag_119:\n        /* \"#utility.yul\":2983:3046   */\n      swap2\n      pop\n        /* \"#utility.yul\":2939:3056   */\n      pop\n        /* \"#utility.yul\":2734:3063   */\n      swap3\n      swap2\n      pop\n      pop\n      jump\t// out\n        /* \"#utility.yul\":3069:3249   */\n    tag_66:\n        /* \"#utility.yul\":3117:3194   */\n      0x4e487b7100000000000000000000000000000000000000000000000000000000\n        /* \"#utility.yul\":3114:3115   */\n      0x00\n        /* \"#utility.yul\":3107:3195   */\n      mstore\n        /* \"#utility.yul\":3214:3218   */\n      0x41\n        /* \"#utility.yul\":3211:3212   */\n      0x04\n        /* \"#utility.yul\":3204:3219   */\n      mstore\n        /* \"#utility.yul\":3238:3242   */\n      0x24\n        /* \"#utility.yul\":3235:3236   */\n      0x00\n        /* \"#utility.yul\":3228:3243   */\n      revert\n        /* \"#utility.yul\":3255:3435   */\n    tag_67:\n        /* \"#utility.yul\":3303:3380   */\n      0x4e487b7100000000000000000000000000000000000000000000000000000000\n        /* \"#utility.yul\":3300:3301   */\n      0x00\n        /* \"#utility.yul\":3293:3381   */\n      mstore\n        /* \"#utility.yul\":3400:3404   */\n      0x22\n        /* \"#utility.yul\":3397:3398   */\n      0x04\n        /* \"#utility.yul\":3390:3405   */\n      mstore\n        /* \"#utility.yul\":3424:3428   */\n      0x24\n        /* \"#utility.yul\":3421:3422   */\n      0x00\n        /* \"#utility.yul\":3414:3429   */\n      revert\n        /* \"#utility.yul\":3441:3761   */\n    tag_34:\n        /* \"#utility.yul\":3485:3491   */\n      0x00\n        /* \"#utility.yul\":3522:3523   */\n      0x02\n        /* \"#utility.yul\":3516:3520   */\n      dup3\n        /* \"#utility.yul\":3512:3524   */\n      div\n        /* \"#utility.yul\":3502:3524   */\n      swap1\n      pop\n        /* \"#utility.yul\":3569:3570   */\n      0x01\n        /* \"#utility.yul\":3563:3567   */\n      dup3\n        /* \"#utility.yul\":3559:3571   */\n      and\n        /* \"#utility.yul\":3590:3608   */\n      dup1\n        /* \"#utility.yul\":3580:3661   */\n      tag_123\n      jumpi\n        /* \"#utility.yul\":3646:3650   */\n      0x7f\n        /* \"#utility.yul\":3638:3644   */\n      dup3\n        /* \"#utility.yul\":3634:3651   */\n      and\n        /* \"#utility.yul\":3624:3651   */\n      swap2\n      pop\n        /* \"#utility.yul\":3580:3661   */\n    tag_123:\n        /* \"#utility.yul\":3708:3710   */\n      0x20\n        /* \"#utility.yul\":3700:3706   */\n      dup3\n        /* \"#utility.yul\":3697:3711   */\n      lt\n        /* \"#utility.yul\":3677:3695   */\n      dup2\n        /* \"#utility.yul\":3674:3712   */\n      sub\n        /* \"#utility.yul\":3671:3755   */\n      tag_124\n      jumpi\n        /* \"#utility.yul\":3727:3745   */\n      tag_125\n      tag_67\n      jump\t// in\n    tag_125:\n        /* \"#utility.yul\":3671:3755   */\n    tag_124:\n        /* \"#utility.yul\":3492:3761   */\n      pop\n        /* \"#utility.yul\":3441:3761   */\n      swap2\n      swap1\n      pop\n      jump\t// out\n        /* \"#utility.yul\":3767:3908   */\n    tag_68:\n        /* \"#utility.yul\":3816:3820   */\n      0x00\n        /* \"#utility.yul\":3839:3842   */\n      dup2\n        /* \"#utility.yul\":3831:3842   */\n      swap1\n      pop\n        /* \"#utility.yul\":3862:3865   */\n      dup2\n        /* \"#utility.yul\":3859:3860   */\n      0x00\n        /* \"#utility.yul\":3852:3866   */\n      mstore\n        /* \"#utility.yul\":3896:3900   */\n      0x20\n        /* \"#utility.yul\":3893:3894   */\n      0x00\n        /* \"#utility.yul\":3883:3901   */\n      keccak256\n        /* \"#utility.yul\":3875:3901   */\n      swap1\n      pop\n        /* \"#utility.yul\":3767:3908   */\n      swap2\n      swap1\n      pop\n      jump\t// out\n        /* \"#utility.yul\":3914:4007   */\n    tag_69:\n        /* \"#utility.yul\":3951:3957   */\n      0x00\n        /* \"#utility.yul\":3998:4000   */\n      0x20\n        /* \"#utility.yul\":3993:3995   */\n      0x1f\n        /* \"#utility.yul\":3986:3991   */\n      dup4\n        /* \"#utility.yul\":3982:3996   */\n      add\n        /* \"#utility.yul\":3978:4001   */\n      div\n        /* \"#utility.yul\":3968:4001   */\n      swap1\n      pop\n        /* \"#utility.yul\":3914:4007   */\n      swap2\n      swap1\n      pop\n      jump\t// out\n        /* \"#utility.yul\":4013:4120   */\n    tag_70:\n        /* \"#utility.yul\":4057:4065   */\n      0x00\n        /* \"#utility.yul\":4107:4112   */\n      dup3\n        /* \"#utility.yul\":4101:4105   */\n      dup3\n        /* \"#utility.yul\":4097:4113   */\n      shl\n        /* \"#utility.yul\":4076:4113   */\n      swap1\n      pop\n        /* \"#utility.yul\":4013:4120   */\n      swap3\n      swap2\n      pop\n      pop\n      jump\t// out\n        /* \"#utility.yul\":4126:4519   */\n    tag_71:\n        /* \"#utility.yul\":4195:4201   */\n      0x00\n        /* \"#utility.yul\":4245:4246   */\n      0x08\n        /* \"#utility.yul\":4233:4243   */\n      dup4\n        /* \"#utility.yul\":4229:4247   */\n      mul\n        /* \"#utility.yul\":4268:4365   */\n      tag_130\n        /* \"#utility.yul\":4298:4364   */\n      0xffffffffffffffffffffffffffffffffffffffffffffffffffffffffffffffff\n        /* \"#utility.yul\":4287:4296   */\n      dup3\n        /* \"#utility.yul\":4268:4365   */\n      tag_70\n      jump\t// in\n    tag_130:\n        /* \"#utility.yul\":4386:4425   */\n      tag_131\n        /* \"#utility.yul\":4416:4424   */\n      dup7\n        /* \"#utility.yul\":4405:4414   */\n      dup4\n        /* \"#utility.yul\":4386:4425   */\n      tag_70\n      jump\t// in\n    tag_131:\n        /* \"#utility.yul\":4374:4425   */\n      swap6\n      pop\n        /* \"#utility.yul\":4458:4462   */\n      dup1\n        /* \"#utility.yul\":4454:4463   */\n      not\n        /* \"#utility.yul\":4447:4452   */\n      dup5\n        /* \"#utility.yul\":4443:4464   */\n      and\n        /* \"#utility.yul\":4434:4464   */\n      swap4\n      pop\n        /* \"#utility.yul\":4507:4511   */\n      dup1\n        /* \"#utility.yul\":4497:4505   */\n      dup7\n        /* \"#utility.yul\":4493:4512   */\n      and\n        /* \"#utility.yul\":4486:4491   */\n      dup5\n        /* \"#utility.yul\":4483:4513   */\n      or\n        /* \"#utility.yul\":4473:4513   */\n      swap3\n      pop\n        /* \"#utility.yul\":4202:4519   */\n      pop\n      pop\n        /* \"#utility.yul\":4126:4519   */\n      swap4\n      swap3\n      pop\n      pop\n      pop\n      jump\t// out\n        /* \"#utility.yul\":4525:4585   */\n    tag_72:\n        /* \"#utility.yul\":4553:4556   */\n      0x00\n        /* \"#utility.yul\":4574:4579   */\n      dup2\n        /* \"#utility.yul\":4567:4579   */\n      swap1\n      pop\n        /* \"#utility.yul\":4525:4585   */\n      swap2\n      swap1\n      pop\n      jump\t// out\n        /* \"#utility.yul\":4591:4733   */\n    tag_73:\n        /* \"#utility.yul\":4641:4650   */\n      0x00\n        /* \"#utility.yul\":4674:4727   */\n      tag_134\n        /* \"#utility.yul\":4692:4726   */\n      tag_135\n        /* \"#utility.yul\":4701:4725   */\n      tag_136\n        /* \"#utility.yul\":4719:4724   */\n      dup5\n        /* \"#utility.yul\":4701:4725   */\n      tag_56\n      jump\t// in\n    tag_136:\n        /* \"#utility.yul\":4692:4726   */\n      tag_72\n      jump\t// in\n    tag_135:\n        /* \"#utility.yul\":4674:4727   */\n      tag_56\n      jump\t// in\n    tag_134:\n        /* \"#utility.yul\":4661:4727   */\n      swap1\n      pop\n        /* \"#utility.yul\":4591:4733   */\n      swap2\n      swap1\n      pop\n      jump\t// out\n        /* \"#utility.yul\":4739:4814   */\n    tag_74:\n        /* \"#utility.yul\":4782:4785   */\n      0x00\n        /* \"#utility.yul\":4803:4808   */\n      dup2\n        /* \"#utility.yul\":4796:4808   */\n      swap1\n      pop\n        /* \"#utility.yul\":4739:4814   */\n      swap2\n      swap1\n      pop\n      jump\t// out\n        /* \"#utility.yul\":4820:5089   */\n    tag_75:\n        /* \"#utility.yul\":4930:4969   */\n      tag_139\n        /* \"#utility.yul\":4961:4968   */\n      dup4\n        /* \"#utility.yul\":4930:4969   */\n      tag_73\n      jump\t// in\n    tag_139:\n        /* \"#utility.yul\":4991:5082   */\n      tag_140\n        /* \"#utility.yul\":5040:5081   */\n      tag_141\n        /* \"#utility.yul\":5064:5080   */\n      dup3\n        /* \"#utility.yul\":5040:5081   */\n      tag_74\n      jump\t// in\n    tag_141:\n        /* \"#utility.yul\":5032:5038   */\n      dup5\n        /* \"#utility.yul\":5025:5029   */\n      dup5\n        /* \"#utility.yul\":5019:5030   */\n      sload\n        /* \"#utility.yul\":4991:5082   */\n      tag_71\n      jump\t// in\n    tag_140:\n        /* \"#utility.yul\":4985:4989   */\n      dup3\n        /* \"#utility.yul\":4978:5083   */\n      sstore\n        /* \"#utility.yul\":4896:5089   */\n      pop\n        /* \"#utility.yul\":4820:5089   */\n      pop\n      pop\n      pop\n      jump\t// out\n        /* \"#utility.yul\":5095:5168   */\n    tag_76:\n        /* \"#utility.yul\":5140:5143   */\n      0x00\n        /* \"#utility.yul\":5095:5168   */\n      swap1\n      jump\t// out\n        /* \"#utility.yul\":5174:5363   */\n    tag_77:\n        /* \"#utility.yul\":5251:5283   */\n      tag_144\n      tag_76\n      jump\t// in\n    tag_144:\n        /* \"#utility.yul\":5292:5357   */\n      tag_145\n        /* \"#utility.yul\":5350:5356   */\n      dup2\n        /* \"#utility.yul\":5342:5348   */\n      dup5\n        /* \"#utility.yul\":5336:5340   */\n      dup5\n        /* \"#utility.yul\":5292:5357   */\n      tag_75\n      jump\t// in\n    tag_145:\n        /* \"#utility.yul\":5227:5363   */\n      pop\n        /* \"#utility.yul\":5174:5363   */\n      pop\n      pop\n      jump\t// out\n        /* \"#utility.yul\":5369:5555   */\n    tag_78:\n        /* \"#utility.yul\":5429:5549   */\n    tag_147:\n        /* \"#utility.yul\":5446:5449   */\n      dup2\n        /* \"#utility.yul\":5439:5444   */\n      dup2\n        /* \"#utility.yul\":5436:5450   */\n      lt\n        /* \"#utility.yul\":5429:5549   */\n      iszero\n      tag_149\n      jumpi\n        /* \"#utility.yul\":5500:5539   */\n      tag_150\n        /* \"#utility.yul\":5537:5538   */\n      0x00\n        /* \"#utility.yul\":5530:5535   */\n      dup3\n        /* \"#utility.yul\":5500:5539   */\n      tag_77\n      jump\t// in\n    tag_150:\n        /* \"#utility.yul\":5473:5474   */\n      0x01\n        /* \"#utility.yul\":5466:5471   */\n      dup2\n        /* \"#utility.yul\":5462:5475   */\n      add\n        /* \"#utility.yul\":5453:5475   */\n      swap1\n      pop\n        /* \"#utility.yul\":5429:5549   */\n      jump(tag_147)\n    tag_149:\n        /* \"#utility.yul\":5369:5555   */\n      pop\n      pop\n      jump\t// out\n        /* \"#utility.yul\":5561:6104   */\n    tag_79:\n        /* \"#utility.yul\":5662:5664   */\n      0x1f\n        /* \"#utility.yul\":5657:5660   */\n      dup3\n        /* \"#utility.yul\":5654:5665   */\n      gt\n        /* \"#utility.yul\":5651:6097   */\n      iszero\n      tag_152\n      jumpi\n        /* \"#utility.yul\":5696:5734   */\n      tag_153\n        /* \"#utility.yul\":5728:5733   */\n      dup2\n        /* \"#utility.yul\":5696:5734   */\n      tag_68\n      jump\t// in\n    tag_153:\n        /* \"#utility.yul\":5780:5809   */\n      tag_154\n        /* \"#utility.yul\":5798:5808   */\n      dup5\n        /* \"#utility.yul\":5780:5809   */\n      tag_69\n      jump\t// in\n    tag_154:\n        /* \"#utility.yul\":5770:5778   */\n      dup2\n        /* \"#utility.yul\":5766:5810   */\n      add\n        /* \"#utility.yul\":5963:5965   */\n      0x20\n        /* \"#utility.yul\":5951:5961   */\n      dup6\n        /* \"#utility.yul\":5948:5966   */\n      lt\n        /* \"#utility.yul\":5945:5994   */\n      iszero\n      tag_155\n      jumpi\n        /* \"#utility.yul\":5984:5992   */\n      dup2\n        /* \"#utility.yul\":5969:5992   */\n      swap1\n      pop\n        /* \"#utility.yul\":5945:5994   */\n    tag_155:\n        /* \"#utility.yul\":6007:6087   */\n      tag_156\n        /* \"#utility.yul\":6063:6085   */\n      tag_157\n        /* \"#utility.yul\":6081:6084   */\n      dup6\n        /* \"#utility.yul\":6063:6085   */\n      tag_69\n      jump\t// in\n    tag_157:\n        /* \"#utility.yul\":6053:6061   */\n      dup4\n        /* \"#utility.yul\":6049:6086   */\n      add\n        /* \"#utility.yul\":6036:6047   */\n      dup3\n        /* \"#utility.yul\":6007:6087   */\n      tag_78\n      jump\t// in\n    tag_156:\n        /* \"#utility.yul\":5666:6097   */\n      pop\n      pop\n        /* \"#utility.yul\":5651:6097   */\n    tag_152:\n        /* \"#utility.yul\":5561:6104   */\n      pop\n      pop\n      pop\n      jump\t// out\n        /* \"#utility.yul\":6110:6227   */\n    tag_80:\n        /* \"#utility.yul\":6164:6172   */\n      0x00\n        /* \"#utility.yul\":6214:6219   */\n      dup3\n        /* \"#utility.yul\":6208:6212   */\n      dup3\n        /* \"#utility.yul\":6204:6220   */\n      shr\n        /* \"#utility.yul\":6183:6220   */\n      swap1\n      pop\n        /* \"#utility.yul\":6110:6227   */\n      swap3\n      swap2\n      pop\n      pop\n      jump\t// out\n        /* \"#utility.yul\":6233:6402   */\n    tag_81:\n        /* \"#utility.yul\":6277:6283   */\n      0x00\n        /* \"#utility.yul\":6310:6361   */\n      tag_160\n        /* \"#utility.yul\":6358:6359   */\n      0x00\n        /* \"#utility.yul\":6354:6360   */\n      not\n        /* \"#utility.yul\":6346:6351   */\n      dup5\n        /* \"#utility.yul\":6343:6344   */\n      0x08\n        /* \"#utility.yul\":6339:6352   */\n      mul\n        /* \"#utility.yul\":6310:6361   */\n      tag_80\n      jump\t// in\n    tag_160:\n        /* \"#utility.yul\":6306:6362   */\n      not\n        /* \"#utility.yul\":6391:6395   */\n      dup1\n        /* \"#utility.yul\":6385:6389   */\n      dup4\n        /* \"#utility.yul\":6381:6396   */\n      and\n        /* \"#utility.yul\":6371:6396   */\n      swap2\n      pop\n        /* \"#utility.yul\":6284:6402   */\n      pop\n        /* \"#utility.yul\":6233:6402   */\n      swap3\n      swap2\n      pop\n      pop\n      jump\t// out\n        /* \"#utility.yul\":6407:6702   */\n    tag_82:\n        /* \"#utility.yul\":6483:6487   */\n      0x00\n        /* \"#utility.yul\":6629:6658   */\n      tag_162\n        /* \"#utility.yul\":6654:6657   */\n      dup4\n        /* \"#utility.yul\":6648:6652   */\n      dup4\n        /* \"#utility.yul\":6629:6658   */\n      tag_81\n      jump\t// in\n    tag_162:\n        /* \"#utility.yul\":6621:6658   */\n      swap2\n      pop\n        /* \"#utility.yul\":6691:6694   */\n      dup3\n        /* \"#utility.yul\":6688:6689   */\n      0x02\n        /* \"#utility.yul\":6684:6695   */\n      mul\n        /* \"#utility.yul\":6678:6682   */\n      dup3\n        /* \"#utility.yul\":6675:6696   */\n      or\n        /* \"#utility.yul\":6667:6696   */\n      swap1\n      pop\n        /* \"#utility.yul\":6407:6702   */\n      swap3\n      swap2\n      pop\n      pop\n      jump\t// out\n        /* \"#utility.yul\":6707:8102   */\n    tag_22:\n        /* \"#utility.yul\":6824:6861   */\n      tag_164\n        /* \"#utility.yul\":6857:6860   */\n      dup3\n        /* \"#utility.yul\":6824:6861   */\n      tag_51\n      jump\t// in\n    tag_164:\n        /* \"#utility.yul\":6926:6944   */\n      0xffffffffffffffff\n        /* \"#utility.yul\":6918:6924   */\n      dup2\n        /* \"#utility.yul\":6915:6945   */\n      gt\n        /* \"#utility.yul\":6912:6968   */\n      iszero\n      tag_165\n      jumpi\n        /* \"#utility.yul\":6948:6966   */\n      tag_166\n      tag_66\n      jump\t// in\n    tag_166:\n        /* \"#utility.yul\":6912:6968   */\n    tag_165:\n        /* \"#utility.yul\":6992:7030   */\n      tag_167\n        /* \"#utility.yul\":7024:7028   */\n      dup3\n        /* \"#utility.yul\":7018:7029   */\n      sload\n        /* \"#utility.yul\":6992:7030   */\n      tag_34\n      jump\t// in\n    tag_167:\n        /* \"#utility.yul\":7077:7144   */\n      tag_168\n        /* \"#utility.yul\":7137:7143   */\n      dup3\n        /* \"#utility.yul\":7129:7135   */\n      dup3\n        /* \"#utility.yul\":7123:7127   */\n      dup6\n        /* \"#utility.yul\":7077:7144   */\n      tag_79\n      jump\t// in\n    tag_168:\n        /* \"#utility.yul\":7171:7172   */\n      0x00\n        /* \"#utility.yul\":7195:7199   */\n      0x20\n        /* \"#utility.yul\":7182:7199   */\n      swap1\n      pop\n        /* \"#utility.yul\":7227:7229   */\n      0x1f\n        /* \"#utility.yul\":7219:7225   */\n      dup4\n        /* \"#utility.yul\":7216:7230   */\n      gt\n        /* \"#utility.yul\":7244:7245   */\n      0x01\n        /* \"#utility.yul\":7239:7857   */\n      dup2\n      eq\n      tag_170\n      jumpi\n        /* \"#utility.yul\":7901:7902   */\n      0x00\n        /* \"#utility.yul\":7918:7924   */\n      dup5\n        /* \"#utility.yul\":7915:7992   */\n      iszero\n      tag_171\n      jumpi\n        /* \"#utility.yul\":7967:7976   */\n      dup3\n        /* \"#utility.yul\":7962:7965   */\n      dup8\n        /* \"#utility.yul\":7958:7977   */\n      add\n        /* \"#utility.yul\":7952:7978   */\n      mload\n        /* \"#utility.yul\":7943:7978   */\n      swap1\n      pop\n        /* \"#utility.yul\":7915:7992   */\n    tag_171:\n        /* \"#utility.yul\":8018:8085   */\n      tag_172\n        /* \"#utility.yul\":8078:8084   */\n      dup6\n        /* \"#utility.yul\":8071:8076   */\n      dup3\n        /* \"#utility.yul\":8018:8085   */\n      tag_82\n      jump\t// in\n    tag_172:\n        /* \"#utility.yul\":8012:8016   */\n      dup7\n        /* \"#utility.yul\":8005:8086   */\n      sstore\n        /* \"#utility.yul\":7874:8096   */\n      pop\n        /* \"#utility.yul\":7209:8096   */\n      jump(tag_169)\n        /* \"#utility.yul\":7239:7857   */\n    tag_170:\n        /* \"#utility.yul\":7291:7295   */\n      0x1f\n        /* \"#utility.yul\":7287:7296   */\n      not\n        /* \"#utility.yul\":7279:7285   */\n      dup5\n        /* \"#utility.yul\":7275:7297   */\n      and\n        /* \"#utility.yul\":7325:7362   */\n      tag_173\n        /* \"#utility.yul\":7357:7361   */\n      dup7\n        /* \"#utility.yul\":7325:7362   */\n      tag_68\n      jump\t// in\n    tag_173:\n        /* \"#utility.yul\":7384:7385   */\n      0x00\n        /* \"#utility.yul\":7398:7606   */\n    tag_174:\n        /* \"#utility.yul\":7412:7419   */\n      dup3\n        /* \"#utility.yul\":7409:7410   */\n      dup2\n        /* \"#utility.yul\":7406:7420   */\n      lt\n        /* \"#utility.yul\":7398:7606   */\n      iszero\n      tag_176\n      jumpi\n        /* \"#utility.yul\":7491:7500   */\n      dup5\n        /* \"#utility.yul\":7486:7489   */\n      dup10\n        /* \"#utility.yul\":7482:7501   */\n      add\n        /* \"#utility.yul\":7476:7502   */\n      mload\n        /* \"#utility.yul\":7468:7474   */\n      dup3\n        /* \"#utility.yul\":7461:7503   */\n      sstore\n        /* \"#utility.yul\":7542:7543   */\n      0x01\n        /* \"#utility.yul\":7534:7540   */\n      dup3\n        /* \"#utility.yul\":7530:7544   */\n      add\n        /* \"#utility.yul\":7520:7544   */\n      swap2\n      pop\n        /* \"#utility.yul\":7589:7591   */\n      0x20\n        /* \"#utility.yul\":7578:7587   */\n      dup6\n        /* \"#utility.yul\":7574:7592   */\n      add\n        /* \"#utility.yul\":7561:7592   */\n      swap5\n      pop\n        /* \"#utility.yul\":7435:7439   */\n      0x20\n        /* \"#utility.yul\":7432:7433   */\n      dup2\n        /* \"#utility.yul\":7428:7440   */\n      add\n        /* \"#utility.yul\":7423:7440   */\n      swap1\n      pop\n        /* \"#utility.yul\":7398:7606   */\n      jump(tag_174)\n    tag_176:\n        /* \"#utility.yul\":7634:7640   */\n      dup7\n        /* \"#utility.yul\":7625:7632   */\n      dup4\n        /* \"#utility.yul\":7622:7641   */\n      lt\n        /* \"#utility.yul\":7619:7798   */\n      iszero\n      tag_177\n      jumpi\n        /* \"#utility.yul\":7692:7701   */\n      dup5\n        /* \"#utility.yul\":7687:7690   */\n      dup10\n        /* \"#utility.yul\":7683:7702   */\n      add\n        /* \"#utility.yul\":7677:7703   */\n      mload\n        /* \"#utility.yul\":7735:7783   */\n      tag_178\n        /* \"#utility.yul\":7777:7781   */\n      0x1f\n        /* \"#utility.yul\":7769:7775   */\n      dup10\n        /* \"#utility.yul\":7765:7782   */\n      and\n        /* \"#utility.yul\":7754:7763   */\n      dup3\n        /* \"#utility.yul\":7735:7783   */\n      tag_81\n      jump\t// in\n    tag_178:\n        /* \"#utility.yul\":7727:7733   */\n      dup4\n        /* \"#utility.yul\":7720:7784   */\n      sstore\n        /* \"#utility.yul\":7642:7798   */\n      pop\n        /* \"#utility.yul\":7619:7798   */\n    tag_177:\n        /* \"#utility.yul\":7844:7845   */\n      0x01\n        /* \"#utility.yul\":7840:7841   */\n      0x02\n        /* \"#utility.yul\":7832:7838   */\n      dup9\n        /* \"#utility.yul\":7828:7842   */\n      mul\n        /* \"#utility.yul\":7824:7846   */\n      add\n        /* \"#utility.yul\":7818:7822   */\n      dup9\n        /* \"#utility.yul\":7811:7847   */\n      sstore\n        /* \"#utility.yul\":7246:7857   */\n      pop\n      pop\n      pop\n        /* \"#utility.yul\":7209:8096   */\n    tag_169:\n      pop\n        /* \"#utility.yul\":6799:8102   */\n      pop\n      pop\n      pop\n        /* \"#utility.yul\":6707:8102   */\n      pop\n      pop\n      jump\t// out\n        /* \"#utility.yul\":8108:8288   */\n    tag_31:\n        /* \"#utility.yul\":8156:8233   */\n      0x4e487b7100000000000000000000000000000000000000000000000000000000\n        /* \"#utility.yul\":8153:8154   */\n      0x00\n        /* \"#utility.yul\":8146:8234   */\n      mstore\n        /* \"#utility.yul\":8253:8257   */\n      0x32\n        /* \"#utility.yul\":8250:8251   */\n      0x04\n        /* \"#utility.yul\":8243:8258   */\n      mstore\n        /* \"#utility.yul\":8277:8281   */\n      0x24\n        /* \"#utility.yul\":8274:8275   */\n      0x00\n        /* \"#utility.yul\":8267:8282   */\n      revert\n\n    auxdata: 0xa26469706673582212203e323ab1cc788b71179ae9c119a0369c2201c464578717d56c63d48a158376a864736f6c63430008110033\n}\n",
				"bytecode": {
					"linkReferences": {},
					"object": "608060405234801561001057600080fd5b50610d04806100206000396000f3fe608060405234801561001057600080fd5b50600436106100415760003560e01c8063335d00c214610046578063ee26fac314610050578063f7746e3614610070575b600080fd5b61004e6100a2565b005b610058610633565b604051610067939291906108f6565b60405180910390f35b61008a60048036038101906100859190610965565b6106f3565b604051610099939291906108f6565b60405180910390f35b600060405180606001604052806040518060400160405280600681526020017f546f796f7461000000000000000000000000000000000000000000000000000081525081526020016107d081526020013373ffffffffffffffffffffffffffffffffffffffff168152509050600060405180606001604052806040518060400160405280600381526020017f424d57000000000000000000000000000000000000000000000000000000000081525081526020016107e681526020013373ffffffffffffffffffffffffffffffffffffffff1681525090506101826107d5565b6040518060400160405280600581526020017f5465736c6100000000000000000000000000000000000000000000000000000081525081600001819052506107e581602001818152505033816040019073ffffffffffffffffffffffffffffffffffffffff16908173ffffffffffffffffffffffffffffffffffffffff1681525050600383908060018154018082558091505060019003906000526020600020906003020160009091909190915060008201518160000190816102459190610bcd565b506020820151816001015560408201518160020160006101000a81548173ffffffffffffffffffffffffffffffffffffffff021916908373ffffffffffffffffffffffffffffffffffffffff1602179055505050600382908060018154018082558091505060019003906000526020600020906003020160009091909190915060008201518160000190816102da9190610bcd565b506020820151816001015560408201518160020160006101000a81548173ffffffffffffffffffffffffffffffffffffffff021916908373ffffffffffffffffffffffffffffffffffffffff16021790555050506003819080600181540180825580915050600190039060005260206000209060030201600090919091909150600082015181600001908161036f9190610bcd565b506020820151816001015560408201518160020160006101000a81548173ffffffffffffffffffffffffffffffffffffffff021916908373ffffffffffffffffffffffffffffffffffffffff1602179055505050600360405180606001604052806040518060400160405280600781526020017f666572726172690000000000000000000000000000000000000000000000000081525081526020016107d981526020013373ffffffffffffffffffffffffffffffffffffffff168152509080600181540180825580915050600190039060005260206000209060030201600090919091909150600082015181600001908161046b9190610bcd565b506020820151816001015560408201518160020160006101000a81548173ffffffffffffffffffffffffffffffffffffffff021916908373ffffffffffffffffffffffffffffffffffffffff1602179055505050600060036000815481106104d6576104d5610c9f565b5b90600052602060002090600302016040518060600160405290816000820180546104ff906109f0565b80601f016020809104026020016040519081016040528092919081815260200182805461052b906109f0565b80156105785780601f1061054d57610100808354040283529160200191610578565b820191906000526020600020905b81548152906001019060200180831161055b57829003601f168201915b50505050508152602001600182015481526020016002820160009054906101000a900473ffffffffffffffffffffffffffffffffffffffff1673ffffffffffffffffffffffffffffffffffffffff1673ffffffffffffffffffffffffffffffffffffffff168152505090506040518060400160405280600481526020017f42656e7a0000000000000000000000000000000000000000000000000000000081525081600001819052506107cf81602001818152505050505050565b6000806000018054610644906109f0565b80601f0160208091040260200160405190810160405280929190818152602001828054610670906109f0565b80156106bd5780601f10610692576101008083540402835291602001916106bd565b820191906000526020600020905b8154815290600101906020018083116106a057829003601f168201915b5050505050908060010154908060020160009054906101000a900473ffffffffffffffffffffffffffffffffffffffff16905083565b6003818154811061070357600080fd5b9060005260206000209060030201600091509050806000018054610726906109f0565b80601f0160208091040260200160405190810160405280929190818152602001828054610752906109f0565b801561079f5780601f106107745761010080835404028352916020019161079f565b820191906000526020600020905b81548152906001019060200180831161078257829003601f168201915b5050505050908060010154908060020160009054906101000a900473ffffffffffffffffffffffffffffffffffffffff16905083565b60405180606001604052806060815260200160008152602001600073ffffffffffffffffffffffffffffffffffffffff1681525090565b600081519050919050565b600082825260208201905092915050565b60005b8381101561084657808201518184015260208101905061082b565b60008484015250505050565b6000601f19601f8301169050919050565b600061086e8261080c565b6108788185610817565b9350610888818560208601610828565b61089181610852565b840191505092915050565b6000819050919050565b6108af8161089c565b82525050565b600073ffffffffffffffffffffffffffffffffffffffff82169050919050565b60006108e0826108b5565b9050919050565b6108f0816108d5565b82525050565b600060608201905081810360008301526109108186610863565b905061091f60208301856108a6565b61092c60408301846108e7565b949350505050565b600080fd5b6109428161089c565b811461094d57600080fd5b50565b60008135905061095f81610939565b92915050565b60006020828403121561097b5761097a610934565b5b600061098984828501610950565b91505092915050565b7f4e487b7100000000000000000000000000000000000000000000000000000000600052604160045260246000fd5b7f4e487b7100000000000000000000000000000000000000000000000000000000600052602260045260246000fd5b60006002820490506001821680610a0857607f821691505b602082108103610a1b57610a1a6109c1565b5b50919050565b60008190508160005260206000209050919050565b60006020601f8301049050919050565b600082821b905092915050565b600060088302610a837fffffffffffffffffffffffffffffffffffffffffffffffffffffffffffffffff82610a46565b610a8d8683610a46565b95508019841693508086168417925050509392505050565b6000819050919050565b6000610aca610ac5610ac08461089c565b610aa5565b61089c565b9050919050565b6000819050919050565b610ae483610aaf565b610af8610af082610ad1565b848454610a53565b825550505050565b600090565b610b0d610b00565b610b18818484610adb565b505050565b5b81811015610b3c57610b31600082610b05565b600181019050610b1e565b5050565b601f821115610b8157610b5281610a21565b610b5b84610a36565b81016020851015610b6a578190505b610b7e610b7685610a36565b830182610b1d565b50505b505050565b600082821c905092915050565b6000610ba460001984600802610b86565b1980831691505092915050565b6000610bbd8383610b93565b9150826002028217905092915050565b610bd68261080c565b67ffffffffffffffff811115610bef57610bee610992565b5b610bf982546109f0565b610c04828285610b40565b600060209050601f831160018114610c375760008415610c25578287015190505b610c2f8582610bb1565b865550610c97565b601f198416610c4586610a21565b60005b82811015610c6d57848901518255600182019150602085019450602081019050610c48565b86831015610c8a5784890151610c86601f891682610b93565b8355505b6001600288020188555050505b505050505050565b7f4e487b7100000000000000000000000000000000000000000000000000000000600052603260045260246000fdfea26469706673582212203e323ab1cc788b71179ae9c119a0369c2201c464578717d56c63d48a158376a864736f6c63430008110033",
					"opcodes": "PUSH1 0x80 PUSH1 0x40 MSTORE CALLVALUE DUP1 ISZERO PUSH2 0x10 JUMPI PUSH1 0x0 DUP1 REVERT JUMPDEST POP PUSH2 0xD04 DUP1 PUSH2 0x20 PUSH1 0x0 CODECOPY PUSH1 0x0 RETURN INVALID PUSH1 0x80 PUSH1 0x40 MSTORE CALLVALUE DUP1 ISZERO PUSH2 0x10 JUMPI PUSH1 0x0 DUP1 REVERT JUMPDEST POP PUSH1 0x4 CALLDATASIZE LT PUSH2 0x41 JUMPI PUSH1 0x0 CALLDATALOAD PUSH1 0xE0 SHR DUP1 PUSH4 0x335D00C2 EQ PUSH2 0x46 JUMPI DUP1 PUSH4 0xEE26FAC3 EQ PUSH2 0x50 JUMPI DUP1 PUSH4 0xF7746E36 EQ PUSH2 0x70 JUMPI JUMPDEST PUSH1 0x0 DUP1 REVERT JUMPDEST PUSH2 0x4E PUSH2 0xA2 JUMP JUMPDEST STOP JUMPDEST PUSH2 0x58 PUSH2 0x633 JUMP JUMPDEST PUSH1 0x40 MLOAD PUSH2 0x67 SWAP4 SWAP3 SWAP2 SWAP1 PUSH2 0x8F6 JUMP JUMPDEST PUSH1 0x40 MLOAD DUP1 SWAP2 SUB SWAP1 RETURN JUMPDEST PUSH2 0x8A PUSH1 0x4 DUP1 CALLDATASIZE SUB DUP2 ADD SWAP1 PUSH2 0x85 SWAP2 SWAP1 PUSH2 0x965 JUMP JUMPDEST PUSH2 0x6F3 JUMP JUMPDEST PUSH1 0x40 MLOAD PUSH2 0x99 SWAP4 SWAP3 SWAP2 SWAP1 PUSH2 0x8F6 JUMP JUMPDEST PUSH1 0x40 MLOAD DUP1 SWAP2 SUB SWAP1 RETURN JUMPDEST PUSH1 0x0 PUSH1 0x40 MLOAD DUP1 PUSH1 0x60 ADD PUSH1 0x40 MSTORE DUP1 PUSH1 0x40 MLOAD DUP1 PUSH1 0x40 ADD PUSH1 0x40 MSTORE DUP1 PUSH1 0x6 DUP2 MSTORE PUSH1 0x20 ADD PUSH32 0x546F796F74610000000000000000000000000000000000000000000000000000 DUP2 MSTORE POP DUP2 MSTORE PUSH1 0x20 ADD PUSH2 0x7D0 DUP2 MSTORE PUSH1 0x20 ADD CALLER PUSH20 0xFFFFFFFFFFFFFFFFFFFFFFFFFFFFFFFFFFFFFFFF AND DUP2 MSTORE POP SWAP1 POP PUSH1 0x0 PUSH1 0x40 MLOAD DUP1 PUSH1 0x60 ADD PUSH1 0x40 MSTORE DUP1 PUSH1 0x40 MLOAD DUP1 PUSH1 0x40 ADD PUSH1 0x40 MSTORE DUP1 PUSH1 0x3 DUP2 MSTORE PUSH1 0x20 ADD PUSH32 0x424D570000000000000000000000000000000000000000000000000000000000 DUP2 MSTORE POP DUP2 MSTORE PUSH1 0x20 ADD PUSH2 0x7E6 DUP2 MSTORE PUSH1 0x20 ADD CALLER PUSH20 0xFFFFFFFFFFFFFFFFFFFFFFFFFFFFFFFFFFFFFFFF AND DUP2 MSTORE POP SWAP1 POP PUSH2 0x182 PUSH2 0x7D5 JUMP JUMPDEST PUSH1 0x40 MLOAD DUP1 PUSH1 0x40 ADD PUSH1 0x40 MSTORE DUP1 PUSH1 0x5 DUP2 MSTORE PUSH1 0x20 ADD PUSH32 0x5465736C61000000000000000000000000000000000000000000000000000000 DUP2 MSTORE POP DUP2 PUSH1 0x0 ADD DUP2 SWAP1 MSTORE POP PUSH2 0x7E5 DUP2 PUSH1 0x20 ADD DUP2 DUP2 MSTORE POP POP CALLER DUP2 PUSH1 0x40 ADD SWAP1 PUSH20 0xFFFFFFFFFFFFFFFFFFFFFFFFFFFFFFFFFFFFFFFF AND SWAP1 DUP2 PUSH20 0xFFFFFFFFFFFFFFFFFFFFFFFFFFFFFFFFFFFFFFFF AND DUP2 MSTORE POP POP PUSH1 0x3 DUP4 SWAP1 DUP1 PUSH1 0x1 DUP2 SLOAD ADD DUP1 DUP3 SSTORE DUP1 SWAP2 POP POP PUSH1 0x1 SWAP1 SUB SWAP1 PUSH1 0x0 MSTORE PUSH1 0x20 PUSH1 0x0 KECCAK256 SWAP1 PUSH1 0x3 MUL ADD PUSH1 0x0 SWAP1 SWAP2 SWAP1 SWAP2 SWAP1 SWAP2 POP PUSH1 0x0 DUP3 ADD MLOAD DUP2 PUSH1 0x0 ADD SWAP1 DUP2 PUSH2 0x245 SWAP2 SWAP1 PUSH2 0xBCD JUMP JUMPDEST POP PUSH1 0x20 DUP3 ADD MLOAD DUP2 PUSH1 0x1 ADD SSTORE PUSH1 0x40 DUP3 ADD MLOAD DUP2 PUSH1 0x2 ADD PUSH1 0x0 PUSH2 0x100 EXP DUP2 SLOAD DUP2 PUSH20 0xFFFFFFFFFFFFFFFFFFFFFFFFFFFFFFFFFFFFFFFF MUL NOT AND SWAP1 DUP4 PUSH20 0xFFFFFFFFFFFFFFFFFFFFFFFFFFFFFFFFFFFFFFFF AND MUL OR SWAP1 SSTORE POP POP POP PUSH1 0x3 DUP3 SWAP1 DUP1 PUSH1 0x1 DUP2 SLOAD ADD DUP1 DUP3 SSTORE DUP1 SWAP2 POP POP PUSH1 0x1 SWAP1 SUB SWAP1 PUSH1 0x0 MSTORE PUSH1 0x20 PUSH1 0x0 KECCAK256 SWAP1 PUSH1 0x3 MUL ADD PUSH1 0x0 SWAP1 SWAP2 SWAP1 SWAP2 SWAP1 SWAP2 POP PUSH1 0x0 DUP3 ADD MLOAD DUP2 PUSH1 0x0 ADD SWAP1 DUP2 PUSH2 0x2DA SWAP2 SWAP1 PUSH2 0xBCD JUMP JUMPDEST POP PUSH1 0x20 DUP3 ADD MLOAD DUP2 PUSH1 0x1 ADD SSTORE PUSH1 0x40 DUP3 ADD MLOAD DUP2 PUSH1 0x2 ADD PUSH1 0x0 PUSH2 0x100 EXP DUP2 SLOAD DUP2 PUSH20 0xFFFFFFFFFFFFFFFFFFFFFFFFFFFFFFFFFFFFFFFF MUL NOT AND SWAP1 DUP4 PUSH20 0xFFFFFFFFFFFFFFFFFFFFFFFFFFFFFFFFFFFFFFFF AND MUL OR SWAP1 SSTORE POP POP POP PUSH1 0x3 DUP2 SWAP1 DUP1 PUSH1 0x1 DUP2 SLOAD ADD DUP1 DUP3 SSTORE DUP1 SWAP2 POP POP PUSH1 0x1 SWAP1 SUB SWAP1 PUSH1 0x0 MSTORE PUSH1 0x20 PUSH1 0x0 KECCAK256 SWAP1 PUSH1 0x3 MUL ADD PUSH1 0x0 SWAP1 SWAP2 SWAP1 SWAP2 SWAP1 SWAP2 POP PUSH1 0x0 DUP3 ADD MLOAD DUP2 PUSH1 0x0 ADD SWAP1 DUP2 PUSH2 0x36F SWAP2 SWAP1 PUSH2 0xBCD JUMP JUMPDEST POP PUSH1 0x20 DUP3 ADD MLOAD DUP2 PUSH1 0x1 ADD SSTORE PUSH1 0x40 DUP3 ADD MLOAD DUP2 PUSH1 0x2 ADD PUSH1 0x0 PUSH2 0x100 EXP DUP2 SLOAD DUP2 PUSH20 0xFFFFFFFFFFFFFFFFFFFFFFFFFFFFFFFFFFFFFFFF MUL NOT AND SWAP1 DUP4 PUSH20 0xFFFFFFFFFFFFFFFFFFFFFFFFFFFFFFFFFFFFFFFF AND MUL OR SWAP1 SSTORE POP POP POP PUSH1 0x3 PUSH1 0x40 MLOAD DUP1 PUSH1 0x60 ADD PUSH1 0x40 MSTORE DUP1 PUSH1 0x40 MLOAD DUP1 PUSH1 0x40 ADD PUSH1 0x40 MSTORE DUP1 PUSH1 0x7 DUP2 MSTORE PUSH1 0x20 ADD PUSH32 0x6665727261726900000000000000000000000000000000000000000000000000 DUP2 MSTORE POP DUP2 MSTORE PUSH1 0x20 ADD PUSH2 0x7D9 DUP2 MSTORE PUSH1 0x20 ADD CALLER PUSH20 0xFFFFFFFFFFFFFFFFFFFFFFFFFFFFFFFFFFFFFFFF AND DUP2 MSTORE POP SWAP1 DUP1 PUSH1 0x1 DUP2 SLOAD ADD DUP1 DUP3 SSTORE DUP1 SWAP2 POP POP PUSH1 0x1 SWAP1 SUB SWAP1 PUSH1 0x0 MSTORE PUSH1 0x20 PUSH1 0x0 KECCAK256 SWAP1 PUSH1 0x3 MUL ADD PUSH1 0x0 SWAP1 SWAP2 SWAP1 SWAP2 SWAP1 SWAP2 POP PUSH1 0x0 DUP3 ADD MLOAD DUP2 PUSH1 0x0 ADD SWAP1 DUP2 PUSH2 0x46B SWAP2 SWAP1 PUSH2 0xBCD JUMP JUMPDEST POP PUSH1 0x20 DUP3 ADD MLOAD DUP2 PUSH1 0x1 ADD SSTORE PUSH1 0x40 DUP3 ADD MLOAD DUP2 PUSH1 0x2 ADD PUSH1 0x0 PUSH2 0x100 EXP DUP2 SLOAD DUP2 PUSH20 0xFFFFFFFFFFFFFFFFFFFFFFFFFFFFFFFFFFFFFFFF MUL NOT AND SWAP1 DUP4 PUSH20 0xFFFFFFFFFFFFFFFFFFFFFFFFFFFFFFFFFFFFFFFF AND MUL OR SWAP1 SSTORE POP POP POP PUSH1 0x0 PUSH1 0x3 PUSH1 0x0 DUP2 SLOAD DUP2 LT PUSH2 0x4D6 JUMPI PUSH2 0x4D5 PUSH2 0xC9F JUMP JUMPDEST JUMPDEST SWAP1 PUSH1 0x0 MSTORE PUSH1 0x20 PUSH1 0x0 KECCAK256 SWAP1 PUSH1 0x3 MUL ADD PUSH1 0x40 MLOAD DUP1 PUSH1 0x60 ADD PUSH1 0x40 MSTORE SWAP1 DUP2 PUSH1 0x0 DUP3 ADD DUP1 SLOAD PUSH2 0x4FF SWAP1 PUSH2 0x9F0 JUMP JUMPDEST DUP1 PUSH1 0x1F ADD PUSH1 0x20 DUP1 SWAP2 DIV MUL PUSH1 0x20 ADD PUSH1 0x40 MLOAD SWAP1 DUP2 ADD PUSH1 0x40 MSTORE DUP1 SWAP3 SWAP2 SWAP1 DUP2 DUP2 MSTORE PUSH1 0x20 ADD DUP3 DUP1 SLOAD PUSH2 0x52B SWAP1 PUSH2 0x9F0 JUMP JUMPDEST DUP1 ISZERO PUSH2 0x578 JUMPI DUP1 PUSH1 0x1F LT PUSH2 0x54D JUMPI PUSH2 0x100 DUP1 DUP4 SLOAD DIV MUL DUP4 MSTORE SWAP2 PUSH1 0x20 ADD SWAP2 PUSH2 0x578 JUMP JUMPDEST DUP3 ADD SWAP2 SWAP1 PUSH1 0x0 MSTORE PUSH1 0x20 PUSH1 0x0 KECCAK256 SWAP1 JUMPDEST DUP2 SLOAD DUP2 MSTORE SWAP1 PUSH1 0x1 ADD SWAP1 PUSH1 0x20 ADD DUP1 DUP4 GT PUSH2 0x55B JUMPI DUP3 SWAP1 SUB PUSH1 0x1F AND DUP3 ADD SWAP2 JUMPDEST POP POP POP POP POP DUP2 MSTORE PUSH1 0x20 ADD PUSH1 0x1 DUP3 ADD SLOAD DUP2 MSTORE PUSH1 0x20 ADD PUSH1 0x2 DUP3 ADD PUSH1 0x0 SWAP1 SLOAD SWAP1 PUSH2 0x100 EXP SWAP1 DIV PUSH20 0xFFFFFFFFFFFFFFFFFFFFFFFFFFFFFFFFFFFFFFFF AND PUSH20 0xFFFFFFFFFFFFFFFFFFFFFFFFFFFFFFFFFFFFFFFF AND PUSH20 0xFFFFFFFFFFFFFFFFFFFFFFFFFFFFFFFFFFFFFFFF AND DUP2 MSTORE POP POP SWAP1 POP PUSH1 0x40 MLOAD DUP1 PUSH1 0x40 ADD PUSH1 0x40 MSTORE DUP1 PUSH1 0x4 DUP2 MSTORE PUSH1 0x20 ADD PUSH32 0x42656E7A00000000000000000000000000000000000000000000000000000000 DUP2 MSTORE POP DUP2 PUSH1 0x0 ADD DUP2 SWAP1 MSTORE POP PUSH2 0x7CF DUP2 PUSH1 0x20 ADD DUP2 DUP2 MSTORE POP POP POP POP POP POP JUMP JUMPDEST PUSH1 0x0 DUP1 PUSH1 0x0 ADD DUP1 SLOAD PUSH2 0x644 SWAP1 PUSH2 0x9F0 JUMP JUMPDEST DUP1 PUSH1 0x1F ADD PUSH1 0x20 DUP1 SWAP2 DIV MUL PUSH1 0x20 ADD PUSH1 0x40 MLOAD SWAP1 DUP2 ADD PUSH1 0x40 MSTORE DUP1 SWAP3 SWAP2 SWAP1 DUP2 DUP2 MSTORE PUSH1 0x20 ADD DUP3 DUP1 SLOAD PUSH2 0x670 SWAP1 PUSH2 0x9F0 JUMP JUMPDEST DUP1 ISZERO PUSH2 0x6BD JUMPI DUP1 PUSH1 0x1F LT PUSH2 0x692 JUMPI PUSH2 0x100 DUP1 DUP4 SLOAD DIV MUL DUP4 MSTORE SWAP2 PUSH1 0x20 ADD SWAP2 PUSH2 0x6BD JUMP JUMPDEST DUP3 ADD SWAP2 SWAP1 PUSH1 0x0 MSTORE PUSH1 0x20 PUSH1 0x0 KECCAK256 SWAP1 JUMPDEST DUP2 SLOAD DUP2 MSTORE SWAP1 PUSH1 0x1 ADD SWAP1 PUSH1 0x20 ADD DUP1 DUP4 GT PUSH2 0x6A0 JUMPI DUP3 SWAP1 SUB PUSH1 0x1F AND DUP3 ADD SWAP2 JUMPDEST POP POP POP POP POP SWAP1 DUP1 PUSH1 0x1 ADD SLOAD SWAP1 DUP1 PUSH1 0x2 ADD PUSH1 0x0 SWAP1 SLOAD SWAP1 PUSH2 0x100 EXP SWAP1 DIV PUSH20 0xFFFFFFFFFFFFFFFFFFFFFFFFFFFFFFFFFFFFFFFF AND SWAP1 POP DUP4 JUMP JUMPDEST PUSH1 0x3 DUP2 DUP2 SLOAD DUP2 LT PUSH2 0x703 JUMPI PUSH1 0x0 DUP1 REVERT JUMPDEST SWAP1 PUSH1 0x0 MSTORE PUSH1 0x20 PUSH1 0x0 KECCAK256 SWAP1 PUSH1 0x3 MUL ADD PUSH1 0x0 SWAP2 POP SWAP1 POP DUP1 PUSH1 0x0 ADD DUP1 SLOAD PUSH2 0x726 SWAP1 PUSH2 0x9F0 JUMP JUMPDEST DUP1 PUSH1 0x1F ADD PUSH1 0x20 DUP1 SWAP2 DIV MUL PUSH1 0x20 ADD PUSH1 0x40 MLOAD SWAP1 DUP2 ADD PUSH1 0x40 MSTORE DUP1 SWAP3 SWAP2 SWAP1 DUP2 DUP2 MSTORE PUSH1 0x20 ADD DUP3 DUP1 SLOAD PUSH2 0x752 SWAP1 PUSH2 0x9F0 JUMP JUMPDEST DUP1 ISZERO PUSH2 0x79F JUMPI DUP1 PUSH1 0x1F LT PUSH2 0x774 JUMPI PUSH2 0x100 DUP1 DUP4 SLOAD DIV MUL DUP4 MSTORE SWAP2 PUSH1 0x20 ADD SWAP2 PUSH2 0x79F JUMP JUMPDEST DUP3 ADD SWAP2 SWAP1 PUSH1 0x0 MSTORE PUSH1 0x20 PUSH1 0x0 KECCAK256 SWAP1 JUMPDEST DUP2 SLOAD DUP2 MSTORE SWAP1 PUSH1 0x1 ADD SWAP1 PUSH1 0x20 ADD DUP1 DUP4 GT PUSH2 0x782 JUMPI DUP3 SWAP1 SUB PUSH1 0x1F AND DUP3 ADD SWAP2 JUMPDEST POP POP POP POP POP SWAP1 DUP1 PUSH1 0x1 ADD SLOAD SWAP1 DUP1 PUSH1 0x2 ADD PUSH1 0x0 SWAP1 SLOAD SWAP1 PUSH2 0x100 EXP SWAP1 DIV PUSH20 0xFFFFFFFFFFFFFFFFFFFFFFFFFFFFFFFFFFFFFFFF AND SWAP1 POP DUP4 JUMP JUMPDEST PUSH1 0x40 MLOAD DUP1 PUSH1 0x60 ADD PUSH1 0x40 MSTORE DUP1 PUSH1 0x60 DUP2 MSTORE PUSH1 0x20 ADD PUSH1 0x0 DUP2 MSTORE PUSH1 0x20 ADD PUSH1 0x0 PUSH20 0xFFFFFFFFFFFFFFFFFFFFFFFFFFFFFFFFFFFFFFFF AND DUP2 MSTORE POP SWAP1 JUMP JUMPDEST PUSH1 0x0 DUP2 MLOAD SWAP1 POP SWAP2 SWAP1 POP JUMP JUMPDEST PUSH1 0x0 DUP3 DUP3 MSTORE PUSH1 0x20 DUP3 ADD SWAP1 POP SWAP3 SWAP2 POP POP JUMP JUMPDEST PUSH1 0x0 JUMPDEST DUP4 DUP2 LT ISZERO PUSH2 0x846 JUMPI DUP1 DUP3 ADD MLOAD DUP2 DUP5 ADD MSTORE PUSH1 0x20 DUP2 ADD SWAP1 POP PUSH2 0x82B JUMP JUMPDEST PUSH1 0x0 DUP5 DUP5 ADD MSTORE POP POP POP POP JUMP JUMPDEST PUSH1 0x0 PUSH1 0x1F NOT PUSH1 0x1F DUP4 ADD AND SWAP1 POP SWAP2 SWAP1 POP JUMP JUMPDEST PUSH1 0x0 PUSH2 0x86E DUP3 PUSH2 0x80C JUMP JUMPDEST PUSH2 0x878 DUP2 DUP6 PUSH2 0x817 JUMP JUMPDEST SWAP4 POP PUSH2 0x888 DUP2 DUP6 PUSH1 0x20 DUP7 ADD PUSH2 0x828 JUMP JUMPDEST PUSH2 0x891 DUP2 PUSH2 0x852 JUMP JUMPDEST DUP5 ADD SWAP2 POP POP SWAP3 SWAP2 POP POP JUMP JUMPDEST PUSH1 0x0 DUP2 SWAP1 POP SWAP2 SWAP1 POP JUMP JUMPDEST PUSH2 0x8AF DUP2 PUSH2 0x89C JUMP JUMPDEST DUP3 MSTORE POP POP JUMP JUMPDEST PUSH1 0x0 PUSH20 0xFFFFFFFFFFFFFFFFFFFFFFFFFFFFFFFFFFFFFFFF DUP3 AND SWAP1 POP SWAP2 SWAP1 POP JUMP JUMPDEST PUSH1 0x0 PUSH2 0x8E0 DUP3 PUSH2 0x8B5 JUMP JUMPDEST SWAP1 POP SWAP2 SWAP1 POP JUMP JUMPDEST PUSH2 0x8F0 DUP2 PUSH2 0x8D5 JUMP JUMPDEST DUP3 MSTORE POP POP JUMP JUMPDEST PUSH1 0x0 PUSH1 0x60 DUP3 ADD SWAP1 POP DUP2 DUP2 SUB PUSH1 0x0 DUP4 ADD MSTORE PUSH2 0x910 DUP2 DUP7 PUSH2 0x863 JUMP JUMPDEST SWAP1 POP PUSH2 0x91F PUSH1 0x20 DUP4 ADD DUP6 PUSH2 0x8A6 JUMP JUMPDEST PUSH2 0x92C PUSH1 0x40 DUP4 ADD DUP5 PUSH2 0x8E7 JUMP JUMPDEST SWAP5 SWAP4 POP POP POP POP JUMP JUMPDEST PUSH1 0x0 DUP1 REVERT JUMPDEST PUSH2 0x942 DUP2 PUSH2 0x89C JUMP JUMPDEST DUP2 EQ PUSH2 0x94D JUMPI PUSH1 0x0 DUP1 REVERT JUMPDEST POP JUMP JUMPDEST PUSH1 0x0 DUP2 CALLDATALOAD SWAP1 POP PUSH2 0x95F DUP2 PUSH2 0x939 JUMP JUMPDEST SWAP3 SWAP2 POP POP JUMP JUMPDEST PUSH1 0x0 PUSH1 0x20 DUP3 DUP5 SUB SLT ISZERO PUSH2 0x97B JUMPI PUSH2 0x97A PUSH2 0x934 JUMP JUMPDEST JUMPDEST PUSH1 0x0 PUSH2 0x989 DUP5 DUP3 DUP6 ADD PUSH2 0x950 JUMP JUMPDEST SWAP2 POP POP SWAP3 SWAP2 POP POP JUMP JUMPDEST PUSH32 0x4E487B7100000000000000000000000000000000000000000000000000000000 PUSH1 0x0 MSTORE PUSH1 0x41 PUSH1 0x4 MSTORE PUSH1 0x24 PUSH1 0x0 REVERT JUMPDEST PUSH32 0x4E487B7100000000000000000000000000000000000000000000000000000000 PUSH1 0x0 MSTORE PUSH1 0x22 PUSH1 0x4 MSTORE PUSH1 0x24 PUSH1 0x0 REVERT JUMPDEST PUSH1 0x0 PUSH1 0x2 DUP3 DIV SWAP1 POP PUSH1 0x1 DUP3 AND DUP1 PUSH2 0xA08 JUMPI PUSH1 0x7F DUP3 AND SWAP2 POP JUMPDEST PUSH1 0x20 DUP3 LT DUP2 SUB PUSH2 0xA1B JUMPI PUSH2 0xA1A PUSH2 0x9C1 JUMP JUMPDEST JUMPDEST POP SWAP2 SWAP1 POP JUMP JUMPDEST PUSH1 0x0 DUP2 SWAP1 POP DUP2 PUSH1 0x0 MSTORE PUSH1 0x20 PUSH1 0x0 KECCAK256 SWAP1 POP SWAP2 SWAP1 POP JUMP JUMPDEST PUSH1 0x0 PUSH1 0x20 PUSH1 0x1F DUP4 ADD DIV SWAP1 POP SWAP2 SWAP1 POP JUMP JUMPDEST PUSH1 0x0 DUP3 DUP3 SHL SWAP1 POP SWAP3 SWAP2 POP POP JUMP JUMPDEST PUSH1 0x0 PUSH1 0x8 DUP4 MUL PUSH2 0xA83 PUSH32 0xFFFFFFFFFFFFFFFFFFFFFFFFFFFFFFFFFFFFFFFFFFFFFFFFFFFFFFFFFFFFFFFF DUP3 PUSH2 0xA46 JUMP JUMPDEST PUSH2 0xA8D DUP7 DUP4 PUSH2 0xA46 JUMP JUMPDEST SWAP6 POP DUP1 NOT DUP5 AND SWAP4 POP DUP1 DUP7 AND DUP5 OR SWAP3 POP POP POP SWAP4 SWAP3 POP POP POP JUMP JUMPDEST PUSH1 0x0 DUP2 SWAP1 POP SWAP2 SWAP1 POP JUMP JUMPDEST PUSH1 0x0 PUSH2 0xACA PUSH2 0xAC5 PUSH2 0xAC0 DUP5 PUSH2 0x89C JUMP JUMPDEST PUSH2 0xAA5 JUMP JUMPDEST PUSH2 0x89C JUMP JUMPDEST SWAP1 POP SWAP2 SWAP1 POP JUMP JUMPDEST PUSH1 0x0 DUP2 SWAP1 POP SWAP2 SWAP1 POP JUMP JUMPDEST PUSH2 0xAE4 DUP4 PUSH2 0xAAF JUMP JUMPDEST PUSH2 0xAF8 PUSH2 0xAF0 DUP3 PUSH2 0xAD1 JUMP JUMPDEST DUP5 DUP5 SLOAD PUSH2 0xA53 JUMP JUMPDEST DUP3 SSTORE POP POP POP POP JUMP JUMPDEST PUSH1 0x0 SWAP1 JUMP JUMPDEST PUSH2 0xB0D PUSH2 0xB00 JUMP JUMPDEST PUSH2 0xB18 DUP2 DUP5 DUP5 PUSH2 0xADB JUMP JUMPDEST POP POP POP JUMP JUMPDEST JUMPDEST DUP2 DUP2 LT ISZERO PUSH2 0xB3C JUMPI PUSH2 0xB31 PUSH1 0x0 DUP3 PUSH2 0xB05 JUMP JUMPDEST PUSH1 0x1 DUP2 ADD SWAP1 POP PUSH2 0xB1E JUMP JUMPDEST POP POP JUMP JUMPDEST PUSH1 0x1F DUP3 GT ISZERO PUSH2 0xB81 JUMPI PUSH2 0xB52 DUP2 PUSH2 0xA21 JUMP JUMPDEST PUSH2 0xB5B DUP5 PUSH2 0xA36 JUMP JUMPDEST DUP2 ADD PUSH1 0x20 DUP6 LT ISZERO PUSH2 0xB6A JUMPI DUP2 SWAP1 POP JUMPDEST PUSH2 0xB7E PUSH2 0xB76 DUP6 PUSH2 0xA36 JUMP JUMPDEST DUP4 ADD DUP3 PUSH2 0xB1D JUMP JUMPDEST POP POP JUMPDEST POP POP POP JUMP JUMPDEST PUSH1 0x0 DUP3 DUP3 SHR SWAP1 POP SWAP3 SWAP2 POP POP JUMP JUMPDEST PUSH1 0x0 PUSH2 0xBA4 PUSH1 0x0 NOT DUP5 PUSH1 0x8 MUL PUSH2 0xB86 JUMP JUMPDEST NOT DUP1 DUP4 AND SWAP2 POP POP SWAP3 SWAP2 POP POP JUMP JUMPDEST PUSH1 0x0 PUSH2 0xBBD DUP4 DUP4 PUSH2 0xB93 JUMP JUMPDEST SWAP2 POP DUP3 PUSH1 0x2 MUL DUP3 OR SWAP1 POP SWAP3 SWAP2 POP POP JUMP JUMPDEST PUSH2 0xBD6 DUP3 PUSH2 0x80C JUMP JUMPDEST PUSH8 0xFFFFFFFFFFFFFFFF DUP2 GT ISZERO PUSH2 0xBEF JUMPI PUSH2 0xBEE PUSH2 0x992 JUMP JUMPDEST JUMPDEST PUSH2 0xBF9 DUP3 SLOAD PUSH2 0x9F0 JUMP JUMPDEST PUSH2 0xC04 DUP3 DUP3 DUP6 PUSH2 0xB40 JUMP JUMPDEST PUSH1 0x0 PUSH1 0x20 SWAP1 POP PUSH1 0x1F DUP4 GT PUSH1 0x1 DUP2 EQ PUSH2 0xC37 JUMPI PUSH1 0x0 DUP5 ISZERO PUSH2 0xC25 JUMPI DUP3 DUP8 ADD MLOAD SWAP1 POP JUMPDEST PUSH2 0xC2F DUP6 DUP3 PUSH2 0xBB1 JUMP JUMPDEST DUP7 SSTORE POP PUSH2 0xC97 JUMP JUMPDEST PUSH1 0x1F NOT DUP5 AND PUSH2 0xC45 DUP7 PUSH2 0xA21 JUMP JUMPDEST PUSH1 0x0 JUMPDEST DUP3 DUP2 LT ISZERO PUSH2 0xC6D JUMPI DUP5 DUP10 ADD MLOAD DUP3 SSTORE PUSH1 0x1 DUP3 ADD SWAP2 POP PUSH1 0x20 DUP6 ADD SWAP5 POP PUSH1 0x20 DUP2 ADD SWAP1 POP PUSH2 0xC48 JUMP JUMPDEST DUP7 DUP4 LT ISZERO PUSH2 0xC8A JUMPI DUP5 DUP10 ADD MLOAD PUSH2 0xC86 PUSH1 0x1F DUP10 AND DUP3 PUSH2 0xB93 JUMP JUMPDEST DUP4 SSTORE POP JUMPDEST PUSH1 0x1 PUSH1 0x2 DUP9 MUL ADD DUP9 SSTORE POP POP POP JUMPDEST POP POP POP POP POP POP JUMP JUMPDEST PUSH32 0x4E487B7100000000000000000000000000000000000000000000000000000000 PUSH1 0x0 MSTORE PUSH1 0x32 PUSH1 0x4 MSTORE PUSH1 0x24 PUSH1 0x0 REVERT INVALID LOG2 PUSH5 0x6970667358 0x22 SLT KECCAK256 RETURNDATACOPY ORIGIN GASPRICE 0xB1 0xCC PUSH25 0x8B71179AE9C119A0369C2201C464578717D56C63D48A158376 0xA8 PUSH5 0x736F6C6343 STOP ADDMOD GT STOP CALLER "
				},
				"gasEstimates": {
					"creation": {
						"codeDepositCost": "666400",
						"executionCost": "702",
						"totalCost": "667102"
					},
					"external": {
						"car()": "infinite",
						"cars(uint256)": "infinite",
						"examples()": "infinite"
					}
				},
				"methodIdentifiers": {
					"car()": "ee26fac3",
					"cars(uint256)": "f7746e36",
					"examples()": "335d00c2"
				}
			},
			"storageLayout": {
				"storage": [
					{
						"astId": 11,
						"contract": "StructTest.sol:StructTest",
						"label": "car",
						"offset": 0,
						"slot": "0",
						"type": "t_struct(Car)8_storage"
					},
					{
						"astId": 15,
						"contract": "StructTest.sol:StructTest",
						"label": "cars",
						"offset": 0,
						"slot": "3",
						"type": "t_array(t_struct(Car)8_storage)dyn_storage"
					}
				],
				"types": {
					"t_address": {
						"encoding": "inplace",
						"label": "address",
						"numberOfBytes": "20"
					},
					"t_array(t_struct(Car)8_storage)dyn_storage": {
						"base": "t_struct(Car)8_storage",
						"encoding": "dynamic_array",
						"label": "struct StructTest.Car[]",
						"numberOfBytes": "32"
					},
					"t_string_storage": {
						"encoding": "bytes",
						"label": "string",
						"numberOfBytes": "32"
					},
					"t_struct(Car)8_storage": {
						"encoding": "inplace",
						"label": "struct StructTest.Car",
						"members": [
							{
								"astId": 3,
								"contract": "StructTest.sol:StructTest",
								"label": "name",
								"offset": 0,
								"slot": "0",
								"type": "t_string_storage"
							},
							{
								"astId": 5,
								"contract": "StructTest.sol:StructTest",
								"label": "year",
								"offset": 0,
								"slot": "1",
								"type": "t_uint256"
							},
							{
								"astId": 7,
								"contract": "StructTest.sol:StructTest",
								"label": "owner",
								"offset": 0,
								"slot": "2",
								"type": "t_address"
							}
						],
						"numberOfBytes": "96"
					},
					"t_uint256": {
						"encoding": "inplace",
						"label": "uint256",
						"numberOfBytes": "32"
					}
				}
			},
			"userdoc": {
				"kind": "user",
				"methods": {},
				"version": 1
			}
		}
	}
}