{
	"ImportContract.sol": {
		"A": {
			"abi": [
				{
					"inputs": [
						{
							"internalType": "string",
							"name": "_text",
							"type": "string"
						},
						{
							"internalType": "uint256",
							"name": "_num",
							"type": "uint256"
						},
						{
							"internalType": "address",
							"name": "_address",
							"type": "address"
						}
					],
					"name": "importDemo1",
					"outputs": [
						{
							"internalType": "bytes32",
							"name": "",
							"type": "bytes32"
						}
					],
					"stateMutability": "view",
					"type": "function"
				},
				{
					"inputs": [
						{
							"internalType": "address",
							"name": "_address",
							"type": "address"
						}
					],
					"name": "importDemo2",
					"outputs": [
						{
							"internalType": "bool",
							"name": "",
							"type": "bool"
						}
					],
					"stateMutability": "view",
					"type": "function"
				}
			],
			"devdoc": {
				"kind": "dev",
				"methods": {},
				"version": 1
			},
			"evm": {
				"assembly": "    /* \"ImportContract.sol\":252:600  contract A {... */\n  mstore(0x40, 0x80)\n    /* \"ImportContract.sol\":285:296  new Hash1() */\n  mload(0x40)\n  tag_1\n  swap1\n  tag_2\n  jump\t// in\ntag_1:\n  mload(0x40)\n  dup1\n  swap2\n  sub\n  swap1\n  0x00\n  create\n  dup1\n  iszero\n  dup1\n  iszero\n  tag_3\n  jumpi\n  returndatasize\n  0x00\n  dup1\n  returndatacopy\n  revert(0x00, returndatasize)\ntag_3:\n  pop\n    /* \"ImportContract.sol\":272:296  Hash1 hash = new Hash1() */\n  0x00\n  dup1\n  0x0100\n  exp\n  dup2\n  sload\n  dup2\n  0xffffffffffffffffffffffffffffffffffffffff\n  mul\n  not\n  and\n  swap1\n  dup4\n  0xffffffffffffffffffffffffffffffffffffffff\n  and\n  mul\n  or\n  swap1\n  sstore\n  pop\n    /* \"ImportContract.sol\":252:600  contract A {... */\n  callvalue\n  dup1\n  iszero\n  tag_4\n  jumpi\n  0x00\n  dup1\n  revert\ntag_4:\n  pop\n  jump(tag_5)\ntag_2:\n  dataSize(sub_1)\n  dup1\n  dataOffset(sub_1)\n  dup4\n  codecopy\n  add\n  swap1\n  jump\t// out\ntag_5:\n  dataSize(sub_0)\n  dup1\n  dataOffset(sub_0)\n  0x00\n  codecopy\n  0x00\n  return\nstop\n\nsub_0: assembly {\n        /* \"ImportContract.sol\":252:600  contract A {... */\n      mstore(0x40, 0x80)\n      callvalue\n      dup1\n      iszero\n      tag_1\n      jumpi\n      0x00\n      dup1\n      revert\n    tag_1:\n      pop\n      jumpi(tag_2, lt(calldatasize, 0x04))\n      shr(0xe0, calldataload(0x00))\n      dup1\n      0x0bd629ff\n      eq\n      tag_3\n      jumpi\n      dup1\n      0x23d9432e\n      eq\n      tag_4\n      jumpi\n    tag_2:\n      0x00\n      dup1\n      revert\n        /* \"ImportContract.sol\":333:491  function importDemo1(string memory _text, uint _num, address _address) external view returns (bytes32){... */\n    tag_3:\n      tag_5\n      0x04\n      dup1\n      calldatasize\n      sub\n      dup2\n      add\n      swap1\n      tag_6\n      swap2\n      swap1\n      tag_7\n      jump\t// in\n    tag_6:\n      tag_8\n      jump\t// in\n    tag_5:\n      mload(0x40)\n      tag_9\n      swap2\n      swap1\n      tag_10\n      jump\t// in\n    tag_9:\n      mload(0x40)\n      dup1\n      swap2\n      sub\n      swap1\n      return\n        /* \"ImportContract.sol\":496:598  function importDemo2(address _address) external view returns (bool){... */\n    tag_4:\n      tag_11\n      0x04\n      dup1\n      calldatasize\n      sub\n      dup2\n      add\n      swap1\n      tag_12\n      swap2\n      swap1\n      tag_13\n      jump\t// in\n    tag_12:\n      tag_14\n      jump\t// in\n    tag_11:\n      mload(0x40)\n      tag_15\n      swap2\n      swap1\n      tag_16\n      jump\t// in\n    tag_15:\n      mload(0x40)\n      dup1\n      swap2\n      sub\n      swap1\n      return\n        /* \"ImportContract.sol\":333:491  function importDemo1(string memory _text, uint _num, address _address) external view returns (bytes32){... */\n    tag_8:\n        /* \"ImportContract.sol\":427:434  bytes32 */\n      0x00\n        /* \"ImportContract.sol\":452:456  hash */\n      dup1\n      0x00\n      swap1\n      sload\n      swap1\n      0x0100\n      exp\n      swap1\n      div\n      0xffffffffffffffffffffffffffffffffffffffff\n      and\n        /* \"ImportContract.sol\":452:462  hash.hash1 */\n      0xffffffffffffffffffffffffffffffffffffffff\n      and\n      0x33ece6e9\n        /* \"ImportContract.sol\":463:468  _text */\n      dup6\n        /* \"ImportContract.sol\":470:474  _num */\n      dup6\n        /* \"ImportContract.sol\":476:484  _address */\n      dup6\n        /* \"ImportContract.sol\":452:485  hash.hash1(_text, _num, _address) */\n      mload(0x40)\n      dup5\n      0xffffffff\n      and\n      0xe0\n      shl\n      dup2\n      mstore\n      0x04\n      add\n      tag_18\n      swap4\n      swap3\n      swap2\n      swap1\n      tag_19\n      jump\t// in\n    tag_18:\n      0x20\n      mload(0x40)\n      dup1\n      dup4\n      sub\n      dup2\n      dup7\n      dup1\n      extcodesize\n      iszero\n      dup1\n      iszero\n      tag_20\n      jumpi\n      0x00\n      dup1\n      revert\n    tag_20:\n      pop\n      gas\n      staticcall\n      iszero\n      dup1\n      iszero\n      tag_22\n      jumpi\n      returndatasize\n      0x00\n      dup1\n      returndatacopy\n      revert(0x00, returndatasize)\n    tag_22:\n      pop\n      pop\n      pop\n      pop\n      mload(0x40)\n      returndatasize\n      not(0x1f)\n      0x1f\n      dup3\n      add\n      and\n      dup3\n      add\n      dup1\n      0x40\n      mstore\n      pop\n      dup2\n      add\n      swap1\n      tag_23\n      swap2\n      swap1\n      tag_24\n      jump\t// in\n    tag_23:\n        /* \"ImportContract.sol\":445:485  return hash.hash1(_text, _num, _address) */\n      swap1\n      pop\n        /* \"ImportContract.sol\":333:491  function importDemo1(string memory _text, uint _num, address _address) external view returns (bytes32){... */\n      swap4\n      swap3\n      pop\n      pop\n      pop\n      jump\t// out\n        /* \"ImportContract.sol\":496:598  function importDemo2(address _address) external view returns (bool){... */\n    tag_14:\n        /* \"ImportContract.sol\":558:562  bool */\n      0x00\n        /* \"ImportContract.sol\":571:592  _address.isContract() */\n      tag_26\n        /* \"ImportContract.sol\":571:579  _address */\n      dup3\n        /* \"ImportContract.sol\":571:590  _address.isContract */\n      0xffffffffffffffffffffffffffffffffffffffff\n      and\n      tag_27\n        /* \"ImportContract.sol\":571:592  _address.isContract() */\n      jump\t// in\n    tag_26:\n      pop\n        /* \"ImportContract.sol\":496:598  function importDemo2(address _address) external view returns (bool){... */\n      swap2\n      swap1\n      pop\n      jump\t// out\n        /* \"https://github.com/OpenZeppelin/openzeppelin-contracts/blob/master/contracts/utils/Address.sol\":1175:1495  function isContract(address account) internal view returns (bool) {... */\n    tag_27:\n        /* \"https://github.com/OpenZeppelin/openzeppelin-contracts/blob/master/contracts/utils/Address.sol\":1235:1239  bool */\n      0x00\n        /* \"https://github.com/OpenZeppelin/openzeppelin-contracts/blob/master/contracts/utils/Address.sol\":1487:1488  0 */\n      dup1\n        /* \"https://github.com/OpenZeppelin/openzeppelin-contracts/blob/master/contracts/utils/Address.sol\":1465:1472  account */\n      dup3\n        /* \"https://github.com/OpenZeppelin/openzeppelin-contracts/blob/master/contracts/utils/Address.sol\":1465:1484  account.code.length */\n      0xffffffffffffffffffffffffffffffffffffffff\n      and\n      extcodesize\n        /* \"https://github.com/OpenZeppelin/openzeppelin-contracts/blob/master/contracts/utils/Address.sol\":1465:1488  account.code.length > 0 */\n      gt\n        /* \"https://github.com/OpenZeppelin/openzeppelin-contracts/blob/master/contracts/utils/Address.sol\":1458:1488  return account.code.length > 0 */\n      swap1\n      pop\n        /* \"https://github.com/OpenZeppelin/openzeppelin-contracts/blob/master/contracts/utils/Address.sol\":1175:1495  function isContract(address account) internal view returns (bool) {... */\n      swap2\n      swap1\n      pop\n      jump\t// out\n        /* \"#utility.yul\":7:419   */\n    tag_30:\n        /* \"#utility.yul\":85:90   */\n      0x00\n        /* \"#utility.yul\":110:176   */\n      tag_32\n        /* \"#utility.yul\":126:175   */\n      tag_33\n        /* \"#utility.yul\":168:174   */\n      dup5\n        /* \"#utility.yul\":126:175   */\n      tag_34\n      jump\t// in\n    tag_33:\n        /* \"#utility.yul\":110:176   */\n      tag_35\n      jump\t// in\n    tag_32:\n        /* \"#utility.yul\":101:176   */\n      swap1\n      pop\n        /* \"#utility.yul\":199:205   */\n      dup3\n        /* \"#utility.yul\":192:197   */\n      dup2\n        /* \"#utility.yul\":185:206   */\n      mstore\n        /* \"#utility.yul\":237:241   */\n      0x20\n        /* \"#utility.yul\":230:235   */\n      dup2\n        /* \"#utility.yul\":226:242   */\n      add\n        /* \"#utility.yul\":275:278   */\n      dup5\n        /* \"#utility.yul\":266:272   */\n      dup5\n        /* \"#utility.yul\":261:264   */\n      dup5\n        /* \"#utility.yul\":257:273   */\n      add\n        /* \"#utility.yul\":254:279   */\n      gt\n        /* \"#utility.yul\":251:363   */\n      iszero\n      tag_36\n      jumpi\n        /* \"#utility.yul\":282:361   */\n      tag_37\n      tag_38\n      jump\t// in\n    tag_37:\n        /* \"#utility.yul\":251:363   */\n    tag_36:\n        /* \"#utility.yul\":372:413   */\n      tag_39\n        /* \"#utility.yul\":406:412   */\n      dup5\n        /* \"#utility.yul\":401:404   */\n      dup3\n        /* \"#utility.yul\":396:399   */\n      dup6\n        /* \"#utility.yul\":372:413   */\n      tag_40\n      jump\t// in\n    tag_39:\n        /* \"#utility.yul\":91:419   */\n      pop\n        /* \"#utility.yul\":7:419   */\n      swap4\n      swap3\n      pop\n      pop\n      pop\n      jump\t// out\n        /* \"#utility.yul\":425:564   */\n    tag_41:\n        /* \"#utility.yul\":471:476   */\n      0x00\n        /* \"#utility.yul\":509:515   */\n      dup2\n        /* \"#utility.yul\":496:516   */\n      calldataload\n        /* \"#utility.yul\":487:516   */\n      swap1\n      pop\n        /* \"#utility.yul\":525:558   */\n      tag_43\n        /* \"#utility.yul\":552:557   */\n      dup2\n        /* \"#utility.yul\":525:558   */\n      tag_44\n      jump\t// in\n    tag_43:\n        /* \"#utility.yul\":425:564   */\n      swap3\n      swap2\n      pop\n      pop\n      jump\t// out\n        /* \"#utility.yul\":570:713   */\n    tag_45:\n        /* \"#utility.yul\":627:632   */\n      0x00\n        /* \"#utility.yul\":658:664   */\n      dup2\n        /* \"#utility.yul\":652:665   */\n      mload\n        /* \"#utility.yul\":643:665   */\n      swap1\n      pop\n        /* \"#utility.yul\":674:707   */\n      tag_47\n        /* \"#utility.yul\":701:706   */\n      dup2\n        /* \"#utility.yul\":674:707   */\n      tag_48\n      jump\t// in\n    tag_47:\n        /* \"#utility.yul\":570:713   */\n      swap3\n      swap2\n      pop\n      pop\n      jump\t// out\n        /* \"#utility.yul\":733:1073   */\n    tag_49:\n        /* \"#utility.yul\":789:794   */\n      0x00\n        /* \"#utility.yul\":838:841   */\n      dup3\n        /* \"#utility.yul\":831:835   */\n      0x1f\n        /* \"#utility.yul\":823:829   */\n      dup4\n        /* \"#utility.yul\":819:836   */\n      add\n        /* \"#utility.yul\":815:842   */\n      slt\n        /* \"#utility.yul\":805:927   */\n      tag_51\n      jumpi\n        /* \"#utility.yul\":846:925   */\n      tag_52\n      tag_53\n      jump\t// in\n    tag_52:\n        /* \"#utility.yul\":805:927   */\n    tag_51:\n        /* \"#utility.yul\":963:969   */\n      dup2\n        /* \"#utility.yul\":950:970   */\n      calldataload\n        /* \"#utility.yul\":988:1067   */\n      tag_54\n        /* \"#utility.yul\":1063:1066   */\n      dup5\n        /* \"#utility.yul\":1055:1061   */\n      dup3\n        /* \"#utility.yul\":1048:1052   */\n      0x20\n        /* \"#utility.yul\":1040:1046   */\n      dup7\n        /* \"#utility.yul\":1036:1053   */\n      add\n        /* \"#utility.yul\":988:1067   */\n      tag_30\n      jump\t// in\n    tag_54:\n        /* \"#utility.yul\":979:1067   */\n      swap2\n      pop\n        /* \"#utility.yul\":795:1073   */\n      pop\n        /* \"#utility.yul\":733:1073   */\n      swap3\n      swap2\n      pop\n      pop\n      jump\t// out\n        /* \"#utility.yul\":1079:1218   */\n    tag_55:\n        /* \"#utility.yul\":1125:1130   */\n      0x00\n        /* \"#utility.yul\":1163:1169   */\n      dup2\n        /* \"#utility.yul\":1150:1170   */\n      calldataload\n        /* \"#utility.yul\":1141:1170   */\n      swap1\n      pop\n        /* \"#utility.yul\":1179:1212   */\n      tag_57\n        /* \"#utility.yul\":1206:1211   */\n      dup2\n        /* \"#utility.yul\":1179:1212   */\n      tag_58\n      jump\t// in\n    tag_57:\n        /* \"#utility.yul\":1079:1218   */\n      swap3\n      swap2\n      pop\n      pop\n      jump\t// out\n        /* \"#utility.yul\":1224:1553   */\n    tag_13:\n        /* \"#utility.yul\":1283:1289   */\n      0x00\n        /* \"#utility.yul\":1332:1334   */\n      0x20\n        /* \"#utility.yul\":1320:1329   */\n      dup3\n        /* \"#utility.yul\":1311:1318   */\n      dup5\n        /* \"#utility.yul\":1307:1330   */\n      sub\n        /* \"#utility.yul\":1303:1335   */\n      slt\n        /* \"#utility.yul\":1300:1419   */\n      iszero\n      tag_60\n      jumpi\n        /* \"#utility.yul\":1338:1417   */\n      tag_61\n      tag_62\n      jump\t// in\n    tag_61:\n        /* \"#utility.yul\":1300:1419   */\n    tag_60:\n        /* \"#utility.yul\":1458:1459   */\n      0x00\n        /* \"#utility.yul\":1483:1536   */\n      tag_63\n        /* \"#utility.yul\":1528:1535   */\n      dup5\n        /* \"#utility.yul\":1519:1525   */\n      dup3\n        /* \"#utility.yul\":1508:1517   */\n      dup6\n        /* \"#utility.yul\":1504:1526   */\n      add\n        /* \"#utility.yul\":1483:1536   */\n      tag_41\n      jump\t// in\n    tag_63:\n        /* \"#utility.yul\":1473:1536   */\n      swap2\n      pop\n        /* \"#utility.yul\":1429:1546   */\n      pop\n        /* \"#utility.yul\":1224:1553   */\n      swap3\n      swap2\n      pop\n      pop\n      jump\t// out\n        /* \"#utility.yul\":1559:1910   */\n    tag_24:\n        /* \"#utility.yul\":1629:1635   */\n      0x00\n        /* \"#utility.yul\":1678:1680   */\n      0x20\n        /* \"#utility.yul\":1666:1675   */\n      dup3\n        /* \"#utility.yul\":1657:1664   */\n      dup5\n        /* \"#utility.yul\":1653:1676   */\n      sub\n        /* \"#utility.yul\":1649:1681   */\n      slt\n        /* \"#utility.yul\":1646:1765   */\n      iszero\n      tag_65\n      jumpi\n        /* \"#utility.yul\":1684:1763   */\n      tag_66\n      tag_62\n      jump\t// in\n    tag_66:\n        /* \"#utility.yul\":1646:1765   */\n    tag_65:\n        /* \"#utility.yul\":1804:1805   */\n      0x00\n        /* \"#utility.yul\":1829:1893   */\n      tag_67\n        /* \"#utility.yul\":1885:1892   */\n      dup5\n        /* \"#utility.yul\":1876:1882   */\n      dup3\n        /* \"#utility.yul\":1865:1874   */\n      dup6\n        /* \"#utility.yul\":1861:1883   */\n      add\n        /* \"#utility.yul\":1829:1893   */\n      tag_45\n      jump\t// in\n    tag_67:\n        /* \"#utility.yul\":1819:1893   */\n      swap2\n      pop\n        /* \"#utility.yul\":1775:1903   */\n      pop\n        /* \"#utility.yul\":1559:1910   */\n      swap3\n      swap2\n      pop\n      pop\n      jump\t// out\n        /* \"#utility.yul\":1916:2715   */\n    tag_7:\n        /* \"#utility.yul\":2003:2009   */\n      0x00\n        /* \"#utility.yul\":2011:2017   */\n      dup1\n        /* \"#utility.yul\":2019:2025   */\n      0x00\n        /* \"#utility.yul\":2068:2070   */\n      0x60\n        /* \"#utility.yul\":2056:2065   */\n      dup5\n        /* \"#utility.yul\":2047:2054   */\n      dup7\n        /* \"#utility.yul\":2043:2066   */\n      sub\n        /* \"#utility.yul\":2039:2071   */\n      slt\n        /* \"#utility.yul\":2036:2155   */\n      iszero\n      tag_69\n      jumpi\n        /* \"#utility.yul\":2074:2153   */\n      tag_70\n      tag_62\n      jump\t// in\n    tag_70:\n        /* \"#utility.yul\":2036:2155   */\n    tag_69:\n        /* \"#utility.yul\":2222:2223   */\n      0x00\n        /* \"#utility.yul\":2211:2220   */\n      dup5\n        /* \"#utility.yul\":2207:2224   */\n      add\n        /* \"#utility.yul\":2194:2225   */\n      calldataload\n        /* \"#utility.yul\":2252:2270   */\n      0xffffffffffffffff\n        /* \"#utility.yul\":2244:2250   */\n      dup2\n        /* \"#utility.yul\":2241:2271   */\n      gt\n        /* \"#utility.yul\":2238:2355   */\n      iszero\n      tag_71\n      jumpi\n        /* \"#utility.yul\":2274:2353   */\n      tag_72\n      tag_73\n      jump\t// in\n    tag_72:\n        /* \"#utility.yul\":2238:2355   */\n    tag_71:\n        /* \"#utility.yul\":2379:2442   */\n      tag_74\n        /* \"#utility.yul\":2434:2441   */\n      dup7\n        /* \"#utility.yul\":2425:2431   */\n      dup3\n        /* \"#utility.yul\":2414:2423   */\n      dup8\n        /* \"#utility.yul\":2410:2432   */\n      add\n        /* \"#utility.yul\":2379:2442   */\n      tag_49\n      jump\t// in\n    tag_74:\n        /* \"#utility.yul\":2369:2442   */\n      swap4\n      pop\n        /* \"#utility.yul\":2165:2452   */\n      pop\n        /* \"#utility.yul\":2491:2493   */\n      0x20\n        /* \"#utility.yul\":2517:2570   */\n      tag_75\n        /* \"#utility.yul\":2562:2569   */\n      dup7\n        /* \"#utility.yul\":2553:2559   */\n      dup3\n        /* \"#utility.yul\":2542:2551   */\n      dup8\n        /* \"#utility.yul\":2538:2560   */\n      add\n        /* \"#utility.yul\":2517:2570   */\n      tag_55\n      jump\t// in\n    tag_75:\n        /* \"#utility.yul\":2507:2570   */\n      swap3\n      pop\n        /* \"#utility.yul\":2462:2580   */\n      pop\n        /* \"#utility.yul\":2619:2621   */\n      0x40\n        /* \"#utility.yul\":2645:2698   */\n      tag_76\n        /* \"#utility.yul\":2690:2697   */\n      dup7\n        /* \"#utility.yul\":2681:2687   */\n      dup3\n        /* \"#utility.yul\":2670:2679   */\n      dup8\n        /* \"#utility.yul\":2666:2688   */\n      add\n        /* \"#utility.yul\":2645:2698   */\n      tag_41\n      jump\t// in\n    tag_76:\n        /* \"#utility.yul\":2635:2698   */\n      swap2\n      pop\n        /* \"#utility.yul\":2590:2708   */\n      pop\n        /* \"#utility.yul\":1916:2715   */\n      swap3\n      pop\n      swap3\n      pop\n      swap3\n      jump\t// out\n        /* \"#utility.yul\":2721:2839   */\n    tag_77:\n        /* \"#utility.yul\":2808:2832   */\n      tag_79\n        /* \"#utility.yul\":2826:2831   */\n      dup2\n        /* \"#utility.yul\":2808:2832   */\n      tag_80\n      jump\t// in\n    tag_79:\n        /* \"#utility.yul\":2803:2806   */\n      dup3\n        /* \"#utility.yul\":2796:2833   */\n      mstore\n        /* \"#utility.yul\":2721:2839   */\n      pop\n      pop\n      jump\t// out\n        /* \"#utility.yul\":2845:2954   */\n    tag_81:\n        /* \"#utility.yul\":2926:2947   */\n      tag_83\n        /* \"#utility.yul\":2941:2946   */\n      dup2\n        /* \"#utility.yul\":2926:2947   */\n      tag_84\n      jump\t// in\n    tag_83:\n        /* \"#utility.yul\":2921:2924   */\n      dup3\n        /* \"#utility.yul\":2914:2948   */\n      mstore\n        /* \"#utility.yul\":2845:2954   */\n      pop\n      pop\n      jump\t// out\n        /* \"#utility.yul\":2960:3078   */\n    tag_85:\n        /* \"#utility.yul\":3047:3071   */\n      tag_87\n        /* \"#utility.yul\":3065:3070   */\n      dup2\n        /* \"#utility.yul\":3047:3071   */\n      tag_88\n      jump\t// in\n    tag_87:\n        /* \"#utility.yul\":3042:3045   */\n      dup3\n        /* \"#utility.yul\":3035:3072   */\n      mstore\n        /* \"#utility.yul\":2960:3078   */\n      pop\n      pop\n      jump\t// out\n        /* \"#utility.yul\":3084:3448   */\n    tag_89:\n        /* \"#utility.yul\":3172:3175   */\n      0x00\n        /* \"#utility.yul\":3200:3239   */\n      tag_91\n        /* \"#utility.yul\":3233:3238   */\n      dup3\n        /* \"#utility.yul\":3200:3239   */\n      tag_92\n      jump\t// in\n    tag_91:\n        /* \"#utility.yul\":3255:3326   */\n      tag_93\n        /* \"#utility.yul\":3319:3325   */\n      dup2\n        /* \"#utility.yul\":3314:3317   */\n      dup6\n        /* \"#utility.yul\":3255:3326   */\n      tag_94\n      jump\t// in\n    tag_93:\n        /* \"#utility.yul\":3248:3326   */\n      swap4\n      pop\n        /* \"#utility.yul\":3335:3387   */\n      tag_95\n        /* \"#utility.yul\":3380:3386   */\n      dup2\n        /* \"#utility.yul\":3375:3378   */\n      dup6\n        /* \"#utility.yul\":3368:3372   */\n      0x20\n        /* \"#utility.yul\":3361:3366   */\n      dup7\n        /* \"#utility.yul\":3357:3373   */\n      add\n        /* \"#utility.yul\":3335:3387   */\n      tag_96\n      jump\t// in\n    tag_95:\n        /* \"#utility.yul\":3412:3441   */\n      tag_97\n        /* \"#utility.yul\":3434:3440   */\n      dup2\n        /* \"#utility.yul\":3412:3441   */\n      tag_98\n      jump\t// in\n    tag_97:\n        /* \"#utility.yul\":3407:3410   */\n      dup5\n        /* \"#utility.yul\":3403:3442   */\n      add\n        /* \"#utility.yul\":3396:3442   */\n      swap2\n      pop\n        /* \"#utility.yul\":3176:3448   */\n      pop\n        /* \"#utility.yul\":3084:3448   */\n      swap3\n      swap2\n      pop\n      pop\n      jump\t// out\n        /* \"#utility.yul\":3454:3572   */\n    tag_99:\n        /* \"#utility.yul\":3541:3565   */\n      tag_101\n        /* \"#utility.yul\":3559:3564   */\n      dup2\n        /* \"#utility.yul\":3541:3565   */\n      tag_102\n      jump\t// in\n    tag_101:\n        /* \"#utility.yul\":3536:3539   */\n      dup3\n        /* \"#utility.yul\":3529:3566   */\n      mstore\n        /* \"#utility.yul\":3454:3572   */\n      pop\n      pop\n      jump\t// out\n        /* \"#utility.yul\":3578:3788   */\n    tag_16:\n        /* \"#utility.yul\":3665:3669   */\n      0x00\n        /* \"#utility.yul\":3703:3705   */\n      0x20\n        /* \"#utility.yul\":3692:3701   */\n      dup3\n        /* \"#utility.yul\":3688:3706   */\n      add\n        /* \"#utility.yul\":3680:3706   */\n      swap1\n      pop\n        /* \"#utility.yul\":3716:3781   */\n      tag_104\n        /* \"#utility.yul\":3778:3779   */\n      0x00\n        /* \"#utility.yul\":3767:3776   */\n      dup4\n        /* \"#utility.yul\":3763:3780   */\n      add\n        /* \"#utility.yul\":3754:3760   */\n      dup5\n        /* \"#utility.yul\":3716:3781   */\n      tag_81\n      jump\t// in\n    tag_104:\n        /* \"#utility.yul\":3578:3788   */\n      swap3\n      swap2\n      pop\n      pop\n      jump\t// out\n        /* \"#utility.yul\":3794:4016   */\n    tag_10:\n        /* \"#utility.yul\":3887:3891   */\n      0x00\n        /* \"#utility.yul\":3925:3927   */\n      0x20\n        /* \"#utility.yul\":3914:3923   */\n      dup3\n        /* \"#utility.yul\":3910:3928   */\n      add\n        /* \"#utility.yul\":3902:3928   */\n      swap1\n      pop\n        /* \"#utility.yul\":3938:4009   */\n      tag_106\n        /* \"#utility.yul\":4006:4007   */\n      0x00\n        /* \"#utility.yul\":3995:4004   */\n      dup4\n        /* \"#utility.yul\":3991:4008   */\n      add\n        /* \"#utility.yul\":3982:3988   */\n      dup5\n        /* \"#utility.yul\":3938:4009   */\n      tag_85\n      jump\t// in\n    tag_106:\n        /* \"#utility.yul\":3794:4016   */\n      swap3\n      swap2\n      pop\n      pop\n      jump\t// out\n        /* \"#utility.yul\":4022:4555   */\n    tag_19:\n        /* \"#utility.yul\":4191:4195   */\n      0x00\n        /* \"#utility.yul\":4229:4231   */\n      0x60\n        /* \"#utility.yul\":4218:4227   */\n      dup3\n        /* \"#utility.yul\":4214:4232   */\n      add\n        /* \"#utility.yul\":4206:4232   */\n      swap1\n      pop\n        /* \"#utility.yul\":4278:4287   */\n      dup2\n        /* \"#utility.yul\":4272:4276   */\n      dup2\n        /* \"#utility.yul\":4268:4288   */\n      sub\n        /* \"#utility.yul\":4264:4265   */\n      0x00\n        /* \"#utility.yul\":4253:4262   */\n      dup4\n        /* \"#utility.yul\":4249:4266   */\n      add\n        /* \"#utility.yul\":4242:4289   */\n      mstore\n        /* \"#utility.yul\":4306:4384   */\n      tag_108\n        /* \"#utility.yul\":4379:4383   */\n      dup2\n        /* \"#utility.yul\":4370:4376   */\n      dup7\n        /* \"#utility.yul\":4306:4384   */\n      tag_89\n      jump\t// in\n    tag_108:\n        /* \"#utility.yul\":4298:4384   */\n      swap1\n      pop\n        /* \"#utility.yul\":4394:4466   */\n      tag_109\n        /* \"#utility.yul\":4462:4464   */\n      0x20\n        /* \"#utility.yul\":4451:4460   */\n      dup4\n        /* \"#utility.yul\":4447:4465   */\n      add\n        /* \"#utility.yul\":4438:4444   */\n      dup6\n        /* \"#utility.yul\":4394:4466   */\n      tag_99\n      jump\t// in\n    tag_109:\n        /* \"#utility.yul\":4476:4548   */\n      tag_110\n        /* \"#utility.yul\":4544:4546   */\n      0x40\n        /* \"#utility.yul\":4533:4542   */\n      dup4\n        /* \"#utility.yul\":4529:4547   */\n      add\n        /* \"#utility.yul\":4520:4526   */\n      dup5\n        /* \"#utility.yul\":4476:4548   */\n      tag_77\n      jump\t// in\n    tag_110:\n        /* \"#utility.yul\":4022:4555   */\n      swap5\n      swap4\n      pop\n      pop\n      pop\n      pop\n      jump\t// out\n        /* \"#utility.yul\":4561:4690   */\n    tag_35:\n        /* \"#utility.yul\":4595:4601   */\n      0x00\n        /* \"#utility.yul\":4622:4642   */\n      tag_112\n      tag_113\n      jump\t// in\n    tag_112:\n        /* \"#utility.yul\":4612:4642   */\n      swap1\n      pop\n        /* \"#utility.yul\":4651:4684   */\n      tag_114\n        /* \"#utility.yul\":4679:4683   */\n      dup3\n        /* \"#utility.yul\":4671:4677   */\n      dup3\n        /* \"#utility.yul\":4651:4684   */\n      tag_115\n      jump\t// in\n    tag_114:\n        /* \"#utility.yul\":4561:4690   */\n      swap2\n      swap1\n      pop\n      jump\t// out\n        /* \"#utility.yul\":4696:4771   */\n    tag_113:\n        /* \"#utility.yul\":4729:4735   */\n      0x00\n        /* \"#utility.yul\":4762:4764   */\n      0x40\n        /* \"#utility.yul\":4756:4765   */\n      mload\n        /* \"#utility.yul\":4746:4765   */\n      swap1\n      pop\n        /* \"#utility.yul\":4696:4771   */\n      swap1\n      jump\t// out\n        /* \"#utility.yul\":4777:5085   */\n    tag_34:\n        /* \"#utility.yul\":4839:4843   */\n      0x00\n        /* \"#utility.yul\":4929:4947   */\n      0xffffffffffffffff\n        /* \"#utility.yul\":4921:4927   */\n      dup3\n        /* \"#utility.yul\":4918:4948   */\n      gt\n        /* \"#utility.yul\":4915:4971   */\n      iszero\n      tag_118\n      jumpi\n        /* \"#utility.yul\":4951:4969   */\n      tag_119\n      tag_120\n      jump\t// in\n    tag_119:\n        /* \"#utility.yul\":4915:4971   */\n    tag_118:\n        /* \"#utility.yul\":4989:5018   */\n      tag_121\n        /* \"#utility.yul\":5011:5017   */\n      dup3\n        /* \"#utility.yul\":4989:5018   */\n      tag_98\n      jump\t// in\n    tag_121:\n        /* \"#utility.yul\":4981:5018   */\n      swap1\n      pop\n        /* \"#utility.yul\":5073:5077   */\n      0x20\n        /* \"#utility.yul\":5067:5071   */\n      dup2\n        /* \"#utility.yul\":5063:5078   */\n      add\n        /* \"#utility.yul\":5055:5078   */\n      swap1\n      pop\n        /* \"#utility.yul\":4777:5085   */\n      swap2\n      swap1\n      pop\n      jump\t// out\n        /* \"#utility.yul\":5091:5190   */\n    tag_92:\n        /* \"#utility.yul\":5143:5149   */\n      0x00\n        /* \"#utility.yul\":5177:5182   */\n      dup2\n        /* \"#utility.yul\":5171:5183   */\n      mload\n        /* \"#utility.yul\":5161:5183   */\n      swap1\n      pop\n        /* \"#utility.yul\":5091:5190   */\n      swap2\n      swap1\n      pop\n      jump\t// out\n        /* \"#utility.yul\":5196:5365   */\n    tag_94:\n        /* \"#utility.yul\":5280:5291   */\n      0x00\n        /* \"#utility.yul\":5314:5320   */\n      dup3\n        /* \"#utility.yul\":5309:5312   */\n      dup3\n        /* \"#utility.yul\":5302:5321   */\n      mstore\n        /* \"#utility.yul\":5354:5358   */\n      0x20\n        /* \"#utility.yul\":5349:5352   */\n      dup3\n        /* \"#utility.yul\":5345:5359   */\n      add\n        /* \"#utility.yul\":5330:5359   */\n      swap1\n      pop\n        /* \"#utility.yul\":5196:5365   */\n      swap3\n      swap2\n      pop\n      pop\n      jump\t// out\n        /* \"#utility.yul\":5371:5467   */\n    tag_80:\n        /* \"#utility.yul\":5408:5415   */\n      0x00\n        /* \"#utility.yul\":5437:5461   */\n      tag_125\n        /* \"#utility.yul\":5455:5460   */\n      dup3\n        /* \"#utility.yul\":5437:5461   */\n      tag_126\n      jump\t// in\n    tag_125:\n        /* \"#utility.yul\":5426:5461   */\n      swap1\n      pop\n        /* \"#utility.yul\":5371:5467   */\n      swap2\n      swap1\n      pop\n      jump\t// out\n        /* \"#utility.yul\":5473:5563   */\n    tag_84:\n        /* \"#utility.yul\":5507:5514   */\n      0x00\n        /* \"#utility.yul\":5550:5555   */\n      dup2\n        /* \"#utility.yul\":5543:5556   */\n      iszero\n        /* \"#utility.yul\":5536:5557   */\n      iszero\n        /* \"#utility.yul\":5525:5557   */\n      swap1\n      pop\n        /* \"#utility.yul\":5473:5563   */\n      swap2\n      swap1\n      pop\n      jump\t// out\n        /* \"#utility.yul\":5569:5646   */\n    tag_88:\n        /* \"#utility.yul\":5606:5613   */\n      0x00\n        /* \"#utility.yul\":5635:5640   */\n      dup2\n        /* \"#utility.yul\":5624:5640   */\n      swap1\n      pop\n        /* \"#utility.yul\":5569:5646   */\n      swap2\n      swap1\n      pop\n      jump\t// out\n        /* \"#utility.yul\":5652:5778   */\n    tag_126:\n        /* \"#utility.yul\":5689:5696   */\n      0x00\n        /* \"#utility.yul\":5729:5771   */\n      0xffffffffffffffffffffffffffffffffffffffff\n        /* \"#utility.yul\":5722:5727   */\n      dup3\n        /* \"#utility.yul\":5718:5772   */\n      and\n        /* \"#utility.yul\":5707:5772   */\n      swap1\n      pop\n        /* \"#utility.yul\":5652:5778   */\n      swap2\n      swap1\n      pop\n      jump\t// out\n        /* \"#utility.yul\":5784:5861   */\n    tag_102:\n        /* \"#utility.yul\":5821:5828   */\n      0x00\n        /* \"#utility.yul\":5850:5855   */\n      dup2\n        /* \"#utility.yul\":5839:5855   */\n      swap1\n      pop\n        /* \"#utility.yul\":5784:5861   */\n      swap2\n      swap1\n      pop\n      jump\t// out\n        /* \"#utility.yul\":5867:6021   */\n    tag_40:\n        /* \"#utility.yul\":5951:5957   */\n      dup3\n        /* \"#utility.yul\":5946:5949   */\n      dup2\n        /* \"#utility.yul\":5941:5944   */\n      dup4\n        /* \"#utility.yul\":5928:5958   */\n      calldatacopy\n        /* \"#utility.yul\":6013:6014   */\n      0x00\n        /* \"#utility.yul\":6004:6010   */\n      dup4\n        /* \"#utility.yul\":5999:6002   */\n      dup4\n        /* \"#utility.yul\":5995:6011   */\n      add\n        /* \"#utility.yul\":5988:6015   */\n      mstore\n        /* \"#utility.yul\":5867:6021   */\n      pop\n      pop\n      pop\n      jump\t// out\n        /* \"#utility.yul\":6027:6334   */\n    tag_96:\n        /* \"#utility.yul\":6095:6096   */\n      0x00\n        /* \"#utility.yul\":6105:6218   */\n    tag_133:\n        /* \"#utility.yul\":6119:6125   */\n      dup4\n        /* \"#utility.yul\":6116:6117   */\n      dup2\n        /* \"#utility.yul\":6113:6126   */\n      lt\n        /* \"#utility.yul\":6105:6218   */\n      iszero\n      tag_135\n      jumpi\n        /* \"#utility.yul\":6204:6205   */\n      dup1\n        /* \"#utility.yul\":6199:6202   */\n      dup3\n        /* \"#utility.yul\":6195:6206   */\n      add\n        /* \"#utility.yul\":6189:6207   */\n      mload\n        /* \"#utility.yul\":6185:6186   */\n      dup2\n        /* \"#utility.yul\":6180:6183   */\n      dup5\n        /* \"#utility.yul\":6176:6187   */\n      add\n        /* \"#utility.yul\":6169:6208   */\n      mstore\n        /* \"#utility.yul\":6141:6143   */\n      0x20\n        /* \"#utility.yul\":6138:6139   */\n      dup2\n        /* \"#utility.yul\":6134:6144   */\n      add\n        /* \"#utility.yul\":6129:6144   */\n      swap1\n      pop\n        /* \"#utility.yul\":6105:6218   */\n      jump(tag_133)\n    tag_135:\n        /* \"#utility.yul\":6236:6242   */\n      dup4\n        /* \"#utility.yul\":6233:6234   */\n      dup2\n        /* \"#utility.yul\":6230:6243   */\n      gt\n        /* \"#utility.yul\":6227:6328   */\n      iszero\n      tag_136\n      jumpi\n        /* \"#utility.yul\":6316:6317   */\n      0x00\n        /* \"#utility.yul\":6307:6313   */\n      dup5\n        /* \"#utility.yul\":6302:6305   */\n      dup5\n        /* \"#utility.yul\":6298:6314   */\n      add\n        /* \"#utility.yul\":6291:6318   */\n      mstore\n        /* \"#utility.yul\":6227:6328   */\n    tag_136:\n        /* \"#utility.yul\":6076:6334   */\n      pop\n        /* \"#utility.yul\":6027:6334   */\n      pop\n      pop\n      pop\n      jump\t// out\n        /* \"#utility.yul\":6340:6621   */\n    tag_115:\n        /* \"#utility.yul\":6423:6450   */\n      tag_138\n        /* \"#utility.yul\":6445:6449   */\n      dup3\n        /* \"#utility.yul\":6423:6450   */\n      tag_98\n      jump\t// in\n    tag_138:\n        /* \"#utility.yul\":6415:6421   */\n      dup2\n        /* \"#utility.yul\":6411:6451   */\n      add\n        /* \"#utility.yul\":6553:6559   */\n      dup2\n        /* \"#utility.yul\":6541:6551   */\n      dup2\n        /* \"#utility.yul\":6538:6560   */\n      lt\n        /* \"#utility.yul\":6517:6535   */\n      0xffffffffffffffff\n        /* \"#utility.yul\":6505:6515   */\n      dup3\n        /* \"#utility.yul\":6502:6536   */\n      gt\n        /* \"#utility.yul\":6499:6561   */\n      or\n        /* \"#utility.yul\":6496:6584   */\n      iszero\n      tag_139\n      jumpi\n        /* \"#utility.yul\":6564:6582   */\n      tag_140\n      tag_120\n      jump\t// in\n    tag_140:\n        /* \"#utility.yul\":6496:6584   */\n    tag_139:\n        /* \"#utility.yul\":6604:6614   */\n      dup1\n        /* \"#utility.yul\":6600:6602   */\n      0x40\n        /* \"#utility.yul\":6593:6615   */\n      mstore\n        /* \"#utility.yul\":6383:6621   */\n      pop\n        /* \"#utility.yul\":6340:6621   */\n      pop\n      pop\n      jump\t// out\n        /* \"#utility.yul\":6627:6807   */\n    tag_120:\n        /* \"#utility.yul\":6675:6752   */\n      0x4e487b7100000000000000000000000000000000000000000000000000000000\n        /* \"#utility.yul\":6672:6673   */\n      0x00\n        /* \"#utility.yul\":6665:6753   */\n      mstore\n        /* \"#utility.yul\":6772:6776   */\n      0x41\n        /* \"#utility.yul\":6769:6770   */\n      0x04\n        /* \"#utility.yul\":6762:6777   */\n      mstore\n        /* \"#utility.yul\":6796:6800   */\n      0x24\n        /* \"#utility.yul\":6793:6794   */\n      0x00\n        /* \"#utility.yul\":6786:6801   */\n      revert\n        /* \"#utility.yul\":6813:6930   */\n    tag_53:\n        /* \"#utility.yul\":6922:6923   */\n      0x00\n        /* \"#utility.yul\":6919:6920   */\n      dup1\n        /* \"#utility.yul\":6912:6924   */\n      revert\n        /* \"#utility.yul\":6936:7053   */\n    tag_38:\n        /* \"#utility.yul\":7045:7046   */\n      0x00\n        /* \"#utility.yul\":7042:7043   */\n      dup1\n        /* \"#utility.yul\":7035:7047   */\n      revert\n        /* \"#utility.yul\":7059:7176   */\n    tag_73:\n        /* \"#utility.yul\":7168:7169   */\n      0x00\n        /* \"#utility.yul\":7165:7166   */\n      dup1\n        /* \"#utility.yul\":7158:7170   */\n      revert\n        /* \"#utility.yul\":7182:7299   */\n    tag_62:\n        /* \"#utility.yul\":7291:7292   */\n      0x00\n        /* \"#utility.yul\":7288:7289   */\n      dup1\n        /* \"#utility.yul\":7281:7293   */\n      revert\n        /* \"#utility.yul\":7305:7407   */\n    tag_98:\n        /* \"#utility.yul\":7346:7352   */\n      0x00\n        /* \"#utility.yul\":7397:7399   */\n      0x1f\n        /* \"#utility.yul\":7393:7400   */\n      not\n        /* \"#utility.yul\":7388:7390   */\n      0x1f\n        /* \"#utility.yul\":7381:7386   */\n      dup4\n        /* \"#utility.yul\":7377:7391   */\n      add\n        /* \"#utility.yul\":7373:7401   */\n      and\n        /* \"#utility.yul\":7363:7401   */\n      swap1\n      pop\n        /* \"#utility.yul\":7305:7407   */\n      swap2\n      swap1\n      pop\n      jump\t// out\n        /* \"#utility.yul\":7413:7535   */\n    tag_44:\n        /* \"#utility.yul\":7486:7510   */\n      tag_148\n        /* \"#utility.yul\":7504:7509   */\n      dup2\n        /* \"#utility.yul\":7486:7510   */\n      tag_80\n      jump\t// in\n    tag_148:\n        /* \"#utility.yul\":7479:7484   */\n      dup2\n        /* \"#utility.yul\":7476:7511   */\n      eq\n        /* \"#utility.yul\":7466:7529   */\n      tag_149\n      jumpi\n        /* \"#utility.yul\":7525:7526   */\n      0x00\n        /* \"#utility.yul\":7522:7523   */\n      dup1\n        /* \"#utility.yul\":7515:7527   */\n      revert\n        /* \"#utility.yul\":7466:7529   */\n    tag_149:\n        /* \"#utility.yul\":7413:7535   */\n      pop\n      jump\t// out\n        /* \"#utility.yul\":7541:7663   */\n    tag_48:\n        /* \"#utility.yul\":7614:7638   */\n      tag_151\n        /* \"#utility.yul\":7632:7637   */\n      dup2\n        /* \"#utility.yul\":7614:7638   */\n      tag_88\n      jump\t// in\n    tag_151:\n        /* \"#utility.yul\":7607:7612   */\n      dup2\n        /* \"#utility.yul\":7604:7639   */\n      eq\n        /* \"#utility.yul\":7594:7657   */\n      tag_152\n      jumpi\n        /* \"#utility.yul\":7653:7654   */\n      0x00\n        /* \"#utility.yul\":7650:7651   */\n      dup1\n        /* \"#utility.yul\":7643:7655   */\n      revert\n        /* \"#utility.yul\":7594:7657   */\n    tag_152:\n        /* \"#utility.yul\":7541:7663   */\n      pop\n      jump\t// out\n        /* \"#utility.yul\":7669:7791   */\n    tag_58:\n        /* \"#utility.yul\":7742:7766   */\n      tag_154\n        /* \"#utility.yul\":7760:7765   */\n      dup2\n        /* \"#utility.yul\":7742:7766   */\n      tag_102\n      jump\t// in\n    tag_154:\n        /* \"#utility.yul\":7735:7740   */\n      dup2\n        /* \"#utility.yul\":7732:7767   */\n      eq\n        /* \"#utility.yul\":7722:7785   */\n      tag_155\n      jumpi\n        /* \"#utility.yul\":7781:7782   */\n      0x00\n        /* \"#utility.yul\":7778:7779   */\n      dup1\n        /* \"#utility.yul\":7771:7783   */\n      revert\n        /* \"#utility.yul\":7722:7785   */\n    tag_155:\n        /* \"#utility.yul\":7669:7791   */\n      pop\n      jump\t// out\n\n    auxdata: 0xa2646970667358221220feb5fb1aad981147b228c7fed30ae981a62078e23d78848fc76b63cb88acd38f64736f6c63430008070033\n}\n\nsub_1: assembly {\n        /* \"HashFunction.sol\":75:1796  contract HashFunction {... */\n      mstore(0x40, 0x80)\n      callvalue\n      dup1\n      iszero\n      tag_1\n      jumpi\n      0x00\n      dup1\n      revert\n    tag_1:\n      pop\n      dataSize(sub_0)\n      dup1\n      dataOffset(sub_0)\n      0x00\n      codecopy\n      0x00\n      return\n    stop\n\n    sub_0: assembly {\n            /* \"HashFunction.sol\":75:1796  contract HashFunction {... */\n          mstore(0x40, 0x80)\n          callvalue\n          dup1\n          iszero\n          tag_1\n          jumpi\n          0x00\n          dup1\n          revert\n        tag_1:\n          pop\n          jumpi(tag_2, lt(calldatasize, 0x04))\n          shr(0xe0, calldataload(0x00))\n          dup1\n          0x17fe2da2\n          eq\n          tag_3\n          jumpi\n          dup1\n          0x33ece6e9\n          eq\n          tag_4\n          jumpi\n          dup1\n          0x892e5d01\n          eq\n          tag_5\n          jumpi\n          dup1\n          0xf20f1e9e\n          eq\n          tag_6\n          jumpi\n        tag_2:\n          0x00\n          dup1\n          revert\n            /* \"HashFunction.sol\":1441:1587  function encode(string memory _text1, string memory _text2) external pure returns (bytes memory){... */\n        tag_3:\n          tag_7\n          0x04\n          dup1\n          calldatasize\n          sub\n          dup2\n          add\n          swap1\n          tag_8\n          swap2\n          swap1\n          tag_9\n          jump\t// in\n        tag_8:\n          tag_10\n          jump\t// in\n        tag_7:\n          mload(0x40)\n          tag_11\n          swap2\n          swap1\n          tag_12\n          jump\t// in\n        tag_11:\n          mload(0x40)\n          dup1\n          swap2\n          sub\n          swap1\n          return\n            /* \"HashFunction.sol\":396:694  function hash1(string memory _text, uint _num, address _address) public pure returns (bytes32) {... */\n        tag_4:\n          tag_13\n          0x04\n          dup1\n          calldatasize\n          sub\n          dup2\n          add\n          swap1\n          tag_14\n          swap2\n          swap1\n          tag_15\n          jump\t// in\n        tag_14:\n          tag_16\n          jump\t// in\n        tag_13:\n          mload(0x40)\n          tag_17\n          swap2\n          swap1\n          tag_18\n          jump\t// in\n        tag_17:\n          mload(0x40)\n          dup1\n          swap2\n          sub\n          swap1\n          return\n            /* \"HashFunction.sol\":1635:1793  function encodePacked(string memory _text1, string memory _text2) external pure returns (bytes memory){... */\n        tag_5:\n          tag_19\n          0x04\n          dup1\n          calldatasize\n          sub\n          dup2\n          add\n          swap1\n          tag_20\n          swap2\n          swap1\n          tag_9\n          jump\t// in\n        tag_20:\n          tag_21\n          jump\t// in\n        tag_19:\n          mload(0x40)\n          tag_22\n          swap2\n          swap1\n          tag_12\n          jump\t// in\n        tag_22:\n          mload(0x40)\n          dup1\n          swap2\n          sub\n          swap1\n          return\n            /* \"HashFunction.sol\":699:991  function hash2(string memory _text, uint _num, address _address) public pure returns (bytes32) {... */\n        tag_6:\n          tag_23\n          0x04\n          dup1\n          calldatasize\n          sub\n          dup2\n          add\n          swap1\n          tag_24\n          swap2\n          swap1\n          tag_15\n          jump\t// in\n        tag_24:\n          tag_25\n          jump\t// in\n        tag_23:\n          mload(0x40)\n          tag_26\n          swap2\n          swap1\n          tag_18\n          jump\t// in\n        tag_26:\n          mload(0x40)\n          dup1\n          swap2\n          sub\n          swap1\n          return\n            /* \"HashFunction.sol\":1441:1587  function encode(string memory _text1, string memory _text2) external pure returns (bytes memory){... */\n        tag_10:\n            /* \"HashFunction.sol\":1524:1536  bytes memory */\n          0x60\n            /* \"HashFunction.sol\":1565:1571  _text1 */\n          dup3\n            /* \"HashFunction.sol\":1573:1579  _text2 */\n          dup3\n            /* \"HashFunction.sol\":1554:1580  abi.encode(_text1, _text2) */\n          add(0x20, mload(0x40))\n          tag_28\n          swap3\n          swap2\n          swap1\n          tag_29\n          jump\t// in\n        tag_28:\n          mload(0x40)\n          0x20\n          dup2\n          dup4\n          sub\n          sub\n          dup2\n          mstore\n          swap1\n          0x40\n          mstore\n            /* \"HashFunction.sol\":1547:1580  return abi.encode(_text1, _text2) */\n          swap1\n          pop\n            /* \"HashFunction.sol\":1441:1587  function encode(string memory _text1, string memory _text2) external pure returns (bytes memory){... */\n          swap3\n          swap2\n          pop\n          pop\n          jump\t// out\n            /* \"HashFunction.sol\":396:694  function hash1(string memory _text, uint _num, address _address) public pure returns (bytes32) {... */\n        tag_16:\n            /* \"HashFunction.sol\":482:489  bytes32 */\n          0x00\n            /* \"HashFunction.sol\":664:669  _text */\n          dup4\n            /* \"HashFunction.sol\":671:675  _num */\n          dup4\n            /* \"HashFunction.sol\":677:685  _address */\n          dup4\n            /* \"HashFunction.sol\":647:686  abi.encodePacked(_text, _num, _address) */\n          add(0x20, mload(0x40))\n          tag_31\n          swap4\n          swap3\n          swap2\n          swap1\n          tag_32\n          jump\t// in\n        tag_31:\n          mload(0x40)\n          0x20\n          dup2\n          dup4\n          sub\n          sub\n          dup2\n          mstore\n          swap1\n          0x40\n          mstore\n            /* \"HashFunction.sol\":637:687  keccak256(abi.encodePacked(_text, _num, _address)) */\n          dup1\n          mload\n          swap1\n          0x20\n          add\n          keccak256\n            /* \"HashFunction.sol\":630:687  return keccak256(abi.encodePacked(_text, _num, _address)) */\n          swap1\n          pop\n            /* \"HashFunction.sol\":396:694  function hash1(string memory _text, uint _num, address _address) public pure returns (bytes32) {... */\n          swap4\n          swap3\n          pop\n          pop\n          pop\n          jump\t// out\n            /* \"HashFunction.sol\":1635:1793  function encodePacked(string memory _text1, string memory _text2) external pure returns (bytes memory){... */\n        tag_21:\n            /* \"HashFunction.sol\":1724:1736  bytes memory */\n          0x60\n            /* \"HashFunction.sol\":1771:1777  _text1 */\n          dup3\n            /* \"HashFunction.sol\":1779:1785  _text2 */\n          dup3\n            /* \"HashFunction.sol\":1754:1786  abi.encodePacked(_text1, _text2) */\n          add(0x20, mload(0x40))\n          tag_34\n          swap3\n          swap2\n          swap1\n          tag_35\n          jump\t// in\n        tag_34:\n          mload(0x40)\n          0x20\n          dup2\n          dup4\n          sub\n          sub\n          dup2\n          mstore\n          swap1\n          0x40\n          mstore\n            /* \"HashFunction.sol\":1747:1786  return abi.encodePacked(_text1, _text2) */\n          swap1\n          pop\n            /* \"HashFunction.sol\":1635:1793  function encodePacked(string memory _text1, string memory _text2) external pure returns (bytes memory){... */\n          swap3\n          swap2\n          pop\n          pop\n          jump\t// out\n            /* \"HashFunction.sol\":699:991  function hash2(string memory _text, uint _num, address _address) public pure returns (bytes32) {... */\n        tag_25:\n            /* \"HashFunction.sol\":785:792  bytes32 */\n          0x00\n            /* \"HashFunction.sol\":961:966  _text */\n          dup4\n            /* \"HashFunction.sol\":968:972  _num */\n          dup4\n            /* \"HashFunction.sol\":974:982  _address */\n          dup4\n            /* \"HashFunction.sol\":950:983  abi.encode(_text, _num, _address) */\n          add(0x20, mload(0x40))\n          tag_37\n          swap4\n          swap3\n          swap2\n          swap1\n          tag_38\n          jump\t// in\n        tag_37:\n          mload(0x40)\n          0x20\n          dup2\n          dup4\n          sub\n          sub\n          dup2\n          mstore\n          swap1\n          0x40\n          mstore\n            /* \"HashFunction.sol\":940:984  keccak256(abi.encode(_text, _num, _address)) */\n          dup1\n          mload\n          swap1\n          0x20\n          add\n          keccak256\n            /* \"HashFunction.sol\":933:984  return keccak256(abi.encode(_text, _num, _address)) */\n          swap1\n          pop\n            /* \"HashFunction.sol\":699:991  function hash2(string memory _text, uint _num, address _address) public pure returns (bytes32) {... */\n          swap4\n          swap3\n          pop\n          pop\n          pop\n          jump\t// out\n            /* \"#utility.yul\":7:419   */\n        tag_40:\n            /* \"#utility.yul\":85:90   */\n          0x00\n            /* \"#utility.yul\":110:176   */\n          tag_42\n            /* \"#utility.yul\":126:175   */\n          tag_43\n            /* \"#utility.yul\":168:174   */\n          dup5\n            /* \"#utility.yul\":126:175   */\n          tag_44\n          jump\t// in\n        tag_43:\n            /* \"#utility.yul\":110:176   */\n          tag_45\n          jump\t// in\n        tag_42:\n            /* \"#utility.yul\":101:176   */\n          swap1\n          pop\n            /* \"#utility.yul\":199:205   */\n          dup3\n            /* \"#utility.yul\":192:197   */\n          dup2\n            /* \"#utility.yul\":185:206   */\n          mstore\n            /* \"#utility.yul\":237:241   */\n          0x20\n            /* \"#utility.yul\":230:235   */\n          dup2\n            /* \"#utility.yul\":226:242   */\n          add\n            /* \"#utility.yul\":275:278   */\n          dup5\n            /* \"#utility.yul\":266:272   */\n          dup5\n            /* \"#utility.yul\":261:264   */\n          dup5\n            /* \"#utility.yul\":257:273   */\n          add\n            /* \"#utility.yul\":254:279   */\n          gt\n            /* \"#utility.yul\":251:363   */\n          iszero\n          tag_46\n          jumpi\n            /* \"#utility.yul\":282:361   */\n          tag_47\n          tag_48\n          jump\t// in\n        tag_47:\n            /* \"#utility.yul\":251:363   */\n        tag_46:\n            /* \"#utility.yul\":372:413   */\n          tag_49\n            /* \"#utility.yul\":406:412   */\n          dup5\n            /* \"#utility.yul\":401:404   */\n          dup3\n            /* \"#utility.yul\":396:399   */\n          dup6\n            /* \"#utility.yul\":372:413   */\n          tag_50\n          jump\t// in\n        tag_49:\n            /* \"#utility.yul\":91:419   */\n          pop\n            /* \"#utility.yul\":7:419   */\n          swap4\n          swap3\n          pop\n          pop\n          pop\n          jump\t// out\n            /* \"#utility.yul\":425:564   */\n        tag_51:\n            /* \"#utility.yul\":471:476   */\n          0x00\n            /* \"#utility.yul\":509:515   */\n          dup2\n            /* \"#utility.yul\":496:516   */\n          calldataload\n            /* \"#utility.yul\":487:516   */\n          swap1\n          pop\n            /* \"#utility.yul\":525:558   */\n          tag_53\n            /* \"#utility.yul\":552:557   */\n          dup2\n            /* \"#utility.yul\":525:558   */\n          tag_54\n          jump\t// in\n        tag_53:\n            /* \"#utility.yul\":425:564   */\n          swap3\n          swap2\n          pop\n          pop\n          jump\t// out\n            /* \"#utility.yul\":584:924   */\n        tag_55:\n            /* \"#utility.yul\":640:645   */\n          0x00\n            /* \"#utility.yul\":689:692   */\n          dup3\n            /* \"#utility.yul\":682:686   */\n          0x1f\n            /* \"#utility.yul\":674:680   */\n          dup4\n            /* \"#utility.yul\":670:687   */\n          add\n            /* \"#utility.yul\":666:693   */\n          slt\n            /* \"#utility.yul\":656:778   */\n          tag_57\n          jumpi\n            /* \"#utility.yul\":697:776   */\n          tag_58\n          tag_59\n          jump\t// in\n        tag_58:\n            /* \"#utility.yul\":656:778   */\n        tag_57:\n            /* \"#utility.yul\":814:820   */\n          dup2\n            /* \"#utility.yul\":801:821   */\n          calldataload\n            /* \"#utility.yul\":839:918   */\n          tag_60\n            /* \"#utility.yul\":914:917   */\n          dup5\n            /* \"#utility.yul\":906:912   */\n          dup3\n            /* \"#utility.yul\":899:903   */\n          0x20\n            /* \"#utility.yul\":891:897   */\n          dup7\n            /* \"#utility.yul\":887:904   */\n          add\n            /* \"#utility.yul\":839:918   */\n          tag_40\n          jump\t// in\n        tag_60:\n            /* \"#utility.yul\":830:918   */\n          swap2\n          pop\n            /* \"#utility.yul\":646:924   */\n          pop\n            /* \"#utility.yul\":584:924   */\n          swap3\n          swap2\n          pop\n          pop\n          jump\t// out\n            /* \"#utility.yul\":930:1069   */\n        tag_61:\n            /* \"#utility.yul\":976:981   */\n          0x00\n            /* \"#utility.yul\":1014:1020   */\n          dup2\n            /* \"#utility.yul\":1001:1021   */\n          calldataload\n            /* \"#utility.yul\":992:1021   */\n          swap1\n          pop\n            /* \"#utility.yul\":1030:1063   */\n          tag_63\n            /* \"#utility.yul\":1057:1062   */\n          dup2\n            /* \"#utility.yul\":1030:1063   */\n          tag_64\n          jump\t// in\n        tag_63:\n            /* \"#utility.yul\":930:1069   */\n          swap3\n          swap2\n          pop\n          pop\n          jump\t// out\n            /* \"#utility.yul\":1075:1909   */\n        tag_9:\n            /* \"#utility.yul\":1163:1169   */\n          0x00\n            /* \"#utility.yul\":1171:1177   */\n          dup1\n            /* \"#utility.yul\":1220:1222   */\n          0x40\n            /* \"#utility.yul\":1208:1217   */\n          dup4\n            /* \"#utility.yul\":1199:1206   */\n          dup6\n            /* \"#utility.yul\":1195:1218   */\n          sub\n            /* \"#utility.yul\":1191:1223   */\n          slt\n            /* \"#utility.yul\":1188:1307   */\n          iszero\n          tag_66\n          jumpi\n            /* \"#utility.yul\":1226:1305   */\n          tag_67\n          tag_68\n          jump\t// in\n        tag_67:\n            /* \"#utility.yul\":1188:1307   */\n        tag_66:\n            /* \"#utility.yul\":1374:1375   */\n          0x00\n            /* \"#utility.yul\":1363:1372   */\n          dup4\n            /* \"#utility.yul\":1359:1376   */\n          add\n            /* \"#utility.yul\":1346:1377   */\n          calldataload\n            /* \"#utility.yul\":1404:1422   */\n          0xffffffffffffffff\n            /* \"#utility.yul\":1396:1402   */\n          dup2\n            /* \"#utility.yul\":1393:1423   */\n          gt\n            /* \"#utility.yul\":1390:1507   */\n          iszero\n          tag_69\n          jumpi\n            /* \"#utility.yul\":1426:1505   */\n          tag_70\n          tag_71\n          jump\t// in\n        tag_70:\n            /* \"#utility.yul\":1390:1507   */\n        tag_69:\n            /* \"#utility.yul\":1531:1594   */\n          tag_72\n            /* \"#utility.yul\":1586:1593   */\n          dup6\n            /* \"#utility.yul\":1577:1583   */\n          dup3\n            /* \"#utility.yul\":1566:1575   */\n          dup7\n            /* \"#utility.yul\":1562:1584   */\n          add\n            /* \"#utility.yul\":1531:1594   */\n          tag_55\n          jump\t// in\n        tag_72:\n            /* \"#utility.yul\":1521:1594   */\n          swap3\n          pop\n            /* \"#utility.yul\":1317:1604   */\n          pop\n            /* \"#utility.yul\":1671:1673   */\n          0x20\n            /* \"#utility.yul\":1660:1669   */\n          dup4\n            /* \"#utility.yul\":1656:1674   */\n          add\n            /* \"#utility.yul\":1643:1675   */\n          calldataload\n            /* \"#utility.yul\":1702:1720   */\n          0xffffffffffffffff\n            /* \"#utility.yul\":1694:1700   */\n          dup2\n            /* \"#utility.yul\":1691:1721   */\n          gt\n            /* \"#utility.yul\":1688:1805   */\n          iszero\n          tag_73\n          jumpi\n            /* \"#utility.yul\":1724:1803   */\n          tag_74\n          tag_71\n          jump\t// in\n        tag_74:\n            /* \"#utility.yul\":1688:1805   */\n        tag_73:\n            /* \"#utility.yul\":1829:1892   */\n          tag_75\n            /* \"#utility.yul\":1884:1891   */\n          dup6\n            /* \"#utility.yul\":1875:1881   */\n          dup3\n            /* \"#utility.yul\":1864:1873   */\n          dup7\n            /* \"#utility.yul\":1860:1882   */\n          add\n            /* \"#utility.yul\":1829:1892   */\n          tag_55\n          jump\t// in\n        tag_75:\n            /* \"#utility.yul\":1819:1892   */\n          swap2\n          pop\n            /* \"#utility.yul\":1614:1902   */\n          pop\n            /* \"#utility.yul\":1075:1909   */\n          swap3\n          pop\n          swap3\n          swap1\n          pop\n          jump\t// out\n            /* \"#utility.yul\":1915:2714   */\n        tag_15:\n            /* \"#utility.yul\":2002:2008   */\n          0x00\n            /* \"#utility.yul\":2010:2016   */\n          dup1\n            /* \"#utility.yul\":2018:2024   */\n          0x00\n            /* \"#utility.yul\":2067:2069   */\n          0x60\n            /* \"#utility.yul\":2055:2064   */\n          dup5\n            /* \"#utility.yul\":2046:2053   */\n          dup7\n            /* \"#utility.yul\":2042:2065   */\n          sub\n            /* \"#utility.yul\":2038:2070   */\n          slt\n            /* \"#utility.yul\":2035:2154   */\n          iszero\n          tag_77\n          jumpi\n            /* \"#utility.yul\":2073:2152   */\n          tag_78\n          tag_68\n          jump\t// in\n        tag_78:\n            /* \"#utility.yul\":2035:2154   */\n        tag_77:\n            /* \"#utility.yul\":2221:2222   */\n          0x00\n            /* \"#utility.yul\":2210:2219   */\n          dup5\n            /* \"#utility.yul\":2206:2223   */\n          add\n            /* \"#utility.yul\":2193:2224   */\n          calldataload\n            /* \"#utility.yul\":2251:2269   */\n          0xffffffffffffffff\n            /* \"#utility.yul\":2243:2249   */\n          dup2\n            /* \"#utility.yul\":2240:2270   */\n          gt\n            /* \"#utility.yul\":2237:2354   */\n          iszero\n          tag_79\n          jumpi\n            /* \"#utility.yul\":2273:2352   */\n          tag_80\n          tag_71\n          jump\t// in\n        tag_80:\n            /* \"#utility.yul\":2237:2354   */\n        tag_79:\n            /* \"#utility.yul\":2378:2441   */\n          tag_81\n            /* \"#utility.yul\":2433:2440   */\n          dup7\n            /* \"#utility.yul\":2424:2430   */\n          dup3\n            /* \"#utility.yul\":2413:2422   */\n          dup8\n            /* \"#utility.yul\":2409:2431   */\n          add\n            /* \"#utility.yul\":2378:2441   */\n          tag_55\n          jump\t// in\n        tag_81:\n            /* \"#utility.yul\":2368:2441   */\n          swap4\n          pop\n            /* \"#utility.yul\":2164:2451   */\n          pop\n            /* \"#utility.yul\":2490:2492   */\n          0x20\n            /* \"#utility.yul\":2516:2569   */\n          tag_82\n            /* \"#utility.yul\":2561:2568   */\n          dup7\n            /* \"#utility.yul\":2552:2558   */\n          dup3\n            /* \"#utility.yul\":2541:2550   */\n          dup8\n            /* \"#utility.yul\":2537:2559   */\n          add\n            /* \"#utility.yul\":2516:2569   */\n          tag_61\n          jump\t// in\n        tag_82:\n            /* \"#utility.yul\":2506:2569   */\n          swap3\n          pop\n            /* \"#utility.yul\":2461:2579   */\n          pop\n            /* \"#utility.yul\":2618:2620   */\n          0x40\n            /* \"#utility.yul\":2644:2697   */\n          tag_83\n            /* \"#utility.yul\":2689:2696   */\n          dup7\n            /* \"#utility.yul\":2680:2686   */\n          dup3\n            /* \"#utility.yul\":2669:2678   */\n          dup8\n            /* \"#utility.yul\":2665:2687   */\n          add\n            /* \"#utility.yul\":2644:2697   */\n          tag_51\n          jump\t// in\n        tag_83:\n            /* \"#utility.yul\":2634:2697   */\n          swap2\n          pop\n            /* \"#utility.yul\":2589:2707   */\n          pop\n            /* \"#utility.yul\":1915:2714   */\n          swap3\n          pop\n          swap3\n          pop\n          swap3\n          jump\t// out\n            /* \"#utility.yul\":2720:2838   */\n        tag_84:\n            /* \"#utility.yul\":2807:2831   */\n          tag_86\n            /* \"#utility.yul\":2825:2830   */\n          dup2\n            /* \"#utility.yul\":2807:2831   */\n          tag_87\n          jump\t// in\n        tag_86:\n            /* \"#utility.yul\":2802:2805   */\n          dup3\n            /* \"#utility.yul\":2795:2832   */\n          mstore\n            /* \"#utility.yul\":2720:2838   */\n          pop\n          pop\n          jump\t// out\n            /* \"#utility.yul\":2844:3001   */\n        tag_88:\n            /* \"#utility.yul\":2949:2994   */\n          tag_90\n            /* \"#utility.yul\":2969:2993   */\n          tag_91\n            /* \"#utility.yul\":2987:2992   */\n          dup3\n            /* \"#utility.yul\":2969:2993   */\n          tag_87\n          jump\t// in\n        tag_91:\n            /* \"#utility.yul\":2949:2994   */\n          tag_92\n          jump\t// in\n        tag_90:\n            /* \"#utility.yul\":2944:2947   */\n          dup3\n            /* \"#utility.yul\":2937:2995   */\n          mstore\n            /* \"#utility.yul\":2844:3001   */\n          pop\n          pop\n          jump\t// out\n            /* \"#utility.yul\":3007:3125   */\n        tag_93:\n            /* \"#utility.yul\":3094:3118   */\n          tag_95\n            /* \"#utility.yul\":3112:3117   */\n          dup2\n            /* \"#utility.yul\":3094:3118   */\n          tag_96\n          jump\t// in\n        tag_95:\n            /* \"#utility.yul\":3089:3092   */\n          dup3\n            /* \"#utility.yul\":3082:3119   */\n          mstore\n            /* \"#utility.yul\":3007:3125   */\n          pop\n          pop\n          jump\t// out\n            /* \"#utility.yul\":3131:3491   */\n        tag_97:\n            /* \"#utility.yul\":3217:3220   */\n          0x00\n            /* \"#utility.yul\":3245:3283   */\n          tag_99\n            /* \"#utility.yul\":3277:3282   */\n          dup3\n            /* \"#utility.yul\":3245:3283   */\n          tag_100\n          jump\t// in\n        tag_99:\n            /* \"#utility.yul\":3299:3369   */\n          tag_101\n            /* \"#utility.yul\":3362:3368   */\n          dup2\n            /* \"#utility.yul\":3357:3360   */\n          dup6\n            /* \"#utility.yul\":3299:3369   */\n          tag_102\n          jump\t// in\n        tag_101:\n            /* \"#utility.yul\":3292:3369   */\n          swap4\n          pop\n            /* \"#utility.yul\":3378:3430   */\n          tag_103\n            /* \"#utility.yul\":3423:3429   */\n          dup2\n            /* \"#utility.yul\":3418:3421   */\n          dup6\n            /* \"#utility.yul\":3411:3415   */\n          0x20\n            /* \"#utility.yul\":3404:3409   */\n          dup7\n            /* \"#utility.yul\":3400:3416   */\n          add\n            /* \"#utility.yul\":3378:3430   */\n          tag_104\n          jump\t// in\n        tag_103:\n            /* \"#utility.yul\":3455:3484   */\n          tag_105\n            /* \"#utility.yul\":3477:3483   */\n          dup2\n            /* \"#utility.yul\":3455:3484   */\n          tag_106\n          jump\t// in\n        tag_105:\n            /* \"#utility.yul\":3450:3453   */\n          dup5\n            /* \"#utility.yul\":3446:3485   */\n          add\n            /* \"#utility.yul\":3439:3485   */\n          swap2\n          pop\n            /* \"#utility.yul\":3221:3491   */\n          pop\n            /* \"#utility.yul\":3131:3491   */\n          swap3\n          swap2\n          pop\n          pop\n          jump\t// out\n            /* \"#utility.yul\":3497:3861   */\n        tag_107:\n            /* \"#utility.yul\":3585:3588   */\n          0x00\n            /* \"#utility.yul\":3613:3652   */\n          tag_109\n            /* \"#utility.yul\":3646:3651   */\n          dup3\n            /* \"#utility.yul\":3613:3652   */\n          tag_110\n          jump\t// in\n        tag_109:\n            /* \"#utility.yul\":3668:3739   */\n          tag_111\n            /* \"#utility.yul\":3732:3738   */\n          dup2\n            /* \"#utility.yul\":3727:3730   */\n          dup6\n            /* \"#utility.yul\":3668:3739   */\n          tag_112\n          jump\t// in\n        tag_111:\n            /* \"#utility.yul\":3661:3739   */\n          swap4\n          pop\n            /* \"#utility.yul\":3748:3800   */\n          tag_113\n            /* \"#utility.yul\":3793:3799   */\n          dup2\n            /* \"#utility.yul\":3788:3791   */\n          dup6\n            /* \"#utility.yul\":3781:3785   */\n          0x20\n            /* \"#utility.yul\":3774:3779   */\n          dup7\n            /* \"#utility.yul\":3770:3786   */\n          add\n            /* \"#utility.yul\":3748:3800   */\n          tag_104\n          jump\t// in\n        tag_113:\n            /* \"#utility.yul\":3825:3854   */\n          tag_114\n            /* \"#utility.yul\":3847:3853   */\n          dup2\n            /* \"#utility.yul\":3825:3854   */\n          tag_106\n          jump\t// in\n        tag_114:\n            /* \"#utility.yul\":3820:3823   */\n          dup5\n            /* \"#utility.yul\":3816:3855   */\n          add\n            /* \"#utility.yul\":3809:3855   */\n          swap2\n          pop\n            /* \"#utility.yul\":3589:3861   */\n          pop\n            /* \"#utility.yul\":3497:3861   */\n          swap3\n          swap2\n          pop\n          pop\n          jump\t// out\n            /* \"#utility.yul\":3867:4244   */\n        tag_115:\n            /* \"#utility.yul\":3973:3976   */\n          0x00\n            /* \"#utility.yul\":4001:4040   */\n          tag_117\n            /* \"#utility.yul\":4034:4039   */\n          dup3\n            /* \"#utility.yul\":4001:4040   */\n          tag_110\n          jump\t// in\n        tag_117:\n            /* \"#utility.yul\":4056:4145   */\n          tag_118\n            /* \"#utility.yul\":4138:4144   */\n          dup2\n            /* \"#utility.yul\":4133:4136   */\n          dup6\n            /* \"#utility.yul\":4056:4145   */\n          tag_119\n          jump\t// in\n        tag_118:\n            /* \"#utility.yul\":4049:4145   */\n          swap4\n          pop\n            /* \"#utility.yul\":4154:4206   */\n          tag_120\n            /* \"#utility.yul\":4199:4205   */\n          dup2\n            /* \"#utility.yul\":4194:4197   */\n          dup6\n            /* \"#utility.yul\":4187:4191   */\n          0x20\n            /* \"#utility.yul\":4180:4185   */\n          dup7\n            /* \"#utility.yul\":4176:4192   */\n          add\n            /* \"#utility.yul\":4154:4206   */\n          tag_104\n          jump\t// in\n        tag_120:\n            /* \"#utility.yul\":4231:4237   */\n          dup1\n            /* \"#utility.yul\":4226:4229   */\n          dup5\n            /* \"#utility.yul\":4222:4238   */\n          add\n            /* \"#utility.yul\":4215:4238   */\n          swap2\n          pop\n            /* \"#utility.yul\":3977:4244   */\n          pop\n            /* \"#utility.yul\":3867:4244   */\n          swap3\n          swap2\n          pop\n          pop\n          jump\t// out\n            /* \"#utility.yul\":4250:4368   */\n        tag_121:\n            /* \"#utility.yul\":4337:4361   */\n          tag_123\n            /* \"#utility.yul\":4355:4360   */\n          dup2\n            /* \"#utility.yul\":4337:4361   */\n          tag_124\n          jump\t// in\n        tag_123:\n            /* \"#utility.yul\":4332:4335   */\n          dup3\n            /* \"#utility.yul\":4325:4362   */\n          mstore\n            /* \"#utility.yul\":4250:4368   */\n          pop\n          pop\n          jump\t// out\n            /* \"#utility.yul\":4374:4531   */\n        tag_125:\n            /* \"#utility.yul\":4479:4524   */\n          tag_127\n            /* \"#utility.yul\":4499:4523   */\n          tag_128\n            /* \"#utility.yul\":4517:4522   */\n          dup3\n            /* \"#utility.yul\":4499:4523   */\n          tag_124\n          jump\t// in\n        tag_128:\n            /* \"#utility.yul\":4479:4524   */\n          tag_129\n          jump\t// in\n        tag_127:\n            /* \"#utility.yul\":4474:4477   */\n          dup3\n            /* \"#utility.yul\":4467:4525   */\n          mstore\n            /* \"#utility.yul\":4374:4531   */\n          pop\n          pop\n          jump\t// out\n            /* \"#utility.yul\":4537:4972   */\n        tag_35:\n            /* \"#utility.yul\":4717:4720   */\n          0x00\n            /* \"#utility.yul\":4739:4834   */\n          tag_131\n            /* \"#utility.yul\":4830:4833   */\n          dup3\n            /* \"#utility.yul\":4821:4827   */\n          dup6\n            /* \"#utility.yul\":4739:4834   */\n          tag_115\n          jump\t// in\n        tag_131:\n            /* \"#utility.yul\":4732:4834   */\n          swap2\n          pop\n            /* \"#utility.yul\":4851:4946   */\n          tag_132\n            /* \"#utility.yul\":4942:4945   */\n          dup3\n            /* \"#utility.yul\":4933:4939   */\n          dup5\n            /* \"#utility.yul\":4851:4946   */\n          tag_115\n          jump\t// in\n        tag_132:\n            /* \"#utility.yul\":4844:4946   */\n          swap2\n          pop\n            /* \"#utility.yul\":4963:4966   */\n          dup2\n            /* \"#utility.yul\":4956:4966   */\n          swap1\n          pop\n            /* \"#utility.yul\":4537:4972   */\n          swap4\n          swap3\n          pop\n          pop\n          pop\n          jump\t// out\n            /* \"#utility.yul\":4978:5535   */\n        tag_32:\n            /* \"#utility.yul\":5166:5169   */\n          0x00\n            /* \"#utility.yul\":5188:5283   */\n          tag_134\n            /* \"#utility.yul\":5279:5282   */\n          dup3\n            /* \"#utility.yul\":5270:5276   */\n          dup7\n            /* \"#utility.yul\":5188:5283   */\n          tag_115\n          jump\t// in\n        tag_134:\n            /* \"#utility.yul\":5181:5283   */\n          swap2\n          pop\n            /* \"#utility.yul\":5293:5368   */\n          tag_135\n            /* \"#utility.yul\":5364:5367   */\n          dup3\n            /* \"#utility.yul\":5355:5361   */\n          dup6\n            /* \"#utility.yul\":5293:5368   */\n          tag_125\n          jump\t// in\n        tag_135:\n            /* \"#utility.yul\":5393:5395   */\n          0x20\n            /* \"#utility.yul\":5388:5391   */\n          dup3\n            /* \"#utility.yul\":5384:5396   */\n          add\n            /* \"#utility.yul\":5377:5396   */\n          swap2\n          pop\n            /* \"#utility.yul\":5406:5481   */\n          tag_136\n            /* \"#utility.yul\":5477:5480   */\n          dup3\n            /* \"#utility.yul\":5468:5474   */\n          dup5\n            /* \"#utility.yul\":5406:5481   */\n          tag_88\n          jump\t// in\n        tag_136:\n            /* \"#utility.yul\":5506:5508   */\n          0x14\n            /* \"#utility.yul\":5501:5504   */\n          dup3\n            /* \"#utility.yul\":5497:5509   */\n          add\n            /* \"#utility.yul\":5490:5509   */\n          swap2\n          pop\n            /* \"#utility.yul\":5526:5529   */\n          dup2\n            /* \"#utility.yul\":5519:5529   */\n          swap1\n          pop\n            /* \"#utility.yul\":4978:5535   */\n          swap5\n          swap4\n          pop\n          pop\n          pop\n          pop\n          jump\t// out\n            /* \"#utility.yul\":5541:5763   */\n        tag_18:\n            /* \"#utility.yul\":5634:5638   */\n          0x00\n            /* \"#utility.yul\":5672:5674   */\n          0x20\n            /* \"#utility.yul\":5661:5670   */\n          dup3\n            /* \"#utility.yul\":5657:5675   */\n          add\n            /* \"#utility.yul\":5649:5675   */\n          swap1\n          pop\n            /* \"#utility.yul\":5685:5756   */\n          tag_138\n            /* \"#utility.yul\":5753:5754   */\n          0x00\n            /* \"#utility.yul\":5742:5751   */\n          dup4\n            /* \"#utility.yul\":5738:5755   */\n          add\n            /* \"#utility.yul\":5729:5735   */\n          dup5\n            /* \"#utility.yul\":5685:5756   */\n          tag_93\n          jump\t// in\n        tag_138:\n            /* \"#utility.yul\":5541:5763   */\n          swap3\n          swap2\n          pop\n          pop\n          jump\t// out\n            /* \"#utility.yul\":5769:6078   */\n        tag_12:\n            /* \"#utility.yul\":5880:5884   */\n          0x00\n            /* \"#utility.yul\":5918:5920   */\n          0x20\n            /* \"#utility.yul\":5907:5916   */\n          dup3\n            /* \"#utility.yul\":5903:5921   */\n          add\n            /* \"#utility.yul\":5895:5921   */\n          swap1\n          pop\n            /* \"#utility.yul\":5967:5976   */\n          dup2\n            /* \"#utility.yul\":5961:5965   */\n          dup2\n            /* \"#utility.yul\":5957:5977   */\n          sub\n            /* \"#utility.yul\":5953:5954   */\n          0x00\n            /* \"#utility.yul\":5942:5951   */\n          dup4\n            /* \"#utility.yul\":5938:5955   */\n          add\n            /* \"#utility.yul\":5931:5978   */\n          mstore\n            /* \"#utility.yul\":5995:6071   */\n          tag_140\n            /* \"#utility.yul\":6066:6070   */\n          dup2\n            /* \"#utility.yul\":6057:6063   */\n          dup5\n            /* \"#utility.yul\":5995:6071   */\n          tag_97\n          jump\t// in\n        tag_140:\n            /* \"#utility.yul\":5987:6071   */\n          swap1\n          pop\n            /* \"#utility.yul\":5769:6078   */\n          swap3\n          swap2\n          pop\n          pop\n          jump\t// out\n            /* \"#utility.yul\":6084:6598   */\n        tag_29:\n            /* \"#utility.yul\":6245:6249   */\n          0x00\n            /* \"#utility.yul\":6283:6285   */\n          0x40\n            /* \"#utility.yul\":6272:6281   */\n          dup3\n            /* \"#utility.yul\":6268:6286   */\n          add\n            /* \"#utility.yul\":6260:6286   */\n          swap1\n          pop\n            /* \"#utility.yul\":6332:6341   */\n          dup2\n            /* \"#utility.yul\":6326:6330   */\n          dup2\n            /* \"#utility.yul\":6322:6342   */\n          sub\n            /* \"#utility.yul\":6318:6319   */\n          0x00\n            /* \"#utility.yul\":6307:6316   */\n          dup4\n            /* \"#utility.yul\":6303:6320   */\n          add\n            /* \"#utility.yul\":6296:6343   */\n          mstore\n            /* \"#utility.yul\":6360:6438   */\n          tag_142\n            /* \"#utility.yul\":6433:6437   */\n          dup2\n            /* \"#utility.yul\":6424:6430   */\n          dup6\n            /* \"#utility.yul\":6360:6438   */\n          tag_107\n          jump\t// in\n        tag_142:\n            /* \"#utility.yul\":6352:6438   */\n          swap1\n          pop\n            /* \"#utility.yul\":6485:6494   */\n          dup2\n            /* \"#utility.yul\":6479:6483   */\n          dup2\n            /* \"#utility.yul\":6475:6495   */\n          sub\n            /* \"#utility.yul\":6470:6472   */\n          0x20\n            /* \"#utility.yul\":6459:6468   */\n          dup4\n            /* \"#utility.yul\":6455:6473   */\n          add\n            /* \"#utility.yul\":6448:6496   */\n          mstore\n            /* \"#utility.yul\":6513:6591   */\n          tag_143\n            /* \"#utility.yul\":6586:6590   */\n          dup2\n            /* \"#utility.yul\":6577:6583   */\n          dup5\n            /* \"#utility.yul\":6513:6591   */\n          tag_107\n          jump\t// in\n        tag_143:\n            /* \"#utility.yul\":6505:6591   */\n          swap1\n          pop\n            /* \"#utility.yul\":6084:6598   */\n          swap4\n          swap3\n          pop\n          pop\n          pop\n          jump\t// out\n            /* \"#utility.yul\":6604:7137   */\n        tag_38:\n            /* \"#utility.yul\":6773:6777   */\n          0x00\n            /* \"#utility.yul\":6811:6813   */\n          0x60\n            /* \"#utility.yul\":6800:6809   */\n          dup3\n            /* \"#utility.yul\":6796:6814   */\n          add\n            /* \"#utility.yul\":6788:6814   */\n          swap1\n          pop\n            /* \"#utility.yul\":6860:6869   */\n          dup2\n            /* \"#utility.yul\":6854:6858   */\n          dup2\n            /* \"#utility.yul\":6850:6870   */\n          sub\n            /* \"#utility.yul\":6846:6847   */\n          0x00\n            /* \"#utility.yul\":6835:6844   */\n          dup4\n            /* \"#utility.yul\":6831:6848   */\n          add\n            /* \"#utility.yul\":6824:6871   */\n          mstore\n            /* \"#utility.yul\":6888:6966   */\n          tag_145\n            /* \"#utility.yul\":6961:6965   */\n          dup2\n            /* \"#utility.yul\":6952:6958   */\n          dup7\n            /* \"#utility.yul\":6888:6966   */\n          tag_107\n          jump\t// in\n        tag_145:\n            /* \"#utility.yul\":6880:6966   */\n          swap1\n          pop\n            /* \"#utility.yul\":6976:7048   */\n          tag_146\n            /* \"#utility.yul\":7044:7046   */\n          0x20\n            /* \"#utility.yul\":7033:7042   */\n          dup4\n            /* \"#utility.yul\":7029:7047   */\n          add\n            /* \"#utility.yul\":7020:7026   */\n          dup6\n            /* \"#utility.yul\":6976:7048   */\n          tag_121\n          jump\t// in\n        tag_146:\n            /* \"#utility.yul\":7058:7130   */\n          tag_147\n            /* \"#utility.yul\":7126:7128   */\n          0x40\n            /* \"#utility.yul\":7115:7124   */\n          dup4\n            /* \"#utility.yul\":7111:7129   */\n          add\n            /* \"#utility.yul\":7102:7108   */\n          dup5\n            /* \"#utility.yul\":7058:7130   */\n          tag_84\n          jump\t// in\n        tag_147:\n            /* \"#utility.yul\":6604:7137   */\n          swap5\n          swap4\n          pop\n          pop\n          pop\n          pop\n          jump\t// out\n            /* \"#utility.yul\":7143:7272   */\n        tag_45:\n            /* \"#utility.yul\":7177:7183   */\n          0x00\n            /* \"#utility.yul\":7204:7224   */\n          tag_149\n          tag_150\n          jump\t// in\n        tag_149:\n            /* \"#utility.yul\":7194:7224   */\n          swap1\n          pop\n            /* \"#utility.yul\":7233:7266   */\n          tag_151\n            /* \"#utility.yul\":7261:7265   */\n          dup3\n            /* \"#utility.yul\":7253:7259   */\n          dup3\n            /* \"#utility.yul\":7233:7266   */\n          tag_152\n          jump\t// in\n        tag_151:\n            /* \"#utility.yul\":7143:7272   */\n          swap2\n          swap1\n          pop\n          jump\t// out\n            /* \"#utility.yul\":7278:7353   */\n        tag_150:\n            /* \"#utility.yul\":7311:7317   */\n          0x00\n            /* \"#utility.yul\":7344:7346   */\n          0x40\n            /* \"#utility.yul\":7338:7347   */\n          mload\n            /* \"#utility.yul\":7328:7347   */\n          swap1\n          pop\n            /* \"#utility.yul\":7278:7353   */\n          swap1\n          jump\t// out\n            /* \"#utility.yul\":7359:7667   */\n        tag_44:\n            /* \"#utility.yul\":7421:7425   */\n          0x00\n            /* \"#utility.yul\":7511:7529   */\n          0xffffffffffffffff\n            /* \"#utility.yul\":7503:7509   */\n          dup3\n            /* \"#utility.yul\":7500:7530   */\n          gt\n            /* \"#utility.yul\":7497:7553   */\n          iszero\n          tag_155\n          jumpi\n            /* \"#utility.yul\":7533:7551   */\n          tag_156\n          tag_157\n          jump\t// in\n        tag_156:\n            /* \"#utility.yul\":7497:7553   */\n        tag_155:\n            /* \"#utility.yul\":7571:7600   */\n          tag_158\n            /* \"#utility.yul\":7593:7599   */\n          dup3\n            /* \"#utility.yul\":7571:7600   */\n          tag_106\n          jump\t// in\n        tag_158:\n            /* \"#utility.yul\":7563:7600   */\n          swap1\n          pop\n            /* \"#utility.yul\":7655:7659   */\n          0x20\n            /* \"#utility.yul\":7649:7653   */\n          dup2\n            /* \"#utility.yul\":7645:7660   */\n          add\n            /* \"#utility.yul\":7637:7660   */\n          swap1\n          pop\n            /* \"#utility.yul\":7359:7667   */\n          swap2\n          swap1\n          pop\n          jump\t// out\n            /* \"#utility.yul\":7673:7771   */\n        tag_100:\n            /* \"#utility.yul\":7724:7730   */\n          0x00\n            /* \"#utility.yul\":7758:7763   */\n          dup2\n            /* \"#utility.yul\":7752:7764   */\n          mload\n            /* \"#utility.yul\":7742:7764   */\n          swap1\n          pop\n            /* \"#utility.yul\":7673:7771   */\n          swap2\n          swap1\n          pop\n          jump\t// out\n            /* \"#utility.yul\":7777:7876   */\n        tag_110:\n            /* \"#utility.yul\":7829:7835   */\n          0x00\n            /* \"#utility.yul\":7863:7868   */\n          dup2\n            /* \"#utility.yul\":7857:7869   */\n          mload\n            /* \"#utility.yul\":7847:7869   */\n          swap1\n          pop\n            /* \"#utility.yul\":7777:7876   */\n          swap2\n          swap1\n          pop\n          jump\t// out\n            /* \"#utility.yul\":7882:8050   */\n        tag_102:\n            /* \"#utility.yul\":7965:7976   */\n          0x00\n            /* \"#utility.yul\":7999:8005   */\n          dup3\n            /* \"#utility.yul\":7994:7997   */\n          dup3\n            /* \"#utility.yul\":7987:8006   */\n          mstore\n            /* \"#utility.yul\":8039:8043   */\n          0x20\n            /* \"#utility.yul\":8034:8037   */\n          dup3\n            /* \"#utility.yul\":8030:8044   */\n          add\n            /* \"#utility.yul\":8015:8044   */\n          swap1\n          pop\n            /* \"#utility.yul\":7882:8050   */\n          swap3\n          swap2\n          pop\n          pop\n          jump\t// out\n            /* \"#utility.yul\":8056:8225   */\n        tag_112:\n            /* \"#utility.yul\":8140:8151   */\n          0x00\n            /* \"#utility.yul\":8174:8180   */\n          dup3\n            /* \"#utility.yul\":8169:8172   */\n          dup3\n            /* \"#utility.yul\":8162:8181   */\n          mstore\n            /* \"#utility.yul\":8214:8218   */\n          0x20\n            /* \"#utility.yul\":8209:8212   */\n          dup3\n            /* \"#utility.yul\":8205:8219   */\n          add\n            /* \"#utility.yul\":8190:8219   */\n          swap1\n          pop\n            /* \"#utility.yul\":8056:8225   */\n          swap3\n          swap2\n          pop\n          pop\n          jump\t// out\n            /* \"#utility.yul\":8231:8379   */\n        tag_119:\n            /* \"#utility.yul\":8333:8344   */\n          0x00\n            /* \"#utility.yul\":8370:8373   */\n          dup2\n            /* \"#utility.yul\":8355:8373   */\n          swap1\n          pop\n            /* \"#utility.yul\":8231:8379   */\n          swap3\n          swap2\n          pop\n          pop\n          jump\t// out\n            /* \"#utility.yul\":8385:8481   */\n        tag_87:\n            /* \"#utility.yul\":8422:8429   */\n          0x00\n            /* \"#utility.yul\":8451:8475   */\n          tag_165\n            /* \"#utility.yul\":8469:8474   */\n          dup3\n            /* \"#utility.yul\":8451:8475   */\n          tag_166\n          jump\t// in\n        tag_165:\n            /* \"#utility.yul\":8440:8475   */\n          swap1\n          pop\n            /* \"#utility.yul\":8385:8481   */\n          swap2\n          swap1\n          pop\n          jump\t// out\n            /* \"#utility.yul\":8487:8564   */\n        tag_96:\n            /* \"#utility.yul\":8524:8531   */\n          0x00\n            /* \"#utility.yul\":8553:8558   */\n          dup2\n            /* \"#utility.yul\":8542:8558   */\n          swap1\n          pop\n            /* \"#utility.yul\":8487:8564   */\n          swap2\n          swap1\n          pop\n          jump\t// out\n            /* \"#utility.yul\":8570:8696   */\n        tag_166:\n            /* \"#utility.yul\":8607:8614   */\n          0x00\n            /* \"#utility.yul\":8647:8689   */\n          0xffffffffffffffffffffffffffffffffffffffff\n            /* \"#utility.yul\":8640:8645   */\n          dup3\n            /* \"#utility.yul\":8636:8690   */\n          and\n            /* \"#utility.yul\":8625:8690   */\n          swap1\n          pop\n            /* \"#utility.yul\":8570:8696   */\n          swap2\n          swap1\n          pop\n          jump\t// out\n            /* \"#utility.yul\":8702:8779   */\n        tag_124:\n            /* \"#utility.yul\":8739:8746   */\n          0x00\n            /* \"#utility.yul\":8768:8773   */\n          dup2\n            /* \"#utility.yul\":8757:8773   */\n          swap1\n          pop\n            /* \"#utility.yul\":8702:8779   */\n          swap2\n          swap1\n          pop\n          jump\t// out\n            /* \"#utility.yul\":8785:8939   */\n        tag_50:\n            /* \"#utility.yul\":8869:8875   */\n          dup3\n            /* \"#utility.yul\":8864:8867   */\n          dup2\n            /* \"#utility.yul\":8859:8862   */\n          dup4\n            /* \"#utility.yul\":8846:8876   */\n          calldatacopy\n            /* \"#utility.yul\":8931:8932   */\n          0x00\n            /* \"#utility.yul\":8922:8928   */\n          dup4\n            /* \"#utility.yul\":8917:8920   */\n          dup4\n            /* \"#utility.yul\":8913:8929   */\n          add\n            /* \"#utility.yul\":8906:8933   */\n          mstore\n            /* \"#utility.yul\":8785:8939   */\n          pop\n          pop\n          pop\n          jump\t// out\n            /* \"#utility.yul\":8945:9252   */\n        tag_104:\n            /* \"#utility.yul\":9013:9014   */\n          0x00\n            /* \"#utility.yul\":9023:9136   */\n        tag_172:\n            /* \"#utility.yul\":9037:9043   */\n          dup4\n            /* \"#utility.yul\":9034:9035   */\n          dup2\n            /* \"#utility.yul\":9031:9044   */\n          lt\n            /* \"#utility.yul\":9023:9136   */\n          iszero\n          tag_174\n          jumpi\n            /* \"#utility.yul\":9122:9123   */\n          dup1\n            /* \"#utility.yul\":9117:9120   */\n          dup3\n            /* \"#utility.yul\":9113:9124   */\n          add\n            /* \"#utility.yul\":9107:9125   */\n          mload\n            /* \"#utility.yul\":9103:9104   */\n          dup2\n            /* \"#utility.yul\":9098:9101   */\n          dup5\n            /* \"#utility.yul\":9094:9105   */\n          add\n            /* \"#utility.yul\":9087:9126   */\n          mstore\n            /* \"#utility.yul\":9059:9061   */\n          0x20\n            /* \"#utility.yul\":9056:9057   */\n          dup2\n            /* \"#utility.yul\":9052:9062   */\n          add\n            /* \"#utility.yul\":9047:9062   */\n          swap1\n          pop\n            /* \"#utility.yul\":9023:9136   */\n          jump(tag_172)\n        tag_174:\n            /* \"#utility.yul\":9154:9160   */\n          dup4\n            /* \"#utility.yul\":9151:9152   */\n          dup2\n            /* \"#utility.yul\":9148:9161   */\n          gt\n            /* \"#utility.yul\":9145:9246   */\n          iszero\n          tag_175\n          jumpi\n            /* \"#utility.yul\":9234:9235   */\n          0x00\n            /* \"#utility.yul\":9225:9231   */\n          dup5\n            /* \"#utility.yul\":9220:9223   */\n          dup5\n            /* \"#utility.yul\":9216:9232   */\n          add\n            /* \"#utility.yul\":9209:9236   */\n          mstore\n            /* \"#utility.yul\":9145:9246   */\n        tag_175:\n            /* \"#utility.yul\":8994:9252   */\n          pop\n            /* \"#utility.yul\":8945:9252   */\n          pop\n          pop\n          pop\n          jump\t// out\n            /* \"#utility.yul\":9258:9539   */\n        tag_152:\n            /* \"#utility.yul\":9341:9368   */\n          tag_177\n            /* \"#utility.yul\":9363:9367   */\n          dup3\n            /* \"#utility.yul\":9341:9368   */\n          tag_106\n          jump\t// in\n        tag_177:\n            /* \"#utility.yul\":9333:9339   */\n          dup2\n            /* \"#utility.yul\":9329:9369   */\n          add\n            /* \"#utility.yul\":9471:9477   */\n          dup2\n            /* \"#utility.yul\":9459:9469   */\n          dup2\n            /* \"#utility.yul\":9456:9478   */\n          lt\n            /* \"#utility.yul\":9435:9453   */\n          0xffffffffffffffff\n            /* \"#utility.yul\":9423:9433   */\n          dup3\n            /* \"#utility.yul\":9420:9454   */\n          gt\n            /* \"#utility.yul\":9417:9479   */\n          or\n            /* \"#utility.yul\":9414:9502   */\n          iszero\n          tag_178\n          jumpi\n            /* \"#utility.yul\":9482:9500   */\n          tag_179\n          tag_157\n          jump\t// in\n        tag_179:\n            /* \"#utility.yul\":9414:9502   */\n        tag_178:\n            /* \"#utility.yul\":9522:9532   */\n          dup1\n            /* \"#utility.yul\":9518:9520   */\n          0x40\n            /* \"#utility.yul\":9511:9533   */\n          mstore\n            /* \"#utility.yul\":9301:9539   */\n          pop\n            /* \"#utility.yul\":9258:9539   */\n          pop\n          pop\n          jump\t// out\n            /* \"#utility.yul\":9545:9645   */\n        tag_92:\n            /* \"#utility.yul\":9584:9591   */\n          0x00\n            /* \"#utility.yul\":9613:9639   */\n          tag_181\n            /* \"#utility.yul\":9633:9638   */\n          dup3\n            /* \"#utility.yul\":9613:9639   */\n          tag_182\n          jump\t// in\n        tag_181:\n            /* \"#utility.yul\":9602:9639   */\n          swap1\n          pop\n            /* \"#utility.yul\":9545:9645   */\n          swap2\n          swap1\n          pop\n          jump\t// out\n            /* \"#utility.yul\":9651:9745   */\n        tag_182:\n            /* \"#utility.yul\":9690:9697   */\n          0x00\n            /* \"#utility.yul\":9719:9739   */\n          tag_184\n            /* \"#utility.yul\":9733:9738   */\n          dup3\n            /* \"#utility.yul\":9719:9739   */\n          tag_185\n          jump\t// in\n        tag_184:\n            /* \"#utility.yul\":9708:9739   */\n          swap1\n          pop\n            /* \"#utility.yul\":9651:9745   */\n          swap2\n          swap1\n          pop\n          jump\t// out\n            /* \"#utility.yul\":9751:9830   */\n        tag_129:\n            /* \"#utility.yul\":9790:9797   */\n          0x00\n            /* \"#utility.yul\":9819:9824   */\n          dup2\n            /* \"#utility.yul\":9808:9824   */\n          swap1\n          pop\n            /* \"#utility.yul\":9751:9830   */\n          swap2\n          swap1\n          pop\n          jump\t// out\n            /* \"#utility.yul\":9836:10016   */\n        tag_157:\n            /* \"#utility.yul\":9884:9961   */\n          0x4e487b7100000000000000000000000000000000000000000000000000000000\n            /* \"#utility.yul\":9881:9882   */\n          0x00\n            /* \"#utility.yul\":9874:9962   */\n          mstore\n            /* \"#utility.yul\":9981:9985   */\n          0x41\n            /* \"#utility.yul\":9978:9979   */\n          0x04\n            /* \"#utility.yul\":9971:9986   */\n          mstore\n            /* \"#utility.yul\":10005:10009   */\n          0x24\n            /* \"#utility.yul\":10002:10003   */\n          0x00\n            /* \"#utility.yul\":9995:10010   */\n          revert\n            /* \"#utility.yul\":10022:10139   */\n        tag_59:\n            /* \"#utility.yul\":10131:10132   */\n          0x00\n            /* \"#utility.yul\":10128:10129   */\n          dup1\n            /* \"#utility.yul\":10121:10133   */\n          revert\n            /* \"#utility.yul\":10145:10262   */\n        tag_48:\n            /* \"#utility.yul\":10254:10255   */\n          0x00\n            /* \"#utility.yul\":10251:10252   */\n          dup1\n            /* \"#utility.yul\":10244:10256   */\n          revert\n            /* \"#utility.yul\":10268:10385   */\n        tag_71:\n            /* \"#utility.yul\":10377:10378   */\n          0x00\n            /* \"#utility.yul\":10374:10375   */\n          dup1\n            /* \"#utility.yul\":10367:10379   */\n          revert\n            /* \"#utility.yul\":10391:10508   */\n        tag_68:\n            /* \"#utility.yul\":10500:10501   */\n          0x00\n            /* \"#utility.yul\":10497:10498   */\n          dup1\n            /* \"#utility.yul\":10490:10502   */\n          revert\n            /* \"#utility.yul\":10514:10616   */\n        tag_106:\n            /* \"#utility.yul\":10555:10561   */\n          0x00\n            /* \"#utility.yul\":10606:10608   */\n          0x1f\n            /* \"#utility.yul\":10602:10609   */\n          not\n            /* \"#utility.yul\":10597:10599   */\n          0x1f\n            /* \"#utility.yul\":10590:10595   */\n          dup4\n            /* \"#utility.yul\":10586:10600   */\n          add\n            /* \"#utility.yul\":10582:10610   */\n          and\n            /* \"#utility.yul\":10572:10610   */\n          swap1\n          pop\n            /* \"#utility.yul\":10514:10616   */\n          swap2\n          swap1\n          pop\n          jump\t// out\n            /* \"#utility.yul\":10622:10716   */\n        tag_185:\n            /* \"#utility.yul\":10655:10663   */\n          0x00\n            /* \"#utility.yul\":10703:10708   */\n          dup2\n            /* \"#utility.yul\":10699:10701   */\n          0x60\n            /* \"#utility.yul\":10695:10709   */\n          shl\n            /* \"#utility.yul\":10674:10709   */\n          swap1\n          pop\n            /* \"#utility.yul\":10622:10716   */\n          swap2\n          swap1\n          pop\n          jump\t// out\n            /* \"#utility.yul\":10722:10844   */\n        tag_54:\n            /* \"#utility.yul\":10795:10819   */\n          tag_195\n            /* \"#utility.yul\":10813:10818   */\n          dup2\n            /* \"#utility.yul\":10795:10819   */\n          tag_87\n          jump\t// in\n        tag_195:\n            /* \"#utility.yul\":10788:10793   */\n          dup2\n            /* \"#utility.yul\":10785:10820   */\n          eq\n            /* \"#utility.yul\":10775:10838   */\n          tag_196\n          jumpi\n            /* \"#utility.yul\":10834:10835   */\n          0x00\n            /* \"#utility.yul\":10831:10832   */\n          dup1\n            /* \"#utility.yul\":10824:10836   */\n          revert\n            /* \"#utility.yul\":10775:10838   */\n        tag_196:\n            /* \"#utility.yul\":10722:10844   */\n          pop\n          jump\t// out\n            /* \"#utility.yul\":10850:10972   */\n        tag_64:\n            /* \"#utility.yul\":10923:10947   */\n          tag_198\n            /* \"#utility.yul\":10941:10946   */\n          dup2\n            /* \"#utility.yul\":10923:10947   */\n          tag_124\n          jump\t// in\n        tag_198:\n            /* \"#utility.yul\":10916:10921   */\n          dup2\n            /* \"#utility.yul\":10913:10948   */\n          eq\n            /* \"#utility.yul\":10903:10966   */\n          tag_199\n          jumpi\n            /* \"#utility.yul\":10962:10963   */\n          0x00\n            /* \"#utility.yul\":10959:10960   */\n          dup1\n            /* \"#utility.yul\":10952:10964   */\n          revert\n            /* \"#utility.yul\":10903:10966   */\n        tag_199:\n            /* \"#utility.yul\":10850:10972   */\n          pop\n          jump\t// out\n\n        auxdata: 0xa2646970667358221220d20cac53a42a6eb15a2a38b46e7a0c807582e9358c1a299c722c7d010f27e7fb64736f6c63430008070033\n    }\n}\n",
				"bytecode": {
					"linkReferences": {},
					"object": "60806040526040516100109061007e565b604051809103906000f08015801561002c573d6000803e3d6000fd5b506000806101000a81548173ffffffffffffffffffffffffffffffffffffffff021916908373ffffffffffffffffffffffffffffffffffffffff16021790555034801561007857600080fd5b5061008b565b6107c88061069f83390190565b6106058061009a6000396000f3fe608060405234801561001057600080fd5b50600436106100365760003560e01c80630bd629ff1461003b57806323d9432e1461006b575b600080fd5b610055600480360381019061005091906102a7565b61009b565b60405161006291906103a6565b60405180910390f35b6100856004803603810190610080919061024d565b610154565b604051610092919061038b565b60405180910390f35b60008060009054906101000a900473ffffffffffffffffffffffffffffffffffffffff1673ffffffffffffffffffffffffffffffffffffffff166333ece6e98585856040518463ffffffff1660e01b81526004016100fb939291906103c1565b60206040518083038186803b15801561011357600080fd5b505afa158015610127573d6000803e3d6000fd5b505050506040513d601f19601f8201168201806040525081019061014b919061027a565b90509392505050565b60006101758273ffffffffffffffffffffffffffffffffffffffff1661017b565b50919050565b6000808273ffffffffffffffffffffffffffffffffffffffff163b119050919050565b60006101b16101ac84610424565b6103ff565b9050828152602081018484840111156101cd576101cc61056a565b5b6101d88482856104c3565b509392505050565b6000813590506101ef8161058a565b92915050565b600081519050610204816105a1565b92915050565b600082601f83011261021f5761021e610565565b5b813561022f84826020860161019e565b91505092915050565b600081359050610247816105b8565b92915050565b60006020828403121561026357610262610574565b5b6000610271848285016101e0565b91505092915050565b6000602082840312156102905761028f610574565b5b600061029e848285016101f5565b91505092915050565b6000806000606084860312156102c0576102bf610574565b5b600084013567ffffffffffffffff8111156102de576102dd61056f565b5b6102ea8682870161020a565b93505060206102fb86828701610238565b925050604061030c868287016101e0565b9150509250925092565b61031f81610471565b82525050565b61032e81610483565b82525050565b61033d8161048f565b82525050565b600061034e82610455565b6103588185610460565b93506103688185602086016104d2565b61037181610579565b840191505092915050565b610385816104b9565b82525050565b60006020820190506103a06000830184610325565b92915050565b60006020820190506103bb6000830184610334565b92915050565b600060608201905081810360008301526103db8186610343565b90506103ea602083018561037c565b6103f76040830184610316565b949350505050565b600061040961041a565b90506104158282610505565b919050565b6000604051905090565b600067ffffffffffffffff82111561043f5761043e610536565b5b61044882610579565b9050602081019050919050565b600081519050919050565b600082825260208201905092915050565b600061047c82610499565b9050919050565b60008115159050919050565b6000819050919050565b600073ffffffffffffffffffffffffffffffffffffffff82169050919050565b6000819050919050565b82818337600083830152505050565b60005b838110156104f05780820151818401526020810190506104d5565b838111156104ff576000848401525b50505050565b61050e82610579565b810181811067ffffffffffffffff8211171561052d5761052c610536565b5b80604052505050565b7f4e487b7100000000000000000000000000000000000000000000000000000000600052604160045260246000fd5b600080fd5b600080fd5b600080fd5b600080fd5b6000601f19601f8301169050919050565b61059381610471565b811461059e57600080fd5b50565b6105aa8161048f565b81146105b557600080fd5b50565b6105c1816104b9565b81146105cc57600080fd5b5056fea2646970667358221220feb5fb1aad981147b228c7fed30ae981a62078e23d78848fc76b63cb88acd38f64736f6c63430008070033608060405234801561001057600080fd5b506107a8806100206000396000f3fe608060405234801561001057600080fd5b506004361061004c5760003560e01c806317fe2da21461005157806333ece6e914610081578063892e5d01146100b1578063f20f1e9e146100e1575b600080fd5b61006b6004803603810190610066919061026f565b610111565b60405161007891906104cc565b60405180910390f35b61009b600480360381019061009691906102e7565b61013d565b6040516100a891906104b1565b60405180910390f35b6100cb60048036038101906100c6919061026f565b610173565b6040516100d891906104cc565b60405180910390f35b6100fb60048036038101906100f691906102e7565b61019f565b60405161010891906104b1565b60405180910390f35b606082826040516020016101269291906104ee565b604051602081830303815290604052905092915050565b600083838360405160200161015493929190610478565b6040516020818303038152906040528051906020012090509392505050565b60608282604051602001610188929190610454565b604051602081830303815290604052905092915050565b60008383836040516020016101b693929190610525565b6040516020818303038152906040528051906020012090509392505050565b60006101e86101e384610588565b610563565b90508281526020810184848401111561020457610203610717565b5b61020f848285610642565b509392505050565b60008135905061022681610744565b92915050565b600082601f83011261024157610240610712565b5b81356102518482602086016101d5565b91505092915050565b6000813590506102698161075b565b92915050565b6000806040838503121561028657610285610721565b5b600083013567ffffffffffffffff8111156102a4576102a361071c565b5b6102b08582860161022c565b925050602083013567ffffffffffffffff8111156102d1576102d061071c565b5b6102dd8582860161022c565b9150509250929050565b600080600060608486031215610300576102ff610721565b5b600084013567ffffffffffffffff81111561031e5761031d61071c565b5b61032a8682870161022c565b935050602061033b8682870161025a565b925050604061034c86828701610217565b9150509250925092565b61035f816105fc565b82525050565b610376610371826105fc565b6106b5565b82525050565b6103858161060e565b82525050565b6000610396826105b9565b6103a081856105cf565b93506103b0818560208601610651565b6103b981610726565b840191505092915050565b60006103cf826105c4565b6103d981856105e0565b93506103e9818560208601610651565b6103f281610726565b840191505092915050565b6000610408826105c4565b61041281856105f1565b9350610422818560208601610651565b80840191505092915050565b61043781610638565b82525050565b61044e61044982610638565b6106d9565b82525050565b600061046082856103fd565b915061046c82846103fd565b91508190509392505050565b600061048482866103fd565b9150610490828561043d565b6020820191506104a08284610365565b601482019150819050949350505050565b60006020820190506104c6600083018461037c565b92915050565b600060208201905081810360008301526104e6818461038b565b905092915050565b6000604082019050818103600083015261050881856103c4565b9050818103602083015261051c81846103c4565b90509392505050565b6000606082019050818103600083015261053f81866103c4565b905061054e602083018561042e565b61055b6040830184610356565b949350505050565b600061056d61057e565b90506105798282610684565b919050565b6000604051905090565b600067ffffffffffffffff8211156105a3576105a26106e3565b5b6105ac82610726565b9050602081019050919050565b600081519050919050565b600081519050919050565b600082825260208201905092915050565b600082825260208201905092915050565b600081905092915050565b600061060782610618565b9050919050565b6000819050919050565b600073ffffffffffffffffffffffffffffffffffffffff82169050919050565b6000819050919050565b82818337600083830152505050565b60005b8381101561066f578082015181840152602081019050610654565b8381111561067e576000848401525b50505050565b61068d82610726565b810181811067ffffffffffffffff821117156106ac576106ab6106e3565b5b80604052505050565b60006106c0826106c7565b9050919050565b60006106d282610737565b9050919050565b6000819050919050565b7f4e487b7100000000000000000000000000000000000000000000000000000000600052604160045260246000fd5b600080fd5b600080fd5b600080fd5b600080fd5b6000601f19601f8301169050919050565b60008160601b9050919050565b61074d816105fc565b811461075857600080fd5b50565b61076481610638565b811461076f57600080fd5b5056fea2646970667358221220d20cac53a42a6eb15a2a38b46e7a0c807582e9358c1a299c722c7d010f27e7fb64736f6c63430008070033",
					"opcodes": "PUSH1 0x80 PUSH1 0x40 MSTORE PUSH1 0x40 MLOAD PUSH2 0x10 SWAP1 PUSH2 0x7E JUMP JUMPDEST PUSH1 0x40 MLOAD DUP1 SWAP2 SUB SWAP1 PUSH1 0x0 CREATE DUP1 ISZERO DUP1 ISZERO PUSH2 0x2C JUMPI RETURNDATASIZE PUSH1 0x0 DUP1 RETURNDATACOPY RETURNDATASIZE PUSH1 0x0 REVERT JUMPDEST POP PUSH1 0x0 DUP1 PUSH2 0x100 EXP DUP2 SLOAD DUP2 PUSH20 0xFFFFFFFFFFFFFFFFFFFFFFFFFFFFFFFFFFFFFFFF MUL NOT AND SWAP1 DUP4 PUSH20 0xFFFFFFFFFFFFFFFFFFFFFFFFFFFFFFFFFFFFFFFF AND MUL OR SWAP1 SSTORE POP CALLVALUE DUP1 ISZERO PUSH2 0x78 JUMPI PUSH1 0x0 DUP1 REVERT JUMPDEST POP PUSH2 0x8B JUMP JUMPDEST PUSH2 0x7C8 DUP1 PUSH2 0x69F DUP4 CODECOPY ADD SWAP1 JUMP JUMPDEST PUSH2 0x605 DUP1 PUSH2 0x9A PUSH1 0x0 CODECOPY PUSH1 0x0 RETURN INVALID PUSH1 0x80 PUSH1 0x40 MSTORE CALLVALUE DUP1 ISZERO PUSH2 0x10 JUMPI PUSH1 0x0 DUP1 REVERT JUMPDEST POP PUSH1 0x4 CALLDATASIZE LT PUSH2 0x36 JUMPI PUSH1 0x0 CALLDATALOAD PUSH1 0xE0 SHR DUP1 PUSH4 0xBD629FF EQ PUSH2 0x3B JUMPI DUP1 PUSH4 0x23D9432E EQ PUSH2 0x6B JUMPI JUMPDEST PUSH1 0x0 DUP1 REVERT JUMPDEST PUSH2 0x55 PUSH1 0x4 DUP1 CALLDATASIZE SUB DUP2 ADD SWAP1 PUSH2 0x50 SWAP2 SWAP1 PUSH2 0x2A7 JUMP JUMPDEST PUSH2 0x9B JUMP JUMPDEST PUSH1 0x40 MLOAD PUSH2 0x62 SWAP2 SWAP1 PUSH2 0x3A6 JUMP JUMPDEST PUSH1 0x40 MLOAD DUP1 SWAP2 SUB SWAP1 RETURN JUMPDEST PUSH2 0x85 PUSH1 0x4 DUP1 CALLDATASIZE SUB DUP2 ADD SWAP1 PUSH2 0x80 SWAP2 SWAP1 PUSH2 0x24D JUMP JUMPDEST PUSH2 0x154 JUMP JUMPDEST PUSH1 0x40 MLOAD PUSH2 0x92 SWAP2 SWAP1 PUSH2 0x38B JUMP JUMPDEST PUSH1 0x40 MLOAD DUP1 SWAP2 SUB SWAP1 RETURN JUMPDEST PUSH1 0x0 DUP1 PUSH1 0x0 SWAP1 SLOAD SWAP1 PUSH2 0x100 EXP SWAP1 DIV PUSH20 0xFFFFFFFFFFFFFFFFFFFFFFFFFFFFFFFFFFFFFFFF AND PUSH20 0xFFFFFFFFFFFFFFFFFFFFFFFFFFFFFFFFFFFFFFFF AND PUSH4 0x33ECE6E9 DUP6 DUP6 DUP6 PUSH1 0x40 MLOAD DUP5 PUSH4 0xFFFFFFFF AND PUSH1 0xE0 SHL DUP2 MSTORE PUSH1 0x4 ADD PUSH2 0xFB SWAP4 SWAP3 SWAP2 SWAP1 PUSH2 0x3C1 JUMP JUMPDEST PUSH1 0x20 PUSH1 0x40 MLOAD DUP1 DUP4 SUB DUP2 DUP7 DUP1 EXTCODESIZE ISZERO DUP1 ISZERO PUSH2 0x113 JUMPI PUSH1 0x0 DUP1 REVERT JUMPDEST POP GAS STATICCALL ISZERO DUP1 ISZERO PUSH2 0x127 JUMPI RETURNDATASIZE PUSH1 0x0 DUP1 RETURNDATACOPY RETURNDATASIZE PUSH1 0x0 REVERT JUMPDEST POP POP POP POP PUSH1 0x40 MLOAD RETURNDATASIZE PUSH1 0x1F NOT PUSH1 0x1F DUP3 ADD AND DUP3 ADD DUP1 PUSH1 0x40 MSTORE POP DUP2 ADD SWAP1 PUSH2 0x14B SWAP2 SWAP1 PUSH2 0x27A JUMP JUMPDEST SWAP1 POP SWAP4 SWAP3 POP POP POP JUMP JUMPDEST PUSH1 0x0 PUSH2 0x175 DUP3 PUSH20 0xFFFFFFFFFFFFFFFFFFFFFFFFFFFFFFFFFFFFFFFF AND PUSH2 0x17B JUMP JUMPDEST POP SWAP2 SWAP1 POP JUMP JUMPDEST PUSH1 0x0 DUP1 DUP3 PUSH20 0xFFFFFFFFFFFFFFFFFFFFFFFFFFFFFFFFFFFFFFFF AND EXTCODESIZE GT SWAP1 POP SWAP2 SWAP1 POP JUMP JUMPDEST PUSH1 0x0 PUSH2 0x1B1 PUSH2 0x1AC DUP5 PUSH2 0x424 JUMP JUMPDEST PUSH2 0x3FF JUMP JUMPDEST SWAP1 POP DUP3 DUP2 MSTORE PUSH1 0x20 DUP2 ADD DUP5 DUP5 DUP5 ADD GT ISZERO PUSH2 0x1CD JUMPI PUSH2 0x1CC PUSH2 0x56A JUMP JUMPDEST JUMPDEST PUSH2 0x1D8 DUP5 DUP3 DUP6 PUSH2 0x4C3 JUMP JUMPDEST POP SWAP4 SWAP3 POP POP POP JUMP JUMPDEST PUSH1 0x0 DUP2 CALLDATALOAD SWAP1 POP PUSH2 0x1EF DUP2 PUSH2 0x58A JUMP JUMPDEST SWAP3 SWAP2 POP POP JUMP JUMPDEST PUSH1 0x0 DUP2 MLOAD SWAP1 POP PUSH2 0x204 DUP2 PUSH2 0x5A1 JUMP JUMPDEST SWAP3 SWAP2 POP POP JUMP JUMPDEST PUSH1 0x0 DUP3 PUSH1 0x1F DUP4 ADD SLT PUSH2 0x21F JUMPI PUSH2 0x21E PUSH2 0x565 JUMP JUMPDEST JUMPDEST DUP2 CALLDATALOAD PUSH2 0x22F DUP5 DUP3 PUSH1 0x20 DUP7 ADD PUSH2 0x19E JUMP JUMPDEST SWAP2 POP POP SWAP3 SWAP2 POP POP JUMP JUMPDEST PUSH1 0x0 DUP2 CALLDATALOAD SWAP1 POP PUSH2 0x247 DUP2 PUSH2 0x5B8 JUMP JUMPDEST SWAP3 SWAP2 POP POP JUMP JUMPDEST PUSH1 0x0 PUSH1 0x20 DUP3 DUP5 SUB SLT ISZERO PUSH2 0x263 JUMPI PUSH2 0x262 PUSH2 0x574 JUMP JUMPDEST JUMPDEST PUSH1 0x0 PUSH2 0x271 DUP5 DUP3 DUP6 ADD PUSH2 0x1E0 JUMP JUMPDEST SWAP2 POP POP SWAP3 SWAP2 POP POP JUMP JUMPDEST PUSH1 0x0 PUSH1 0x20 DUP3 DUP5 SUB SLT ISZERO PUSH2 0x290 JUMPI PUSH2 0x28F PUSH2 0x574 JUMP JUMPDEST JUMPDEST PUSH1 0x0 PUSH2 0x29E DUP5 DUP3 DUP6 ADD PUSH2 0x1F5 JUMP JUMPDEST SWAP2 POP POP SWAP3 SWAP2 POP POP JUMP JUMPDEST PUSH1 0x0 DUP1 PUSH1 0x0 PUSH1 0x60 DUP5 DUP7 SUB SLT ISZERO PUSH2 0x2C0 JUMPI PUSH2 0x2BF PUSH2 0x574 JUMP JUMPDEST JUMPDEST PUSH1 0x0 DUP5 ADD CALLDATALOAD PUSH8 0xFFFFFFFFFFFFFFFF DUP2 GT ISZERO PUSH2 0x2DE JUMPI PUSH2 0x2DD PUSH2 0x56F JUMP JUMPDEST JUMPDEST PUSH2 0x2EA DUP7 DUP3 DUP8 ADD PUSH2 0x20A JUMP JUMPDEST SWAP4 POP POP PUSH1 0x20 PUSH2 0x2FB DUP7 DUP3 DUP8 ADD PUSH2 0x238 JUMP JUMPDEST SWAP3 POP POP PUSH1 0x40 PUSH2 0x30C DUP7 DUP3 DUP8 ADD PUSH2 0x1E0 JUMP JUMPDEST SWAP2 POP POP SWAP3 POP SWAP3 POP SWAP3 JUMP JUMPDEST PUSH2 0x31F DUP2 PUSH2 0x471 JUMP JUMPDEST DUP3 MSTORE POP POP JUMP JUMPDEST PUSH2 0x32E DUP2 PUSH2 0x483 JUMP JUMPDEST DUP3 MSTORE POP POP JUMP JUMPDEST PUSH2 0x33D DUP2 PUSH2 0x48F JUMP JUMPDEST DUP3 MSTORE POP POP JUMP JUMPDEST PUSH1 0x0 PUSH2 0x34E DUP3 PUSH2 0x455 JUMP JUMPDEST PUSH2 0x358 DUP2 DUP6 PUSH2 0x460 JUMP JUMPDEST SWAP4 POP PUSH2 0x368 DUP2 DUP6 PUSH1 0x20 DUP7 ADD PUSH2 0x4D2 JUMP JUMPDEST PUSH2 0x371 DUP2 PUSH2 0x579 JUMP JUMPDEST DUP5 ADD SWAP2 POP POP SWAP3 SWAP2 POP POP JUMP JUMPDEST PUSH2 0x385 DUP2 PUSH2 0x4B9 JUMP JUMPDEST DUP3 MSTORE POP POP JUMP JUMPDEST PUSH1 0x0 PUSH1 0x20 DUP3 ADD SWAP1 POP PUSH2 0x3A0 PUSH1 0x0 DUP4 ADD DUP5 PUSH2 0x325 JUMP JUMPDEST SWAP3 SWAP2 POP POP JUMP JUMPDEST PUSH1 0x0 PUSH1 0x20 DUP3 ADD SWAP1 POP PUSH2 0x3BB PUSH1 0x0 DUP4 ADD DUP5 PUSH2 0x334 JUMP JUMPDEST SWAP3 SWAP2 POP POP JUMP JUMPDEST PUSH1 0x0 PUSH1 0x60 DUP3 ADD SWAP1 POP DUP2 DUP2 SUB PUSH1 0x0 DUP4 ADD MSTORE PUSH2 0x3DB DUP2 DUP7 PUSH2 0x343 JUMP JUMPDEST SWAP1 POP PUSH2 0x3EA PUSH1 0x20 DUP4 ADD DUP6 PUSH2 0x37C JUMP JUMPDEST PUSH2 0x3F7 PUSH1 0x40 DUP4 ADD DUP5 PUSH2 0x316 JUMP JUMPDEST SWAP5 SWAP4 POP POP POP POP JUMP JUMPDEST PUSH1 0x0 PUSH2 0x409 PUSH2 0x41A JUMP JUMPDEST SWAP1 POP PUSH2 0x415 DUP3 DUP3 PUSH2 0x505 JUMP JUMPDEST SWAP2 SWAP1 POP JUMP JUMPDEST PUSH1 0x0 PUSH1 0x40 MLOAD SWAP1 POP SWAP1 JUMP JUMPDEST PUSH1 0x0 PUSH8 0xFFFFFFFFFFFFFFFF DUP3 GT ISZERO PUSH2 0x43F JUMPI PUSH2 0x43E PUSH2 0x536 JUMP JUMPDEST JUMPDEST PUSH2 0x448 DUP3 PUSH2 0x579 JUMP JUMPDEST SWAP1 POP PUSH1 0x20 DUP2 ADD SWAP1 POP SWAP2 SWAP1 POP JUMP JUMPDEST PUSH1 0x0 DUP2 MLOAD SWAP1 POP SWAP2 SWAP1 POP JUMP JUMPDEST PUSH1 0x0 DUP3 DUP3 MSTORE PUSH1 0x20 DUP3 ADD SWAP1 POP SWAP3 SWAP2 POP POP JUMP JUMPDEST PUSH1 0x0 PUSH2 0x47C DUP3 PUSH2 0x499 JUMP JUMPDEST SWAP1 POP SWAP2 SWAP1 POP JUMP JUMPDEST PUSH1 0x0 DUP2 ISZERO ISZERO SWAP1 POP SWAP2 SWAP1 POP JUMP JUMPDEST PUSH1 0x0 DUP2 SWAP1 POP SWAP2 SWAP1 POP JUMP JUMPDEST PUSH1 0x0 PUSH20 0xFFFFFFFFFFFFFFFFFFFFFFFFFFFFFFFFFFFFFFFF DUP3 AND SWAP1 POP SWAP2 SWAP1 POP JUMP JUMPDEST PUSH1 0x0 DUP2 SWAP1 POP SWAP2 SWAP1 POP JUMP JUMPDEST DUP3 DUP2 DUP4 CALLDATACOPY PUSH1 0x0 DUP4 DUP4 ADD MSTORE POP POP POP JUMP JUMPDEST PUSH1 0x0 JUMPDEST DUP4 DUP2 LT ISZERO PUSH2 0x4F0 JUMPI DUP1 DUP3 ADD MLOAD DUP2 DUP5 ADD MSTORE PUSH1 0x20 DUP2 ADD SWAP1 POP PUSH2 0x4D5 JUMP JUMPDEST DUP4 DUP2 GT ISZERO PUSH2 0x4FF JUMPI PUSH1 0x0 DUP5 DUP5 ADD MSTORE JUMPDEST POP POP POP POP JUMP JUMPDEST PUSH2 0x50E DUP3 PUSH2 0x579 JUMP JUMPDEST DUP2 ADD DUP2 DUP2 LT PUSH8 0xFFFFFFFFFFFFFFFF DUP3 GT OR ISZERO PUSH2 0x52D JUMPI PUSH2 0x52C PUSH2 0x536 JUMP JUMPDEST JUMPDEST DUP1 PUSH1 0x40 MSTORE POP POP POP JUMP JUMPDEST PUSH32 0x4E487B7100000000000000000000000000000000000000000000000000000000 PUSH1 0x0 MSTORE PUSH1 0x41 PUSH1 0x4 MSTORE PUSH1 0x24 PUSH1 0x0 REVERT JUMPDEST PUSH1 0x0 DUP1 REVERT JUMPDEST PUSH1 0x0 DUP1 REVERT JUMPDEST PUSH1 0x0 DUP1 REVERT JUMPDEST PUSH1 0x0 DUP1 REVERT JUMPDEST PUSH1 0x0 PUSH1 0x1F NOT PUSH1 0x1F DUP4 ADD AND SWAP1 POP SWAP2 SWAP1 POP JUMP JUMPDEST PUSH2 0x593 DUP2 PUSH2 0x471 JUMP JUMPDEST DUP2 EQ PUSH2 0x59E JUMPI PUSH1 0x0 DUP1 REVERT JUMPDEST POP JUMP JUMPDEST PUSH2 0x5AA DUP2 PUSH2 0x48F JUMP JUMPDEST DUP2 EQ PUSH2 0x5B5 JUMPI PUSH1 0x0 DUP1 REVERT JUMPDEST POP JUMP JUMPDEST PUSH2 0x5C1 DUP2 PUSH2 0x4B9 JUMP JUMPDEST DUP2 EQ PUSH2 0x5CC JUMPI PUSH1 0x0 DUP1 REVERT JUMPDEST POP JUMP INVALID LOG2 PUSH5 0x6970667358 0x22 SLT KECCAK256 INVALID 0xB5 0xFB BYTE 0xAD SWAP9 GT SELFBALANCE 0xB2 0x28 0xC7 INVALID 0xD3 EXP 0xE9 DUP2 0xA6 KECCAK256 PUSH25 0xE23D78848FC76B63CB88ACD38F64736F6C6343000807003360 DUP1 PUSH1 0x40 MSTORE CALLVALUE DUP1 ISZERO PUSH2 0x10 JUMPI PUSH1 0x0 DUP1 REVERT JUMPDEST POP PUSH2 0x7A8 DUP1 PUSH2 0x20 PUSH1 0x0 CODECOPY PUSH1 0x0 RETURN INVALID PUSH1 0x80 PUSH1 0x40 MSTORE CALLVALUE DUP1 ISZERO PUSH2 0x10 JUMPI PUSH1 0x0 DUP1 REVERT JUMPDEST POP PUSH1 0x4 CALLDATASIZE LT PUSH2 0x4C JUMPI PUSH1 0x0 CALLDATALOAD PUSH1 0xE0 SHR DUP1 PUSH4 0x17FE2DA2 EQ PUSH2 0x51 JUMPI DUP1 PUSH4 0x33ECE6E9 EQ PUSH2 0x81 JUMPI DUP1 PUSH4 0x892E5D01 EQ PUSH2 0xB1 JUMPI DUP1 PUSH4 0xF20F1E9E EQ PUSH2 0xE1 JUMPI JUMPDEST PUSH1 0x0 DUP1 REVERT JUMPDEST PUSH2 0x6B PUSH1 0x4 DUP1 CALLDATASIZE SUB DUP2 ADD SWAP1 PUSH2 0x66 SWAP2 SWAP1 PUSH2 0x26F JUMP JUMPDEST PUSH2 0x111 JUMP JUMPDEST PUSH1 0x40 MLOAD PUSH2 0x78 SWAP2 SWAP1 PUSH2 0x4CC JUMP JUMPDEST PUSH1 0x40 MLOAD DUP1 SWAP2 SUB SWAP1 RETURN JUMPDEST PUSH2 0x9B PUSH1 0x4 DUP1 CALLDATASIZE SUB DUP2 ADD SWAP1 PUSH2 0x96 SWAP2 SWAP1 PUSH2 0x2E7 JUMP JUMPDEST PUSH2 0x13D JUMP JUMPDEST PUSH1 0x40 MLOAD PUSH2 0xA8 SWAP2 SWAP1 PUSH2 0x4B1 JUMP JUMPDEST PUSH1 0x40 MLOAD DUP1 SWAP2 SUB SWAP1 RETURN JUMPDEST PUSH2 0xCB PUSH1 0x4 DUP1 CALLDATASIZE SUB DUP2 ADD SWAP1 PUSH2 0xC6 SWAP2 SWAP1 PUSH2 0x26F JUMP JUMPDEST PUSH2 0x173 JUMP JUMPDEST PUSH1 0x40 MLOAD PUSH2 0xD8 SWAP2 SWAP1 PUSH2 0x4CC JUMP JUMPDEST PUSH1 0x40 MLOAD DUP1 SWAP2 SUB SWAP1 RETURN JUMPDEST PUSH2 0xFB PUSH1 0x4 DUP1 CALLDATASIZE SUB DUP2 ADD SWAP1 PUSH2 0xF6 SWAP2 SWAP1 PUSH2 0x2E7 JUMP JUMPDEST PUSH2 0x19F JUMP JUMPDEST PUSH1 0x40 MLOAD PUSH2 0x108 SWAP2 SWAP1 PUSH2 0x4B1 JUMP JUMPDEST PUSH1 0x40 MLOAD DUP1 SWAP2 SUB SWAP1 RETURN JUMPDEST PUSH1 0x60 DUP3 DUP3 PUSH1 0x40 MLOAD PUSH1 0x20 ADD PUSH2 0x126 SWAP3 SWAP2 SWAP1 PUSH2 0x4EE JUMP JUMPDEST PUSH1 0x40 MLOAD PUSH1 0x20 DUP2 DUP4 SUB SUB DUP2 MSTORE SWAP1 PUSH1 0x40 MSTORE SWAP1 POP SWAP3 SWAP2 POP POP JUMP JUMPDEST PUSH1 0x0 DUP4 DUP4 DUP4 PUSH1 0x40 MLOAD PUSH1 0x20 ADD PUSH2 0x154 SWAP4 SWAP3 SWAP2 SWAP1 PUSH2 0x478 JUMP JUMPDEST PUSH1 0x40 MLOAD PUSH1 0x20 DUP2 DUP4 SUB SUB DUP2 MSTORE SWAP1 PUSH1 0x40 MSTORE DUP1 MLOAD SWAP1 PUSH1 0x20 ADD KECCAK256 SWAP1 POP SWAP4 SWAP3 POP POP POP JUMP JUMPDEST PUSH1 0x60 DUP3 DUP3 PUSH1 0x40 MLOAD PUSH1 0x20 ADD PUSH2 0x188 SWAP3 SWAP2 SWAP1 PUSH2 0x454 JUMP JUMPDEST PUSH1 0x40 MLOAD PUSH1 0x20 DUP2 DUP4 SUB SUB DUP2 MSTORE SWAP1 PUSH1 0x40 MSTORE SWAP1 POP SWAP3 SWAP2 POP POP JUMP JUMPDEST PUSH1 0x0 DUP4 DUP4 DUP4 PUSH1 0x40 MLOAD PUSH1 0x20 ADD PUSH2 0x1B6 SWAP4 SWAP3 SWAP2 SWAP1 PUSH2 0x525 JUMP JUMPDEST PUSH1 0x40 MLOAD PUSH1 0x20 DUP2 DUP4 SUB SUB DUP2 MSTORE SWAP1 PUSH1 0x40 MSTORE DUP1 MLOAD SWAP1 PUSH1 0x20 ADD KECCAK256 SWAP1 POP SWAP4 SWAP3 POP POP POP JUMP JUMPDEST PUSH1 0x0 PUSH2 0x1E8 PUSH2 0x1E3 DUP5 PUSH2 0x588 JUMP JUMPDEST PUSH2 0x563 JUMP JUMPDEST SWAP1 POP DUP3 DUP2 MSTORE PUSH1 0x20 DUP2 ADD DUP5 DUP5 DUP5 ADD GT ISZERO PUSH2 0x204 JUMPI PUSH2 0x203 PUSH2 0x717 JUMP JUMPDEST JUMPDEST PUSH2 0x20F DUP5 DUP3 DUP6 PUSH2 0x642 JUMP JUMPDEST POP SWAP4 SWAP3 POP POP POP JUMP JUMPDEST PUSH1 0x0 DUP2 CALLDATALOAD SWAP1 POP PUSH2 0x226 DUP2 PUSH2 0x744 JUMP JUMPDEST SWAP3 SWAP2 POP POP JUMP JUMPDEST PUSH1 0x0 DUP3 PUSH1 0x1F DUP4 ADD SLT PUSH2 0x241 JUMPI PUSH2 0x240 PUSH2 0x712 JUMP JUMPDEST JUMPDEST DUP2 CALLDATALOAD PUSH2 0x251 DUP5 DUP3 PUSH1 0x20 DUP7 ADD PUSH2 0x1D5 JUMP JUMPDEST SWAP2 POP POP SWAP3 SWAP2 POP POP JUMP JUMPDEST PUSH1 0x0 DUP2 CALLDATALOAD SWAP1 POP PUSH2 0x269 DUP2 PUSH2 0x75B JUMP JUMPDEST SWAP3 SWAP2 POP POP JUMP JUMPDEST PUSH1 0x0 DUP1 PUSH1 0x40 DUP4 DUP6 SUB SLT ISZERO PUSH2 0x286 JUMPI PUSH2 0x285 PUSH2 0x721 JUMP JUMPDEST JUMPDEST PUSH1 0x0 DUP4 ADD CALLDATALOAD PUSH8 0xFFFFFFFFFFFFFFFF DUP2 GT ISZERO PUSH2 0x2A4 JUMPI PUSH2 0x2A3 PUSH2 0x71C JUMP JUMPDEST JUMPDEST PUSH2 0x2B0 DUP6 DUP3 DUP7 ADD PUSH2 0x22C JUMP JUMPDEST SWAP3 POP POP PUSH1 0x20 DUP4 ADD CALLDATALOAD PUSH8 0xFFFFFFFFFFFFFFFF DUP2 GT ISZERO PUSH2 0x2D1 JUMPI PUSH2 0x2D0 PUSH2 0x71C JUMP JUMPDEST JUMPDEST PUSH2 0x2DD DUP6 DUP3 DUP7 ADD PUSH2 0x22C JUMP JUMPDEST SWAP2 POP POP SWAP3 POP SWAP3 SWAP1 POP JUMP JUMPDEST PUSH1 0x0 DUP1 PUSH1 0x0 PUSH1 0x60 DUP5 DUP7 SUB SLT ISZERO PUSH2 0x300 JUMPI PUSH2 0x2FF PUSH2 0x721 JUMP JUMPDEST JUMPDEST PUSH1 0x0 DUP5 ADD CALLDATALOAD PUSH8 0xFFFFFFFFFFFFFFFF DUP2 GT ISZERO PUSH2 0x31E JUMPI PUSH2 0x31D PUSH2 0x71C JUMP JUMPDEST JUMPDEST PUSH2 0x32A DUP7 DUP3 DUP8 ADD PUSH2 0x22C JUMP JUMPDEST SWAP4 POP POP PUSH1 0x20 PUSH2 0x33B DUP7 DUP3 DUP8 ADD PUSH2 0x25A JUMP JUMPDEST SWAP3 POP POP PUSH1 0x40 PUSH2 0x34C DUP7 DUP3 DUP8 ADD PUSH2 0x217 JUMP JUMPDEST SWAP2 POP POP SWAP3 POP SWAP3 POP SWAP3 JUMP JUMPDEST PUSH2 0x35F DUP2 PUSH2 0x5FC JUMP JUMPDEST DUP3 MSTORE POP POP JUMP JUMPDEST PUSH2 0x376 PUSH2 0x371 DUP3 PUSH2 0x5FC JUMP JUMPDEST PUSH2 0x6B5 JUMP JUMPDEST DUP3 MSTORE POP POP JUMP JUMPDEST PUSH2 0x385 DUP2 PUSH2 0x60E JUMP JUMPDEST DUP3 MSTORE POP POP JUMP JUMPDEST PUSH1 0x0 PUSH2 0x396 DUP3 PUSH2 0x5B9 JUMP JUMPDEST PUSH2 0x3A0 DUP2 DUP6 PUSH2 0x5CF JUMP JUMPDEST SWAP4 POP PUSH2 0x3B0 DUP2 DUP6 PUSH1 0x20 DUP7 ADD PUSH2 0x651 JUMP JUMPDEST PUSH2 0x3B9 DUP2 PUSH2 0x726 JUMP JUMPDEST DUP5 ADD SWAP2 POP POP SWAP3 SWAP2 POP POP JUMP JUMPDEST PUSH1 0x0 PUSH2 0x3CF DUP3 PUSH2 0x5C4 JUMP JUMPDEST PUSH2 0x3D9 DUP2 DUP6 PUSH2 0x5E0 JUMP JUMPDEST SWAP4 POP PUSH2 0x3E9 DUP2 DUP6 PUSH1 0x20 DUP7 ADD PUSH2 0x651 JUMP JUMPDEST PUSH2 0x3F2 DUP2 PUSH2 0x726 JUMP JUMPDEST DUP5 ADD SWAP2 POP POP SWAP3 SWAP2 POP POP JUMP JUMPDEST PUSH1 0x0 PUSH2 0x408 DUP3 PUSH2 0x5C4 JUMP JUMPDEST PUSH2 0x412 DUP2 DUP6 PUSH2 0x5F1 JUMP JUMPDEST SWAP4 POP PUSH2 0x422 DUP2 DUP6 PUSH1 0x20 DUP7 ADD PUSH2 0x651 JUMP JUMPDEST DUP1 DUP5 ADD SWAP2 POP POP SWAP3 SWAP2 POP POP JUMP JUMPDEST PUSH2 0x437 DUP2 PUSH2 0x638 JUMP JUMPDEST DUP3 MSTORE POP POP JUMP JUMPDEST PUSH2 0x44E PUSH2 0x449 DUP3 PUSH2 0x638 JUMP JUMPDEST PUSH2 0x6D9 JUMP JUMPDEST DUP3 MSTORE POP POP JUMP JUMPDEST PUSH1 0x0 PUSH2 0x460 DUP3 DUP6 PUSH2 0x3FD JUMP JUMPDEST SWAP2 POP PUSH2 0x46C DUP3 DUP5 PUSH2 0x3FD JUMP JUMPDEST SWAP2 POP DUP2 SWAP1 POP SWAP4 SWAP3 POP POP POP JUMP JUMPDEST PUSH1 0x0 PUSH2 0x484 DUP3 DUP7 PUSH2 0x3FD JUMP JUMPDEST SWAP2 POP PUSH2 0x490 DUP3 DUP6 PUSH2 0x43D JUMP JUMPDEST PUSH1 0x20 DUP3 ADD SWAP2 POP PUSH2 0x4A0 DUP3 DUP5 PUSH2 0x365 JUMP JUMPDEST PUSH1 0x14 DUP3 ADD SWAP2 POP DUP2 SWAP1 POP SWAP5 SWAP4 POP POP POP POP JUMP JUMPDEST PUSH1 0x0 PUSH1 0x20 DUP3 ADD SWAP1 POP PUSH2 0x4C6 PUSH1 0x0 DUP4 ADD DUP5 PUSH2 0x37C JUMP JUMPDEST SWAP3 SWAP2 POP POP JUMP JUMPDEST PUSH1 0x0 PUSH1 0x20 DUP3 ADD SWAP1 POP DUP2 DUP2 SUB PUSH1 0x0 DUP4 ADD MSTORE PUSH2 0x4E6 DUP2 DUP5 PUSH2 0x38B JUMP JUMPDEST SWAP1 POP SWAP3 SWAP2 POP POP JUMP JUMPDEST PUSH1 0x0 PUSH1 0x40 DUP3 ADD SWAP1 POP DUP2 DUP2 SUB PUSH1 0x0 DUP4 ADD MSTORE PUSH2 0x508 DUP2 DUP6 PUSH2 0x3C4 JUMP JUMPDEST SWAP1 POP DUP2 DUP2 SUB PUSH1 0x20 DUP4 ADD MSTORE PUSH2 0x51C DUP2 DUP5 PUSH2 0x3C4 JUMP JUMPDEST SWAP1 POP SWAP4 SWAP3 POP POP POP JUMP JUMPDEST PUSH1 0x0 PUSH1 0x60 DUP3 ADD SWAP1 POP DUP2 DUP2 SUB PUSH1 0x0 DUP4 ADD MSTORE PUSH2 0x53F DUP2 DUP7 PUSH2 0x3C4 JUMP JUMPDEST SWAP1 POP PUSH2 0x54E PUSH1 0x20 DUP4 ADD DUP6 PUSH2 0x42E JUMP JUMPDEST PUSH2 0x55B PUSH1 0x40 DUP4 ADD DUP5 PUSH2 0x356 JUMP JUMPDEST SWAP5 SWAP4 POP POP POP POP JUMP JUMPDEST PUSH1 0x0 PUSH2 0x56D PUSH2 0x57E JUMP JUMPDEST SWAP1 POP PUSH2 0x579 DUP3 DUP3 PUSH2 0x684 JUMP JUMPDEST SWAP2 SWAP1 POP JUMP JUMPDEST PUSH1 0x0 PUSH1 0x40 MLOAD SWAP1 POP SWAP1 JUMP JUMPDEST PUSH1 0x0 PUSH8 0xFFFFFFFFFFFFFFFF DUP3 GT ISZERO PUSH2 0x5A3 JUMPI PUSH2 0x5A2 PUSH2 0x6E3 JUMP JUMPDEST JUMPDEST PUSH2 0x5AC DUP3 PUSH2 0x726 JUMP JUMPDEST SWAP1 POP PUSH1 0x20 DUP2 ADD SWAP1 POP SWAP2 SWAP1 POP JUMP JUMPDEST PUSH1 0x0 DUP2 MLOAD SWAP1 POP SWAP2 SWAP1 POP JUMP JUMPDEST PUSH1 0x0 DUP2 MLOAD SWAP1 POP SWAP2 SWAP1 POP JUMP JUMPDEST PUSH1 0x0 DUP3 DUP3 MSTORE PUSH1 0x20 DUP3 ADD SWAP1 POP SWAP3 SWAP2 POP POP JUMP JUMPDEST PUSH1 0x0 DUP3 DUP3 MSTORE PUSH1 0x20 DUP3 ADD SWAP1 POP SWAP3 SWAP2 POP POP JUMP JUMPDEST PUSH1 0x0 DUP2 SWAP1 POP SWAP3 SWAP2 POP POP JUMP JUMPDEST PUSH1 0x0 PUSH2 0x607 DUP3 PUSH2 0x618 JUMP JUMPDEST SWAP1 POP SWAP2 SWAP1 POP JUMP JUMPDEST PUSH1 0x0 DUP2 SWAP1 POP SWAP2 SWAP1 POP JUMP JUMPDEST PUSH1 0x0 PUSH20 0xFFFFFFFFFFFFFFFFFFFFFFFFFFFFFFFFFFFFFFFF DUP3 AND SWAP1 POP SWAP2 SWAP1 POP JUMP JUMPDEST PUSH1 0x0 DUP2 SWAP1 POP SWAP2 SWAP1 POP JUMP JUMPDEST DUP3 DUP2 DUP4 CALLDATACOPY PUSH1 0x0 DUP4 DUP4 ADD MSTORE POP POP POP JUMP JUMPDEST PUSH1 0x0 JUMPDEST DUP4 DUP2 LT ISZERO PUSH2 0x66F JUMPI DUP1 DUP3 ADD MLOAD DUP2 DUP5 ADD MSTORE PUSH1 0x20 DUP2 ADD SWAP1 POP PUSH2 0x654 JUMP JUMPDEST DUP4 DUP2 GT ISZERO PUSH2 0x67E JUMPI PUSH1 0x0 DUP5 DUP5 ADD MSTORE JUMPDEST POP POP POP POP JUMP JUMPDEST PUSH2 0x68D DUP3 PUSH2 0x726 JUMP JUMPDEST DUP2 ADD DUP2 DUP2 LT PUSH8 0xFFFFFFFFFFFFFFFF DUP3 GT OR ISZERO PUSH2 0x6AC JUMPI PUSH2 0x6AB PUSH2 0x6E3 JUMP JUMPDEST JUMPDEST DUP1 PUSH1 0x40 MSTORE POP POP POP JUMP JUMPDEST PUSH1 0x0 PUSH2 0x6C0 DUP3 PUSH2 0x6C7 JUMP JUMPDEST SWAP1 POP SWAP2 SWAP1 POP JUMP JUMPDEST PUSH1 0x0 PUSH2 0x6D2 DUP3 PUSH2 0x737 JUMP JUMPDEST SWAP1 POP SWAP2 SWAP1 POP JUMP JUMPDEST PUSH1 0x0 DUP2 SWAP1 POP SWAP2 SWAP1 POP JUMP JUMPDEST PUSH32 0x4E487B7100000000000000000000000000000000000000000000000000000000 PUSH1 0x0 MSTORE PUSH1 0x41 PUSH1 0x4 MSTORE PUSH1 0x24 PUSH1 0x0 REVERT JUMPDEST PUSH1 0x0 DUP1 REVERT JUMPDEST PUSH1 0x0 DUP1 REVERT JUMPDEST PUSH1 0x0 DUP1 REVERT JUMPDEST PUSH1 0x0 DUP1 REVERT JUMPDEST PUSH1 0x0 PUSH1 0x1F NOT PUSH1 0x1F DUP4 ADD AND SWAP1 POP SWAP2 SWAP1 POP JUMP JUMPDEST PUSH1 0x0 DUP2 PUSH1 0x60 SHL SWAP1 POP SWAP2 SWAP1 POP JUMP JUMPDEST PUSH2 0x74D DUP2 PUSH2 0x5FC JUMP JUMPDEST DUP2 EQ PUSH2 0x758 JUMPI PUSH1 0x0 DUP1 REVERT JUMPDEST POP JUMP JUMPDEST PUSH2 0x764 DUP2 PUSH2 0x638 JUMP JUMPDEST DUP2 EQ PUSH2 0x76F JUMPI PUSH1 0x0 DUP1 REVERT JUMPDEST POP JUMP INVALID LOG2 PUSH5 0x6970667358 0x22 SLT KECCAK256 0xD2 0xC 0xAC MSTORE8 LOG4 0x2A PUSH15 0xB15A2A38B46E7A0C807582E9358C1A 0x29 SWAP13 PUSH19 0x2C7D010F27E7FB64736F6C6343000807003300 "
				},
				"gasEstimates": {
					"creation": {
						"codeDepositCost": "308200",
						"executionCost": "infinite",
						"totalCost": "infinite"
					},
					"external": {
						"importDemo1(string,uint256,address)": "infinite",
						"importDemo2(address)": "3315"
					}
				},
				"methodIdentifiers": {
					"importDemo1(string,uint256,address)": "0bd629ff",
					"importDemo2(address)": "23d9432e"
				}
			},
			"storageLayout": {
				"storage": [
					{
						"astId": 89,
						"contract": "ImportContract.sol:A",
						"label": "hash",
						"offset": 0,
						"slot": "0",
						"type": "t_contract(HashFunction)76"
					}
				],
				"types": {
					"t_contract(HashFunction)76": {
						"encoding": "inplace",
						"label": "contract HashFunction",
						"numberOfBytes": "20"
					}
				}
			},
			"userdoc": {
				"kind": "user",
				"methods": {},
				"version": 1
			}
		}
	}
}