{
	"ArrayTest4.sol": {
		"Array4": {
			"abi": [
				{
					"inputs": [
						{
							"internalType": "uint256",
							"name": "",
							"type": "uint256"
						}
					],
					"name": "numbers",
					"outputs": [
						{
							"internalType": "uint256",
							"name": "",
							"type": "uint256"
						}
					],
					"stateMutability": "view",
					"type": "function"
				},
				{
					"inputs": [
						{
							"internalType": "uint256",
							"name": "index",
							"type": "uint256"
						}
					],
					"name": "remove1",
					"outputs": [],
					"stateMutability": "nonpayable",
					"type": "function"
				},
				{
					"inputs": [
						{
							"internalType": "uint256",
							"name": "index",
							"type": "uint256"
						}
					],
					"name": "remove2",
					"outputs": [],
					"stateMutability": "nonpayable",
					"type": "function"
				},
				{
					"inputs": [],
					"name": "test1",
					"outputs": [],
					"stateMutability": "nonpayable",
					"type": "function"
				},
				{
					"inputs": [],
					"name": "test2",
					"outputs": [],
					"stateMutability": "nonpayable",
					"type": "function"
				}
			],
			"devdoc": {
				"kind": "dev",
				"methods": {},
				"version": 1
			},
			"evm": {
				"assembly": "    /* \"ArrayTest4.sol\":75:1927  contract Array4{... */\n  mstore(0x40, 0x80)\n  callvalue\n  dup1\n  iszero\n  tag_1\n  jumpi\n  0x00\n  dup1\n  revert\ntag_1:\n  pop\n  dataSize(sub_0)\n  dup1\n  dataOffset(sub_0)\n  0x00\n  codecopy\n  0x00\n  return\nstop\n\nsub_0: assembly {\n        /* \"ArrayTest4.sol\":75:1927  contract Array4{... */\n      mstore(0x40, 0x80)\n      callvalue\n      dup1\n      iszero\n      tag_1\n      jumpi\n      0x00\n      dup1\n      revert\n    tag_1:\n      pop\n      jumpi(tag_2, lt(calldatasize, 0x04))\n      shr(0xe0, calldataload(0x00))\n      dup1\n      0x66e41cb7\n      eq\n      tag_3\n      jumpi\n      dup1\n      0x670ea637\n      eq\n      tag_4\n      jumpi\n      dup1\n      0x6b59084d\n      eq\n      tag_5\n      jumpi\n      dup1\n      0xd39fa233\n      eq\n      tag_6\n      jumpi\n      dup1\n      0xe91e5843\n      eq\n      tag_7\n      jumpi\n    tag_2:\n      0x00\n      dup1\n      revert\n        /* \"ArrayTest4.sol\":1635:1920  function test2() external{... */\n    tag_3:\n      tag_8\n      tag_9\n      jump\t// in\n    tag_8:\n      stop\n        /* \"ArrayTest4.sol\":738:981  function remove1(uint index) public{... */\n    tag_4:\n      tag_10\n      0x04\n      dup1\n      calldatasize\n      sub\n      dup2\n      add\n      swap1\n      tag_11\n      swap2\n      swap1\n      tag_12\n      jump\t// in\n    tag_11:\n      tag_13\n      jump\t// in\n    tag_10:\n      stop\n        /* \"ArrayTest4.sol\":1356:1629  function test1() external{... */\n    tag_5:\n      tag_14\n      tag_15\n      jump\t// in\n    tag_14:\n      stop\n        /* \"ArrayTest4.sol\":101:122  uint[] public numbers */\n    tag_6:\n      tag_16\n      0x04\n      dup1\n      calldatasize\n      sub\n      dup2\n      add\n      swap1\n      tag_17\n      swap2\n      swap1\n      tag_12\n      jump\t// in\n    tag_17:\n      tag_18\n      jump\t// in\n    tag_16:\n      mload(0x40)\n      tag_19\n      swap2\n      swap1\n      tag_20\n      jump\t// in\n    tag_19:\n      mload(0x40)\n      dup1\n      swap2\n      sub\n      swap1\n      return\n        /* \"ArrayTest4.sol\":1037:1350  function remove2(uint index) public{... */\n    tag_7:\n      tag_21\n      0x04\n      dup1\n      calldatasize\n      sub\n      dup2\n      add\n      swap1\n      tag_22\n      swap2\n      swap1\n      tag_12\n      jump\t// in\n    tag_22:\n      tag_23\n      jump\t// in\n    tag_21:\n      stop\n        /* \"ArrayTest4.sol\":1635:1920  function test2() external{... */\n    tag_9:\n        /* \"ArrayTest4.sol\":1670:1691  numbers = [1,2,3,4,5] */\n      mload(0x40)\n      dup1\n      0xa0\n      add\n      0x40\n      mstore\n      dup1\n        /* \"ArrayTest4.sol\":1681:1682  1 */\n      0x01\n        /* \"ArrayTest4.sol\":1670:1691  numbers = [1,2,3,4,5] */\n      0xff\n      and\n      dup2\n      mstore\n      0x20\n      add\n        /* \"ArrayTest4.sol\":1683:1684  2 */\n      0x02\n        /* \"ArrayTest4.sol\":1670:1691  numbers = [1,2,3,4,5] */\n      0xff\n      and\n      dup2\n      mstore\n      0x20\n      add\n        /* \"ArrayTest4.sol\":1685:1686  3 */\n      0x03\n        /* \"ArrayTest4.sol\":1670:1691  numbers = [1,2,3,4,5] */\n      0xff\n      and\n      dup2\n      mstore\n      0x20\n      add\n        /* \"ArrayTest4.sol\":1687:1688  4 */\n      0x04\n        /* \"ArrayTest4.sol\":1670:1691  numbers = [1,2,3,4,5] */\n      0xff\n      and\n      dup2\n      mstore\n      0x20\n      add\n        /* \"ArrayTest4.sol\":1689:1690  5 */\n      0x05\n        /* \"ArrayTest4.sol\":1670:1691  numbers = [1,2,3,4,5] */\n      0xff\n      and\n      dup2\n      mstore\n      pop\n        /* \"ArrayTest4.sol\":1670:1677  numbers */\n      0x00\n        /* \"ArrayTest4.sol\":1670:1691  numbers = [1,2,3,4,5] */\n      swap1\n      0x05\n      tag_25\n      swap3\n      swap2\n      swap1\n      tag_26\n      jump\t// in\n    tag_25:\n      pop\n        /* \"ArrayTest4.sol\":1701:1711  remove2(2) */\n      tag_27\n        /* \"ArrayTest4.sol\":1709:1710  2 */\n      0x02\n        /* \"ArrayTest4.sol\":1701:1708  remove2 */\n      tag_23\n        /* \"ArrayTest4.sol\":1701:1711  remove2(2) */\n      jump\t// in\n    tag_27:\n        /* \"ArrayTest4.sol\":1767:1768  4 */\n      0x04\n        /* \"ArrayTest4.sol\":1749:1756  numbers */\n      0x00\n        /* \"ArrayTest4.sol\":1749:1763  numbers.length */\n      dup1\n      sload\n      swap1\n      pop\n        /* \"ArrayTest4.sol\":1749:1768  numbers.length == 4 */\n      eq\n        /* \"ArrayTest4.sol\":1742:1769  assert(numbers.length == 4) */\n      tag_28\n      jumpi\n      tag_29\n      tag_30\n      jump\t// in\n    tag_29:\n    tag_28:\n        /* \"ArrayTest4.sol\":1635:1920  function test2() external{... */\n      jump\t// out\n        /* \"ArrayTest4.sol\":738:981  function remove1(uint index) public{... */\n    tag_13:\n        /* \"ArrayTest4.sol\":783:794  uint length */\n      0x00\n        /* \"ArrayTest4.sol\":797:804  numbers */\n      dup1\n        /* \"ArrayTest4.sol\":797:811  numbers.length */\n      dup1\n      sload\n      swap1\n      pop\n        /* \"ArrayTest4.sol\":783:811  uint length = numbers.length */\n      swap1\n      pop\n        /* \"ArrayTest4.sol\":842:843  1 */\n      0x01\n        /* \"ArrayTest4.sol\":833:839  length */\n      dup2\n        /* \"ArrayTest4.sol\":833:843  length - 1 */\n      tag_32\n      swap2\n      swap1\n      tag_33\n      jump\t// in\n    tag_32:\n        /* \"ArrayTest4.sol\":824:829  index */\n      dup3\n        /* \"ArrayTest4.sol\":824:843  index == length - 1 */\n      sub\n        /* \"ArrayTest4.sol\":821:975  if(index == length - 1){... */\n      tag_34\n      jumpi\n        /* \"ArrayTest4.sol\":858:865  numbers */\n      0x00\n        /* \"ArrayTest4.sol\":858:871  numbers.pop() */\n      dup1\n      sload\n      dup1\n      tag_35\n      jumpi\n      tag_36\n      tag_37\n      jump\t// in\n    tag_36:\n    tag_35:\n      0x01\n      swap1\n      sub\n      dup2\n      dup2\n      swap1\n      0x00\n      mstore\n      keccak256(0x00, 0x20)\n      add\n      0x00\n      swap1\n      sstore\n      swap1\n      sstore\n        /* \"ArrayTest4.sol\":821:975  if(index == length - 1){... */\n      jump(tag_39)\n    tag_34:\n        /* \"ArrayTest4.sol\":918:925  numbers */\n      0x00\n        /* \"ArrayTest4.sol\":935:936  1 */\n      0x01\n        /* \"ArrayTest4.sol\":926:932  length */\n      dup3\n        /* \"ArrayTest4.sol\":926:936  length - 1 */\n      tag_40\n      swap2\n      swap1\n      tag_33\n      jump\t// in\n    tag_40:\n        /* \"ArrayTest4.sol\":918:937  numbers[length - 1] */\n      dup2\n      sload\n      dup2\n      lt\n      tag_41\n      jumpi\n      tag_42\n      tag_43\n      jump\t// in\n    tag_42:\n    tag_41:\n      swap1\n      0x00\n      mstore\n      keccak256(0x00, 0x20)\n      add\n      sload\n        /* \"ArrayTest4.sol\":901:908  numbers */\n      0x00\n        /* \"ArrayTest4.sol\":909:914  index */\n      dup4\n        /* \"ArrayTest4.sol\":901:915  numbers[index] */\n      dup2\n      sload\n      dup2\n      lt\n      tag_45\n      jumpi\n      tag_46\n      tag_43\n      jump\t// in\n    tag_46:\n    tag_45:\n      swap1\n      0x00\n      mstore\n      keccak256(0x00, 0x20)\n      add\n        /* \"ArrayTest4.sol\":901:937  numbers[index] = numbers[length - 1] */\n      dup2\n      swap1\n      sstore\n      pop\n        /* \"ArrayTest4.sol\":951:958  numbers */\n      0x00\n        /* \"ArrayTest4.sol\":951:964  numbers.pop() */\n      dup1\n      sload\n      dup1\n      tag_48\n      jumpi\n      tag_49\n      tag_37\n      jump\t// in\n    tag_49:\n    tag_48:\n      0x01\n      swap1\n      sub\n      dup2\n      dup2\n      swap1\n      0x00\n      mstore\n      keccak256(0x00, 0x20)\n      add\n      0x00\n      swap1\n      sstore\n      swap1\n      sstore\n        /* \"ArrayTest4.sol\":821:975  if(index == length - 1){... */\n    tag_39:\n        /* \"ArrayTest4.sol\":773:981  {... */\n      pop\n        /* \"ArrayTest4.sol\":738:981  function remove1(uint index) public{... */\n      pop\n      jump\t// out\n        /* \"ArrayTest4.sol\":1356:1629  function test1() external{... */\n    tag_15:\n        /* \"ArrayTest4.sol\":1391:1412  numbers = [1,2,3,4,5] */\n      mload(0x40)\n      dup1\n      0xa0\n      add\n      0x40\n      mstore\n      dup1\n        /* \"ArrayTest4.sol\":1402:1403  1 */\n      0x01\n        /* \"ArrayTest4.sol\":1391:1412  numbers = [1,2,3,4,5] */\n      0xff\n      and\n      dup2\n      mstore\n      0x20\n      add\n        /* \"ArrayTest4.sol\":1404:1405  2 */\n      0x02\n        /* \"ArrayTest4.sol\":1391:1412  numbers = [1,2,3,4,5] */\n      0xff\n      and\n      dup2\n      mstore\n      0x20\n      add\n        /* \"ArrayTest4.sol\":1406:1407  3 */\n      0x03\n        /* \"ArrayTest4.sol\":1391:1412  numbers = [1,2,3,4,5] */\n      0xff\n      and\n      dup2\n      mstore\n      0x20\n      add\n        /* \"ArrayTest4.sol\":1408:1409  4 */\n      0x04\n        /* \"ArrayTest4.sol\":1391:1412  numbers = [1,2,3,4,5] */\n      0xff\n      and\n      dup2\n      mstore\n      0x20\n      add\n        /* \"ArrayTest4.sol\":1410:1411  5 */\n      0x05\n        /* \"ArrayTest4.sol\":1391:1412  numbers = [1,2,3,4,5] */\n      0xff\n      and\n      dup2\n      mstore\n      pop\n        /* \"ArrayTest4.sol\":1391:1398  numbers */\n      0x00\n        /* \"ArrayTest4.sol\":1391:1412  numbers = [1,2,3,4,5] */\n      swap1\n      0x05\n      tag_52\n      swap3\n      swap2\n      swap1\n      tag_26\n      jump\t// in\n    tag_52:\n      pop\n        /* \"ArrayTest4.sol\":1422:1432  remove1(2) */\n      tag_53\n        /* \"ArrayTest4.sol\":1430:1431  2 */\n      0x02\n        /* \"ArrayTest4.sol\":1422:1429  remove1 */\n      tag_13\n        /* \"ArrayTest4.sol\":1422:1432  remove1(2) */\n      jump\t// in\n    tag_53:\n        /* \"ArrayTest4.sol\":1488:1489  4 */\n      0x04\n        /* \"ArrayTest4.sol\":1470:1477  numbers */\n      0x00\n        /* \"ArrayTest4.sol\":1470:1484  numbers.length */\n      dup1\n      sload\n      swap1\n      pop\n        /* \"ArrayTest4.sol\":1470:1489  numbers.length == 4 */\n      eq\n        /* \"ArrayTest4.sol\":1463:1490  assert(numbers.length == 4) */\n      tag_54\n      jumpi\n      tag_55\n      tag_30\n      jump\t// in\n    tag_55:\n    tag_54:\n        /* \"ArrayTest4.sol\":1521:1522  1 */\n      0x01\n        /* \"ArrayTest4.sol\":1507:1514  numbers */\n      0x00\n        /* \"ArrayTest4.sol\":1515:1516  0 */\n      dup1\n        /* \"ArrayTest4.sol\":1507:1517  numbers[0] */\n      dup2\n      sload\n      dup2\n      lt\n      tag_56\n      jumpi\n      tag_57\n      tag_43\n      jump\t// in\n    tag_57:\n    tag_56:\n      swap1\n      0x00\n      mstore\n      keccak256(0x00, 0x20)\n      add\n      sload\n        /* \"ArrayTest4.sol\":1507:1522  numbers[0] == 1 */\n      eq\n        /* \"ArrayTest4.sol\":1500:1523  assert(numbers[0] == 1) */\n      tag_59\n      jumpi\n      tag_60\n      tag_30\n      jump\t// in\n    tag_60:\n    tag_59:\n        /* \"ArrayTest4.sol\":1554:1555  2 */\n      0x02\n        /* \"ArrayTest4.sol\":1540:1547  numbers */\n      0x00\n        /* \"ArrayTest4.sol\":1548:1549  1 */\n      0x01\n        /* \"ArrayTest4.sol\":1540:1550  numbers[1] */\n      dup2\n      sload\n      dup2\n      lt\n      tag_61\n      jumpi\n      tag_62\n      tag_43\n      jump\t// in\n    tag_62:\n    tag_61:\n      swap1\n      0x00\n      mstore\n      keccak256(0x00, 0x20)\n      add\n      sload\n        /* \"ArrayTest4.sol\":1540:1555  numbers[1] == 2 */\n      eq\n        /* \"ArrayTest4.sol\":1533:1556  assert(numbers[1] == 2) */\n      tag_64\n      jumpi\n      tag_65\n      tag_30\n      jump\t// in\n    tag_65:\n    tag_64:\n        /* \"ArrayTest4.sol\":1587:1588  5 */\n      0x05\n        /* \"ArrayTest4.sol\":1573:1580  numbers */\n      0x00\n        /* \"ArrayTest4.sol\":1581:1582  2 */\n      0x02\n        /* \"ArrayTest4.sol\":1573:1583  numbers[2] */\n      dup2\n      sload\n      dup2\n      lt\n      tag_66\n      jumpi\n      tag_67\n      tag_43\n      jump\t// in\n    tag_67:\n    tag_66:\n      swap1\n      0x00\n      mstore\n      keccak256(0x00, 0x20)\n      add\n      sload\n        /* \"ArrayTest4.sol\":1573:1588  numbers[2] == 5 */\n      eq\n        /* \"ArrayTest4.sol\":1566:1589  assert(numbers[2] == 5) */\n      tag_69\n      jumpi\n      tag_70\n      tag_30\n      jump\t// in\n    tag_70:\n    tag_69:\n        /* \"ArrayTest4.sol\":1620:1621  4 */\n      0x04\n        /* \"ArrayTest4.sol\":1606:1613  numbers */\n      0x00\n        /* \"ArrayTest4.sol\":1614:1615  3 */\n      0x03\n        /* \"ArrayTest4.sol\":1606:1616  numbers[3] */\n      dup2\n      sload\n      dup2\n      lt\n      tag_71\n      jumpi\n      tag_72\n      tag_43\n      jump\t// in\n    tag_72:\n    tag_71:\n      swap1\n      0x00\n      mstore\n      keccak256(0x00, 0x20)\n      add\n      sload\n        /* \"ArrayTest4.sol\":1606:1621  numbers[3] == 4 */\n      eq\n        /* \"ArrayTest4.sol\":1599:1622  assert(numbers[3] == 4) */\n      tag_74\n      jumpi\n      tag_75\n      tag_30\n      jump\t// in\n    tag_75:\n    tag_74:\n        /* \"ArrayTest4.sol\":1356:1629  function test1() external{... */\n      jump\t// out\n        /* \"ArrayTest4.sol\":101:122  uint[] public numbers */\n    tag_18:\n      0x00\n      dup2\n      dup2\n      sload\n      dup2\n      lt\n      tag_76\n      jumpi\n      0x00\n      dup1\n      revert\n    tag_76:\n      swap1\n      0x00\n      mstore\n      keccak256(0x00, 0x20)\n      add\n      0x00\n      swap2\n      pop\n      swap1\n      pop\n      sload\n      dup2\n      jump\t// out\n        /* \"ArrayTest4.sol\":1037:1350  function remove2(uint index) public{... */\n    tag_23:\n        /* \"ArrayTest4.sol\":1082:1093  uint length */\n      0x00\n        /* \"ArrayTest4.sol\":1096:1103  numbers */\n      dup1\n        /* \"ArrayTest4.sol\":1096:1110  numbers.length */\n      dup1\n      sload\n      swap1\n      pop\n        /* \"ArrayTest4.sol\":1082:1110  uint length = numbers.length */\n      swap1\n      pop\n        /* \"ArrayTest4.sol\":1142:1143  1 */\n      0x01\n        /* \"ArrayTest4.sol\":1133:1139  length */\n      dup2\n        /* \"ArrayTest4.sol\":1133:1143  length - 1 */\n      tag_79\n      swap2\n      swap1\n      tag_33\n      jump\t// in\n    tag_79:\n        /* \"ArrayTest4.sol\":1123:1128  index */\n      dup3\n        /* \"ArrayTest4.sol\":1123:1143  index  == length - 1 */\n      sub\n        /* \"ArrayTest4.sol\":1120:1344  if(index  == length - 1){... */\n      tag_80\n      jumpi\n        /* \"ArrayTest4.sol\":1158:1165  numbers */\n      0x00\n        /* \"ArrayTest4.sol\":1158:1171  numbers.pop() */\n      dup1\n      sload\n      dup1\n      tag_81\n      jumpi\n      tag_82\n      tag_37\n      jump\t// in\n    tag_82:\n    tag_81:\n      0x01\n      swap1\n      sub\n      dup2\n      dup2\n      swap1\n      0x00\n      mstore\n      keccak256(0x00, 0x20)\n      add\n      0x00\n      swap1\n      sstore\n      swap1\n      sstore\n        /* \"ArrayTest4.sol\":1120:1344  if(index  == length - 1){... */\n      jump(tag_84)\n    tag_80:\n        /* \"ArrayTest4.sol\":1206:1212  uint i */\n      0x00\n        /* \"ArrayTest4.sol\":1215:1220  index */\n      dup3\n        /* \"ArrayTest4.sol\":1206:1220  uint i = index */\n      swap1\n      pop\n        /* \"ArrayTest4.sol\":1201:1307  for (uint i = index; i < numbers.length; i++) {... */\n    tag_85:\n        /* \"ArrayTest4.sol\":1226:1233  numbers */\n      0x00\n        /* \"ArrayTest4.sol\":1226:1240  numbers.length */\n      dup1\n      sload\n      swap1\n      pop\n        /* \"ArrayTest4.sol\":1222:1223  i */\n      dup2\n        /* \"ArrayTest4.sol\":1222:1240  i < numbers.length */\n      lt\n        /* \"ArrayTest4.sol\":1201:1307  for (uint i = index; i < numbers.length; i++) {... */\n      iszero\n      tag_86\n      jumpi\n        /* \"ArrayTest4.sol\":1278:1285  numbers */\n      0x00\n        /* \"ArrayTest4.sol\":1290:1291  1 */\n      0x01\n        /* \"ArrayTest4.sol\":1286:1287  i */\n      dup3\n        /* \"ArrayTest4.sol\":1286:1291  i + 1 */\n      tag_88\n      swap2\n      swap1\n      tag_89\n      jump\t// in\n    tag_88:\n        /* \"ArrayTest4.sol\":1278:1292  numbers[i + 1] */\n      dup2\n      sload\n      dup2\n      lt\n      tag_90\n      jumpi\n      tag_91\n      tag_43\n      jump\t// in\n    tag_91:\n    tag_90:\n      swap1\n      0x00\n      mstore\n      keccak256(0x00, 0x20)\n      add\n      sload\n        /* \"ArrayTest4.sol\":1265:1272  numbers */\n      0x00\n        /* \"ArrayTest4.sol\":1273:1274  i */\n      dup3\n        /* \"ArrayTest4.sol\":1265:1275  numbers[i] */\n      dup2\n      sload\n      dup2\n      lt\n      tag_93\n      jumpi\n      tag_94\n      tag_43\n      jump\t// in\n    tag_94:\n    tag_93:\n      swap1\n      0x00\n      mstore\n      keccak256(0x00, 0x20)\n      add\n        /* \"ArrayTest4.sol\":1265:1292  numbers[i] = numbers[i + 1] */\n      dup2\n      swap1\n      sstore\n      pop\n        /* \"ArrayTest4.sol\":1242:1245  i++ */\n      dup1\n      dup1\n      tag_96\n      swap1\n      tag_97\n      jump\t// in\n    tag_96:\n      swap2\n      pop\n      pop\n        /* \"ArrayTest4.sol\":1201:1307  for (uint i = index; i < numbers.length; i++) {... */\n      jump(tag_85)\n    tag_86:\n      pop\n        /* \"ArrayTest4.sol\":1320:1327  numbers */\n      0x00\n        /* \"ArrayTest4.sol\":1320:1333  numbers.pop() */\n      dup1\n      sload\n      dup1\n      tag_98\n      jumpi\n      tag_99\n      tag_37\n      jump\t// in\n    tag_99:\n    tag_98:\n      0x01\n      swap1\n      sub\n      dup2\n      dup2\n      swap1\n      0x00\n      mstore\n      keccak256(0x00, 0x20)\n      add\n      0x00\n      swap1\n      sstore\n      swap1\n      sstore\n        /* \"ArrayTest4.sol\":1120:1344  if(index  == length - 1){... */\n    tag_84:\n        /* \"ArrayTest4.sol\":1072:1350  {... */\n      pop\n        /* \"ArrayTest4.sol\":1037:1350  function remove2(uint index) public{... */\n      pop\n      jump\t// out\n    tag_26:\n      dup3\n      dup1\n      sload\n      dup3\n      dup3\n      sstore\n      swap1\n      0x00\n      mstore\n      keccak256(0x00, 0x20)\n      swap1\n      dup2\n      add\n      swap3\n      dup3\n      iszero\n      tag_101\n      jumpi\n      swap2\n      0x20\n      mul\n      dup3\n      add\n    tag_102:\n      dup3\n      dup2\n      gt\n      iszero\n      tag_103\n      jumpi\n      dup3\n      mload\n      dup3\n      swap1\n      0xff\n      and\n      swap1\n      sstore\n      swap2\n      0x20\n      add\n      swap2\n      swap1\n      0x01\n      add\n      swap1\n      jump(tag_102)\n    tag_103:\n    tag_101:\n      pop\n      swap1\n      pop\n      tag_104\n      swap2\n      swap1\n      tag_105\n      jump\t// in\n    tag_104:\n      pop\n      swap1\n      jump\t// out\n    tag_105:\n    tag_106:\n      dup1\n      dup3\n      gt\n      iszero\n      tag_107\n      jumpi\n      0x00\n      dup2\n      0x00\n      swap1\n      sstore\n      pop\n      0x01\n      add\n      jump(tag_106)\n    tag_107:\n      pop\n      swap1\n      jump\t// out\n        /* \"#utility.yul\":88:205   */\n    tag_109:\n        /* \"#utility.yul\":197:198   */\n      0x00\n        /* \"#utility.yul\":194:195   */\n      dup1\n        /* \"#utility.yul\":187:199   */\n      revert\n        /* \"#utility.yul\":334:411   */\n    tag_111:\n        /* \"#utility.yul\":371:378   */\n      0x00\n        /* \"#utility.yul\":400:405   */\n      dup2\n        /* \"#utility.yul\":389:405   */\n      swap1\n      pop\n        /* \"#utility.yul\":334:411   */\n      swap2\n      swap1\n      pop\n      jump\t// out\n        /* \"#utility.yul\":417:539   */\n    tag_112:\n        /* \"#utility.yul\":490:514   */\n      tag_122\n        /* \"#utility.yul\":508:513   */\n      dup2\n        /* \"#utility.yul\":490:514   */\n      tag_111\n      jump\t// in\n    tag_122:\n        /* \"#utility.yul\":483:488   */\n      dup2\n        /* \"#utility.yul\":480:515   */\n      eq\n        /* \"#utility.yul\":470:533   */\n      tag_123\n      jumpi\n        /* \"#utility.yul\":529:530   */\n      0x00\n        /* \"#utility.yul\":526:527   */\n      dup1\n        /* \"#utility.yul\":519:531   */\n      revert\n        /* \"#utility.yul\":470:533   */\n    tag_123:\n        /* \"#utility.yul\":417:539   */\n      pop\n      jump\t// out\n        /* \"#utility.yul\":545:684   */\n    tag_113:\n        /* \"#utility.yul\":591:596   */\n      0x00\n        /* \"#utility.yul\":629:635   */\n      dup2\n        /* \"#utility.yul\":616:636   */\n      calldataload\n        /* \"#utility.yul\":607:636   */\n      swap1\n      pop\n        /* \"#utility.yul\":645:678   */\n      tag_125\n        /* \"#utility.yul\":672:677   */\n      dup2\n        /* \"#utility.yul\":645:678   */\n      tag_112\n      jump\t// in\n    tag_125:\n        /* \"#utility.yul\":545:684   */\n      swap3\n      swap2\n      pop\n      pop\n      jump\t// out\n        /* \"#utility.yul\":690:1019   */\n    tag_12:\n        /* \"#utility.yul\":749:755   */\n      0x00\n        /* \"#utility.yul\":798:800   */\n      0x20\n        /* \"#utility.yul\":786:795   */\n      dup3\n        /* \"#utility.yul\":777:784   */\n      dup5\n        /* \"#utility.yul\":773:796   */\n      sub\n        /* \"#utility.yul\":769:801   */\n      slt\n        /* \"#utility.yul\":766:885   */\n      iszero\n      tag_127\n      jumpi\n        /* \"#utility.yul\":804:883   */\n      tag_128\n      tag_109\n      jump\t// in\n    tag_128:\n        /* \"#utility.yul\":766:885   */\n    tag_127:\n        /* \"#utility.yul\":924:925   */\n      0x00\n        /* \"#utility.yul\":949:1002   */\n      tag_129\n        /* \"#utility.yul\":994:1001   */\n      dup5\n        /* \"#utility.yul\":985:991   */\n      dup3\n        /* \"#utility.yul\":974:983   */\n      dup6\n        /* \"#utility.yul\":970:992   */\n      add\n        /* \"#utility.yul\":949:1002   */\n      tag_113\n      jump\t// in\n    tag_129:\n        /* \"#utility.yul\":939:1002   */\n      swap2\n      pop\n        /* \"#utility.yul\":895:1012   */\n      pop\n        /* \"#utility.yul\":690:1019   */\n      swap3\n      swap2\n      pop\n      pop\n      jump\t// out\n        /* \"#utility.yul\":1025:1143   */\n    tag_114:\n        /* \"#utility.yul\":1112:1136   */\n      tag_131\n        /* \"#utility.yul\":1130:1135   */\n      dup2\n        /* \"#utility.yul\":1112:1136   */\n      tag_111\n      jump\t// in\n    tag_131:\n        /* \"#utility.yul\":1107:1110   */\n      dup3\n        /* \"#utility.yul\":1100:1137   */\n      mstore\n        /* \"#utility.yul\":1025:1143   */\n      pop\n      pop\n      jump\t// out\n        /* \"#utility.yul\":1149:1371   */\n    tag_20:\n        /* \"#utility.yul\":1242:1246   */\n      0x00\n        /* \"#utility.yul\":1280:1282   */\n      0x20\n        /* \"#utility.yul\":1269:1278   */\n      dup3\n        /* \"#utility.yul\":1265:1283   */\n      add\n        /* \"#utility.yul\":1257:1283   */\n      swap1\n      pop\n        /* \"#utility.yul\":1293:1364   */\n      tag_133\n        /* \"#utility.yul\":1361:1362   */\n      0x00\n        /* \"#utility.yul\":1350:1359   */\n      dup4\n        /* \"#utility.yul\":1346:1363   */\n      add\n        /* \"#utility.yul\":1337:1343   */\n      dup5\n        /* \"#utility.yul\":1293:1364   */\n      tag_114\n      jump\t// in\n    tag_133:\n        /* \"#utility.yul\":1149:1371   */\n      swap3\n      swap2\n      pop\n      pop\n      jump\t// out\n        /* \"#utility.yul\":1377:1557   */\n    tag_30:\n        /* \"#utility.yul\":1425:1502   */\n      0x4e487b7100000000000000000000000000000000000000000000000000000000\n        /* \"#utility.yul\":1422:1423   */\n      0x00\n        /* \"#utility.yul\":1415:1503   */\n      mstore\n        /* \"#utility.yul\":1522:1526   */\n      0x01\n        /* \"#utility.yul\":1519:1520   */\n      0x04\n        /* \"#utility.yul\":1512:1527   */\n      mstore\n        /* \"#utility.yul\":1546:1550   */\n      0x24\n        /* \"#utility.yul\":1543:1544   */\n      0x00\n        /* \"#utility.yul\":1536:1551   */\n      revert\n        /* \"#utility.yul\":1563:1743   */\n    tag_115:\n        /* \"#utility.yul\":1611:1688   */\n      0x4e487b7100000000000000000000000000000000000000000000000000000000\n        /* \"#utility.yul\":1608:1609   */\n      0x00\n        /* \"#utility.yul\":1601:1689   */\n      mstore\n        /* \"#utility.yul\":1708:1712   */\n      0x11\n        /* \"#utility.yul\":1705:1706   */\n      0x04\n        /* \"#utility.yul\":1698:1713   */\n      mstore\n        /* \"#utility.yul\":1732:1736   */\n      0x24\n        /* \"#utility.yul\":1729:1730   */\n      0x00\n        /* \"#utility.yul\":1722:1737   */\n      revert\n        /* \"#utility.yul\":1749:1943   */\n    tag_33:\n        /* \"#utility.yul\":1789:1793   */\n      0x00\n        /* \"#utility.yul\":1809:1829   */\n      tag_137\n        /* \"#utility.yul\":1827:1828   */\n      dup3\n        /* \"#utility.yul\":1809:1829   */\n      tag_111\n      jump\t// in\n    tag_137:\n        /* \"#utility.yul\":1804:1829   */\n      swap2\n      pop\n        /* \"#utility.yul\":1843:1863   */\n      tag_138\n        /* \"#utility.yul\":1861:1862   */\n      dup4\n        /* \"#utility.yul\":1843:1863   */\n      tag_111\n      jump\t// in\n    tag_138:\n        /* \"#utility.yul\":1838:1863   */\n      swap3\n      pop\n        /* \"#utility.yul\":1887:1888   */\n      dup3\n        /* \"#utility.yul\":1884:1885   */\n      dup3\n        /* \"#utility.yul\":1880:1889   */\n      sub\n        /* \"#utility.yul\":1872:1889   */\n      swap1\n      pop\n        /* \"#utility.yul\":1911:1912   */\n      dup2\n        /* \"#utility.yul\":1905:1909   */\n      dup2\n        /* \"#utility.yul\":1902:1913   */\n      gt\n        /* \"#utility.yul\":1899:1936   */\n      iszero\n      tag_139\n      jumpi\n        /* \"#utility.yul\":1916:1934   */\n      tag_140\n      tag_115\n      jump\t// in\n    tag_140:\n        /* \"#utility.yul\":1899:1936   */\n    tag_139:\n        /* \"#utility.yul\":1749:1943   */\n      swap3\n      swap2\n      pop\n      pop\n      jump\t// out\n        /* \"#utility.yul\":1949:2129   */\n    tag_37:\n        /* \"#utility.yul\":1997:2074   */\n      0x4e487b7100000000000000000000000000000000000000000000000000000000\n        /* \"#utility.yul\":1994:1995   */\n      0x00\n        /* \"#utility.yul\":1987:2075   */\n      mstore\n        /* \"#utility.yul\":2094:2098   */\n      0x31\n        /* \"#utility.yul\":2091:2092   */\n      0x04\n        /* \"#utility.yul\":2084:2099   */\n      mstore\n        /* \"#utility.yul\":2118:2122   */\n      0x24\n        /* \"#utility.yul\":2115:2116   */\n      0x00\n        /* \"#utility.yul\":2108:2123   */\n      revert\n        /* \"#utility.yul\":2135:2315   */\n    tag_43:\n        /* \"#utility.yul\":2183:2260   */\n      0x4e487b7100000000000000000000000000000000000000000000000000000000\n        /* \"#utility.yul\":2180:2181   */\n      0x00\n        /* \"#utility.yul\":2173:2261   */\n      mstore\n        /* \"#utility.yul\":2280:2284   */\n      0x32\n        /* \"#utility.yul\":2277:2278   */\n      0x04\n        /* \"#utility.yul\":2270:2285   */\n      mstore\n        /* \"#utility.yul\":2304:2308   */\n      0x24\n        /* \"#utility.yul\":2301:2302   */\n      0x00\n        /* \"#utility.yul\":2294:2309   */\n      revert\n        /* \"#utility.yul\":2321:2512   */\n    tag_89:\n        /* \"#utility.yul\":2361:2364   */\n      0x00\n        /* \"#utility.yul\":2380:2400   */\n      tag_144\n        /* \"#utility.yul\":2398:2399   */\n      dup3\n        /* \"#utility.yul\":2380:2400   */\n      tag_111\n      jump\t// in\n    tag_144:\n        /* \"#utility.yul\":2375:2400   */\n      swap2\n      pop\n        /* \"#utility.yul\":2414:2434   */\n      tag_145\n        /* \"#utility.yul\":2432:2433   */\n      dup4\n        /* \"#utility.yul\":2414:2434   */\n      tag_111\n      jump\t// in\n    tag_145:\n        /* \"#utility.yul\":2409:2434   */\n      swap3\n      pop\n        /* \"#utility.yul\":2457:2458   */\n      dup3\n        /* \"#utility.yul\":2454:2455   */\n      dup3\n        /* \"#utility.yul\":2450:2459   */\n      add\n        /* \"#utility.yul\":2443:2459   */\n      swap1\n      pop\n        /* \"#utility.yul\":2478:2481   */\n      dup1\n        /* \"#utility.yul\":2475:2476   */\n      dup3\n        /* \"#utility.yul\":2472:2482   */\n      gt\n        /* \"#utility.yul\":2469:2505   */\n      iszero\n      tag_146\n      jumpi\n        /* \"#utility.yul\":2485:2503   */\n      tag_147\n      tag_115\n      jump\t// in\n    tag_147:\n        /* \"#utility.yul\":2469:2505   */\n    tag_146:\n        /* \"#utility.yul\":2321:2512   */\n      swap3\n      swap2\n      pop\n      pop\n      jump\t// out\n        /* \"#utility.yul\":2518:2751   */\n    tag_97:\n        /* \"#utility.yul\":2557:2560   */\n      0x00\n        /* \"#utility.yul\":2580:2604   */\n      tag_149\n        /* \"#utility.yul\":2598:2603   */\n      dup3\n        /* \"#utility.yul\":2580:2604   */\n      tag_111\n      jump\t// in\n    tag_149:\n        /* \"#utility.yul\":2571:2604   */\n      swap2\n      pop\n        /* \"#utility.yul\":2626:2692   */\n      0xffffffffffffffffffffffffffffffffffffffffffffffffffffffffffffffff\n        /* \"#utility.yul\":2619:2624   */\n      dup3\n        /* \"#utility.yul\":2616:2693   */\n      sub\n        /* \"#utility.yul\":2613:2716   */\n      tag_150\n      jumpi\n        /* \"#utility.yul\":2696:2714   */\n      tag_151\n      tag_115\n      jump\t// in\n    tag_151:\n        /* \"#utility.yul\":2613:2716   */\n    tag_150:\n        /* \"#utility.yul\":2743:2744   */\n      0x01\n        /* \"#utility.yul\":2736:2741   */\n      dup3\n        /* \"#utility.yul\":2732:2745   */\n      add\n        /* \"#utility.yul\":2725:2745   */\n      swap1\n      pop\n        /* \"#utility.yul\":2518:2751   */\n      swap2\n      swap1\n      pop\n      jump\t// out\n\n    auxdata: 0xa26469706673582212207d4817701267933af1d6a7ca480d9f85a225572075bcdeb50a6b9578cf9e8ae864736f6c63430008110033\n}\n",
				"bytecode": {
					"linkReferences": {},
					"object": "608060405234801561001057600080fd5b506106e7806100206000396000f3fe608060405234801561001057600080fd5b50600436106100575760003560e01c806366e41cb71461005c578063670ea637146100665780636b59084d14610082578063d39fa2331461008c578063e91e5843146100bc575b600080fd5b6100646100d8565b005b610080600480360381019061007b91906104ee565b610146565b005b61008a610209565b005b6100a660048036038101906100a191906104ee565b610336565b6040516100b3919061052a565b60405180910390f35b6100d660048036038101906100d191906104ee565b61035a565b005b6040518060a00160405280600160ff168152602001600260ff168152602001600360ff168152602001600460ff168152602001600560ff168152506000906005610123929190610444565b5061012e600261035a565b60046000805490501461014457610143610545565b5b565b60008080549050905060018161015c91906105a3565b820361018f576000805480610174576101736105d7565b5b60019003818190600052602060002001600090559055610205565b600060018261019e91906105a3565b815481106101af576101ae610606565b5b9060005260206000200154600083815481106101ce576101cd610606565b5b906000526020600020018190555060008054806101ee576101ed6105d7565b5b600190038181906000526020600020016000905590555b5050565b6040518060a00160405280600160ff168152602001600260ff168152602001600360ff168152602001600460ff168152602001600560ff168152506000906005610254929190610444565b5061025f6002610146565b60046000805490501461027557610274610545565b5b60016000808154811061028b5761028a610606565b5b9060005260206000200154146102a4576102a3610545565b5b600260006001815481106102bb576102ba610606565b5b9060005260206000200154146102d4576102d3610545565b5b600560006002815481106102eb576102ea610606565b5b90600052602060002001541461030457610303610545565b5b6004600060038154811061031b5761031a610606565b5b90600052602060002001541461033457610333610545565b5b565b6000818154811061034657600080fd5b906000526020600020016000915090505481565b60008080549050905060018161037091906105a3565b82036103a3576000805480610388576103876105d7565b5b60019003818190600052602060002001600090559055610440565b60008290505b6000805490508110156104165760006001826103c59190610635565b815481106103d6576103d5610606565b5b9060005260206000200154600082815481106103f5576103f4610606565b5b9060005260206000200181905550808061040e90610669565b9150506103a9565b506000805480610429576104286105d7565b5b600190038181906000526020600020016000905590555b5050565b828054828255906000526020600020908101928215610485579160200282015b82811115610484578251829060ff16905591602001919060010190610464565b5b5090506104929190610496565b5090565b5b808211156104af576000816000905550600101610497565b5090565b600080fd5b6000819050919050565b6104cb816104b8565b81146104d657600080fd5b50565b6000813590506104e8816104c2565b92915050565b600060208284031215610504576105036104b3565b5b6000610512848285016104d9565b91505092915050565b610524816104b8565b82525050565b600060208201905061053f600083018461051b565b92915050565b7f4e487b7100000000000000000000000000000000000000000000000000000000600052600160045260246000fd5b7f4e487b7100000000000000000000000000000000000000000000000000000000600052601160045260246000fd5b60006105ae826104b8565b91506105b9836104b8565b92508282039050818111156105d1576105d0610574565b5b92915050565b7f4e487b7100000000000000000000000000000000000000000000000000000000600052603160045260246000fd5b7f4e487b7100000000000000000000000000000000000000000000000000000000600052603260045260246000fd5b6000610640826104b8565b915061064b836104b8565b925082820190508082111561066357610662610574565b5b92915050565b6000610674826104b8565b91507fffffffffffffffffffffffffffffffffffffffffffffffffffffffffffffffff82036106a6576106a5610574565b5b60018201905091905056fea26469706673582212207d4817701267933af1d6a7ca480d9f85a225572075bcdeb50a6b9578cf9e8ae864736f6c63430008110033",
					"opcodes": "PUSH1 0x80 PUSH1 0x40 MSTORE CALLVALUE DUP1 ISZERO PUSH2 0x10 JUMPI PUSH1 0x0 DUP1 REVERT JUMPDEST POP PUSH2 0x6E7 DUP1 PUSH2 0x20 PUSH1 0x0 CODECOPY PUSH1 0x0 RETURN INVALID PUSH1 0x80 PUSH1 0x40 MSTORE CALLVALUE DUP1 ISZERO PUSH2 0x10 JUMPI PUSH1 0x0 DUP1 REVERT JUMPDEST POP PUSH1 0x4 CALLDATASIZE LT PUSH2 0x57 JUMPI PUSH1 0x0 CALLDATALOAD PUSH1 0xE0 SHR DUP1 PUSH4 0x66E41CB7 EQ PUSH2 0x5C JUMPI DUP1 PUSH4 0x670EA637 EQ PUSH2 0x66 JUMPI DUP1 PUSH4 0x6B59084D EQ PUSH2 0x82 JUMPI DUP1 PUSH4 0xD39FA233 EQ PUSH2 0x8C JUMPI DUP1 PUSH4 0xE91E5843 EQ PUSH2 0xBC JUMPI JUMPDEST PUSH1 0x0 DUP1 REVERT JUMPDEST PUSH2 0x64 PUSH2 0xD8 JUMP JUMPDEST STOP JUMPDEST PUSH2 0x80 PUSH1 0x4 DUP1 CALLDATASIZE SUB DUP2 ADD SWAP1 PUSH2 0x7B SWAP2 SWAP1 PUSH2 0x4EE JUMP JUMPDEST PUSH2 0x146 JUMP JUMPDEST STOP JUMPDEST PUSH2 0x8A PUSH2 0x209 JUMP JUMPDEST STOP JUMPDEST PUSH2 0xA6 PUSH1 0x4 DUP1 CALLDATASIZE SUB DUP2 ADD SWAP1 PUSH2 0xA1 SWAP2 SWAP1 PUSH2 0x4EE JUMP JUMPDEST PUSH2 0x336 JUMP JUMPDEST PUSH1 0x40 MLOAD PUSH2 0xB3 SWAP2 SWAP1 PUSH2 0x52A JUMP JUMPDEST PUSH1 0x40 MLOAD DUP1 SWAP2 SUB SWAP1 RETURN JUMPDEST PUSH2 0xD6 PUSH1 0x4 DUP1 CALLDATASIZE SUB DUP2 ADD SWAP1 PUSH2 0xD1 SWAP2 SWAP1 PUSH2 0x4EE JUMP JUMPDEST PUSH2 0x35A JUMP JUMPDEST STOP JUMPDEST PUSH1 0x40 MLOAD DUP1 PUSH1 0xA0 ADD PUSH1 0x40 MSTORE DUP1 PUSH1 0x1 PUSH1 0xFF AND DUP2 MSTORE PUSH1 0x20 ADD PUSH1 0x2 PUSH1 0xFF AND DUP2 MSTORE PUSH1 0x20 ADD PUSH1 0x3 PUSH1 0xFF AND DUP2 MSTORE PUSH1 0x20 ADD PUSH1 0x4 PUSH1 0xFF AND DUP2 MSTORE PUSH1 0x20 ADD PUSH1 0x5 PUSH1 0xFF AND DUP2 MSTORE POP PUSH1 0x0 SWAP1 PUSH1 0x5 PUSH2 0x123 SWAP3 SWAP2 SWAP1 PUSH2 0x444 JUMP JUMPDEST POP PUSH2 0x12E PUSH1 0x2 PUSH2 0x35A JUMP JUMPDEST PUSH1 0x4 PUSH1 0x0 DUP1 SLOAD SWAP1 POP EQ PUSH2 0x144 JUMPI PUSH2 0x143 PUSH2 0x545 JUMP JUMPDEST JUMPDEST JUMP JUMPDEST PUSH1 0x0 DUP1 DUP1 SLOAD SWAP1 POP SWAP1 POP PUSH1 0x1 DUP2 PUSH2 0x15C SWAP2 SWAP1 PUSH2 0x5A3 JUMP JUMPDEST DUP3 SUB PUSH2 0x18F JUMPI PUSH1 0x0 DUP1 SLOAD DUP1 PUSH2 0x174 JUMPI PUSH2 0x173 PUSH2 0x5D7 JUMP JUMPDEST JUMPDEST PUSH1 0x1 SWAP1 SUB DUP2 DUP2 SWAP1 PUSH1 0x0 MSTORE PUSH1 0x20 PUSH1 0x0 KECCAK256 ADD PUSH1 0x0 SWAP1 SSTORE SWAP1 SSTORE PUSH2 0x205 JUMP JUMPDEST PUSH1 0x0 PUSH1 0x1 DUP3 PUSH2 0x19E SWAP2 SWAP1 PUSH2 0x5A3 JUMP JUMPDEST DUP2 SLOAD DUP2 LT PUSH2 0x1AF JUMPI PUSH2 0x1AE PUSH2 0x606 JUMP JUMPDEST JUMPDEST SWAP1 PUSH1 0x0 MSTORE PUSH1 0x20 PUSH1 0x0 KECCAK256 ADD SLOAD PUSH1 0x0 DUP4 DUP2 SLOAD DUP2 LT PUSH2 0x1CE JUMPI PUSH2 0x1CD PUSH2 0x606 JUMP JUMPDEST JUMPDEST SWAP1 PUSH1 0x0 MSTORE PUSH1 0x20 PUSH1 0x0 KECCAK256 ADD DUP2 SWAP1 SSTORE POP PUSH1 0x0 DUP1 SLOAD DUP1 PUSH2 0x1EE JUMPI PUSH2 0x1ED PUSH2 0x5D7 JUMP JUMPDEST JUMPDEST PUSH1 0x1 SWAP1 SUB DUP2 DUP2 SWAP1 PUSH1 0x0 MSTORE PUSH1 0x20 PUSH1 0x0 KECCAK256 ADD PUSH1 0x0 SWAP1 SSTORE SWAP1 SSTORE JUMPDEST POP POP JUMP JUMPDEST PUSH1 0x40 MLOAD DUP1 PUSH1 0xA0 ADD PUSH1 0x40 MSTORE DUP1 PUSH1 0x1 PUSH1 0xFF AND DUP2 MSTORE PUSH1 0x20 ADD PUSH1 0x2 PUSH1 0xFF AND DUP2 MSTORE PUSH1 0x20 ADD PUSH1 0x3 PUSH1 0xFF AND DUP2 MSTORE PUSH1 0x20 ADD PUSH1 0x4 PUSH1 0xFF AND DUP2 MSTORE PUSH1 0x20 ADD PUSH1 0x5 PUSH1 0xFF AND DUP2 MSTORE POP PUSH1 0x0 SWAP1 PUSH1 0x5 PUSH2 0x254 SWAP3 SWAP2 SWAP1 PUSH2 0x444 JUMP JUMPDEST POP PUSH2 0x25F PUSH1 0x2 PUSH2 0x146 JUMP JUMPDEST PUSH1 0x4 PUSH1 0x0 DUP1 SLOAD SWAP1 POP EQ PUSH2 0x275 JUMPI PUSH2 0x274 PUSH2 0x545 JUMP JUMPDEST JUMPDEST PUSH1 0x1 PUSH1 0x0 DUP1 DUP2 SLOAD DUP2 LT PUSH2 0x28B JUMPI PUSH2 0x28A PUSH2 0x606 JUMP JUMPDEST JUMPDEST SWAP1 PUSH1 0x0 MSTORE PUSH1 0x20 PUSH1 0x0 KECCAK256 ADD SLOAD EQ PUSH2 0x2A4 JUMPI PUSH2 0x2A3 PUSH2 0x545 JUMP JUMPDEST JUMPDEST PUSH1 0x2 PUSH1 0x0 PUSH1 0x1 DUP2 SLOAD DUP2 LT PUSH2 0x2BB JUMPI PUSH2 0x2BA PUSH2 0x606 JUMP JUMPDEST JUMPDEST SWAP1 PUSH1 0x0 MSTORE PUSH1 0x20 PUSH1 0x0 KECCAK256 ADD SLOAD EQ PUSH2 0x2D4 JUMPI PUSH2 0x2D3 PUSH2 0x545 JUMP JUMPDEST JUMPDEST PUSH1 0x5 PUSH1 0x0 PUSH1 0x2 DUP2 SLOAD DUP2 LT PUSH2 0x2EB JUMPI PUSH2 0x2EA PUSH2 0x606 JUMP JUMPDEST JUMPDEST SWAP1 PUSH1 0x0 MSTORE PUSH1 0x20 PUSH1 0x0 KECCAK256 ADD SLOAD EQ PUSH2 0x304 JUMPI PUSH2 0x303 PUSH2 0x545 JUMP JUMPDEST JUMPDEST PUSH1 0x4 PUSH1 0x0 PUSH1 0x3 DUP2 SLOAD DUP2 LT PUSH2 0x31B JUMPI PUSH2 0x31A PUSH2 0x606 JUMP JUMPDEST JUMPDEST SWAP1 PUSH1 0x0 MSTORE PUSH1 0x20 PUSH1 0x0 KECCAK256 ADD SLOAD EQ PUSH2 0x334 JUMPI PUSH2 0x333 PUSH2 0x545 JUMP JUMPDEST JUMPDEST JUMP JUMPDEST PUSH1 0x0 DUP2 DUP2 SLOAD DUP2 LT PUSH2 0x346 JUMPI PUSH1 0x0 DUP1 REVERT JUMPDEST SWAP1 PUSH1 0x0 MSTORE PUSH1 0x20 PUSH1 0x0 KECCAK256 ADD PUSH1 0x0 SWAP2 POP SWAP1 POP SLOAD DUP2 JUMP JUMPDEST PUSH1 0x0 DUP1 DUP1 SLOAD SWAP1 POP SWAP1 POP PUSH1 0x1 DUP2 PUSH2 0x370 SWAP2 SWAP1 PUSH2 0x5A3 JUMP JUMPDEST DUP3 SUB PUSH2 0x3A3 JUMPI PUSH1 0x0 DUP1 SLOAD DUP1 PUSH2 0x388 JUMPI PUSH2 0x387 PUSH2 0x5D7 JUMP JUMPDEST JUMPDEST PUSH1 0x1 SWAP1 SUB DUP2 DUP2 SWAP1 PUSH1 0x0 MSTORE PUSH1 0x20 PUSH1 0x0 KECCAK256 ADD PUSH1 0x0 SWAP1 SSTORE SWAP1 SSTORE PUSH2 0x440 JUMP JUMPDEST PUSH1 0x0 DUP3 SWAP1 POP JUMPDEST PUSH1 0x0 DUP1 SLOAD SWAP1 POP DUP2 LT ISZERO PUSH2 0x416 JUMPI PUSH1 0x0 PUSH1 0x1 DUP3 PUSH2 0x3C5 SWAP2 SWAP1 PUSH2 0x635 JUMP JUMPDEST DUP2 SLOAD DUP2 LT PUSH2 0x3D6 JUMPI PUSH2 0x3D5 PUSH2 0x606 JUMP JUMPDEST JUMPDEST SWAP1 PUSH1 0x0 MSTORE PUSH1 0x20 PUSH1 0x0 KECCAK256 ADD SLOAD PUSH1 0x0 DUP3 DUP2 SLOAD DUP2 LT PUSH2 0x3F5 JUMPI PUSH2 0x3F4 PUSH2 0x606 JUMP JUMPDEST JUMPDEST SWAP1 PUSH1 0x0 MSTORE PUSH1 0x20 PUSH1 0x0 KECCAK256 ADD DUP2 SWAP1 SSTORE POP DUP1 DUP1 PUSH2 0x40E SWAP1 PUSH2 0x669 JUMP JUMPDEST SWAP2 POP POP PUSH2 0x3A9 JUMP JUMPDEST POP PUSH1 0x0 DUP1 SLOAD DUP1 PUSH2 0x429 JUMPI PUSH2 0x428 PUSH2 0x5D7 JUMP JUMPDEST JUMPDEST PUSH1 0x1 SWAP1 SUB DUP2 DUP2 SWAP1 PUSH1 0x0 MSTORE PUSH1 0x20 PUSH1 0x0 KECCAK256 ADD PUSH1 0x0 SWAP1 SSTORE SWAP1 SSTORE JUMPDEST POP POP JUMP JUMPDEST DUP3 DUP1 SLOAD DUP3 DUP3 SSTORE SWAP1 PUSH1 0x0 MSTORE PUSH1 0x20 PUSH1 0x0 KECCAK256 SWAP1 DUP2 ADD SWAP3 DUP3 ISZERO PUSH2 0x485 JUMPI SWAP2 PUSH1 0x20 MUL DUP3 ADD JUMPDEST DUP3 DUP2 GT ISZERO PUSH2 0x484 JUMPI DUP3 MLOAD DUP3 SWAP1 PUSH1 0xFF AND SWAP1 SSTORE SWAP2 PUSH1 0x20 ADD SWAP2 SWAP1 PUSH1 0x1 ADD SWAP1 PUSH2 0x464 JUMP JUMPDEST JUMPDEST POP SWAP1 POP PUSH2 0x492 SWAP2 SWAP1 PUSH2 0x496 JUMP JUMPDEST POP SWAP1 JUMP JUMPDEST JUMPDEST DUP1 DUP3 GT ISZERO PUSH2 0x4AF JUMPI PUSH1 0x0 DUP2 PUSH1 0x0 SWAP1 SSTORE POP PUSH1 0x1 ADD PUSH2 0x497 JUMP JUMPDEST POP SWAP1 JUMP JUMPDEST PUSH1 0x0 DUP1 REVERT JUMPDEST PUSH1 0x0 DUP2 SWAP1 POP SWAP2 SWAP1 POP JUMP JUMPDEST PUSH2 0x4CB DUP2 PUSH2 0x4B8 JUMP JUMPDEST DUP2 EQ PUSH2 0x4D6 JUMPI PUSH1 0x0 DUP1 REVERT JUMPDEST POP JUMP JUMPDEST PUSH1 0x0 DUP2 CALLDATALOAD SWAP1 POP PUSH2 0x4E8 DUP2 PUSH2 0x4C2 JUMP JUMPDEST SWAP3 SWAP2 POP POP JUMP JUMPDEST PUSH1 0x0 PUSH1 0x20 DUP3 DUP5 SUB SLT ISZERO PUSH2 0x504 JUMPI PUSH2 0x503 PUSH2 0x4B3 JUMP JUMPDEST JUMPDEST PUSH1 0x0 PUSH2 0x512 DUP5 DUP3 DUP6 ADD PUSH2 0x4D9 JUMP JUMPDEST SWAP2 POP POP SWAP3 SWAP2 POP POP JUMP JUMPDEST PUSH2 0x524 DUP2 PUSH2 0x4B8 JUMP JUMPDEST DUP3 MSTORE POP POP JUMP JUMPDEST PUSH1 0x0 PUSH1 0x20 DUP3 ADD SWAP1 POP PUSH2 0x53F PUSH1 0x0 DUP4 ADD DUP5 PUSH2 0x51B JUMP JUMPDEST SWAP3 SWAP2 POP POP JUMP JUMPDEST PUSH32 0x4E487B7100000000000000000000000000000000000000000000000000000000 PUSH1 0x0 MSTORE PUSH1 0x1 PUSH1 0x4 MSTORE PUSH1 0x24 PUSH1 0x0 REVERT JUMPDEST PUSH32 0x4E487B7100000000000000000000000000000000000000000000000000000000 PUSH1 0x0 MSTORE PUSH1 0x11 PUSH1 0x4 MSTORE PUSH1 0x24 PUSH1 0x0 REVERT JUMPDEST PUSH1 0x0 PUSH2 0x5AE DUP3 PUSH2 0x4B8 JUMP JUMPDEST SWAP2 POP PUSH2 0x5B9 DUP4 PUSH2 0x4B8 JUMP JUMPDEST SWAP3 POP DUP3 DUP3 SUB SWAP1 POP DUP2 DUP2 GT ISZERO PUSH2 0x5D1 JUMPI PUSH2 0x5D0 PUSH2 0x574 JUMP JUMPDEST JUMPDEST SWAP3 SWAP2 POP POP JUMP JUMPDEST PUSH32 0x4E487B7100000000000000000000000000000000000000000000000000000000 PUSH1 0x0 MSTORE PUSH1 0x31 PUSH1 0x4 MSTORE PUSH1 0x24 PUSH1 0x0 REVERT JUMPDEST PUSH32 0x4E487B7100000000000000000000000000000000000000000000000000000000 PUSH1 0x0 MSTORE PUSH1 0x32 PUSH1 0x4 MSTORE PUSH1 0x24 PUSH1 0x0 REVERT JUMPDEST PUSH1 0x0 PUSH2 0x640 DUP3 PUSH2 0x4B8 JUMP JUMPDEST SWAP2 POP PUSH2 0x64B DUP4 PUSH2 0x4B8 JUMP JUMPDEST SWAP3 POP DUP3 DUP3 ADD SWAP1 POP DUP1 DUP3 GT ISZERO PUSH2 0x663 JUMPI PUSH2 0x662 PUSH2 0x574 JUMP JUMPDEST JUMPDEST SWAP3 SWAP2 POP POP JUMP JUMPDEST PUSH1 0x0 PUSH2 0x674 DUP3 PUSH2 0x4B8 JUMP JUMPDEST SWAP2 POP PUSH32 0xFFFFFFFFFFFFFFFFFFFFFFFFFFFFFFFFFFFFFFFFFFFFFFFFFFFFFFFFFFFFFFFF DUP3 SUB PUSH2 0x6A6 JUMPI PUSH2 0x6A5 PUSH2 0x574 JUMP JUMPDEST JUMPDEST PUSH1 0x1 DUP3 ADD SWAP1 POP SWAP2 SWAP1 POP JUMP INVALID LOG2 PUSH5 0x6970667358 0x22 SLT KECCAK256 PUSH30 0x4817701267933AF1D6A7CA480D9F85A225572075BCDEB50A6B9578CF9E8A 0xE8 PUSH5 0x736F6C6343 STOP ADDMOD GT STOP CALLER "
				},
				"gasEstimates": {
					"creation": {
						"codeDepositCost": "353400",
						"executionCost": "393",
						"totalCost": "353793"
					},
					"external": {
						"numbers(uint256)": "infinite",
						"remove1(uint256)": "infinite",
						"remove2(uint256)": "infinite",
						"test1()": "infinite",
						"test2()": "infinite"
					}
				},
				"methodIdentifiers": {
					"numbers(uint256)": "d39fa233",
					"remove1(uint256)": "670ea637",
					"remove2(uint256)": "e91e5843",
					"test1()": "6b59084d",
					"test2()": "66e41cb7"
				}
			},
			"storageLayout": {
				"storage": [
					{
						"astId": 4,
						"contract": "ArrayTest4.sol:Array4",
						"label": "numbers",
						"offset": 0,
						"slot": "0",
						"type": "t_array(t_uint256)dyn_storage"
					}
				],
				"types": {
					"t_array(t_uint256)dyn_storage": {
						"base": "t_uint256",
						"encoding": "dynamic_array",
						"label": "uint256[]",
						"numberOfBytes": "32"
					},
					"t_uint256": {
						"encoding": "inplace",
						"label": "uint256",
						"numberOfBytes": "32"
					}
				}
			},
			"userdoc": {
				"kind": "user",
				"methods": {
					"remove1(uint256)": {
						"notice": "删除数组中间某个元素时，不可以像其他编程语言一样，删除该元素，其他后面的元素往前移动 这样会消耗巨量的gas 删除数组两种方式： 1.像上述提及的一样，比如[1,2,3,4,5,6] -----remove(2)下标-----[1,2,4,5,6,6]---pop---[1,2,4,5,6] 2.还有另外一种方式：比如[1,2,3,4,5,6] -----remove(2)下标,最后一个元素赋值给需要删除的元素 [1,2,6,4,5,6]--pop---[1,2,6,4,5] 下面这种方式更加节省gas费，但是如果需要保障数组的顺序，那么只能使用方式1"
					},
					"remove2(uint256)": {
						"notice": "[1,2,3,4]  remove index 2"
					}
				},
				"version": 1
			}
		}
	}
}