{
	"Interface.sol": {
		"CallInterface": {
			"abi": [
				{
					"inputs": [
						{
							"internalType": "address",
							"name": "_address",
							"type": "address"
						}
					],
					"name": "call1",
					"outputs": [],
					"stateMutability": "nonpayable",
					"type": "function"
				}
			],
			"devdoc": {
				"kind": "dev",
				"methods": {},
				"version": 1
			},
			"evm": {
				"assembly": "    /* \"Interface.sol\":441:598  contract CallInterface {... */\n  mstore(0x40, 0x80)\n  callvalue\n  dup1\n  iszero\n  tag_1\n  jumpi\n  0x00\n  dup1\n  revert\ntag_1:\n  pop\n  dataSize(sub_0)\n  dup1\n  dataOffset(sub_0)\n  0x00\n  codecopy\n  0x00\n  return\nstop\n\nsub_0: assembly {\n        /* \"Interface.sol\":441:598  contract CallInterface {... */\n      mstore(0x40, 0x80)\n      callvalue\n      dup1\n      iszero\n      tag_1\n      jumpi\n      0x00\n      dup1\n      revert\n    tag_1:\n      pop\n      jumpi(tag_2, lt(calldatasize, 0x04))\n      shr(0xe0, calldataload(0x00))\n      dup1\n      0xf1b9b841\n      eq\n      tag_3\n      jumpi\n    tag_2:\n      0x00\n      dup1\n      revert\n        /* \"Interface.sol\":473:595  function call1(address _address) external{... */\n    tag_3:\n      tag_4\n      0x04\n      dup1\n      calldatasize\n      sub\n      dup2\n      add\n      swap1\n      tag_5\n      swap2\n      swap1\n      tag_6\n      jump\t// in\n    tag_5:\n      tag_7\n      jump\t// in\n    tag_4:\n      stop\n    tag_7:\n        /* \"Interface.sol\":533:541  _address */\n      dup1\n        /* \"Interface.sol\":524:551  ICounter(_address).increase */\n      0xffffffffffffffffffffffffffffffffffffffff\n      and\n      0xe8927fbc\n        /* \"Interface.sol\":524:553  ICounter(_address).increase() */\n      mload(0x40)\n      dup2\n      0xffffffff\n      and\n      0xe0\n      shl\n      dup2\n      mstore\n      0x04\n      add\n      0x00\n      mload(0x40)\n      dup1\n      dup4\n      sub\n      dup2\n      0x00\n      dup8\n      dup1\n      extcodesize\n      iszero\n      dup1\n      iszero\n      tag_9\n      jumpi\n      0x00\n      dup1\n      revert\n    tag_9:\n      pop\n      gas\n      call\n      iszero\n      dup1\n      iszero\n      tag_11\n      jumpi\n      returndatasize\n      0x00\n      dup1\n      returndatacopy\n      revert(0x00, returndatasize)\n    tag_11:\n      pop\n      pop\n      pop\n      pop\n        /* \"Interface.sol\":572:580  _address */\n      dup1\n        /* \"Interface.sol\":563:587  ICounter(_address).count */\n      0xffffffffffffffffffffffffffffffffffffffff\n      and\n      0x06661abd\n        /* \"Interface.sol\":563:589  ICounter(_address).count() */\n      mload(0x40)\n      dup2\n      0xffffffff\n      and\n      0xe0\n      shl\n      dup2\n      mstore\n      0x04\n      add\n      0x20\n      mload(0x40)\n      dup1\n      dup4\n      sub\n      dup2\n      dup7\n      dup1\n      extcodesize\n      iszero\n      dup1\n      iszero\n      tag_12\n      jumpi\n      0x00\n      dup1\n      revert\n    tag_12:\n      pop\n      gas\n      staticcall\n      iszero\n      dup1\n      iszero\n      tag_14\n      jumpi\n      returndatasize\n      0x00\n      dup1\n      returndatacopy\n      revert(0x00, returndatasize)\n    tag_14:\n      pop\n      pop\n      pop\n      pop\n      mload(0x40)\n      returndatasize\n      not(0x1f)\n      0x1f\n      dup3\n      add\n      and\n      dup3\n      add\n      dup1\n      0x40\n      mstore\n      pop\n      dup2\n      add\n      swap1\n      tag_15\n      swap2\n      swap1\n      tag_16\n      jump\t// in\n    tag_15:\n      pop\n        /* \"Interface.sol\":473:595  function call1(address _address) external{... */\n      pop\n      jump\t// out\n        /* \"#utility.yul\":7:146   */\n    tag_18:\n        /* \"#utility.yul\":53:58   */\n      0x00\n        /* \"#utility.yul\":91:97   */\n      dup2\n        /* \"#utility.yul\":78:98   */\n      calldataload\n        /* \"#utility.yul\":69:98   */\n      swap1\n      pop\n        /* \"#utility.yul\":107:140   */\n      tag_20\n        /* \"#utility.yul\":134:139   */\n      dup2\n        /* \"#utility.yul\":107:140   */\n      tag_21\n      jump\t// in\n    tag_20:\n        /* \"#utility.yul\":7:146   */\n      swap3\n      swap2\n      pop\n      pop\n      jump\t// out\n        /* \"#utility.yul\":152:295   */\n    tag_22:\n        /* \"#utility.yul\":209:214   */\n      0x00\n        /* \"#utility.yul\":240:246   */\n      dup2\n        /* \"#utility.yul\":234:247   */\n      mload\n        /* \"#utility.yul\":225:247   */\n      swap1\n      pop\n        /* \"#utility.yul\":256:289   */\n      tag_24\n        /* \"#utility.yul\":283:288   */\n      dup2\n        /* \"#utility.yul\":256:289   */\n      tag_25\n      jump\t// in\n    tag_24:\n        /* \"#utility.yul\":152:295   */\n      swap3\n      swap2\n      pop\n      pop\n      jump\t// out\n        /* \"#utility.yul\":301:630   */\n    tag_6:\n        /* \"#utility.yul\":360:366   */\n      0x00\n        /* \"#utility.yul\":409:411   */\n      0x20\n        /* \"#utility.yul\":397:406   */\n      dup3\n        /* \"#utility.yul\":388:395   */\n      dup5\n        /* \"#utility.yul\":384:407   */\n      sub\n        /* \"#utility.yul\":380:412   */\n      slt\n        /* \"#utility.yul\":377:496   */\n      iszero\n      tag_27\n      jumpi\n        /* \"#utility.yul\":415:494   */\n      tag_28\n      tag_29\n      jump\t// in\n    tag_28:\n        /* \"#utility.yul\":377:496   */\n    tag_27:\n        /* \"#utility.yul\":535:536   */\n      0x00\n        /* \"#utility.yul\":560:613   */\n      tag_30\n        /* \"#utility.yul\":605:612   */\n      dup5\n        /* \"#utility.yul\":596:602   */\n      dup3\n        /* \"#utility.yul\":585:594   */\n      dup6\n        /* \"#utility.yul\":581:603   */\n      add\n        /* \"#utility.yul\":560:613   */\n      tag_18\n      jump\t// in\n    tag_30:\n        /* \"#utility.yul\":550:613   */\n      swap2\n      pop\n        /* \"#utility.yul\":506:623   */\n      pop\n        /* \"#utility.yul\":301:630   */\n      swap3\n      swap2\n      pop\n      pop\n      jump\t// out\n        /* \"#utility.yul\":636:987   */\n    tag_16:\n        /* \"#utility.yul\":706:712   */\n      0x00\n        /* \"#utility.yul\":755:757   */\n      0x20\n        /* \"#utility.yul\":743:752   */\n      dup3\n        /* \"#utility.yul\":734:741   */\n      dup5\n        /* \"#utility.yul\":730:753   */\n      sub\n        /* \"#utility.yul\":726:758   */\n      slt\n        /* \"#utility.yul\":723:842   */\n      iszero\n      tag_32\n      jumpi\n        /* \"#utility.yul\":761:840   */\n      tag_33\n      tag_29\n      jump\t// in\n    tag_33:\n        /* \"#utility.yul\":723:842   */\n    tag_32:\n        /* \"#utility.yul\":881:882   */\n      0x00\n        /* \"#utility.yul\":906:970   */\n      tag_34\n        /* \"#utility.yul\":962:969   */\n      dup5\n        /* \"#utility.yul\":953:959   */\n      dup3\n        /* \"#utility.yul\":942:951   */\n      dup6\n        /* \"#utility.yul\":938:960   */\n      add\n        /* \"#utility.yul\":906:970   */\n      tag_22\n      jump\t// in\n    tag_34:\n        /* \"#utility.yul\":896:970   */\n      swap2\n      pop\n        /* \"#utility.yul\":852:980   */\n      pop\n        /* \"#utility.yul\":636:987   */\n      swap3\n      swap2\n      pop\n      pop\n      jump\t// out\n        /* \"#utility.yul\":1074:1170   */\n    tag_37:\n        /* \"#utility.yul\":1111:1118   */\n      0x00\n        /* \"#utility.yul\":1140:1164   */\n      tag_39\n        /* \"#utility.yul\":1158:1163   */\n      dup3\n        /* \"#utility.yul\":1140:1164   */\n      tag_40\n      jump\t// in\n    tag_39:\n        /* \"#utility.yul\":1129:1164   */\n      swap1\n      pop\n        /* \"#utility.yul\":1074:1170   */\n      swap2\n      swap1\n      pop\n      jump\t// out\n        /* \"#utility.yul\":1176:1302   */\n    tag_40:\n        /* \"#utility.yul\":1213:1220   */\n      0x00\n        /* \"#utility.yul\":1253:1295   */\n      0xffffffffffffffffffffffffffffffffffffffff\n        /* \"#utility.yul\":1246:1251   */\n      dup3\n        /* \"#utility.yul\":1242:1296   */\n      and\n        /* \"#utility.yul\":1231:1296   */\n      swap1\n      pop\n        /* \"#utility.yul\":1176:1302   */\n      swap2\n      swap1\n      pop\n      jump\t// out\n        /* \"#utility.yul\":1308:1385   */\n    tag_42:\n        /* \"#utility.yul\":1345:1352   */\n      0x00\n        /* \"#utility.yul\":1374:1379   */\n      dup2\n        /* \"#utility.yul\":1363:1379   */\n      swap1\n      pop\n        /* \"#utility.yul\":1308:1385   */\n      swap2\n      swap1\n      pop\n      jump\t// out\n        /* \"#utility.yul\":1514:1631   */\n    tag_29:\n        /* \"#utility.yul\":1623:1624   */\n      0x00\n        /* \"#utility.yul\":1620:1621   */\n      dup1\n        /* \"#utility.yul\":1613:1625   */\n      revert\n        /* \"#utility.yul\":1637:1759   */\n    tag_21:\n        /* \"#utility.yul\":1710:1734   */\n      tag_48\n        /* \"#utility.yul\":1728:1733   */\n      dup2\n        /* \"#utility.yul\":1710:1734   */\n      tag_37\n      jump\t// in\n    tag_48:\n        /* \"#utility.yul\":1703:1708   */\n      dup2\n        /* \"#utility.yul\":1700:1735   */\n      eq\n        /* \"#utility.yul\":1690:1753   */\n      tag_49\n      jumpi\n        /* \"#utility.yul\":1749:1750   */\n      0x00\n        /* \"#utility.yul\":1746:1747   */\n      dup1\n        /* \"#utility.yul\":1739:1751   */\n      revert\n        /* \"#utility.yul\":1690:1753   */\n    tag_49:\n        /* \"#utility.yul\":1637:1759   */\n      pop\n      jump\t// out\n        /* \"#utility.yul\":1765:1887   */\n    tag_25:\n        /* \"#utility.yul\":1838:1862   */\n      tag_51\n        /* \"#utility.yul\":1856:1861   */\n      dup2\n        /* \"#utility.yul\":1838:1862   */\n      tag_42\n      jump\t// in\n    tag_51:\n        /* \"#utility.yul\":1831:1836   */\n      dup2\n        /* \"#utility.yul\":1828:1863   */\n      eq\n        /* \"#utility.yul\":1818:1881   */\n      tag_52\n      jumpi\n        /* \"#utility.yul\":1877:1878   */\n      0x00\n        /* \"#utility.yul\":1874:1875   */\n      dup1\n        /* \"#utility.yul\":1867:1879   */\n      revert\n        /* \"#utility.yul\":1818:1881   */\n    tag_52:\n        /* \"#utility.yul\":1765:1887   */\n      pop\n      jump\t// out\n\n    auxdata: 0xa26469706673582212206eeccd51f3e197d1646798321463169f163b40e74f17fbfe25186194316aaafc64736f6c63430008070033\n}\n",
				"bytecode": {
					"linkReferences": {},
					"object": "608060405234801561001057600080fd5b50610257806100206000396000f3fe608060405234801561001057600080fd5b506004361061002b5760003560e01c8063f1b9b84114610030575b600080fd5b61004a60048036038101906100459190610158565b61004c565b005b8073ffffffffffffffffffffffffffffffffffffffff1663e8927fbc6040518163ffffffff1660e01b8152600401600060405180830381600087803b15801561009457600080fd5b505af11580156100a8573d6000803e3d6000fd5b505050508073ffffffffffffffffffffffffffffffffffffffff166306661abd6040518163ffffffff1660e01b815260040160206040518083038186803b1580156100f257600080fd5b505afa158015610106573d6000803e3d6000fd5b505050506040513d601f19601f8201168201806040525081019061012a9190610185565b5050565b60008135905061013d816101f3565b92915050565b6000815190506101528161020a565b92915050565b60006020828403121561016e5761016d6101ee565b5b600061017c8482850161012e565b91505092915050565b60006020828403121561019b5761019a6101ee565b5b60006101a984828501610143565b91505092915050565b60006101bd826101c4565b9050919050565b600073ffffffffffffffffffffffffffffffffffffffff82169050919050565b6000819050919050565b600080fd5b6101fc816101b2565b811461020757600080fd5b50565b610213816101e4565b811461021e57600080fd5b5056fea26469706673582212206eeccd51f3e197d1646798321463169f163b40e74f17fbfe25186194316aaafc64736f6c63430008070033",
					"opcodes": "PUSH1 0x80 PUSH1 0x40 MSTORE CALLVALUE DUP1 ISZERO PUSH2 0x10 JUMPI PUSH1 0x0 DUP1 REVERT JUMPDEST POP PUSH2 0x257 DUP1 PUSH2 0x20 PUSH1 0x0 CODECOPY PUSH1 0x0 RETURN INVALID PUSH1 0x80 PUSH1 0x40 MSTORE CALLVALUE DUP1 ISZERO PUSH2 0x10 JUMPI PUSH1 0x0 DUP1 REVERT JUMPDEST POP PUSH1 0x4 CALLDATASIZE LT PUSH2 0x2B JUMPI PUSH1 0x0 CALLDATALOAD PUSH1 0xE0 SHR DUP1 PUSH4 0xF1B9B841 EQ PUSH2 0x30 JUMPI JUMPDEST PUSH1 0x0 DUP1 REVERT JUMPDEST PUSH2 0x4A PUSH1 0x4 DUP1 CALLDATASIZE SUB DUP2 ADD SWAP1 PUSH2 0x45 SWAP2 SWAP1 PUSH2 0x158 JUMP JUMPDEST PUSH2 0x4C JUMP JUMPDEST STOP JUMPDEST DUP1 PUSH20 0xFFFFFFFFFFFFFFFFFFFFFFFFFFFFFFFFFFFFFFFF AND PUSH4 0xE8927FBC PUSH1 0x40 MLOAD DUP2 PUSH4 0xFFFFFFFF AND PUSH1 0xE0 SHL DUP2 MSTORE PUSH1 0x4 ADD PUSH1 0x0 PUSH1 0x40 MLOAD DUP1 DUP4 SUB DUP2 PUSH1 0x0 DUP8 DUP1 EXTCODESIZE ISZERO DUP1 ISZERO PUSH2 0x94 JUMPI PUSH1 0x0 DUP1 REVERT JUMPDEST POP GAS CALL ISZERO DUP1 ISZERO PUSH2 0xA8 JUMPI RETURNDATASIZE PUSH1 0x0 DUP1 RETURNDATACOPY RETURNDATASIZE PUSH1 0x0 REVERT JUMPDEST POP POP POP POP DUP1 PUSH20 0xFFFFFFFFFFFFFFFFFFFFFFFFFFFFFFFFFFFFFFFF AND PUSH4 0x6661ABD PUSH1 0x40 MLOAD DUP2 PUSH4 0xFFFFFFFF AND PUSH1 0xE0 SHL DUP2 MSTORE PUSH1 0x4 ADD PUSH1 0x20 PUSH1 0x40 MLOAD DUP1 DUP4 SUB DUP2 DUP7 DUP1 EXTCODESIZE ISZERO DUP1 ISZERO PUSH2 0xF2 JUMPI PUSH1 0x0 DUP1 REVERT JUMPDEST POP GAS STATICCALL ISZERO DUP1 ISZERO PUSH2 0x106 JUMPI RETURNDATASIZE PUSH1 0x0 DUP1 RETURNDATACOPY RETURNDATASIZE PUSH1 0x0 REVERT JUMPDEST POP POP POP POP PUSH1 0x40 MLOAD RETURNDATASIZE PUSH1 0x1F NOT PUSH1 0x1F DUP3 ADD AND DUP3 ADD DUP1 PUSH1 0x40 MSTORE POP DUP2 ADD SWAP1 PUSH2 0x12A SWAP2 SWAP1 PUSH2 0x185 JUMP JUMPDEST POP POP JUMP JUMPDEST PUSH1 0x0 DUP2 CALLDATALOAD SWAP1 POP PUSH2 0x13D DUP2 PUSH2 0x1F3 JUMP JUMPDEST SWAP3 SWAP2 POP POP JUMP JUMPDEST PUSH1 0x0 DUP2 MLOAD SWAP1 POP PUSH2 0x152 DUP2 PUSH2 0x20A JUMP JUMPDEST SWAP3 SWAP2 POP POP JUMP JUMPDEST PUSH1 0x0 PUSH1 0x20 DUP3 DUP5 SUB SLT ISZERO PUSH2 0x16E JUMPI PUSH2 0x16D PUSH2 0x1EE JUMP JUMPDEST JUMPDEST PUSH1 0x0 PUSH2 0x17C DUP5 DUP3 DUP6 ADD PUSH2 0x12E JUMP JUMPDEST SWAP2 POP POP SWAP3 SWAP2 POP POP JUMP JUMPDEST PUSH1 0x0 PUSH1 0x20 DUP3 DUP5 SUB SLT ISZERO PUSH2 0x19B JUMPI PUSH2 0x19A PUSH2 0x1EE JUMP JUMPDEST JUMPDEST PUSH1 0x0 PUSH2 0x1A9 DUP5 DUP3 DUP6 ADD PUSH2 0x143 JUMP JUMPDEST SWAP2 POP POP SWAP3 SWAP2 POP POP JUMP JUMPDEST PUSH1 0x0 PUSH2 0x1BD DUP3 PUSH2 0x1C4 JUMP JUMPDEST SWAP1 POP SWAP2 SWAP1 POP JUMP JUMPDEST PUSH1 0x0 PUSH20 0xFFFFFFFFFFFFFFFFFFFFFFFFFFFFFFFFFFFFFFFF DUP3 AND SWAP1 POP SWAP2 SWAP1 POP JUMP JUMPDEST PUSH1 0x0 DUP2 SWAP1 POP SWAP2 SWAP1 POP JUMP JUMPDEST PUSH1 0x0 DUP1 REVERT JUMPDEST PUSH2 0x1FC DUP2 PUSH2 0x1B2 JUMP JUMPDEST DUP2 EQ PUSH2 0x207 JUMPI PUSH1 0x0 DUP1 REVERT JUMPDEST POP JUMP JUMPDEST PUSH2 0x213 DUP2 PUSH2 0x1E4 JUMP JUMPDEST DUP2 EQ PUSH2 0x21E JUMPI PUSH1 0x0 DUP1 REVERT JUMPDEST POP JUMP INVALID LOG2 PUSH5 0x6970667358 0x22 SLT KECCAK256 PUSH15 0xECCD51F3E197D1646798321463169F AND EXTCODESIZE BLOCKHASH 0xE7 0x4F OR 0xFB INVALID 0x25 XOR PUSH2 0x9431 PUSH11 0xAAFC64736F6C6343000807 STOP CALLER "
				},
				"gasEstimates": {
					"creation": {
						"codeDepositCost": "119800",
						"executionCost": "165",
						"totalCost": "119965"
					},
					"external": {
						"call1(address)": "infinite"
					}
				},
				"methodIdentifiers": {
					"call1(address)": "f1b9b841"
				}
			},
			"storageLayout": {
				"storage": [],
				"types": null
			},
			"userdoc": {
				"kind": "user",
				"methods": {},
				"version": 1
			}
		}
	}
}