{
	"ArrayRemove.sol": {
		"ArrayRemove": {
			"abi": [
				{
					"inputs": [
						{
							"internalType": "uint256",
							"name": "",
							"type": "uint256"
						}
					],
					"name": "arr",
					"outputs": [
						{
							"internalType": "uint256",
							"name": "",
							"type": "uint256"
						}
					],
					"stateMutability": "view",
					"type": "function"
				},
				{
					"inputs": [
						{
							"internalType": "uint256",
							"name": "index",
							"type": "uint256"
						}
					],
					"name": "remove",
					"outputs": [],
					"stateMutability": "nonpayable",
					"type": "function"
				},
				{
					"inputs": [],
					"name": "test1",
					"outputs": [],
					"stateMutability": "nonpayable",
					"type": "function"
				}
			],
			"devdoc": {
				"kind": "dev",
				"methods": {},
				"version": 1
			},
			"evm": {
				"assembly": "    /* \"ArrayRemove.sol\":75:662  contract ArrayRemove{... */\n  mstore(0x40, 0x80)\n  callvalue\n  dup1\n  iszero\n  tag_1\n  jumpi\n  0x00\n  dup1\n  revert\ntag_1:\n  pop\n  dataSize(sub_0)\n  dup1\n  dataOffset(sub_0)\n  0x00\n  codecopy\n  0x00\n  return\nstop\n\nsub_0: assembly {\n        /* \"ArrayRemove.sol\":75:662  contract ArrayRemove{... */\n      mstore(0x40, 0x80)\n      callvalue\n      dup1\n      iszero\n      tag_1\n      jumpi\n      0x00\n      dup1\n      revert\n    tag_1:\n      pop\n      jumpi(tag_2, lt(calldatasize, 0x04))\n      shr(0xe0, calldataload(0x00))\n      dup1\n      0x4cc82215\n      eq\n      tag_3\n      jumpi\n      dup1\n      0x6b59084d\n      eq\n      tag_4\n      jumpi\n      dup1\n      0x71e5ee5f\n      eq\n      tag_5\n      jumpi\n    tag_2:\n      0x00\n      dup1\n      revert\n        /* \"ArrayRemove.sol\":125:347  function remove(uint index) public{... */\n    tag_3:\n      tag_6\n      0x04\n      dup1\n      calldatasize\n      sub\n      dup2\n      add\n      swap1\n      tag_7\n      swap2\n      swap1\n      tag_8\n      jump\t// in\n    tag_7:\n      tag_9\n      jump\t// in\n    tag_6:\n      stop\n        /* \"ArrayRemove.sol\":353:660  function test1() external{... */\n    tag_4:\n      tag_10\n      tag_11\n      jump\t// in\n    tag_10:\n      stop\n        /* \"ArrayRemove.sol\":101:118  uint[] public arr */\n    tag_5:\n      tag_12\n      0x04\n      dup1\n      calldatasize\n      sub\n      dup2\n      add\n      swap1\n      tag_13\n      swap2\n      swap1\n      tag_8\n      jump\t// in\n    tag_13:\n      tag_14\n      jump\t// in\n    tag_12:\n      mload(0x40)\n      tag_15\n      swap2\n      swap1\n      tag_16\n      jump\t// in\n    tag_15:\n      mload(0x40)\n      dup1\n      swap2\n      sub\n      swap1\n      return\n        /* \"ArrayRemove.sol\":125:347  function remove(uint index) public{... */\n    tag_9:\n        /* \"ArrayRemove.sol\":169:180  uint length */\n      0x00\n        /* \"ArrayRemove.sol\":183:186  arr */\n      dup1\n        /* \"ArrayRemove.sol\":183:193  arr.length */\n      dup1\n      sload\n      swap1\n      pop\n        /* \"ArrayRemove.sol\":169:193  uint length = arr.length */\n      swap1\n      pop\n        /* \"ArrayRemove.sol\":224:225  1 */\n      0x01\n        /* \"ArrayRemove.sol\":215:221  length */\n      dup2\n        /* \"ArrayRemove.sol\":215:225  length - 1 */\n      tag_18\n      swap2\n      swap1\n      tag_19\n      jump\t// in\n    tag_18:\n        /* \"ArrayRemove.sol\":206:211  index */\n      dup3\n        /* \"ArrayRemove.sol\":206:225  index == length - 1 */\n      sub\n        /* \"ArrayRemove.sol\":203:341  if(index == length - 1){... */\n      tag_20\n      jumpi\n        /* \"ArrayRemove.sol\":240:243  arr */\n      0x00\n        /* \"ArrayRemove.sol\":240:249  arr.pop() */\n      dup1\n      sload\n      dup1\n      tag_21\n      jumpi\n      tag_22\n      tag_23\n      jump\t// in\n    tag_22:\n    tag_21:\n      0x01\n      swap1\n      sub\n      dup2\n      dup2\n      swap1\n      0x00\n      mstore\n      keccak256(0x00, 0x20)\n      add\n      0x00\n      swap1\n      sstore\n      swap1\n      sstore\n        /* \"ArrayRemove.sol\":203:341  if(index == length - 1){... */\n      jump(tag_25)\n    tag_20:\n        /* \"ArrayRemove.sol\":292:295  arr */\n      0x00\n        /* \"ArrayRemove.sol\":305:306  1 */\n      0x01\n        /* \"ArrayRemove.sol\":296:302  length */\n      dup3\n        /* \"ArrayRemove.sol\":296:306  length - 1 */\n      tag_26\n      swap2\n      swap1\n      tag_19\n      jump\t// in\n    tag_26:\n        /* \"ArrayRemove.sol\":292:307  arr[length - 1] */\n      dup2\n      sload\n      dup2\n      lt\n      tag_27\n      jumpi\n      tag_28\n      tag_29\n      jump\t// in\n    tag_28:\n    tag_27:\n      swap1\n      0x00\n      mstore\n      keccak256(0x00, 0x20)\n      add\n      sload\n        /* \"ArrayRemove.sol\":279:282  arr */\n      0x00\n        /* \"ArrayRemove.sol\":283:288  index */\n      dup4\n        /* \"ArrayRemove.sol\":279:289  arr[index] */\n      dup2\n      sload\n      dup2\n      lt\n      tag_31\n      jumpi\n      tag_32\n      tag_29\n      jump\t// in\n    tag_32:\n    tag_31:\n      swap1\n      0x00\n      mstore\n      keccak256(0x00, 0x20)\n      add\n        /* \"ArrayRemove.sol\":279:307  arr[index] = arr[length - 1] */\n      dup2\n      swap1\n      sstore\n      pop\n        /* \"ArrayRemove.sol\":321:324  arr */\n      0x00\n        /* \"ArrayRemove.sol\":321:330  arr.pop() */\n      dup1\n      sload\n      dup1\n      tag_34\n      jumpi\n      tag_35\n      tag_23\n      jump\t// in\n    tag_35:\n    tag_34:\n      0x01\n      swap1\n      sub\n      dup2\n      dup2\n      swap1\n      0x00\n      mstore\n      keccak256(0x00, 0x20)\n      add\n      0x00\n      swap1\n      sstore\n      swap1\n      sstore\n        /* \"ArrayRemove.sol\":203:341  if(index == length - 1){... */\n    tag_25:\n        /* \"ArrayRemove.sol\":159:347  {... */\n      pop\n        /* \"ArrayRemove.sol\":125:347  function remove(uint index) public{... */\n      pop\n      jump\t// out\n        /* \"ArrayRemove.sol\":353:660  function test1() external{... */\n    tag_11:\n        /* \"ArrayRemove.sol\":388:403  arr = [1,2,3,4] */\n      mload(0x40)\n      dup1\n      0x80\n      add\n      0x40\n      mstore\n      dup1\n        /* \"ArrayRemove.sol\":395:396  1 */\n      0x01\n        /* \"ArrayRemove.sol\":388:403  arr = [1,2,3,4] */\n      0xff\n      and\n      dup2\n      mstore\n      0x20\n      add\n        /* \"ArrayRemove.sol\":397:398  2 */\n      0x02\n        /* \"ArrayRemove.sol\":388:403  arr = [1,2,3,4] */\n      0xff\n      and\n      dup2\n      mstore\n      0x20\n      add\n        /* \"ArrayRemove.sol\":399:400  3 */\n      0x03\n        /* \"ArrayRemove.sol\":388:403  arr = [1,2,3,4] */\n      0xff\n      and\n      dup2\n      mstore\n      0x20\n      add\n        /* \"ArrayRemove.sol\":401:402  4 */\n      0x04\n        /* \"ArrayRemove.sol\":388:403  arr = [1,2,3,4] */\n      0xff\n      and\n      dup2\n      mstore\n      pop\n        /* \"ArrayRemove.sol\":388:391  arr */\n      0x00\n        /* \"ArrayRemove.sol\":388:403  arr = [1,2,3,4] */\n      swap1\n      0x04\n      tag_38\n      swap3\n      swap2\n      swap1\n      tag_39\n      jump\t// in\n    tag_38:\n      pop\n        /* \"ArrayRemove.sol\":413:422  remove(1) */\n      tag_40\n        /* \"ArrayRemove.sol\":420:421  1 */\n      0x01\n        /* \"ArrayRemove.sol\":413:419  remove */\n      tag_9\n        /* \"ArrayRemove.sol\":413:422  remove(1) */\n      jump\t// in\n    tag_40:\n        /* \"ArrayRemove.sol\":453:454  3 */\n      0x03\n        /* \"ArrayRemove.sol\":439:442  arr */\n      0x00\n        /* \"ArrayRemove.sol\":439:449  arr.length */\n      dup1\n      sload\n      swap1\n      pop\n        /* \"ArrayRemove.sol\":439:454  arr.length == 3 */\n      eq\n        /* \"ArrayRemove.sol\":432:455  assert(arr.length == 3) */\n      tag_41\n      jumpi\n      tag_42\n      tag_43\n      jump\t// in\n    tag_42:\n    tag_41:\n        /* \"ArrayRemove.sol\":482:483  1 */\n      0x01\n        /* \"ArrayRemove.sol\":472:475  arr */\n      0x00\n        /* \"ArrayRemove.sol\":476:477  0 */\n      dup1\n        /* \"ArrayRemove.sol\":472:478  arr[0] */\n      dup2\n      sload\n      dup2\n      lt\n      tag_44\n      jumpi\n      tag_45\n      tag_29\n      jump\t// in\n    tag_45:\n    tag_44:\n      swap1\n      0x00\n      mstore\n      keccak256(0x00, 0x20)\n      add\n      sload\n        /* \"ArrayRemove.sol\":472:483  arr[0] == 1 */\n      eq\n        /* \"ArrayRemove.sol\":465:484  assert(arr[0] == 1) */\n      tag_47\n      jumpi\n      tag_48\n      tag_43\n      jump\t// in\n    tag_48:\n    tag_47:\n        /* \"ArrayRemove.sol\":511:512  4 */\n      0x04\n        /* \"ArrayRemove.sol\":501:504  arr */\n      0x00\n        /* \"ArrayRemove.sol\":505:506  1 */\n      0x01\n        /* \"ArrayRemove.sol\":501:507  arr[1] */\n      dup2\n      sload\n      dup2\n      lt\n      tag_49\n      jumpi\n      tag_50\n      tag_29\n      jump\t// in\n    tag_50:\n    tag_49:\n      swap1\n      0x00\n      mstore\n      keccak256(0x00, 0x20)\n      add\n      sload\n        /* \"ArrayRemove.sol\":501:512  arr[1] == 4 */\n      eq\n        /* \"ArrayRemove.sol\":494:513  assert(arr[1] == 4) */\n      tag_52\n      jumpi\n      tag_53\n      tag_43\n      jump\t// in\n    tag_53:\n    tag_52:\n        /* \"ArrayRemove.sol\":540:541  3 */\n      0x03\n        /* \"ArrayRemove.sol\":530:533  arr */\n      0x00\n        /* \"ArrayRemove.sol\":534:535  2 */\n      0x02\n        /* \"ArrayRemove.sol\":530:536  arr[2] */\n      dup2\n      sload\n      dup2\n      lt\n      tag_54\n      jumpi\n      tag_55\n      tag_29\n      jump\t// in\n    tag_55:\n    tag_54:\n      swap1\n      0x00\n      mstore\n      keccak256(0x00, 0x20)\n      add\n      sload\n        /* \"ArrayRemove.sol\":530:541  arr[2] == 3 */\n      eq\n        /* \"ArrayRemove.sol\":523:542  assert(arr[2] == 3) */\n      tag_57\n      jumpi\n      tag_58\n      tag_43\n      jump\t// in\n    tag_58:\n    tag_57:\n        /* \"ArrayRemove.sol\":553:562  remove(2) */\n      tag_59\n        /* \"ArrayRemove.sol\":560:561  2 */\n      0x02\n        /* \"ArrayRemove.sol\":553:559  remove */\n      tag_9\n        /* \"ArrayRemove.sol\":553:562  remove(2) */\n      jump\t// in\n    tag_59:\n        /* \"ArrayRemove.sol\":593:594  2 */\n      0x02\n        /* \"ArrayRemove.sol\":579:582  arr */\n      0x00\n        /* \"ArrayRemove.sol\":579:589  arr.length */\n      dup1\n      sload\n      swap1\n      pop\n        /* \"ArrayRemove.sol\":579:594  arr.length == 2 */\n      eq\n        /* \"ArrayRemove.sol\":572:595  assert(arr.length == 2) */\n      tag_60\n      jumpi\n      tag_61\n      tag_43\n      jump\t// in\n    tag_61:\n    tag_60:\n        /* \"ArrayRemove.sol\":622:623  1 */\n      0x01\n        /* \"ArrayRemove.sol\":612:615  arr */\n      0x00\n        /* \"ArrayRemove.sol\":616:617  0 */\n      dup1\n        /* \"ArrayRemove.sol\":612:618  arr[0] */\n      dup2\n      sload\n      dup2\n      lt\n      tag_62\n      jumpi\n      tag_63\n      tag_29\n      jump\t// in\n    tag_63:\n    tag_62:\n      swap1\n      0x00\n      mstore\n      keccak256(0x00, 0x20)\n      add\n      sload\n        /* \"ArrayRemove.sol\":612:623  arr[0] == 1 */\n      eq\n        /* \"ArrayRemove.sol\":605:624  assert(arr[0] == 1) */\n      tag_65\n      jumpi\n      tag_66\n      tag_43\n      jump\t// in\n    tag_66:\n    tag_65:\n        /* \"ArrayRemove.sol\":651:652  4 */\n      0x04\n        /* \"ArrayRemove.sol\":641:644  arr */\n      0x00\n        /* \"ArrayRemove.sol\":645:646  1 */\n      0x01\n        /* \"ArrayRemove.sol\":641:647  arr[1] */\n      dup2\n      sload\n      dup2\n      lt\n      tag_67\n      jumpi\n      tag_68\n      tag_29\n      jump\t// in\n    tag_68:\n    tag_67:\n      swap1\n      0x00\n      mstore\n      keccak256(0x00, 0x20)\n      add\n      sload\n        /* \"ArrayRemove.sol\":641:652  arr[1] == 4 */\n      eq\n        /* \"ArrayRemove.sol\":634:653  assert(arr[1] == 4) */\n      tag_70\n      jumpi\n      tag_71\n      tag_43\n      jump\t// in\n    tag_71:\n    tag_70:\n        /* \"ArrayRemove.sol\":353:660  function test1() external{... */\n      jump\t// out\n        /* \"ArrayRemove.sol\":101:118  uint[] public arr */\n    tag_14:\n      0x00\n      dup2\n      dup2\n      sload\n      dup2\n      lt\n      tag_72\n      jumpi\n      0x00\n      dup1\n      revert\n    tag_72:\n      swap1\n      0x00\n      mstore\n      keccak256(0x00, 0x20)\n      add\n      0x00\n      swap2\n      pop\n      swap1\n      pop\n      sload\n      dup2\n      jump\t// out\n    tag_39:\n      dup3\n      dup1\n      sload\n      dup3\n      dup3\n      sstore\n      swap1\n      0x00\n      mstore\n      keccak256(0x00, 0x20)\n      swap1\n      dup2\n      add\n      swap3\n      dup3\n      iszero\n      tag_74\n      jumpi\n      swap2\n      0x20\n      mul\n      dup3\n      add\n    tag_75:\n      dup3\n      dup2\n      gt\n      iszero\n      tag_76\n      jumpi\n      dup3\n      mload\n      dup3\n      swap1\n      0xff\n      and\n      swap1\n      sstore\n      swap2\n      0x20\n      add\n      swap2\n      swap1\n      0x01\n      add\n      swap1\n      jump(tag_75)\n    tag_76:\n    tag_74:\n      pop\n      swap1\n      pop\n      tag_77\n      swap2\n      swap1\n      tag_78\n      jump\t// in\n    tag_77:\n      pop\n      swap1\n      jump\t// out\n    tag_78:\n    tag_79:\n      dup1\n      dup3\n      gt\n      iszero\n      tag_80\n      jumpi\n      0x00\n      dup2\n      0x00\n      swap1\n      sstore\n      pop\n      0x01\n      add\n      jump(tag_79)\n    tag_80:\n      pop\n      swap1\n      jump\t// out\n        /* \"#utility.yul\":88:205   */\n    tag_82:\n        /* \"#utility.yul\":197:198   */\n      0x00\n        /* \"#utility.yul\":194:195   */\n      dup1\n        /* \"#utility.yul\":187:199   */\n      revert\n        /* \"#utility.yul\":334:411   */\n    tag_84:\n        /* \"#utility.yul\":371:378   */\n      0x00\n        /* \"#utility.yul\":400:405   */\n      dup2\n        /* \"#utility.yul\":389:405   */\n      swap1\n      pop\n        /* \"#utility.yul\":334:411   */\n      swap2\n      swap1\n      pop\n      jump\t// out\n        /* \"#utility.yul\":417:539   */\n    tag_85:\n        /* \"#utility.yul\":490:514   */\n      tag_95\n        /* \"#utility.yul\":508:513   */\n      dup2\n        /* \"#utility.yul\":490:514   */\n      tag_84\n      jump\t// in\n    tag_95:\n        /* \"#utility.yul\":483:488   */\n      dup2\n        /* \"#utility.yul\":480:515   */\n      eq\n        /* \"#utility.yul\":470:533   */\n      tag_96\n      jumpi\n        /* \"#utility.yul\":529:530   */\n      0x00\n        /* \"#utility.yul\":526:527   */\n      dup1\n        /* \"#utility.yul\":519:531   */\n      revert\n        /* \"#utility.yul\":470:533   */\n    tag_96:\n        /* \"#utility.yul\":417:539   */\n      pop\n      jump\t// out\n        /* \"#utility.yul\":545:684   */\n    tag_86:\n        /* \"#utility.yul\":591:596   */\n      0x00\n        /* \"#utility.yul\":629:635   */\n      dup2\n        /* \"#utility.yul\":616:636   */\n      calldataload\n        /* \"#utility.yul\":607:636   */\n      swap1\n      pop\n        /* \"#utility.yul\":645:678   */\n      tag_98\n        /* \"#utility.yul\":672:677   */\n      dup2\n        /* \"#utility.yul\":645:678   */\n      tag_85\n      jump\t// in\n    tag_98:\n        /* \"#utility.yul\":545:684   */\n      swap3\n      swap2\n      pop\n      pop\n      jump\t// out\n        /* \"#utility.yul\":690:1019   */\n    tag_8:\n        /* \"#utility.yul\":749:755   */\n      0x00\n        /* \"#utility.yul\":798:800   */\n      0x20\n        /* \"#utility.yul\":786:795   */\n      dup3\n        /* \"#utility.yul\":777:784   */\n      dup5\n        /* \"#utility.yul\":773:796   */\n      sub\n        /* \"#utility.yul\":769:801   */\n      slt\n        /* \"#utility.yul\":766:885   */\n      iszero\n      tag_100\n      jumpi\n        /* \"#utility.yul\":804:883   */\n      tag_101\n      tag_82\n      jump\t// in\n    tag_101:\n        /* \"#utility.yul\":766:885   */\n    tag_100:\n        /* \"#utility.yul\":924:925   */\n      0x00\n        /* \"#utility.yul\":949:1002   */\n      tag_102\n        /* \"#utility.yul\":994:1001   */\n      dup5\n        /* \"#utility.yul\":985:991   */\n      dup3\n        /* \"#utility.yul\":974:983   */\n      dup6\n        /* \"#utility.yul\":970:992   */\n      add\n        /* \"#utility.yul\":949:1002   */\n      tag_86\n      jump\t// in\n    tag_102:\n        /* \"#utility.yul\":939:1002   */\n      swap2\n      pop\n        /* \"#utility.yul\":895:1012   */\n      pop\n        /* \"#utility.yul\":690:1019   */\n      swap3\n      swap2\n      pop\n      pop\n      jump\t// out\n        /* \"#utility.yul\":1025:1143   */\n    tag_87:\n        /* \"#utility.yul\":1112:1136   */\n      tag_104\n        /* \"#utility.yul\":1130:1135   */\n      dup2\n        /* \"#utility.yul\":1112:1136   */\n      tag_84\n      jump\t// in\n    tag_104:\n        /* \"#utility.yul\":1107:1110   */\n      dup3\n        /* \"#utility.yul\":1100:1137   */\n      mstore\n        /* \"#utility.yul\":1025:1143   */\n      pop\n      pop\n      jump\t// out\n        /* \"#utility.yul\":1149:1371   */\n    tag_16:\n        /* \"#utility.yul\":1242:1246   */\n      0x00\n        /* \"#utility.yul\":1280:1282   */\n      0x20\n        /* \"#utility.yul\":1269:1278   */\n      dup3\n        /* \"#utility.yul\":1265:1283   */\n      add\n        /* \"#utility.yul\":1257:1283   */\n      swap1\n      pop\n        /* \"#utility.yul\":1293:1364   */\n      tag_106\n        /* \"#utility.yul\":1361:1362   */\n      0x00\n        /* \"#utility.yul\":1350:1359   */\n      dup4\n        /* \"#utility.yul\":1346:1363   */\n      add\n        /* \"#utility.yul\":1337:1343   */\n      dup5\n        /* \"#utility.yul\":1293:1364   */\n      tag_87\n      jump\t// in\n    tag_106:\n        /* \"#utility.yul\":1149:1371   */\n      swap3\n      swap2\n      pop\n      pop\n      jump\t// out\n        /* \"#utility.yul\":1377:1557   */\n    tag_88:\n        /* \"#utility.yul\":1425:1502   */\n      0x4e487b7100000000000000000000000000000000000000000000000000000000\n        /* \"#utility.yul\":1422:1423   */\n      0x00\n        /* \"#utility.yul\":1415:1503   */\n      mstore\n        /* \"#utility.yul\":1522:1526   */\n      0x11\n        /* \"#utility.yul\":1519:1520   */\n      0x04\n        /* \"#utility.yul\":1512:1527   */\n      mstore\n        /* \"#utility.yul\":1546:1550   */\n      0x24\n        /* \"#utility.yul\":1543:1544   */\n      0x00\n        /* \"#utility.yul\":1536:1551   */\n      revert\n        /* \"#utility.yul\":1563:1757   */\n    tag_19:\n        /* \"#utility.yul\":1603:1607   */\n      0x00\n        /* \"#utility.yul\":1623:1643   */\n      tag_109\n        /* \"#utility.yul\":1641:1642   */\n      dup3\n        /* \"#utility.yul\":1623:1643   */\n      tag_84\n      jump\t// in\n    tag_109:\n        /* \"#utility.yul\":1618:1643   */\n      swap2\n      pop\n        /* \"#utility.yul\":1657:1677   */\n      tag_110\n        /* \"#utility.yul\":1675:1676   */\n      dup4\n        /* \"#utility.yul\":1657:1677   */\n      tag_84\n      jump\t// in\n    tag_110:\n        /* \"#utility.yul\":1652:1677   */\n      swap3\n      pop\n        /* \"#utility.yul\":1701:1702   */\n      dup3\n        /* \"#utility.yul\":1698:1699   */\n      dup3\n        /* \"#utility.yul\":1694:1703   */\n      sub\n        /* \"#utility.yul\":1686:1703   */\n      swap1\n      pop\n        /* \"#utility.yul\":1725:1726   */\n      dup2\n        /* \"#utility.yul\":1719:1723   */\n      dup2\n        /* \"#utility.yul\":1716:1727   */\n      gt\n        /* \"#utility.yul\":1713:1750   */\n      iszero\n      tag_111\n      jumpi\n        /* \"#utility.yul\":1730:1748   */\n      tag_112\n      tag_88\n      jump\t// in\n    tag_112:\n        /* \"#utility.yul\":1713:1750   */\n    tag_111:\n        /* \"#utility.yul\":1563:1757   */\n      swap3\n      swap2\n      pop\n      pop\n      jump\t// out\n        /* \"#utility.yul\":1763:1943   */\n    tag_23:\n        /* \"#utility.yul\":1811:1888   */\n      0x4e487b7100000000000000000000000000000000000000000000000000000000\n        /* \"#utility.yul\":1808:1809   */\n      0x00\n        /* \"#utility.yul\":1801:1889   */\n      mstore\n        /* \"#utility.yul\":1908:1912   */\n      0x31\n        /* \"#utility.yul\":1905:1906   */\n      0x04\n        /* \"#utility.yul\":1898:1913   */\n      mstore\n        /* \"#utility.yul\":1932:1936   */\n      0x24\n        /* \"#utility.yul\":1929:1930   */\n      0x00\n        /* \"#utility.yul\":1922:1937   */\n      revert\n        /* \"#utility.yul\":1949:2129   */\n    tag_29:\n        /* \"#utility.yul\":1997:2074   */\n      0x4e487b7100000000000000000000000000000000000000000000000000000000\n        /* \"#utility.yul\":1994:1995   */\n      0x00\n        /* \"#utility.yul\":1987:2075   */\n      mstore\n        /* \"#utility.yul\":2094:2098   */\n      0x32\n        /* \"#utility.yul\":2091:2092   */\n      0x04\n        /* \"#utility.yul\":2084:2099   */\n      mstore\n        /* \"#utility.yul\":2118:2122   */\n      0x24\n        /* \"#utility.yul\":2115:2116   */\n      0x00\n        /* \"#utility.yul\":2108:2123   */\n      revert\n        /* \"#utility.yul\":2135:2315   */\n    tag_43:\n        /* \"#utility.yul\":2183:2260   */\n      0x4e487b7100000000000000000000000000000000000000000000000000000000\n        /* \"#utility.yul\":2180:2181   */\n      0x00\n        /* \"#utility.yul\":2173:2261   */\n      mstore\n        /* \"#utility.yul\":2280:2284   */\n      0x01\n        /* \"#utility.yul\":2277:2278   */\n      0x04\n        /* \"#utility.yul\":2270:2285   */\n      mstore\n        /* \"#utility.yul\":2304:2308   */\n      0x24\n        /* \"#utility.yul\":2301:2302   */\n      0x00\n        /* \"#utility.yul\":2294:2309   */\n      revert\n\n    auxdata: 0xa264697066735822122062600f4ef7f808ca8b9c7ec7a11094974aeda5d7bd0dc897da83ac309f7727e064736f6c63430008110033\n}\n",
				"bytecode": {
					"linkReferences": {},
					"object": "608060405234801561001057600080fd5b5061051c806100206000396000f3fe608060405234801561001057600080fd5b50600436106100415760003560e01c80634cc82215146100465780636b59084d1461006257806371e5ee5f1461006c575b600080fd5b610060600480360381019061005b919061039f565b61009c565b005b61006a61015f565b005b6100866004803603810190610081919061039f565b6102d1565b60405161009391906103db565b60405180910390f35b6000808054905090506001816100b29190610425565b82036100e55760008054806100ca576100c9610459565b5b6001900381819060005260206000200160009055905561015b565b60006001826100f49190610425565b8154811061010557610104610488565b5b90600052602060002001546000838154811061012457610123610488565b5b9060005260206000200181905550600080548061014457610143610459565b5b600190038181906000526020600020016000905590555b5050565b6040518060800160405280600160ff168152602001600260ff168152602001600360ff168152602001600460ff1681525060009060046101a09291906102f5565b506101ab600161009c565b6003600080549050146101c1576101c06104b7565b5b6001600080815481106101d7576101d6610488565b5b9060005260206000200154146101f0576101ef6104b7565b5b6004600060018154811061020757610206610488565b5b9060005260206000200154146102205761021f6104b7565b5b6003600060028154811061023757610236610488565b5b9060005260206000200154146102505761024f6104b7565b5b61025a600261009c565b6002600080549050146102705761026f6104b7565b5b60016000808154811061028657610285610488565b5b90600052602060002001541461029f5761029e6104b7565b5b600460006001815481106102b6576102b5610488565b5b9060005260206000200154146102cf576102ce6104b7565b5b565b600081815481106102e157600080fd5b906000526020600020016000915090505481565b828054828255906000526020600020908101928215610336579160200282015b82811115610335578251829060ff16905591602001919060010190610315565b5b5090506103439190610347565b5090565b5b80821115610360576000816000905550600101610348565b5090565b600080fd5b6000819050919050565b61037c81610369565b811461038757600080fd5b50565b60008135905061039981610373565b92915050565b6000602082840312156103b5576103b4610364565b5b60006103c38482850161038a565b91505092915050565b6103d581610369565b82525050565b60006020820190506103f060008301846103cc565b92915050565b7f4e487b7100000000000000000000000000000000000000000000000000000000600052601160045260246000fd5b600061043082610369565b915061043b83610369565b9250828203905081811115610453576104526103f6565b5b92915050565b7f4e487b7100000000000000000000000000000000000000000000000000000000600052603160045260246000fd5b7f4e487b7100000000000000000000000000000000000000000000000000000000600052603260045260246000fd5b7f4e487b7100000000000000000000000000000000000000000000000000000000600052600160045260246000fdfea264697066735822122062600f4ef7f808ca8b9c7ec7a11094974aeda5d7bd0dc897da83ac309f7727e064736f6c63430008110033",
					"opcodes": "PUSH1 0x80 PUSH1 0x40 MSTORE CALLVALUE DUP1 ISZERO PUSH2 0x10 JUMPI PUSH1 0x0 DUP1 REVERT JUMPDEST POP PUSH2 0x51C DUP1 PUSH2 0x20 PUSH1 0x0 CODECOPY PUSH1 0x0 RETURN INVALID PUSH1 0x80 PUSH1 0x40 MSTORE CALLVALUE DUP1 ISZERO PUSH2 0x10 JUMPI PUSH1 0x0 DUP1 REVERT JUMPDEST POP PUSH1 0x4 CALLDATASIZE LT PUSH2 0x41 JUMPI PUSH1 0x0 CALLDATALOAD PUSH1 0xE0 SHR DUP1 PUSH4 0x4CC82215 EQ PUSH2 0x46 JUMPI DUP1 PUSH4 0x6B59084D EQ PUSH2 0x62 JUMPI DUP1 PUSH4 0x71E5EE5F EQ PUSH2 0x6C JUMPI JUMPDEST PUSH1 0x0 DUP1 REVERT JUMPDEST PUSH2 0x60 PUSH1 0x4 DUP1 CALLDATASIZE SUB DUP2 ADD SWAP1 PUSH2 0x5B SWAP2 SWAP1 PUSH2 0x39F JUMP JUMPDEST PUSH2 0x9C JUMP JUMPDEST STOP JUMPDEST PUSH2 0x6A PUSH2 0x15F JUMP JUMPDEST STOP JUMPDEST PUSH2 0x86 PUSH1 0x4 DUP1 CALLDATASIZE SUB DUP2 ADD SWAP1 PUSH2 0x81 SWAP2 SWAP1 PUSH2 0x39F JUMP JUMPDEST PUSH2 0x2D1 JUMP JUMPDEST PUSH1 0x40 MLOAD PUSH2 0x93 SWAP2 SWAP1 PUSH2 0x3DB JUMP JUMPDEST PUSH1 0x40 MLOAD DUP1 SWAP2 SUB SWAP1 RETURN JUMPDEST PUSH1 0x0 DUP1 DUP1 SLOAD SWAP1 POP SWAP1 POP PUSH1 0x1 DUP2 PUSH2 0xB2 SWAP2 SWAP1 PUSH2 0x425 JUMP JUMPDEST DUP3 SUB PUSH2 0xE5 JUMPI PUSH1 0x0 DUP1 SLOAD DUP1 PUSH2 0xCA JUMPI PUSH2 0xC9 PUSH2 0x459 JUMP JUMPDEST JUMPDEST PUSH1 0x1 SWAP1 SUB DUP2 DUP2 SWAP1 PUSH1 0x0 MSTORE PUSH1 0x20 PUSH1 0x0 KECCAK256 ADD PUSH1 0x0 SWAP1 SSTORE SWAP1 SSTORE PUSH2 0x15B JUMP JUMPDEST PUSH1 0x0 PUSH1 0x1 DUP3 PUSH2 0xF4 SWAP2 SWAP1 PUSH2 0x425 JUMP JUMPDEST DUP2 SLOAD DUP2 LT PUSH2 0x105 JUMPI PUSH2 0x104 PUSH2 0x488 JUMP JUMPDEST JUMPDEST SWAP1 PUSH1 0x0 MSTORE PUSH1 0x20 PUSH1 0x0 KECCAK256 ADD SLOAD PUSH1 0x0 DUP4 DUP2 SLOAD DUP2 LT PUSH2 0x124 JUMPI PUSH2 0x123 PUSH2 0x488 JUMP JUMPDEST JUMPDEST SWAP1 PUSH1 0x0 MSTORE PUSH1 0x20 PUSH1 0x0 KECCAK256 ADD DUP2 SWAP1 SSTORE POP PUSH1 0x0 DUP1 SLOAD DUP1 PUSH2 0x144 JUMPI PUSH2 0x143 PUSH2 0x459 JUMP JUMPDEST JUMPDEST PUSH1 0x1 SWAP1 SUB DUP2 DUP2 SWAP1 PUSH1 0x0 MSTORE PUSH1 0x20 PUSH1 0x0 KECCAK256 ADD PUSH1 0x0 SWAP1 SSTORE SWAP1 SSTORE JUMPDEST POP POP JUMP JUMPDEST PUSH1 0x40 MLOAD DUP1 PUSH1 0x80 ADD PUSH1 0x40 MSTORE DUP1 PUSH1 0x1 PUSH1 0xFF AND DUP2 MSTORE PUSH1 0x20 ADD PUSH1 0x2 PUSH1 0xFF AND DUP2 MSTORE PUSH1 0x20 ADD PUSH1 0x3 PUSH1 0xFF AND DUP2 MSTORE PUSH1 0x20 ADD PUSH1 0x4 PUSH1 0xFF AND DUP2 MSTORE POP PUSH1 0x0 SWAP1 PUSH1 0x4 PUSH2 0x1A0 SWAP3 SWAP2 SWAP1 PUSH2 0x2F5 JUMP JUMPDEST POP PUSH2 0x1AB PUSH1 0x1 PUSH2 0x9C JUMP JUMPDEST PUSH1 0x3 PUSH1 0x0 DUP1 SLOAD SWAP1 POP EQ PUSH2 0x1C1 JUMPI PUSH2 0x1C0 PUSH2 0x4B7 JUMP JUMPDEST JUMPDEST PUSH1 0x1 PUSH1 0x0 DUP1 DUP2 SLOAD DUP2 LT PUSH2 0x1D7 JUMPI PUSH2 0x1D6 PUSH2 0x488 JUMP JUMPDEST JUMPDEST SWAP1 PUSH1 0x0 MSTORE PUSH1 0x20 PUSH1 0x0 KECCAK256 ADD SLOAD EQ PUSH2 0x1F0 JUMPI PUSH2 0x1EF PUSH2 0x4B7 JUMP JUMPDEST JUMPDEST PUSH1 0x4 PUSH1 0x0 PUSH1 0x1 DUP2 SLOAD DUP2 LT PUSH2 0x207 JUMPI PUSH2 0x206 PUSH2 0x488 JUMP JUMPDEST JUMPDEST SWAP1 PUSH1 0x0 MSTORE PUSH1 0x20 PUSH1 0x0 KECCAK256 ADD SLOAD EQ PUSH2 0x220 JUMPI PUSH2 0x21F PUSH2 0x4B7 JUMP JUMPDEST JUMPDEST PUSH1 0x3 PUSH1 0x0 PUSH1 0x2 DUP2 SLOAD DUP2 LT PUSH2 0x237 JUMPI PUSH2 0x236 PUSH2 0x488 JUMP JUMPDEST JUMPDEST SWAP1 PUSH1 0x0 MSTORE PUSH1 0x20 PUSH1 0x0 KECCAK256 ADD SLOAD EQ PUSH2 0x250 JUMPI PUSH2 0x24F PUSH2 0x4B7 JUMP JUMPDEST JUMPDEST PUSH2 0x25A PUSH1 0x2 PUSH2 0x9C JUMP JUMPDEST PUSH1 0x2 PUSH1 0x0 DUP1 SLOAD SWAP1 POP EQ PUSH2 0x270 JUMPI PUSH2 0x26F PUSH2 0x4B7 JUMP JUMPDEST JUMPDEST PUSH1 0x1 PUSH1 0x0 DUP1 DUP2 SLOAD DUP2 LT PUSH2 0x286 JUMPI PUSH2 0x285 PUSH2 0x488 JUMP JUMPDEST JUMPDEST SWAP1 PUSH1 0x0 MSTORE PUSH1 0x20 PUSH1 0x0 KECCAK256 ADD SLOAD EQ PUSH2 0x29F JUMPI PUSH2 0x29E PUSH2 0x4B7 JUMP JUMPDEST JUMPDEST PUSH1 0x4 PUSH1 0x0 PUSH1 0x1 DUP2 SLOAD DUP2 LT PUSH2 0x2B6 JUMPI PUSH2 0x2B5 PUSH2 0x488 JUMP JUMPDEST JUMPDEST SWAP1 PUSH1 0x0 MSTORE PUSH1 0x20 PUSH1 0x0 KECCAK256 ADD SLOAD EQ PUSH2 0x2CF JUMPI PUSH2 0x2CE PUSH2 0x4B7 JUMP JUMPDEST JUMPDEST JUMP JUMPDEST PUSH1 0x0 DUP2 DUP2 SLOAD DUP2 LT PUSH2 0x2E1 JUMPI PUSH1 0x0 DUP1 REVERT JUMPDEST SWAP1 PUSH1 0x0 MSTORE PUSH1 0x20 PUSH1 0x0 KECCAK256 ADD PUSH1 0x0 SWAP2 POP SWAP1 POP SLOAD DUP2 JUMP JUMPDEST DUP3 DUP1 SLOAD DUP3 DUP3 SSTORE SWAP1 PUSH1 0x0 MSTORE PUSH1 0x20 PUSH1 0x0 KECCAK256 SWAP1 DUP2 ADD SWAP3 DUP3 ISZERO PUSH2 0x336 JUMPI SWAP2 PUSH1 0x20 MUL DUP3 ADD JUMPDEST DUP3 DUP2 GT ISZERO PUSH2 0x335 JUMPI DUP3 MLOAD DUP3 SWAP1 PUSH1 0xFF AND SWAP1 SSTORE SWAP2 PUSH1 0x20 ADD SWAP2 SWAP1 PUSH1 0x1 ADD SWAP1 PUSH2 0x315 JUMP JUMPDEST JUMPDEST POP SWAP1 POP PUSH2 0x343 SWAP2 SWAP1 PUSH2 0x347 JUMP JUMPDEST POP SWAP1 JUMP JUMPDEST JUMPDEST DUP1 DUP3 GT ISZERO PUSH2 0x360 JUMPI PUSH1 0x0 DUP2 PUSH1 0x0 SWAP1 SSTORE POP PUSH1 0x1 ADD PUSH2 0x348 JUMP JUMPDEST POP SWAP1 JUMP JUMPDEST PUSH1 0x0 DUP1 REVERT JUMPDEST PUSH1 0x0 DUP2 SWAP1 POP SWAP2 SWAP1 POP JUMP JUMPDEST PUSH2 0x37C DUP2 PUSH2 0x369 JUMP JUMPDEST DUP2 EQ PUSH2 0x387 JUMPI PUSH1 0x0 DUP1 REVERT JUMPDEST POP JUMP JUMPDEST PUSH1 0x0 DUP2 CALLDATALOAD SWAP1 POP PUSH2 0x399 DUP2 PUSH2 0x373 JUMP JUMPDEST SWAP3 SWAP2 POP POP JUMP JUMPDEST PUSH1 0x0 PUSH1 0x20 DUP3 DUP5 SUB SLT ISZERO PUSH2 0x3B5 JUMPI PUSH2 0x3B4 PUSH2 0x364 JUMP JUMPDEST JUMPDEST PUSH1 0x0 PUSH2 0x3C3 DUP5 DUP3 DUP6 ADD PUSH2 0x38A JUMP JUMPDEST SWAP2 POP POP SWAP3 SWAP2 POP POP JUMP JUMPDEST PUSH2 0x3D5 DUP2 PUSH2 0x369 JUMP JUMPDEST DUP3 MSTORE POP POP JUMP JUMPDEST PUSH1 0x0 PUSH1 0x20 DUP3 ADD SWAP1 POP PUSH2 0x3F0 PUSH1 0x0 DUP4 ADD DUP5 PUSH2 0x3CC JUMP JUMPDEST SWAP3 SWAP2 POP POP JUMP JUMPDEST PUSH32 0x4E487B7100000000000000000000000000000000000000000000000000000000 PUSH1 0x0 MSTORE PUSH1 0x11 PUSH1 0x4 MSTORE PUSH1 0x24 PUSH1 0x0 REVERT JUMPDEST PUSH1 0x0 PUSH2 0x430 DUP3 PUSH2 0x369 JUMP JUMPDEST SWAP2 POP PUSH2 0x43B DUP4 PUSH2 0x369 JUMP JUMPDEST SWAP3 POP DUP3 DUP3 SUB SWAP1 POP DUP2 DUP2 GT ISZERO PUSH2 0x453 JUMPI PUSH2 0x452 PUSH2 0x3F6 JUMP JUMPDEST JUMPDEST SWAP3 SWAP2 POP POP JUMP JUMPDEST PUSH32 0x4E487B7100000000000000000000000000000000000000000000000000000000 PUSH1 0x0 MSTORE PUSH1 0x31 PUSH1 0x4 MSTORE PUSH1 0x24 PUSH1 0x0 REVERT JUMPDEST PUSH32 0x4E487B7100000000000000000000000000000000000000000000000000000000 PUSH1 0x0 MSTORE PUSH1 0x32 PUSH1 0x4 MSTORE PUSH1 0x24 PUSH1 0x0 REVERT JUMPDEST PUSH32 0x4E487B7100000000000000000000000000000000000000000000000000000000 PUSH1 0x0 MSTORE PUSH1 0x1 PUSH1 0x4 MSTORE PUSH1 0x24 PUSH1 0x0 REVERT INVALID LOG2 PUSH5 0x6970667358 0x22 SLT KECCAK256 PUSH3 0x600F4E 0xF7 0xF8 ADDMOD 0xCA DUP12 SWAP13 PUSH31 0xC7A11094974AEDA5D7BD0DC897DA83AC309F7727E064736F6C634300081100 CALLER "
				},
				"gasEstimates": {
					"creation": {
						"codeDepositCost": "261600",
						"executionCost": "300",
						"totalCost": "261900"
					},
					"external": {
						"arr(uint256)": "infinite",
						"remove(uint256)": "infinite",
						"test1()": "infinite"
					}
				},
				"methodIdentifiers": {
					"arr(uint256)": "71e5ee5f",
					"remove(uint256)": "4cc82215",
					"test1()": "6b59084d"
				}
			},
			"storageLayout": {
				"storage": [
					{
						"astId": 4,
						"contract": "ArrayRemove.sol:ArrayRemove",
						"label": "arr",
						"offset": 0,
						"slot": "0",
						"type": "t_array(t_uint256)dyn_storage"
					}
				],
				"types": {
					"t_array(t_uint256)dyn_storage": {
						"base": "t_uint256",
						"encoding": "dynamic_array",
						"label": "uint256[]",
						"numberOfBytes": "32"
					},
					"t_uint256": {
						"encoding": "inplace",
						"label": "uint256",
						"numberOfBytes": "32"
					}
				}
			},
			"userdoc": {
				"kind": "user",
				"methods": {},
				"version": 1
			}
		}
	}
}