{
	"Payable.sol": {
		"Payable": {
			"abi": [
				{
					"inputs": [],
					"stateMutability": "nonpayable",
					"type": "constructor"
				},
				{
					"inputs": [],
					"name": "deposit",
					"outputs": [],
					"stateMutability": "payable",
					"type": "function"
				},
				{
					"inputs": [],
					"name": "getBalance",
					"outputs": [
						{
							"internalType": "uint256",
							"name": "",
							"type": "uint256"
						}
					],
					"stateMutability": "view",
					"type": "function"
				},
				{
					"inputs": [],
					"name": "owner",
					"outputs": [
						{
							"internalType": "address payable",
							"name": "",
							"type": "address"
						}
					],
					"stateMutability": "view",
					"type": "function"
				}
			],
			"devdoc": {
				"kind": "dev",
				"methods": {},
				"version": 1
			},
			"evm": {
				"assembly": "    /* \"Payable.sol\":76:345  contract Payable {... */\n  mstore(0x40, 0x80)\n    /* \"Payable.sol\":135:193  constructor() {... */\n  callvalue\n  dup1\n  iszero\n  tag_1\n  jumpi\n  0x00\n  dup1\n  revert\ntag_1:\n  pop\n    /* \"Payable.sol\":175:185  msg.sender */\n  caller\n    /* \"Payable.sol\":159:164  owner */\n  0x00\n  dup1\n    /* \"Payable.sol\":159:186  owner = payable(msg.sender) */\n  0x0100\n  exp\n  dup2\n  sload\n  dup2\n  0xffffffffffffffffffffffffffffffffffffffff\n  mul\n  not\n  and\n  swap1\n  dup4\n  0xffffffffffffffffffffffffffffffffffffffff\n  and\n  mul\n  or\n  swap1\n  sstore\n  pop\n    /* \"Payable.sol\":76:345  contract Payable {... */\n  dataSize(sub_0)\n  dup1\n  dataOffset(sub_0)\n  0x00\n  codecopy\n  0x00\n  return\nstop\n\nsub_0: assembly {\n        /* \"Payable.sol\":76:345  contract Payable {... */\n      mstore(0x40, 0x80)\n      jumpi(tag_1, lt(calldatasize, 0x04))\n      shr(0xe0, calldataload(0x00))\n      dup1\n      0x12065fe0\n      eq\n      tag_2\n      jumpi\n      dup1\n      0x8da5cb5b\n      eq\n      tag_3\n      jumpi\n      dup1\n      0xd0e30db0\n      eq\n      tag_4\n      jumpi\n    tag_1:\n      0x00\n      dup1\n      revert\n        /* \"Payable.sol\":248:343  function getBalance() external view returns (uint){... */\n    tag_2:\n      callvalue\n      dup1\n      iszero\n      tag_5\n      jumpi\n      0x00\n      dup1\n      revert\n    tag_5:\n      pop\n      tag_6\n      tag_7\n      jump\t// in\n    tag_6:\n      mload(0x40)\n      tag_8\n      swap2\n      swap1\n      tag_9\n      jump\t// in\n    tag_8:\n      mload(0x40)\n      dup1\n      swap2\n      sub\n      swap1\n      return\n        /* \"Payable.sol\":100:128  address payable public owner */\n    tag_3:\n      callvalue\n      dup1\n      iszero\n      tag_10\n      jumpi\n      0x00\n      dup1\n      revert\n    tag_10:\n      pop\n      tag_11\n      tag_12\n      jump\t// in\n    tag_11:\n      mload(0x40)\n      tag_13\n      swap2\n      swap1\n      tag_14\n      jump\t// in\n    tag_13:\n      mload(0x40)\n      dup1\n      swap2\n      sub\n      swap1\n      return\n        /* \"Payable.sol\":199:242  function deposit() external payable{... */\n    tag_4:\n      tag_15\n      tag_16\n      jump\t// in\n    tag_15:\n      stop\n        /* \"Payable.sol\":248:343  function getBalance() external view returns (uint){... */\n    tag_7:\n        /* \"Payable.sol\":293:297  uint */\n      0x00\n        /* \"Payable.sol\":315:336  address(this).balance */\n      selfbalance\n        /* \"Payable.sol\":308:336  return address(this).balance */\n      swap1\n      pop\n        /* \"Payable.sol\":248:343  function getBalance() external view returns (uint){... */\n      swap1\n      jump\t// out\n        /* \"Payable.sol\":100:128  address payable public owner */\n    tag_12:\n      0x00\n      dup1\n      sload\n      swap1\n      0x0100\n      exp\n      swap1\n      div\n      0xffffffffffffffffffffffffffffffffffffffff\n      and\n      dup2\n      jump\t// out\n        /* \"Payable.sol\":199:242  function deposit() external payable{... */\n    tag_16:\n      jump\t// out\n        /* \"#utility.yul\":7:84   */\n    tag_19:\n        /* \"#utility.yul\":44:51   */\n      0x00\n        /* \"#utility.yul\":73:78   */\n      dup2\n        /* \"#utility.yul\":62:78   */\n      swap1\n      pop\n        /* \"#utility.yul\":7:84   */\n      swap2\n      swap1\n      pop\n      jump\t// out\n        /* \"#utility.yul\":90:208   */\n    tag_20:\n        /* \"#utility.yul\":177:201   */\n      tag_27\n        /* \"#utility.yul\":195:200   */\n      dup2\n        /* \"#utility.yul\":177:201   */\n      tag_19\n      jump\t// in\n    tag_27:\n        /* \"#utility.yul\":172:175   */\n      dup3\n        /* \"#utility.yul\":165:202   */\n      mstore\n        /* \"#utility.yul\":90:208   */\n      pop\n      pop\n      jump\t// out\n        /* \"#utility.yul\":214:436   */\n    tag_9:\n        /* \"#utility.yul\":307:311   */\n      0x00\n        /* \"#utility.yul\":345:347   */\n      0x20\n        /* \"#utility.yul\":334:343   */\n      dup3\n        /* \"#utility.yul\":330:348   */\n      add\n        /* \"#utility.yul\":322:348   */\n      swap1\n      pop\n        /* \"#utility.yul\":358:429   */\n      tag_29\n        /* \"#utility.yul\":426:427   */\n      0x00\n        /* \"#utility.yul\":415:424   */\n      dup4\n        /* \"#utility.yul\":411:428   */\n      add\n        /* \"#utility.yul\":402:408   */\n      dup5\n        /* \"#utility.yul\":358:429   */\n      tag_20\n      jump\t// in\n    tag_29:\n        /* \"#utility.yul\":214:436   */\n      swap3\n      swap2\n      pop\n      pop\n      jump\t// out\n        /* \"#utility.yul\":442:568   */\n    tag_21:\n        /* \"#utility.yul\":479:486   */\n      0x00\n        /* \"#utility.yul\":519:561   */\n      0xffffffffffffffffffffffffffffffffffffffff\n        /* \"#utility.yul\":512:517   */\n      dup3\n        /* \"#utility.yul\":508:562   */\n      and\n        /* \"#utility.yul\":497:562   */\n      swap1\n      pop\n        /* \"#utility.yul\":442:568   */\n      swap2\n      swap1\n      pop\n      jump\t// out\n        /* \"#utility.yul\":574:678   */\n    tag_22:\n        /* \"#utility.yul\":619:626   */\n      0x00\n        /* \"#utility.yul\":648:672   */\n      tag_32\n        /* \"#utility.yul\":666:671   */\n      dup3\n        /* \"#utility.yul\":648:672   */\n      tag_21\n      jump\t// in\n    tag_32:\n        /* \"#utility.yul\":637:672   */\n      swap1\n      pop\n        /* \"#utility.yul\":574:678   */\n      swap2\n      swap1\n      pop\n      jump\t// out\n        /* \"#utility.yul\":684:826   */\n    tag_23:\n        /* \"#utility.yul\":787:819   */\n      tag_34\n        /* \"#utility.yul\":813:818   */\n      dup2\n        /* \"#utility.yul\":787:819   */\n      tag_22\n      jump\t// in\n    tag_34:\n        /* \"#utility.yul\":782:785   */\n      dup3\n        /* \"#utility.yul\":775:820   */\n      mstore\n        /* \"#utility.yul\":684:826   */\n      pop\n      pop\n      jump\t// out\n        /* \"#utility.yul\":832:1086   */\n    tag_14:\n        /* \"#utility.yul\":941:945   */\n      0x00\n        /* \"#utility.yul\":979:981   */\n      0x20\n        /* \"#utility.yul\":968:977   */\n      dup3\n        /* \"#utility.yul\":964:982   */\n      add\n        /* \"#utility.yul\":956:982   */\n      swap1\n      pop\n        /* \"#utility.yul\":992:1079   */\n      tag_36\n        /* \"#utility.yul\":1076:1077   */\n      0x00\n        /* \"#utility.yul\":1065:1074   */\n      dup4\n        /* \"#utility.yul\":1061:1078   */\n      add\n        /* \"#utility.yul\":1052:1058   */\n      dup5\n        /* \"#utility.yul\":992:1079   */\n      tag_23\n      jump\t// in\n    tag_36:\n        /* \"#utility.yul\":832:1086   */\n      swap3\n      swap2\n      pop\n      pop\n      jump\t// out\n\n    auxdata: 0xa264697066735822122029693f844221775664e1b21b3a4b79d595605b21065317a3d81fd84e4a549c5864736f6c63430008110033\n}\n",
				"bytecode": {
					"linkReferences": {},
					"object": "608060405234801561001057600080fd5b50336000806101000a81548173ffffffffffffffffffffffffffffffffffffffff021916908373ffffffffffffffffffffffffffffffffffffffff16021790555061018d806100606000396000f3fe6080604052600436106100345760003560e01c806312065fe0146100395780638da5cb5b14610064578063d0e30db01461008f575b600080fd5b34801561004557600080fd5b5061004e610099565b60405161005b91906100e0565b60405180910390f35b34801561007057600080fd5b506100796100a1565b604051610086919061013c565b60405180910390f35b6100976100c5565b005b600047905090565b60008054906101000a900473ffffffffffffffffffffffffffffffffffffffff1681565b565b6000819050919050565b6100da816100c7565b82525050565b60006020820190506100f560008301846100d1565b92915050565b600073ffffffffffffffffffffffffffffffffffffffff82169050919050565b6000610126826100fb565b9050919050565b6101368161011b565b82525050565b6000602082019050610151600083018461012d565b9291505056fea264697066735822122029693f844221775664e1b21b3a4b79d595605b21065317a3d81fd84e4a549c5864736f6c63430008110033",
					"opcodes": "PUSH1 0x80 PUSH1 0x40 MSTORE CALLVALUE DUP1 ISZERO PUSH2 0x10 JUMPI PUSH1 0x0 DUP1 REVERT JUMPDEST POP CALLER PUSH1 0x0 DUP1 PUSH2 0x100 EXP DUP2 SLOAD DUP2 PUSH20 0xFFFFFFFFFFFFFFFFFFFFFFFFFFFFFFFFFFFFFFFF MUL NOT AND SWAP1 DUP4 PUSH20 0xFFFFFFFFFFFFFFFFFFFFFFFFFFFFFFFFFFFFFFFF AND MUL OR SWAP1 SSTORE POP PUSH2 0x18D DUP1 PUSH2 0x60 PUSH1 0x0 CODECOPY PUSH1 0x0 RETURN INVALID PUSH1 0x80 PUSH1 0x40 MSTORE PUSH1 0x4 CALLDATASIZE LT PUSH2 0x34 JUMPI PUSH1 0x0 CALLDATALOAD PUSH1 0xE0 SHR DUP1 PUSH4 0x12065FE0 EQ PUSH2 0x39 JUMPI DUP1 PUSH4 0x8DA5CB5B EQ PUSH2 0x64 JUMPI DUP1 PUSH4 0xD0E30DB0 EQ PUSH2 0x8F JUMPI JUMPDEST PUSH1 0x0 DUP1 REVERT JUMPDEST CALLVALUE DUP1 ISZERO PUSH2 0x45 JUMPI PUSH1 0x0 DUP1 REVERT JUMPDEST POP PUSH2 0x4E PUSH2 0x99 JUMP JUMPDEST PUSH1 0x40 MLOAD PUSH2 0x5B SWAP2 SWAP1 PUSH2 0xE0 JUMP JUMPDEST PUSH1 0x40 MLOAD DUP1 SWAP2 SUB SWAP1 RETURN JUMPDEST CALLVALUE DUP1 ISZERO PUSH2 0x70 JUMPI PUSH1 0x0 DUP1 REVERT JUMPDEST POP PUSH2 0x79 PUSH2 0xA1 JUMP JUMPDEST PUSH1 0x40 MLOAD PUSH2 0x86 SWAP2 SWAP1 PUSH2 0x13C JUMP JUMPDEST PUSH1 0x40 MLOAD DUP1 SWAP2 SUB SWAP1 RETURN JUMPDEST PUSH2 0x97 PUSH2 0xC5 JUMP JUMPDEST STOP JUMPDEST PUSH1 0x0 SELFBALANCE SWAP1 POP SWAP1 JUMP JUMPDEST PUSH1 0x0 DUP1 SLOAD SWAP1 PUSH2 0x100 EXP SWAP1 DIV PUSH20 0xFFFFFFFFFFFFFFFFFFFFFFFFFFFFFFFFFFFFFFFF AND DUP2 JUMP JUMPDEST JUMP JUMPDEST PUSH1 0x0 DUP2 SWAP1 POP SWAP2 SWAP1 POP JUMP JUMPDEST PUSH2 0xDA DUP2 PUSH2 0xC7 JUMP JUMPDEST DUP3 MSTORE POP POP JUMP JUMPDEST PUSH1 0x0 PUSH1 0x20 DUP3 ADD SWAP1 POP PUSH2 0xF5 PUSH1 0x0 DUP4 ADD DUP5 PUSH2 0xD1 JUMP JUMPDEST SWAP3 SWAP2 POP POP JUMP JUMPDEST PUSH1 0x0 PUSH20 0xFFFFFFFFFFFFFFFFFFFFFFFFFFFFFFFFFFFFFFFF DUP3 AND SWAP1 POP SWAP2 SWAP1 POP JUMP JUMPDEST PUSH1 0x0 PUSH2 0x126 DUP3 PUSH2 0xFB JUMP JUMPDEST SWAP1 POP SWAP2 SWAP1 POP JUMP JUMPDEST PUSH2 0x136 DUP2 PUSH2 0x11B JUMP JUMPDEST DUP3 MSTORE POP POP JUMP JUMPDEST PUSH1 0x0 PUSH1 0x20 DUP3 ADD SWAP1 POP PUSH2 0x151 PUSH1 0x0 DUP4 ADD DUP5 PUSH2 0x12D JUMP JUMPDEST SWAP3 SWAP2 POP POP JUMP INVALID LOG2 PUSH5 0x6970667358 0x22 SLT KECCAK256 0x29 PUSH10 0x3F844221775664E1B21B GASPRICE 0x4B PUSH26 0xD595605B21065317A3D81FD84E4A549C5864736F6C6343000811 STOP CALLER "
				},
				"gasEstimates": {
					"creation": {
						"codeDepositCost": "79400",
						"executionCost": "24395",
						"totalCost": "103795"
					},
					"external": {
						"deposit()": "142",
						"getBalance()": "317",
						"owner()": "2511"
					}
				},
				"methodIdentifiers": {
					"deposit()": "d0e30db0",
					"getBalance()": "12065fe0",
					"owner()": "8da5cb5b"
				}
			},
			"storageLayout": {
				"storage": [
					{
						"astId": 3,
						"contract": "Payable.sol:Payable",
						"label": "owner",
						"offset": 0,
						"slot": "0",
						"type": "t_address_payable"
					}
				],
				"types": {
					"t_address_payable": {
						"encoding": "inplace",
						"label": "address payable",
						"numberOfBytes": "20"
					}
				}
			},
			"userdoc": {
				"kind": "user",
				"methods": {},
				"version": 1
			}
		}
	}
}