{
	"CallTest2.sol": {
		"B": {
			"abi": [
				{
					"inputs": [
						{
							"internalType": "address",
							"name": "_addr",
							"type": "address"
						}
					],
					"name": "call1",
					"outputs": [],
					"stateMutability": "payable",
					"type": "function"
				},
				{
					"inputs": [
						{
							"internalType": "address",
							"name": "_addr",
							"type": "address"
						}
					],
					"name": "callNonExist",
					"outputs": [],
					"stateMutability": "nonpayable",
					"type": "function"
				},
				{
					"inputs": [],
					"name": "data",
					"outputs": [
						{
							"internalType": "bytes",
							"name": "",
							"type": "bytes"
						}
					],
					"stateMutability": "view",
					"type": "function"
				}
			],
			"devdoc": {
				"kind": "dev",
				"methods": {},
				"version": 1
			},
			"evm": {
				"assembly": "    /* \"CallTest2.sol\":503:1245  contract B {... */\n  mstore(0x40, 0x80)\n  callvalue\n  dup1\n  iszero\n  tag_1\n  jumpi\n  0x00\n  dup1\n  revert\ntag_1:\n  pop\n  dataSize(sub_0)\n  dup1\n  dataOffset(sub_0)\n  0x00\n  codecopy\n  0x00\n  return\nstop\n\nsub_0: assembly {\n        /* \"CallTest2.sol\":503:1245  contract B {... */\n      mstore(0x40, 0x80)\n      jumpi(tag_1, lt(calldatasize, 0x04))\n      shr(0xe0, calldataload(0x00))\n      dup1\n      0x0c49c74b\n      eq\n      tag_2\n      jumpi\n      dup1\n      0x73d4a13a\n      eq\n      tag_3\n      jumpi\n      dup1\n      0xf1b9b841\n      eq\n      tag_4\n      jumpi\n    tag_1:\n      0x00\n      dup1\n      revert\n        /* \"CallTest2.sol\":964:1243  function callNonExist(address _addr) external {... */\n    tag_2:\n      callvalue\n      dup1\n      iszero\n      tag_5\n      jumpi\n      0x00\n      dup1\n      revert\n    tag_5:\n      pop\n      tag_6\n      0x04\n      dup1\n      calldatasize\n      sub\n      dup2\n      add\n      swap1\n      tag_7\n      swap2\n      swap1\n      tag_8\n      jump\t// in\n    tag_7:\n      tag_9\n      jump\t// in\n    tag_6:\n      stop\n        /* \"CallTest2.sol\":521:538  bytes public data */\n    tag_3:\n      callvalue\n      dup1\n      iszero\n      tag_10\n      jumpi\n      0x00\n      dup1\n      revert\n    tag_10:\n      pop\n      tag_11\n      tag_12\n      jump\t// in\n    tag_11:\n      mload(0x40)\n      tag_13\n      swap2\n      swap1\n      tag_14\n      jump\t// in\n    tag_13:\n      mload(0x40)\n      dup1\n      swap2\n      sub\n      swap1\n      return\n        /* \"CallTest2.sol\":545:958  function call1(address _addr) external payable{... */\n    tag_4:\n      tag_15\n      0x04\n      dup1\n      calldatasize\n      sub\n      dup2\n      add\n      swap1\n      tag_16\n      swap2\n      swap1\n      tag_8\n      jump\t// in\n    tag_16:\n      tag_17\n      jump\t// in\n    tag_15:\n      stop\n        /* \"CallTest2.sol\":964:1243  function callNonExist(address _addr) external {... */\n    tag_9:\n        /* \"CallTest2.sol\":1020:1031  bool result */\n      0x00\n        /* \"CallTest2.sol\":1038:1043  _addr */\n      dup2\n        /* \"CallTest2.sol\":1038:1048  _addr.call */\n      0xffffffffffffffffffffffffffffffffffffffff\n      and\n        /* \"CallTest2.sol\":1049:1086  abi.encodeWithSignature(\"nonExist()\") */\n      add(0x24, mload(0x40))\n      mload(0x40)\n      0x20\n      dup2\n      dup4\n      sub\n      sub\n      dup2\n      mstore\n      swap1\n      0x40\n      mstore\n      and(not(0xffffffffffffffffffffffffffffffffffffffffffffffffffffffff), 0x14fb19db00000000000000000000000000000000000000000000000000000000)\n      0x20\n      dup3\n      add\n      dup1\n      mload\n      0xffffffffffffffffffffffffffffffffffffffffffffffffffffffff\n      dup4\n      dup2\n      dup4\n      and\n      or\n      dup4\n      mstore\n      pop\n      pop\n      pop\n      pop\n        /* \"CallTest2.sol\":1038:1087  _addr.call(abi.encodeWithSignature(\"nonExist()\")) */\n      mload(0x40)\n      tag_19\n      swap2\n      swap1\n      tag_20\n      jump\t// in\n    tag_19:\n      0x00\n      mload(0x40)\n      dup1\n      dup4\n      sub\n      dup2\n      0x00\n      dup7\n      gas\n      call\n      swap2\n      pop\n      pop\n      returndatasize\n      dup1\n      0x00\n      dup2\n      eq\n      tag_23\n      jumpi\n      mload(0x40)\n      swap2\n      pop\n      and(add(returndatasize, 0x3f), not(0x1f))\n      dup3\n      add\n      0x40\n      mstore\n      returndatasize\n      dup3\n      mstore\n      returndatasize\n      0x00\n      0x20\n      dup5\n      add\n      returndatacopy\n      jump(tag_22)\n    tag_23:\n      0x60\n      swap2\n      pop\n    tag_22:\n      pop\n        /* \"CallTest2.sol\":1019:1087  (bool result, ) =  _addr.call(abi.encodeWithSignature(\"nonExist()\")) */\n      pop\n      swap1\n      pop\n        /* \"CallTest2.sol\":1201:1207  result */\n      dup1\n        /* \"CallTest2.sol\":1193:1236  require(result, \"call non-exists function\") */\n      tag_24\n      jumpi\n      mload(0x40)\n      0x08c379a000000000000000000000000000000000000000000000000000000000\n      dup2\n      mstore\n      0x04\n      add\n      tag_25\n      swap1\n      tag_26\n      jump\t// in\n    tag_25:\n      mload(0x40)\n      dup1\n      swap2\n      sub\n      swap1\n      revert\n    tag_24:\n        /* \"CallTest2.sol\":1010:1243  {... */\n      pop\n        /* \"CallTest2.sol\":964:1243  function callNonExist(address _addr) external {... */\n      pop\n      jump\t// out\n        /* \"CallTest2.sol\":521:538  bytes public data */\n    tag_12:\n      0x00\n      dup1\n      sload\n      tag_27\n      swap1\n      tag_28\n      jump\t// in\n    tag_27:\n      dup1\n      0x1f\n      add\n      0x20\n      dup1\n      swap2\n      div\n      mul\n      0x20\n      add\n      mload(0x40)\n      swap1\n      dup2\n      add\n      0x40\n      mstore\n      dup1\n      swap3\n      swap2\n      swap1\n      dup2\n      dup2\n      mstore\n      0x20\n      add\n      dup3\n      dup1\n      sload\n      tag_29\n      swap1\n      tag_28\n      jump\t// in\n    tag_29:\n      dup1\n      iszero\n      tag_30\n      jumpi\n      dup1\n      0x1f\n      lt\n      tag_31\n      jumpi\n      0x0100\n      dup1\n      dup4\n      sload\n      div\n      mul\n      dup4\n      mstore\n      swap2\n      0x20\n      add\n      swap2\n      jump(tag_30)\n    tag_31:\n      dup3\n      add\n      swap2\n      swap1\n      0x00\n      mstore\n      keccak256(0x00, 0x20)\n      swap1\n    tag_32:\n      dup2\n      sload\n      dup2\n      mstore\n      swap1\n      0x01\n      add\n      swap1\n      0x20\n      add\n      dup1\n      dup4\n      gt\n      tag_32\n      jumpi\n      dup3\n      swap1\n      sub\n      0x1f\n      and\n      dup3\n      add\n      swap2\n    tag_30:\n      pop\n      pop\n      pop\n      pop\n      pop\n      dup2\n      jump\t// out\n        /* \"CallTest2.sol\":545:958  function call1(address _addr) external payable{... */\n    tag_17:\n        /* \"CallTest2.sol\":665:676  bool result */\n      0x00\n        /* \"CallTest2.sol\":678:696  bytes memory _data */\n      dup1\n        /* \"CallTest2.sol\":700:705  _addr */\n      dup3\n        /* \"CallTest2.sol\":700:710  _addr.call */\n      0xffffffffffffffffffffffffffffffffffffffff\n      and\n        /* \"CallTest2.sol\":717:721  1234 */\n      0x04d2\n        /* \"CallTest2.sol\":726:732  100000 */\n      0x0186a0\n        /* \"CallTest2.sol\":700:800  _addr.call{value:1234,gas:100000}(abi.encodeWithSignature(\"m1(string,uint256)\", \"hello call\", 1234)) */\n      swap1\n        /* \"CallTest2.sol\":794:798  1234 */\n      0x04d2\n        /* \"CallTest2.sol\":734:799  abi.encodeWithSignature(\"m1(string,uint256)\", \"hello call\", 1234) */\n      add(0x24, mload(0x40))\n      tag_34\n      swap2\n      swap1\n      tag_35\n      jump\t// in\n    tag_34:\n      mload(0x40)\n      0x20\n      dup2\n      dup4\n      sub\n      sub\n      dup2\n      mstore\n      swap1\n      0x40\n      mstore\n      and(not(0xffffffffffffffffffffffffffffffffffffffffffffffffffffffff), 0xfb7e794400000000000000000000000000000000000000000000000000000000)\n      0x20\n      dup3\n      add\n      dup1\n      mload\n      0xffffffffffffffffffffffffffffffffffffffffffffffffffffffff\n      dup4\n      dup2\n      dup4\n      and\n      or\n      dup4\n      mstore\n      pop\n      pop\n      pop\n      pop\n        /* \"CallTest2.sol\":700:800  _addr.call{value:1234,gas:100000}(abi.encodeWithSignature(\"m1(string,uint256)\", \"hello call\", 1234)) */\n      mload(0x40)\n      tag_36\n      swap2\n      swap1\n      tag_20\n      jump\t// in\n    tag_36:\n      0x00\n      mload(0x40)\n      dup1\n      dup4\n      sub\n      dup2\n      dup6\n      dup9\n      dup9\n      call\n      swap4\n      pop\n      pop\n      pop\n      pop\n      returndatasize\n      dup1\n      0x00\n      dup2\n      eq\n      tag_39\n      jumpi\n      mload(0x40)\n      swap2\n      pop\n      and(add(returndatasize, 0x3f), not(0x1f))\n      dup3\n      add\n      0x40\n      mstore\n      returndatasize\n      dup3\n      mstore\n      returndatasize\n      0x00\n      0x20\n      dup5\n      add\n      returndatacopy\n      jump(tag_38)\n    tag_39:\n      0x60\n      swap2\n      pop\n    tag_38:\n      pop\n        /* \"CallTest2.sol\":664:800  (bool result, bytes memory _data) = _addr.call{value:1234,gas:100000}(abi.encodeWithSignature(\"m1(string,uint256)\", \"hello call\", 1234)) */\n      swap2\n      pop\n      swap2\n      pop\n        /* \"CallTest2.sol\":907:913  result */\n      dup2\n        /* \"CallTest2.sol\":899:929  require(result, \"call failed\") */\n      tag_40\n      jumpi\n      mload(0x40)\n      0x08c379a000000000000000000000000000000000000000000000000000000000\n      dup2\n      mstore\n      0x04\n      add\n      tag_41\n      swap1\n      tag_42\n      jump\t// in\n    tag_41:\n      mload(0x40)\n      dup1\n      swap2\n      sub\n      swap1\n      revert\n    tag_40:\n        /* \"CallTest2.sol\":946:951  _data */\n      dup1\n        /* \"CallTest2.sol\":939:943  data */\n      0x00\n        /* \"CallTest2.sol\":939:951  data = _data */\n      swap1\n      dup1\n      mload\n      swap1\n      0x20\n      add\n      swap1\n      tag_43\n      swap3\n      swap2\n      swap1\n      tag_44\n      jump\t// in\n    tag_43:\n      pop\n        /* \"CallTest2.sol\":591:958  {... */\n      pop\n      pop\n        /* \"CallTest2.sol\":545:958  function call1(address _addr) external payable{... */\n      pop\n      jump\t// out\n    tag_44:\n      dup3\n      dup1\n      sload\n      tag_45\n      swap1\n      tag_28\n      jump\t// in\n    tag_45:\n      swap1\n      0x00\n      mstore\n      keccak256(0x00, 0x20)\n      swap1\n      0x1f\n      add\n      0x20\n      swap1\n      div\n      dup2\n      add\n      swap3\n      dup3\n      tag_47\n      jumpi\n      0x00\n      dup6\n      sstore\n      jump(tag_46)\n    tag_47:\n      dup3\n      0x1f\n      lt\n      tag_48\n      jumpi\n      dup1\n      mload\n      not(0xff)\n      and\n      dup4\n      dup1\n      add\n      or\n      dup6\n      sstore\n      jump(tag_46)\n    tag_48:\n      dup3\n      dup1\n      add\n      0x01\n      add\n      dup6\n      sstore\n      dup3\n      iszero\n      tag_46\n      jumpi\n      swap2\n      dup3\n      add\n    tag_49:\n      dup3\n      dup2\n      gt\n      iszero\n      tag_50\n      jumpi\n      dup3\n      mload\n      dup3\n      sstore\n      swap2\n      0x20\n      add\n      swap2\n      swap1\n      0x01\n      add\n      swap1\n      jump(tag_49)\n    tag_50:\n    tag_46:\n      pop\n      swap1\n      pop\n      tag_51\n      swap2\n      swap1\n      tag_52\n      jump\t// in\n    tag_51:\n      pop\n      swap1\n      jump\t// out\n    tag_52:\n    tag_53:\n      dup1\n      dup3\n      gt\n      iszero\n      tag_54\n      jumpi\n      0x00\n      dup2\n      0x00\n      swap1\n      sstore\n      pop\n      0x01\n      add\n      jump(tag_53)\n    tag_54:\n      pop\n      swap1\n      jump\t// out\n        /* \"#utility.yul\":7:146   */\n    tag_56:\n        /* \"#utility.yul\":53:58   */\n      0x00\n        /* \"#utility.yul\":91:97   */\n      dup2\n        /* \"#utility.yul\":78:98   */\n      calldataload\n        /* \"#utility.yul\":69:98   */\n      swap1\n      pop\n        /* \"#utility.yul\":107:140   */\n      tag_58\n        /* \"#utility.yul\":134:139   */\n      dup2\n        /* \"#utility.yul\":107:140   */\n      tag_59\n      jump\t// in\n    tag_58:\n        /* \"#utility.yul\":7:146   */\n      swap3\n      swap2\n      pop\n      pop\n      jump\t// out\n        /* \"#utility.yul\":152:481   */\n    tag_8:\n        /* \"#utility.yul\":211:217   */\n      0x00\n        /* \"#utility.yul\":260:262   */\n      0x20\n        /* \"#utility.yul\":248:257   */\n      dup3\n        /* \"#utility.yul\":239:246   */\n      dup5\n        /* \"#utility.yul\":235:258   */\n      sub\n        /* \"#utility.yul\":231:263   */\n      slt\n        /* \"#utility.yul\":228:347   */\n      iszero\n      tag_61\n      jumpi\n        /* \"#utility.yul\":266:345   */\n      tag_62\n      tag_63\n      jump\t// in\n    tag_62:\n        /* \"#utility.yul\":228:347   */\n    tag_61:\n        /* \"#utility.yul\":386:387   */\n      0x00\n        /* \"#utility.yul\":411:464   */\n      tag_64\n        /* \"#utility.yul\":456:463   */\n      dup5\n        /* \"#utility.yul\":447:453   */\n      dup3\n        /* \"#utility.yul\":436:445   */\n      dup6\n        /* \"#utility.yul\":432:454   */\n      add\n        /* \"#utility.yul\":411:464   */\n      tag_56\n      jump\t// in\n    tag_64:\n        /* \"#utility.yul\":401:464   */\n      swap2\n      pop\n        /* \"#utility.yul\":357:474   */\n      pop\n        /* \"#utility.yul\":152:481   */\n      swap3\n      swap2\n      pop\n      pop\n      jump\t// out\n        /* \"#utility.yul\":487:847   */\n    tag_65:\n        /* \"#utility.yul\":573:576   */\n      0x00\n        /* \"#utility.yul\":601:639   */\n      tag_67\n        /* \"#utility.yul\":633:638   */\n      dup3\n        /* \"#utility.yul\":601:639   */\n      tag_68\n      jump\t// in\n    tag_67:\n        /* \"#utility.yul\":655:725   */\n      tag_69\n        /* \"#utility.yul\":718:724   */\n      dup2\n        /* \"#utility.yul\":713:716   */\n      dup6\n        /* \"#utility.yul\":655:725   */\n      tag_70\n      jump\t// in\n    tag_69:\n        /* \"#utility.yul\":648:725   */\n      swap4\n      pop\n        /* \"#utility.yul\":734:786   */\n      tag_71\n        /* \"#utility.yul\":779:785   */\n      dup2\n        /* \"#utility.yul\":774:777   */\n      dup6\n        /* \"#utility.yul\":767:771   */\n      0x20\n        /* \"#utility.yul\":760:765   */\n      dup7\n        /* \"#utility.yul\":756:772   */\n      add\n        /* \"#utility.yul\":734:786   */\n      tag_72\n      jump\t// in\n    tag_71:\n        /* \"#utility.yul\":811:840   */\n      tag_73\n        /* \"#utility.yul\":833:839   */\n      dup2\n        /* \"#utility.yul\":811:840   */\n      tag_74\n      jump\t// in\n    tag_73:\n        /* \"#utility.yul\":806:809   */\n      dup5\n        /* \"#utility.yul\":802:841   */\n      add\n        /* \"#utility.yul\":795:841   */\n      swap2\n      pop\n        /* \"#utility.yul\":577:847   */\n      pop\n        /* \"#utility.yul\":487:847   */\n      swap3\n      swap2\n      pop\n      pop\n      jump\t// out\n        /* \"#utility.yul\":853:1226   */\n    tag_75:\n        /* \"#utility.yul\":957:960   */\n      0x00\n        /* \"#utility.yul\":985:1023   */\n      tag_77\n        /* \"#utility.yul\":1017:1022   */\n      dup3\n        /* \"#utility.yul\":985:1023   */\n      tag_68\n      jump\t// in\n    tag_77:\n        /* \"#utility.yul\":1039:1127   */\n      tag_78\n        /* \"#utility.yul\":1120:1126   */\n      dup2\n        /* \"#utility.yul\":1115:1118   */\n      dup6\n        /* \"#utility.yul\":1039:1127   */\n      tag_79\n      jump\t// in\n    tag_78:\n        /* \"#utility.yul\":1032:1127   */\n      swap4\n      pop\n        /* \"#utility.yul\":1136:1188   */\n      tag_80\n        /* \"#utility.yul\":1181:1187   */\n      dup2\n        /* \"#utility.yul\":1176:1179   */\n      dup6\n        /* \"#utility.yul\":1169:1173   */\n      0x20\n        /* \"#utility.yul\":1162:1167   */\n      dup7\n        /* \"#utility.yul\":1158:1174   */\n      add\n        /* \"#utility.yul\":1136:1188   */\n      tag_72\n      jump\t// in\n    tag_80:\n        /* \"#utility.yul\":1213:1219   */\n      dup1\n        /* \"#utility.yul\":1208:1211   */\n      dup5\n        /* \"#utility.yul\":1204:1220   */\n      add\n        /* \"#utility.yul\":1197:1220   */\n      swap2\n      pop\n        /* \"#utility.yul\":961:1226   */\n      pop\n        /* \"#utility.yul\":853:1226   */\n      swap3\n      swap2\n      pop\n      pop\n      jump\t// out\n        /* \"#utility.yul\":1232:1383   */\n    tag_81:\n        /* \"#utility.yul\":1329:1376   */\n      tag_83\n        /* \"#utility.yul\":1370:1375   */\n      dup2\n        /* \"#utility.yul\":1329:1376   */\n      tag_84\n      jump\t// in\n    tag_83:\n        /* \"#utility.yul\":1324:1327   */\n      dup3\n        /* \"#utility.yul\":1317:1377   */\n      mstore\n        /* \"#utility.yul\":1232:1383   */\n      pop\n      pop\n      jump\t// out\n        /* \"#utility.yul\":1389:1755   */\n    tag_85:\n        /* \"#utility.yul\":1531:1534   */\n      0x00\n        /* \"#utility.yul\":1552:1619   */\n      tag_87\n        /* \"#utility.yul\":1616:1618   */\n      0x0a\n        /* \"#utility.yul\":1611:1614   */\n      dup4\n        /* \"#utility.yul\":1552:1619   */\n      tag_88\n      jump\t// in\n    tag_87:\n        /* \"#utility.yul\":1545:1619   */\n      swap2\n      pop\n        /* \"#utility.yul\":1628:1721   */\n      tag_89\n        /* \"#utility.yul\":1717:1720   */\n      dup3\n        /* \"#utility.yul\":1628:1721   */\n      tag_90\n      jump\t// in\n    tag_89:\n        /* \"#utility.yul\":1746:1748   */\n      0x20\n        /* \"#utility.yul\":1741:1744   */\n      dup3\n        /* \"#utility.yul\":1737:1749   */\n      add\n        /* \"#utility.yul\":1730:1749   */\n      swap1\n      pop\n        /* \"#utility.yul\":1389:1755   */\n      swap2\n      swap1\n      pop\n      jump\t// out\n        /* \"#utility.yul\":1761:2127   */\n    tag_91:\n        /* \"#utility.yul\":1903:1906   */\n      0x00\n        /* \"#utility.yul\":1924:1991   */\n      tag_93\n        /* \"#utility.yul\":1988:1990   */\n      0x18\n        /* \"#utility.yul\":1983:1986   */\n      dup4\n        /* \"#utility.yul\":1924:1991   */\n      tag_88\n      jump\t// in\n    tag_93:\n        /* \"#utility.yul\":1917:1991   */\n      swap2\n      pop\n        /* \"#utility.yul\":2000:2093   */\n      tag_94\n        /* \"#utility.yul\":2089:2092   */\n      dup3\n        /* \"#utility.yul\":2000:2093   */\n      tag_95\n      jump\t// in\n    tag_94:\n        /* \"#utility.yul\":2118:2120   */\n      0x20\n        /* \"#utility.yul\":2113:2116   */\n      dup3\n        /* \"#utility.yul\":2109:2121   */\n      add\n        /* \"#utility.yul\":2102:2121   */\n      swap1\n      pop\n        /* \"#utility.yul\":1761:2127   */\n      swap2\n      swap1\n      pop\n      jump\t// out\n        /* \"#utility.yul\":2133:2499   */\n    tag_96:\n        /* \"#utility.yul\":2275:2278   */\n      0x00\n        /* \"#utility.yul\":2296:2363   */\n      tag_98\n        /* \"#utility.yul\":2360:2362   */\n      0x0b\n        /* \"#utility.yul\":2355:2358   */\n      dup4\n        /* \"#utility.yul\":2296:2363   */\n      tag_88\n      jump\t// in\n    tag_98:\n        /* \"#utility.yul\":2289:2363   */\n      swap2\n      pop\n        /* \"#utility.yul\":2372:2465   */\n      tag_99\n        /* \"#utility.yul\":2461:2464   */\n      dup3\n        /* \"#utility.yul\":2372:2465   */\n      tag_100\n      jump\t// in\n    tag_99:\n        /* \"#utility.yul\":2490:2492   */\n      0x20\n        /* \"#utility.yul\":2485:2488   */\n      dup3\n        /* \"#utility.yul\":2481:2493   */\n      add\n        /* \"#utility.yul\":2474:2493   */\n      swap1\n      pop\n        /* \"#utility.yul\":2133:2499   */\n      swap2\n      swap1\n      pop\n      jump\t// out\n        /* \"#utility.yul\":2505:2776   */\n    tag_20:\n        /* \"#utility.yul\":2635:2638   */\n      0x00\n        /* \"#utility.yul\":2657:2750   */\n      tag_102\n        /* \"#utility.yul\":2746:2749   */\n      dup3\n        /* \"#utility.yul\":2737:2743   */\n      dup5\n        /* \"#utility.yul\":2657:2750   */\n      tag_75\n      jump\t// in\n    tag_102:\n        /* \"#utility.yul\":2650:2750   */\n      swap2\n      pop\n        /* \"#utility.yul\":2767:2770   */\n      dup2\n        /* \"#utility.yul\":2760:2770   */\n      swap1\n      pop\n        /* \"#utility.yul\":2505:2776   */\n      swap3\n      swap2\n      pop\n      pop\n      jump\t// out\n        /* \"#utility.yul\":2782:3091   */\n    tag_14:\n        /* \"#utility.yul\":2893:2897   */\n      0x00\n        /* \"#utility.yul\":2931:2933   */\n      0x20\n        /* \"#utility.yul\":2920:2929   */\n      dup3\n        /* \"#utility.yul\":2916:2934   */\n      add\n        /* \"#utility.yul\":2908:2934   */\n      swap1\n      pop\n        /* \"#utility.yul\":2980:2989   */\n      dup2\n        /* \"#utility.yul\":2974:2978   */\n      dup2\n        /* \"#utility.yul\":2970:2990   */\n      sub\n        /* \"#utility.yul\":2966:2967   */\n      0x00\n        /* \"#utility.yul\":2955:2964   */\n      dup4\n        /* \"#utility.yul\":2951:2968   */\n      add\n        /* \"#utility.yul\":2944:2991   */\n      mstore\n        /* \"#utility.yul\":3008:3084   */\n      tag_104\n        /* \"#utility.yul\":3079:3083   */\n      dup2\n        /* \"#utility.yul\":3070:3076   */\n      dup5\n        /* \"#utility.yul\":3008:3084   */\n      tag_65\n      jump\t// in\n    tag_104:\n        /* \"#utility.yul\":3000:3084   */\n      swap1\n      pop\n        /* \"#utility.yul\":2782:3091   */\n      swap3\n      swap2\n      pop\n      pop\n      jump\t// out\n        /* \"#utility.yul\":3097:3646   */\n    tag_35:\n        /* \"#utility.yul\":3301:3305   */\n      0x00\n        /* \"#utility.yul\":3339:3341   */\n      0x40\n        /* \"#utility.yul\":3328:3337   */\n      dup3\n        /* \"#utility.yul\":3324:3342   */\n      add\n        /* \"#utility.yul\":3316:3342   */\n      swap1\n      pop\n        /* \"#utility.yul\":3388:3397   */\n      dup2\n        /* \"#utility.yul\":3382:3386   */\n      dup2\n        /* \"#utility.yul\":3378:3398   */\n      sub\n        /* \"#utility.yul\":3374:3375   */\n      0x00\n        /* \"#utility.yul\":3363:3372   */\n      dup4\n        /* \"#utility.yul\":3359:3376   */\n      add\n        /* \"#utility.yul\":3352:3399   */\n      mstore\n        /* \"#utility.yul\":3416:3547   */\n      tag_106\n        /* \"#utility.yul\":3542:3546   */\n      dup2\n        /* \"#utility.yul\":3416:3547   */\n      tag_85\n      jump\t// in\n    tag_106:\n        /* \"#utility.yul\":3408:3547   */\n      swap1\n      pop\n        /* \"#utility.yul\":3557:3639   */\n      tag_107\n        /* \"#utility.yul\":3635:3637   */\n      0x20\n        /* \"#utility.yul\":3624:3633   */\n      dup4\n        /* \"#utility.yul\":3620:3638   */\n      add\n        /* \"#utility.yul\":3611:3617   */\n      dup5\n        /* \"#utility.yul\":3557:3639   */\n      tag_81\n      jump\t// in\n    tag_107:\n        /* \"#utility.yul\":3097:3646   */\n      swap3\n      swap2\n      pop\n      pop\n      jump\t// out\n        /* \"#utility.yul\":3652:4071   */\n    tag_26:\n        /* \"#utility.yul\":3818:3822   */\n      0x00\n        /* \"#utility.yul\":3856:3858   */\n      0x20\n        /* \"#utility.yul\":3845:3854   */\n      dup3\n        /* \"#utility.yul\":3841:3859   */\n      add\n        /* \"#utility.yul\":3833:3859   */\n      swap1\n      pop\n        /* \"#utility.yul\":3905:3914   */\n      dup2\n        /* \"#utility.yul\":3899:3903   */\n      dup2\n        /* \"#utility.yul\":3895:3915   */\n      sub\n        /* \"#utility.yul\":3891:3892   */\n      0x00\n        /* \"#utility.yul\":3880:3889   */\n      dup4\n        /* \"#utility.yul\":3876:3893   */\n      add\n        /* \"#utility.yul\":3869:3916   */\n      mstore\n        /* \"#utility.yul\":3933:4064   */\n      tag_109\n        /* \"#utility.yul\":4059:4063   */\n      dup2\n        /* \"#utility.yul\":3933:4064   */\n      tag_91\n      jump\t// in\n    tag_109:\n        /* \"#utility.yul\":3925:4064   */\n      swap1\n      pop\n        /* \"#utility.yul\":3652:4071   */\n      swap2\n      swap1\n      pop\n      jump\t// out\n        /* \"#utility.yul\":4077:4496   */\n    tag_42:\n        /* \"#utility.yul\":4243:4247   */\n      0x00\n        /* \"#utility.yul\":4281:4283   */\n      0x20\n        /* \"#utility.yul\":4270:4279   */\n      dup3\n        /* \"#utility.yul\":4266:4284   */\n      add\n        /* \"#utility.yul\":4258:4284   */\n      swap1\n      pop\n        /* \"#utility.yul\":4330:4339   */\n      dup2\n        /* \"#utility.yul\":4324:4328   */\n      dup2\n        /* \"#utility.yul\":4320:4340   */\n      sub\n        /* \"#utility.yul\":4316:4317   */\n      0x00\n        /* \"#utility.yul\":4305:4314   */\n      dup4\n        /* \"#utility.yul\":4301:4318   */\n      add\n        /* \"#utility.yul\":4294:4341   */\n      mstore\n        /* \"#utility.yul\":4358:4489   */\n      tag_111\n        /* \"#utility.yul\":4484:4488   */\n      dup2\n        /* \"#utility.yul\":4358:4489   */\n      tag_96\n      jump\t// in\n    tag_111:\n        /* \"#utility.yul\":4350:4489   */\n      swap1\n      pop\n        /* \"#utility.yul\":4077:4496   */\n      swap2\n      swap1\n      pop\n      jump\t// out\n        /* \"#utility.yul\":4583:4681   */\n    tag_68:\n        /* \"#utility.yul\":4634:4640   */\n      0x00\n        /* \"#utility.yul\":4668:4673   */\n      dup2\n        /* \"#utility.yul\":4662:4674   */\n      mload\n        /* \"#utility.yul\":4652:4674   */\n      swap1\n      pop\n        /* \"#utility.yul\":4583:4681   */\n      swap2\n      swap1\n      pop\n      jump\t// out\n        /* \"#utility.yul\":4687:4855   */\n    tag_70:\n        /* \"#utility.yul\":4770:4781   */\n      0x00\n        /* \"#utility.yul\":4804:4810   */\n      dup3\n        /* \"#utility.yul\":4799:4802   */\n      dup3\n        /* \"#utility.yul\":4792:4811   */\n      mstore\n        /* \"#utility.yul\":4844:4848   */\n      0x20\n        /* \"#utility.yul\":4839:4842   */\n      dup3\n        /* \"#utility.yul\":4835:4849   */\n      add\n        /* \"#utility.yul\":4820:4849   */\n      swap1\n      pop\n        /* \"#utility.yul\":4687:4855   */\n      swap3\n      swap2\n      pop\n      pop\n      jump\t// out\n        /* \"#utility.yul\":4861:5008   */\n    tag_79:\n        /* \"#utility.yul\":4962:4973   */\n      0x00\n        /* \"#utility.yul\":4999:5002   */\n      dup2\n        /* \"#utility.yul\":4984:5002   */\n      swap1\n      pop\n        /* \"#utility.yul\":4861:5008   */\n      swap3\n      swap2\n      pop\n      pop\n      jump\t// out\n        /* \"#utility.yul\":5014:5183   */\n    tag_88:\n        /* \"#utility.yul\":5098:5109   */\n      0x00\n        /* \"#utility.yul\":5132:5138   */\n      dup3\n        /* \"#utility.yul\":5127:5130   */\n      dup3\n        /* \"#utility.yul\":5120:5139   */\n      mstore\n        /* \"#utility.yul\":5172:5176   */\n      0x20\n        /* \"#utility.yul\":5167:5170   */\n      dup3\n        /* \"#utility.yul\":5163:5177   */\n      add\n        /* \"#utility.yul\":5148:5177   */\n      swap1\n      pop\n        /* \"#utility.yul\":5014:5183   */\n      swap3\n      swap2\n      pop\n      pop\n      jump\t// out\n        /* \"#utility.yul\":5189:5285   */\n    tag_118:\n        /* \"#utility.yul\":5226:5233   */\n      0x00\n        /* \"#utility.yul\":5255:5279   */\n      tag_120\n        /* \"#utility.yul\":5273:5278   */\n      dup3\n        /* \"#utility.yul\":5255:5279   */\n      tag_121\n      jump\t// in\n    tag_120:\n        /* \"#utility.yul\":5244:5279   */\n      swap1\n      pop\n        /* \"#utility.yul\":5189:5285   */\n      swap2\n      swap1\n      pop\n      jump\t// out\n        /* \"#utility.yul\":5291:5380   */\n    tag_122:\n        /* \"#utility.yul\":5327:5334   */\n      0x00\n        /* \"#utility.yul\":5367:5373   */\n      0xffff\n        /* \"#utility.yul\":5360:5365   */\n      dup3\n        /* \"#utility.yul\":5356:5374   */\n      and\n        /* \"#utility.yul\":5345:5374   */\n      swap1\n      pop\n        /* \"#utility.yul\":5291:5380   */\n      swap2\n      swap1\n      pop\n      jump\t// out\n        /* \"#utility.yul\":5386:5512   */\n    tag_121:\n        /* \"#utility.yul\":5423:5430   */\n      0x00\n        /* \"#utility.yul\":5463:5505   */\n      0xffffffffffffffffffffffffffffffffffffffff\n        /* \"#utility.yul\":5456:5461   */\n      dup3\n        /* \"#utility.yul\":5452:5506   */\n      and\n        /* \"#utility.yul\":5441:5506   */\n      swap1\n      pop\n        /* \"#utility.yul\":5386:5512   */\n      swap2\n      swap1\n      pop\n      jump\t// out\n        /* \"#utility.yul\":5518:5640   */\n    tag_84:\n        /* \"#utility.yul\":5578:5587   */\n      0x00\n        /* \"#utility.yul\":5611:5634   */\n      tag_126\n        /* \"#utility.yul\":5628:5633   */\n      dup3\n        /* \"#utility.yul\":5611:5634   */\n      tag_122\n      jump\t// in\n    tag_126:\n        /* \"#utility.yul\":5598:5634   */\n      swap1\n      pop\n        /* \"#utility.yul\":5518:5640   */\n      swap2\n      swap1\n      pop\n      jump\t// out\n        /* \"#utility.yul\":5646:5953   */\n    tag_72:\n        /* \"#utility.yul\":5714:5715   */\n      0x00\n        /* \"#utility.yul\":5724:5837   */\n    tag_128:\n        /* \"#utility.yul\":5738:5744   */\n      dup4\n        /* \"#utility.yul\":5735:5736   */\n      dup2\n        /* \"#utility.yul\":5732:5745   */\n      lt\n        /* \"#utility.yul\":5724:5837   */\n      iszero\n      tag_130\n      jumpi\n        /* \"#utility.yul\":5823:5824   */\n      dup1\n        /* \"#utility.yul\":5818:5821   */\n      dup3\n        /* \"#utility.yul\":5814:5825   */\n      add\n        /* \"#utility.yul\":5808:5826   */\n      mload\n        /* \"#utility.yul\":5804:5805   */\n      dup2\n        /* \"#utility.yul\":5799:5802   */\n      dup5\n        /* \"#utility.yul\":5795:5806   */\n      add\n        /* \"#utility.yul\":5788:5827   */\n      mstore\n        /* \"#utility.yul\":5760:5762   */\n      0x20\n        /* \"#utility.yul\":5757:5758   */\n      dup2\n        /* \"#utility.yul\":5753:5763   */\n      add\n        /* \"#utility.yul\":5748:5763   */\n      swap1\n      pop\n        /* \"#utility.yul\":5724:5837   */\n      jump(tag_128)\n    tag_130:\n        /* \"#utility.yul\":5855:5861   */\n      dup4\n        /* \"#utility.yul\":5852:5853   */\n      dup2\n        /* \"#utility.yul\":5849:5862   */\n      gt\n        /* \"#utility.yul\":5846:5947   */\n      iszero\n      tag_131\n      jumpi\n        /* \"#utility.yul\":5935:5936   */\n      0x00\n        /* \"#utility.yul\":5926:5932   */\n      dup5\n        /* \"#utility.yul\":5921:5924   */\n      dup5\n        /* \"#utility.yul\":5917:5933   */\n      add\n        /* \"#utility.yul\":5910:5937   */\n      mstore\n        /* \"#utility.yul\":5846:5947   */\n    tag_131:\n        /* \"#utility.yul\":5695:5953   */\n      pop\n        /* \"#utility.yul\":5646:5953   */\n      pop\n      pop\n      pop\n      jump\t// out\n        /* \"#utility.yul\":5959:6279   */\n    tag_28:\n        /* \"#utility.yul\":6003:6009   */\n      0x00\n        /* \"#utility.yul\":6040:6041   */\n      0x02\n        /* \"#utility.yul\":6034:6038   */\n      dup3\n        /* \"#utility.yul\":6030:6042   */\n      div\n        /* \"#utility.yul\":6020:6042   */\n      swap1\n      pop\n        /* \"#utility.yul\":6087:6088   */\n      0x01\n        /* \"#utility.yul\":6081:6085   */\n      dup3\n        /* \"#utility.yul\":6077:6089   */\n      and\n        /* \"#utility.yul\":6108:6126   */\n      dup1\n        /* \"#utility.yul\":6098:6179   */\n      tag_133\n      jumpi\n        /* \"#utility.yul\":6164:6168   */\n      0x7f\n        /* \"#utility.yul\":6156:6162   */\n      dup3\n        /* \"#utility.yul\":6152:6169   */\n      and\n        /* \"#utility.yul\":6142:6169   */\n      swap2\n      pop\n        /* \"#utility.yul\":6098:6179   */\n    tag_133:\n        /* \"#utility.yul\":6226:6228   */\n      0x20\n        /* \"#utility.yul\":6218:6224   */\n      dup3\n        /* \"#utility.yul\":6215:6229   */\n      lt\n        /* \"#utility.yul\":6195:6213   */\n      dup2\n        /* \"#utility.yul\":6192:6230   */\n      eq\n        /* \"#utility.yul\":6189:6273   */\n      iszero\n      tag_134\n      jumpi\n        /* \"#utility.yul\":6245:6263   */\n      tag_135\n      tag_136\n      jump\t// in\n    tag_135:\n        /* \"#utility.yul\":6189:6273   */\n    tag_134:\n        /* \"#utility.yul\":6010:6279   */\n      pop\n        /* \"#utility.yul\":5959:6279   */\n      swap2\n      swap1\n      pop\n      jump\t// out\n        /* \"#utility.yul\":6285:6465   */\n    tag_136:\n        /* \"#utility.yul\":6333:6410   */\n      0x4e487b7100000000000000000000000000000000000000000000000000000000\n        /* \"#utility.yul\":6330:6331   */\n      0x00\n        /* \"#utility.yul\":6323:6411   */\n      mstore\n        /* \"#utility.yul\":6430:6434   */\n      0x22\n        /* \"#utility.yul\":6427:6428   */\n      0x04\n        /* \"#utility.yul\":6420:6435   */\n      mstore\n        /* \"#utility.yul\":6454:6458   */\n      0x24\n        /* \"#utility.yul\":6451:6452   */\n      0x00\n        /* \"#utility.yul\":6444:6459   */\n      revert\n        /* \"#utility.yul\":6594:6711   */\n    tag_63:\n        /* \"#utility.yul\":6703:6704   */\n      0x00\n        /* \"#utility.yul\":6700:6701   */\n      dup1\n        /* \"#utility.yul\":6693:6705   */\n      revert\n        /* \"#utility.yul\":6717:6819   */\n    tag_74:\n        /* \"#utility.yul\":6758:6764   */\n      0x00\n        /* \"#utility.yul\":6809:6811   */\n      0x1f\n        /* \"#utility.yul\":6805:6812   */\n      not\n        /* \"#utility.yul\":6800:6802   */\n      0x1f\n        /* \"#utility.yul\":6793:6798   */\n      dup4\n        /* \"#utility.yul\":6789:6803   */\n      add\n        /* \"#utility.yul\":6785:6813   */\n      and\n        /* \"#utility.yul\":6775:6813   */\n      swap1\n      pop\n        /* \"#utility.yul\":6717:6819   */\n      swap2\n      swap1\n      pop\n      jump\t// out\n        /* \"#utility.yul\":6825:6985   */\n    tag_90:\n        /* \"#utility.yul\":6965:6977   */\n      0x68656c6c6f2063616c6c00000000000000000000000000000000000000000000\n        /* \"#utility.yul\":6961:6962   */\n      0x00\n        /* \"#utility.yul\":6953:6959   */\n      dup3\n        /* \"#utility.yul\":6949:6963   */\n      add\n        /* \"#utility.yul\":6942:6978   */\n      mstore\n        /* \"#utility.yul\":6825:6985   */\n      pop\n      jump\t// out\n        /* \"#utility.yul\":6991:7165   */\n    tag_95:\n        /* \"#utility.yul\":7131:7157   */\n      0x63616c6c206e6f6e2d6578697374732066756e6374696f6e0000000000000000\n        /* \"#utility.yul\":7127:7128   */\n      0x00\n        /* \"#utility.yul\":7119:7125   */\n      dup3\n        /* \"#utility.yul\":7115:7129   */\n      add\n        /* \"#utility.yul\":7108:7158   */\n      mstore\n        /* \"#utility.yul\":6991:7165   */\n      pop\n      jump\t// out\n        /* \"#utility.yul\":7171:7332   */\n    tag_100:\n        /* \"#utility.yul\":7311:7324   */\n      0x63616c6c206661696c6564000000000000000000000000000000000000000000\n        /* \"#utility.yul\":7307:7308   */\n      0x00\n        /* \"#utility.yul\":7299:7305   */\n      dup3\n        /* \"#utility.yul\":7295:7309   */\n      add\n        /* \"#utility.yul\":7288:7325   */\n      mstore\n        /* \"#utility.yul\":7171:7332   */\n      pop\n      jump\t// out\n        /* \"#utility.yul\":7338:7460   */\n    tag_59:\n        /* \"#utility.yul\":7411:7435   */\n      tag_146\n        /* \"#utility.yul\":7429:7434   */\n      dup2\n        /* \"#utility.yul\":7411:7435   */\n      tag_118\n      jump\t// in\n    tag_146:\n        /* \"#utility.yul\":7404:7409   */\n      dup2\n        /* \"#utility.yul\":7401:7436   */\n      eq\n        /* \"#utility.yul\":7391:7454   */\n      tag_147\n      jumpi\n        /* \"#utility.yul\":7450:7451   */\n      0x00\n        /* \"#utility.yul\":7447:7448   */\n      dup1\n        /* \"#utility.yul\":7440:7452   */\n      revert\n        /* \"#utility.yul\":7391:7454   */\n    tag_147:\n        /* \"#utility.yul\":7338:7460   */\n      pop\n      jump\t// out\n\n    auxdata: 0xa264697066735822122066fccb6db9ff0749d95108dd363ca4fc978c63977263b202a617b477ee72f9c664736f6c63430008070033\n}\n",
				"bytecode": {
					"linkReferences": {},
					"object": "608060405234801561001057600080fd5b50610837806100206000396000f3fe6080604052600436106100345760003560e01c80630c49c74b1461003957806373d4a13a14610062578063f1b9b8411461008d575b600080fd5b34801561004557600080fd5b50610060600480360381019061005b9190610485565b6100a9565b005b34801561006e57600080fd5b506100776101dc565b60405161008491906105ab565b60405180910390f35b6100a760048036038101906100a29190610485565b61026a565b005b60008173ffffffffffffffffffffffffffffffffffffffff166040516024016040516020818303038152906040527f14fb19db000000000000000000000000000000000000000000000000000000007bffffffffffffffffffffffffffffffffffffffffffffffffffffffff19166020820180517bffffffffffffffffffffffffffffffffffffffffffffffffffffffff83818316178352505050506040516101529190610594565b6000604051808303816000865af19150503d806000811461018f576040519150601f19603f3d011682016040523d82523d6000602084013e610194565b606091505b50509050806101d8576040517f08c379a00000000000000000000000000000000000000000000000000000000081526004016101cf906105fb565b60405180910390fd5b5050565b600080546101e9906106f8565b80601f0160208091040260200160405190810160405280929190818152602001828054610215906106f8565b80156102625780601f1061023757610100808354040283529160200191610262565b820191906000526020600020905b81548152906001019060200180831161024557829003601f168201915b505050505081565b6000808273ffffffffffffffffffffffffffffffffffffffff166104d2620186a0906104d260405160240161029f91906105cd565b6040516020818303038152906040527ffb7e7944000000000000000000000000000000000000000000000000000000007bffffffffffffffffffffffffffffffffffffffffffffffffffffffff19166020820180517bffffffffffffffffffffffffffffffffffffffffffffffffffffffff83818316178352505050506040516103299190610594565b600060405180830381858888f193505050503d8060008114610367576040519150601f19603f3d011682016040523d82523d6000602084013e61036c565b606091505b5091509150816103b1576040517f08c379a00000000000000000000000000000000000000000000000000000000081526004016103a89061061b565b60405180910390fd5b80600090805190602001906103c79291906103cd565b50505050565b8280546103d9906106f8565b90600052602060002090601f0160209004810192826103fb5760008555610442565b82601f1061041457805160ff1916838001178555610442565b82800160010185558215610442579182015b82811115610441578251825591602001919060010190610426565b5b50905061044f9190610453565b5090565b5b8082111561046c576000816000905550600101610454565b5090565b60008135905061047f816107ea565b92915050565b60006020828403121561049b5761049a610759565b5b60006104a984828501610470565b91505092915050565b60006104bd8261063b565b6104c78185610646565b93506104d78185602086016106c5565b6104e08161075e565b840191505092915050565b60006104f68261063b565b6105008185610657565b93506105108185602086016106c5565b80840191505092915050565b610525816106b3565b82525050565b6000610538600a83610662565b91506105438261076f565b602082019050919050565b600061055b601883610662565b915061056682610798565b602082019050919050565b600061057e600b83610662565b9150610589826107c1565b602082019050919050565b60006105a082846104eb565b915081905092915050565b600060208201905081810360008301526105c581846104b2565b905092915050565b600060408201905081810360008301526105e68161052b565b90506105f5602083018461051c565b92915050565b600060208201905081810360008301526106148161054e565b9050919050565b6000602082019050818103600083015261063481610571565b9050919050565b600081519050919050565b600082825260208201905092915050565b600081905092915050565b600082825260208201905092915050565b600061067e82610693565b9050919050565b600061ffff82169050919050565b600073ffffffffffffffffffffffffffffffffffffffff82169050919050565b60006106be82610685565b9050919050565b60005b838110156106e35780820151818401526020810190506106c8565b838111156106f2576000848401525b50505050565b6000600282049050600182168061071057607f821691505b602082108114156107245761072361072a565b5b50919050565b7f4e487b7100000000000000000000000000000000000000000000000000000000600052602260045260246000fd5b600080fd5b6000601f19601f8301169050919050565b7f68656c6c6f2063616c6c00000000000000000000000000000000000000000000600082015250565b7f63616c6c206e6f6e2d6578697374732066756e6374696f6e0000000000000000600082015250565b7f63616c6c206661696c6564000000000000000000000000000000000000000000600082015250565b6107f381610673565b81146107fe57600080fd5b5056fea264697066735822122066fccb6db9ff0749d95108dd363ca4fc978c63977263b202a617b477ee72f9c664736f6c63430008070033",
					"opcodes": "PUSH1 0x80 PUSH1 0x40 MSTORE CALLVALUE DUP1 ISZERO PUSH2 0x10 JUMPI PUSH1 0x0 DUP1 REVERT JUMPDEST POP PUSH2 0x837 DUP1 PUSH2 0x20 PUSH1 0x0 CODECOPY PUSH1 0x0 RETURN INVALID PUSH1 0x80 PUSH1 0x40 MSTORE PUSH1 0x4 CALLDATASIZE LT PUSH2 0x34 JUMPI PUSH1 0x0 CALLDATALOAD PUSH1 0xE0 SHR DUP1 PUSH4 0xC49C74B EQ PUSH2 0x39 JUMPI DUP1 PUSH4 0x73D4A13A EQ PUSH2 0x62 JUMPI DUP1 PUSH4 0xF1B9B841 EQ PUSH2 0x8D JUMPI JUMPDEST PUSH1 0x0 DUP1 REVERT JUMPDEST CALLVALUE DUP1 ISZERO PUSH2 0x45 JUMPI PUSH1 0x0 DUP1 REVERT JUMPDEST POP PUSH2 0x60 PUSH1 0x4 DUP1 CALLDATASIZE SUB DUP2 ADD SWAP1 PUSH2 0x5B SWAP2 SWAP1 PUSH2 0x485 JUMP JUMPDEST PUSH2 0xA9 JUMP JUMPDEST STOP JUMPDEST CALLVALUE DUP1 ISZERO PUSH2 0x6E JUMPI PUSH1 0x0 DUP1 REVERT JUMPDEST POP PUSH2 0x77 PUSH2 0x1DC JUMP JUMPDEST PUSH1 0x40 MLOAD PUSH2 0x84 SWAP2 SWAP1 PUSH2 0x5AB JUMP JUMPDEST PUSH1 0x40 MLOAD DUP1 SWAP2 SUB SWAP1 RETURN JUMPDEST PUSH2 0xA7 PUSH1 0x4 DUP1 CALLDATASIZE SUB DUP2 ADD SWAP1 PUSH2 0xA2 SWAP2 SWAP1 PUSH2 0x485 JUMP JUMPDEST PUSH2 0x26A JUMP JUMPDEST STOP JUMPDEST PUSH1 0x0 DUP2 PUSH20 0xFFFFFFFFFFFFFFFFFFFFFFFFFFFFFFFFFFFFFFFF AND PUSH1 0x40 MLOAD PUSH1 0x24 ADD PUSH1 0x40 MLOAD PUSH1 0x20 DUP2 DUP4 SUB SUB DUP2 MSTORE SWAP1 PUSH1 0x40 MSTORE PUSH32 0x14FB19DB00000000000000000000000000000000000000000000000000000000 PUSH28 0xFFFFFFFFFFFFFFFFFFFFFFFFFFFFFFFFFFFFFFFFFFFFFFFFFFFFFFFF NOT AND PUSH1 0x20 DUP3 ADD DUP1 MLOAD PUSH28 0xFFFFFFFFFFFFFFFFFFFFFFFFFFFFFFFFFFFFFFFFFFFFFFFFFFFFFFFF DUP4 DUP2 DUP4 AND OR DUP4 MSTORE POP POP POP POP PUSH1 0x40 MLOAD PUSH2 0x152 SWAP2 SWAP1 PUSH2 0x594 JUMP JUMPDEST PUSH1 0x0 PUSH1 0x40 MLOAD DUP1 DUP4 SUB DUP2 PUSH1 0x0 DUP7 GAS CALL SWAP2 POP POP RETURNDATASIZE DUP1 PUSH1 0x0 DUP2 EQ PUSH2 0x18F JUMPI PUSH1 0x40 MLOAD SWAP2 POP PUSH1 0x1F NOT PUSH1 0x3F RETURNDATASIZE ADD AND DUP3 ADD PUSH1 0x40 MSTORE RETURNDATASIZE DUP3 MSTORE RETURNDATASIZE PUSH1 0x0 PUSH1 0x20 DUP5 ADD RETURNDATACOPY PUSH2 0x194 JUMP JUMPDEST PUSH1 0x60 SWAP2 POP JUMPDEST POP POP SWAP1 POP DUP1 PUSH2 0x1D8 JUMPI PUSH1 0x40 MLOAD PUSH32 0x8C379A000000000000000000000000000000000000000000000000000000000 DUP2 MSTORE PUSH1 0x4 ADD PUSH2 0x1CF SWAP1 PUSH2 0x5FB JUMP JUMPDEST PUSH1 0x40 MLOAD DUP1 SWAP2 SUB SWAP1 REVERT JUMPDEST POP POP JUMP JUMPDEST PUSH1 0x0 DUP1 SLOAD PUSH2 0x1E9 SWAP1 PUSH2 0x6F8 JUMP JUMPDEST DUP1 PUSH1 0x1F ADD PUSH1 0x20 DUP1 SWAP2 DIV MUL PUSH1 0x20 ADD PUSH1 0x40 MLOAD SWAP1 DUP2 ADD PUSH1 0x40 MSTORE DUP1 SWAP3 SWAP2 SWAP1 DUP2 DUP2 MSTORE PUSH1 0x20 ADD DUP3 DUP1 SLOAD PUSH2 0x215 SWAP1 PUSH2 0x6F8 JUMP JUMPDEST DUP1 ISZERO PUSH2 0x262 JUMPI DUP1 PUSH1 0x1F LT PUSH2 0x237 JUMPI PUSH2 0x100 DUP1 DUP4 SLOAD DIV MUL DUP4 MSTORE SWAP2 PUSH1 0x20 ADD SWAP2 PUSH2 0x262 JUMP JUMPDEST DUP3 ADD SWAP2 SWAP1 PUSH1 0x0 MSTORE PUSH1 0x20 PUSH1 0x0 KECCAK256 SWAP1 JUMPDEST DUP2 SLOAD DUP2 MSTORE SWAP1 PUSH1 0x1 ADD SWAP1 PUSH1 0x20 ADD DUP1 DUP4 GT PUSH2 0x245 JUMPI DUP3 SWAP1 SUB PUSH1 0x1F AND DUP3 ADD SWAP2 JUMPDEST POP POP POP POP POP DUP2 JUMP JUMPDEST PUSH1 0x0 DUP1 DUP3 PUSH20 0xFFFFFFFFFFFFFFFFFFFFFFFFFFFFFFFFFFFFFFFF AND PUSH2 0x4D2 PUSH3 0x186A0 SWAP1 PUSH2 0x4D2 PUSH1 0x40 MLOAD PUSH1 0x24 ADD PUSH2 0x29F SWAP2 SWAP1 PUSH2 0x5CD JUMP JUMPDEST PUSH1 0x40 MLOAD PUSH1 0x20 DUP2 DUP4 SUB SUB DUP2 MSTORE SWAP1 PUSH1 0x40 MSTORE PUSH32 0xFB7E794400000000000000000000000000000000000000000000000000000000 PUSH28 0xFFFFFFFFFFFFFFFFFFFFFFFFFFFFFFFFFFFFFFFFFFFFFFFFFFFFFFFF NOT AND PUSH1 0x20 DUP3 ADD DUP1 MLOAD PUSH28 0xFFFFFFFFFFFFFFFFFFFFFFFFFFFFFFFFFFFFFFFFFFFFFFFFFFFFFFFF DUP4 DUP2 DUP4 AND OR DUP4 MSTORE POP POP POP POP PUSH1 0x40 MLOAD PUSH2 0x329 SWAP2 SWAP1 PUSH2 0x594 JUMP JUMPDEST PUSH1 0x0 PUSH1 0x40 MLOAD DUP1 DUP4 SUB DUP2 DUP6 DUP9 DUP9 CALL SWAP4 POP POP POP POP RETURNDATASIZE DUP1 PUSH1 0x0 DUP2 EQ PUSH2 0x367 JUMPI PUSH1 0x40 MLOAD SWAP2 POP PUSH1 0x1F NOT PUSH1 0x3F RETURNDATASIZE ADD AND DUP3 ADD PUSH1 0x40 MSTORE RETURNDATASIZE DUP3 MSTORE RETURNDATASIZE PUSH1 0x0 PUSH1 0x20 DUP5 ADD RETURNDATACOPY PUSH2 0x36C JUMP JUMPDEST PUSH1 0x60 SWAP2 POP JUMPDEST POP SWAP2 POP SWAP2 POP DUP2 PUSH2 0x3B1 JUMPI PUSH1 0x40 MLOAD PUSH32 0x8C379A000000000000000000000000000000000000000000000000000000000 DUP2 MSTORE PUSH1 0x4 ADD PUSH2 0x3A8 SWAP1 PUSH2 0x61B JUMP JUMPDEST PUSH1 0x40 MLOAD DUP1 SWAP2 SUB SWAP1 REVERT JUMPDEST DUP1 PUSH1 0x0 SWAP1 DUP1 MLOAD SWAP1 PUSH1 0x20 ADD SWAP1 PUSH2 0x3C7 SWAP3 SWAP2 SWAP1 PUSH2 0x3CD JUMP JUMPDEST POP POP POP POP JUMP JUMPDEST DUP3 DUP1 SLOAD PUSH2 0x3D9 SWAP1 PUSH2 0x6F8 JUMP JUMPDEST SWAP1 PUSH1 0x0 MSTORE PUSH1 0x20 PUSH1 0x0 KECCAK256 SWAP1 PUSH1 0x1F ADD PUSH1 0x20 SWAP1 DIV DUP2 ADD SWAP3 DUP3 PUSH2 0x3FB JUMPI PUSH1 0x0 DUP6 SSTORE PUSH2 0x442 JUMP JUMPDEST DUP3 PUSH1 0x1F LT PUSH2 0x414 JUMPI DUP1 MLOAD PUSH1 0xFF NOT AND DUP4 DUP1 ADD OR DUP6 SSTORE PUSH2 0x442 JUMP JUMPDEST DUP3 DUP1 ADD PUSH1 0x1 ADD DUP6 SSTORE DUP3 ISZERO PUSH2 0x442 JUMPI SWAP2 DUP3 ADD JUMPDEST DUP3 DUP2 GT ISZERO PUSH2 0x441 JUMPI DUP3 MLOAD DUP3 SSTORE SWAP2 PUSH1 0x20 ADD SWAP2 SWAP1 PUSH1 0x1 ADD SWAP1 PUSH2 0x426 JUMP JUMPDEST JUMPDEST POP SWAP1 POP PUSH2 0x44F SWAP2 SWAP1 PUSH2 0x453 JUMP JUMPDEST POP SWAP1 JUMP JUMPDEST JUMPDEST DUP1 DUP3 GT ISZERO PUSH2 0x46C JUMPI PUSH1 0x0 DUP2 PUSH1 0x0 SWAP1 SSTORE POP PUSH1 0x1 ADD PUSH2 0x454 JUMP JUMPDEST POP SWAP1 JUMP JUMPDEST PUSH1 0x0 DUP2 CALLDATALOAD SWAP1 POP PUSH2 0x47F DUP2 PUSH2 0x7EA JUMP JUMPDEST SWAP3 SWAP2 POP POP JUMP JUMPDEST PUSH1 0x0 PUSH1 0x20 DUP3 DUP5 SUB SLT ISZERO PUSH2 0x49B JUMPI PUSH2 0x49A PUSH2 0x759 JUMP JUMPDEST JUMPDEST PUSH1 0x0 PUSH2 0x4A9 DUP5 DUP3 DUP6 ADD PUSH2 0x470 JUMP JUMPDEST SWAP2 POP POP SWAP3 SWAP2 POP POP JUMP JUMPDEST PUSH1 0x0 PUSH2 0x4BD DUP3 PUSH2 0x63B JUMP JUMPDEST PUSH2 0x4C7 DUP2 DUP6 PUSH2 0x646 JUMP JUMPDEST SWAP4 POP PUSH2 0x4D7 DUP2 DUP6 PUSH1 0x20 DUP7 ADD PUSH2 0x6C5 JUMP JUMPDEST PUSH2 0x4E0 DUP2 PUSH2 0x75E JUMP JUMPDEST DUP5 ADD SWAP2 POP POP SWAP3 SWAP2 POP POP JUMP JUMPDEST PUSH1 0x0 PUSH2 0x4F6 DUP3 PUSH2 0x63B JUMP JUMPDEST PUSH2 0x500 DUP2 DUP6 PUSH2 0x657 JUMP JUMPDEST SWAP4 POP PUSH2 0x510 DUP2 DUP6 PUSH1 0x20 DUP7 ADD PUSH2 0x6C5 JUMP JUMPDEST DUP1 DUP5 ADD SWAP2 POP POP SWAP3 SWAP2 POP POP JUMP JUMPDEST PUSH2 0x525 DUP2 PUSH2 0x6B3 JUMP JUMPDEST DUP3 MSTORE POP POP JUMP JUMPDEST PUSH1 0x0 PUSH2 0x538 PUSH1 0xA DUP4 PUSH2 0x662 JUMP JUMPDEST SWAP2 POP PUSH2 0x543 DUP3 PUSH2 0x76F JUMP JUMPDEST PUSH1 0x20 DUP3 ADD SWAP1 POP SWAP2 SWAP1 POP JUMP JUMPDEST PUSH1 0x0 PUSH2 0x55B PUSH1 0x18 DUP4 PUSH2 0x662 JUMP JUMPDEST SWAP2 POP PUSH2 0x566 DUP3 PUSH2 0x798 JUMP JUMPDEST PUSH1 0x20 DUP3 ADD SWAP1 POP SWAP2 SWAP1 POP JUMP JUMPDEST PUSH1 0x0 PUSH2 0x57E PUSH1 0xB DUP4 PUSH2 0x662 JUMP JUMPDEST SWAP2 POP PUSH2 0x589 DUP3 PUSH2 0x7C1 JUMP JUMPDEST PUSH1 0x20 DUP3 ADD SWAP1 POP SWAP2 SWAP1 POP JUMP JUMPDEST PUSH1 0x0 PUSH2 0x5A0 DUP3 DUP5 PUSH2 0x4EB JUMP JUMPDEST SWAP2 POP DUP2 SWAP1 POP SWAP3 SWAP2 POP POP JUMP JUMPDEST PUSH1 0x0 PUSH1 0x20 DUP3 ADD SWAP1 POP DUP2 DUP2 SUB PUSH1 0x0 DUP4 ADD MSTORE PUSH2 0x5C5 DUP2 DUP5 PUSH2 0x4B2 JUMP JUMPDEST SWAP1 POP SWAP3 SWAP2 POP POP JUMP JUMPDEST PUSH1 0x0 PUSH1 0x40 DUP3 ADD SWAP1 POP DUP2 DUP2 SUB PUSH1 0x0 DUP4 ADD MSTORE PUSH2 0x5E6 DUP2 PUSH2 0x52B JUMP JUMPDEST SWAP1 POP PUSH2 0x5F5 PUSH1 0x20 DUP4 ADD DUP5 PUSH2 0x51C JUMP JUMPDEST SWAP3 SWAP2 POP POP JUMP JUMPDEST PUSH1 0x0 PUSH1 0x20 DUP3 ADD SWAP1 POP DUP2 DUP2 SUB PUSH1 0x0 DUP4 ADD MSTORE PUSH2 0x614 DUP2 PUSH2 0x54E JUMP JUMPDEST SWAP1 POP SWAP2 SWAP1 POP JUMP JUMPDEST PUSH1 0x0 PUSH1 0x20 DUP3 ADD SWAP1 POP DUP2 DUP2 SUB PUSH1 0x0 DUP4 ADD MSTORE PUSH2 0x634 DUP2 PUSH2 0x571 JUMP JUMPDEST SWAP1 POP SWAP2 SWAP1 POP JUMP JUMPDEST PUSH1 0x0 DUP2 MLOAD SWAP1 POP SWAP2 SWAP1 POP JUMP JUMPDEST PUSH1 0x0 DUP3 DUP3 MSTORE PUSH1 0x20 DUP3 ADD SWAP1 POP SWAP3 SWAP2 POP POP JUMP JUMPDEST PUSH1 0x0 DUP2 SWAP1 POP SWAP3 SWAP2 POP POP JUMP JUMPDEST PUSH1 0x0 DUP3 DUP3 MSTORE PUSH1 0x20 DUP3 ADD SWAP1 POP SWAP3 SWAP2 POP POP JUMP JUMPDEST PUSH1 0x0 PUSH2 0x67E DUP3 PUSH2 0x693 JUMP JUMPDEST SWAP1 POP SWAP2 SWAP1 POP JUMP JUMPDEST PUSH1 0x0 PUSH2 0xFFFF DUP3 AND SWAP1 POP SWAP2 SWAP1 POP JUMP JUMPDEST PUSH1 0x0 PUSH20 0xFFFFFFFFFFFFFFFFFFFFFFFFFFFFFFFFFFFFFFFF DUP3 AND SWAP1 POP SWAP2 SWAP1 POP JUMP JUMPDEST PUSH1 0x0 PUSH2 0x6BE DUP3 PUSH2 0x685 JUMP JUMPDEST SWAP1 POP SWAP2 SWAP1 POP JUMP JUMPDEST PUSH1 0x0 JUMPDEST DUP4 DUP2 LT ISZERO PUSH2 0x6E3 JUMPI DUP1 DUP3 ADD MLOAD DUP2 DUP5 ADD MSTORE PUSH1 0x20 DUP2 ADD SWAP1 POP PUSH2 0x6C8 JUMP JUMPDEST DUP4 DUP2 GT ISZERO PUSH2 0x6F2 JUMPI PUSH1 0x0 DUP5 DUP5 ADD MSTORE JUMPDEST POP POP POP POP JUMP JUMPDEST PUSH1 0x0 PUSH1 0x2 DUP3 DIV SWAP1 POP PUSH1 0x1 DUP3 AND DUP1 PUSH2 0x710 JUMPI PUSH1 0x7F DUP3 AND SWAP2 POP JUMPDEST PUSH1 0x20 DUP3 LT DUP2 EQ ISZERO PUSH2 0x724 JUMPI PUSH2 0x723 PUSH2 0x72A JUMP JUMPDEST JUMPDEST POP SWAP2 SWAP1 POP JUMP JUMPDEST PUSH32 0x4E487B7100000000000000000000000000000000000000000000000000000000 PUSH1 0x0 MSTORE PUSH1 0x22 PUSH1 0x4 MSTORE PUSH1 0x24 PUSH1 0x0 REVERT JUMPDEST PUSH1 0x0 DUP1 REVERT JUMPDEST PUSH1 0x0 PUSH1 0x1F NOT PUSH1 0x1F DUP4 ADD AND SWAP1 POP SWAP2 SWAP1 POP JUMP JUMPDEST PUSH32 0x68656C6C6F2063616C6C00000000000000000000000000000000000000000000 PUSH1 0x0 DUP3 ADD MSTORE POP JUMP JUMPDEST PUSH32 0x63616C6C206E6F6E2D6578697374732066756E6374696F6E0000000000000000 PUSH1 0x0 DUP3 ADD MSTORE POP JUMP JUMPDEST PUSH32 0x63616C6C206661696C6564000000000000000000000000000000000000000000 PUSH1 0x0 DUP3 ADD MSTORE POP JUMP JUMPDEST PUSH2 0x7F3 DUP2 PUSH2 0x673 JUMP JUMPDEST DUP2 EQ PUSH2 0x7FE JUMPI PUSH1 0x0 DUP1 REVERT JUMPDEST POP JUMP INVALID LOG2 PUSH5 0x6970667358 0x22 SLT KECCAK256 PUSH7 0xFCCB6DB9FF0749 0xD9 MLOAD ADDMOD 0xDD CALLDATASIZE EXTCODECOPY LOG4 0xFC SWAP8 DUP13 PUSH4 0x977263B2 MUL 0xA6 OR 0xB4 PUSH24 0xEE72F9C664736F6C63430008070033000000000000000000 "
				},
				"gasEstimates": {
					"creation": {
						"codeDepositCost": "420600",
						"executionCost": "455",
						"totalCost": "421055"
					},
					"external": {
						"call1(address)": "infinite",
						"callNonExist(address)": "infinite",
						"data()": "infinite"
					}
				},
				"methodIdentifiers": {
					"call1(address)": "f1b9b841",
					"callNonExist(address)": "0c49c74b",
					"data()": "73d4a13a"
				}
			},
			"storageLayout": {
				"storage": [
					{
						"astId": 40,
						"contract": "CallTest2.sol:B",
						"label": "data",
						"offset": 0,
						"slot": "0",
						"type": "t_bytes_storage"
					}
				],
				"types": {
					"t_bytes_storage": {
						"encoding": "bytes",
						"label": "bytes",
						"numberOfBytes": "32"
					}
				}
			},
			"userdoc": {
				"kind": "user",
				"methods": {},
				"version": 1
			}
		}
	}
}