{
	"ArrayTest5.sol": {
		"Array5": {
			"abi": [
				{
					"inputs": [
						{
							"internalType": "uint256",
							"name": "",
							"type": "uint256"
						}
					],
					"name": "numbers",
					"outputs": [
						{
							"internalType": "uint256",
							"name": "",
							"type": "uint256"
						}
					],
					"stateMutability": "view",
					"type": "function"
				},
				{
					"inputs": [
						{
							"internalType": "uint256",
							"name": "index",
							"type": "uint256"
						}
					],
					"name": "remove1",
					"outputs": [],
					"stateMutability": "nonpayable",
					"type": "function"
				},
				{
					"inputs": [],
					"name": "test1",
					"outputs": [],
					"stateMutability": "nonpayable",
					"type": "function"
				}
			],
			"devdoc": {
				"kind": "dev",
				"methods": {},
				"version": 1
			},
			"evm": {
				"assembly": "    /* \"ArrayTest5.sol\":75:661  contract Array5{... */\n  mstore(0x40, 0x80)\n  callvalue\n  dup1\n  iszero\n  tag_1\n  jumpi\n  0x00\n  dup1\n  revert\ntag_1:\n  pop\n  dataSize(sub_0)\n  dup1\n  dataOffset(sub_0)\n  0x00\n  codecopy\n  0x00\n  return\nstop\n\nsub_0: assembly {\n        /* \"ArrayTest5.sol\":75:661  contract Array5{... */\n      mstore(0x40, 0x80)\n      callvalue\n      dup1\n      iszero\n      tag_1\n      jumpi\n      0x00\n      dup1\n      revert\n    tag_1:\n      pop\n      jumpi(tag_2, lt(calldatasize, 0x04))\n      shr(0xe0, calldataload(0x00))\n      dup1\n      0x670ea637\n      eq\n      tag_3\n      jumpi\n      dup1\n      0x6b59084d\n      eq\n      tag_4\n      jumpi\n      dup1\n      0xd39fa233\n      eq\n      tag_5\n      jumpi\n    tag_2:\n      0x00\n      dup1\n      revert\n        /* \"ArrayTest5.sol\":129:372  function remove1(uint index) public{... */\n    tag_3:\n      tag_6\n      0x04\n      dup1\n      calldatasize\n      sub\n      dup2\n      add\n      swap1\n      tag_7\n      swap2\n      swap1\n      tag_8\n      jump\t// in\n    tag_7:\n      tag_9\n      jump\t// in\n    tag_6:\n      stop\n        /* \"ArrayTest5.sol\":379:658  function test1() external{... */\n    tag_4:\n      tag_10\n      tag_11\n      jump\t// in\n    tag_10:\n      stop\n        /* \"ArrayTest5.sol\":101:122  uint[] public numbers */\n    tag_5:\n      tag_12\n      0x04\n      dup1\n      calldatasize\n      sub\n      dup2\n      add\n      swap1\n      tag_13\n      swap2\n      swap1\n      tag_8\n      jump\t// in\n    tag_13:\n      tag_14\n      jump\t// in\n    tag_12:\n      mload(0x40)\n      tag_15\n      swap2\n      swap1\n      tag_16\n      jump\t// in\n    tag_15:\n      mload(0x40)\n      dup1\n      swap2\n      sub\n      swap1\n      return\n        /* \"ArrayTest5.sol\":129:372  function remove1(uint index) public{... */\n    tag_9:\n        /* \"ArrayTest5.sol\":174:185  uint length */\n      0x00\n        /* \"ArrayTest5.sol\":188:195  numbers */\n      dup1\n        /* \"ArrayTest5.sol\":188:202  numbers.length */\n      dup1\n      sload\n      swap1\n      pop\n        /* \"ArrayTest5.sol\":174:202  uint length = numbers.length */\n      swap1\n      pop\n        /* \"ArrayTest5.sol\":233:234  1 */\n      0x01\n        /* \"ArrayTest5.sol\":224:230  length */\n      dup2\n        /* \"ArrayTest5.sol\":224:234  length - 1 */\n      tag_18\n      swap2\n      swap1\n      tag_19\n      jump\t// in\n    tag_18:\n        /* \"ArrayTest5.sol\":215:220  index */\n      dup3\n        /* \"ArrayTest5.sol\":215:234  index == length - 1 */\n      sub\n        /* \"ArrayTest5.sol\":212:366  if(index == length - 1){... */\n      tag_20\n      jumpi\n        /* \"ArrayTest5.sol\":249:256  numbers */\n      0x00\n        /* \"ArrayTest5.sol\":249:262  numbers.pop() */\n      dup1\n      sload\n      dup1\n      tag_21\n      jumpi\n      tag_22\n      tag_23\n      jump\t// in\n    tag_22:\n    tag_21:\n      0x01\n      swap1\n      sub\n      dup2\n      dup2\n      swap1\n      0x00\n      mstore\n      keccak256(0x00, 0x20)\n      add\n      0x00\n      swap1\n      sstore\n      swap1\n      sstore\n        /* \"ArrayTest5.sol\":212:366  if(index == length - 1){... */\n      jump(tag_25)\n    tag_20:\n        /* \"ArrayTest5.sol\":309:316  numbers */\n      0x00\n        /* \"ArrayTest5.sol\":326:327  1 */\n      0x01\n        /* \"ArrayTest5.sol\":317:323  length */\n      dup3\n        /* \"ArrayTest5.sol\":317:327  length - 1 */\n      tag_26\n      swap2\n      swap1\n      tag_19\n      jump\t// in\n    tag_26:\n        /* \"ArrayTest5.sol\":309:328  numbers[length - 1] */\n      dup2\n      sload\n      dup2\n      lt\n      tag_27\n      jumpi\n      tag_28\n      tag_29\n      jump\t// in\n    tag_28:\n    tag_27:\n      swap1\n      0x00\n      mstore\n      keccak256(0x00, 0x20)\n      add\n      sload\n        /* \"ArrayTest5.sol\":292:299  numbers */\n      0x00\n        /* \"ArrayTest5.sol\":300:305  index */\n      dup4\n        /* \"ArrayTest5.sol\":292:306  numbers[index] */\n      dup2\n      sload\n      dup2\n      lt\n      tag_31\n      jumpi\n      tag_32\n      tag_29\n      jump\t// in\n    tag_32:\n    tag_31:\n      swap1\n      0x00\n      mstore\n      keccak256(0x00, 0x20)\n      add\n        /* \"ArrayTest5.sol\":292:328  numbers[index] = numbers[length - 1] */\n      dup2\n      swap1\n      sstore\n      pop\n        /* \"ArrayTest5.sol\":342:349  numbers */\n      0x00\n        /* \"ArrayTest5.sol\":342:355  numbers.pop() */\n      dup1\n      sload\n      dup1\n      tag_34\n      jumpi\n      tag_35\n      tag_23\n      jump\t// in\n    tag_35:\n    tag_34:\n      0x01\n      swap1\n      sub\n      dup2\n      dup2\n      swap1\n      0x00\n      mstore\n      keccak256(0x00, 0x20)\n      add\n      0x00\n      swap1\n      sstore\n      swap1\n      sstore\n        /* \"ArrayTest5.sol\":212:366  if(index == length - 1){... */\n    tag_25:\n        /* \"ArrayTest5.sol\":164:372  {... */\n      pop\n        /* \"ArrayTest5.sol\":129:372  function remove1(uint index) public{... */\n      pop\n      jump\t// out\n        /* \"ArrayTest5.sol\":379:658  function test1() external{... */\n    tag_11:\n        /* \"ArrayTest5.sol\":414:435  numbers = [1,2,3,4,5] */\n      mload(0x40)\n      dup1\n      0xa0\n      add\n      0x40\n      mstore\n      dup1\n        /* \"ArrayTest5.sol\":425:426  1 */\n      0x01\n        /* \"ArrayTest5.sol\":414:435  numbers = [1,2,3,4,5] */\n      0xff\n      and\n      dup2\n      mstore\n      0x20\n      add\n        /* \"ArrayTest5.sol\":427:428  2 */\n      0x02\n        /* \"ArrayTest5.sol\":414:435  numbers = [1,2,3,4,5] */\n      0xff\n      and\n      dup2\n      mstore\n      0x20\n      add\n        /* \"ArrayTest5.sol\":429:430  3 */\n      0x03\n        /* \"ArrayTest5.sol\":414:435  numbers = [1,2,3,4,5] */\n      0xff\n      and\n      dup2\n      mstore\n      0x20\n      add\n        /* \"ArrayTest5.sol\":431:432  4 */\n      0x04\n        /* \"ArrayTest5.sol\":414:435  numbers = [1,2,3,4,5] */\n      0xff\n      and\n      dup2\n      mstore\n      0x20\n      add\n        /* \"ArrayTest5.sol\":433:434  5 */\n      0x05\n        /* \"ArrayTest5.sol\":414:435  numbers = [1,2,3,4,5] */\n      0xff\n      and\n      dup2\n      mstore\n      pop\n        /* \"ArrayTest5.sol\":414:421  numbers */\n      0x00\n        /* \"ArrayTest5.sol\":414:435  numbers = [1,2,3,4,5] */\n      swap1\n      0x05\n      tag_38\n      swap3\n      swap2\n      swap1\n      tag_39\n      jump\t// in\n    tag_38:\n      pop\n        /* \"ArrayTest5.sol\":445:455  remove1(2) */\n      tag_40\n        /* \"ArrayTest5.sol\":453:454  2 */\n      0x02\n        /* \"ArrayTest5.sol\":445:452  remove1 */\n      tag_9\n        /* \"ArrayTest5.sol\":445:455  remove1(2) */\n      jump\t// in\n    tag_40:\n        /* \"ArrayTest5.sol\":511:512  4 */\n      0x04\n        /* \"ArrayTest5.sol\":493:500  numbers */\n      0x00\n        /* \"ArrayTest5.sol\":493:507  numbers.length */\n      dup1\n      sload\n      swap1\n      pop\n        /* \"ArrayTest5.sol\":493:512  numbers.length == 4 */\n      eq\n        /* \"ArrayTest5.sol\":486:513  assert(numbers.length == 4) */\n      tag_41\n      jumpi\n      tag_42\n      tag_43\n      jump\t// in\n    tag_42:\n    tag_41:\n        /* \"ArrayTest5.sol\":544:545  1 */\n      0x01\n        /* \"ArrayTest5.sol\":530:537  numbers */\n      0x00\n        /* \"ArrayTest5.sol\":538:539  0 */\n      dup1\n        /* \"ArrayTest5.sol\":530:540  numbers[0] */\n      dup2\n      sload\n      dup2\n      lt\n      tag_44\n      jumpi\n      tag_45\n      tag_29\n      jump\t// in\n    tag_45:\n    tag_44:\n      swap1\n      0x00\n      mstore\n      keccak256(0x00, 0x20)\n      add\n      sload\n        /* \"ArrayTest5.sol\":530:545  numbers[0] == 1 */\n      eq\n        /* \"ArrayTest5.sol\":523:546  assert(numbers[0] == 1) */\n      tag_47\n      jumpi\n      tag_48\n      tag_43\n      jump\t// in\n    tag_48:\n    tag_47:\n        /* \"ArrayTest5.sol\":577:578  2 */\n      0x02\n        /* \"ArrayTest5.sol\":563:570  numbers */\n      0x00\n        /* \"ArrayTest5.sol\":571:572  1 */\n      0x01\n        /* \"ArrayTest5.sol\":563:573  numbers[1] */\n      dup2\n      sload\n      dup2\n      lt\n      tag_49\n      jumpi\n      tag_50\n      tag_29\n      jump\t// in\n    tag_50:\n    tag_49:\n      swap1\n      0x00\n      mstore\n      keccak256(0x00, 0x20)\n      add\n      sload\n        /* \"ArrayTest5.sol\":563:578  numbers[1] == 2 */\n      eq\n        /* \"ArrayTest5.sol\":556:579  assert(numbers[1] == 2) */\n      tag_52\n      jumpi\n      tag_53\n      tag_43\n      jump\t// in\n    tag_53:\n    tag_52:\n        /* \"ArrayTest5.sol\":379:658  function test1() external{... */\n      jump\t// out\n        /* \"ArrayTest5.sol\":101:122  uint[] public numbers */\n    tag_14:\n      0x00\n      dup2\n      dup2\n      sload\n      dup2\n      lt\n      tag_54\n      jumpi\n      0x00\n      dup1\n      revert\n    tag_54:\n      swap1\n      0x00\n      mstore\n      keccak256(0x00, 0x20)\n      add\n      0x00\n      swap2\n      pop\n      swap1\n      pop\n      sload\n      dup2\n      jump\t// out\n    tag_39:\n      dup3\n      dup1\n      sload\n      dup3\n      dup3\n      sstore\n      swap1\n      0x00\n      mstore\n      keccak256(0x00, 0x20)\n      swap1\n      dup2\n      add\n      swap3\n      dup3\n      iszero\n      tag_56\n      jumpi\n      swap2\n      0x20\n      mul\n      dup3\n      add\n    tag_57:\n      dup3\n      dup2\n      gt\n      iszero\n      tag_58\n      jumpi\n      dup3\n      mload\n      dup3\n      swap1\n      0xff\n      and\n      swap1\n      sstore\n      swap2\n      0x20\n      add\n      swap2\n      swap1\n      0x01\n      add\n      swap1\n      jump(tag_57)\n    tag_58:\n    tag_56:\n      pop\n      swap1\n      pop\n      tag_59\n      swap2\n      swap1\n      tag_60\n      jump\t// in\n    tag_59:\n      pop\n      swap1\n      jump\t// out\n    tag_60:\n    tag_61:\n      dup1\n      dup3\n      gt\n      iszero\n      tag_62\n      jumpi\n      0x00\n      dup2\n      0x00\n      swap1\n      sstore\n      pop\n      0x01\n      add\n      jump(tag_61)\n    tag_62:\n      pop\n      swap1\n      jump\t// out\n        /* \"#utility.yul\":88:205   */\n    tag_64:\n        /* \"#utility.yul\":197:198   */\n      0x00\n        /* \"#utility.yul\":194:195   */\n      dup1\n        /* \"#utility.yul\":187:199   */\n      revert\n        /* \"#utility.yul\":334:411   */\n    tag_66:\n        /* \"#utility.yul\":371:378   */\n      0x00\n        /* \"#utility.yul\":400:405   */\n      dup2\n        /* \"#utility.yul\":389:405   */\n      swap1\n      pop\n        /* \"#utility.yul\":334:411   */\n      swap2\n      swap1\n      pop\n      jump\t// out\n        /* \"#utility.yul\":417:539   */\n    tag_67:\n        /* \"#utility.yul\":490:514   */\n      tag_77\n        /* \"#utility.yul\":508:513   */\n      dup2\n        /* \"#utility.yul\":490:514   */\n      tag_66\n      jump\t// in\n    tag_77:\n        /* \"#utility.yul\":483:488   */\n      dup2\n        /* \"#utility.yul\":480:515   */\n      eq\n        /* \"#utility.yul\":470:533   */\n      tag_78\n      jumpi\n        /* \"#utility.yul\":529:530   */\n      0x00\n        /* \"#utility.yul\":526:527   */\n      dup1\n        /* \"#utility.yul\":519:531   */\n      revert\n        /* \"#utility.yul\":470:533   */\n    tag_78:\n        /* \"#utility.yul\":417:539   */\n      pop\n      jump\t// out\n        /* \"#utility.yul\":545:684   */\n    tag_68:\n        /* \"#utility.yul\":591:596   */\n      0x00\n        /* \"#utility.yul\":629:635   */\n      dup2\n        /* \"#utility.yul\":616:636   */\n      calldataload\n        /* \"#utility.yul\":607:636   */\n      swap1\n      pop\n        /* \"#utility.yul\":645:678   */\n      tag_80\n        /* \"#utility.yul\":672:677   */\n      dup2\n        /* \"#utility.yul\":645:678   */\n      tag_67\n      jump\t// in\n    tag_80:\n        /* \"#utility.yul\":545:684   */\n      swap3\n      swap2\n      pop\n      pop\n      jump\t// out\n        /* \"#utility.yul\":690:1019   */\n    tag_8:\n        /* \"#utility.yul\":749:755   */\n      0x00\n        /* \"#utility.yul\":798:800   */\n      0x20\n        /* \"#utility.yul\":786:795   */\n      dup3\n        /* \"#utility.yul\":777:784   */\n      dup5\n        /* \"#utility.yul\":773:796   */\n      sub\n        /* \"#utility.yul\":769:801   */\n      slt\n        /* \"#utility.yul\":766:885   */\n      iszero\n      tag_82\n      jumpi\n        /* \"#utility.yul\":804:883   */\n      tag_83\n      tag_64\n      jump\t// in\n    tag_83:\n        /* \"#utility.yul\":766:885   */\n    tag_82:\n        /* \"#utility.yul\":924:925   */\n      0x00\n        /* \"#utility.yul\":949:1002   */\n      tag_84\n        /* \"#utility.yul\":994:1001   */\n      dup5\n        /* \"#utility.yul\":985:991   */\n      dup3\n        /* \"#utility.yul\":974:983   */\n      dup6\n        /* \"#utility.yul\":970:992   */\n      add\n        /* \"#utility.yul\":949:1002   */\n      tag_68\n      jump\t// in\n    tag_84:\n        /* \"#utility.yul\":939:1002   */\n      swap2\n      pop\n        /* \"#utility.yul\":895:1012   */\n      pop\n        /* \"#utility.yul\":690:1019   */\n      swap3\n      swap2\n      pop\n      pop\n      jump\t// out\n        /* \"#utility.yul\":1025:1143   */\n    tag_69:\n        /* \"#utility.yul\":1112:1136   */\n      tag_86\n        /* \"#utility.yul\":1130:1135   */\n      dup2\n        /* \"#utility.yul\":1112:1136   */\n      tag_66\n      jump\t// in\n    tag_86:\n        /* \"#utility.yul\":1107:1110   */\n      dup3\n        /* \"#utility.yul\":1100:1137   */\n      mstore\n        /* \"#utility.yul\":1025:1143   */\n      pop\n      pop\n      jump\t// out\n        /* \"#utility.yul\":1149:1371   */\n    tag_16:\n        /* \"#utility.yul\":1242:1246   */\n      0x00\n        /* \"#utility.yul\":1280:1282   */\n      0x20\n        /* \"#utility.yul\":1269:1278   */\n      dup3\n        /* \"#utility.yul\":1265:1283   */\n      add\n        /* \"#utility.yul\":1257:1283   */\n      swap1\n      pop\n        /* \"#utility.yul\":1293:1364   */\n      tag_88\n        /* \"#utility.yul\":1361:1362   */\n      0x00\n        /* \"#utility.yul\":1350:1359   */\n      dup4\n        /* \"#utility.yul\":1346:1363   */\n      add\n        /* \"#utility.yul\":1337:1343   */\n      dup5\n        /* \"#utility.yul\":1293:1364   */\n      tag_69\n      jump\t// in\n    tag_88:\n        /* \"#utility.yul\":1149:1371   */\n      swap3\n      swap2\n      pop\n      pop\n      jump\t// out\n        /* \"#utility.yul\":1377:1557   */\n    tag_70:\n        /* \"#utility.yul\":1425:1502   */\n      0x4e487b7100000000000000000000000000000000000000000000000000000000\n        /* \"#utility.yul\":1422:1423   */\n      0x00\n        /* \"#utility.yul\":1415:1503   */\n      mstore\n        /* \"#utility.yul\":1522:1526   */\n      0x11\n        /* \"#utility.yul\":1519:1520   */\n      0x04\n        /* \"#utility.yul\":1512:1527   */\n      mstore\n        /* \"#utility.yul\":1546:1550   */\n      0x24\n        /* \"#utility.yul\":1543:1544   */\n      0x00\n        /* \"#utility.yul\":1536:1551   */\n      revert\n        /* \"#utility.yul\":1563:1757   */\n    tag_19:\n        /* \"#utility.yul\":1603:1607   */\n      0x00\n        /* \"#utility.yul\":1623:1643   */\n      tag_91\n        /* \"#utility.yul\":1641:1642   */\n      dup3\n        /* \"#utility.yul\":1623:1643   */\n      tag_66\n      jump\t// in\n    tag_91:\n        /* \"#utility.yul\":1618:1643   */\n      swap2\n      pop\n        /* \"#utility.yul\":1657:1677   */\n      tag_92\n        /* \"#utility.yul\":1675:1676   */\n      dup4\n        /* \"#utility.yul\":1657:1677   */\n      tag_66\n      jump\t// in\n    tag_92:\n        /* \"#utility.yul\":1652:1677   */\n      swap3\n      pop\n        /* \"#utility.yul\":1701:1702   */\n      dup3\n        /* \"#utility.yul\":1698:1699   */\n      dup3\n        /* \"#utility.yul\":1694:1703   */\n      sub\n        /* \"#utility.yul\":1686:1703   */\n      swap1\n      pop\n        /* \"#utility.yul\":1725:1726   */\n      dup2\n        /* \"#utility.yul\":1719:1723   */\n      dup2\n        /* \"#utility.yul\":1716:1727   */\n      gt\n        /* \"#utility.yul\":1713:1750   */\n      iszero\n      tag_93\n      jumpi\n        /* \"#utility.yul\":1730:1748   */\n      tag_94\n      tag_70\n      jump\t// in\n    tag_94:\n        /* \"#utility.yul\":1713:1750   */\n    tag_93:\n        /* \"#utility.yul\":1563:1757   */\n      swap3\n      swap2\n      pop\n      pop\n      jump\t// out\n        /* \"#utility.yul\":1763:1943   */\n    tag_23:\n        /* \"#utility.yul\":1811:1888   */\n      0x4e487b7100000000000000000000000000000000000000000000000000000000\n        /* \"#utility.yul\":1808:1809   */\n      0x00\n        /* \"#utility.yul\":1801:1889   */\n      mstore\n        /* \"#utility.yul\":1908:1912   */\n      0x31\n        /* \"#utility.yul\":1905:1906   */\n      0x04\n        /* \"#utility.yul\":1898:1913   */\n      mstore\n        /* \"#utility.yul\":1932:1936   */\n      0x24\n        /* \"#utility.yul\":1929:1930   */\n      0x00\n        /* \"#utility.yul\":1922:1937   */\n      revert\n        /* \"#utility.yul\":1949:2129   */\n    tag_29:\n        /* \"#utility.yul\":1997:2074   */\n      0x4e487b7100000000000000000000000000000000000000000000000000000000\n        /* \"#utility.yul\":1994:1995   */\n      0x00\n        /* \"#utility.yul\":1987:2075   */\n      mstore\n        /* \"#utility.yul\":2094:2098   */\n      0x32\n        /* \"#utility.yul\":2091:2092   */\n      0x04\n        /* \"#utility.yul\":2084:2099   */\n      mstore\n        /* \"#utility.yul\":2118:2122   */\n      0x24\n        /* \"#utility.yul\":2115:2116   */\n      0x00\n        /* \"#utility.yul\":2108:2123   */\n      revert\n        /* \"#utility.yul\":2135:2315   */\n    tag_43:\n        /* \"#utility.yul\":2183:2260   */\n      0x4e487b7100000000000000000000000000000000000000000000000000000000\n        /* \"#utility.yul\":2180:2181   */\n      0x00\n        /* \"#utility.yul\":2173:2261   */\n      mstore\n        /* \"#utility.yul\":2280:2284   */\n      0x01\n        /* \"#utility.yul\":2277:2278   */\n      0x04\n        /* \"#utility.yul\":2270:2285   */\n      mstore\n        /* \"#utility.yul\":2304:2308   */\n      0x24\n        /* \"#utility.yul\":2301:2302   */\n      0x00\n        /* \"#utility.yul\":2294:2309   */\n      revert\n\n    auxdata: 0xa264697066735822122059d49a72e72b74fa9429429808cc1dad641d044855a677c34b88d2bdae2a8c0f64736f6c63430008110033\n}\n",
				"bytecode": {
					"linkReferences": {},
					"object": "608060405234801561001057600080fd5b50610477806100206000396000f3fe608060405234801561001057600080fd5b50600436106100415760003560e01c8063670ea637146100465780636b59084d14610062578063d39fa2331461006c575b600080fd5b610060600480360381019061005b91906102fa565b61009c565b005b61006a61015f565b005b610086600480360381019061008191906102fa565b61022c565b6040516100939190610336565b60405180910390f35b6000808054905090506001816100b29190610380565b82036100e55760008054806100ca576100c96103b4565b5b6001900381819060005260206000200160009055905561015b565b60006001826100f49190610380565b81548110610105576101046103e3565b5b906000526020600020015460008381548110610124576101236103e3565b5b90600052602060002001819055506000805480610144576101436103b4565b5b600190038181906000526020600020016000905590555b5050565b6040518060a00160405280600160ff168152602001600260ff168152602001600360ff168152602001600460ff168152602001600560ff1681525060009060056101aa929190610250565b506101b5600261009c565b6004600080549050146101cb576101ca610412565b5b6001600080815481106101e1576101e06103e3565b5b9060005260206000200154146101fa576101f9610412565b5b60026000600181548110610211576102106103e3565b5b90600052602060002001541461022a57610229610412565b5b565b6000818154811061023c57600080fd5b906000526020600020016000915090505481565b828054828255906000526020600020908101928215610291579160200282015b82811115610290578251829060ff16905591602001919060010190610270565b5b50905061029e91906102a2565b5090565b5b808211156102bb5760008160009055506001016102a3565b5090565b600080fd5b6000819050919050565b6102d7816102c4565b81146102e257600080fd5b50565b6000813590506102f4816102ce565b92915050565b6000602082840312156103105761030f6102bf565b5b600061031e848285016102e5565b91505092915050565b610330816102c4565b82525050565b600060208201905061034b6000830184610327565b92915050565b7f4e487b7100000000000000000000000000000000000000000000000000000000600052601160045260246000fd5b600061038b826102c4565b9150610396836102c4565b92508282039050818111156103ae576103ad610351565b5b92915050565b7f4e487b7100000000000000000000000000000000000000000000000000000000600052603160045260246000fd5b7f4e487b7100000000000000000000000000000000000000000000000000000000600052603260045260246000fd5b7f4e487b7100000000000000000000000000000000000000000000000000000000600052600160045260246000fdfea264697066735822122059d49a72e72b74fa9429429808cc1dad641d044855a677c34b88d2bdae2a8c0f64736f6c63430008110033",
					"opcodes": "PUSH1 0x80 PUSH1 0x40 MSTORE CALLVALUE DUP1 ISZERO PUSH2 0x10 JUMPI PUSH1 0x0 DUP1 REVERT JUMPDEST POP PUSH2 0x477 DUP1 PUSH2 0x20 PUSH1 0x0 CODECOPY PUSH1 0x0 RETURN INVALID PUSH1 0x80 PUSH1 0x40 MSTORE CALLVALUE DUP1 ISZERO PUSH2 0x10 JUMPI PUSH1 0x0 DUP1 REVERT JUMPDEST POP PUSH1 0x4 CALLDATASIZE LT PUSH2 0x41 JUMPI PUSH1 0x0 CALLDATALOAD PUSH1 0xE0 SHR DUP1 PUSH4 0x670EA637 EQ PUSH2 0x46 JUMPI DUP1 PUSH4 0x6B59084D EQ PUSH2 0x62 JUMPI DUP1 PUSH4 0xD39FA233 EQ PUSH2 0x6C JUMPI JUMPDEST PUSH1 0x0 DUP1 REVERT JUMPDEST PUSH2 0x60 PUSH1 0x4 DUP1 CALLDATASIZE SUB DUP2 ADD SWAP1 PUSH2 0x5B SWAP2 SWAP1 PUSH2 0x2FA JUMP JUMPDEST PUSH2 0x9C JUMP JUMPDEST STOP JUMPDEST PUSH2 0x6A PUSH2 0x15F JUMP JUMPDEST STOP JUMPDEST PUSH2 0x86 PUSH1 0x4 DUP1 CALLDATASIZE SUB DUP2 ADD SWAP1 PUSH2 0x81 SWAP2 SWAP1 PUSH2 0x2FA JUMP JUMPDEST PUSH2 0x22C JUMP JUMPDEST PUSH1 0x40 MLOAD PUSH2 0x93 SWAP2 SWAP1 PUSH2 0x336 JUMP JUMPDEST PUSH1 0x40 MLOAD DUP1 SWAP2 SUB SWAP1 RETURN JUMPDEST PUSH1 0x0 DUP1 DUP1 SLOAD SWAP1 POP SWAP1 POP PUSH1 0x1 DUP2 PUSH2 0xB2 SWAP2 SWAP1 PUSH2 0x380 JUMP JUMPDEST DUP3 SUB PUSH2 0xE5 JUMPI PUSH1 0x0 DUP1 SLOAD DUP1 PUSH2 0xCA JUMPI PUSH2 0xC9 PUSH2 0x3B4 JUMP JUMPDEST JUMPDEST PUSH1 0x1 SWAP1 SUB DUP2 DUP2 SWAP1 PUSH1 0x0 MSTORE PUSH1 0x20 PUSH1 0x0 KECCAK256 ADD PUSH1 0x0 SWAP1 SSTORE SWAP1 SSTORE PUSH2 0x15B JUMP JUMPDEST PUSH1 0x0 PUSH1 0x1 DUP3 PUSH2 0xF4 SWAP2 SWAP1 PUSH2 0x380 JUMP JUMPDEST DUP2 SLOAD DUP2 LT PUSH2 0x105 JUMPI PUSH2 0x104 PUSH2 0x3E3 JUMP JUMPDEST JUMPDEST SWAP1 PUSH1 0x0 MSTORE PUSH1 0x20 PUSH1 0x0 KECCAK256 ADD SLOAD PUSH1 0x0 DUP4 DUP2 SLOAD DUP2 LT PUSH2 0x124 JUMPI PUSH2 0x123 PUSH2 0x3E3 JUMP JUMPDEST JUMPDEST SWAP1 PUSH1 0x0 MSTORE PUSH1 0x20 PUSH1 0x0 KECCAK256 ADD DUP2 SWAP1 SSTORE POP PUSH1 0x0 DUP1 SLOAD DUP1 PUSH2 0x144 JUMPI PUSH2 0x143 PUSH2 0x3B4 JUMP JUMPDEST JUMPDEST PUSH1 0x1 SWAP1 SUB DUP2 DUP2 SWAP1 PUSH1 0x0 MSTORE PUSH1 0x20 PUSH1 0x0 KECCAK256 ADD PUSH1 0x0 SWAP1 SSTORE SWAP1 SSTORE JUMPDEST POP POP JUMP JUMPDEST PUSH1 0x40 MLOAD DUP1 PUSH1 0xA0 ADD PUSH1 0x40 MSTORE DUP1 PUSH1 0x1 PUSH1 0xFF AND DUP2 MSTORE PUSH1 0x20 ADD PUSH1 0x2 PUSH1 0xFF AND DUP2 MSTORE PUSH1 0x20 ADD PUSH1 0x3 PUSH1 0xFF AND DUP2 MSTORE PUSH1 0x20 ADD PUSH1 0x4 PUSH1 0xFF AND DUP2 MSTORE PUSH1 0x20 ADD PUSH1 0x5 PUSH1 0xFF AND DUP2 MSTORE POP PUSH1 0x0 SWAP1 PUSH1 0x5 PUSH2 0x1AA SWAP3 SWAP2 SWAP1 PUSH2 0x250 JUMP JUMPDEST POP PUSH2 0x1B5 PUSH1 0x2 PUSH2 0x9C JUMP JUMPDEST PUSH1 0x4 PUSH1 0x0 DUP1 SLOAD SWAP1 POP EQ PUSH2 0x1CB JUMPI PUSH2 0x1CA PUSH2 0x412 JUMP JUMPDEST JUMPDEST PUSH1 0x1 PUSH1 0x0 DUP1 DUP2 SLOAD DUP2 LT PUSH2 0x1E1 JUMPI PUSH2 0x1E0 PUSH2 0x3E3 JUMP JUMPDEST JUMPDEST SWAP1 PUSH1 0x0 MSTORE PUSH1 0x20 PUSH1 0x0 KECCAK256 ADD SLOAD EQ PUSH2 0x1FA JUMPI PUSH2 0x1F9 PUSH2 0x412 JUMP JUMPDEST JUMPDEST PUSH1 0x2 PUSH1 0x0 PUSH1 0x1 DUP2 SLOAD DUP2 LT PUSH2 0x211 JUMPI PUSH2 0x210 PUSH2 0x3E3 JUMP JUMPDEST JUMPDEST SWAP1 PUSH1 0x0 MSTORE PUSH1 0x20 PUSH1 0x0 KECCAK256 ADD SLOAD EQ PUSH2 0x22A JUMPI PUSH2 0x229 PUSH2 0x412 JUMP JUMPDEST JUMPDEST JUMP JUMPDEST PUSH1 0x0 DUP2 DUP2 SLOAD DUP2 LT PUSH2 0x23C JUMPI PUSH1 0x0 DUP1 REVERT JUMPDEST SWAP1 PUSH1 0x0 MSTORE PUSH1 0x20 PUSH1 0x0 KECCAK256 ADD PUSH1 0x0 SWAP2 POP SWAP1 POP SLOAD DUP2 JUMP JUMPDEST DUP3 DUP1 SLOAD DUP3 DUP3 SSTORE SWAP1 PUSH1 0x0 MSTORE PUSH1 0x20 PUSH1 0x0 KECCAK256 SWAP1 DUP2 ADD SWAP3 DUP3 ISZERO PUSH2 0x291 JUMPI SWAP2 PUSH1 0x20 MUL DUP3 ADD JUMPDEST DUP3 DUP2 GT ISZERO PUSH2 0x290 JUMPI DUP3 MLOAD DUP3 SWAP1 PUSH1 0xFF AND SWAP1 SSTORE SWAP2 PUSH1 0x20 ADD SWAP2 SWAP1 PUSH1 0x1 ADD SWAP1 PUSH2 0x270 JUMP JUMPDEST JUMPDEST POP SWAP1 POP PUSH2 0x29E SWAP2 SWAP1 PUSH2 0x2A2 JUMP JUMPDEST POP SWAP1 JUMP JUMPDEST JUMPDEST DUP1 DUP3 GT ISZERO PUSH2 0x2BB JUMPI PUSH1 0x0 DUP2 PUSH1 0x0 SWAP1 SSTORE POP PUSH1 0x1 ADD PUSH2 0x2A3 JUMP JUMPDEST POP SWAP1 JUMP JUMPDEST PUSH1 0x0 DUP1 REVERT JUMPDEST PUSH1 0x0 DUP2 SWAP1 POP SWAP2 SWAP1 POP JUMP JUMPDEST PUSH2 0x2D7 DUP2 PUSH2 0x2C4 JUMP JUMPDEST DUP2 EQ PUSH2 0x2E2 JUMPI PUSH1 0x0 DUP1 REVERT JUMPDEST POP JUMP JUMPDEST PUSH1 0x0 DUP2 CALLDATALOAD SWAP1 POP PUSH2 0x2F4 DUP2 PUSH2 0x2CE JUMP JUMPDEST SWAP3 SWAP2 POP POP JUMP JUMPDEST PUSH1 0x0 PUSH1 0x20 DUP3 DUP5 SUB SLT ISZERO PUSH2 0x310 JUMPI PUSH2 0x30F PUSH2 0x2BF JUMP JUMPDEST JUMPDEST PUSH1 0x0 PUSH2 0x31E DUP5 DUP3 DUP6 ADD PUSH2 0x2E5 JUMP JUMPDEST SWAP2 POP POP SWAP3 SWAP2 POP POP JUMP JUMPDEST PUSH2 0x330 DUP2 PUSH2 0x2C4 JUMP JUMPDEST DUP3 MSTORE POP POP JUMP JUMPDEST PUSH1 0x0 PUSH1 0x20 DUP3 ADD SWAP1 POP PUSH2 0x34B PUSH1 0x0 DUP4 ADD DUP5 PUSH2 0x327 JUMP JUMPDEST SWAP3 SWAP2 POP POP JUMP JUMPDEST PUSH32 0x4E487B7100000000000000000000000000000000000000000000000000000000 PUSH1 0x0 MSTORE PUSH1 0x11 PUSH1 0x4 MSTORE PUSH1 0x24 PUSH1 0x0 REVERT JUMPDEST PUSH1 0x0 PUSH2 0x38B DUP3 PUSH2 0x2C4 JUMP JUMPDEST SWAP2 POP PUSH2 0x396 DUP4 PUSH2 0x2C4 JUMP JUMPDEST SWAP3 POP DUP3 DUP3 SUB SWAP1 POP DUP2 DUP2 GT ISZERO PUSH2 0x3AE JUMPI PUSH2 0x3AD PUSH2 0x351 JUMP JUMPDEST JUMPDEST SWAP3 SWAP2 POP POP JUMP JUMPDEST PUSH32 0x4E487B7100000000000000000000000000000000000000000000000000000000 PUSH1 0x0 MSTORE PUSH1 0x31 PUSH1 0x4 MSTORE PUSH1 0x24 PUSH1 0x0 REVERT JUMPDEST PUSH32 0x4E487B7100000000000000000000000000000000000000000000000000000000 PUSH1 0x0 MSTORE PUSH1 0x32 PUSH1 0x4 MSTORE PUSH1 0x24 PUSH1 0x0 REVERT JUMPDEST PUSH32 0x4E487B7100000000000000000000000000000000000000000000000000000000 PUSH1 0x0 MSTORE PUSH1 0x1 PUSH1 0x4 MSTORE PUSH1 0x24 PUSH1 0x0 REVERT INVALID LOG2 PUSH5 0x6970667358 0x22 SLT KECCAK256 MSIZE 0xD4 SWAP11 PUSH19 0xE72B74FA9429429808CC1DAD641D044855A677 0xC3 0x4B DUP9 0xD2 0xBD 0xAE 0x2A DUP13 0xF PUSH5 0x736F6C6343 STOP ADDMOD GT STOP CALLER "
				},
				"gasEstimates": {
					"creation": {
						"codeDepositCost": "228600",
						"executionCost": "269",
						"totalCost": "228869"
					},
					"external": {
						"numbers(uint256)": "infinite",
						"remove1(uint256)": "infinite",
						"test1()": "infinite"
					}
				},
				"methodIdentifiers": {
					"numbers(uint256)": "d39fa233",
					"remove1(uint256)": "670ea637",
					"test1()": "6b59084d"
				}
			},
			"storageLayout": {
				"storage": [
					{
						"astId": 4,
						"contract": "ArrayTest5.sol:Array5",
						"label": "numbers",
						"offset": 0,
						"slot": "0",
						"type": "t_array(t_uint256)dyn_storage"
					}
				],
				"types": {
					"t_array(t_uint256)dyn_storage": {
						"base": "t_uint256",
						"encoding": "dynamic_array",
						"label": "uint256[]",
						"numberOfBytes": "32"
					},
					"t_uint256": {
						"encoding": "inplace",
						"label": "uint256",
						"numberOfBytes": "32"
					}
				}
			},
			"userdoc": {
				"kind": "user",
				"methods": {},
				"version": 1
			}
		}
	}
}