{
	"ArrayTest2.sol": {
		"Array2": {
			"abi": [
				{
					"inputs": [],
					"name": "memoryArray",
					"outputs": [],
					"stateMutability": "nonpayable",
					"type": "function"
				}
			],
			"devdoc": {
				"kind": "dev",
				"methods": {},
				"version": 1
			},
			"evm": {
				"assembly": "    /* \"ArrayTest2.sol\":75:378  contract Array2{... */\n  mstore(0x40, 0x80)\n  callvalue\n  dup1\n  iszero\n  tag_1\n  jumpi\n  0x00\n  dup1\n  revert\ntag_1:\n  pop\n  dataSize(sub_0)\n  dup1\n  dataOffset(sub_0)\n  0x00\n  codecopy\n  0x00\n  return\nstop\n\nsub_0: assembly {\n        /* \"ArrayTest2.sol\":75:378  contract Array2{... */\n      mstore(0x40, 0x80)\n      callvalue\n      dup1\n      iszero\n      tag_1\n      jumpi\n      0x00\n      dup1\n      revert\n    tag_1:\n      pop\n      jumpi(tag_2, lt(calldatasize, 0x04))\n      shr(0xe0, calldataload(0x00))\n      dup1\n      0x500e1355\n      eq\n      tag_3\n      jumpi\n    tag_2:\n      0x00\n      dup1\n      revert\n        /* \"ArrayTest2.sol\":124:371  function memoryArray() public{... */\n    tag_3:\n      tag_4\n      tag_5\n      jump\t// in\n    tag_4:\n      stop\n    tag_5:\n        /* \"ArrayTest2.sol\":163:181  uint[] memory arr1 */\n      0x00\n        /* \"ArrayTest2.sol\":195:196  3 */\n      0x03\n        /* \"ArrayTest2.sol\":184:197  new uint[](3) */\n      0xffffffffffffffff\n      dup2\n      gt\n      iszero\n      tag_7\n      jumpi\n      tag_8\n      tag_9\n      jump\t// in\n    tag_8:\n    tag_7:\n      mload(0x40)\n      swap1\n      dup1\n      dup3\n      mstore\n      dup1\n      0x20\n      mul\n      0x20\n      add\n      dup3\n      add\n      0x40\n      mstore\n      dup1\n      iszero\n      tag_10\n      jumpi\n      dup2\n      0x20\n      add\n      0x20\n      dup3\n      mul\n      dup1\n      calldatasize\n      dup4\n      calldatacopy\n      dup1\n      dup3\n      add\n      swap2\n      pop\n      pop\n      swap1\n      pop\n    tag_10:\n      pop\n        /* \"ArrayTest2.sol\":163:197  uint[] memory arr1 = new uint[](3) */\n      swap1\n      pop\n        /* \"ArrayTest2.sol\":217:218  1 */\n      0x01\n        /* \"ArrayTest2.sol\":207:211  arr1 */\n      dup2\n        /* \"ArrayTest2.sol\":212:213  0 */\n      0x00\n        /* \"ArrayTest2.sol\":207:214  arr1[0] */\n      dup2\n      mload\n      dup2\n      lt\n      tag_11\n      jumpi\n      tag_12\n      tag_13\n      jump\t// in\n    tag_12:\n    tag_11:\n      0x20\n      mul\n      0x20\n      add\n      add\n        /* \"ArrayTest2.sol\":207:218  arr1[0] = 1 */\n      dup2\n      dup2\n      mstore\n      pop\n      pop\n        /* \"ArrayTest2.sol\":238:239  3 */\n      0x03\n        /* \"ArrayTest2.sol\":228:232  arr1 */\n      dup2\n        /* \"ArrayTest2.sol\":233:234  1 */\n      0x01\n        /* \"ArrayTest2.sol\":228:235  arr1[1] */\n      dup2\n      mload\n      dup2\n      lt\n      tag_14\n      jumpi\n      tag_15\n      tag_13\n      jump\t// in\n    tag_15:\n    tag_14:\n      0x20\n      mul\n      0x20\n      add\n      add\n        /* \"ArrayTest2.sol\":228:239  arr1[1] = 3 */\n      dup2\n      dup2\n      mstore\n      pop\n      pop\n        /* \"ArrayTest2.sol\":259:260  5 */\n      0x05\n        /* \"ArrayTest2.sol\":249:253  arr1 */\n      dup2\n        /* \"ArrayTest2.sol\":254:255  2 */\n      0x02\n        /* \"ArrayTest2.sol\":249:256  arr1[2] */\n      dup2\n      mload\n      dup2\n      lt\n      tag_16\n      jumpi\n      tag_17\n      tag_13\n      jump\t// in\n    tag_17:\n    tag_16:\n      0x20\n      mul\n      0x20\n      add\n      add\n        /* \"ArrayTest2.sol\":249:260  arr1[2] = 5 */\n      dup2\n      dup2\n      mstore\n      pop\n      pop\n        /* \"ArrayTest2.sol\":271:290  uint[4] memory arr2 */\n      0x00\n        /* \"ArrayTest2.sol\":271:308  uint[4] memory arr2 = [uint(1),5,7,9] */\n      mload(0x40)\n      dup1\n      0x80\n      add\n      0x40\n      mstore\n      dup1\n        /* \"ArrayTest2.sol\":299:300  1 */\n      0x01\n        /* \"ArrayTest2.sol\":271:308  uint[4] memory arr2 = [uint(1),5,7,9] */\n      dup2\n      mstore\n      0x20\n      add\n        /* \"ArrayTest2.sol\":302:303  5 */\n      0x05\n        /* \"ArrayTest2.sol\":271:308  uint[4] memory arr2 = [uint(1),5,7,9] */\n      dup2\n      mstore\n      0x20\n      add\n        /* \"ArrayTest2.sol\":304:305  7 */\n      0x07\n        /* \"ArrayTest2.sol\":271:308  uint[4] memory arr2 = [uint(1),5,7,9] */\n      dup2\n      mstore\n      0x20\n      add\n        /* \"ArrayTest2.sol\":306:307  9 */\n      0x09\n        /* \"ArrayTest2.sol\":271:308  uint[4] memory arr2 = [uint(1),5,7,9] */\n      dup2\n      mstore\n      pop\n      swap1\n      pop\n        /* \"ArrayTest2.sol\":319:340  string[2] memory arr3 */\n      0x00\n        /* \"ArrayTest2.sol\":319:364  string[2] memory arr3 = [\"hello\", \"solidity\"] */\n      mload(0x40)\n      dup1\n      0x40\n      add\n      0x40\n      mstore\n      dup1\n      mload(0x40)\n      dup1\n      0x40\n      add\n      0x40\n      mstore\n      dup1\n      0x05\n      dup2\n      mstore\n      0x20\n      add\n      0x68656c6c6f000000000000000000000000000000000000000000000000000000\n      dup2\n      mstore\n      pop\n      dup2\n      mstore\n      0x20\n      add\n      mload(0x40)\n      dup1\n      0x40\n      add\n      0x40\n      mstore\n      dup1\n      0x08\n      dup2\n      mstore\n      0x20\n      add\n      0x736f6c6964697479000000000000000000000000000000000000000000000000\n      dup2\n      mstore\n      pop\n      dup2\n      mstore\n      pop\n      swap1\n      pop\n        /* \"ArrayTest2.sol\":153:371  {... */\n      pop\n      pop\n      pop\n        /* \"ArrayTest2.sol\":124:371  function memoryArray() public{... */\n      jump\t// out\n        /* \"#utility.yul\":7:187   */\n    tag_9:\n        /* \"#utility.yul\":55:132   */\n      0x4e487b7100000000000000000000000000000000000000000000000000000000\n        /* \"#utility.yul\":52:53   */\n      0x00\n        /* \"#utility.yul\":45:133   */\n      mstore\n        /* \"#utility.yul\":152:156   */\n      0x41\n        /* \"#utility.yul\":149:150   */\n      0x04\n        /* \"#utility.yul\":142:157   */\n      mstore\n        /* \"#utility.yul\":176:180   */\n      0x24\n        /* \"#utility.yul\":173:174   */\n      0x00\n        /* \"#utility.yul\":166:181   */\n      revert\n        /* \"#utility.yul\":193:373   */\n    tag_13:\n        /* \"#utility.yul\":241:318   */\n      0x4e487b7100000000000000000000000000000000000000000000000000000000\n        /* \"#utility.yul\":238:239   */\n      0x00\n        /* \"#utility.yul\":231:319   */\n      mstore\n        /* \"#utility.yul\":338:342   */\n      0x32\n        /* \"#utility.yul\":335:336   */\n      0x04\n        /* \"#utility.yul\":328:343   */\n      mstore\n        /* \"#utility.yul\":362:366   */\n      0x24\n        /* \"#utility.yul\":359:360   */\n      0x00\n        /* \"#utility.yul\":352:367   */\n      revert\n\n    auxdata: 0xa26469706673582212205d6de91bdd5e16e2cfbee2d96cdd5cc8ef9ca3fdf6c8782dbac933c06350a1b664736f6c63430008110033\n}\n",
				"bytecode": {
					"linkReferences": {},
					"object": "608060405234801561001057600080fd5b50610233806100206000396000f3fe608060405234801561001057600080fd5b506004361061002b5760003560e01c8063500e135514610030575b600080fd5b61003861003a565b005b6000600367ffffffffffffffff8111156100575761005661019f565b5b6040519080825280602002602001820160405280156100855781602001602082028036833780820191505090505b50905060018160008151811061009e5761009d6101ce565b5b6020026020010181815250506003816001815181106100c0576100bf6101ce565b5b6020026020010181815250506005816002815181106100e2576100e16101ce565b5b6020026020010181815250506000604051806080016040528060018152602001600581526020016007815260200160098152509050600060405180604001604052806040518060400160405280600581526020017f68656c6c6f00000000000000000000000000000000000000000000000000000081525081526020016040518060400160405280600881526020017f736f6c69646974790000000000000000000000000000000000000000000000008152508152509050505050565b7f4e487b7100000000000000000000000000000000000000000000000000000000600052604160045260246000fd5b7f4e487b7100000000000000000000000000000000000000000000000000000000600052603260045260246000fdfea26469706673582212205d6de91bdd5e16e2cfbee2d96cdd5cc8ef9ca3fdf6c8782dbac933c06350a1b664736f6c63430008110033",
					"opcodes": "PUSH1 0x80 PUSH1 0x40 MSTORE CALLVALUE DUP1 ISZERO PUSH2 0x10 JUMPI PUSH1 0x0 DUP1 REVERT JUMPDEST POP PUSH2 0x233 DUP1 PUSH2 0x20 PUSH1 0x0 CODECOPY PUSH1 0x0 RETURN INVALID PUSH1 0x80 PUSH1 0x40 MSTORE CALLVALUE DUP1 ISZERO PUSH2 0x10 JUMPI PUSH1 0x0 DUP1 REVERT JUMPDEST POP PUSH1 0x4 CALLDATASIZE LT PUSH2 0x2B JUMPI PUSH1 0x0 CALLDATALOAD PUSH1 0xE0 SHR DUP1 PUSH4 0x500E1355 EQ PUSH2 0x30 JUMPI JUMPDEST PUSH1 0x0 DUP1 REVERT JUMPDEST PUSH2 0x38 PUSH2 0x3A JUMP JUMPDEST STOP JUMPDEST PUSH1 0x0 PUSH1 0x3 PUSH8 0xFFFFFFFFFFFFFFFF DUP2 GT ISZERO PUSH2 0x57 JUMPI PUSH2 0x56 PUSH2 0x19F JUMP JUMPDEST JUMPDEST PUSH1 0x40 MLOAD SWAP1 DUP1 DUP3 MSTORE DUP1 PUSH1 0x20 MUL PUSH1 0x20 ADD DUP3 ADD PUSH1 0x40 MSTORE DUP1 ISZERO PUSH2 0x85 JUMPI DUP2 PUSH1 0x20 ADD PUSH1 0x20 DUP3 MUL DUP1 CALLDATASIZE DUP4 CALLDATACOPY DUP1 DUP3 ADD SWAP2 POP POP SWAP1 POP JUMPDEST POP SWAP1 POP PUSH1 0x1 DUP2 PUSH1 0x0 DUP2 MLOAD DUP2 LT PUSH2 0x9E JUMPI PUSH2 0x9D PUSH2 0x1CE JUMP JUMPDEST JUMPDEST PUSH1 0x20 MUL PUSH1 0x20 ADD ADD DUP2 DUP2 MSTORE POP POP PUSH1 0x3 DUP2 PUSH1 0x1 DUP2 MLOAD DUP2 LT PUSH2 0xC0 JUMPI PUSH2 0xBF PUSH2 0x1CE JUMP JUMPDEST JUMPDEST PUSH1 0x20 MUL PUSH1 0x20 ADD ADD DUP2 DUP2 MSTORE POP POP PUSH1 0x5 DUP2 PUSH1 0x2 DUP2 MLOAD DUP2 LT PUSH2 0xE2 JUMPI PUSH2 0xE1 PUSH2 0x1CE JUMP JUMPDEST JUMPDEST PUSH1 0x20 MUL PUSH1 0x20 ADD ADD DUP2 DUP2 MSTORE POP POP PUSH1 0x0 PUSH1 0x40 MLOAD DUP1 PUSH1 0x80 ADD PUSH1 0x40 MSTORE DUP1 PUSH1 0x1 DUP2 MSTORE PUSH1 0x20 ADD PUSH1 0x5 DUP2 MSTORE PUSH1 0x20 ADD PUSH1 0x7 DUP2 MSTORE PUSH1 0x20 ADD PUSH1 0x9 DUP2 MSTORE POP SWAP1 POP PUSH1 0x0 PUSH1 0x40 MLOAD DUP1 PUSH1 0x40 ADD PUSH1 0x40 MSTORE DUP1 PUSH1 0x40 MLOAD DUP1 PUSH1 0x40 ADD PUSH1 0x40 MSTORE DUP1 PUSH1 0x5 DUP2 MSTORE PUSH1 0x20 ADD PUSH32 0x68656C6C6F000000000000000000000000000000000000000000000000000000 DUP2 MSTORE POP DUP2 MSTORE PUSH1 0x20 ADD PUSH1 0x40 MLOAD DUP1 PUSH1 0x40 ADD PUSH1 0x40 MSTORE DUP1 PUSH1 0x8 DUP2 MSTORE PUSH1 0x20 ADD PUSH32 0x736F6C6964697479000000000000000000000000000000000000000000000000 DUP2 MSTORE POP DUP2 MSTORE POP SWAP1 POP POP POP POP JUMP JUMPDEST PUSH32 0x4E487B7100000000000000000000000000000000000000000000000000000000 PUSH1 0x0 MSTORE PUSH1 0x41 PUSH1 0x4 MSTORE PUSH1 0x24 PUSH1 0x0 REVERT JUMPDEST PUSH32 0x4E487B7100000000000000000000000000000000000000000000000000000000 PUSH1 0x0 MSTORE PUSH1 0x32 PUSH1 0x4 MSTORE PUSH1 0x24 PUSH1 0x0 REVERT INVALID LOG2 PUSH5 0x6970667358 0x22 SLT KECCAK256 0x5D PUSH14 0xE91BDD5E16E2CFBEE2D96CDD5CC8 0xEF SWAP13 LOG3 REVERT 0xF6 0xC8 PUSH25 0x2DBAC933C06350A1B664736F6C634300081100330000000000 "
				},
				"gasEstimates": {
					"creation": {
						"codeDepositCost": "112600",
						"executionCost": "159",
						"totalCost": "112759"
					},
					"external": {
						"memoryArray()": "infinite"
					}
				},
				"methodIdentifiers": {
					"memoryArray()": "500e1355"
				}
			},
			"storageLayout": {
				"storage": [],
				"types": null
			},
			"userdoc": {
				"kind": "user",
				"methods": {},
				"version": 1
			}
		}
	}
}