{
	"ABIEncodeDecode.sol": {
		"ABIEncodeAndDecode": {
			"abi": [
				{
					"inputs": [
						{
							"internalType": "bytes",
							"name": "data",
							"type": "bytes"
						}
					],
					"name": "decode",
					"outputs": [
						{
							"internalType": "uint256",
							"name": "_a",
							"type": "uint256"
						},
						{
							"internalType": "address",
							"name": "_b",
							"type": "address"
						},
						{
							"internalType": "uint256[]",
							"name": "_c",
							"type": "uint256[]"
						},
						{
							"components": [
								{
									"internalType": "string",
									"name": "name",
									"type": "string"
								},
								{
									"internalType": "uint256[]",
									"name": "nums",
									"type": "uint256[]"
								}
							],
							"internalType": "struct ABIEncodeAndDecode.Car",
							"name": "_d",
							"type": "tuple"
						}
					],
					"stateMutability": "pure",
					"type": "function"
				},
				{
					"inputs": [
						{
							"internalType": "uint256",
							"name": "_a",
							"type": "uint256"
						},
						{
							"internalType": "address",
							"name": "_b",
							"type": "address"
						},
						{
							"internalType": "uint256[]",
							"name": "_c",
							"type": "uint256[]"
						},
						{
							"components": [
								{
									"internalType": "string",
									"name": "name",
									"type": "string"
								},
								{
									"internalType": "uint256[]",
									"name": "nums",
									"type": "uint256[]"
								}
							],
							"internalType": "struct ABIEncodeAndDecode.Car",
							"name": "_d",
							"type": "tuple"
						}
					],
					"name": "encode",
					"outputs": [
						{
							"internalType": "bytes",
							"name": "",
							"type": "bytes"
						}
					],
					"stateMutability": "view",
					"type": "function"
				},
				{
					"inputs": [
						{
							"internalType": "uint256",
							"name": "_a",
							"type": "uint256"
						},
						{
							"internalType": "address",
							"name": "_b",
							"type": "address"
						},
						{
							"internalType": "uint256[]",
							"name": "_c",
							"type": "uint256[]"
						},
						{
							"components": [
								{
									"internalType": "string",
									"name": "name",
									"type": "string"
								},
								{
									"internalType": "uint256[]",
									"name": "nums",
									"type": "uint256[]"
								}
							],
							"internalType": "struct ABIEncodeAndDecode.Car",
							"name": "_d",
							"type": "tuple"
						}
					],
					"name": "encodePacked",
					"outputs": [
						{
							"internalType": "bytes",
							"name": "",
							"type": "bytes"
						}
					],
					"stateMutability": "view",
					"type": "function"
				}
			],
			"devdoc": {
				"kind": "dev",
				"methods": {},
				"version": 1
			},
			"evm": {
				"assembly": "    /* \"ABIEncodeDecode.sol\":75:769  contract ABIEncodeAndDecode {... */\n  mstore(0x40, 0x80)\n  callvalue\n  dup1\n  iszero\n  tag_1\n  jumpi\n  0x00\n  dup1\n  revert\ntag_1:\n  pop\n  dataSize(sub_0)\n  dup1\n  dataOffset(sub_0)\n  0x00\n  codecopy\n  0x00\n  return\nstop\n\nsub_0: assembly {\n        /* \"ABIEncodeDecode.sol\":75:769  contract ABIEncodeAndDecode {... */\n      mstore(0x40, 0x80)\n      callvalue\n      dup1\n      iszero\n      tag_1\n      jumpi\n      0x00\n      dup1\n      revert\n    tag_1:\n      pop\n      jumpi(tag_2, lt(calldatasize, 0x04))\n      shr(0xe0, calldataload(0x00))\n      dup1\n      0xb9ff2f08\n      eq\n      tag_3\n      jumpi\n      dup1\n      0xdce75627\n      eq\n      tag_4\n      jumpi\n      dup1\n      0xe5c5e9a3\n      eq\n      tag_5\n      jumpi\n    tag_2:\n      0x00\n      dup1\n      revert\n        /* \"ABIEncodeDecode.sol\":228:388  function encode(uint _a, address _b, uint[] calldata _c, Car calldata _d) external view returns (bytes memory){... */\n    tag_3:\n      tag_6\n      0x04\n      dup1\n      calldatasize\n      sub\n      dup2\n      add\n      swap1\n      tag_7\n      swap2\n      swap1\n      tag_8\n      jump\t// in\n    tag_7:\n      tag_9\n      jump\t// in\n    tag_6:\n      mload(0x40)\n      tag_10\n      swap2\n      swap1\n      tag_11\n      jump\t// in\n    tag_10:\n      mload(0x40)\n      dup1\n      swap2\n      sub\n      swap1\n      return\n        /* \"ABIEncodeDecode.sol\":398:566  function encodePacked(uint _a, address _b, uint[] calldata _c, Car calldata _d) external view returns (bytes memory){... */\n    tag_4:\n      tag_12\n      0x04\n      dup1\n      calldatasize\n      sub\n      dup2\n      add\n      swap1\n      tag_13\n      swap2\n      swap1\n      tag_8\n      jump\t// in\n    tag_13:\n      tag_14\n      jump\t// in\n    tag_12:\n      mload(0x40)\n      tag_15\n      swap2\n      swap1\n      tag_11\n      jump\t// in\n    tag_15:\n      mload(0x40)\n      dup1\n      swap2\n      sub\n      swap1\n      return\n        /* \"ABIEncodeDecode.sol\":572:767  function decode(bytes calldata data) external pure returns (uint _a, address _b, uint[] memory _c, Car memory _d){... */\n    tag_5:\n      tag_16\n      0x04\n      dup1\n      calldatasize\n      sub\n      dup2\n      add\n      swap1\n      tag_17\n      swap2\n      swap1\n      tag_18\n      jump\t// in\n    tag_17:\n      tag_19\n      jump\t// in\n    tag_16:\n      mload(0x40)\n      tag_20\n      swap5\n      swap4\n      swap3\n      swap2\n      swap1\n      tag_21\n      jump\t// in\n    tag_20:\n      mload(0x40)\n      dup1\n      swap2\n      sub\n      swap1\n      return\n        /* \"ABIEncodeDecode.sol\":228:388  function encode(uint _a, address _b, uint[] calldata _c, Car calldata _d) external view returns (bytes memory){... */\n    tag_9:\n        /* \"ABIEncodeDecode.sol\":325:337  bytes memory */\n      0x60\n        /* \"ABIEncodeDecode.sol\":366:368  _a */\n      dup6\n        /* \"ABIEncodeDecode.sol\":370:372  _b */\n      dup6\n        /* \"ABIEncodeDecode.sol\":374:376  _c */\n      dup6\n      dup6\n        /* \"ABIEncodeDecode.sol\":378:380  _d */\n      dup6\n        /* \"ABIEncodeDecode.sol\":355:381  abi.encode(_a, _b, _c, _d) */\n      add(0x20, mload(0x40))\n      tag_23\n      swap6\n      swap5\n      swap4\n      swap3\n      swap2\n      swap1\n      tag_24\n      jump\t// in\n    tag_23:\n      mload(0x40)\n      0x20\n      dup2\n      dup4\n      sub\n      sub\n      dup2\n      mstore\n      swap1\n      0x40\n      mstore\n        /* \"ABIEncodeDecode.sol\":348:381  return abi.encode(_a, _b, _c, _d) */\n      swap1\n      pop\n        /* \"ABIEncodeDecode.sol\":228:388  function encode(uint _a, address _b, uint[] calldata _c, Car calldata _d) external view returns (bytes memory){... */\n      swap6\n      swap5\n      pop\n      pop\n      pop\n      pop\n      pop\n      jump\t// out\n        /* \"ABIEncodeDecode.sol\":398:566  function encodePacked(uint _a, address _b, uint[] calldata _c, Car calldata _d) external view returns (bytes memory){... */\n    tag_14:\n        /* \"ABIEncodeDecode.sol\":501:513  bytes memory */\n      0x60\n        /* \"ABIEncodeDecode.sol\":548:550  _a */\n      dup6\n        /* \"ABIEncodeDecode.sol\":552:554  _b */\n      dup6\n        /* \"ABIEncodeDecode.sol\":556:558  _c */\n      dup6\n      dup6\n        /* \"ABIEncodeDecode.sol\":531:559  abi.encodePacked(_a, _b, _c) */\n      add(0x20, mload(0x40))\n      tag_26\n      swap5\n      swap4\n      swap3\n      swap2\n      swap1\n      tag_27\n      jump\t// in\n    tag_26:\n      mload(0x40)\n      0x20\n      dup2\n      dup4\n      sub\n      sub\n      dup2\n      mstore\n      swap1\n      0x40\n      mstore\n        /* \"ABIEncodeDecode.sol\":524:559  return abi.encodePacked(_a, _b, _c) */\n      swap1\n      pop\n        /* \"ABIEncodeDecode.sol\":398:566  function encodePacked(uint _a, address _b, uint[] calldata _c, Car calldata _d) external view returns (bytes memory){... */\n      swap6\n      swap5\n      pop\n      pop\n      pop\n      pop\n      pop\n      jump\t// out\n        /* \"ABIEncodeDecode.sol\":572:767  function decode(bytes calldata data) external pure returns (uint _a, address _b, uint[] memory _c, Car memory _d){... */\n    tag_19:\n        /* \"ABIEncodeDecode.sol\":632:639  uint _a */\n      0x00\n        /* \"ABIEncodeDecode.sol\":641:651  address _b */\n      dup1\n        /* \"ABIEncodeDecode.sol\":653:669  uint[] memory _c */\n      0x60\n        /* \"ABIEncodeDecode.sol\":671:684  Car memory _d */\n      tag_28\n      tag_29\n      jump\t// in\n    tag_28:\n        /* \"ABIEncodeDecode.sol\":725:729  data */\n      dup6\n      dup6\n        /* \"ABIEncodeDecode.sol\":714:760  abi.decode(data, (uint, address, uint[], Car)) */\n      dup2\n      add\n      swap1\n      tag_31\n      swap2\n      swap1\n      tag_32\n      jump\t// in\n    tag_31:\n        /* \"ABIEncodeDecode.sol\":695:760  (_a, _b, _c, _d) = abi.decode(data, (uint, address, uint[], Car)) */\n      dup1\n      swap5\n      pop\n      dup2\n      swap6\n      pop\n      dup3\n      swap7\n      pop\n      dup4\n      swap8\n      pop\n      pop\n      pop\n      pop\n      pop\n        /* \"ABIEncodeDecode.sol\":572:767  function decode(bytes calldata data) external pure returns (uint _a, address _b, uint[] memory _c, Car memory _d){... */\n      swap3\n      swap6\n      swap2\n      swap5\n      pop\n      swap3\n      pop\n      jump\t// out\n    tag_29:\n      mload(0x40)\n      dup1\n      0x40\n      add\n      0x40\n      mstore\n      dup1\n      0x60\n      dup2\n      mstore\n      0x20\n      add\n      0x60\n      dup2\n      mstore\n      pop\n      swap1\n      jump\t// out\n        /* \"#utility.yul\":24:746   */\n    tag_34:\n        /* \"#utility.yul\":120:125   */\n      0x00\n        /* \"#utility.yul\":145:226   */\n      tag_36\n        /* \"#utility.yul\":161:225   */\n      tag_37\n        /* \"#utility.yul\":218:224   */\n      dup5\n        /* \"#utility.yul\":161:225   */\n      tag_38\n      jump\t// in\n    tag_37:\n        /* \"#utility.yul\":145:226   */\n      tag_39\n      jump\t// in\n    tag_36:\n        /* \"#utility.yul\":136:226   */\n      swap1\n      pop\n        /* \"#utility.yul\":246:251   */\n      dup1\n        /* \"#utility.yul\":275:281   */\n      dup4\n        /* \"#utility.yul\":268:273   */\n      dup3\n        /* \"#utility.yul\":261:282   */\n      mstore\n        /* \"#utility.yul\":309:313   */\n      0x20\n        /* \"#utility.yul\":302:307   */\n      dup3\n        /* \"#utility.yul\":298:314   */\n      add\n        /* \"#utility.yul\":291:314   */\n      swap1\n      pop\n        /* \"#utility.yul\":335:341   */\n      dup3\n        /* \"#utility.yul\":385:388   */\n      dup6\n        /* \"#utility.yul\":377:381   */\n      0x20\n        /* \"#utility.yul\":369:375   */\n      dup7\n        /* \"#utility.yul\":365:382   */\n      mul\n        /* \"#utility.yul\":360:363   */\n      dup3\n        /* \"#utility.yul\":356:383   */\n      add\n        /* \"#utility.yul\":353:389   */\n      gt\n        /* \"#utility.yul\":350:493   */\n      iszero\n      tag_40\n      jumpi\n        /* \"#utility.yul\":404:483   */\n      tag_41\n      tag_42\n      jump\t// in\n    tag_41:\n        /* \"#utility.yul\":350:493   */\n    tag_40:\n        /* \"#utility.yul\":517:518   */\n      0x00\n        /* \"#utility.yul\":502:740   */\n    tag_43:\n        /* \"#utility.yul\":527:533   */\n      dup6\n        /* \"#utility.yul\":524:525   */\n      dup2\n        /* \"#utility.yul\":521:534   */\n      lt\n        /* \"#utility.yul\":502:740   */\n      iszero\n      tag_45\n      jumpi\n        /* \"#utility.yul\":595:598   */\n      dup2\n        /* \"#utility.yul\":624:661   */\n      tag_46\n        /* \"#utility.yul\":657:660   */\n      dup9\n        /* \"#utility.yul\":645:655   */\n      dup3\n        /* \"#utility.yul\":624:661   */\n      tag_47\n      jump\t// in\n    tag_46:\n        /* \"#utility.yul\":619:622   */\n      dup5\n        /* \"#utility.yul\":612:662   */\n      mstore\n        /* \"#utility.yul\":691:695   */\n      0x20\n        /* \"#utility.yul\":686:689   */\n      dup5\n        /* \"#utility.yul\":682:696   */\n      add\n        /* \"#utility.yul\":675:696   */\n      swap4\n      pop\n        /* \"#utility.yul\":725:729   */\n      0x20\n        /* \"#utility.yul\":720:723   */\n      dup4\n        /* \"#utility.yul\":716:730   */\n      add\n        /* \"#utility.yul\":709:730   */\n      swap3\n      pop\n        /* \"#utility.yul\":562:740   */\n      pop\n        /* \"#utility.yul\":549:550   */\n      0x01\n        /* \"#utility.yul\":546:547   */\n      dup2\n        /* \"#utility.yul\":542:551   */\n      add\n        /* \"#utility.yul\":537:551   */\n      swap1\n      pop\n        /* \"#utility.yul\":502:740   */\n      jump(tag_43)\n    tag_45:\n        /* \"#utility.yul\":506:520   */\n      pop\n        /* \"#utility.yul\":126:746   */\n      pop\n      pop\n        /* \"#utility.yul\":24:746   */\n      swap4\n      swap3\n      pop\n      pop\n      pop\n      jump\t// out\n        /* \"#utility.yul\":752:1164   */\n    tag_48:\n        /* \"#utility.yul\":830:835   */\n      0x00\n        /* \"#utility.yul\":855:921   */\n      tag_50\n        /* \"#utility.yul\":871:920   */\n      tag_51\n        /* \"#utility.yul\":913:919   */\n      dup5\n        /* \"#utility.yul\":871:920   */\n      tag_52\n      jump\t// in\n    tag_51:\n        /* \"#utility.yul\":855:921   */\n      tag_39\n      jump\t// in\n    tag_50:\n        /* \"#utility.yul\":846:921   */\n      swap1\n      pop\n        /* \"#utility.yul\":944:950   */\n      dup3\n        /* \"#utility.yul\":937:942   */\n      dup2\n        /* \"#utility.yul\":930:951   */\n      mstore\n        /* \"#utility.yul\":982:986   */\n      0x20\n        /* \"#utility.yul\":975:980   */\n      dup2\n        /* \"#utility.yul\":971:987   */\n      add\n        /* \"#utility.yul\":1020:1023   */\n      dup5\n        /* \"#utility.yul\":1011:1017   */\n      dup5\n        /* \"#utility.yul\":1006:1009   */\n      dup5\n        /* \"#utility.yul\":1002:1018   */\n      add\n        /* \"#utility.yul\":999:1024   */\n      gt\n        /* \"#utility.yul\":996:1108   */\n      iszero\n      tag_53\n      jumpi\n        /* \"#utility.yul\":1027:1106   */\n      tag_54\n      tag_55\n      jump\t// in\n    tag_54:\n        /* \"#utility.yul\":996:1108   */\n    tag_53:\n        /* \"#utility.yul\":1117:1158   */\n      tag_56\n        /* \"#utility.yul\":1151:1157   */\n      dup5\n        /* \"#utility.yul\":1146:1149   */\n      dup3\n        /* \"#utility.yul\":1141:1144   */\n      dup6\n        /* \"#utility.yul\":1117:1158   */\n      tag_57\n      jump\t// in\n    tag_56:\n        /* \"#utility.yul\":836:1164   */\n      pop\n        /* \"#utility.yul\":752:1164   */\n      swap4\n      swap3\n      pop\n      pop\n      pop\n      jump\t// out\n        /* \"#utility.yul\":1170:1309   */\n    tag_58:\n        /* \"#utility.yul\":1216:1221   */\n      0x00\n        /* \"#utility.yul\":1254:1260   */\n      dup2\n        /* \"#utility.yul\":1241:1261   */\n      calldataload\n        /* \"#utility.yul\":1232:1261   */\n      swap1\n      pop\n        /* \"#utility.yul\":1270:1303   */\n      tag_60\n        /* \"#utility.yul\":1297:1302   */\n      dup2\n        /* \"#utility.yul\":1270:1303   */\n      tag_61\n      jump\t// in\n    tag_60:\n        /* \"#utility.yul\":1170:1309   */\n      swap3\n      swap2\n      pop\n      pop\n      jump\t// out\n        /* \"#utility.yul\":1315:1470   */\n    tag_62:\n        /* \"#utility.yul\":1369:1374   */\n      0x00\n        /* \"#utility.yul\":1407:1413   */\n      dup2\n        /* \"#utility.yul\":1394:1414   */\n      calldataload\n        /* \"#utility.yul\":1385:1414   */\n      swap1\n      pop\n        /* \"#utility.yul\":1423:1464   */\n      tag_64\n        /* \"#utility.yul\":1458:1463   */\n      dup2\n        /* \"#utility.yul\":1423:1464   */\n      tag_65\n      jump\t// in\n    tag_64:\n        /* \"#utility.yul\":1315:1470   */\n      swap3\n      swap2\n      pop\n      pop\n      jump\t// out\n        /* \"#utility.yul\":1493:2061   */\n    tag_66:\n        /* \"#utility.yul\":1566:1574   */\n      0x00\n        /* \"#utility.yul\":1576:1582   */\n      dup1\n        /* \"#utility.yul\":1626:1629   */\n      dup4\n        /* \"#utility.yul\":1619:1623   */\n      0x1f\n        /* \"#utility.yul\":1611:1617   */\n      dup5\n        /* \"#utility.yul\":1607:1624   */\n      add\n        /* \"#utility.yul\":1603:1630   */\n      slt\n        /* \"#utility.yul\":1593:1715   */\n      tag_68\n      jumpi\n        /* \"#utility.yul\":1634:1713   */\n      tag_69\n      tag_70\n      jump\t// in\n    tag_69:\n        /* \"#utility.yul\":1593:1715   */\n    tag_68:\n        /* \"#utility.yul\":1747:1753   */\n      dup3\n        /* \"#utility.yul\":1734:1754   */\n      calldataload\n        /* \"#utility.yul\":1724:1754   */\n      swap1\n      pop\n        /* \"#utility.yul\":1777:1795   */\n      0xffffffffffffffff\n        /* \"#utility.yul\":1769:1775   */\n      dup2\n        /* \"#utility.yul\":1766:1796   */\n      gt\n        /* \"#utility.yul\":1763:1880   */\n      iszero\n      tag_71\n      jumpi\n        /* \"#utility.yul\":1799:1878   */\n      tag_72\n      tag_73\n      jump\t// in\n    tag_72:\n        /* \"#utility.yul\":1763:1880   */\n    tag_71:\n        /* \"#utility.yul\":1913:1917   */\n      0x20\n        /* \"#utility.yul\":1905:1911   */\n      dup4\n        /* \"#utility.yul\":1901:1918   */\n      add\n        /* \"#utility.yul\":1889:1918   */\n      swap2\n      pop\n        /* \"#utility.yul\":1967:1970   */\n      dup4\n        /* \"#utility.yul\":1959:1963   */\n      0x20\n        /* \"#utility.yul\":1951:1957   */\n      dup3\n        /* \"#utility.yul\":1947:1964   */\n      mul\n        /* \"#utility.yul\":1937:1945   */\n      dup4\n        /* \"#utility.yul\":1933:1965   */\n      add\n        /* \"#utility.yul\":1930:1971   */\n      gt\n        /* \"#utility.yul\":1927:2055   */\n      iszero\n      tag_74\n      jumpi\n        /* \"#utility.yul\":1974:2053   */\n      tag_75\n      tag_42\n      jump\t// in\n    tag_75:\n        /* \"#utility.yul\":1927:2055   */\n    tag_74:\n        /* \"#utility.yul\":1493:2061   */\n      swap3\n      pop\n      swap3\n      swap1\n      pop\n      jump\t// out\n        /* \"#utility.yul\":2084:2454   */\n    tag_76:\n        /* \"#utility.yul\":2155:2160   */\n      0x00\n        /* \"#utility.yul\":2204:2207   */\n      dup3\n        /* \"#utility.yul\":2197:2201   */\n      0x1f\n        /* \"#utility.yul\":2189:2195   */\n      dup4\n        /* \"#utility.yul\":2185:2202   */\n      add\n        /* \"#utility.yul\":2181:2208   */\n      slt\n        /* \"#utility.yul\":2171:2293   */\n      tag_78\n      jumpi\n        /* \"#utility.yul\":2212:2291   */\n      tag_79\n      tag_70\n      jump\t// in\n    tag_79:\n        /* \"#utility.yul\":2171:2293   */\n    tag_78:\n        /* \"#utility.yul\":2329:2335   */\n      dup2\n        /* \"#utility.yul\":2316:2336   */\n      calldataload\n        /* \"#utility.yul\":2354:2448   */\n      tag_80\n        /* \"#utility.yul\":2444:2447   */\n      dup5\n        /* \"#utility.yul\":2436:2442   */\n      dup3\n        /* \"#utility.yul\":2429:2433   */\n      0x20\n        /* \"#utility.yul\":2421:2427   */\n      dup7\n        /* \"#utility.yul\":2417:2434   */\n      add\n        /* \"#utility.yul\":2354:2448   */\n      tag_34\n      jump\t// in\n    tag_80:\n        /* \"#utility.yul\":2345:2448   */\n      swap2\n      pop\n        /* \"#utility.yul\":2161:2454   */\n      pop\n        /* \"#utility.yul\":2084:2454   */\n      swap3\n      swap2\n      pop\n      pop\n      jump\t// out\n        /* \"#utility.yul\":2473:3025   */\n    tag_81:\n        /* \"#utility.yul\":2530:2538   */\n      0x00\n        /* \"#utility.yul\":2540:2546   */\n      dup1\n        /* \"#utility.yul\":2590:2593   */\n      dup4\n        /* \"#utility.yul\":2583:2587   */\n      0x1f\n        /* \"#utility.yul\":2575:2581   */\n      dup5\n        /* \"#utility.yul\":2571:2588   */\n      add\n        /* \"#utility.yul\":2567:2594   */\n      slt\n        /* \"#utility.yul\":2557:2679   */\n      tag_83\n      jumpi\n        /* \"#utility.yul\":2598:2677   */\n      tag_84\n      tag_70\n      jump\t// in\n    tag_84:\n        /* \"#utility.yul\":2557:2679   */\n    tag_83:\n        /* \"#utility.yul\":2711:2717   */\n      dup3\n        /* \"#utility.yul\":2698:2718   */\n      calldataload\n        /* \"#utility.yul\":2688:2718   */\n      swap1\n      pop\n        /* \"#utility.yul\":2741:2759   */\n      0xffffffffffffffff\n        /* \"#utility.yul\":2733:2739   */\n      dup2\n        /* \"#utility.yul\":2730:2760   */\n      gt\n        /* \"#utility.yul\":2727:2844   */\n      iszero\n      tag_85\n      jumpi\n        /* \"#utility.yul\":2763:2842   */\n      tag_86\n      tag_73\n      jump\t// in\n    tag_86:\n        /* \"#utility.yul\":2727:2844   */\n    tag_85:\n        /* \"#utility.yul\":2877:2881   */\n      0x20\n        /* \"#utility.yul\":2869:2875   */\n      dup4\n        /* \"#utility.yul\":2865:2882   */\n      add\n        /* \"#utility.yul\":2853:2882   */\n      swap2\n      pop\n        /* \"#utility.yul\":2931:2934   */\n      dup4\n        /* \"#utility.yul\":2923:2927   */\n      0x01\n        /* \"#utility.yul\":2915:2921   */\n      dup3\n        /* \"#utility.yul\":2911:2928   */\n      mul\n        /* \"#utility.yul\":2901:2909   */\n      dup4\n        /* \"#utility.yul\":2897:2929   */\n      add\n        /* \"#utility.yul\":2894:2935   */\n      gt\n        /* \"#utility.yul\":2891:3019   */\n      iszero\n      tag_87\n      jumpi\n        /* \"#utility.yul\":2938:3017   */\n      tag_88\n      tag_42\n      jump\t// in\n    tag_88:\n        /* \"#utility.yul\":2891:3019   */\n    tag_87:\n        /* \"#utility.yul\":2473:3025   */\n      swap3\n      pop\n      swap3\n      swap1\n      pop\n      jump\t// out\n        /* \"#utility.yul\":3045:3385   */\n    tag_89:\n        /* \"#utility.yul\":3101:3106   */\n      0x00\n        /* \"#utility.yul\":3150:3153   */\n      dup3\n        /* \"#utility.yul\":3143:3147   */\n      0x1f\n        /* \"#utility.yul\":3135:3141   */\n      dup4\n        /* \"#utility.yul\":3131:3148   */\n      add\n        /* \"#utility.yul\":3127:3154   */\n      slt\n        /* \"#utility.yul\":3117:3239   */\n      tag_91\n      jumpi\n        /* \"#utility.yul\":3158:3237   */\n      tag_92\n      tag_70\n      jump\t// in\n    tag_92:\n        /* \"#utility.yul\":3117:3239   */\n    tag_91:\n        /* \"#utility.yul\":3275:3281   */\n      dup2\n        /* \"#utility.yul\":3262:3282   */\n      calldataload\n        /* \"#utility.yul\":3300:3379   */\n      tag_93\n        /* \"#utility.yul\":3375:3378   */\n      dup5\n        /* \"#utility.yul\":3367:3373   */\n      dup3\n        /* \"#utility.yul\":3360:3364   */\n      0x20\n        /* \"#utility.yul\":3352:3358   */\n      dup7\n        /* \"#utility.yul\":3348:3365   */\n      add\n        /* \"#utility.yul\":3300:3379   */\n      tag_48\n      jump\t// in\n    tag_93:\n        /* \"#utility.yul\":3291:3379   */\n      swap2\n      pop\n        /* \"#utility.yul\":3107:3385   */\n      pop\n        /* \"#utility.yul\":3045:3385   */\n      swap3\n      swap2\n      pop\n      pop\n      jump\t// out\n        /* \"#utility.yul\":3428:3652   */\n    tag_94:\n        /* \"#utility.yul\":3494:3499   */\n      0x00\n        /* \"#utility.yul\":3535:3537   */\n      0x40\n        /* \"#utility.yul\":3526:3532   */\n      dup3\n        /* \"#utility.yul\":3521:3524   */\n      dup5\n        /* \"#utility.yul\":3517:3533   */\n      sub\n        /* \"#utility.yul\":3513:3538   */\n      slt\n        /* \"#utility.yul\":3510:3622   */\n      iszero\n      tag_96\n      jumpi\n        /* \"#utility.yul\":3541:3620   */\n      tag_97\n      tag_98\n      jump\t// in\n    tag_97:\n        /* \"#utility.yul\":3510:3622   */\n    tag_96:\n        /* \"#utility.yul\":3640:3646   */\n      dup2\n        /* \"#utility.yul\":3631:3646   */\n      swap1\n      pop\n        /* \"#utility.yul\":3428:3652   */\n      swap3\n      swap2\n      pop\n      pop\n      jump\t// out\n        /* \"#utility.yul\":3695:4617   */\n    tag_99:\n        /* \"#utility.yul\":3762:3767   */\n      0x00\n        /* \"#utility.yul\":3806:3810   */\n      0x40\n        /* \"#utility.yul\":3794:3803   */\n      dup3\n        /* \"#utility.yul\":3789:3792   */\n      dup5\n        /* \"#utility.yul\":3785:3804   */\n      sub\n        /* \"#utility.yul\":3781:3811   */\n      slt\n        /* \"#utility.yul\":3778:3895   */\n      iszero\n      tag_101\n      jumpi\n        /* \"#utility.yul\":3814:3893   */\n      tag_102\n      tag_103\n      jump\t// in\n    tag_102:\n        /* \"#utility.yul\":3778:3895   */\n    tag_101:\n        /* \"#utility.yul\":3913:3934   */\n      tag_104\n        /* \"#utility.yul\":3929:3933   */\n      0x40\n        /* \"#utility.yul\":3913:3934   */\n      tag_39\n      jump\t// in\n    tag_104:\n        /* \"#utility.yul\":3904:3934   */\n      swap1\n      pop\n        /* \"#utility.yul\":4021:4022   */\n      0x00\n        /* \"#utility.yul\":4010:4019   */\n      dup3\n        /* \"#utility.yul\":4006:4023   */\n      add\n        /* \"#utility.yul\":3993:4024   */\n      calldataload\n        /* \"#utility.yul\":4051:4069   */\n      0xffffffffffffffff\n        /* \"#utility.yul\":4043:4049   */\n      dup2\n        /* \"#utility.yul\":4040:4070   */\n      gt\n        /* \"#utility.yul\":4037:4154   */\n      iszero\n      tag_105\n      jumpi\n        /* \"#utility.yul\":4073:4152   */\n      tag_106\n      tag_107\n      jump\t// in\n    tag_106:\n        /* \"#utility.yul\":4037:4154   */\n    tag_105:\n        /* \"#utility.yul\":4193:4252   */\n      tag_108\n        /* \"#utility.yul\":4248:4251   */\n      dup5\n        /* \"#utility.yul\":4239:4245   */\n      dup3\n        /* \"#utility.yul\":4228:4237   */\n      dup6\n        /* \"#utility.yul\":4224:4246   */\n      add\n        /* \"#utility.yul\":4193:4252   */\n      tag_89\n      jump\t// in\n    tag_108:\n        /* \"#utility.yul\":4186:4190   */\n      0x00\n        /* \"#utility.yul\":4179:4184   */\n      dup4\n        /* \"#utility.yul\":4175:4191   */\n      add\n        /* \"#utility.yul\":4168:4253   */\n      mstore\n        /* \"#utility.yul\":3944:4264   */\n      pop\n        /* \"#utility.yul\":4351:4353   */\n      0x20\n        /* \"#utility.yul\":4340:4349   */\n      dup3\n        /* \"#utility.yul\":4336:4354   */\n      add\n        /* \"#utility.yul\":4323:4355   */\n      calldataload\n        /* \"#utility.yul\":4382:4400   */\n      0xffffffffffffffff\n        /* \"#utility.yul\":4374:4380   */\n      dup2\n        /* \"#utility.yul\":4371:4401   */\n      gt\n        /* \"#utility.yul\":4368:4485   */\n      iszero\n      tag_109\n      jumpi\n        /* \"#utility.yul\":4404:4483   */\n      tag_110\n      tag_107\n      jump\t// in\n    tag_110:\n        /* \"#utility.yul\":4368:4485   */\n    tag_109:\n        /* \"#utility.yul\":4524:4598   */\n      tag_111\n        /* \"#utility.yul\":4594:4597   */\n      dup5\n        /* \"#utility.yul\":4585:4591   */\n      dup3\n        /* \"#utility.yul\":4574:4583   */\n      dup6\n        /* \"#utility.yul\":4570:4592   */\n      add\n        /* \"#utility.yul\":4524:4598   */\n      tag_76\n      jump\t// in\n    tag_111:\n        /* \"#utility.yul\":4517:4521   */\n      0x20\n        /* \"#utility.yul\":4510:4515   */\n      dup4\n        /* \"#utility.yul\":4506:4522   */\n      add\n        /* \"#utility.yul\":4499:4599   */\n      mstore\n        /* \"#utility.yul\":4274:4610   */\n      pop\n        /* \"#utility.yul\":3695:4617   */\n      swap3\n      swap2\n      pop\n      pop\n      jump\t// out\n        /* \"#utility.yul\":4623:4762   */\n    tag_47:\n        /* \"#utility.yul\":4669:4674   */\n      0x00\n        /* \"#utility.yul\":4707:4713   */\n      dup2\n        /* \"#utility.yul\":4694:4714   */\n      calldataload\n        /* \"#utility.yul\":4685:4714   */\n      swap1\n      pop\n        /* \"#utility.yul\":4723:4756   */\n      tag_113\n        /* \"#utility.yul\":4750:4755   */\n      dup2\n        /* \"#utility.yul\":4723:4756   */\n      tag_114\n      jump\t// in\n    tag_113:\n        /* \"#utility.yul\":4623:4762   */\n      swap3\n      swap2\n      pop\n      pop\n      jump\t// out\n        /* \"#utility.yul\":4768:5295   */\n    tag_18:\n        /* \"#utility.yul\":4838:4844   */\n      0x00\n        /* \"#utility.yul\":4846:4852   */\n      dup1\n        /* \"#utility.yul\":4895:4897   */\n      0x20\n        /* \"#utility.yul\":4883:4892   */\n      dup4\n        /* \"#utility.yul\":4874:4881   */\n      dup6\n        /* \"#utility.yul\":4870:4893   */\n      sub\n        /* \"#utility.yul\":4866:4898   */\n      slt\n        /* \"#utility.yul\":4863:4982   */\n      iszero\n      tag_116\n      jumpi\n        /* \"#utility.yul\":4901:4980   */\n      tag_117\n      tag_118\n      jump\t// in\n    tag_117:\n        /* \"#utility.yul\":4863:4982   */\n    tag_116:\n        /* \"#utility.yul\":5049:5050   */\n      0x00\n        /* \"#utility.yul\":5038:5047   */\n      dup4\n        /* \"#utility.yul\":5034:5051   */\n      add\n        /* \"#utility.yul\":5021:5052   */\n      calldataload\n        /* \"#utility.yul\":5079:5097   */\n      0xffffffffffffffff\n        /* \"#utility.yul\":5071:5077   */\n      dup2\n        /* \"#utility.yul\":5068:5098   */\n      gt\n        /* \"#utility.yul\":5065:5182   */\n      iszero\n      tag_119\n      jumpi\n        /* \"#utility.yul\":5101:5180   */\n      tag_120\n      tag_121\n      jump\t// in\n    tag_120:\n        /* \"#utility.yul\":5065:5182   */\n    tag_119:\n        /* \"#utility.yul\":5214:5278   */\n      tag_122\n        /* \"#utility.yul\":5270:5277   */\n      dup6\n        /* \"#utility.yul\":5261:5267   */\n      dup3\n        /* \"#utility.yul\":5250:5259   */\n      dup7\n        /* \"#utility.yul\":5246:5268   */\n      add\n        /* \"#utility.yul\":5214:5278   */\n      tag_81\n      jump\t// in\n    tag_122:\n        /* \"#utility.yul\":5196:5278   */\n      swap3\n      pop\n      swap3\n      pop\n        /* \"#utility.yul\":4992:5288   */\n      pop\n        /* \"#utility.yul\":4768:5295   */\n      swap3\n      pop\n      swap3\n      swap1\n      pop\n      jump\t// out\n        /* \"#utility.yul\":5301:6488   */\n    tag_32:\n        /* \"#utility.yul\":5438:5444   */\n      0x00\n        /* \"#utility.yul\":5446:5452   */\n      dup1\n        /* \"#utility.yul\":5454:5460   */\n      0x00\n        /* \"#utility.yul\":5462:5468   */\n      dup1\n        /* \"#utility.yul\":5511:5514   */\n      0x80\n        /* \"#utility.yul\":5499:5508   */\n      dup6\n        /* \"#utility.yul\":5490:5497   */\n      dup8\n        /* \"#utility.yul\":5486:5509   */\n      sub\n        /* \"#utility.yul\":5482:5515   */\n      slt\n        /* \"#utility.yul\":5479:5599   */\n      iszero\n      tag_124\n      jumpi\n        /* \"#utility.yul\":5518:5597   */\n      tag_125\n      tag_118\n      jump\t// in\n    tag_125:\n        /* \"#utility.yul\":5479:5599   */\n    tag_124:\n        /* \"#utility.yul\":5638:5639   */\n      0x00\n        /* \"#utility.yul\":5663:5716   */\n      tag_126\n        /* \"#utility.yul\":5708:5715   */\n      dup8\n        /* \"#utility.yul\":5699:5705   */\n      dup3\n        /* \"#utility.yul\":5688:5697   */\n      dup9\n        /* \"#utility.yul\":5684:5706   */\n      add\n        /* \"#utility.yul\":5663:5716   */\n      tag_47\n      jump\t// in\n    tag_126:\n        /* \"#utility.yul\":5653:5716   */\n      swap5\n      pop\n        /* \"#utility.yul\":5609:5726   */\n      pop\n        /* \"#utility.yul\":5765:5767   */\n      0x20\n        /* \"#utility.yul\":5791:5852   */\n      tag_127\n        /* \"#utility.yul\":5844:5851   */\n      dup8\n        /* \"#utility.yul\":5835:5841   */\n      dup3\n        /* \"#utility.yul\":5824:5833   */\n      dup9\n        /* \"#utility.yul\":5820:5842   */\n      add\n        /* \"#utility.yul\":5791:5852   */\n      tag_62\n      jump\t// in\n    tag_127:\n        /* \"#utility.yul\":5781:5852   */\n      swap4\n      pop\n        /* \"#utility.yul\":5736:5862   */\n      pop\n        /* \"#utility.yul\":5929:5931   */\n      0x40\n        /* \"#utility.yul\":5918:5927   */\n      dup6\n        /* \"#utility.yul\":5914:5932   */\n      add\n        /* \"#utility.yul\":5901:5933   */\n      calldataload\n        /* \"#utility.yul\":5960:5978   */\n      0xffffffffffffffff\n        /* \"#utility.yul\":5952:5958   */\n      dup2\n        /* \"#utility.yul\":5949:5979   */\n      gt\n        /* \"#utility.yul\":5946:6063   */\n      iszero\n      tag_128\n      jumpi\n        /* \"#utility.yul\":5982:6061   */\n      tag_129\n      tag_121\n      jump\t// in\n    tag_129:\n        /* \"#utility.yul\":5946:6063   */\n    tag_128:\n        /* \"#utility.yul\":6087:6165   */\n      tag_130\n        /* \"#utility.yul\":6157:6164   */\n      dup8\n        /* \"#utility.yul\":6148:6154   */\n      dup3\n        /* \"#utility.yul\":6137:6146   */\n      dup9\n        /* \"#utility.yul\":6133:6155   */\n      add\n        /* \"#utility.yul\":6087:6165   */\n      tag_76\n      jump\t// in\n    tag_130:\n        /* \"#utility.yul\":6077:6165   */\n      swap3\n      pop\n        /* \"#utility.yul\":5872:6175   */\n      pop\n        /* \"#utility.yul\":6242:6244   */\n      0x60\n        /* \"#utility.yul\":6231:6240   */\n      dup6\n        /* \"#utility.yul\":6227:6245   */\n      add\n        /* \"#utility.yul\":6214:6246   */\n      calldataload\n        /* \"#utility.yul\":6273:6291   */\n      0xffffffffffffffff\n        /* \"#utility.yul\":6265:6271   */\n      dup2\n        /* \"#utility.yul\":6262:6292   */\n      gt\n        /* \"#utility.yul\":6259:6376   */\n      iszero\n      tag_131\n      jumpi\n        /* \"#utility.yul\":6295:6374   */\n      tag_132\n      tag_121\n      jump\t// in\n    tag_132:\n        /* \"#utility.yul\":6259:6376   */\n    tag_131:\n        /* \"#utility.yul\":6400:6471   */\n      tag_133\n        /* \"#utility.yul\":6463:6470   */\n      dup8\n        /* \"#utility.yul\":6454:6460   */\n      dup3\n        /* \"#utility.yul\":6443:6452   */\n      dup9\n        /* \"#utility.yul\":6439:6461   */\n      add\n        /* \"#utility.yul\":6400:6471   */\n      tag_99\n      jump\t// in\n    tag_133:\n        /* \"#utility.yul\":6390:6471   */\n      swap2\n      pop\n        /* \"#utility.yul\":6185:6481   */\n      pop\n        /* \"#utility.yul\":5301:6488   */\n      swap3\n      swap6\n      swap2\n      swap5\n      pop\n      swap3\n      pop\n      jump\t// out\n        /* \"#utility.yul\":6494:7689   */\n    tag_8:\n        /* \"#utility.yul\":6627:6633   */\n      0x00\n        /* \"#utility.yul\":6635:6641   */\n      dup1\n        /* \"#utility.yul\":6643:6649   */\n      0x00\n        /* \"#utility.yul\":6651:6657   */\n      dup1\n        /* \"#utility.yul\":6659:6665   */\n      0x00\n        /* \"#utility.yul\":6708:6711   */\n      0x80\n        /* \"#utility.yul\":6696:6705   */\n      dup7\n        /* \"#utility.yul\":6687:6694   */\n      dup9\n        /* \"#utility.yul\":6683:6706   */\n      sub\n        /* \"#utility.yul\":6679:6712   */\n      slt\n        /* \"#utility.yul\":6676:6796   */\n      iszero\n      tag_135\n      jumpi\n        /* \"#utility.yul\":6715:6794   */\n      tag_136\n      tag_118\n      jump\t// in\n    tag_136:\n        /* \"#utility.yul\":6676:6796   */\n    tag_135:\n        /* \"#utility.yul\":6835:6836   */\n      0x00\n        /* \"#utility.yul\":6860:6913   */\n      tag_137\n        /* \"#utility.yul\":6905:6912   */\n      dup9\n        /* \"#utility.yul\":6896:6902   */\n      dup3\n        /* \"#utility.yul\":6885:6894   */\n      dup10\n        /* \"#utility.yul\":6881:6903   */\n      add\n        /* \"#utility.yul\":6860:6913   */\n      tag_47\n      jump\t// in\n    tag_137:\n        /* \"#utility.yul\":6850:6913   */\n      swap6\n      pop\n        /* \"#utility.yul\":6806:6923   */\n      pop\n        /* \"#utility.yul\":6962:6964   */\n      0x20\n        /* \"#utility.yul\":6988:7041   */\n      tag_138\n        /* \"#utility.yul\":7033:7040   */\n      dup9\n        /* \"#utility.yul\":7024:7030   */\n      dup3\n        /* \"#utility.yul\":7013:7022   */\n      dup10\n        /* \"#utility.yul\":7009:7031   */\n      add\n        /* \"#utility.yul\":6988:7041   */\n      tag_58\n      jump\t// in\n    tag_138:\n        /* \"#utility.yul\":6978:7041   */\n      swap5\n      pop\n        /* \"#utility.yul\":6933:7051   */\n      pop\n        /* \"#utility.yul\":7118:7120   */\n      0x40\n        /* \"#utility.yul\":7107:7116   */\n      dup7\n        /* \"#utility.yul\":7103:7121   */\n      add\n        /* \"#utility.yul\":7090:7122   */\n      calldataload\n        /* \"#utility.yul\":7149:7167   */\n      0xffffffffffffffff\n        /* \"#utility.yul\":7141:7147   */\n      dup2\n        /* \"#utility.yul\":7138:7168   */\n      gt\n        /* \"#utility.yul\":7135:7252   */\n      iszero\n      tag_139\n      jumpi\n        /* \"#utility.yul\":7171:7250   */\n      tag_140\n      tag_121\n      jump\t// in\n    tag_140:\n        /* \"#utility.yul\":7135:7252   */\n    tag_139:\n        /* \"#utility.yul\":7284:7364   */\n      tag_141\n        /* \"#utility.yul\":7356:7363   */\n      dup9\n        /* \"#utility.yul\":7347:7353   */\n      dup3\n        /* \"#utility.yul\":7336:7345   */\n      dup10\n        /* \"#utility.yul\":7332:7354   */\n      add\n        /* \"#utility.yul\":7284:7364   */\n      tag_66\n      jump\t// in\n    tag_141:\n        /* \"#utility.yul\":7266:7364   */\n      swap4\n      pop\n      swap4\n      pop\n        /* \"#utility.yul\":7061:7374   */\n      pop\n        /* \"#utility.yul\":7441:7443   */\n      0x60\n        /* \"#utility.yul\":7430:7439   */\n      dup7\n        /* \"#utility.yul\":7426:7444   */\n      add\n        /* \"#utility.yul\":7413:7445   */\n      calldataload\n        /* \"#utility.yul\":7472:7490   */\n      0xffffffffffffffff\n        /* \"#utility.yul\":7464:7470   */\n      dup2\n        /* \"#utility.yul\":7461:7491   */\n      gt\n        /* \"#utility.yul\":7458:7575   */\n      iszero\n      tag_142\n      jumpi\n        /* \"#utility.yul\":7494:7573   */\n      tag_143\n      tag_121\n      jump\t// in\n    tag_143:\n        /* \"#utility.yul\":7458:7575   */\n    tag_142:\n        /* \"#utility.yul\":7599:7672   */\n      tag_144\n        /* \"#utility.yul\":7664:7671   */\n      dup9\n        /* \"#utility.yul\":7655:7661   */\n      dup3\n        /* \"#utility.yul\":7644:7653   */\n      dup10\n        /* \"#utility.yul\":7640:7662   */\n      add\n        /* \"#utility.yul\":7599:7672   */\n      tag_94\n      jump\t// in\n    tag_144:\n        /* \"#utility.yul\":7589:7672   */\n      swap2\n      pop\n        /* \"#utility.yul\":7384:7682   */\n      pop\n        /* \"#utility.yul\":6494:7689   */\n      swap3\n      swap6\n      pop\n      swap3\n      swap6\n      swap1\n      swap4\n      pop\n      jump\t// out\n        /* \"#utility.yul\":7695:7874   */\n    tag_145:\n        /* \"#utility.yul\":7764:7774   */\n      0x00\n        /* \"#utility.yul\":7785:7831   */\n      tag_147\n        /* \"#utility.yul\":7827:7830   */\n      dup4\n        /* \"#utility.yul\":7819:7825   */\n      dup4\n        /* \"#utility.yul\":7785:7831   */\n      tag_148\n      jump\t// in\n    tag_147:\n        /* \"#utility.yul\":7863:7867   */\n      0x20\n        /* \"#utility.yul\":7858:7861   */\n      dup4\n        /* \"#utility.yul\":7854:7868   */\n      add\n        /* \"#utility.yul\":7840:7868   */\n      swap1\n      pop\n        /* \"#utility.yul\":7695:7874   */\n      swap3\n      swap2\n      pop\n      pop\n      jump\t// out\n        /* \"#utility.yul\":7880:7998   */\n    tag_149:\n        /* \"#utility.yul\":7967:7991   */\n      tag_151\n        /* \"#utility.yul\":7985:7990   */\n      dup2\n        /* \"#utility.yul\":7967:7991   */\n      tag_152\n      jump\t// in\n    tag_151:\n        /* \"#utility.yul\":7962:7965   */\n      dup3\n        /* \"#utility.yul\":7955:7992   */\n      mstore\n        /* \"#utility.yul\":7880:7998   */\n      pop\n      pop\n      jump\t// out\n        /* \"#utility.yul\":8004:8161   */\n    tag_153:\n        /* \"#utility.yul\":8109:8154   */\n      tag_155\n        /* \"#utility.yul\":8129:8153   */\n      tag_156\n        /* \"#utility.yul\":8147:8152   */\n      dup3\n        /* \"#utility.yul\":8129:8153   */\n      tag_152\n      jump\t// in\n    tag_156:\n        /* \"#utility.yul\":8109:8154   */\n      tag_157\n      jump\t// in\n    tag_155:\n        /* \"#utility.yul\":8104:8107   */\n      dup3\n        /* \"#utility.yul\":8097:8155   */\n      mstore\n        /* \"#utility.yul\":8004:8161   */\n      pop\n      pop\n      jump\t// out\n        /* \"#utility.yul\":8197:8714   */\n    tag_158:\n        /* \"#utility.yul\":8315:8318   */\n      0x00\n        /* \"#utility.yul\":8336:8412   */\n      tag_160\n        /* \"#utility.yul\":8405:8411   */\n      dup4\n        /* \"#utility.yul\":8400:8403   */\n      dup6\n        /* \"#utility.yul\":8336:8412   */\n      tag_161\n      jump\t// in\n    tag_160:\n        /* \"#utility.yul\":8329:8412   */\n      swap4\n      pop\n        /* \"#utility.yul\":8436:8502   */\n      0x07ffffffffffffffffffffffffffffffffffffffffffffffffffffffffffffff\n        /* \"#utility.yul\":8428:8434   */\n      dup4\n        /* \"#utility.yul\":8425:8503   */\n      gt\n        /* \"#utility.yul\":8422:8587   */\n      iszero\n      tag_162\n      jumpi\n        /* \"#utility.yul\":8506:8585   */\n      tag_163\n      tag_164\n      jump\t// in\n    tag_163:\n        /* \"#utility.yul\":8422:8587   */\n    tag_162:\n        /* \"#utility.yul\":8618:8622   */\n      0x20\n        /* \"#utility.yul\":8610:8616   */\n      dup4\n        /* \"#utility.yul\":8606:8623   */\n      mul\n        /* \"#utility.yul\":8596:8623   */\n      swap3\n      pop\n        /* \"#utility.yul\":8633:8676   */\n      tag_165\n        /* \"#utility.yul\":8669:8675   */\n      dup4\n        /* \"#utility.yul\":8664:8667   */\n      dup6\n        /* \"#utility.yul\":8657:8662   */\n      dup5\n        /* \"#utility.yul\":8633:8676   */\n      tag_57\n      jump\t// in\n    tag_165:\n        /* \"#utility.yul\":8701:8707   */\n      dup3\n        /* \"#utility.yul\":8696:8699   */\n      dup5\n        /* \"#utility.yul\":8692:8708   */\n      add\n        /* \"#utility.yul\":8685:8708   */\n      swap1\n      pop\n        /* \"#utility.yul\":8197:8714   */\n      swap4\n      swap3\n      pop\n      pop\n      pop\n      jump\t// out\n        /* \"#utility.yul\":8750:9287   */\n    tag_166:\n        /* \"#utility.yul\":8878:8881   */\n      0x00\n        /* \"#utility.yul\":8899:8985   */\n      tag_168\n        /* \"#utility.yul\":8978:8984   */\n      dup4\n        /* \"#utility.yul\":8973:8976   */\n      dup6\n        /* \"#utility.yul\":8899:8985   */\n      tag_169\n      jump\t// in\n    tag_168:\n        /* \"#utility.yul\":8892:8985   */\n      swap4\n      pop\n        /* \"#utility.yul\":9009:9075   */\n      0x07ffffffffffffffffffffffffffffffffffffffffffffffffffffffffffffff\n        /* \"#utility.yul\":9001:9007   */\n      dup4\n        /* \"#utility.yul\":8998:9076   */\n      gt\n        /* \"#utility.yul\":8995:9160   */\n      iszero\n      tag_170\n      jumpi\n        /* \"#utility.yul\":9079:9158   */\n      tag_171\n      tag_164\n      jump\t// in\n    tag_171:\n        /* \"#utility.yul\":8995:9160   */\n    tag_170:\n        /* \"#utility.yul\":9191:9195   */\n      0x20\n        /* \"#utility.yul\":9183:9189   */\n      dup4\n        /* \"#utility.yul\":9179:9196   */\n      mul\n        /* \"#utility.yul\":9169:9196   */\n      swap3\n      pop\n        /* \"#utility.yul\":9206:9249   */\n      tag_172\n        /* \"#utility.yul\":9242:9248   */\n      dup4\n        /* \"#utility.yul\":9237:9240   */\n      dup6\n        /* \"#utility.yul\":9230:9235   */\n      dup5\n        /* \"#utility.yul\":9206:9249   */\n      tag_57\n      jump\t// in\n    tag_172:\n        /* \"#utility.yul\":9274:9280   */\n      dup3\n        /* \"#utility.yul\":9269:9272   */\n      dup5\n        /* \"#utility.yul\":9265:9281   */\n      add\n        /* \"#utility.yul\":9258:9281   */\n      swap1\n      pop\n        /* \"#utility.yul\":8750:9287   */\n      swap4\n      swap3\n      pop\n      pop\n      pop\n      jump\t// out\n        /* \"#utility.yul\":9323:9896   */\n    tag_173:\n        /* \"#utility.yul\":9469:9472   */\n      0x00\n        /* \"#utility.yul\":9490:9594   */\n      tag_175\n        /* \"#utility.yul\":9587:9593   */\n      dup4\n        /* \"#utility.yul\":9582:9585   */\n      dup6\n        /* \"#utility.yul\":9490:9594   */\n      tag_176\n      jump\t// in\n    tag_175:\n        /* \"#utility.yul\":9483:9594   */\n      swap4\n      pop\n        /* \"#utility.yul\":9618:9684   */\n      0x07ffffffffffffffffffffffffffffffffffffffffffffffffffffffffffffff\n        /* \"#utility.yul\":9610:9616   */\n      dup4\n        /* \"#utility.yul\":9607:9685   */\n      gt\n        /* \"#utility.yul\":9604:9769   */\n      iszero\n      tag_177\n      jumpi\n        /* \"#utility.yul\":9688:9767   */\n      tag_178\n      tag_164\n      jump\t// in\n    tag_178:\n        /* \"#utility.yul\":9604:9769   */\n    tag_177:\n        /* \"#utility.yul\":9800:9804   */\n      0x20\n        /* \"#utility.yul\":9792:9798   */\n      dup4\n        /* \"#utility.yul\":9788:9805   */\n      mul\n        /* \"#utility.yul\":9778:9805   */\n      swap3\n      pop\n        /* \"#utility.yul\":9815:9858   */\n      tag_179\n        /* \"#utility.yul\":9851:9857   */\n      dup4\n        /* \"#utility.yul\":9846:9849   */\n      dup6\n        /* \"#utility.yul\":9839:9844   */\n      dup5\n        /* \"#utility.yul\":9815:9858   */\n      tag_57\n      jump\t// in\n    tag_179:\n        /* \"#utility.yul\":9883:9889   */\n      dup3\n        /* \"#utility.yul\":9878:9881   */\n      dup5\n        /* \"#utility.yul\":9874:9890   */\n      add\n        /* \"#utility.yul\":9867:9890   */\n      swap1\n      pop\n        /* \"#utility.yul\":9323:9896   */\n      swap4\n      swap3\n      pop\n      pop\n      pop\n      jump\t// out\n        /* \"#utility.yul\":9932:10644   */\n    tag_180:\n        /* \"#utility.yul\":10041:10044   */\n      0x00\n        /* \"#utility.yul\":10070:10124   */\n      tag_182\n        /* \"#utility.yul\":10118:10123   */\n      dup3\n        /* \"#utility.yul\":10070:10124   */\n      tag_183\n      jump\t// in\n    tag_182:\n        /* \"#utility.yul\":10140:10216   */\n      tag_184\n        /* \"#utility.yul\":10209:10215   */\n      dup2\n        /* \"#utility.yul\":10204:10207   */\n      dup6\n        /* \"#utility.yul\":10140:10216   */\n      tag_161\n      jump\t// in\n    tag_184:\n        /* \"#utility.yul\":10133:10216   */\n      swap4\n      pop\n        /* \"#utility.yul\":10240:10296   */\n      tag_185\n        /* \"#utility.yul\":10290:10295   */\n      dup4\n        /* \"#utility.yul\":10240:10296   */\n      tag_186\n      jump\t// in\n    tag_185:\n        /* \"#utility.yul\":10319:10326   */\n      dup1\n        /* \"#utility.yul\":10350:10351   */\n      0x00\n        /* \"#utility.yul\":10335:10619   */\n    tag_187:\n        /* \"#utility.yul\":10360:10366   */\n      dup4\n        /* \"#utility.yul\":10357:10358   */\n      dup2\n        /* \"#utility.yul\":10354:10367   */\n      lt\n        /* \"#utility.yul\":10335:10619   */\n      iszero\n      tag_189\n      jumpi\n        /* \"#utility.yul\":10436:10442   */\n      dup2\n        /* \"#utility.yul\":10430:10443   */\n      mload\n        /* \"#utility.yul\":10463:10526   */\n      tag_190\n        /* \"#utility.yul\":10522:10525   */\n      dup9\n        /* \"#utility.yul\":10507:10520   */\n      dup3\n        /* \"#utility.yul\":10463:10526   */\n      tag_145\n      jump\t// in\n    tag_190:\n        /* \"#utility.yul\":10456:10526   */\n      swap8\n      pop\n        /* \"#utility.yul\":10549:10609   */\n      tag_191\n        /* \"#utility.yul\":10602:10608   */\n      dup4\n        /* \"#utility.yul\":10549:10609   */\n      tag_192\n      jump\t// in\n    tag_191:\n        /* \"#utility.yul\":10539:10609   */\n      swap3\n      pop\n        /* \"#utility.yul\":10395:10619   */\n      pop\n        /* \"#utility.yul\":10382:10383   */\n      0x01\n        /* \"#utility.yul\":10379:10380   */\n      dup2\n        /* \"#utility.yul\":10375:10384   */\n      add\n        /* \"#utility.yul\":10370:10384   */\n      swap1\n      pop\n        /* \"#utility.yul\":10335:10619   */\n      jump(tag_187)\n    tag_189:\n        /* \"#utility.yul\":10339:10353   */\n      pop\n        /* \"#utility.yul\":10635:10638   */\n      dup6\n        /* \"#utility.yul\":10628:10638   */\n      swap4\n      pop\n        /* \"#utility.yul\":10046:10644   */\n      pop\n      pop\n      pop\n        /* \"#utility.yul\":9932:10644   */\n      swap3\n      swap2\n      pop\n      pop\n      jump\t// out\n        /* \"#utility.yul\":10680:11412   */\n    tag_193:\n        /* \"#utility.yul\":10799:10802   */\n      0x00\n        /* \"#utility.yul\":10828:10882   */\n      tag_195\n        /* \"#utility.yul\":10876:10881   */\n      dup3\n        /* \"#utility.yul\":10828:10882   */\n      tag_183\n      jump\t// in\n    tag_195:\n        /* \"#utility.yul\":10898:10984   */\n      tag_196\n        /* \"#utility.yul\":10977:10983   */\n      dup2\n        /* \"#utility.yul\":10972:10975   */\n      dup6\n        /* \"#utility.yul\":10898:10984   */\n      tag_169\n      jump\t// in\n    tag_196:\n        /* \"#utility.yul\":10891:10984   */\n      swap4\n      pop\n        /* \"#utility.yul\":11008:11064   */\n      tag_197\n        /* \"#utility.yul\":11058:11063   */\n      dup4\n        /* \"#utility.yul\":11008:11064   */\n      tag_186\n      jump\t// in\n    tag_197:\n        /* \"#utility.yul\":11087:11094   */\n      dup1\n        /* \"#utility.yul\":11118:11119   */\n      0x00\n        /* \"#utility.yul\":11103:11387   */\n    tag_198:\n        /* \"#utility.yul\":11128:11134   */\n      dup4\n        /* \"#utility.yul\":11125:11126   */\n      dup2\n        /* \"#utility.yul\":11122:11135   */\n      lt\n        /* \"#utility.yul\":11103:11387   */\n      iszero\n      tag_200\n      jumpi\n        /* \"#utility.yul\":11204:11210   */\n      dup2\n        /* \"#utility.yul\":11198:11211   */\n      mload\n        /* \"#utility.yul\":11231:11294   */\n      tag_201\n        /* \"#utility.yul\":11290:11293   */\n      dup9\n        /* \"#utility.yul\":11275:11288   */\n      dup3\n        /* \"#utility.yul\":11231:11294   */\n      tag_145\n      jump\t// in\n    tag_201:\n        /* \"#utility.yul\":11224:11294   */\n      swap8\n      pop\n        /* \"#utility.yul\":11317:11377   */\n      tag_202\n        /* \"#utility.yul\":11370:11376   */\n      dup4\n        /* \"#utility.yul\":11317:11377   */\n      tag_192\n      jump\t// in\n    tag_202:\n        /* \"#utility.yul\":11307:11377   */\n      swap3\n      pop\n        /* \"#utility.yul\":11163:11387   */\n      pop\n        /* \"#utility.yul\":11150:11151   */\n      0x01\n        /* \"#utility.yul\":11147:11148   */\n      dup2\n        /* \"#utility.yul\":11143:11152   */\n      add\n        /* \"#utility.yul\":11138:11152   */\n      swap1\n      pop\n        /* \"#utility.yul\":11103:11387   */\n      jump(tag_198)\n    tag_200:\n        /* \"#utility.yul\":11107:11121   */\n      pop\n        /* \"#utility.yul\":11403:11406   */\n      dup6\n        /* \"#utility.yul\":11396:11406   */\n      swap4\n      pop\n        /* \"#utility.yul\":10804:11412   */\n      pop\n      pop\n      pop\n        /* \"#utility.yul\":10680:11412   */\n      swap3\n      swap2\n      pop\n      pop\n      jump\t// out\n        /* \"#utility.yul\":11418:11778   */\n    tag_203:\n        /* \"#utility.yul\":11504:11507   */\n      0x00\n        /* \"#utility.yul\":11532:11570   */\n      tag_205\n        /* \"#utility.yul\":11564:11569   */\n      dup3\n        /* \"#utility.yul\":11532:11570   */\n      tag_206\n      jump\t// in\n    tag_205:\n        /* \"#utility.yul\":11586:11656   */\n      tag_207\n        /* \"#utility.yul\":11649:11655   */\n      dup2\n        /* \"#utility.yul\":11644:11647   */\n      dup6\n        /* \"#utility.yul\":11586:11656   */\n      tag_208\n      jump\t// in\n    tag_207:\n        /* \"#utility.yul\":11579:11656   */\n      swap4\n      pop\n        /* \"#utility.yul\":11665:11717   */\n      tag_209\n        /* \"#utility.yul\":11710:11716   */\n      dup2\n        /* \"#utility.yul\":11705:11708   */\n      dup6\n        /* \"#utility.yul\":11698:11702   */\n      0x20\n        /* \"#utility.yul\":11691:11696   */\n      dup7\n        /* \"#utility.yul\":11687:11703   */\n      add\n        /* \"#utility.yul\":11665:11717   */\n      tag_210\n      jump\t// in\n    tag_209:\n        /* \"#utility.yul\":11742:11771   */\n      tag_211\n        /* \"#utility.yul\":11764:11770   */\n      dup2\n        /* \"#utility.yul\":11742:11771   */\n      tag_212\n      jump\t// in\n    tag_211:\n        /* \"#utility.yul\":11737:11740   */\n      dup5\n        /* \"#utility.yul\":11733:11772   */\n      add\n        /* \"#utility.yul\":11726:11772   */\n      swap2\n      pop\n        /* \"#utility.yul\":11508:11778   */\n      pop\n        /* \"#utility.yul\":11418:11778   */\n      swap3\n      swap2\n      pop\n      pop\n      jump\t// out\n        /* \"#utility.yul\":11808:12092   */\n    tag_213:\n        /* \"#utility.yul\":11896:11899   */\n      0x00\n        /* \"#utility.yul\":11917:11978   */\n      tag_215\n        /* \"#utility.yul\":11971:11977   */\n      dup4\n        /* \"#utility.yul\":11966:11969   */\n      dup6\n        /* \"#utility.yul\":11917:11978   */\n      tag_216\n      jump\t// in\n    tag_215:\n        /* \"#utility.yul\":11910:11978   */\n      swap4\n      pop\n        /* \"#utility.yul\":11988:12031   */\n      tag_217\n        /* \"#utility.yul\":12024:12030   */\n      dup4\n        /* \"#utility.yul\":12019:12022   */\n      dup6\n        /* \"#utility.yul\":12012:12017   */\n      dup5\n        /* \"#utility.yul\":11988:12031   */\n      tag_57\n      jump\t// in\n    tag_217:\n        /* \"#utility.yul\":12056:12085   */\n      tag_218\n        /* \"#utility.yul\":12078:12084   */\n      dup4\n        /* \"#utility.yul\":12056:12085   */\n      tag_212\n      jump\t// in\n    tag_218:\n        /* \"#utility.yul\":12051:12054   */\n      dup5\n        /* \"#utility.yul\":12047:12086   */\n      add\n        /* \"#utility.yul\":12040:12086   */\n      swap1\n      pop\n        /* \"#utility.yul\":11808:12092   */\n      swap4\n      swap3\n      pop\n      pop\n      pop\n      jump\t// out\n        /* \"#utility.yul\":12098:12442   */\n    tag_219:\n        /* \"#utility.yul\":12176:12179   */\n      0x00\n        /* \"#utility.yul\":12204:12243   */\n      tag_221\n        /* \"#utility.yul\":12237:12242   */\n      dup3\n        /* \"#utility.yul\":12204:12243   */\n      tag_222\n      jump\t// in\n    tag_221:\n        /* \"#utility.yul\":12259:12320   */\n      tag_223\n        /* \"#utility.yul\":12313:12319   */\n      dup2\n        /* \"#utility.yul\":12308:12311   */\n      dup6\n        /* \"#utility.yul\":12259:12320   */\n      tag_216\n      jump\t// in\n    tag_223:\n        /* \"#utility.yul\":12252:12320   */\n      swap4\n      pop\n        /* \"#utility.yul\":12329:12381   */\n      tag_224\n        /* \"#utility.yul\":12374:12380   */\n      dup2\n        /* \"#utility.yul\":12369:12372   */\n      dup6\n        /* \"#utility.yul\":12362:12366   */\n      0x20\n        /* \"#utility.yul\":12355:12360   */\n      dup7\n        /* \"#utility.yul\":12351:12367   */\n      add\n        /* \"#utility.yul\":12329:12381   */\n      tag_210\n      jump\t// in\n    tag_224:\n        /* \"#utility.yul\":12406:12435   */\n      tag_225\n        /* \"#utility.yul\":12428:12434   */\n      dup2\n        /* \"#utility.yul\":12406:12435   */\n      tag_212\n      jump\t// in\n    tag_225:\n        /* \"#utility.yul\":12401:12404   */\n      dup5\n        /* \"#utility.yul\":12397:12436   */\n      add\n        /* \"#utility.yul\":12390:12436   */\n      swap2\n      pop\n        /* \"#utility.yul\":12180:12442   */\n      pop\n        /* \"#utility.yul\":12098:12442   */\n      swap3\n      swap2\n      pop\n      pop\n      jump\t// out\n        /* \"#utility.yul\":12518:13366   */\n    tag_226:\n        /* \"#utility.yul\":12625:12628   */\n      0x00\n        /* \"#utility.yul\":12661:12665   */\n      0x40\n        /* \"#utility.yul\":12656:12659   */\n      dup4\n        /* \"#utility.yul\":12652:12666   */\n      add\n        /* \"#utility.yul\":12745:12807   */\n      tag_228\n        /* \"#utility.yul\":12801:12805   */\n      0x00\n        /* \"#utility.yul\":12794:12799   */\n      dup5\n        /* \"#utility.yul\":12790:12806   */\n      add\n        /* \"#utility.yul\":12783:12788   */\n      dup5\n        /* \"#utility.yul\":12745:12807   */\n      tag_229\n      jump\t// in\n    tag_228:\n        /* \"#utility.yul\":12854:12857   */\n      dup6\n        /* \"#utility.yul\":12848:12852   */\n      dup4\n        /* \"#utility.yul\":12844:12858   */\n      sub\n        /* \"#utility.yul\":12837:12841   */\n      0x00\n        /* \"#utility.yul\":12832:12835   */\n      dup8\n        /* \"#utility.yul\":12828:12842   */\n      add\n        /* \"#utility.yul\":12821:12859   */\n      mstore\n        /* \"#utility.yul\":12880:12969   */\n      tag_230\n        /* \"#utility.yul\":12964:12968   */\n      dup4\n        /* \"#utility.yul\":12950:12962   */\n      dup3\n        /* \"#utility.yul\":12936:12948   */\n      dup5\n        /* \"#utility.yul\":12880:12969   */\n      tag_213\n      jump\t// in\n    tag_230:\n        /* \"#utility.yul\":12872:12969   */\n      swap3\n      pop\n        /* \"#utility.yul\":12676:12980   */\n      pop\n      pop\n        /* \"#utility.yul\":13059:13136   */\n      tag_231\n        /* \"#utility.yul\":13130:13134   */\n      0x20\n        /* \"#utility.yul\":13123:13128   */\n      dup5\n        /* \"#utility.yul\":13119:13135   */\n      add\n        /* \"#utility.yul\":13112:13117   */\n      dup5\n        /* \"#utility.yul\":13059:13136   */\n      tag_232\n      jump\t// in\n    tag_231:\n        /* \"#utility.yul\":13183:13186   */\n      dup6\n        /* \"#utility.yul\":13177:13181   */\n      dup4\n        /* \"#utility.yul\":13173:13187   */\n      sub\n        /* \"#utility.yul\":13166:13170   */\n      0x20\n        /* \"#utility.yul\":13161:13164   */\n      dup8\n        /* \"#utility.yul\":13157:13171   */\n      add\n        /* \"#utility.yul\":13150:13188   */\n      mstore\n        /* \"#utility.yul\":13209:13328   */\n      tag_233\n        /* \"#utility.yul\":13323:13327   */\n      dup4\n        /* \"#utility.yul\":13309:13321   */\n      dup3\n        /* \"#utility.yul\":13295:13307   */\n      dup5\n        /* \"#utility.yul\":13209:13328   */\n      tag_158\n      jump\t// in\n    tag_233:\n        /* \"#utility.yul\":13201:13328   */\n      swap3\n      pop\n        /* \"#utility.yul\":12990:13339   */\n      pop\n      pop\n        /* \"#utility.yul\":13356:13360   */\n      dup1\n        /* \"#utility.yul\":13349:13360   */\n      swap2\n      pop\n        /* \"#utility.yul\":12630:13366   */\n      pop\n        /* \"#utility.yul\":12518:13366   */\n      swap3\n      swap2\n      pop\n      pop\n      jump\t// out\n        /* \"#utility.yul\":13442:14135   */\n    tag_234:\n        /* \"#utility.yul\":13547:13550   */\n      0x00\n        /* \"#utility.yul\":13583:13587   */\n      0x40\n        /* \"#utility.yul\":13578:13581   */\n      dup4\n        /* \"#utility.yul\":13574:13588   */\n      add\n        /* \"#utility.yul\":13670:13674   */\n      0x00\n        /* \"#utility.yul\":13663:13668   */\n      dup4\n        /* \"#utility.yul\":13659:13675   */\n      add\n        /* \"#utility.yul\":13653:13676   */\n      mload\n        /* \"#utility.yul\":13723:13726   */\n      dup5\n        /* \"#utility.yul\":13717:13721   */\n      dup3\n        /* \"#utility.yul\":13713:13727   */\n      sub\n        /* \"#utility.yul\":13706:13710   */\n      0x00\n        /* \"#utility.yul\":13701:13704   */\n      dup7\n        /* \"#utility.yul\":13697:13711   */\n      add\n        /* \"#utility.yul\":13690:13728   */\n      mstore\n        /* \"#utility.yul\":13749:13822   */\n      tag_236\n        /* \"#utility.yul\":13817:13821   */\n      dup3\n        /* \"#utility.yul\":13803:13815   */\n      dup3\n        /* \"#utility.yul\":13749:13822   */\n      tag_219\n      jump\t// in\n    tag_236:\n        /* \"#utility.yul\":13741:13822   */\n      swap2\n      pop\n        /* \"#utility.yul\":13598:13833   */\n      pop\n        /* \"#utility.yul\":13915:13919   */\n      0x20\n        /* \"#utility.yul\":13908:13913   */\n      dup4\n        /* \"#utility.yul\":13904:13920   */\n      add\n        /* \"#utility.yul\":13898:13921   */\n      mload\n        /* \"#utility.yul\":13968:13971   */\n      dup5\n        /* \"#utility.yul\":13962:13966   */\n      dup3\n        /* \"#utility.yul\":13958:13972   */\n      sub\n        /* \"#utility.yul\":13951:13955   */\n      0x20\n        /* \"#utility.yul\":13946:13949   */\n      dup7\n        /* \"#utility.yul\":13942:13956   */\n      add\n        /* \"#utility.yul\":13935:13973   */\n      mstore\n        /* \"#utility.yul\":13994:14097   */\n      tag_237\n        /* \"#utility.yul\":14092:14096   */\n      dup3\n        /* \"#utility.yul\":14078:14090   */\n      dup3\n        /* \"#utility.yul\":13994:14097   */\n      tag_180\n      jump\t// in\n    tag_237:\n        /* \"#utility.yul\":13986:14097   */\n      swap2\n      pop\n        /* \"#utility.yul\":13843:14108   */\n      pop\n        /* \"#utility.yul\":14125:14129   */\n      dup1\n        /* \"#utility.yul\":14118:14129   */\n      swap2\n      pop\n        /* \"#utility.yul\":13552:14135   */\n      pop\n        /* \"#utility.yul\":13442:14135   */\n      swap3\n      swap2\n      pop\n      pop\n      jump\t// out\n        /* \"#utility.yul\":14141:14249   */\n    tag_148:\n        /* \"#utility.yul\":14218:14242   */\n      tag_239\n        /* \"#utility.yul\":14236:14241   */\n      dup2\n        /* \"#utility.yul\":14218:14242   */\n      tag_240\n      jump\t// in\n    tag_239:\n        /* \"#utility.yul\":14213:14216   */\n      dup3\n        /* \"#utility.yul\":14206:14243   */\n      mstore\n        /* \"#utility.yul\":14141:14249   */\n      pop\n      pop\n      jump\t// out\n        /* \"#utility.yul\":14255:14373   */\n    tag_241:\n        /* \"#utility.yul\":14342:14366   */\n      tag_243\n        /* \"#utility.yul\":14360:14365   */\n      dup2\n        /* \"#utility.yul\":14342:14366   */\n      tag_240\n      jump\t// in\n    tag_243:\n        /* \"#utility.yul\":14337:14340   */\n      dup3\n        /* \"#utility.yul\":14330:14367   */\n      mstore\n        /* \"#utility.yul\":14255:14373   */\n      pop\n      pop\n      jump\t// out\n        /* \"#utility.yul\":14379:14536   */\n    tag_244:\n        /* \"#utility.yul\":14484:14529   */\n      tag_246\n        /* \"#utility.yul\":14504:14528   */\n      tag_247\n        /* \"#utility.yul\":14522:14527   */\n      dup3\n        /* \"#utility.yul\":14504:14528   */\n      tag_240\n      jump\t// in\n    tag_247:\n        /* \"#utility.yul\":14484:14529   */\n      tag_248\n      jump\t// in\n    tag_246:\n        /* \"#utility.yul\":14479:14482   */\n      dup3\n        /* \"#utility.yul\":14472:14530   */\n      mstore\n        /* \"#utility.yul\":14379:14536   */\n      pop\n      pop\n      jump\t// out\n        /* \"#utility.yul\":14542:15179   */\n    tag_27:\n        /* \"#utility.yul\":14770:14773   */\n      0x00\n        /* \"#utility.yul\":14785:14860   */\n      tag_250\n        /* \"#utility.yul\":14856:14859   */\n      dup3\n        /* \"#utility.yul\":14847:14853   */\n      dup8\n        /* \"#utility.yul\":14785:14860   */\n      tag_244\n      jump\t// in\n    tag_250:\n        /* \"#utility.yul\":14885:14887   */\n      0x20\n        /* \"#utility.yul\":14880:14883   */\n      dup3\n        /* \"#utility.yul\":14876:14888   */\n      add\n        /* \"#utility.yul\":14869:14888   */\n      swap2\n      pop\n        /* \"#utility.yul\":14898:14973   */\n      tag_251\n        /* \"#utility.yul\":14969:14972   */\n      dup3\n        /* \"#utility.yul\":14960:14966   */\n      dup7\n        /* \"#utility.yul\":14898:14973   */\n      tag_153\n      jump\t// in\n    tag_251:\n        /* \"#utility.yul\":14998:15000   */\n      0x14\n        /* \"#utility.yul\":14993:14996   */\n      dup3\n        /* \"#utility.yul\":14989:15001   */\n      add\n        /* \"#utility.yul\":14982:15001   */\n      swap2\n      pop\n        /* \"#utility.yul\":15018:15153   */\n      tag_252\n        /* \"#utility.yul\":15149:15152   */\n      dup3\n        /* \"#utility.yul\":15140:15146   */\n      dup5\n        /* \"#utility.yul\":15132:15138   */\n      dup7\n        /* \"#utility.yul\":15018:15153   */\n      tag_173\n      jump\t// in\n    tag_252:\n        /* \"#utility.yul\":15011:15153   */\n      swap2\n      pop\n        /* \"#utility.yul\":15170:15173   */\n      dup2\n        /* \"#utility.yul\":15163:15173   */\n      swap1\n      pop\n        /* \"#utility.yul\":14542:15179   */\n      swap6\n      swap5\n      pop\n      pop\n      pop\n      pop\n      pop\n      jump\t// out\n        /* \"#utility.yul\":15185:15494   */\n    tag_11:\n        /* \"#utility.yul\":15296:15300   */\n      0x00\n        /* \"#utility.yul\":15334:15336   */\n      0x20\n        /* \"#utility.yul\":15323:15332   */\n      dup3\n        /* \"#utility.yul\":15319:15337   */\n      add\n        /* \"#utility.yul\":15311:15337   */\n      swap1\n      pop\n        /* \"#utility.yul\":15383:15392   */\n      dup2\n        /* \"#utility.yul\":15377:15381   */\n      dup2\n        /* \"#utility.yul\":15373:15393   */\n      sub\n        /* \"#utility.yul\":15369:15370   */\n      0x00\n        /* \"#utility.yul\":15358:15367   */\n      dup4\n        /* \"#utility.yul\":15354:15371   */\n      add\n        /* \"#utility.yul\":15347:15394   */\n      mstore\n        /* \"#utility.yul\":15411:15487   */\n      tag_254\n        /* \"#utility.yul\":15482:15486   */\n      dup2\n        /* \"#utility.yul\":15473:15479   */\n      dup5\n        /* \"#utility.yul\":15411:15487   */\n      tag_203\n      jump\t// in\n    tag_254:\n        /* \"#utility.yul\":15403:15487   */\n      swap1\n      pop\n        /* \"#utility.yul\":15185:15494   */\n      swap3\n      swap2\n      pop\n      pop\n      jump\t// out\n        /* \"#utility.yul\":15500:16351   */\n    tag_24:\n        /* \"#utility.yul\":15775:15779   */\n      0x00\n        /* \"#utility.yul\":15813:15816   */\n      0x80\n        /* \"#utility.yul\":15802:15811   */\n      dup3\n        /* \"#utility.yul\":15798:15817   */\n      add\n        /* \"#utility.yul\":15790:15817   */\n      swap1\n      pop\n        /* \"#utility.yul\":15827:15898   */\n      tag_256\n        /* \"#utility.yul\":15895:15896   */\n      0x00\n        /* \"#utility.yul\":15884:15893   */\n      dup4\n        /* \"#utility.yul\":15880:15897   */\n      add\n        /* \"#utility.yul\":15871:15877   */\n      dup9\n        /* \"#utility.yul\":15827:15898   */\n      tag_241\n      jump\t// in\n    tag_256:\n        /* \"#utility.yul\":15908:15980   */\n      tag_257\n        /* \"#utility.yul\":15976:15978   */\n      0x20\n        /* \"#utility.yul\":15965:15974   */\n      dup4\n        /* \"#utility.yul\":15961:15979   */\n      add\n        /* \"#utility.yul\":15952:15958   */\n      dup8\n        /* \"#utility.yul\":15908:15980   */\n      tag_149\n      jump\t// in\n    tag_257:\n        /* \"#utility.yul\":16027:16036   */\n      dup2\n        /* \"#utility.yul\":16021:16025   */\n      dup2\n        /* \"#utility.yul\":16017:16037   */\n      sub\n        /* \"#utility.yul\":16012:16014   */\n      0x40\n        /* \"#utility.yul\":16001:16010   */\n      dup4\n        /* \"#utility.yul\":15997:16015   */\n      add\n        /* \"#utility.yul\":15990:16038   */\n      mstore\n        /* \"#utility.yul\":16055:16173   */\n      tag_258\n        /* \"#utility.yul\":16168:16172   */\n      dup2\n        /* \"#utility.yul\":16159:16165   */\n      dup6\n        /* \"#utility.yul\":16151:16157   */\n      dup8\n        /* \"#utility.yul\":16055:16173   */\n      tag_166\n      jump\t// in\n    tag_258:\n        /* \"#utility.yul\":16047:16173   */\n      swap1\n      pop\n        /* \"#utility.yul\":16220:16229   */\n      dup2\n        /* \"#utility.yul\":16214:16218   */\n      dup2\n        /* \"#utility.yul\":16210:16230   */\n      sub\n        /* \"#utility.yul\":16205:16207   */\n      0x60\n        /* \"#utility.yul\":16194:16203   */\n      dup4\n        /* \"#utility.yul\":16190:16208   */\n      add\n        /* \"#utility.yul\":16183:16231   */\n      mstore\n        /* \"#utility.yul\":16248:16344   */\n      tag_259\n        /* \"#utility.yul\":16339:16343   */\n      dup2\n        /* \"#utility.yul\":16330:16336   */\n      dup5\n        /* \"#utility.yul\":16248:16344   */\n      tag_226\n      jump\t// in\n    tag_259:\n        /* \"#utility.yul\":16240:16344   */\n      swap1\n      pop\n        /* \"#utility.yul\":15500:16351   */\n      swap7\n      swap6\n      pop\n      pop\n      pop\n      pop\n      pop\n      pop\n      jump\t// out\n        /* \"#utility.yul\":16357:17184   */\n    tag_21:\n        /* \"#utility.yul\":16620:16624   */\n      0x00\n        /* \"#utility.yul\":16658:16661   */\n      0x80\n        /* \"#utility.yul\":16647:16656   */\n      dup3\n        /* \"#utility.yul\":16643:16662   */\n      add\n        /* \"#utility.yul\":16635:16662   */\n      swap1\n      pop\n        /* \"#utility.yul\":16672:16743   */\n      tag_261\n        /* \"#utility.yul\":16740:16741   */\n      0x00\n        /* \"#utility.yul\":16729:16738   */\n      dup4\n        /* \"#utility.yul\":16725:16742   */\n      add\n        /* \"#utility.yul\":16716:16722   */\n      dup8\n        /* \"#utility.yul\":16672:16743   */\n      tag_241\n      jump\t// in\n    tag_261:\n        /* \"#utility.yul\":16753:16825   */\n      tag_262\n        /* \"#utility.yul\":16821:16823   */\n      0x20\n        /* \"#utility.yul\":16810:16819   */\n      dup4\n        /* \"#utility.yul\":16806:16824   */\n      add\n        /* \"#utility.yul\":16797:16803   */\n      dup7\n        /* \"#utility.yul\":16753:16825   */\n      tag_149\n      jump\t// in\n    tag_262:\n        /* \"#utility.yul\":16872:16881   */\n      dup2\n        /* \"#utility.yul\":16866:16870   */\n      dup2\n        /* \"#utility.yul\":16862:16882   */\n      sub\n        /* \"#utility.yul\":16857:16859   */\n      0x40\n        /* \"#utility.yul\":16846:16855   */\n      dup4\n        /* \"#utility.yul\":16842:16860   */\n      add\n        /* \"#utility.yul\":16835:16883   */\n      mstore\n        /* \"#utility.yul\":16900:17008   */\n      tag_263\n        /* \"#utility.yul\":17003:17007   */\n      dup2\n        /* \"#utility.yul\":16994:17000   */\n      dup6\n        /* \"#utility.yul\":16900:17008   */\n      tag_193\n      jump\t// in\n    tag_263:\n        /* \"#utility.yul\":16892:17008   */\n      swap1\n      pop\n        /* \"#utility.yul\":17055:17064   */\n      dup2\n        /* \"#utility.yul\":17049:17053   */\n      dup2\n        /* \"#utility.yul\":17045:17065   */\n      sub\n        /* \"#utility.yul\":17040:17042   */\n      0x60\n        /* \"#utility.yul\":17029:17038   */\n      dup4\n        /* \"#utility.yul\":17025:17043   */\n      add\n        /* \"#utility.yul\":17018:17066   */\n      mstore\n        /* \"#utility.yul\":17083:17177   */\n      tag_264\n        /* \"#utility.yul\":17172:17176   */\n      dup2\n        /* \"#utility.yul\":17163:17169   */\n      dup5\n        /* \"#utility.yul\":17083:17177   */\n      tag_234\n      jump\t// in\n    tag_264:\n        /* \"#utility.yul\":17075:17177   */\n      swap1\n      pop\n        /* \"#utility.yul\":16357:17184   */\n      swap6\n      swap5\n      pop\n      pop\n      pop\n      pop\n      pop\n      jump\t// out\n        /* \"#utility.yul\":17190:17319   */\n    tag_39:\n        /* \"#utility.yul\":17224:17230   */\n      0x00\n        /* \"#utility.yul\":17251:17271   */\n      tag_266\n      tag_267\n      jump\t// in\n    tag_266:\n        /* \"#utility.yul\":17241:17271   */\n      swap1\n      pop\n        /* \"#utility.yul\":17280:17313   */\n      tag_268\n        /* \"#utility.yul\":17308:17312   */\n      dup3\n        /* \"#utility.yul\":17300:17306   */\n      dup3\n        /* \"#utility.yul\":17280:17313   */\n      tag_269\n      jump\t// in\n    tag_268:\n        /* \"#utility.yul\":17190:17319   */\n      swap2\n      swap1\n      pop\n      jump\t// out\n        /* \"#utility.yul\":17325:17400   */\n    tag_267:\n        /* \"#utility.yul\":17358:17364   */\n      0x00\n        /* \"#utility.yul\":17391:17393   */\n      0x40\n        /* \"#utility.yul\":17385:17394   */\n      mload\n        /* \"#utility.yul\":17375:17394   */\n      swap1\n      pop\n        /* \"#utility.yul\":17325:17400   */\n      swap1\n      jump\t// out\n        /* \"#utility.yul\":17406:17717   */\n    tag_38:\n        /* \"#utility.yul\":17483:17487   */\n      0x00\n        /* \"#utility.yul\":17573:17591   */\n      0xffffffffffffffff\n        /* \"#utility.yul\":17565:17571   */\n      dup3\n        /* \"#utility.yul\":17562:17592   */\n      gt\n        /* \"#utility.yul\":17559:17615   */\n      iszero\n      tag_272\n      jumpi\n        /* \"#utility.yul\":17595:17613   */\n      tag_273\n      tag_274\n      jump\t// in\n    tag_273:\n        /* \"#utility.yul\":17559:17615   */\n    tag_272:\n        /* \"#utility.yul\":17645:17649   */\n      0x20\n        /* \"#utility.yul\":17637:17643   */\n      dup3\n        /* \"#utility.yul\":17633:17650   */\n      mul\n        /* \"#utility.yul\":17625:17650   */\n      swap1\n      pop\n        /* \"#utility.yul\":17705:17709   */\n      0x20\n        /* \"#utility.yul\":17699:17703   */\n      dup2\n        /* \"#utility.yul\":17695:17710   */\n      add\n        /* \"#utility.yul\":17687:17710   */\n      swap1\n      pop\n        /* \"#utility.yul\":17406:17717   */\n      swap2\n      swap1\n      pop\n      jump\t// out\n        /* \"#utility.yul\":17723:18031   */\n    tag_52:\n        /* \"#utility.yul\":17785:17789   */\n      0x00\n        /* \"#utility.yul\":17875:17893   */\n      0xffffffffffffffff\n        /* \"#utility.yul\":17867:17873   */\n      dup3\n        /* \"#utility.yul\":17864:17894   */\n      gt\n        /* \"#utility.yul\":17861:17917   */\n      iszero\n      tag_276\n      jumpi\n        /* \"#utility.yul\":17897:17915   */\n      tag_277\n      tag_274\n      jump\t// in\n    tag_277:\n        /* \"#utility.yul\":17861:17917   */\n    tag_276:\n        /* \"#utility.yul\":17935:17964   */\n      tag_278\n        /* \"#utility.yul\":17957:17963   */\n      dup3\n        /* \"#utility.yul\":17935:17964   */\n      tag_212\n      jump\t// in\n    tag_278:\n        /* \"#utility.yul\":17927:17964   */\n      swap1\n      pop\n        /* \"#utility.yul\":18019:18023   */\n      0x20\n        /* \"#utility.yul\":18013:18017   */\n      dup2\n        /* \"#utility.yul\":18009:18024   */\n      add\n        /* \"#utility.yul\":18001:18024   */\n      swap1\n      pop\n        /* \"#utility.yul\":17723:18031   */\n      swap2\n      swap1\n      pop\n      jump\t// out\n        /* \"#utility.yul\":18037:18169   */\n    tag_186:\n        /* \"#utility.yul\":18104:18108   */\n      0x00\n        /* \"#utility.yul\":18127:18130   */\n      dup2\n        /* \"#utility.yul\":18119:18130   */\n      swap1\n      pop\n        /* \"#utility.yul\":18157:18161   */\n      0x20\n        /* \"#utility.yul\":18152:18155   */\n      dup3\n        /* \"#utility.yul\":18148:18162   */\n      add\n        /* \"#utility.yul\":18140:18162   */\n      swap1\n      pop\n        /* \"#utility.yul\":18037:18169   */\n      swap2\n      swap1\n      pop\n      jump\t// out\n        /* \"#utility.yul\":18175:18289   */\n    tag_183:\n        /* \"#utility.yul\":18242:18248   */\n      0x00\n        /* \"#utility.yul\":18276:18281   */\n      dup2\n        /* \"#utility.yul\":18270:18282   */\n      mload\n        /* \"#utility.yul\":18260:18282   */\n      swap1\n      pop\n        /* \"#utility.yul\":18175:18289   */\n      swap2\n      swap1\n      pop\n      jump\t// out\n        /* \"#utility.yul\":18295:18393   */\n    tag_206:\n        /* \"#utility.yul\":18346:18352   */\n      0x00\n        /* \"#utility.yul\":18380:18385   */\n      dup2\n        /* \"#utility.yul\":18374:18386   */\n      mload\n        /* \"#utility.yul\":18364:18386   */\n      swap1\n      pop\n        /* \"#utility.yul\":18295:18393   */\n      swap2\n      swap1\n      pop\n      jump\t// out\n        /* \"#utility.yul\":18399:18498   */\n    tag_222:\n        /* \"#utility.yul\":18451:18457   */\n      0x00\n        /* \"#utility.yul\":18485:18490   */\n      dup2\n        /* \"#utility.yul\":18479:18491   */\n      mload\n        /* \"#utility.yul\":18469:18491   */\n      swap1\n      pop\n        /* \"#utility.yul\":18399:18498   */\n      swap2\n      swap1\n      pop\n      jump\t// out\n        /* \"#utility.yul\":18504:18617   */\n    tag_192:\n        /* \"#utility.yul\":18574:18578   */\n      0x00\n        /* \"#utility.yul\":18606:18610   */\n      0x20\n        /* \"#utility.yul\":18601:18604   */\n      dup3\n        /* \"#utility.yul\":18597:18611   */\n      add\n        /* \"#utility.yul\":18589:18611   */\n      swap1\n      pop\n        /* \"#utility.yul\":18504:18617   */\n      swap2\n      swap1\n      pop\n      jump\t// out\n        /* \"#utility.yul\":18623:18797   */\n    tag_161:\n        /* \"#utility.yul\":18712:18723   */\n      0x00\n        /* \"#utility.yul\":18746:18752   */\n      dup3\n        /* \"#utility.yul\":18741:18744   */\n      dup3\n        /* \"#utility.yul\":18734:18753   */\n      mstore\n        /* \"#utility.yul\":18786:18790   */\n      0x20\n        /* \"#utility.yul\":18781:18784   */\n      dup3\n        /* \"#utility.yul\":18777:18791   */\n      add\n        /* \"#utility.yul\":18762:18791   */\n      swap1\n      pop\n        /* \"#utility.yul\":18623:18797   */\n      swap3\n      swap2\n      pop\n      pop\n      jump\t// out\n        /* \"#utility.yul\":18803:18987   */\n    tag_169:\n        /* \"#utility.yul\":18902:18913   */\n      0x00\n        /* \"#utility.yul\":18936:18942   */\n      dup3\n        /* \"#utility.yul\":18931:18934   */\n      dup3\n        /* \"#utility.yul\":18924:18943   */\n      mstore\n        /* \"#utility.yul\":18976:18980   */\n      0x20\n        /* \"#utility.yul\":18971:18974   */\n      dup3\n        /* \"#utility.yul\":18967:18981   */\n      add\n        /* \"#utility.yul\":18952:18981   */\n      swap1\n      pop\n        /* \"#utility.yul\":18803:18987   */\n      swap3\n      swap2\n      pop\n      pop\n      jump\t// out\n        /* \"#utility.yul\":18993:19156   */\n    tag_176:\n        /* \"#utility.yul\":19110:19121   */\n      0x00\n        /* \"#utility.yul\":19147:19150   */\n      dup2\n        /* \"#utility.yul\":19132:19150   */\n      swap1\n      pop\n        /* \"#utility.yul\":18993:19156   */\n      swap3\n      swap2\n      pop\n      pop\n      jump\t// out\n        /* \"#utility.yul\":19162:19330   */\n    tag_208:\n        /* \"#utility.yul\":19245:19256   */\n      0x00\n        /* \"#utility.yul\":19279:19285   */\n      dup3\n        /* \"#utility.yul\":19274:19277   */\n      dup3\n        /* \"#utility.yul\":19267:19286   */\n      mstore\n        /* \"#utility.yul\":19319:19323   */\n      0x20\n        /* \"#utility.yul\":19314:19317   */\n      dup3\n        /* \"#utility.yul\":19310:19324   */\n      add\n        /* \"#utility.yul\":19295:19324   */\n      swap1\n      pop\n        /* \"#utility.yul\":19162:19330   */\n      swap3\n      swap2\n      pop\n      pop\n      jump\t// out\n        /* \"#utility.yul\":19336:19495   */\n    tag_216:\n        /* \"#utility.yul\":19410:19421   */\n      0x00\n        /* \"#utility.yul\":19444:19450   */\n      dup3\n        /* \"#utility.yul\":19439:19442   */\n      dup3\n        /* \"#utility.yul\":19432:19451   */\n      mstore\n        /* \"#utility.yul\":19484:19488   */\n      0x20\n        /* \"#utility.yul\":19479:19482   */\n      dup3\n        /* \"#utility.yul\":19475:19489   */\n      add\n        /* \"#utility.yul\":19460:19489   */\n      swap1\n      pop\n        /* \"#utility.yul\":19336:19495   */\n      swap3\n      swap2\n      pop\n      pop\n      jump\t// out\n        /* \"#utility.yul\":19501:20231   */\n    tag_232:\n        /* \"#utility.yul\":19581:19586   */\n      0x00\n        /* \"#utility.yul\":19588:19594   */\n      dup1\n        /* \"#utility.yul\":19644:19647   */\n      dup4\n        /* \"#utility.yul\":19631:19648   */\n      calldataload\n        /* \"#utility.yul\":19736:19737   */\n      0x01\n        /* \"#utility.yul\":19730:19734   */\n      0x20\n        /* \"#utility.yul\":19726:19738   */\n      sub\n        /* \"#utility.yul\":19715:19723   */\n      dup5\n        /* \"#utility.yul\":19699:19713   */\n      calldatasize\n        /* \"#utility.yul\":19695:19724   */\n      sub\n        /* \"#utility.yul\":19691:19739   */\n      sub\n        /* \"#utility.yul\":19671:19689   */\n      dup2\n        /* \"#utility.yul\":19667:19740   */\n      slt\n        /* \"#utility.yul\":19657:19825   */\n      tag_290\n      jumpi\n        /* \"#utility.yul\":19744:19823   */\n      tag_291\n      tag_292\n      jump\t// in\n    tag_291:\n        /* \"#utility.yul\":19657:19825   */\n    tag_290:\n        /* \"#utility.yul\":19867:19875   */\n      dup4\n        /* \"#utility.yul\":19847:19865   */\n      dup2\n        /* \"#utility.yul\":19843:19876   */\n      add\n        /* \"#utility.yul\":19834:19876   */\n      swap3\n      pop\n        /* \"#utility.yul\":19909:19914   */\n      dup3\n        /* \"#utility.yul\":19896:19915   */\n      calldataload\n        /* \"#utility.yul\":19886:19915   */\n      swap2\n      pop\n        /* \"#utility.yul\":19944:19948   */\n      0x20\n        /* \"#utility.yul\":19937:19942   */\n      dup4\n        /* \"#utility.yul\":19933:19949   */\n      add\n        /* \"#utility.yul\":19924:19949   */\n      swap3\n      pop\n        /* \"#utility.yul\":19972:19990   */\n      0xffffffffffffffff\n        /* \"#utility.yul\":19964:19970   */\n      dup3\n        /* \"#utility.yul\":19961:19991   */\n      gt\n        /* \"#utility.yul\":19958:20075   */\n      iszero\n      tag_293\n      jumpi\n        /* \"#utility.yul\":19994:20073   */\n      tag_294\n      tag_295\n      jump\t// in\n    tag_294:\n        /* \"#utility.yul\":19958:20075   */\n    tag_293:\n        /* \"#utility.yul\":20133:20137   */\n      0x20\n        /* \"#utility.yul\":20125:20131   */\n      dup3\n        /* \"#utility.yul\":20121:20138   */\n      mul\n        /* \"#utility.yul\":20105:20119   */\n      calldatasize\n        /* \"#utility.yul\":20101:20139   */\n      sub\n        /* \"#utility.yul\":20091:20099   */\n      dup5\n        /* \"#utility.yul\":20087:20140   */\n      sgt\n        /* \"#utility.yul\":20084:20224   */\n      iszero\n      tag_296\n      jumpi\n        /* \"#utility.yul\":20143:20222   */\n      tag_297\n      tag_298\n      jump\t// in\n    tag_297:\n        /* \"#utility.yul\":20084:20224   */\n    tag_296:\n        /* \"#utility.yul\":19595:20231   */\n      pop\n        /* \"#utility.yul\":19501:20231   */\n      swap3\n      pop\n      swap3\n      swap1\n      pop\n      jump\t// out\n        /* \"#utility.yul\":20237:20952   */\n    tag_229:\n        /* \"#utility.yul\":20302:20307   */\n      0x00\n        /* \"#utility.yul\":20309:20315   */\n      dup1\n        /* \"#utility.yul\":20365:20368   */\n      dup4\n        /* \"#utility.yul\":20352:20369   */\n      calldataload\n        /* \"#utility.yul\":20457:20458   */\n      0x01\n        /* \"#utility.yul\":20451:20455   */\n      0x20\n        /* \"#utility.yul\":20447:20459   */\n      sub\n        /* \"#utility.yul\":20436:20444   */\n      dup5\n        /* \"#utility.yul\":20420:20434   */\n      calldatasize\n        /* \"#utility.yul\":20416:20445   */\n      sub\n        /* \"#utility.yul\":20412:20460   */\n      sub\n        /* \"#utility.yul\":20392:20410   */\n      dup2\n        /* \"#utility.yul\":20388:20461   */\n      slt\n        /* \"#utility.yul\":20378:20546   */\n      tag_300\n      jumpi\n        /* \"#utility.yul\":20465:20544   */\n      tag_301\n      tag_292\n      jump\t// in\n    tag_301:\n        /* \"#utility.yul\":20378:20546   */\n    tag_300:\n        /* \"#utility.yul\":20588:20596   */\n      dup4\n        /* \"#utility.yul\":20568:20586   */\n      dup2\n        /* \"#utility.yul\":20564:20597   */\n      add\n        /* \"#utility.yul\":20555:20597   */\n      swap3\n      pop\n        /* \"#utility.yul\":20630:20635   */\n      dup3\n        /* \"#utility.yul\":20617:20636   */\n      calldataload\n        /* \"#utility.yul\":20607:20636   */\n      swap2\n      pop\n        /* \"#utility.yul\":20665:20669   */\n      0x20\n        /* \"#utility.yul\":20658:20663   */\n      dup4\n        /* \"#utility.yul\":20654:20670   */\n      add\n        /* \"#utility.yul\":20645:20670   */\n      swap3\n      pop\n        /* \"#utility.yul\":20693:20711   */\n      0xffffffffffffffff\n        /* \"#utility.yul\":20685:20691   */\n      dup3\n        /* \"#utility.yul\":20682:20712   */\n      gt\n        /* \"#utility.yul\":20679:20796   */\n      iszero\n      tag_302\n      jumpi\n        /* \"#utility.yul\":20715:20794   */\n      tag_303\n      tag_295\n      jump\t// in\n    tag_303:\n        /* \"#utility.yul\":20679:20796   */\n    tag_302:\n        /* \"#utility.yul\":20854:20858   */\n      0x01\n        /* \"#utility.yul\":20846:20852   */\n      dup3\n        /* \"#utility.yul\":20842:20859   */\n      mul\n        /* \"#utility.yul\":20826:20840   */\n      calldatasize\n        /* \"#utility.yul\":20822:20860   */\n      sub\n        /* \"#utility.yul\":20812:20820   */\n      dup5\n        /* \"#utility.yul\":20808:20861   */\n      sgt\n        /* \"#utility.yul\":20805:20945   */\n      iszero\n      tag_304\n      jumpi\n        /* \"#utility.yul\":20864:20943   */\n      tag_305\n      tag_298\n      jump\t// in\n    tag_305:\n        /* \"#utility.yul\":20805:20945   */\n    tag_304:\n        /* \"#utility.yul\":20316:20952   */\n      pop\n        /* \"#utility.yul\":20237:20952   */\n      swap3\n      pop\n      swap3\n      swap1\n      pop\n      jump\t// out\n        /* \"#utility.yul\":20958:21054   */\n    tag_152:\n        /* \"#utility.yul\":20995:21002   */\n      0x00\n        /* \"#utility.yul\":21024:21048   */\n      tag_307\n        /* \"#utility.yul\":21042:21047   */\n      dup3\n        /* \"#utility.yul\":21024:21048   */\n      tag_308\n      jump\t// in\n    tag_307:\n        /* \"#utility.yul\":21013:21048   */\n      swap1\n      pop\n        /* \"#utility.yul\":20958:21054   */\n      swap2\n      swap1\n      pop\n      jump\t// out\n        /* \"#utility.yul\":21060:21164   */\n    tag_309:\n        /* \"#utility.yul\":21105:21112   */\n      0x00\n        /* \"#utility.yul\":21134:21158   */\n      tag_311\n        /* \"#utility.yul\":21152:21157   */\n      dup3\n        /* \"#utility.yul\":21134:21158   */\n      tag_308\n      jump\t// in\n    tag_311:\n        /* \"#utility.yul\":21123:21158   */\n      swap1\n      pop\n        /* \"#utility.yul\":21060:21164   */\n      swap2\n      swap1\n      pop\n      jump\t// out\n        /* \"#utility.yul\":21170:21296   */\n    tag_308:\n        /* \"#utility.yul\":21207:21214   */\n      0x00\n        /* \"#utility.yul\":21247:21289   */\n      0xffffffffffffffffffffffffffffffffffffffff\n        /* \"#utility.yul\":21240:21245   */\n      dup3\n        /* \"#utility.yul\":21236:21290   */\n      and\n        /* \"#utility.yul\":21225:21290   */\n      swap1\n      pop\n        /* \"#utility.yul\":21170:21296   */\n      swap2\n      swap1\n      pop\n      jump\t// out\n        /* \"#utility.yul\":21302:21379   */\n    tag_240:\n        /* \"#utility.yul\":21339:21346   */\n      0x00\n        /* \"#utility.yul\":21368:21373   */\n      dup2\n        /* \"#utility.yul\":21357:21373   */\n      swap1\n      pop\n        /* \"#utility.yul\":21302:21379   */\n      swap2\n      swap1\n      pop\n      jump\t// out\n        /* \"#utility.yul\":21385:21539   */\n    tag_57:\n        /* \"#utility.yul\":21469:21475   */\n      dup3\n        /* \"#utility.yul\":21464:21467   */\n      dup2\n        /* \"#utility.yul\":21459:21462   */\n      dup4\n        /* \"#utility.yul\":21446:21476   */\n      calldatacopy\n        /* \"#utility.yul\":21531:21532   */\n      0x00\n        /* \"#utility.yul\":21522:21528   */\n      dup4\n        /* \"#utility.yul\":21517:21520   */\n      dup4\n        /* \"#utility.yul\":21513:21529   */\n      add\n        /* \"#utility.yul\":21506:21533   */\n      mstore\n        /* \"#utility.yul\":21385:21539   */\n      pop\n      pop\n      pop\n      jump\t// out\n        /* \"#utility.yul\":21545:21852   */\n    tag_210:\n        /* \"#utility.yul\":21613:21614   */\n      0x00\n        /* \"#utility.yul\":21623:21736   */\n    tag_316:\n        /* \"#utility.yul\":21637:21643   */\n      dup4\n        /* \"#utility.yul\":21634:21635   */\n      dup2\n        /* \"#utility.yul\":21631:21644   */\n      lt\n        /* \"#utility.yul\":21623:21736   */\n      iszero\n      tag_318\n      jumpi\n        /* \"#utility.yul\":21722:21723   */\n      dup1\n        /* \"#utility.yul\":21717:21720   */\n      dup3\n        /* \"#utility.yul\":21713:21724   */\n      add\n        /* \"#utility.yul\":21707:21725   */\n      mload\n        /* \"#utility.yul\":21703:21704   */\n      dup2\n        /* \"#utility.yul\":21698:21701   */\n      dup5\n        /* \"#utility.yul\":21694:21705   */\n      add\n        /* \"#utility.yul\":21687:21726   */\n      mstore\n        /* \"#utility.yul\":21659:21661   */\n      0x20\n        /* \"#utility.yul\":21656:21657   */\n      dup2\n        /* \"#utility.yul\":21652:21662   */\n      add\n        /* \"#utility.yul\":21647:21662   */\n      swap1\n      pop\n        /* \"#utility.yul\":21623:21736   */\n      jump(tag_316)\n    tag_318:\n        /* \"#utility.yul\":21754:21760   */\n      dup4\n        /* \"#utility.yul\":21751:21752   */\n      dup2\n        /* \"#utility.yul\":21748:21761   */\n      gt\n        /* \"#utility.yul\":21745:21846   */\n      iszero\n      tag_319\n      jumpi\n        /* \"#utility.yul\":21834:21835   */\n      0x00\n        /* \"#utility.yul\":21825:21831   */\n      dup5\n        /* \"#utility.yul\":21820:21823   */\n      dup5\n        /* \"#utility.yul\":21816:21832   */\n      add\n        /* \"#utility.yul\":21809:21836   */\n      mstore\n        /* \"#utility.yul\":21745:21846   */\n    tag_319:\n        /* \"#utility.yul\":21594:21852   */\n      pop\n        /* \"#utility.yul\":21545:21852   */\n      pop\n      pop\n      pop\n      jump\t// out\n        /* \"#utility.yul\":21858:22139   */\n    tag_269:\n        /* \"#utility.yul\":21941:21968   */\n      tag_321\n        /* \"#utility.yul\":21963:21967   */\n      dup3\n        /* \"#utility.yul\":21941:21968   */\n      tag_212\n      jump\t// in\n    tag_321:\n        /* \"#utility.yul\":21933:21939   */\n      dup2\n        /* \"#utility.yul\":21929:21969   */\n      add\n        /* \"#utility.yul\":22071:22077   */\n      dup2\n        /* \"#utility.yul\":22059:22069   */\n      dup2\n        /* \"#utility.yul\":22056:22078   */\n      lt\n        /* \"#utility.yul\":22035:22053   */\n      0xffffffffffffffff\n        /* \"#utility.yul\":22023:22033   */\n      dup3\n        /* \"#utility.yul\":22020:22054   */\n      gt\n        /* \"#utility.yul\":22017:22079   */\n      or\n        /* \"#utility.yul\":22014:22102   */\n      iszero\n      tag_322\n      jumpi\n        /* \"#utility.yul\":22082:22100   */\n      tag_323\n      tag_274\n      jump\t// in\n    tag_323:\n        /* \"#utility.yul\":22014:22102   */\n    tag_322:\n        /* \"#utility.yul\":22122:22132   */\n      dup1\n        /* \"#utility.yul\":22118:22120   */\n      0x40\n        /* \"#utility.yul\":22111:22133   */\n      mstore\n        /* \"#utility.yul\":21901:22139   */\n      pop\n        /* \"#utility.yul\":21858:22139   */\n      pop\n      pop\n      jump\t// out\n        /* \"#utility.yul\":22145:22245   */\n    tag_157:\n        /* \"#utility.yul\":22184:22191   */\n      0x00\n        /* \"#utility.yul\":22213:22239   */\n      tag_325\n        /* \"#utility.yul\":22233:22238   */\n      dup3\n        /* \"#utility.yul\":22213:22239   */\n      tag_326\n      jump\t// in\n    tag_325:\n        /* \"#utility.yul\":22202:22239   */\n      swap1\n      pop\n        /* \"#utility.yul\":22145:22245   */\n      swap2\n      swap1\n      pop\n      jump\t// out\n        /* \"#utility.yul\":22251:22345   */\n    tag_326:\n        /* \"#utility.yul\":22290:22297   */\n      0x00\n        /* \"#utility.yul\":22319:22339   */\n      tag_328\n        /* \"#utility.yul\":22333:22338   */\n      dup3\n        /* \"#utility.yul\":22319:22339   */\n      tag_329\n      jump\t// in\n    tag_328:\n        /* \"#utility.yul\":22308:22339   */\n      swap1\n      pop\n        /* \"#utility.yul\":22251:22345   */\n      swap2\n      swap1\n      pop\n      jump\t// out\n        /* \"#utility.yul\":22351:22430   */\n    tag_248:\n        /* \"#utility.yul\":22390:22397   */\n      0x00\n        /* \"#utility.yul\":22419:22424   */\n      dup2\n        /* \"#utility.yul\":22408:22424   */\n      swap1\n      pop\n        /* \"#utility.yul\":22351:22430   */\n      swap2\n      swap1\n      pop\n      jump\t// out\n        /* \"#utility.yul\":22436:22616   */\n    tag_274:\n        /* \"#utility.yul\":22484:22561   */\n      0x4e487b7100000000000000000000000000000000000000000000000000000000\n        /* \"#utility.yul\":22481:22482   */\n      0x00\n        /* \"#utility.yul\":22474:22562   */\n      mstore\n        /* \"#utility.yul\":22581:22585   */\n      0x41\n        /* \"#utility.yul\":22578:22579   */\n      0x04\n        /* \"#utility.yul\":22571:22586   */\n      mstore\n        /* \"#utility.yul\":22605:22609   */\n      0x24\n        /* \"#utility.yul\":22602:22603   */\n      0x00\n        /* \"#utility.yul\":22595:22610   */\n      revert\n        /* \"#utility.yul\":22622:22739   */\n    tag_295:\n        /* \"#utility.yul\":22731:22732   */\n      0x00\n        /* \"#utility.yul\":22728:22729   */\n      dup1\n        /* \"#utility.yul\":22721:22733   */\n      revert\n        /* \"#utility.yul\":22745:22862   */\n    tag_73:\n        /* \"#utility.yul\":22854:22855   */\n      0x00\n        /* \"#utility.yul\":22851:22852   */\n      dup1\n        /* \"#utility.yul\":22844:22856   */\n      revert\n        /* \"#utility.yul\":22868:22985   */\n    tag_70:\n        /* \"#utility.yul\":22977:22978   */\n      0x00\n        /* \"#utility.yul\":22974:22975   */\n      dup1\n        /* \"#utility.yul\":22967:22979   */\n      revert\n        /* \"#utility.yul\":22991:23108   */\n    tag_98:\n        /* \"#utility.yul\":23100:23101   */\n      0x00\n        /* \"#utility.yul\":23097:23098   */\n      dup1\n        /* \"#utility.yul\":23090:23102   */\n      revert\n        /* \"#utility.yul\":23114:23231   */\n    tag_103:\n        /* \"#utility.yul\":23223:23224   */\n      0x00\n        /* \"#utility.yul\":23220:23221   */\n      dup1\n        /* \"#utility.yul\":23213:23225   */\n      revert\n        /* \"#utility.yul\":23237:23354   */\n    tag_298:\n        /* \"#utility.yul\":23346:23347   */\n      0x00\n        /* \"#utility.yul\":23343:23344   */\n      dup1\n        /* \"#utility.yul\":23336:23348   */\n      revert\n        /* \"#utility.yul\":23360:23477   */\n    tag_107:\n        /* \"#utility.yul\":23469:23470   */\n      0x00\n        /* \"#utility.yul\":23466:23467   */\n      dup1\n        /* \"#utility.yul\":23459:23471   */\n      revert\n        /* \"#utility.yul\":23483:23600   */\n    tag_42:\n        /* \"#utility.yul\":23592:23593   */\n      0x00\n        /* \"#utility.yul\":23589:23590   */\n      dup1\n        /* \"#utility.yul\":23582:23594   */\n      revert\n        /* \"#utility.yul\":23606:23723   */\n    tag_55:\n        /* \"#utility.yul\":23715:23716   */\n      0x00\n        /* \"#utility.yul\":23712:23713   */\n      dup1\n        /* \"#utility.yul\":23705:23717   */\n      revert\n        /* \"#utility.yul\":23729:23846   */\n    tag_121:\n        /* \"#utility.yul\":23838:23839   */\n      0x00\n        /* \"#utility.yul\":23835:23836   */\n      dup1\n        /* \"#utility.yul\":23828:23840   */\n      revert\n        /* \"#utility.yul\":23852:23969   */\n    tag_164:\n        /* \"#utility.yul\":23961:23962   */\n      0x00\n        /* \"#utility.yul\":23958:23959   */\n      dup1\n        /* \"#utility.yul\":23951:23963   */\n      revert\n        /* \"#utility.yul\":23975:24092   */\n    tag_292:\n        /* \"#utility.yul\":24084:24085   */\n      0x00\n        /* \"#utility.yul\":24081:24082   */\n      dup1\n        /* \"#utility.yul\":24074:24086   */\n      revert\n        /* \"#utility.yul\":24098:24215   */\n    tag_118:\n        /* \"#utility.yul\":24207:24208   */\n      0x00\n        /* \"#utility.yul\":24204:24205   */\n      dup1\n        /* \"#utility.yul\":24197:24209   */\n      revert\n        /* \"#utility.yul\":24221:24323   */\n    tag_212:\n        /* \"#utility.yul\":24262:24268   */\n      0x00\n        /* \"#utility.yul\":24313:24315   */\n      0x1f\n        /* \"#utility.yul\":24309:24316   */\n      not\n        /* \"#utility.yul\":24304:24306   */\n      0x1f\n        /* \"#utility.yul\":24297:24302   */\n      dup4\n        /* \"#utility.yul\":24293:24307   */\n      add\n        /* \"#utility.yul\":24289:24317   */\n      and\n        /* \"#utility.yul\":24279:24317   */\n      swap1\n      pop\n        /* \"#utility.yul\":24221:24323   */\n      swap2\n      swap1\n      pop\n      jump\t// out\n        /* \"#utility.yul\":24329:24423   */\n    tag_329:\n        /* \"#utility.yul\":24362:24370   */\n      0x00\n        /* \"#utility.yul\":24410:24415   */\n      dup2\n        /* \"#utility.yul\":24406:24408   */\n      0x60\n        /* \"#utility.yul\":24402:24416   */\n      shl\n        /* \"#utility.yul\":24381:24416   */\n      swap1\n      pop\n        /* \"#utility.yul\":24329:24423   */\n      swap2\n      swap1\n      pop\n      jump\t// out\n        /* \"#utility.yul\":24429:24551   */\n    tag_61:\n        /* \"#utility.yul\":24502:24526   */\n      tag_348\n        /* \"#utility.yul\":24520:24525   */\n      dup2\n        /* \"#utility.yul\":24502:24526   */\n      tag_152\n      jump\t// in\n    tag_348:\n        /* \"#utility.yul\":24495:24500   */\n      dup2\n        /* \"#utility.yul\":24492:24527   */\n      eq\n        /* \"#utility.yul\":24482:24545   */\n      tag_349\n      jumpi\n        /* \"#utility.yul\":24541:24542   */\n      0x00\n        /* \"#utility.yul\":24538:24539   */\n      dup1\n        /* \"#utility.yul\":24531:24543   */\n      revert\n        /* \"#utility.yul\":24482:24545   */\n    tag_349:\n        /* \"#utility.yul\":24429:24551   */\n      pop\n      jump\t// out\n        /* \"#utility.yul\":24557:24695   */\n    tag_65:\n        /* \"#utility.yul\":24638:24670   */\n      tag_351\n        /* \"#utility.yul\":24664:24669   */\n      dup2\n        /* \"#utility.yul\":24638:24670   */\n      tag_309\n      jump\t// in\n    tag_351:\n        /* \"#utility.yul\":24631:24636   */\n      dup2\n        /* \"#utility.yul\":24628:24671   */\n      eq\n        /* \"#utility.yul\":24618:24689   */\n      tag_352\n      jumpi\n        /* \"#utility.yul\":24685:24686   */\n      0x00\n        /* \"#utility.yul\":24682:24683   */\n      dup1\n        /* \"#utility.yul\":24675:24687   */\n      revert\n        /* \"#utility.yul\":24618:24689   */\n    tag_352:\n        /* \"#utility.yul\":24557:24695   */\n      pop\n      jump\t// out\n        /* \"#utility.yul\":24701:24823   */\n    tag_114:\n        /* \"#utility.yul\":24774:24798   */\n      tag_354\n        /* \"#utility.yul\":24792:24797   */\n      dup2\n        /* \"#utility.yul\":24774:24798   */\n      tag_240\n      jump\t// in\n    tag_354:\n        /* \"#utility.yul\":24767:24772   */\n      dup2\n        /* \"#utility.yul\":24764:24799   */\n      eq\n        /* \"#utility.yul\":24754:24817   */\n      tag_355\n      jumpi\n        /* \"#utility.yul\":24813:24814   */\n      0x00\n        /* \"#utility.yul\":24810:24811   */\n      dup1\n        /* \"#utility.yul\":24803:24815   */\n      revert\n        /* \"#utility.yul\":24754:24817   */\n    tag_355:\n        /* \"#utility.yul\":24701:24823   */\n      pop\n      jump\t// out\n\n    auxdata: 0xa2646970667358221220e6b67f9934f925115609870a48fd64ad2582ede248592f4f38efd3fcf4f4c86a64736f6c63430008070033\n}\n",
				"bytecode": {
					"linkReferences": {},
					"object": "608060405234801561001057600080fd5b50610e10806100206000396000f3fe608060405234801561001057600080fd5b50600436106100415760003560e01c8063b9ff2f0814610046578063dce7562714610076578063e5c5e9a3146100a6575b600080fd5b610060600480360381019061005b919061051c565b6100d9565b60405161006d9190610979565b60405180910390f35b610090600480360381019061008b919061051c565b61010e565b60405161009d9190610979565b60405180910390f35b6100c060048036038101906100bb9190610430565b610141565b6040516100d094939291906109f0565b60405180910390f35b606085858585856040516020016100f495949392919061099b565b604051602081830303815290604052905095945050505050565b606085858585604051602001610127949392919061093e565b604051602081830303815290604052905095945050505050565b600080606061014e610176565b858581019061015d919061047d565b8094508195508296508397505050505092959194509250565b604051806040016040528060608152602001606081525090565b60006101a361019e84610a68565b610a43565b905080838252602082019050828560208602820111156101c6576101c5610d59565b5b60005b858110156101f657816101dc888261041b565b8452602084019350602083019250506001810190506101c9565b5050509392505050565b600061021361020e84610a94565b610a43565b90508281526020810184848401111561022f5761022e610d5e565b5b61023a848285610c66565b509392505050565b60008135905061025181610d95565b92915050565b60008135905061026681610dac565b92915050565b60008083601f84011261028257610281610d40565b5b8235905067ffffffffffffffff81111561029f5761029e610d3b565b5b6020830191508360208202830111156102bb576102ba610d59565b5b9250929050565b600082601f8301126102d7576102d6610d40565b5b81356102e7848260208601610190565b91505092915050565b60008083601f84011261030657610305610d40565b5b8235905067ffffffffffffffff81111561032357610322610d3b565b5b60208301915083600182028301111561033f5761033e610d59565b5b9250929050565b600082601f83011261035b5761035a610d40565b5b813561036b848260208601610200565b91505092915050565b60006040828403121561038a57610389610d45565b5b81905092915050565b6000604082840312156103a9576103a8610d4a565b5b6103b36040610a43565b9050600082013567ffffffffffffffff8111156103d3576103d2610d54565b5b6103df84828501610346565b600083015250602082013567ffffffffffffffff81111561040357610402610d54565b5b61040f848285016102c2565b60208301525092915050565b60008135905061042a81610dc3565b92915050565b6000806020838503121561044757610446610d72565b5b600083013567ffffffffffffffff81111561046557610464610d63565b5b610471858286016102f0565b92509250509250929050565b6000806000806080858703121561049757610496610d72565b5b60006104a58782880161041b565b94505060206104b687828801610257565b935050604085013567ffffffffffffffff8111156104d7576104d6610d63565b5b6104e3878288016102c2565b925050606085013567ffffffffffffffff81111561050457610503610d63565b5b61051087828801610393565b91505092959194509250565b60008060008060006080868803121561053857610537610d72565b5b60006105468882890161041b565b955050602061055788828901610242565b945050604086013567ffffffffffffffff81111561057857610577610d63565b5b6105848882890161026c565b9350935050606086013567ffffffffffffffff8111156105a7576105a6610d63565b5b6105b388828901610374565b9150509295509295909350565b60006105cc8383610909565b60208301905092915050565b6105e181610c18565b82525050565b6105f86105f382610c18565b610cd9565b82525050565b600061060a8385610b03565b93507f07ffffffffffffffffffffffffffffffffffffffffffffffffffffffffffffff83111561063d5761063c610d68565b5b60208302925061064e838584610c66565b82840190509392505050565b60006106668385610b14565b93507f07ffffffffffffffffffffffffffffffffffffffffffffffffffffffffffffff83111561069957610698610d68565b5b6020830292506106aa838584610c66565b82840190509392505050565b60006106c28385610b25565b93507f07ffffffffffffffffffffffffffffffffffffffffffffffffffffffffffffff8311156106f5576106f4610d68565b5b602083029250610706838584610c66565b82840190509392505050565b600061071d82610ad5565b6107278185610b03565b935061073283610ac5565b8060005b8381101561076357815161074a88826105c0565b975061075583610af6565b925050600181019050610736565b5085935050505092915050565b600061077b82610ad5565b6107858185610b14565b935061079083610ac5565b8060005b838110156107c15781516107a888826105c0565b97506107b383610af6565b925050600181019050610794565b5085935050505092915050565b60006107d982610ae0565b6107e38185610b30565b93506107f3818560208601610c75565b6107fc81610d77565b840191505092915050565b60006108138385610b41565b9350610820838584610c66565b61082983610d77565b840190509392505050565b600061083f82610aeb565b6108498185610b41565b9350610859818560208601610c75565b61086281610d77565b840191505092915050565b6000604083016108806000840184610bb5565b8583036000870152610893838284610807565b925050506108a46020840184610b52565b85830360208701526108b78382846105fe565b925050508091505092915050565b600060408301600083015184820360008601526108e28282610834565b915050602083015184820360208601526108fc8282610712565b9150508091505092915050565b61091281610c5c565b82525050565b61092181610c5c565b82525050565b61093861093382610c5c565b610cfd565b82525050565b600061094a8287610927565b60208201915061095a82866105e7565b60148201915061096b8284866106b6565b915081905095945050505050565b6000602082019050818103600083015261099381846107ce565b905092915050565b60006080820190506109b06000830188610918565b6109bd60208301876105d8565b81810360408301526109d081858761065a565b905081810360608301526109e4818461086d565b90509695505050505050565b6000608082019050610a056000830187610918565b610a1260208301866105d8565b8181036040830152610a248185610770565b90508181036060830152610a3881846108c5565b905095945050505050565b6000610a4d610a5e565b9050610a598282610ca8565b919050565b6000604051905090565b600067ffffffffffffffff821115610a8357610a82610d07565b5b602082029050602081019050919050565b600067ffffffffffffffff821115610aaf57610aae610d07565b5b610ab882610d77565b9050602081019050919050565b6000819050602082019050919050565b600081519050919050565b600081519050919050565b600081519050919050565b6000602082019050919050565b600082825260208201905092915050565b600082825260208201905092915050565b600081905092915050565b600082825260208201905092915050565b600082825260208201905092915050565b60008083356001602003843603038112610b6f57610b6e610d6d565b5b83810192508235915060208301925067ffffffffffffffff821115610b9757610b96610d36565b5b602082023603841315610bad57610bac610d4f565b5b509250929050565b60008083356001602003843603038112610bd257610bd1610d6d565b5b83810192508235915060208301925067ffffffffffffffff821115610bfa57610bf9610d36565b5b600182023603841315610c1057610c0f610d4f565b5b509250929050565b6000610c2382610c3c565b9050919050565b6000610c3582610c3c565b9050919050565b600073ffffffffffffffffffffffffffffffffffffffff82169050919050565b6000819050919050565b82818337600083830152505050565b60005b83811015610c93578082015181840152602081019050610c78565b83811115610ca2576000848401525b50505050565b610cb182610d77565b810181811067ffffffffffffffff82111715610cd057610ccf610d07565b5b80604052505050565b6000610ce482610ceb565b9050919050565b6000610cf682610d88565b9050919050565b6000819050919050565b7f4e487b7100000000000000000000000000000000000000000000000000000000600052604160045260246000fd5b600080fd5b600080fd5b600080fd5b600080fd5b600080fd5b600080fd5b600080fd5b600080fd5b600080fd5b600080fd5b600080fd5b600080fd5b600080fd5b6000601f19601f8301169050919050565b60008160601b9050919050565b610d9e81610c18565b8114610da957600080fd5b50565b610db581610c2a565b8114610dc057600080fd5b50565b610dcc81610c5c565b8114610dd757600080fd5b5056fea2646970667358221220e6b67f9934f925115609870a48fd64ad2582ede248592f4f38efd3fcf4f4c86a64736f6c63430008070033",
					"opcodes": "PUSH1 0x80 PUSH1 0x40 MSTORE CALLVALUE DUP1 ISZERO PUSH2 0x10 JUMPI PUSH1 0x0 DUP1 REVERT JUMPDEST POP PUSH2 0xE10 DUP1 PUSH2 0x20 PUSH1 0x0 CODECOPY PUSH1 0x0 RETURN INVALID PUSH1 0x80 PUSH1 0x40 MSTORE CALLVALUE DUP1 ISZERO PUSH2 0x10 JUMPI PUSH1 0x0 DUP1 REVERT JUMPDEST POP PUSH1 0x4 CALLDATASIZE LT PUSH2 0x41 JUMPI PUSH1 0x0 CALLDATALOAD PUSH1 0xE0 SHR DUP1 PUSH4 0xB9FF2F08 EQ PUSH2 0x46 JUMPI DUP1 PUSH4 0xDCE75627 EQ PUSH2 0x76 JUMPI DUP1 PUSH4 0xE5C5E9A3 EQ PUSH2 0xA6 JUMPI JUMPDEST PUSH1 0x0 DUP1 REVERT JUMPDEST PUSH2 0x60 PUSH1 0x4 DUP1 CALLDATASIZE SUB DUP2 ADD SWAP1 PUSH2 0x5B SWAP2 SWAP1 PUSH2 0x51C JUMP JUMPDEST PUSH2 0xD9 JUMP JUMPDEST PUSH1 0x40 MLOAD PUSH2 0x6D SWAP2 SWAP1 PUSH2 0x979 JUMP JUMPDEST PUSH1 0x40 MLOAD DUP1 SWAP2 SUB SWAP1 RETURN JUMPDEST PUSH2 0x90 PUSH1 0x4 DUP1 CALLDATASIZE SUB DUP2 ADD SWAP1 PUSH2 0x8B SWAP2 SWAP1 PUSH2 0x51C JUMP JUMPDEST PUSH2 0x10E JUMP JUMPDEST PUSH1 0x40 MLOAD PUSH2 0x9D SWAP2 SWAP1 PUSH2 0x979 JUMP JUMPDEST PUSH1 0x40 MLOAD DUP1 SWAP2 SUB SWAP1 RETURN JUMPDEST PUSH2 0xC0 PUSH1 0x4 DUP1 CALLDATASIZE SUB DUP2 ADD SWAP1 PUSH2 0xBB SWAP2 SWAP1 PUSH2 0x430 JUMP JUMPDEST PUSH2 0x141 JUMP JUMPDEST PUSH1 0x40 MLOAD PUSH2 0xD0 SWAP5 SWAP4 SWAP3 SWAP2 SWAP1 PUSH2 0x9F0 JUMP JUMPDEST PUSH1 0x40 MLOAD DUP1 SWAP2 SUB SWAP1 RETURN JUMPDEST PUSH1 0x60 DUP6 DUP6 DUP6 DUP6 DUP6 PUSH1 0x40 MLOAD PUSH1 0x20 ADD PUSH2 0xF4 SWAP6 SWAP5 SWAP4 SWAP3 SWAP2 SWAP1 PUSH2 0x99B JUMP JUMPDEST PUSH1 0x40 MLOAD PUSH1 0x20 DUP2 DUP4 SUB SUB DUP2 MSTORE SWAP1 PUSH1 0x40 MSTORE SWAP1 POP SWAP6 SWAP5 POP POP POP POP POP JUMP JUMPDEST PUSH1 0x60 DUP6 DUP6 DUP6 DUP6 PUSH1 0x40 MLOAD PUSH1 0x20 ADD PUSH2 0x127 SWAP5 SWAP4 SWAP3 SWAP2 SWAP1 PUSH2 0x93E JUMP JUMPDEST PUSH1 0x40 MLOAD PUSH1 0x20 DUP2 DUP4 SUB SUB DUP2 MSTORE SWAP1 PUSH1 0x40 MSTORE SWAP1 POP SWAP6 SWAP5 POP POP POP POP POP JUMP JUMPDEST PUSH1 0x0 DUP1 PUSH1 0x60 PUSH2 0x14E PUSH2 0x176 JUMP JUMPDEST DUP6 DUP6 DUP2 ADD SWAP1 PUSH2 0x15D SWAP2 SWAP1 PUSH2 0x47D JUMP JUMPDEST DUP1 SWAP5 POP DUP2 SWAP6 POP DUP3 SWAP7 POP DUP4 SWAP8 POP POP POP POP POP SWAP3 SWAP6 SWAP2 SWAP5 POP SWAP3 POP JUMP JUMPDEST PUSH1 0x40 MLOAD DUP1 PUSH1 0x40 ADD PUSH1 0x40 MSTORE DUP1 PUSH1 0x60 DUP2 MSTORE PUSH1 0x20 ADD PUSH1 0x60 DUP2 MSTORE POP SWAP1 JUMP JUMPDEST PUSH1 0x0 PUSH2 0x1A3 PUSH2 0x19E DUP5 PUSH2 0xA68 JUMP JUMPDEST PUSH2 0xA43 JUMP JUMPDEST SWAP1 POP DUP1 DUP4 DUP3 MSTORE PUSH1 0x20 DUP3 ADD SWAP1 POP DUP3 DUP6 PUSH1 0x20 DUP7 MUL DUP3 ADD GT ISZERO PUSH2 0x1C6 JUMPI PUSH2 0x1C5 PUSH2 0xD59 JUMP JUMPDEST JUMPDEST PUSH1 0x0 JUMPDEST DUP6 DUP2 LT ISZERO PUSH2 0x1F6 JUMPI DUP2 PUSH2 0x1DC DUP9 DUP3 PUSH2 0x41B JUMP JUMPDEST DUP5 MSTORE PUSH1 0x20 DUP5 ADD SWAP4 POP PUSH1 0x20 DUP4 ADD SWAP3 POP POP PUSH1 0x1 DUP2 ADD SWAP1 POP PUSH2 0x1C9 JUMP JUMPDEST POP POP POP SWAP4 SWAP3 POP POP POP JUMP JUMPDEST PUSH1 0x0 PUSH2 0x213 PUSH2 0x20E DUP5 PUSH2 0xA94 JUMP JUMPDEST PUSH2 0xA43 JUMP JUMPDEST SWAP1 POP DUP3 DUP2 MSTORE PUSH1 0x20 DUP2 ADD DUP5 DUP5 DUP5 ADD GT ISZERO PUSH2 0x22F JUMPI PUSH2 0x22E PUSH2 0xD5E JUMP JUMPDEST JUMPDEST PUSH2 0x23A DUP5 DUP3 DUP6 PUSH2 0xC66 JUMP JUMPDEST POP SWAP4 SWAP3 POP POP POP JUMP JUMPDEST PUSH1 0x0 DUP2 CALLDATALOAD SWAP1 POP PUSH2 0x251 DUP2 PUSH2 0xD95 JUMP JUMPDEST SWAP3 SWAP2 POP POP JUMP JUMPDEST PUSH1 0x0 DUP2 CALLDATALOAD SWAP1 POP PUSH2 0x266 DUP2 PUSH2 0xDAC JUMP JUMPDEST SWAP3 SWAP2 POP POP JUMP JUMPDEST PUSH1 0x0 DUP1 DUP4 PUSH1 0x1F DUP5 ADD SLT PUSH2 0x282 JUMPI PUSH2 0x281 PUSH2 0xD40 JUMP JUMPDEST JUMPDEST DUP3 CALLDATALOAD SWAP1 POP PUSH8 0xFFFFFFFFFFFFFFFF DUP2 GT ISZERO PUSH2 0x29F JUMPI PUSH2 0x29E PUSH2 0xD3B JUMP JUMPDEST JUMPDEST PUSH1 0x20 DUP4 ADD SWAP2 POP DUP4 PUSH1 0x20 DUP3 MUL DUP4 ADD GT ISZERO PUSH2 0x2BB JUMPI PUSH2 0x2BA PUSH2 0xD59 JUMP JUMPDEST JUMPDEST SWAP3 POP SWAP3 SWAP1 POP JUMP JUMPDEST PUSH1 0x0 DUP3 PUSH1 0x1F DUP4 ADD SLT PUSH2 0x2D7 JUMPI PUSH2 0x2D6 PUSH2 0xD40 JUMP JUMPDEST JUMPDEST DUP2 CALLDATALOAD PUSH2 0x2E7 DUP5 DUP3 PUSH1 0x20 DUP7 ADD PUSH2 0x190 JUMP JUMPDEST SWAP2 POP POP SWAP3 SWAP2 POP POP JUMP JUMPDEST PUSH1 0x0 DUP1 DUP4 PUSH1 0x1F DUP5 ADD SLT PUSH2 0x306 JUMPI PUSH2 0x305 PUSH2 0xD40 JUMP JUMPDEST JUMPDEST DUP3 CALLDATALOAD SWAP1 POP PUSH8 0xFFFFFFFFFFFFFFFF DUP2 GT ISZERO PUSH2 0x323 JUMPI PUSH2 0x322 PUSH2 0xD3B JUMP JUMPDEST JUMPDEST PUSH1 0x20 DUP4 ADD SWAP2 POP DUP4 PUSH1 0x1 DUP3 MUL DUP4 ADD GT ISZERO PUSH2 0x33F JUMPI PUSH2 0x33E PUSH2 0xD59 JUMP JUMPDEST JUMPDEST SWAP3 POP SWAP3 SWAP1 POP JUMP JUMPDEST PUSH1 0x0 DUP3 PUSH1 0x1F DUP4 ADD SLT PUSH2 0x35B JUMPI PUSH2 0x35A PUSH2 0xD40 JUMP JUMPDEST JUMPDEST DUP2 CALLDATALOAD PUSH2 0x36B DUP5 DUP3 PUSH1 0x20 DUP7 ADD PUSH2 0x200 JUMP JUMPDEST SWAP2 POP POP SWAP3 SWAP2 POP POP JUMP JUMPDEST PUSH1 0x0 PUSH1 0x40 DUP3 DUP5 SUB SLT ISZERO PUSH2 0x38A JUMPI PUSH2 0x389 PUSH2 0xD45 JUMP JUMPDEST JUMPDEST DUP2 SWAP1 POP SWAP3 SWAP2 POP POP JUMP JUMPDEST PUSH1 0x0 PUSH1 0x40 DUP3 DUP5 SUB SLT ISZERO PUSH2 0x3A9 JUMPI PUSH2 0x3A8 PUSH2 0xD4A JUMP JUMPDEST JUMPDEST PUSH2 0x3B3 PUSH1 0x40 PUSH2 0xA43 JUMP JUMPDEST SWAP1 POP PUSH1 0x0 DUP3 ADD CALLDATALOAD PUSH8 0xFFFFFFFFFFFFFFFF DUP2 GT ISZERO PUSH2 0x3D3 JUMPI PUSH2 0x3D2 PUSH2 0xD54 JUMP JUMPDEST JUMPDEST PUSH2 0x3DF DUP5 DUP3 DUP6 ADD PUSH2 0x346 JUMP JUMPDEST PUSH1 0x0 DUP4 ADD MSTORE POP PUSH1 0x20 DUP3 ADD CALLDATALOAD PUSH8 0xFFFFFFFFFFFFFFFF DUP2 GT ISZERO PUSH2 0x403 JUMPI PUSH2 0x402 PUSH2 0xD54 JUMP JUMPDEST JUMPDEST PUSH2 0x40F DUP5 DUP3 DUP6 ADD PUSH2 0x2C2 JUMP JUMPDEST PUSH1 0x20 DUP4 ADD MSTORE POP SWAP3 SWAP2 POP POP JUMP JUMPDEST PUSH1 0x0 DUP2 CALLDATALOAD SWAP1 POP PUSH2 0x42A DUP2 PUSH2 0xDC3 JUMP JUMPDEST SWAP3 SWAP2 POP POP JUMP JUMPDEST PUSH1 0x0 DUP1 PUSH1 0x20 DUP4 DUP6 SUB SLT ISZERO PUSH2 0x447 JUMPI PUSH2 0x446 PUSH2 0xD72 JUMP JUMPDEST JUMPDEST PUSH1 0x0 DUP4 ADD CALLDATALOAD PUSH8 0xFFFFFFFFFFFFFFFF DUP2 GT ISZERO PUSH2 0x465 JUMPI PUSH2 0x464 PUSH2 0xD63 JUMP JUMPDEST JUMPDEST PUSH2 0x471 DUP6 DUP3 DUP7 ADD PUSH2 0x2F0 JUMP JUMPDEST SWAP3 POP SWAP3 POP POP SWAP3 POP SWAP3 SWAP1 POP JUMP JUMPDEST PUSH1 0x0 DUP1 PUSH1 0x0 DUP1 PUSH1 0x80 DUP6 DUP8 SUB SLT ISZERO PUSH2 0x497 JUMPI PUSH2 0x496 PUSH2 0xD72 JUMP JUMPDEST JUMPDEST PUSH1 0x0 PUSH2 0x4A5 DUP8 DUP3 DUP9 ADD PUSH2 0x41B JUMP JUMPDEST SWAP5 POP POP PUSH1 0x20 PUSH2 0x4B6 DUP8 DUP3 DUP9 ADD PUSH2 0x257 JUMP JUMPDEST SWAP4 POP POP PUSH1 0x40 DUP6 ADD CALLDATALOAD PUSH8 0xFFFFFFFFFFFFFFFF DUP2 GT ISZERO PUSH2 0x4D7 JUMPI PUSH2 0x4D6 PUSH2 0xD63 JUMP JUMPDEST JUMPDEST PUSH2 0x4E3 DUP8 DUP3 DUP9 ADD PUSH2 0x2C2 JUMP JUMPDEST SWAP3 POP POP PUSH1 0x60 DUP6 ADD CALLDATALOAD PUSH8 0xFFFFFFFFFFFFFFFF DUP2 GT ISZERO PUSH2 0x504 JUMPI PUSH2 0x503 PUSH2 0xD63 JUMP JUMPDEST JUMPDEST PUSH2 0x510 DUP8 DUP3 DUP9 ADD PUSH2 0x393 JUMP JUMPDEST SWAP2 POP POP SWAP3 SWAP6 SWAP2 SWAP5 POP SWAP3 POP JUMP JUMPDEST PUSH1 0x0 DUP1 PUSH1 0x0 DUP1 PUSH1 0x0 PUSH1 0x80 DUP7 DUP9 SUB SLT ISZERO PUSH2 0x538 JUMPI PUSH2 0x537 PUSH2 0xD72 JUMP JUMPDEST JUMPDEST PUSH1 0x0 PUSH2 0x546 DUP9 DUP3 DUP10 ADD PUSH2 0x41B JUMP JUMPDEST SWAP6 POP POP PUSH1 0x20 PUSH2 0x557 DUP9 DUP3 DUP10 ADD PUSH2 0x242 JUMP JUMPDEST SWAP5 POP POP PUSH1 0x40 DUP7 ADD CALLDATALOAD PUSH8 0xFFFFFFFFFFFFFFFF DUP2 GT ISZERO PUSH2 0x578 JUMPI PUSH2 0x577 PUSH2 0xD63 JUMP JUMPDEST JUMPDEST PUSH2 0x584 DUP9 DUP3 DUP10 ADD PUSH2 0x26C JUMP JUMPDEST SWAP4 POP SWAP4 POP POP PUSH1 0x60 DUP7 ADD CALLDATALOAD PUSH8 0xFFFFFFFFFFFFFFFF DUP2 GT ISZERO PUSH2 0x5A7 JUMPI PUSH2 0x5A6 PUSH2 0xD63 JUMP JUMPDEST JUMPDEST PUSH2 0x5B3 DUP9 DUP3 DUP10 ADD PUSH2 0x374 JUMP JUMPDEST SWAP2 POP POP SWAP3 SWAP6 POP SWAP3 SWAP6 SWAP1 SWAP4 POP JUMP JUMPDEST PUSH1 0x0 PUSH2 0x5CC DUP4 DUP4 PUSH2 0x909 JUMP JUMPDEST PUSH1 0x20 DUP4 ADD SWAP1 POP SWAP3 SWAP2 POP POP JUMP JUMPDEST PUSH2 0x5E1 DUP2 PUSH2 0xC18 JUMP JUMPDEST DUP3 MSTORE POP POP JUMP JUMPDEST PUSH2 0x5F8 PUSH2 0x5F3 DUP3 PUSH2 0xC18 JUMP JUMPDEST PUSH2 0xCD9 JUMP JUMPDEST DUP3 MSTORE POP POP JUMP JUMPDEST PUSH1 0x0 PUSH2 0x60A DUP4 DUP6 PUSH2 0xB03 JUMP JUMPDEST SWAP4 POP PUSH32 0x7FFFFFFFFFFFFFFFFFFFFFFFFFFFFFFFFFFFFFFFFFFFFFFFFFFFFFFFFFFFFFF DUP4 GT ISZERO PUSH2 0x63D JUMPI PUSH2 0x63C PUSH2 0xD68 JUMP JUMPDEST JUMPDEST PUSH1 0x20 DUP4 MUL SWAP3 POP PUSH2 0x64E DUP4 DUP6 DUP5 PUSH2 0xC66 JUMP JUMPDEST DUP3 DUP5 ADD SWAP1 POP SWAP4 SWAP3 POP POP POP JUMP JUMPDEST PUSH1 0x0 PUSH2 0x666 DUP4 DUP6 PUSH2 0xB14 JUMP JUMPDEST SWAP4 POP PUSH32 0x7FFFFFFFFFFFFFFFFFFFFFFFFFFFFFFFFFFFFFFFFFFFFFFFFFFFFFFFFFFFFFF DUP4 GT ISZERO PUSH2 0x699 JUMPI PUSH2 0x698 PUSH2 0xD68 JUMP JUMPDEST JUMPDEST PUSH1 0x20 DUP4 MUL SWAP3 POP PUSH2 0x6AA DUP4 DUP6 DUP5 PUSH2 0xC66 JUMP JUMPDEST DUP3 DUP5 ADD SWAP1 POP SWAP4 SWAP3 POP POP POP JUMP JUMPDEST PUSH1 0x0 PUSH2 0x6C2 DUP4 DUP6 PUSH2 0xB25 JUMP JUMPDEST SWAP4 POP PUSH32 0x7FFFFFFFFFFFFFFFFFFFFFFFFFFFFFFFFFFFFFFFFFFFFFFFFFFFFFFFFFFFFFF DUP4 GT ISZERO PUSH2 0x6F5 JUMPI PUSH2 0x6F4 PUSH2 0xD68 JUMP JUMPDEST JUMPDEST PUSH1 0x20 DUP4 MUL SWAP3 POP PUSH2 0x706 DUP4 DUP6 DUP5 PUSH2 0xC66 JUMP JUMPDEST DUP3 DUP5 ADD SWAP1 POP SWAP4 SWAP3 POP POP POP JUMP JUMPDEST PUSH1 0x0 PUSH2 0x71D DUP3 PUSH2 0xAD5 JUMP JUMPDEST PUSH2 0x727 DUP2 DUP6 PUSH2 0xB03 JUMP JUMPDEST SWAP4 POP PUSH2 0x732 DUP4 PUSH2 0xAC5 JUMP JUMPDEST DUP1 PUSH1 0x0 JUMPDEST DUP4 DUP2 LT ISZERO PUSH2 0x763 JUMPI DUP2 MLOAD PUSH2 0x74A DUP9 DUP3 PUSH2 0x5C0 JUMP JUMPDEST SWAP8 POP PUSH2 0x755 DUP4 PUSH2 0xAF6 JUMP JUMPDEST SWAP3 POP POP PUSH1 0x1 DUP2 ADD SWAP1 POP PUSH2 0x736 JUMP JUMPDEST POP DUP6 SWAP4 POP POP POP POP SWAP3 SWAP2 POP POP JUMP JUMPDEST PUSH1 0x0 PUSH2 0x77B DUP3 PUSH2 0xAD5 JUMP JUMPDEST PUSH2 0x785 DUP2 DUP6 PUSH2 0xB14 JUMP JUMPDEST SWAP4 POP PUSH2 0x790 DUP4 PUSH2 0xAC5 JUMP JUMPDEST DUP1 PUSH1 0x0 JUMPDEST DUP4 DUP2 LT ISZERO PUSH2 0x7C1 JUMPI DUP2 MLOAD PUSH2 0x7A8 DUP9 DUP3 PUSH2 0x5C0 JUMP JUMPDEST SWAP8 POP PUSH2 0x7B3 DUP4 PUSH2 0xAF6 JUMP JUMPDEST SWAP3 POP POP PUSH1 0x1 DUP2 ADD SWAP1 POP PUSH2 0x794 JUMP JUMPDEST POP DUP6 SWAP4 POP POP POP POP SWAP3 SWAP2 POP POP JUMP JUMPDEST PUSH1 0x0 PUSH2 0x7D9 DUP3 PUSH2 0xAE0 JUMP JUMPDEST PUSH2 0x7E3 DUP2 DUP6 PUSH2 0xB30 JUMP JUMPDEST SWAP4 POP PUSH2 0x7F3 DUP2 DUP6 PUSH1 0x20 DUP7 ADD PUSH2 0xC75 JUMP JUMPDEST PUSH2 0x7FC DUP2 PUSH2 0xD77 JUMP JUMPDEST DUP5 ADD SWAP2 POP POP SWAP3 SWAP2 POP POP JUMP JUMPDEST PUSH1 0x0 PUSH2 0x813 DUP4 DUP6 PUSH2 0xB41 JUMP JUMPDEST SWAP4 POP PUSH2 0x820 DUP4 DUP6 DUP5 PUSH2 0xC66 JUMP JUMPDEST PUSH2 0x829 DUP4 PUSH2 0xD77 JUMP JUMPDEST DUP5 ADD SWAP1 POP SWAP4 SWAP3 POP POP POP JUMP JUMPDEST PUSH1 0x0 PUSH2 0x83F DUP3 PUSH2 0xAEB JUMP JUMPDEST PUSH2 0x849 DUP2 DUP6 PUSH2 0xB41 JUMP JUMPDEST SWAP4 POP PUSH2 0x859 DUP2 DUP6 PUSH1 0x20 DUP7 ADD PUSH2 0xC75 JUMP JUMPDEST PUSH2 0x862 DUP2 PUSH2 0xD77 JUMP JUMPDEST DUP5 ADD SWAP2 POP POP SWAP3 SWAP2 POP POP JUMP JUMPDEST PUSH1 0x0 PUSH1 0x40 DUP4 ADD PUSH2 0x880 PUSH1 0x0 DUP5 ADD DUP5 PUSH2 0xBB5 JUMP JUMPDEST DUP6 DUP4 SUB PUSH1 0x0 DUP8 ADD MSTORE PUSH2 0x893 DUP4 DUP3 DUP5 PUSH2 0x807 JUMP JUMPDEST SWAP3 POP POP POP PUSH2 0x8A4 PUSH1 0x20 DUP5 ADD DUP5 PUSH2 0xB52 JUMP JUMPDEST DUP6 DUP4 SUB PUSH1 0x20 DUP8 ADD MSTORE PUSH2 0x8B7 DUP4 DUP3 DUP5 PUSH2 0x5FE JUMP JUMPDEST SWAP3 POP POP POP DUP1 SWAP2 POP POP SWAP3 SWAP2 POP POP JUMP JUMPDEST PUSH1 0x0 PUSH1 0x40 DUP4 ADD PUSH1 0x0 DUP4 ADD MLOAD DUP5 DUP3 SUB PUSH1 0x0 DUP7 ADD MSTORE PUSH2 0x8E2 DUP3 DUP3 PUSH2 0x834 JUMP JUMPDEST SWAP2 POP POP PUSH1 0x20 DUP4 ADD MLOAD DUP5 DUP3 SUB PUSH1 0x20 DUP7 ADD MSTORE PUSH2 0x8FC DUP3 DUP3 PUSH2 0x712 JUMP JUMPDEST SWAP2 POP POP DUP1 SWAP2 POP POP SWAP3 SWAP2 POP POP JUMP JUMPDEST PUSH2 0x912 DUP2 PUSH2 0xC5C JUMP JUMPDEST DUP3 MSTORE POP POP JUMP JUMPDEST PUSH2 0x921 DUP2 PUSH2 0xC5C JUMP JUMPDEST DUP3 MSTORE POP POP JUMP JUMPDEST PUSH2 0x938 PUSH2 0x933 DUP3 PUSH2 0xC5C JUMP JUMPDEST PUSH2 0xCFD JUMP JUMPDEST DUP3 MSTORE POP POP JUMP JUMPDEST PUSH1 0x0 PUSH2 0x94A DUP3 DUP8 PUSH2 0x927 JUMP JUMPDEST PUSH1 0x20 DUP3 ADD SWAP2 POP PUSH2 0x95A DUP3 DUP7 PUSH2 0x5E7 JUMP JUMPDEST PUSH1 0x14 DUP3 ADD SWAP2 POP PUSH2 0x96B DUP3 DUP5 DUP7 PUSH2 0x6B6 JUMP JUMPDEST SWAP2 POP DUP2 SWAP1 POP SWAP6 SWAP5 POP POP POP POP POP JUMP JUMPDEST PUSH1 0x0 PUSH1 0x20 DUP3 ADD SWAP1 POP DUP2 DUP2 SUB PUSH1 0x0 DUP4 ADD MSTORE PUSH2 0x993 DUP2 DUP5 PUSH2 0x7CE JUMP JUMPDEST SWAP1 POP SWAP3 SWAP2 POP POP JUMP JUMPDEST PUSH1 0x0 PUSH1 0x80 DUP3 ADD SWAP1 POP PUSH2 0x9B0 PUSH1 0x0 DUP4 ADD DUP9 PUSH2 0x918 JUMP JUMPDEST PUSH2 0x9BD PUSH1 0x20 DUP4 ADD DUP8 PUSH2 0x5D8 JUMP JUMPDEST DUP2 DUP2 SUB PUSH1 0x40 DUP4 ADD MSTORE PUSH2 0x9D0 DUP2 DUP6 DUP8 PUSH2 0x65A JUMP JUMPDEST SWAP1 POP DUP2 DUP2 SUB PUSH1 0x60 DUP4 ADD MSTORE PUSH2 0x9E4 DUP2 DUP5 PUSH2 0x86D JUMP JUMPDEST SWAP1 POP SWAP7 SWAP6 POP POP POP POP POP POP JUMP JUMPDEST PUSH1 0x0 PUSH1 0x80 DUP3 ADD SWAP1 POP PUSH2 0xA05 PUSH1 0x0 DUP4 ADD DUP8 PUSH2 0x918 JUMP JUMPDEST PUSH2 0xA12 PUSH1 0x20 DUP4 ADD DUP7 PUSH2 0x5D8 JUMP JUMPDEST DUP2 DUP2 SUB PUSH1 0x40 DUP4 ADD MSTORE PUSH2 0xA24 DUP2 DUP6 PUSH2 0x770 JUMP JUMPDEST SWAP1 POP DUP2 DUP2 SUB PUSH1 0x60 DUP4 ADD MSTORE PUSH2 0xA38 DUP2 DUP5 PUSH2 0x8C5 JUMP JUMPDEST SWAP1 POP SWAP6 SWAP5 POP POP POP POP POP JUMP JUMPDEST PUSH1 0x0 PUSH2 0xA4D PUSH2 0xA5E JUMP JUMPDEST SWAP1 POP PUSH2 0xA59 DUP3 DUP3 PUSH2 0xCA8 JUMP JUMPDEST SWAP2 SWAP1 POP JUMP JUMPDEST PUSH1 0x0 PUSH1 0x40 MLOAD SWAP1 POP SWAP1 JUMP JUMPDEST PUSH1 0x0 PUSH8 0xFFFFFFFFFFFFFFFF DUP3 GT ISZERO PUSH2 0xA83 JUMPI PUSH2 0xA82 PUSH2 0xD07 JUMP JUMPDEST JUMPDEST PUSH1 0x20 DUP3 MUL SWAP1 POP PUSH1 0x20 DUP2 ADD SWAP1 POP SWAP2 SWAP1 POP JUMP JUMPDEST PUSH1 0x0 PUSH8 0xFFFFFFFFFFFFFFFF DUP3 GT ISZERO PUSH2 0xAAF JUMPI PUSH2 0xAAE PUSH2 0xD07 JUMP JUMPDEST JUMPDEST PUSH2 0xAB8 DUP3 PUSH2 0xD77 JUMP JUMPDEST SWAP1 POP PUSH1 0x20 DUP2 ADD SWAP1 POP SWAP2 SWAP1 POP JUMP JUMPDEST PUSH1 0x0 DUP2 SWAP1 POP PUSH1 0x20 DUP3 ADD SWAP1 POP SWAP2 SWAP1 POP JUMP JUMPDEST PUSH1 0x0 DUP2 MLOAD SWAP1 POP SWAP2 SWAP1 POP JUMP JUMPDEST PUSH1 0x0 DUP2 MLOAD SWAP1 POP SWAP2 SWAP1 POP JUMP JUMPDEST PUSH1 0x0 DUP2 MLOAD SWAP1 POP SWAP2 SWAP1 POP JUMP JUMPDEST PUSH1 0x0 PUSH1 0x20 DUP3 ADD SWAP1 POP SWAP2 SWAP1 POP JUMP JUMPDEST PUSH1 0x0 DUP3 DUP3 MSTORE PUSH1 0x20 DUP3 ADD SWAP1 POP SWAP3 SWAP2 POP POP JUMP JUMPDEST PUSH1 0x0 DUP3 DUP3 MSTORE PUSH1 0x20 DUP3 ADD SWAP1 POP SWAP3 SWAP2 POP POP JUMP JUMPDEST PUSH1 0x0 DUP2 SWAP1 POP SWAP3 SWAP2 POP POP JUMP JUMPDEST PUSH1 0x0 DUP3 DUP3 MSTORE PUSH1 0x20 DUP3 ADD SWAP1 POP SWAP3 SWAP2 POP POP JUMP JUMPDEST PUSH1 0x0 DUP3 DUP3 MSTORE PUSH1 0x20 DUP3 ADD SWAP1 POP SWAP3 SWAP2 POP POP JUMP JUMPDEST PUSH1 0x0 DUP1 DUP4 CALLDATALOAD PUSH1 0x1 PUSH1 0x20 SUB DUP5 CALLDATASIZE SUB SUB DUP2 SLT PUSH2 0xB6F JUMPI PUSH2 0xB6E PUSH2 0xD6D JUMP JUMPDEST JUMPDEST DUP4 DUP2 ADD SWAP3 POP DUP3 CALLDATALOAD SWAP2 POP PUSH1 0x20 DUP4 ADD SWAP3 POP PUSH8 0xFFFFFFFFFFFFFFFF DUP3 GT ISZERO PUSH2 0xB97 JUMPI PUSH2 0xB96 PUSH2 0xD36 JUMP JUMPDEST JUMPDEST PUSH1 0x20 DUP3 MUL CALLDATASIZE SUB DUP5 SGT ISZERO PUSH2 0xBAD JUMPI PUSH2 0xBAC PUSH2 0xD4F JUMP JUMPDEST JUMPDEST POP SWAP3 POP SWAP3 SWAP1 POP JUMP JUMPDEST PUSH1 0x0 DUP1 DUP4 CALLDATALOAD PUSH1 0x1 PUSH1 0x20 SUB DUP5 CALLDATASIZE SUB SUB DUP2 SLT PUSH2 0xBD2 JUMPI PUSH2 0xBD1 PUSH2 0xD6D JUMP JUMPDEST JUMPDEST DUP4 DUP2 ADD SWAP3 POP DUP3 CALLDATALOAD SWAP2 POP PUSH1 0x20 DUP4 ADD SWAP3 POP PUSH8 0xFFFFFFFFFFFFFFFF DUP3 GT ISZERO PUSH2 0xBFA JUMPI PUSH2 0xBF9 PUSH2 0xD36 JUMP JUMPDEST JUMPDEST PUSH1 0x1 DUP3 MUL CALLDATASIZE SUB DUP5 SGT ISZERO PUSH2 0xC10 JUMPI PUSH2 0xC0F PUSH2 0xD4F JUMP JUMPDEST JUMPDEST POP SWAP3 POP SWAP3 SWAP1 POP JUMP JUMPDEST PUSH1 0x0 PUSH2 0xC23 DUP3 PUSH2 0xC3C JUMP JUMPDEST SWAP1 POP SWAP2 SWAP1 POP JUMP JUMPDEST PUSH1 0x0 PUSH2 0xC35 DUP3 PUSH2 0xC3C JUMP JUMPDEST SWAP1 POP SWAP2 SWAP1 POP JUMP JUMPDEST PUSH1 0x0 PUSH20 0xFFFFFFFFFFFFFFFFFFFFFFFFFFFFFFFFFFFFFFFF DUP3 AND SWAP1 POP SWAP2 SWAP1 POP JUMP JUMPDEST PUSH1 0x0 DUP2 SWAP1 POP SWAP2 SWAP1 POP JUMP JUMPDEST DUP3 DUP2 DUP4 CALLDATACOPY PUSH1 0x0 DUP4 DUP4 ADD MSTORE POP POP POP JUMP JUMPDEST PUSH1 0x0 JUMPDEST DUP4 DUP2 LT ISZERO PUSH2 0xC93 JUMPI DUP1 DUP3 ADD MLOAD DUP2 DUP5 ADD MSTORE PUSH1 0x20 DUP2 ADD SWAP1 POP PUSH2 0xC78 JUMP JUMPDEST DUP4 DUP2 GT ISZERO PUSH2 0xCA2 JUMPI PUSH1 0x0 DUP5 DUP5 ADD MSTORE JUMPDEST POP POP POP POP JUMP JUMPDEST PUSH2 0xCB1 DUP3 PUSH2 0xD77 JUMP JUMPDEST DUP2 ADD DUP2 DUP2 LT PUSH8 0xFFFFFFFFFFFFFFFF DUP3 GT OR ISZERO PUSH2 0xCD0 JUMPI PUSH2 0xCCF PUSH2 0xD07 JUMP JUMPDEST JUMPDEST DUP1 PUSH1 0x40 MSTORE POP POP POP JUMP JUMPDEST PUSH1 0x0 PUSH2 0xCE4 DUP3 PUSH2 0xCEB JUMP JUMPDEST SWAP1 POP SWAP2 SWAP1 POP JUMP JUMPDEST PUSH1 0x0 PUSH2 0xCF6 DUP3 PUSH2 0xD88 JUMP JUMPDEST SWAP1 POP SWAP2 SWAP1 POP JUMP JUMPDEST PUSH1 0x0 DUP2 SWAP1 POP SWAP2 SWAP1 POP JUMP JUMPDEST PUSH32 0x4E487B7100000000000000000000000000000000000000000000000000000000 PUSH1 0x0 MSTORE PUSH1 0x41 PUSH1 0x4 MSTORE PUSH1 0x24 PUSH1 0x0 REVERT JUMPDEST PUSH1 0x0 DUP1 REVERT JUMPDEST PUSH1 0x0 DUP1 REVERT JUMPDEST PUSH1 0x0 DUP1 REVERT JUMPDEST PUSH1 0x0 DUP1 REVERT JUMPDEST PUSH1 0x0 DUP1 REVERT JUMPDEST PUSH1 0x0 DUP1 REVERT JUMPDEST PUSH1 0x0 DUP1 REVERT JUMPDEST PUSH1 0x0 DUP1 REVERT JUMPDEST PUSH1 0x0 DUP1 REVERT JUMPDEST PUSH1 0x0 DUP1 REVERT JUMPDEST PUSH1 0x0 DUP1 REVERT JUMPDEST PUSH1 0x0 DUP1 REVERT JUMPDEST PUSH1 0x0 DUP1 REVERT JUMPDEST PUSH1 0x0 PUSH1 0x1F NOT PUSH1 0x1F DUP4 ADD AND SWAP1 POP SWAP2 SWAP1 POP JUMP JUMPDEST PUSH1 0x0 DUP2 PUSH1 0x60 SHL SWAP1 POP SWAP2 SWAP1 POP JUMP JUMPDEST PUSH2 0xD9E DUP2 PUSH2 0xC18 JUMP JUMPDEST DUP2 EQ PUSH2 0xDA9 JUMPI PUSH1 0x0 DUP1 REVERT JUMPDEST POP JUMP JUMPDEST PUSH2 0xDB5 DUP2 PUSH2 0xC2A JUMP JUMPDEST DUP2 EQ PUSH2 0xDC0 JUMPI PUSH1 0x0 DUP1 REVERT JUMPDEST POP JUMP JUMPDEST PUSH2 0xDCC DUP2 PUSH2 0xC5C JUMP JUMPDEST DUP2 EQ PUSH2 0xDD7 JUMPI PUSH1 0x0 DUP1 REVERT JUMPDEST POP JUMP INVALID LOG2 PUSH5 0x6970667358 0x22 SLT KECCAK256 0xE6 0xB6 PUSH32 0x9934F925115609870A48FD64AD2582EDE248592F4F38EFD3FCF4F4C86A64736F PUSH13 0x63430008070033000000000000 "
				},
				"gasEstimates": {
					"creation": {
						"codeDepositCost": "720000",
						"executionCost": "753",
						"totalCost": "720753"
					},
					"external": {
						"decode(bytes)": "infinite",
						"encode(uint256,address,uint256[],(string,uint256[]))": "infinite",
						"encodePacked(uint256,address,uint256[],(string,uint256[]))": "infinite"
					}
				},
				"methodIdentifiers": {
					"decode(bytes)": "e5c5e9a3",
					"encode(uint256,address,uint256[],(string,uint256[]))": "b9ff2f08",
					"encodePacked(uint256,address,uint256[],(string,uint256[]))": "dce75627"
				}
			},
			"storageLayout": {
				"storage": [],
				"types": null
			},
			"userdoc": {
				"kind": "user",
				"methods": {},
				"version": 1
			}
		}
	}
}