{
	"CallVSDelegatecall.sol": {
		"B": {
			"abi": [
				{
					"inputs": [
						{
							"internalType": "address",
							"name": "_addr",
							"type": "address"
						},
						{
							"internalType": "uint256",
							"name": "_num",
							"type": "uint256"
						}
					],
					"name": "callSetVariable",
					"outputs": [],
					"stateMutability": "payable",
					"type": "function"
				},
				{
					"inputs": [
						{
							"internalType": "address",
							"name": "_addr",
							"type": "address"
						},
						{
							"internalType": "uint256",
							"name": "_num",
							"type": "uint256"
						}
					],
					"name": "delegateCallSetVariable",
					"outputs": [],
					"stateMutability": "payable",
					"type": "function"
				},
				{
					"inputs": [],
					"name": "num",
					"outputs": [
						{
							"internalType": "uint256",
							"name": "",
							"type": "uint256"
						}
					],
					"stateMutability": "view",
					"type": "function"
				},
				{
					"inputs": [],
					"name": "sender",
					"outputs": [
						{
							"internalType": "address",
							"name": "",
							"type": "address"
						}
					],
					"stateMutability": "view",
					"type": "function"
				}
			],
			"devdoc": {
				"kind": "dev",
				"methods": {},
				"version": 1
			},
			"evm": {
				"assembly": "    /* \"CallVSDelegatecall.sol\":99:611  contract B {... */\n  mstore(0x40, 0x80)\n  callvalue\n  dup1\n  iszero\n  tag_1\n  jumpi\n  0x00\n  dup1\n  revert\ntag_1:\n  pop\n  dataSize(sub_0)\n  dup1\n  dataOffset(sub_0)\n  0x00\n  codecopy\n  0x00\n  return\nstop\n\nsub_0: assembly {\n        /* \"CallVSDelegatecall.sol\":99:611  contract B {... */\n      mstore(0x40, 0x80)\n      jumpi(tag_1, lt(calldatasize, 0x04))\n      shr(0xe0, calldataload(0x00))\n      dup1\n      0x4e70b1dc\n      eq\n      tag_2\n      jumpi\n      dup1\n      0x53dfd305\n      eq\n      tag_3\n      jumpi\n      dup1\n      0x67e404ce\n      eq\n      tag_4\n      jumpi\n      dup1\n      0xe743ca07\n      eq\n      tag_5\n      jumpi\n    tag_1:\n      0x00\n      dup1\n      revert\n        /* \"CallVSDelegatecall.sol\":116:131  uint public num */\n    tag_2:\n      callvalue\n      dup1\n      iszero\n      tag_6\n      jumpi\n      0x00\n      dup1\n      revert\n    tag_6:\n      pop\n      tag_7\n      tag_8\n      jump\t// in\n    tag_7:\n      mload(0x40)\n      tag_9\n      swap2\n      swap1\n      tag_10\n      jump\t// in\n    tag_9:\n      mload(0x40)\n      dup1\n      swap2\n      sub\n      swap1\n      return\n        /* \"CallVSDelegatecall.sol\":195:378  function callSetVariable(address _addr, uint _num) external payable{... */\n    tag_3:\n      tag_11\n      0x04\n      dup1\n      calldatasize\n      sub\n      dup2\n      add\n      swap1\n      tag_12\n      swap2\n      swap1\n      tag_13\n      jump\t// in\n    tag_12:\n      tag_14\n      jump\t// in\n    tag_11:\n      stop\n        /* \"CallVSDelegatecall.sol\":138:159  address public sender */\n    tag_4:\n      callvalue\n      dup1\n      iszero\n      tag_15\n      jumpi\n      0x00\n      dup1\n      revert\n    tag_15:\n      pop\n      tag_16\n      tag_17\n      jump\t// in\n    tag_16:\n      mload(0x40)\n      tag_18\n      swap2\n      swap1\n      tag_19\n      jump\t// in\n    tag_18:\n      mload(0x40)\n      dup1\n      swap2\n      sub\n      swap1\n      return\n        /* \"CallVSDelegatecall.sol\":409:609  function delegateCallSetVariable(address _addr, uint _num) external payable{... */\n    tag_5:\n      tag_20\n      0x04\n      dup1\n      calldatasize\n      sub\n      dup2\n      add\n      swap1\n      tag_21\n      swap2\n      swap1\n      tag_13\n      jump\t// in\n    tag_21:\n      tag_22\n      jump\t// in\n    tag_20:\n      stop\n        /* \"CallVSDelegatecall.sol\":116:131  uint public num */\n    tag_8:\n      sload(0x00)\n      dup2\n      jump\t// out\n        /* \"CallVSDelegatecall.sol\":195:378  function callSetVariable(address _addr, uint _num) external payable{... */\n    tag_14:\n        /* \"CallVSDelegatecall.sol\":272:283  bool result */\n      0x00\n        /* \"CallVSDelegatecall.sol\":285:302  bytes memory data */\n      dup1\n        /* \"CallVSDelegatecall.sol\":306:311  _addr */\n      dup4\n        /* \"CallVSDelegatecall.sol\":306:316  _addr.call */\n      0xffffffffffffffffffffffffffffffffffffffff\n      and\n        /* \"CallVSDelegatecall.sol\":365:369  _num */\n      dup4\n        /* \"CallVSDelegatecall.sol\":317:370  abi.encodeWithSignature(\"setVariable(uint256)\", _num) */\n      add(0x24, mload(0x40))\n      tag_24\n      swap2\n      swap1\n      tag_10\n      jump\t// in\n    tag_24:\n      mload(0x40)\n      0x20\n      dup2\n      dup4\n      sub\n      sub\n      dup2\n      mstore\n      swap1\n      0x40\n      mstore\n      and(not(0xffffffffffffffffffffffffffffffffffffffffffffffffffffffff), 0x86be3f8000000000000000000000000000000000000000000000000000000000)\n      0x20\n      dup3\n      add\n      dup1\n      mload\n      0xffffffffffffffffffffffffffffffffffffffffffffffffffffffff\n      dup4\n      dup2\n      dup4\n      and\n      or\n      dup4\n      mstore\n      pop\n      pop\n      pop\n      pop\n        /* \"CallVSDelegatecall.sol\":306:371  _addr.call(abi.encodeWithSignature(\"setVariable(uint256)\", _num)) */\n      mload(0x40)\n      tag_25\n      swap2\n      swap1\n      tag_26\n      jump\t// in\n    tag_25:\n      0x00\n      mload(0x40)\n      dup1\n      dup4\n      sub\n      dup2\n      0x00\n      dup7\n      gas\n      call\n      swap2\n      pop\n      pop\n      returndatasize\n      dup1\n      0x00\n      dup2\n      eq\n      tag_29\n      jumpi\n      mload(0x40)\n      swap2\n      pop\n      and(add(returndatasize, 0x3f), not(0x1f))\n      dup3\n      add\n      0x40\n      mstore\n      returndatasize\n      dup3\n      mstore\n      returndatasize\n      0x00\n      0x20\n      dup5\n      add\n      returndatacopy\n      jump(tag_28)\n    tag_29:\n      0x60\n      swap2\n      pop\n    tag_28:\n      pop\n        /* \"CallVSDelegatecall.sol\":271:371  (bool result, bytes memory data) = _addr.call(abi.encodeWithSignature(\"setVariable(uint256)\", _num)) */\n      swap2\n      pop\n      swap2\n      pop\n        /* \"CallVSDelegatecall.sol\":262:378  {... */\n      pop\n      pop\n        /* \"CallVSDelegatecall.sol\":195:378  function callSetVariable(address _addr, uint _num) external payable{... */\n      pop\n      pop\n      jump\t// out\n        /* \"CallVSDelegatecall.sol\":138:159  address public sender */\n    tag_17:\n      0x01\n      0x00\n      swap1\n      sload\n      swap1\n      0x0100\n      exp\n      swap1\n      div\n      0xffffffffffffffffffffffffffffffffffffffff\n      and\n      dup2\n      jump\t// out\n        /* \"CallVSDelegatecall.sol\":409:609  function delegateCallSetVariable(address _addr, uint _num) external payable{... */\n    tag_22:\n        /* \"CallVSDelegatecall.sol\":495:506  bool result */\n      0x00\n        /* \"CallVSDelegatecall.sol\":508:525  bytes memory data */\n      dup1\n        /* \"CallVSDelegatecall.sol\":529:534  _addr */\n      dup4\n        /* \"CallVSDelegatecall.sol\":529:547  _addr.delegatecall */\n      0xffffffffffffffffffffffffffffffffffffffff\n      and\n        /* \"CallVSDelegatecall.sol\":596:600  _num */\n      dup4\n        /* \"CallVSDelegatecall.sol\":548:601  abi.encodeWithSignature(\"setVariable(uint256)\", _num) */\n      add(0x24, mload(0x40))\n      tag_31\n      swap2\n      swap1\n      tag_10\n      jump\t// in\n    tag_31:\n      mload(0x40)\n      0x20\n      dup2\n      dup4\n      sub\n      sub\n      dup2\n      mstore\n      swap1\n      0x40\n      mstore\n      and(not(0xffffffffffffffffffffffffffffffffffffffffffffffffffffffff), 0x86be3f8000000000000000000000000000000000000000000000000000000000)\n      0x20\n      dup3\n      add\n      dup1\n      mload\n      0xffffffffffffffffffffffffffffffffffffffffffffffffffffffff\n      dup4\n      dup2\n      dup4\n      and\n      or\n      dup4\n      mstore\n      pop\n      pop\n      pop\n      pop\n        /* \"CallVSDelegatecall.sol\":529:602  _addr.delegatecall(abi.encodeWithSignature(\"setVariable(uint256)\", _num)) */\n      mload(0x40)\n      tag_32\n      swap2\n      swap1\n      tag_26\n      jump\t// in\n    tag_32:\n      0x00\n      mload(0x40)\n      dup1\n      dup4\n      sub\n      dup2\n      dup6\n      gas\n      delegatecall\n      swap2\n      pop\n      pop\n      returndatasize\n      dup1\n      0x00\n      dup2\n      eq\n      tag_35\n      jumpi\n      mload(0x40)\n      swap2\n      pop\n      and(add(returndatasize, 0x3f), not(0x1f))\n      dup3\n      add\n      0x40\n      mstore\n      returndatasize\n      dup3\n      mstore\n      returndatasize\n      0x00\n      0x20\n      dup5\n      add\n      returndatacopy\n      jump(tag_34)\n    tag_35:\n      0x60\n      swap2\n      pop\n    tag_34:\n      pop\n        /* \"CallVSDelegatecall.sol\":494:602  (bool result, bytes memory data) = _addr.delegatecall(abi.encodeWithSignature(\"setVariable(uint256)\", _num)) */\n      swap2\n      pop\n      swap2\n      pop\n        /* \"CallVSDelegatecall.sol\":484:609  {... */\n      pop\n      pop\n        /* \"CallVSDelegatecall.sol\":409:609  function delegateCallSetVariable(address _addr, uint _num) external payable{... */\n      pop\n      pop\n      jump\t// out\n        /* \"#utility.yul\":7:146   */\n    tag_37:\n        /* \"#utility.yul\":53:58   */\n      0x00\n        /* \"#utility.yul\":91:97   */\n      dup2\n        /* \"#utility.yul\":78:98   */\n      calldataload\n        /* \"#utility.yul\":69:98   */\n      swap1\n      pop\n        /* \"#utility.yul\":107:140   */\n      tag_39\n        /* \"#utility.yul\":134:139   */\n      dup2\n        /* \"#utility.yul\":107:140   */\n      tag_40\n      jump\t// in\n    tag_39:\n        /* \"#utility.yul\":7:146   */\n      swap3\n      swap2\n      pop\n      pop\n      jump\t// out\n        /* \"#utility.yul\":152:291   */\n    tag_41:\n        /* \"#utility.yul\":198:203   */\n      0x00\n        /* \"#utility.yul\":236:242   */\n      dup2\n        /* \"#utility.yul\":223:243   */\n      calldataload\n        /* \"#utility.yul\":214:243   */\n      swap1\n      pop\n        /* \"#utility.yul\":252:285   */\n      tag_43\n        /* \"#utility.yul\":279:284   */\n      dup2\n        /* \"#utility.yul\":252:285   */\n      tag_44\n      jump\t// in\n    tag_43:\n        /* \"#utility.yul\":152:291   */\n      swap3\n      swap2\n      pop\n      pop\n      jump\t// out\n        /* \"#utility.yul\":297:771   */\n    tag_13:\n        /* \"#utility.yul\":365:371   */\n      0x00\n        /* \"#utility.yul\":373:379   */\n      dup1\n        /* \"#utility.yul\":422:424   */\n      0x40\n        /* \"#utility.yul\":410:419   */\n      dup4\n        /* \"#utility.yul\":401:408   */\n      dup6\n        /* \"#utility.yul\":397:420   */\n      sub\n        /* \"#utility.yul\":393:425   */\n      slt\n        /* \"#utility.yul\":390:509   */\n      iszero\n      tag_46\n      jumpi\n        /* \"#utility.yul\":428:507   */\n      tag_47\n      tag_48\n      jump\t// in\n    tag_47:\n        /* \"#utility.yul\":390:509   */\n    tag_46:\n        /* \"#utility.yul\":548:549   */\n      0x00\n        /* \"#utility.yul\":573:626   */\n      tag_49\n        /* \"#utility.yul\":618:625   */\n      dup6\n        /* \"#utility.yul\":609:615   */\n      dup3\n        /* \"#utility.yul\":598:607   */\n      dup7\n        /* \"#utility.yul\":594:616   */\n      add\n        /* \"#utility.yul\":573:626   */\n      tag_37\n      jump\t// in\n    tag_49:\n        /* \"#utility.yul\":563:626   */\n      swap3\n      pop\n        /* \"#utility.yul\":519:636   */\n      pop\n        /* \"#utility.yul\":675:677   */\n      0x20\n        /* \"#utility.yul\":701:754   */\n      tag_50\n        /* \"#utility.yul\":746:753   */\n      dup6\n        /* \"#utility.yul\":737:743   */\n      dup3\n        /* \"#utility.yul\":726:735   */\n      dup7\n        /* \"#utility.yul\":722:744   */\n      add\n        /* \"#utility.yul\":701:754   */\n      tag_41\n      jump\t// in\n    tag_50:\n        /* \"#utility.yul\":691:754   */\n      swap2\n      pop\n        /* \"#utility.yul\":646:764   */\n      pop\n        /* \"#utility.yul\":297:771   */\n      swap3\n      pop\n      swap3\n      swap1\n      pop\n      jump\t// out\n        /* \"#utility.yul\":777:895   */\n    tag_51:\n        /* \"#utility.yul\":864:888   */\n      tag_53\n        /* \"#utility.yul\":882:887   */\n      dup2\n        /* \"#utility.yul\":864:888   */\n      tag_54\n      jump\t// in\n    tag_53:\n        /* \"#utility.yul\":859:862   */\n      dup3\n        /* \"#utility.yul\":852:889   */\n      mstore\n        /* \"#utility.yul\":777:895   */\n      pop\n      pop\n      jump\t// out\n        /* \"#utility.yul\":901:1274   */\n    tag_55:\n        /* \"#utility.yul\":1005:1008   */\n      0x00\n        /* \"#utility.yul\":1033:1071   */\n      tag_57\n        /* \"#utility.yul\":1065:1070   */\n      dup3\n        /* \"#utility.yul\":1033:1071   */\n      tag_58\n      jump\t// in\n    tag_57:\n        /* \"#utility.yul\":1087:1175   */\n      tag_59\n        /* \"#utility.yul\":1168:1174   */\n      dup2\n        /* \"#utility.yul\":1163:1166   */\n      dup6\n        /* \"#utility.yul\":1087:1175   */\n      tag_60\n      jump\t// in\n    tag_59:\n        /* \"#utility.yul\":1080:1175   */\n      swap4\n      pop\n        /* \"#utility.yul\":1184:1236   */\n      tag_61\n        /* \"#utility.yul\":1229:1235   */\n      dup2\n        /* \"#utility.yul\":1224:1227   */\n      dup6\n        /* \"#utility.yul\":1217:1221   */\n      0x20\n        /* \"#utility.yul\":1210:1215   */\n      dup7\n        /* \"#utility.yul\":1206:1222   */\n      add\n        /* \"#utility.yul\":1184:1236   */\n      tag_62\n      jump\t// in\n    tag_61:\n        /* \"#utility.yul\":1261:1267   */\n      dup1\n        /* \"#utility.yul\":1256:1259   */\n      dup5\n        /* \"#utility.yul\":1252:1268   */\n      add\n        /* \"#utility.yul\":1245:1268   */\n      swap2\n      pop\n        /* \"#utility.yul\":1009:1274   */\n      pop\n        /* \"#utility.yul\":901:1274   */\n      swap3\n      swap2\n      pop\n      pop\n      jump\t// out\n        /* \"#utility.yul\":1280:1398   */\n    tag_63:\n        /* \"#utility.yul\":1367:1391   */\n      tag_65\n        /* \"#utility.yul\":1385:1390   */\n      dup2\n        /* \"#utility.yul\":1367:1391   */\n      tag_66\n      jump\t// in\n    tag_65:\n        /* \"#utility.yul\":1362:1365   */\n      dup3\n        /* \"#utility.yul\":1355:1392   */\n      mstore\n        /* \"#utility.yul\":1280:1398   */\n      pop\n      pop\n      jump\t// out\n        /* \"#utility.yul\":1404:1675   */\n    tag_26:\n        /* \"#utility.yul\":1534:1537   */\n      0x00\n        /* \"#utility.yul\":1556:1649   */\n      tag_68\n        /* \"#utility.yul\":1645:1648   */\n      dup3\n        /* \"#utility.yul\":1636:1642   */\n      dup5\n        /* \"#utility.yul\":1556:1649   */\n      tag_55\n      jump\t// in\n    tag_68:\n        /* \"#utility.yul\":1549:1649   */\n      swap2\n      pop\n        /* \"#utility.yul\":1666:1669   */\n      dup2\n        /* \"#utility.yul\":1659:1669   */\n      swap1\n      pop\n        /* \"#utility.yul\":1404:1675   */\n      swap3\n      swap2\n      pop\n      pop\n      jump\t// out\n        /* \"#utility.yul\":1681:1903   */\n    tag_19:\n        /* \"#utility.yul\":1774:1778   */\n      0x00\n        /* \"#utility.yul\":1812:1814   */\n      0x20\n        /* \"#utility.yul\":1801:1810   */\n      dup3\n        /* \"#utility.yul\":1797:1815   */\n      add\n        /* \"#utility.yul\":1789:1815   */\n      swap1\n      pop\n        /* \"#utility.yul\":1825:1896   */\n      tag_70\n        /* \"#utility.yul\":1893:1894   */\n      0x00\n        /* \"#utility.yul\":1882:1891   */\n      dup4\n        /* \"#utility.yul\":1878:1895   */\n      add\n        /* \"#utility.yul\":1869:1875   */\n      dup5\n        /* \"#utility.yul\":1825:1896   */\n      tag_51\n      jump\t// in\n    tag_70:\n        /* \"#utility.yul\":1681:1903   */\n      swap3\n      swap2\n      pop\n      pop\n      jump\t// out\n        /* \"#utility.yul\":1909:2131   */\n    tag_10:\n        /* \"#utility.yul\":2002:2006   */\n      0x00\n        /* \"#utility.yul\":2040:2042   */\n      0x20\n        /* \"#utility.yul\":2029:2038   */\n      dup3\n        /* \"#utility.yul\":2025:2043   */\n      add\n        /* \"#utility.yul\":2017:2043   */\n      swap1\n      pop\n        /* \"#utility.yul\":2053:2124   */\n      tag_72\n        /* \"#utility.yul\":2121:2122   */\n      0x00\n        /* \"#utility.yul\":2110:2119   */\n      dup4\n        /* \"#utility.yul\":2106:2123   */\n      add\n        /* \"#utility.yul\":2097:2103   */\n      dup5\n        /* \"#utility.yul\":2053:2124   */\n      tag_63\n      jump\t// in\n    tag_72:\n        /* \"#utility.yul\":1909:2131   */\n      swap3\n      swap2\n      pop\n      pop\n      jump\t// out\n        /* \"#utility.yul\":2218:2316   */\n    tag_58:\n        /* \"#utility.yul\":2269:2275   */\n      0x00\n        /* \"#utility.yul\":2303:2308   */\n      dup2\n        /* \"#utility.yul\":2297:2309   */\n      mload\n        /* \"#utility.yul\":2287:2309   */\n      swap1\n      pop\n        /* \"#utility.yul\":2218:2316   */\n      swap2\n      swap1\n      pop\n      jump\t// out\n        /* \"#utility.yul\":2322:2469   */\n    tag_60:\n        /* \"#utility.yul\":2423:2434   */\n      0x00\n        /* \"#utility.yul\":2460:2463   */\n      dup2\n        /* \"#utility.yul\":2445:2463   */\n      swap1\n      pop\n        /* \"#utility.yul\":2322:2469   */\n      swap3\n      swap2\n      pop\n      pop\n      jump\t// out\n        /* \"#utility.yul\":2475:2571   */\n    tag_54:\n        /* \"#utility.yul\":2512:2519   */\n      0x00\n        /* \"#utility.yul\":2541:2565   */\n      tag_78\n        /* \"#utility.yul\":2559:2564   */\n      dup3\n        /* \"#utility.yul\":2541:2565   */\n      tag_79\n      jump\t// in\n    tag_78:\n        /* \"#utility.yul\":2530:2565   */\n      swap1\n      pop\n        /* \"#utility.yul\":2475:2571   */\n      swap2\n      swap1\n      pop\n      jump\t// out\n        /* \"#utility.yul\":2577:2703   */\n    tag_79:\n        /* \"#utility.yul\":2614:2621   */\n      0x00\n        /* \"#utility.yul\":2654:2696   */\n      0xffffffffffffffffffffffffffffffffffffffff\n        /* \"#utility.yul\":2647:2652   */\n      dup3\n        /* \"#utility.yul\":2643:2697   */\n      and\n        /* \"#utility.yul\":2632:2697   */\n      swap1\n      pop\n        /* \"#utility.yul\":2577:2703   */\n      swap2\n      swap1\n      pop\n      jump\t// out\n        /* \"#utility.yul\":2709:2786   */\n    tag_66:\n        /* \"#utility.yul\":2746:2753   */\n      0x00\n        /* \"#utility.yul\":2775:2780   */\n      dup2\n        /* \"#utility.yul\":2764:2780   */\n      swap1\n      pop\n        /* \"#utility.yul\":2709:2786   */\n      swap2\n      swap1\n      pop\n      jump\t// out\n        /* \"#utility.yul\":2792:3099   */\n    tag_62:\n        /* \"#utility.yul\":2860:2861   */\n      0x00\n        /* \"#utility.yul\":2870:2983   */\n    tag_83:\n        /* \"#utility.yul\":2884:2890   */\n      dup4\n        /* \"#utility.yul\":2881:2882   */\n      dup2\n        /* \"#utility.yul\":2878:2891   */\n      lt\n        /* \"#utility.yul\":2870:2983   */\n      iszero\n      tag_85\n      jumpi\n        /* \"#utility.yul\":2969:2970   */\n      dup1\n        /* \"#utility.yul\":2964:2967   */\n      dup3\n        /* \"#utility.yul\":2960:2971   */\n      add\n        /* \"#utility.yul\":2954:2972   */\n      mload\n        /* \"#utility.yul\":2950:2951   */\n      dup2\n        /* \"#utility.yul\":2945:2948   */\n      dup5\n        /* \"#utility.yul\":2941:2952   */\n      add\n        /* \"#utility.yul\":2934:2973   */\n      mstore\n        /* \"#utility.yul\":2906:2908   */\n      0x20\n        /* \"#utility.yul\":2903:2904   */\n      dup2\n        /* \"#utility.yul\":2899:2909   */\n      add\n        /* \"#utility.yul\":2894:2909   */\n      swap1\n      pop\n        /* \"#utility.yul\":2870:2983   */\n      jump(tag_83)\n    tag_85:\n        /* \"#utility.yul\":3001:3007   */\n      dup4\n        /* \"#utility.yul\":2998:2999   */\n      dup2\n        /* \"#utility.yul\":2995:3008   */\n      gt\n        /* \"#utility.yul\":2992:3093   */\n      iszero\n      tag_86\n      jumpi\n        /* \"#utility.yul\":3081:3082   */\n      0x00\n        /* \"#utility.yul\":3072:3078   */\n      dup5\n        /* \"#utility.yul\":3067:3070   */\n      dup5\n        /* \"#utility.yul\":3063:3079   */\n      add\n        /* \"#utility.yul\":3056:3083   */\n      mstore\n        /* \"#utility.yul\":2992:3093   */\n    tag_86:\n        /* \"#utility.yul\":2841:3099   */\n      pop\n        /* \"#utility.yul\":2792:3099   */\n      pop\n      pop\n      pop\n      jump\t// out\n        /* \"#utility.yul\":3228:3345   */\n    tag_48:\n        /* \"#utility.yul\":3337:3338   */\n      0x00\n        /* \"#utility.yul\":3334:3335   */\n      dup1\n        /* \"#utility.yul\":3327:3339   */\n      revert\n        /* \"#utility.yul\":3351:3473   */\n    tag_40:\n        /* \"#utility.yul\":3424:3448   */\n      tag_91\n        /* \"#utility.yul\":3442:3447   */\n      dup2\n        /* \"#utility.yul\":3424:3448   */\n      tag_54\n      jump\t// in\n    tag_91:\n        /* \"#utility.yul\":3417:3422   */\n      dup2\n        /* \"#utility.yul\":3414:3449   */\n      eq\n        /* \"#utility.yul\":3404:3467   */\n      tag_92\n      jumpi\n        /* \"#utility.yul\":3463:3464   */\n      0x00\n        /* \"#utility.yul\":3460:3461   */\n      dup1\n        /* \"#utility.yul\":3453:3465   */\n      revert\n        /* \"#utility.yul\":3404:3467   */\n    tag_92:\n        /* \"#utility.yul\":3351:3473   */\n      pop\n      jump\t// out\n        /* \"#utility.yul\":3479:3601   */\n    tag_44:\n        /* \"#utility.yul\":3552:3576   */\n      tag_94\n        /* \"#utility.yul\":3570:3575   */\n      dup2\n        /* \"#utility.yul\":3552:3576   */\n      tag_66\n      jump\t// in\n    tag_94:\n        /* \"#utility.yul\":3545:3550   */\n      dup2\n        /* \"#utility.yul\":3542:3577   */\n      eq\n        /* \"#utility.yul\":3532:3595   */\n      tag_95\n      jumpi\n        /* \"#utility.yul\":3591:3592   */\n      0x00\n        /* \"#utility.yul\":3588:3589   */\n      dup1\n        /* \"#utility.yul\":3581:3593   */\n      revert\n        /* \"#utility.yul\":3532:3595   */\n    tag_95:\n        /* \"#utility.yul\":3479:3601   */\n      pop\n      jump\t// out\n\n    auxdata: 0xa2646970667358221220dd6d02d80afbc86277b5e0a0dc86e5a9b48ce5f4ccbab6287806a47d719049d564736f6c63430008070033\n}\n",
				"bytecode": {
					"linkReferences": {},
					"object": "608060405234801561001057600080fd5b506104f4806100206000396000f3fe60806040526004361061003f5760003560e01c80634e70b1dc1461004457806353dfd3051461006f57806367e404ce1461008b578063e743ca07146100b6575b600080fd5b34801561005057600080fd5b506100596100d2565b60405161006691906103eb565b60405180910390f35b6100896004803603810190610084919061032a565b6100d8565b005b34801561009757600080fd5b506100a06101da565b6040516100ad91906103d0565b60405180910390f35b6100d060048036038101906100cb919061032a565b610200565b005b60005481565b6000808373ffffffffffffffffffffffffffffffffffffffff168360405160240161010391906103eb565b6040516020818303038152906040527f86be3f80000000000000000000000000000000000000000000000000000000007bffffffffffffffffffffffffffffffffffffffffffffffffffffffff19166020820180517bffffffffffffffffffffffffffffffffffffffffffffffffffffffff838183161783525050505060405161018d91906103b9565b6000604051808303816000865af19150503d80600081146101ca576040519150601f19603f3d011682016040523d82523d6000602084013e6101cf565b606091505b509150915050505050565b600160009054906101000a900473ffffffffffffffffffffffffffffffffffffffff1681565b6000808373ffffffffffffffffffffffffffffffffffffffff168360405160240161022b91906103eb565b6040516020818303038152906040527f86be3f80000000000000000000000000000000000000000000000000000000007bffffffffffffffffffffffffffffffffffffffffffffffffffffffff19166020820180517bffffffffffffffffffffffffffffffffffffffffffffffffffffffff83818316178352505050506040516102b591906103b9565b600060405180830381855af49150503d80600081146102f0576040519150601f19603f3d011682016040523d82523d6000602084013e6102f5565b606091505b509150915050505050565b60008135905061030f81610490565b92915050565b600081359050610324816104a7565b92915050565b600080604083850312156103415761034061048b565b5b600061034f85828601610300565b925050602061036085828601610315565b9150509250929050565b6103738161041c565b82525050565b600061038482610406565b61038e8185610411565b935061039e818560208601610458565b80840191505092915050565b6103b38161044e565b82525050565b60006103c58284610379565b915081905092915050565b60006020820190506103e5600083018461036a565b92915050565b600060208201905061040060008301846103aa565b92915050565b600081519050919050565b600081905092915050565b60006104278261042e565b9050919050565b600073ffffffffffffffffffffffffffffffffffffffff82169050919050565b6000819050919050565b60005b8381101561047657808201518184015260208101905061045b565b83811115610485576000848401525b50505050565b600080fd5b6104998161041c565b81146104a457600080fd5b50565b6104b08161044e565b81146104bb57600080fd5b5056fea2646970667358221220dd6d02d80afbc86277b5e0a0dc86e5a9b48ce5f4ccbab6287806a47d719049d564736f6c63430008070033",
					"opcodes": "PUSH1 0x80 PUSH1 0x40 MSTORE CALLVALUE DUP1 ISZERO PUSH2 0x10 JUMPI PUSH1 0x0 DUP1 REVERT JUMPDEST POP PUSH2 0x4F4 DUP1 PUSH2 0x20 PUSH1 0x0 CODECOPY PUSH1 0x0 RETURN INVALID PUSH1 0x80 PUSH1 0x40 MSTORE PUSH1 0x4 CALLDATASIZE LT PUSH2 0x3F JUMPI PUSH1 0x0 CALLDATALOAD PUSH1 0xE0 SHR DUP1 PUSH4 0x4E70B1DC EQ PUSH2 0x44 JUMPI DUP1 PUSH4 0x53DFD305 EQ PUSH2 0x6F JUMPI DUP1 PUSH4 0x67E404CE EQ PUSH2 0x8B JUMPI DUP1 PUSH4 0xE743CA07 EQ PUSH2 0xB6 JUMPI JUMPDEST PUSH1 0x0 DUP1 REVERT JUMPDEST CALLVALUE DUP1 ISZERO PUSH2 0x50 JUMPI PUSH1 0x0 DUP1 REVERT JUMPDEST POP PUSH2 0x59 PUSH2 0xD2 JUMP JUMPDEST PUSH1 0x40 MLOAD PUSH2 0x66 SWAP2 SWAP1 PUSH2 0x3EB JUMP JUMPDEST PUSH1 0x40 MLOAD DUP1 SWAP2 SUB SWAP1 RETURN JUMPDEST PUSH2 0x89 PUSH1 0x4 DUP1 CALLDATASIZE SUB DUP2 ADD SWAP1 PUSH2 0x84 SWAP2 SWAP1 PUSH2 0x32A JUMP JUMPDEST PUSH2 0xD8 JUMP JUMPDEST STOP JUMPDEST CALLVALUE DUP1 ISZERO PUSH2 0x97 JUMPI PUSH1 0x0 DUP1 REVERT JUMPDEST POP PUSH2 0xA0 PUSH2 0x1DA JUMP JUMPDEST PUSH1 0x40 MLOAD PUSH2 0xAD SWAP2 SWAP1 PUSH2 0x3D0 JUMP JUMPDEST PUSH1 0x40 MLOAD DUP1 SWAP2 SUB SWAP1 RETURN JUMPDEST PUSH2 0xD0 PUSH1 0x4 DUP1 CALLDATASIZE SUB DUP2 ADD SWAP1 PUSH2 0xCB SWAP2 SWAP1 PUSH2 0x32A JUMP JUMPDEST PUSH2 0x200 JUMP JUMPDEST STOP JUMPDEST PUSH1 0x0 SLOAD DUP2 JUMP JUMPDEST PUSH1 0x0 DUP1 DUP4 PUSH20 0xFFFFFFFFFFFFFFFFFFFFFFFFFFFFFFFFFFFFFFFF AND DUP4 PUSH1 0x40 MLOAD PUSH1 0x24 ADD PUSH2 0x103 SWAP2 SWAP1 PUSH2 0x3EB JUMP JUMPDEST PUSH1 0x40 MLOAD PUSH1 0x20 DUP2 DUP4 SUB SUB DUP2 MSTORE SWAP1 PUSH1 0x40 MSTORE PUSH32 0x86BE3F8000000000000000000000000000000000000000000000000000000000 PUSH28 0xFFFFFFFFFFFFFFFFFFFFFFFFFFFFFFFFFFFFFFFFFFFFFFFFFFFFFFFF NOT AND PUSH1 0x20 DUP3 ADD DUP1 MLOAD PUSH28 0xFFFFFFFFFFFFFFFFFFFFFFFFFFFFFFFFFFFFFFFFFFFFFFFFFFFFFFFF DUP4 DUP2 DUP4 AND OR DUP4 MSTORE POP POP POP POP PUSH1 0x40 MLOAD PUSH2 0x18D SWAP2 SWAP1 PUSH2 0x3B9 JUMP JUMPDEST PUSH1 0x0 PUSH1 0x40 MLOAD DUP1 DUP4 SUB DUP2 PUSH1 0x0 DUP7 GAS CALL SWAP2 POP POP RETURNDATASIZE DUP1 PUSH1 0x0 DUP2 EQ PUSH2 0x1CA JUMPI PUSH1 0x40 MLOAD SWAP2 POP PUSH1 0x1F NOT PUSH1 0x3F RETURNDATASIZE ADD AND DUP3 ADD PUSH1 0x40 MSTORE RETURNDATASIZE DUP3 MSTORE RETURNDATASIZE PUSH1 0x0 PUSH1 0x20 DUP5 ADD RETURNDATACOPY PUSH2 0x1CF JUMP JUMPDEST PUSH1 0x60 SWAP2 POP JUMPDEST POP SWAP2 POP SWAP2 POP POP POP POP POP JUMP JUMPDEST PUSH1 0x1 PUSH1 0x0 SWAP1 SLOAD SWAP1 PUSH2 0x100 EXP SWAP1 DIV PUSH20 0xFFFFFFFFFFFFFFFFFFFFFFFFFFFFFFFFFFFFFFFF AND DUP2 JUMP JUMPDEST PUSH1 0x0 DUP1 DUP4 PUSH20 0xFFFFFFFFFFFFFFFFFFFFFFFFFFFFFFFFFFFFFFFF AND DUP4 PUSH1 0x40 MLOAD PUSH1 0x24 ADD PUSH2 0x22B SWAP2 SWAP1 PUSH2 0x3EB JUMP JUMPDEST PUSH1 0x40 MLOAD PUSH1 0x20 DUP2 DUP4 SUB SUB DUP2 MSTORE SWAP1 PUSH1 0x40 MSTORE PUSH32 0x86BE3F8000000000000000000000000000000000000000000000000000000000 PUSH28 0xFFFFFFFFFFFFFFFFFFFFFFFFFFFFFFFFFFFFFFFFFFFFFFFFFFFFFFFF NOT AND PUSH1 0x20 DUP3 ADD DUP1 MLOAD PUSH28 0xFFFFFFFFFFFFFFFFFFFFFFFFFFFFFFFFFFFFFFFFFFFFFFFFFFFFFFFF DUP4 DUP2 DUP4 AND OR DUP4 MSTORE POP POP POP POP PUSH1 0x40 MLOAD PUSH2 0x2B5 SWAP2 SWAP1 PUSH2 0x3B9 JUMP JUMPDEST PUSH1 0x0 PUSH1 0x40 MLOAD DUP1 DUP4 SUB DUP2 DUP6 GAS DELEGATECALL SWAP2 POP POP RETURNDATASIZE DUP1 PUSH1 0x0 DUP2 EQ PUSH2 0x2F0 JUMPI PUSH1 0x40 MLOAD SWAP2 POP PUSH1 0x1F NOT PUSH1 0x3F RETURNDATASIZE ADD AND DUP3 ADD PUSH1 0x40 MSTORE RETURNDATASIZE DUP3 MSTORE RETURNDATASIZE PUSH1 0x0 PUSH1 0x20 DUP5 ADD RETURNDATACOPY PUSH2 0x2F5 JUMP JUMPDEST PUSH1 0x60 SWAP2 POP JUMPDEST POP SWAP2 POP SWAP2 POP POP POP POP POP JUMP JUMPDEST PUSH1 0x0 DUP2 CALLDATALOAD SWAP1 POP PUSH2 0x30F DUP2 PUSH2 0x490 JUMP JUMPDEST SWAP3 SWAP2 POP POP JUMP JUMPDEST PUSH1 0x0 DUP2 CALLDATALOAD SWAP1 POP PUSH2 0x324 DUP2 PUSH2 0x4A7 JUMP JUMPDEST SWAP3 SWAP2 POP POP JUMP JUMPDEST PUSH1 0x0 DUP1 PUSH1 0x40 DUP4 DUP6 SUB SLT ISZERO PUSH2 0x341 JUMPI PUSH2 0x340 PUSH2 0x48B JUMP JUMPDEST JUMPDEST PUSH1 0x0 PUSH2 0x34F DUP6 DUP3 DUP7 ADD PUSH2 0x300 JUMP JUMPDEST SWAP3 POP POP PUSH1 0x20 PUSH2 0x360 DUP6 DUP3 DUP7 ADD PUSH2 0x315 JUMP JUMPDEST SWAP2 POP POP SWAP3 POP SWAP3 SWAP1 POP JUMP JUMPDEST PUSH2 0x373 DUP2 PUSH2 0x41C JUMP JUMPDEST DUP3 MSTORE POP POP JUMP JUMPDEST PUSH1 0x0 PUSH2 0x384 DUP3 PUSH2 0x406 JUMP JUMPDEST PUSH2 0x38E DUP2 DUP6 PUSH2 0x411 JUMP JUMPDEST SWAP4 POP PUSH2 0x39E DUP2 DUP6 PUSH1 0x20 DUP7 ADD PUSH2 0x458 JUMP JUMPDEST DUP1 DUP5 ADD SWAP2 POP POP SWAP3 SWAP2 POP POP JUMP JUMPDEST PUSH2 0x3B3 DUP2 PUSH2 0x44E JUMP JUMPDEST DUP3 MSTORE POP POP JUMP JUMPDEST PUSH1 0x0 PUSH2 0x3C5 DUP3 DUP5 PUSH2 0x379 JUMP JUMPDEST SWAP2 POP DUP2 SWAP1 POP SWAP3 SWAP2 POP POP JUMP JUMPDEST PUSH1 0x0 PUSH1 0x20 DUP3 ADD SWAP1 POP PUSH2 0x3E5 PUSH1 0x0 DUP4 ADD DUP5 PUSH2 0x36A JUMP JUMPDEST SWAP3 SWAP2 POP POP JUMP JUMPDEST PUSH1 0x0 PUSH1 0x20 DUP3 ADD SWAP1 POP PUSH2 0x400 PUSH1 0x0 DUP4 ADD DUP5 PUSH2 0x3AA JUMP JUMPDEST SWAP3 SWAP2 POP POP JUMP JUMPDEST PUSH1 0x0 DUP2 MLOAD SWAP1 POP SWAP2 SWAP1 POP JUMP JUMPDEST PUSH1 0x0 DUP2 SWAP1 POP SWAP3 SWAP2 POP POP JUMP JUMPDEST PUSH1 0x0 PUSH2 0x427 DUP3 PUSH2 0x42E JUMP JUMPDEST SWAP1 POP SWAP2 SWAP1 POP JUMP JUMPDEST PUSH1 0x0 PUSH20 0xFFFFFFFFFFFFFFFFFFFFFFFFFFFFFFFFFFFFFFFF DUP3 AND SWAP1 POP SWAP2 SWAP1 POP JUMP JUMPDEST PUSH1 0x0 DUP2 SWAP1 POP SWAP2 SWAP1 POP JUMP JUMPDEST PUSH1 0x0 JUMPDEST DUP4 DUP2 LT ISZERO PUSH2 0x476 JUMPI DUP1 DUP3 ADD MLOAD DUP2 DUP5 ADD MSTORE PUSH1 0x20 DUP2 ADD SWAP1 POP PUSH2 0x45B JUMP JUMPDEST DUP4 DUP2 GT ISZERO PUSH2 0x485 JUMPI PUSH1 0x0 DUP5 DUP5 ADD MSTORE JUMPDEST POP POP POP POP JUMP JUMPDEST PUSH1 0x0 DUP1 REVERT JUMPDEST PUSH2 0x499 DUP2 PUSH2 0x41C JUMP JUMPDEST DUP2 EQ PUSH2 0x4A4 JUMPI PUSH1 0x0 DUP1 REVERT JUMPDEST POP JUMP JUMPDEST PUSH2 0x4B0 DUP2 PUSH2 0x44E JUMP JUMPDEST DUP2 EQ PUSH2 0x4BB JUMPI PUSH1 0x0 DUP1 REVERT JUMPDEST POP JUMP INVALID LOG2 PUSH5 0x6970667358 0x22 SLT KECCAK256 0xDD PUSH14 0x2D80AFBC86277B5E0A0DC86E5A9 0xB4 DUP13 0xE5 DELEGATECALL 0xCC 0xBA 0xB6 0x28 PUSH25 0x6A47D719049D564736F6C6343000807003300000000000000 "
				},
				"gasEstimates": {
					"creation": {
						"codeDepositCost": "253600",
						"executionCost": "294",
						"totalCost": "253894"
					},
					"external": {
						"callSetVariable(address,uint256)": "infinite",
						"delegateCallSetVariable(address,uint256)": "infinite",
						"num()": "2407",
						"sender()": "2536"
					}
				},
				"methodIdentifiers": {
					"callSetVariable(address,uint256)": "53dfd305",
					"delegateCallSetVariable(address,uint256)": "e743ca07",
					"num()": "4e70b1dc",
					"sender()": "67e404ce"
				}
			},
			"storageLayout": {
				"storage": [
					{
						"astId": 3,
						"contract": "CallVSDelegatecall.sol:B",
						"label": "num",
						"offset": 0,
						"slot": "0",
						"type": "t_uint256"
					},
					{
						"astId": 5,
						"contract": "CallVSDelegatecall.sol:B",
						"label": "sender",
						"offset": 0,
						"slot": "1",
						"type": "t_address"
					}
				],
				"types": {
					"t_address": {
						"encoding": "inplace",
						"label": "address",
						"numberOfBytes": "20"
					},
					"t_uint256": {
						"encoding": "inplace",
						"label": "uint256",
						"numberOfBytes": "32"
					}
				}
			},
			"userdoc": {
				"kind": "user",
				"methods": {},
				"version": 1
			}
		}
	}
}