{
	"DataStorage.sol": {
		"DataStorage": {
			"abi": [
				{
					"inputs": [
						{
							"internalType": "uint256[]",
							"name": "_x",
							"type": "uint256[]"
						}
					],
					"name": "callData1",
					"outputs": [
						{
							"internalType": "uint256[]",
							"name": "",
							"type": "uint256[]"
						}
					],
					"stateMutability": "pure",
					"type": "function"
				},
				{
					"inputs": [],
					"name": "memory1",
					"outputs": [],
					"stateMutability": "nonpayable",
					"type": "function"
				},
				{
					"inputs": [],
					"name": "storage1",
					"outputs": [],
					"stateMutability": "nonpayable",
					"type": "function"
				},
				{
					"inputs": [
						{
							"internalType": "uint256",
							"name": "",
							"type": "uint256"
						}
					],
					"name": "x",
					"outputs": [
						{
							"internalType": "uint256",
							"name": "",
							"type": "uint256"
						}
					],
					"stateMutability": "view",
					"type": "function"
				}
			],
			"devdoc": {
				"kind": "dev",
				"methods": {},
				"version": 1
			},
			"evm": {
				"assembly": "    /* \"DataStorage.sol\":76:581  contract DataStorage {... */\n  mstore(0x40, 0x80)\n    /* \"DataStorage.sol\":104:130  uint[] public x  = [1,2,3] */\n  mload(0x40)\n  dup1\n  0x60\n  add\n  0x40\n  mstore\n  dup1\n    /* \"DataStorage.sol\":124:125  1 */\n  0x01\n    /* \"DataStorage.sol\":104:130  uint[] public x  = [1,2,3] */\n  0xff\n  and\n  dup2\n  mstore\n  0x20\n  add\n    /* \"DataStorage.sol\":126:127  2 */\n  0x02\n    /* \"DataStorage.sol\":104:130  uint[] public x  = [1,2,3] */\n  0xff\n  and\n  dup2\n  mstore\n  0x20\n  add\n    /* \"DataStorage.sol\":128:129  3 */\n  0x03\n    /* \"DataStorage.sol\":104:130  uint[] public x  = [1,2,3] */\n  0xff\n  and\n  dup2\n  mstore\n  pop\n  0x00\n  swap1\n  0x03\n  tag_1\n  swap3\n  swap2\n  swap1\n  tag_2\n  jump\t// in\ntag_1:\n  pop\n    /* \"DataStorage.sol\":76:581  contract DataStorage {... */\n  callvalue\n  dup1\n  iszero\n  tag_3\n  jumpi\n  0x00\n  dup1\n  revert\ntag_3:\n  pop\n  jump(tag_4)\ntag_2:\n  dup3\n  dup1\n  sload\n  dup3\n  dup3\n  sstore\n  swap1\n  0x00\n  mstore\n  keccak256(0x00, 0x20)\n  swap1\n  dup2\n  add\n  swap3\n  dup3\n  iszero\n  tag_5\n  jumpi\n  swap2\n  0x20\n  mul\n  dup3\n  add\ntag_6:\n  dup3\n  dup2\n  gt\n  iszero\n  tag_7\n  jumpi\n  dup3\n  mload\n  dup3\n  swap1\n  0xff\n  and\n  swap1\n  sstore\n  swap2\n  0x20\n  add\n  swap2\n  swap1\n  0x01\n  add\n  swap1\n  jump(tag_6)\ntag_7:\ntag_5:\n  pop\n  swap1\n  pop\n  tag_8\n  swap2\n  swap1\n  tag_9\n  jump\t// in\ntag_8:\n  pop\n  swap1\n  jump\t// out\ntag_9:\ntag_10:\n  dup1\n  dup3\n  gt\n  iszero\n  tag_11\n  jumpi\n  0x00\n  dup2\n  0x00\n  swap1\n  sstore\n  pop\n  0x01\n  add\n  jump(tag_10)\ntag_11:\n  pop\n  swap1\n  jump\t// out\ntag_4:\n  dataSize(sub_0)\n  dup1\n  dataOffset(sub_0)\n  0x00\n  codecopy\n  0x00\n  return\nstop\n\nsub_0: assembly {\n        /* \"DataStorage.sol\":76:581  contract DataStorage {... */\n      mstore(0x40, 0x80)\n      callvalue\n      dup1\n      iszero\n      tag_1\n      jumpi\n      0x00\n      dup1\n      revert\n    tag_1:\n      pop\n      jumpi(tag_2, lt(calldatasize, 0x04))\n      shr(0xe0, calldataload(0x00))\n      dup1\n      0x0208c2ea\n      eq\n      tag_3\n      jumpi\n      dup1\n      0x3f4263ef\n      eq\n      tag_4\n      jumpi\n      dup1\n      0x6509be50\n      eq\n      tag_5\n      jumpi\n      dup1\n      0x79f03d9b\n      eq\n      tag_6\n      jumpi\n    tag_2:\n      0x00\n      dup1\n      revert\n        /* \"DataStorage.sol\":454:578  function memory1() public{... */\n    tag_3:\n      tag_7\n      tag_8\n      jump\t// in\n    tag_7:\n      stop\n        /* \"DataStorage.sol\":104:130  uint[] public x  = [1,2,3] */\n    tag_4:\n      tag_9\n      0x04\n      dup1\n      calldatasize\n      sub\n      dup2\n      add\n      swap1\n      tag_10\n      swap2\n      swap1\n      tag_11\n      jump\t// in\n    tag_10:\n      tag_12\n      jump\t// in\n    tag_9:\n      mload(0x40)\n      tag_13\n      swap2\n      swap1\n      tag_14\n      jump\t// in\n    tag_13:\n      mload(0x40)\n      dup1\n      swap2\n      sub\n      swap1\n      return\n        /* \"DataStorage.sol\":141:357  function callData1(uint[] calldata _x) public pure returns (uint[] calldata) {... */\n    tag_5:\n      tag_15\n      0x04\n      dup1\n      calldatasize\n      sub\n      dup2\n      add\n      swap1\n      tag_16\n      swap2\n      swap1\n      tag_17\n      jump\t// in\n    tag_16:\n      tag_18\n      jump\t// in\n    tag_15:\n      mload(0x40)\n      tag_19\n      swap3\n      swap2\n      swap1\n      tag_20\n      jump\t// in\n    tag_19:\n      mload(0x40)\n      dup1\n      swap2\n      sub\n      swap1\n      return\n        /* \"DataStorage.sol\":363:448  function storage1() public{... */\n    tag_6:\n      tag_21\n      tag_22\n      jump\t// in\n    tag_21:\n      stop\n        /* \"DataStorage.sol\":454:578  function memory1() public{... */\n    tag_8:\n        /* \"DataStorage.sol\":489:505  uint[] memory xm */\n      0x00\n        /* \"DataStorage.sol\":508:509  x */\n      dup1\n        /* \"DataStorage.sol\":489:509  uint[] memory xm = x */\n      dup1\n      sload\n      dup1\n      0x20\n      mul\n      0x20\n      add\n      mload(0x40)\n      swap1\n      dup2\n      add\n      0x40\n      mstore\n      dup1\n      swap3\n      swap2\n      swap1\n      dup2\n      dup2\n      mstore\n      0x20\n      add\n      dup3\n      dup1\n      sload\n      dup1\n      iszero\n      tag_24\n      jumpi\n      0x20\n      mul\n      dup3\n      add\n      swap2\n      swap1\n      0x00\n      mstore\n      keccak256(0x00, 0x20)\n      swap1\n    tag_25:\n      dup2\n      sload\n      dup2\n      mstore\n      0x20\n      add\n      swap1\n      0x01\n      add\n      swap1\n      dup1\n      dup4\n      gt\n      tag_25\n      jumpi\n    tag_24:\n      pop\n      pop\n      pop\n      pop\n      pop\n      swap1\n      pop\n        /* \"DataStorage.sol\":527:530  100 */\n      0x64\n        /* \"DataStorage.sol\":519:521  xm */\n      dup2\n        /* \"DataStorage.sol\":522:523  0 */\n      0x00\n        /* \"DataStorage.sol\":519:524  xm[0] */\n      dup2\n      mload\n      dup2\n      lt\n      tag_26\n      jumpi\n      tag_27\n      tag_28\n      jump\t// in\n    tag_27:\n    tag_26:\n      0x20\n      mul\n      0x20\n      add\n      add\n        /* \"DataStorage.sol\":519:530  xm[0] = 100 */\n      dup2\n      dup2\n      mstore\n      pop\n      pop\n        /* \"DataStorage.sol\":548:551  200 */\n      0xc8\n        /* \"DataStorage.sol\":540:542  xm */\n      dup2\n        /* \"DataStorage.sol\":543:544  1 */\n      0x01\n        /* \"DataStorage.sol\":540:545  xm[1] */\n      dup2\n      mload\n      dup2\n      lt\n      tag_29\n      jumpi\n      tag_30\n      tag_28\n      jump\t// in\n    tag_30:\n    tag_29:\n      0x20\n      mul\n      0x20\n      add\n      add\n        /* \"DataStorage.sol\":540:551  xm[1] = 200 */\n      dup2\n      dup2\n      mstore\n      pop\n      pop\n        /* \"DataStorage.sol\":568:571  400 */\n      0x0190\n        /* \"DataStorage.sol\":561:562  x */\n      0x00\n        /* \"DataStorage.sol\":563:564  0 */\n      dup1\n        /* \"DataStorage.sol\":561:565  x[0] */\n      dup2\n      sload\n      dup2\n      lt\n      tag_31\n      jumpi\n      tag_32\n      tag_28\n      jump\t// in\n    tag_32:\n    tag_31:\n      swap1\n      0x00\n      mstore\n      keccak256(0x00, 0x20)\n      add\n        /* \"DataStorage.sol\":561:571  x[0] = 400 */\n      dup2\n      swap1\n      sstore\n      pop\n        /* \"DataStorage.sol\":479:578  {... */\n      pop\n        /* \"DataStorage.sol\":454:578  function memory1() public{... */\n      jump\t// out\n        /* \"DataStorage.sol\":104:130  uint[] public x  = [1,2,3] */\n    tag_12:\n      0x00\n      dup2\n      dup2\n      sload\n      dup2\n      lt\n      tag_34\n      jumpi\n      0x00\n      dup1\n      revert\n    tag_34:\n      swap1\n      0x00\n      mstore\n      keccak256(0x00, 0x20)\n      add\n      0x00\n      swap2\n      pop\n      swap1\n      pop\n      sload\n      dup2\n      jump\t// out\n        /* \"DataStorage.sol\":141:357  function callData1(uint[] calldata _x) public pure returns (uint[] calldata) {... */\n    tag_18:\n        /* \"DataStorage.sol\":201:216  uint[] calldata */\n      calldatasize\n      0x00\n        /* \"DataStorage.sol\":348:350  _x */\n      dup4\n      dup4\n        /* \"DataStorage.sol\":341:350  return _x */\n      swap2\n      pop\n      swap2\n      pop\n        /* \"DataStorage.sol\":141:357  function callData1(uint[] calldata _x) public pure returns (uint[] calldata) {... */\n      swap3\n      pop\n      swap3\n      swap1\n      pop\n      jump\t// out\n        /* \"DataStorage.sol\":363:448  function storage1() public{... */\n    tag_22:\n        /* \"DataStorage.sol\":399:416  uint[] storage xs */\n      0x00\n        /* \"DataStorage.sol\":438:441  100 */\n      0x64\n        /* \"DataStorage.sol\":430:432  xs */\n      dup2\n        /* \"DataStorage.sol\":433:434  0 */\n      0x00\n        /* \"DataStorage.sol\":430:435  xs[0] */\n      dup2\n      sload\n      dup2\n      lt\n      tag_38\n      jumpi\n      tag_39\n      tag_28\n      jump\t// in\n    tag_39:\n    tag_38:\n      swap1\n      0x00\n      mstore\n      keccak256(0x00, 0x20)\n      add\n        /* \"DataStorage.sol\":430:441  xs[0] = 100 */\n      dup2\n      swap1\n      sstore\n      pop\n        /* \"DataStorage.sol\":389:448  {... */\n      pop\n        /* \"DataStorage.sol\":363:448  function storage1() public{... */\n      jump\t// out\n        /* \"#utility.yul\":88:205   */\n    tag_42:\n        /* \"#utility.yul\":197:198   */\n      0x00\n        /* \"#utility.yul\":194:195   */\n      dup1\n        /* \"#utility.yul\":187:199   */\n      revert\n        /* \"#utility.yul\":211:328   */\n    tag_43:\n        /* \"#utility.yul\":320:321   */\n      0x00\n        /* \"#utility.yul\":317:318   */\n      dup1\n        /* \"#utility.yul\":310:322   */\n      revert\n        /* \"#utility.yul\":334:411   */\n    tag_44:\n        /* \"#utility.yul\":371:378   */\n      0x00\n        /* \"#utility.yul\":400:405   */\n      dup2\n        /* \"#utility.yul\":389:405   */\n      swap1\n      pop\n        /* \"#utility.yul\":334:411   */\n      swap2\n      swap1\n      pop\n      jump\t// out\n        /* \"#utility.yul\":417:539   */\n    tag_45:\n        /* \"#utility.yul\":490:514   */\n      tag_62\n        /* \"#utility.yul\":508:513   */\n      dup2\n        /* \"#utility.yul\":490:514   */\n      tag_44\n      jump\t// in\n    tag_62:\n        /* \"#utility.yul\":483:488   */\n      dup2\n        /* \"#utility.yul\":480:515   */\n      eq\n        /* \"#utility.yul\":470:533   */\n      tag_63\n      jumpi\n        /* \"#utility.yul\":529:530   */\n      0x00\n        /* \"#utility.yul\":526:527   */\n      dup1\n        /* \"#utility.yul\":519:531   */\n      revert\n        /* \"#utility.yul\":470:533   */\n    tag_63:\n        /* \"#utility.yul\":417:539   */\n      pop\n      jump\t// out\n        /* \"#utility.yul\":545:684   */\n    tag_46:\n        /* \"#utility.yul\":591:596   */\n      0x00\n        /* \"#utility.yul\":629:635   */\n      dup2\n        /* \"#utility.yul\":616:636   */\n      calldataload\n        /* \"#utility.yul\":607:636   */\n      swap1\n      pop\n        /* \"#utility.yul\":645:678   */\n      tag_65\n        /* \"#utility.yul\":672:677   */\n      dup2\n        /* \"#utility.yul\":645:678   */\n      tag_45\n      jump\t// in\n    tag_65:\n        /* \"#utility.yul\":545:684   */\n      swap3\n      swap2\n      pop\n      pop\n      jump\t// out\n        /* \"#utility.yul\":690:1019   */\n    tag_11:\n        /* \"#utility.yul\":749:755   */\n      0x00\n        /* \"#utility.yul\":798:800   */\n      0x20\n        /* \"#utility.yul\":786:795   */\n      dup3\n        /* \"#utility.yul\":777:784   */\n      dup5\n        /* \"#utility.yul\":773:796   */\n      sub\n        /* \"#utility.yul\":769:801   */\n      slt\n        /* \"#utility.yul\":766:885   */\n      iszero\n      tag_67\n      jumpi\n        /* \"#utility.yul\":804:883   */\n      tag_68\n      tag_42\n      jump\t// in\n    tag_68:\n        /* \"#utility.yul\":766:885   */\n    tag_67:\n        /* \"#utility.yul\":924:925   */\n      0x00\n        /* \"#utility.yul\":949:1002   */\n      tag_69\n        /* \"#utility.yul\":994:1001   */\n      dup5\n        /* \"#utility.yul\":985:991   */\n      dup3\n        /* \"#utility.yul\":974:983   */\n      dup6\n        /* \"#utility.yul\":970:992   */\n      add\n        /* \"#utility.yul\":949:1002   */\n      tag_46\n      jump\t// in\n    tag_69:\n        /* \"#utility.yul\":939:1002   */\n      swap2\n      pop\n        /* \"#utility.yul\":895:1012   */\n      pop\n        /* \"#utility.yul\":690:1019   */\n      swap3\n      swap2\n      pop\n      pop\n      jump\t// out\n        /* \"#utility.yul\":1025:1143   */\n    tag_47:\n        /* \"#utility.yul\":1112:1136   */\n      tag_71\n        /* \"#utility.yul\":1130:1135   */\n      dup2\n        /* \"#utility.yul\":1112:1136   */\n      tag_44\n      jump\t// in\n    tag_71:\n        /* \"#utility.yul\":1107:1110   */\n      dup3\n        /* \"#utility.yul\":1100:1137   */\n      mstore\n        /* \"#utility.yul\":1025:1143   */\n      pop\n      pop\n      jump\t// out\n        /* \"#utility.yul\":1149:1371   */\n    tag_14:\n        /* \"#utility.yul\":1242:1246   */\n      0x00\n        /* \"#utility.yul\":1280:1282   */\n      0x20\n        /* \"#utility.yul\":1269:1278   */\n      dup3\n        /* \"#utility.yul\":1265:1283   */\n      add\n        /* \"#utility.yul\":1257:1283   */\n      swap1\n      pop\n        /* \"#utility.yul\":1293:1364   */\n      tag_73\n        /* \"#utility.yul\":1361:1362   */\n      0x00\n        /* \"#utility.yul\":1350:1359   */\n      dup4\n        /* \"#utility.yul\":1346:1363   */\n      add\n        /* \"#utility.yul\":1337:1343   */\n      dup5\n        /* \"#utility.yul\":1293:1364   */\n      tag_47\n      jump\t// in\n    tag_73:\n        /* \"#utility.yul\":1149:1371   */\n      swap3\n      swap2\n      pop\n      pop\n      jump\t// out\n        /* \"#utility.yul\":1377:1494   */\n    tag_48:\n        /* \"#utility.yul\":1486:1487   */\n      0x00\n        /* \"#utility.yul\":1483:1484   */\n      dup1\n        /* \"#utility.yul\":1476:1488   */\n      revert\n        /* \"#utility.yul\":1500:1617   */\n    tag_49:\n        /* \"#utility.yul\":1609:1610   */\n      0x00\n        /* \"#utility.yul\":1606:1607   */\n      dup1\n        /* \"#utility.yul\":1599:1611   */\n      revert\n        /* \"#utility.yul\":1623:1740   */\n    tag_50:\n        /* \"#utility.yul\":1732:1733   */\n      0x00\n        /* \"#utility.yul\":1729:1730   */\n      dup1\n        /* \"#utility.yul\":1722:1734   */\n      revert\n        /* \"#utility.yul\":1763:2331   */\n    tag_51:\n        /* \"#utility.yul\":1836:1844   */\n      0x00\n        /* \"#utility.yul\":1846:1852   */\n      dup1\n        /* \"#utility.yul\":1896:1899   */\n      dup4\n        /* \"#utility.yul\":1889:1893   */\n      0x1f\n        /* \"#utility.yul\":1881:1887   */\n      dup5\n        /* \"#utility.yul\":1877:1894   */\n      add\n        /* \"#utility.yul\":1873:1900   */\n      slt\n        /* \"#utility.yul\":1863:1985   */\n      tag_78\n      jumpi\n        /* \"#utility.yul\":1904:1983   */\n      tag_79\n      tag_48\n      jump\t// in\n    tag_79:\n        /* \"#utility.yul\":1863:1985   */\n    tag_78:\n        /* \"#utility.yul\":2017:2023   */\n      dup3\n        /* \"#utility.yul\":2004:2024   */\n      calldataload\n        /* \"#utility.yul\":1994:2024   */\n      swap1\n      pop\n        /* \"#utility.yul\":2047:2065   */\n      0xffffffffffffffff\n        /* \"#utility.yul\":2039:2045   */\n      dup2\n        /* \"#utility.yul\":2036:2066   */\n      gt\n        /* \"#utility.yul\":2033:2150   */\n      iszero\n      tag_80\n      jumpi\n        /* \"#utility.yul\":2069:2148   */\n      tag_81\n      tag_49\n      jump\t// in\n    tag_81:\n        /* \"#utility.yul\":2033:2150   */\n    tag_80:\n        /* \"#utility.yul\":2183:2187   */\n      0x20\n        /* \"#utility.yul\":2175:2181   */\n      dup4\n        /* \"#utility.yul\":2171:2188   */\n      add\n        /* \"#utility.yul\":2159:2188   */\n      swap2\n      pop\n        /* \"#utility.yul\":2237:2240   */\n      dup4\n        /* \"#utility.yul\":2229:2233   */\n      0x20\n        /* \"#utility.yul\":2221:2227   */\n      dup3\n        /* \"#utility.yul\":2217:2234   */\n      mul\n        /* \"#utility.yul\":2207:2215   */\n      dup4\n        /* \"#utility.yul\":2203:2235   */\n      add\n        /* \"#utility.yul\":2200:2241   */\n      gt\n        /* \"#utility.yul\":2197:2325   */\n      iszero\n      tag_82\n      jumpi\n        /* \"#utility.yul\":2244:2323   */\n      tag_83\n      tag_50\n      jump\t// in\n    tag_83:\n        /* \"#utility.yul\":2197:2325   */\n    tag_82:\n        /* \"#utility.yul\":1763:2331   */\n      swap3\n      pop\n      swap3\n      swap1\n      pop\n      jump\t// out\n        /* \"#utility.yul\":2337:2896   */\n    tag_17:\n        /* \"#utility.yul\":2423:2429   */\n      0x00\n        /* \"#utility.yul\":2431:2437   */\n      dup1\n        /* \"#utility.yul\":2480:2482   */\n      0x20\n        /* \"#utility.yul\":2468:2477   */\n      dup4\n        /* \"#utility.yul\":2459:2466   */\n      dup6\n        /* \"#utility.yul\":2455:2478   */\n      sub\n        /* \"#utility.yul\":2451:2483   */\n      slt\n        /* \"#utility.yul\":2448:2567   */\n      iszero\n      tag_85\n      jumpi\n        /* \"#utility.yul\":2486:2565   */\n      tag_86\n      tag_42\n      jump\t// in\n    tag_86:\n        /* \"#utility.yul\":2448:2567   */\n    tag_85:\n        /* \"#utility.yul\":2634:2635   */\n      0x00\n        /* \"#utility.yul\":2623:2632   */\n      dup4\n        /* \"#utility.yul\":2619:2636   */\n      add\n        /* \"#utility.yul\":2606:2637   */\n      calldataload\n        /* \"#utility.yul\":2664:2682   */\n      0xffffffffffffffff\n        /* \"#utility.yul\":2656:2662   */\n      dup2\n        /* \"#utility.yul\":2653:2683   */\n      gt\n        /* \"#utility.yul\":2650:2767   */\n      iszero\n      tag_87\n      jumpi\n        /* \"#utility.yul\":2686:2765   */\n      tag_88\n      tag_43\n      jump\t// in\n    tag_88:\n        /* \"#utility.yul\":2650:2767   */\n    tag_87:\n        /* \"#utility.yul\":2799:2879   */\n      tag_89\n        /* \"#utility.yul\":2871:2878   */\n      dup6\n        /* \"#utility.yul\":2862:2868   */\n      dup3\n        /* \"#utility.yul\":2851:2860   */\n      dup7\n        /* \"#utility.yul\":2847:2869   */\n      add\n        /* \"#utility.yul\":2799:2879   */\n      tag_51\n      jump\t// in\n    tag_89:\n        /* \"#utility.yul\":2781:2879   */\n      swap3\n      pop\n      swap3\n      pop\n        /* \"#utility.yul\":2577:2889   */\n      pop\n        /* \"#utility.yul\":2337:2896   */\n      swap3\n      pop\n      swap3\n      swap1\n      pop\n      jump\t// out\n        /* \"#utility.yul\":2902:3086   */\n    tag_52:\n        /* \"#utility.yul\":3001:3012   */\n      0x00\n        /* \"#utility.yul\":3035:3041   */\n      dup3\n        /* \"#utility.yul\":3030:3033   */\n      dup3\n        /* \"#utility.yul\":3023:3042   */\n      mstore\n        /* \"#utility.yul\":3075:3079   */\n      0x20\n        /* \"#utility.yul\":3070:3073   */\n      dup3\n        /* \"#utility.yul\":3066:3080   */\n      add\n        /* \"#utility.yul\":3051:3080   */\n      swap1\n      pop\n        /* \"#utility.yul\":2902:3086   */\n      swap3\n      swap2\n      pop\n      pop\n      jump\t// out\n        /* \"#utility.yul\":3092:3209   */\n    tag_53:\n        /* \"#utility.yul\":3201:3202   */\n      0x00\n        /* \"#utility.yul\":3198:3199   */\n      dup1\n        /* \"#utility.yul\":3191:3203   */\n      revert\n        /* \"#utility.yul\":3215:3313   */\n    tag_54:\n        /* \"#utility.yul\":3299:3305   */\n      dup3\n        /* \"#utility.yul\":3294:3297   */\n      dup2\n        /* \"#utility.yul\":3289:3292   */\n      dup4\n        /* \"#utility.yul\":3276:3306   */\n      calldatacopy\n        /* \"#utility.yul\":3215:3313   */\n      pop\n      pop\n      pop\n      jump\t// out\n        /* \"#utility.yul\":3349:3886   */\n    tag_55:\n        /* \"#utility.yul\":3477:3480   */\n      0x00\n        /* \"#utility.yul\":3498:3584   */\n      tag_94\n        /* \"#utility.yul\":3577:3583   */\n      dup4\n        /* \"#utility.yul\":3572:3575   */\n      dup6\n        /* \"#utility.yul\":3498:3584   */\n      tag_52\n      jump\t// in\n    tag_94:\n        /* \"#utility.yul\":3491:3584   */\n      swap4\n      pop\n        /* \"#utility.yul\":3608:3674   */\n      0x07ffffffffffffffffffffffffffffffffffffffffffffffffffffffffffffff\n        /* \"#utility.yul\":3600:3606   */\n      dup4\n        /* \"#utility.yul\":3597:3675   */\n      gt\n        /* \"#utility.yul\":3594:3759   */\n      iszero\n      tag_95\n      jumpi\n        /* \"#utility.yul\":3678:3757   */\n      tag_96\n      tag_53\n      jump\t// in\n    tag_96:\n        /* \"#utility.yul\":3594:3759   */\n    tag_95:\n        /* \"#utility.yul\":3790:3794   */\n      0x20\n        /* \"#utility.yul\":3782:3788   */\n      dup4\n        /* \"#utility.yul\":3778:3795   */\n      mul\n        /* \"#utility.yul\":3768:3795   */\n      swap3\n      pop\n        /* \"#utility.yul\":3805:3848   */\n      tag_97\n        /* \"#utility.yul\":3841:3847   */\n      dup4\n        /* \"#utility.yul\":3836:3839   */\n      dup6\n        /* \"#utility.yul\":3829:3834   */\n      dup5\n        /* \"#utility.yul\":3805:3848   */\n      tag_54\n      jump\t// in\n    tag_97:\n        /* \"#utility.yul\":3873:3879   */\n      dup3\n        /* \"#utility.yul\":3868:3871   */\n      dup5\n        /* \"#utility.yul\":3864:3880   */\n      add\n        /* \"#utility.yul\":3857:3880   */\n      swap1\n      pop\n        /* \"#utility.yul\":3349:3886   */\n      swap4\n      swap3\n      pop\n      pop\n      pop\n      jump\t// out\n        /* \"#utility.yul\":3892:4285   */\n    tag_20:\n        /* \"#utility.yul\":4045:4049   */\n      0x00\n        /* \"#utility.yul\":4083:4085   */\n      0x20\n        /* \"#utility.yul\":4072:4081   */\n      dup3\n        /* \"#utility.yul\":4068:4086   */\n      add\n        /* \"#utility.yul\":4060:4086   */\n      swap1\n      pop\n        /* \"#utility.yul\":4132:4141   */\n      dup2\n        /* \"#utility.yul\":4126:4130   */\n      dup2\n        /* \"#utility.yul\":4122:4142   */\n      sub\n        /* \"#utility.yul\":4118:4119   */\n      0x00\n        /* \"#utility.yul\":4107:4116   */\n      dup4\n        /* \"#utility.yul\":4103:4120   */\n      add\n        /* \"#utility.yul\":4096:4143   */\n      mstore\n        /* \"#utility.yul\":4160:4278   */\n      tag_99\n        /* \"#utility.yul\":4273:4277   */\n      dup2\n        /* \"#utility.yul\":4264:4270   */\n      dup5\n        /* \"#utility.yul\":4256:4262   */\n      dup7\n        /* \"#utility.yul\":4160:4278   */\n      tag_55\n      jump\t// in\n    tag_99:\n        /* \"#utility.yul\":4152:4278   */\n      swap1\n      pop\n        /* \"#utility.yul\":3892:4285   */\n      swap4\n      swap3\n      pop\n      pop\n      pop\n      jump\t// out\n        /* \"#utility.yul\":4291:4471   */\n    tag_28:\n        /* \"#utility.yul\":4339:4416   */\n      0x4e487b7100000000000000000000000000000000000000000000000000000000\n        /* \"#utility.yul\":4336:4337   */\n      0x00\n        /* \"#utility.yul\":4329:4417   */\n      mstore\n        /* \"#utility.yul\":4436:4440   */\n      0x32\n        /* \"#utility.yul\":4433:4434   */\n      0x04\n        /* \"#utility.yul\":4426:4441   */\n      mstore\n        /* \"#utility.yul\":4460:4464   */\n      0x24\n        /* \"#utility.yul\":4457:4458   */\n      0x00\n        /* \"#utility.yul\":4450:4465   */\n      revert\n\n    auxdata: 0xa2646970667358221220d318c48f66dfc5e571e34daf2acb7c4d56b0a357924e5b5510ab1c0731fd577a64736f6c63430008110033\n}\n",
				"bytecode": {
					"linkReferences": {},
					"object": "60806040526040518060600160405280600160ff168152602001600260ff168152602001600360ff16815250600090600361003b92919061004e565b5034801561004857600080fd5b506100bd565b82805482825590600052602060002090810192821561008f579160200282015b8281111561008e578251829060ff1690559160200191906001019061006e565b5b50905061009c91906100a0565b5090565b5b808211156100b95760008160009055506001016100a1565b5090565b610430806100cc6000396000f3fe608060405234801561001057600080fd5b506004361061004c5760003560e01c80630208c2ea146100515780633f4263ef1461005b5780636509be501461008b57806379f03d9b146100bc575b600080fd5b6100596100c6565b005b61007560048036038101906100709190610223565b610186565b604051610082919061025f565b60405180910390f35b6100a560048036038101906100a091906102df565b6101aa565b6040516100b39291906103a7565b60405180910390f35b6100c46101ba565b005b60008080548060200260200160405190810160405280929190818152602001828054801561011357602002820191906000526020600020905b8154815260200190600101908083116100ff575b505050505090506064816000815181106101305761012f6103cb565b5b60200260200101818152505060c881600181518110610152576101516103cb565b5b60200260200101818152505061019060008081548110610175576101746103cb565b5b906000526020600020018190555050565b6000818154811061019657600080fd5b906000526020600020016000915090505481565b3660008383915091509250929050565b60006064816000815481106101d2576101d16103cb565b5b906000526020600020018190555050565b600080fd5b600080fd5b6000819050919050565b610200816101ed565b811461020b57600080fd5b50565b60008135905061021d816101f7565b92915050565b600060208284031215610239576102386101e3565b5b60006102478482850161020e565b91505092915050565b610259816101ed565b82525050565b60006020820190506102746000830184610250565b92915050565b600080fd5b600080fd5b600080fd5b60008083601f84011261029f5761029e61027a565b5b8235905067ffffffffffffffff8111156102bc576102bb61027f565b5b6020830191508360208202830111156102d8576102d7610284565b5b9250929050565b600080602083850312156102f6576102f56101e3565b5b600083013567ffffffffffffffff811115610314576103136101e8565b5b61032085828601610289565b92509250509250929050565b600082825260208201905092915050565b600080fd5b82818337505050565b6000610357838561032c565b93507f07ffffffffffffffffffffffffffffffffffffffffffffffffffffffffffffff83111561038a5761038961033d565b5b60208302925061039b838584610342565b82840190509392505050565b600060208201905081810360008301526103c281848661034b565b90509392505050565b7f4e487b7100000000000000000000000000000000000000000000000000000000600052603260045260246000fdfea2646970667358221220d318c48f66dfc5e571e34daf2acb7c4d56b0a357924e5b5510ab1c0731fd577a64736f6c63430008110033",
					"opcodes": "PUSH1 0x80 PUSH1 0x40 MSTORE PUSH1 0x40 MLOAD DUP1 PUSH1 0x60 ADD PUSH1 0x40 MSTORE DUP1 PUSH1 0x1 PUSH1 0xFF AND DUP2 MSTORE PUSH1 0x20 ADD PUSH1 0x2 PUSH1 0xFF AND DUP2 MSTORE PUSH1 0x20 ADD PUSH1 0x3 PUSH1 0xFF AND DUP2 MSTORE POP PUSH1 0x0 SWAP1 PUSH1 0x3 PUSH2 0x3B SWAP3 SWAP2 SWAP1 PUSH2 0x4E JUMP JUMPDEST POP CALLVALUE DUP1 ISZERO PUSH2 0x48 JUMPI PUSH1 0x0 DUP1 REVERT JUMPDEST POP PUSH2 0xBD JUMP JUMPDEST DUP3 DUP1 SLOAD DUP3 DUP3 SSTORE SWAP1 PUSH1 0x0 MSTORE PUSH1 0x20 PUSH1 0x0 KECCAK256 SWAP1 DUP2 ADD SWAP3 DUP3 ISZERO PUSH2 0x8F JUMPI SWAP2 PUSH1 0x20 MUL DUP3 ADD JUMPDEST DUP3 DUP2 GT ISZERO PUSH2 0x8E JUMPI DUP3 MLOAD DUP3 SWAP1 PUSH1 0xFF AND SWAP1 SSTORE SWAP2 PUSH1 0x20 ADD SWAP2 SWAP1 PUSH1 0x1 ADD SWAP1 PUSH2 0x6E JUMP JUMPDEST JUMPDEST POP SWAP1 POP PUSH2 0x9C SWAP2 SWAP1 PUSH2 0xA0 JUMP JUMPDEST POP SWAP1 JUMP JUMPDEST JUMPDEST DUP1 DUP3 GT ISZERO PUSH2 0xB9 JUMPI PUSH1 0x0 DUP2 PUSH1 0x0 SWAP1 SSTORE POP PUSH1 0x1 ADD PUSH2 0xA1 JUMP JUMPDEST POP SWAP1 JUMP JUMPDEST PUSH2 0x430 DUP1 PUSH2 0xCC PUSH1 0x0 CODECOPY PUSH1 0x0 RETURN INVALID PUSH1 0x80 PUSH1 0x40 MSTORE CALLVALUE DUP1 ISZERO PUSH2 0x10 JUMPI PUSH1 0x0 DUP1 REVERT JUMPDEST POP PUSH1 0x4 CALLDATASIZE LT PUSH2 0x4C JUMPI PUSH1 0x0 CALLDATALOAD PUSH1 0xE0 SHR DUP1 PUSH4 0x208C2EA EQ PUSH2 0x51 JUMPI DUP1 PUSH4 0x3F4263EF EQ PUSH2 0x5B JUMPI DUP1 PUSH4 0x6509BE50 EQ PUSH2 0x8B JUMPI DUP1 PUSH4 0x79F03D9B EQ PUSH2 0xBC JUMPI JUMPDEST PUSH1 0x0 DUP1 REVERT JUMPDEST PUSH2 0x59 PUSH2 0xC6 JUMP JUMPDEST STOP JUMPDEST PUSH2 0x75 PUSH1 0x4 DUP1 CALLDATASIZE SUB DUP2 ADD SWAP1 PUSH2 0x70 SWAP2 SWAP1 PUSH2 0x223 JUMP JUMPDEST PUSH2 0x186 JUMP JUMPDEST PUSH1 0x40 MLOAD PUSH2 0x82 SWAP2 SWAP1 PUSH2 0x25F JUMP JUMPDEST PUSH1 0x40 MLOAD DUP1 SWAP2 SUB SWAP1 RETURN JUMPDEST PUSH2 0xA5 PUSH1 0x4 DUP1 CALLDATASIZE SUB DUP2 ADD SWAP1 PUSH2 0xA0 SWAP2 SWAP1 PUSH2 0x2DF JUMP JUMPDEST PUSH2 0x1AA JUMP JUMPDEST PUSH1 0x40 MLOAD PUSH2 0xB3 SWAP3 SWAP2 SWAP1 PUSH2 0x3A7 JUMP JUMPDEST PUSH1 0x40 MLOAD DUP1 SWAP2 SUB SWAP1 RETURN JUMPDEST PUSH2 0xC4 PUSH2 0x1BA JUMP JUMPDEST STOP JUMPDEST PUSH1 0x0 DUP1 DUP1 SLOAD DUP1 PUSH1 0x20 MUL PUSH1 0x20 ADD PUSH1 0x40 MLOAD SWAP1 DUP2 ADD PUSH1 0x40 MSTORE DUP1 SWAP3 SWAP2 SWAP1 DUP2 DUP2 MSTORE PUSH1 0x20 ADD DUP3 DUP1 SLOAD DUP1 ISZERO PUSH2 0x113 JUMPI PUSH1 0x20 MUL DUP3 ADD SWAP2 SWAP1 PUSH1 0x0 MSTORE PUSH1 0x20 PUSH1 0x0 KECCAK256 SWAP1 JUMPDEST DUP2 SLOAD DUP2 MSTORE PUSH1 0x20 ADD SWAP1 PUSH1 0x1 ADD SWAP1 DUP1 DUP4 GT PUSH2 0xFF JUMPI JUMPDEST POP POP POP POP POP SWAP1 POP PUSH1 0x64 DUP2 PUSH1 0x0 DUP2 MLOAD DUP2 LT PUSH2 0x130 JUMPI PUSH2 0x12F PUSH2 0x3CB JUMP JUMPDEST JUMPDEST PUSH1 0x20 MUL PUSH1 0x20 ADD ADD DUP2 DUP2 MSTORE POP POP PUSH1 0xC8 DUP2 PUSH1 0x1 DUP2 MLOAD DUP2 LT PUSH2 0x152 JUMPI PUSH2 0x151 PUSH2 0x3CB JUMP JUMPDEST JUMPDEST PUSH1 0x20 MUL PUSH1 0x20 ADD ADD DUP2 DUP2 MSTORE POP POP PUSH2 0x190 PUSH1 0x0 DUP1 DUP2 SLOAD DUP2 LT PUSH2 0x175 JUMPI PUSH2 0x174 PUSH2 0x3CB JUMP JUMPDEST JUMPDEST SWAP1 PUSH1 0x0 MSTORE PUSH1 0x20 PUSH1 0x0 KECCAK256 ADD DUP2 SWAP1 SSTORE POP POP JUMP JUMPDEST PUSH1 0x0 DUP2 DUP2 SLOAD DUP2 LT PUSH2 0x196 JUMPI PUSH1 0x0 DUP1 REVERT JUMPDEST SWAP1 PUSH1 0x0 MSTORE PUSH1 0x20 PUSH1 0x0 KECCAK256 ADD PUSH1 0x0 SWAP2 POP SWAP1 POP SLOAD DUP2 JUMP JUMPDEST CALLDATASIZE PUSH1 0x0 DUP4 DUP4 SWAP2 POP SWAP2 POP SWAP3 POP SWAP3 SWAP1 POP JUMP JUMPDEST PUSH1 0x0 PUSH1 0x64 DUP2 PUSH1 0x0 DUP2 SLOAD DUP2 LT PUSH2 0x1D2 JUMPI PUSH2 0x1D1 PUSH2 0x3CB JUMP JUMPDEST JUMPDEST SWAP1 PUSH1 0x0 MSTORE PUSH1 0x20 PUSH1 0x0 KECCAK256 ADD DUP2 SWAP1 SSTORE POP POP JUMP JUMPDEST PUSH1 0x0 DUP1 REVERT JUMPDEST PUSH1 0x0 DUP1 REVERT JUMPDEST PUSH1 0x0 DUP2 SWAP1 POP SWAP2 SWAP1 POP JUMP JUMPDEST PUSH2 0x200 DUP2 PUSH2 0x1ED JUMP JUMPDEST DUP2 EQ PUSH2 0x20B JUMPI PUSH1 0x0 DUP1 REVERT JUMPDEST POP JUMP JUMPDEST PUSH1 0x0 DUP2 CALLDATALOAD SWAP1 POP PUSH2 0x21D DUP2 PUSH2 0x1F7 JUMP JUMPDEST SWAP3 SWAP2 POP POP JUMP JUMPDEST PUSH1 0x0 PUSH1 0x20 DUP3 DUP5 SUB SLT ISZERO PUSH2 0x239 JUMPI PUSH2 0x238 PUSH2 0x1E3 JUMP JUMPDEST JUMPDEST PUSH1 0x0 PUSH2 0x247 DUP5 DUP3 DUP6 ADD PUSH2 0x20E JUMP JUMPDEST SWAP2 POP POP SWAP3 SWAP2 POP POP JUMP JUMPDEST PUSH2 0x259 DUP2 PUSH2 0x1ED JUMP JUMPDEST DUP3 MSTORE POP POP JUMP JUMPDEST PUSH1 0x0 PUSH1 0x20 DUP3 ADD SWAP1 POP PUSH2 0x274 PUSH1 0x0 DUP4 ADD DUP5 PUSH2 0x250 JUMP JUMPDEST SWAP3 SWAP2 POP POP JUMP JUMPDEST PUSH1 0x0 DUP1 REVERT JUMPDEST PUSH1 0x0 DUP1 REVERT JUMPDEST PUSH1 0x0 DUP1 REVERT JUMPDEST PUSH1 0x0 DUP1 DUP4 PUSH1 0x1F DUP5 ADD SLT PUSH2 0x29F JUMPI PUSH2 0x29E PUSH2 0x27A JUMP JUMPDEST JUMPDEST DUP3 CALLDATALOAD SWAP1 POP PUSH8 0xFFFFFFFFFFFFFFFF DUP2 GT ISZERO PUSH2 0x2BC JUMPI PUSH2 0x2BB PUSH2 0x27F JUMP JUMPDEST JUMPDEST PUSH1 0x20 DUP4 ADD SWAP2 POP DUP4 PUSH1 0x20 DUP3 MUL DUP4 ADD GT ISZERO PUSH2 0x2D8 JUMPI PUSH2 0x2D7 PUSH2 0x284 JUMP JUMPDEST JUMPDEST SWAP3 POP SWAP3 SWAP1 POP JUMP JUMPDEST PUSH1 0x0 DUP1 PUSH1 0x20 DUP4 DUP6 SUB SLT ISZERO PUSH2 0x2F6 JUMPI PUSH2 0x2F5 PUSH2 0x1E3 JUMP JUMPDEST JUMPDEST PUSH1 0x0 DUP4 ADD CALLDATALOAD PUSH8 0xFFFFFFFFFFFFFFFF DUP2 GT ISZERO PUSH2 0x314 JUMPI PUSH2 0x313 PUSH2 0x1E8 JUMP JUMPDEST JUMPDEST PUSH2 0x320 DUP6 DUP3 DUP7 ADD PUSH2 0x289 JUMP JUMPDEST SWAP3 POP SWAP3 POP POP SWAP3 POP SWAP3 SWAP1 POP JUMP JUMPDEST PUSH1 0x0 DUP3 DUP3 MSTORE PUSH1 0x20 DUP3 ADD SWAP1 POP SWAP3 SWAP2 POP POP JUMP JUMPDEST PUSH1 0x0 DUP1 REVERT JUMPDEST DUP3 DUP2 DUP4 CALLDATACOPY POP POP POP JUMP JUMPDEST PUSH1 0x0 PUSH2 0x357 DUP4 DUP6 PUSH2 0x32C JUMP JUMPDEST SWAP4 POP PUSH32 0x7FFFFFFFFFFFFFFFFFFFFFFFFFFFFFFFFFFFFFFFFFFFFFFFFFFFFFFFFFFFFFF DUP4 GT ISZERO PUSH2 0x38A JUMPI PUSH2 0x389 PUSH2 0x33D JUMP JUMPDEST JUMPDEST PUSH1 0x20 DUP4 MUL SWAP3 POP PUSH2 0x39B DUP4 DUP6 DUP5 PUSH2 0x342 JUMP JUMPDEST DUP3 DUP5 ADD SWAP1 POP SWAP4 SWAP3 POP POP POP JUMP JUMPDEST PUSH1 0x0 PUSH1 0x20 DUP3 ADD SWAP1 POP DUP2 DUP2 SUB PUSH1 0x0 DUP4 ADD MSTORE PUSH2 0x3C2 DUP2 DUP5 DUP7 PUSH2 0x34B JUMP JUMPDEST SWAP1 POP SWAP4 SWAP3 POP POP POP JUMP JUMPDEST PUSH32 0x4E487B7100000000000000000000000000000000000000000000000000000000 PUSH1 0x0 MSTORE PUSH1 0x32 PUSH1 0x4 MSTORE PUSH1 0x24 PUSH1 0x0 REVERT INVALID LOG2 PUSH5 0x6970667358 0x22 SLT KECCAK256 0xD3 XOR 0xC4 DUP16 PUSH7 0xDFC5E571E34DAF 0x2A 0xCB PUSH29 0x4D56B0A357924E5B5510AB1C0731FD577A64736F6C6343000811003300 "
				},
				"gasEstimates": {
					"creation": {
						"codeDepositCost": "214400",
						"executionCost": "infinite",
						"totalCost": "infinite"
					},
					"external": {
						"callData1(uint256[])": "infinite",
						"memory1()": "infinite",
						"storage1()": "24487",
						"x(uint256)": "infinite"
					}
				},
				"methodIdentifiers": {
					"callData1(uint256[])": "6509be50",
					"memory1()": "0208c2ea",
					"storage1()": "79f03d9b",
					"x(uint256)": "3f4263ef"
				}
			},
			"storageLayout": {
				"storage": [
					{
						"astId": 8,
						"contract": "DataStorage.sol:DataStorage",
						"label": "x",
						"offset": 0,
						"slot": "0",
						"type": "t_array(t_uint256)dyn_storage"
					}
				],
				"types": {
					"t_array(t_uint256)dyn_storage": {
						"base": "t_uint256",
						"encoding": "dynamic_array",
						"label": "uint256[]",
						"numberOfBytes": "32"
					},
					"t_uint256": {
						"encoding": "inplace",
						"label": "uint256",
						"numberOfBytes": "32"
					}
				}
			},
			"userdoc": {
				"kind": "user",
				"methods": {},
				"version": 1
			}
		}
	}
}