{
	"CallTest.sol": {
		"Call1": {
			"abi": [
				{
					"inputs": [],
					"stateMutability": "payable",
					"type": "constructor"
				},
				{
					"inputs": [
						{
							"internalType": "address",
							"name": "toAddress",
							"type": "address"
						}
					],
					"name": "transferEther",
					"outputs": [
						{
							"internalType": "bool",
							"name": "",
							"type": "bool"
						}
					],
					"stateMutability": "nonpayable",
					"type": "function"
				},
				{
					"inputs": [
						{
							"internalType": "address",
							"name": "toAddress",
							"type": "address"
						}
					],
					"name": "transferEtherViaCall",
					"outputs": [],
					"stateMutability": "nonpayable",
					"type": "function"
				}
			],
			"devdoc": {
				"kind": "dev",
				"methods": {},
				"version": 1
			},
			"evm": {
				"assembly": "    /* \"CallTest.sol\":342:880  contract Call1{... */\n  mstore(0x40, 0x80)\n  dataSize(sub_0)\n  dup1\n  dataOffset(sub_0)\n  0x00\n  codecopy\n  0x00\n  return\nstop\n\nsub_0: assembly {\n        /* \"CallTest.sol\":342:880  contract Call1{... */\n      mstore(0x40, 0x80)\n      callvalue\n      dup1\n      iszero\n      tag_1\n      jumpi\n      0x00\n      dup1\n      revert\n    tag_1:\n      pop\n      jumpi(tag_2, lt(calldatasize, 0x04))\n      shr(0xe0, calldataload(0x00))\n      dup1\n      0x13b74095\n      eq\n      tag_3\n      jumpi\n      dup1\n      0x6b55e991\n      eq\n      tag_4\n      jumpi\n    tag_2:\n      0x00\n      dup1\n      revert\n        /* \"CallTest.sol\":582:761  function transferEtherViaCall(address toAddress) public{... */\n    tag_3:\n      tag_5\n      0x04\n      dup1\n      calldatasize\n      sub\n      dup2\n      add\n      swap1\n      tag_6\n      swap2\n      swap1\n      tag_7\n      jump\t// in\n    tag_6:\n      tag_8\n      jump\t// in\n    tag_5:\n      stop\n        /* \"CallTest.sol\":436:576  function transferEther(address toAddress) public returns (bool){... */\n    tag_4:\n      tag_9\n      0x04\n      dup1\n      calldatasize\n      sub\n      dup2\n      add\n      swap1\n      tag_10\n      swap2\n      swap1\n      tag_7\n      jump\t// in\n    tag_10:\n      tag_11\n      jump\t// in\n    tag_9:\n      mload(0x40)\n      tag_12\n      swap2\n      swap1\n      tag_13\n      jump\t// in\n    tag_12:\n      mload(0x40)\n      dup1\n      swap2\n      sub\n      swap1\n      return\n        /* \"CallTest.sol\":582:761  function transferEtherViaCall(address toAddress) public{... */\n    tag_8:\n        /* \"CallTest.sol\":648:660  bool success */\n      0x00\n        /* \"CallTest.sol\":666:675  toAddress */\n      dup2\n        /* \"CallTest.sol\":666:680  toAddress.call */\n      0xffffffffffffffffffffffffffffffffffffffff\n      and\n        /* \"CallTest.sol\":688:698  0.01 ether */\n      0x2386f26fc10000\n        /* \"CallTest.sol\":666:703  toAddress.call{value: 0.01 ether}(\"\") */\n      mload(0x40)\n      tag_15\n      swap1\n      tag_16\n      jump\t// in\n    tag_15:\n      0x00\n      mload(0x40)\n      dup1\n      dup4\n      sub\n      dup2\n      dup6\n      dup8\n      gas\n      call\n      swap3\n      pop\n      pop\n      pop\n      returndatasize\n      dup1\n      0x00\n      dup2\n      eq\n      tag_19\n      jumpi\n      mload(0x40)\n      swap2\n      pop\n      and(add(returndatasize, 0x3f), not(0x1f))\n      dup3\n      add\n      0x40\n      mstore\n      returndatasize\n      dup3\n      mstore\n      returndatasize\n      0x00\n      0x20\n      dup5\n      add\n      returndatacopy\n      jump(tag_18)\n    tag_19:\n      0x60\n      swap2\n      pop\n    tag_18:\n      pop\n        /* \"CallTest.sol\":647:703  (bool success, ) = toAddress.call{value: 0.01 ether}(\"\") */\n      pop\n      swap1\n      pop\n        /* \"CallTest.sol\":721:728  success */\n      dup1\n        /* \"CallTest.sol\":713:754  require(success, \"transfer ether failed\") */\n      tag_20\n      jumpi\n      mload(0x40)\n      0x08c379a000000000000000000000000000000000000000000000000000000000\n      dup2\n      mstore\n      0x04\n      add\n      tag_21\n      swap1\n      tag_22\n      jump\t// in\n    tag_21:\n      mload(0x40)\n      dup1\n      swap2\n      sub\n      swap1\n      revert\n    tag_20:\n        /* \"CallTest.sol\":637:761  {... */\n      pop\n        /* \"CallTest.sol\":582:761  function transferEtherViaCall(address toAddress) public{... */\n      pop\n      jump\t// out\n        /* \"CallTest.sol\":436:576  function transferEther(address toAddress) public returns (bool){... */\n    tag_11:\n        /* \"CallTest.sol\":494:498  bool */\n      0x00\n        /* \"CallTest.sol\":517:526  toAddress */\n      dup2\n        /* \"CallTest.sol\":509:536  payable(toAddress).transfer */\n      0xffffffffffffffffffffffffffffffffffffffff\n      and\n        /* \"CallTest.sol\":509:548  payable(toAddress).transfer(0.01 ether) */\n      0x08fc\n        /* \"CallTest.sol\":537:547  0.01 ether */\n      0x2386f26fc10000\n        /* \"CallTest.sol\":509:548  payable(toAddress).transfer(0.01 ether) */\n      swap1\n      dup2\n      iszero\n      mul\n      swap1\n      mload(0x40)\n      0x00\n      mload(0x40)\n      dup1\n      dup4\n      sub\n      dup2\n      dup6\n      dup9\n      dup9\n      call\n      swap4\n      pop\n      pop\n      pop\n      pop\n      iszero\n      dup1\n      iszero\n      tag_25\n      jumpi\n      returndatasize\n      0x00\n      dup1\n      returndatacopy\n      revert(0x00, returndatasize)\n    tag_25:\n      pop\n        /* \"CallTest.sol\":565:569  true */\n      0x01\n        /* \"CallTest.sol\":558:569  return true */\n      swap1\n      pop\n        /* \"CallTest.sol\":436:576  function transferEther(address toAddress) public returns (bool){... */\n      swap2\n      swap1\n      pop\n      jump\t// out\n        /* \"#utility.yul\":88:205   */\n    tag_27:\n        /* \"#utility.yul\":197:198   */\n      0x00\n        /* \"#utility.yul\":194:195   */\n      dup1\n        /* \"#utility.yul\":187:199   */\n      revert\n        /* \"#utility.yul\":334:460   */\n    tag_29:\n        /* \"#utility.yul\":371:378   */\n      0x00\n        /* \"#utility.yul\":411:453   */\n      0xffffffffffffffffffffffffffffffffffffffff\n        /* \"#utility.yul\":404:409   */\n      dup3\n        /* \"#utility.yul\":400:454   */\n      and\n        /* \"#utility.yul\":389:454   */\n      swap1\n      pop\n        /* \"#utility.yul\":334:460   */\n      swap2\n      swap1\n      pop\n      jump\t// out\n        /* \"#utility.yul\":466:562   */\n    tag_30:\n        /* \"#utility.yul\":503:510   */\n      0x00\n        /* \"#utility.yul\":532:556   */\n      tag_47\n        /* \"#utility.yul\":550:555   */\n      dup3\n        /* \"#utility.yul\":532:556   */\n      tag_29\n      jump\t// in\n    tag_47:\n        /* \"#utility.yul\":521:556   */\n      swap1\n      pop\n        /* \"#utility.yul\":466:562   */\n      swap2\n      swap1\n      pop\n      jump\t// out\n        /* \"#utility.yul\":568:690   */\n    tag_31:\n        /* \"#utility.yul\":641:665   */\n      tag_49\n        /* \"#utility.yul\":659:664   */\n      dup2\n        /* \"#utility.yul\":641:665   */\n      tag_30\n      jump\t// in\n    tag_49:\n        /* \"#utility.yul\":634:639   */\n      dup2\n        /* \"#utility.yul\":631:666   */\n      eq\n        /* \"#utility.yul\":621:684   */\n      tag_50\n      jumpi\n        /* \"#utility.yul\":680:681   */\n      0x00\n        /* \"#utility.yul\":677:678   */\n      dup1\n        /* \"#utility.yul\":670:682   */\n      revert\n        /* \"#utility.yul\":621:684   */\n    tag_50:\n        /* \"#utility.yul\":568:690   */\n      pop\n      jump\t// out\n        /* \"#utility.yul\":696:835   */\n    tag_32:\n        /* \"#utility.yul\":742:747   */\n      0x00\n        /* \"#utility.yul\":780:786   */\n      dup2\n        /* \"#utility.yul\":767:787   */\n      calldataload\n        /* \"#utility.yul\":758:787   */\n      swap1\n      pop\n        /* \"#utility.yul\":796:829   */\n      tag_52\n        /* \"#utility.yul\":823:828   */\n      dup2\n        /* \"#utility.yul\":796:829   */\n      tag_31\n      jump\t// in\n    tag_52:\n        /* \"#utility.yul\":696:835   */\n      swap3\n      swap2\n      pop\n      pop\n      jump\t// out\n        /* \"#utility.yul\":841:1170   */\n    tag_7:\n        /* \"#utility.yul\":900:906   */\n      0x00\n        /* \"#utility.yul\":949:951   */\n      0x20\n        /* \"#utility.yul\":937:946   */\n      dup3\n        /* \"#utility.yul\":928:935   */\n      dup5\n        /* \"#utility.yul\":924:947   */\n      sub\n        /* \"#utility.yul\":920:952   */\n      slt\n        /* \"#utility.yul\":917:1036   */\n      iszero\n      tag_54\n      jumpi\n        /* \"#utility.yul\":955:1034   */\n      tag_55\n      tag_27\n      jump\t// in\n    tag_55:\n        /* \"#utility.yul\":917:1036   */\n    tag_54:\n        /* \"#utility.yul\":1075:1076   */\n      0x00\n        /* \"#utility.yul\":1100:1153   */\n      tag_56\n        /* \"#utility.yul\":1145:1152   */\n      dup5\n        /* \"#utility.yul\":1136:1142   */\n      dup3\n        /* \"#utility.yul\":1125:1134   */\n      dup6\n        /* \"#utility.yul\":1121:1143   */\n      add\n        /* \"#utility.yul\":1100:1153   */\n      tag_32\n      jump\t// in\n    tag_56:\n        /* \"#utility.yul\":1090:1153   */\n      swap2\n      pop\n        /* \"#utility.yul\":1046:1163   */\n      pop\n        /* \"#utility.yul\":841:1170   */\n      swap3\n      swap2\n      pop\n      pop\n      jump\t// out\n        /* \"#utility.yul\":1176:1266   */\n    tag_33:\n        /* \"#utility.yul\":1210:1217   */\n      0x00\n        /* \"#utility.yul\":1253:1258   */\n      dup2\n        /* \"#utility.yul\":1246:1259   */\n      iszero\n        /* \"#utility.yul\":1239:1260   */\n      iszero\n        /* \"#utility.yul\":1228:1260   */\n      swap1\n      pop\n        /* \"#utility.yul\":1176:1266   */\n      swap2\n      swap1\n      pop\n      jump\t// out\n        /* \"#utility.yul\":1272:1381   */\n    tag_34:\n        /* \"#utility.yul\":1353:1374   */\n      tag_59\n        /* \"#utility.yul\":1368:1373   */\n      dup2\n        /* \"#utility.yul\":1353:1374   */\n      tag_33\n      jump\t// in\n    tag_59:\n        /* \"#utility.yul\":1348:1351   */\n      dup3\n        /* \"#utility.yul\":1341:1375   */\n      mstore\n        /* \"#utility.yul\":1272:1381   */\n      pop\n      pop\n      jump\t// out\n        /* \"#utility.yul\":1387:1597   */\n    tag_13:\n        /* \"#utility.yul\":1474:1478   */\n      0x00\n        /* \"#utility.yul\":1512:1514   */\n      0x20\n        /* \"#utility.yul\":1501:1510   */\n      dup3\n        /* \"#utility.yul\":1497:1515   */\n      add\n        /* \"#utility.yul\":1489:1515   */\n      swap1\n      pop\n        /* \"#utility.yul\":1525:1590   */\n      tag_61\n        /* \"#utility.yul\":1587:1588   */\n      0x00\n        /* \"#utility.yul\":1576:1585   */\n      dup4\n        /* \"#utility.yul\":1572:1589   */\n      add\n        /* \"#utility.yul\":1563:1569   */\n      dup5\n        /* \"#utility.yul\":1525:1590   */\n      tag_34\n      jump\t// in\n    tag_61:\n        /* \"#utility.yul\":1387:1597   */\n      swap3\n      swap2\n      pop\n      pop\n      jump\t// out\n        /* \"#utility.yul\":1603:1750   */\n    tag_35:\n        /* \"#utility.yul\":1704:1715   */\n      0x00\n        /* \"#utility.yul\":1741:1744   */\n      dup2\n        /* \"#utility.yul\":1726:1744   */\n      swap1\n      pop\n        /* \"#utility.yul\":1603:1750   */\n      swap3\n      swap2\n      pop\n      pop\n      jump\t// out\n        /* \"#utility.yul\":1756:1870   */\n    tag_36:\n      pop\n      jump\t// out\n        /* \"#utility.yul\":1876:2274   */\n    tag_37:\n        /* \"#utility.yul\":2035:2038   */\n      0x00\n        /* \"#utility.yul\":2056:2139   */\n      tag_65\n        /* \"#utility.yul\":2137:2138   */\n      0x00\n        /* \"#utility.yul\":2132:2135   */\n      dup4\n        /* \"#utility.yul\":2056:2139   */\n      tag_35\n      jump\t// in\n    tag_65:\n        /* \"#utility.yul\":2049:2139   */\n      swap2\n      pop\n        /* \"#utility.yul\":2148:2241   */\n      tag_66\n        /* \"#utility.yul\":2237:2240   */\n      dup3\n        /* \"#utility.yul\":2148:2241   */\n      tag_36\n      jump\t// in\n    tag_66:\n        /* \"#utility.yul\":2266:2267   */\n      0x00\n        /* \"#utility.yul\":2261:2264   */\n      dup3\n        /* \"#utility.yul\":2257:2268   */\n      add\n        /* \"#utility.yul\":2250:2268   */\n      swap1\n      pop\n        /* \"#utility.yul\":1876:2274   */\n      swap2\n      swap1\n      pop\n      jump\t// out\n        /* \"#utility.yul\":2280:2659   */\n    tag_16:\n        /* \"#utility.yul\":2464:2467   */\n      0x00\n        /* \"#utility.yul\":2486:2633   */\n      tag_68\n        /* \"#utility.yul\":2629:2632   */\n      dup3\n        /* \"#utility.yul\":2486:2633   */\n      tag_37\n      jump\t// in\n    tag_68:\n        /* \"#utility.yul\":2479:2633   */\n      swap2\n      pop\n        /* \"#utility.yul\":2650:2653   */\n      dup2\n        /* \"#utility.yul\":2643:2653   */\n      swap1\n      pop\n        /* \"#utility.yul\":2280:2659   */\n      swap2\n      swap1\n      pop\n      jump\t// out\n        /* \"#utility.yul\":2665:2834   */\n    tag_38:\n        /* \"#utility.yul\":2749:2760   */\n      0x00\n        /* \"#utility.yul\":2783:2789   */\n      dup3\n        /* \"#utility.yul\":2778:2781   */\n      dup3\n        /* \"#utility.yul\":2771:2790   */\n      mstore\n        /* \"#utility.yul\":2823:2827   */\n      0x20\n        /* \"#utility.yul\":2818:2821   */\n      dup3\n        /* \"#utility.yul\":2814:2828   */\n      add\n        /* \"#utility.yul\":2799:2828   */\n      swap1\n      pop\n        /* \"#utility.yul\":2665:2834   */\n      swap3\n      swap2\n      pop\n      pop\n      jump\t// out\n        /* \"#utility.yul\":2840:3011   */\n    tag_39:\n        /* \"#utility.yul\":2980:3003   */\n      0x7472616e73666572206574686572206661696c65640000000000000000000000\n        /* \"#utility.yul\":2976:2977   */\n      0x00\n        /* \"#utility.yul\":2968:2974   */\n      dup3\n        /* \"#utility.yul\":2964:2978   */\n      add\n        /* \"#utility.yul\":2957:3004   */\n      mstore\n        /* \"#utility.yul\":2840:3011   */\n      pop\n      jump\t// out\n        /* \"#utility.yul\":3017:3383   */\n    tag_40:\n        /* \"#utility.yul\":3159:3162   */\n      0x00\n        /* \"#utility.yul\":3180:3247   */\n      tag_72\n        /* \"#utility.yul\":3244:3246   */\n      0x15\n        /* \"#utility.yul\":3239:3242   */\n      dup4\n        /* \"#utility.yul\":3180:3247   */\n      tag_38\n      jump\t// in\n    tag_72:\n        /* \"#utility.yul\":3173:3247   */\n      swap2\n      pop\n        /* \"#utility.yul\":3256:3349   */\n      tag_73\n        /* \"#utility.yul\":3345:3348   */\n      dup3\n        /* \"#utility.yul\":3256:3349   */\n      tag_39\n      jump\t// in\n    tag_73:\n        /* \"#utility.yul\":3374:3376   */\n      0x20\n        /* \"#utility.yul\":3369:3372   */\n      dup3\n        /* \"#utility.yul\":3365:3377   */\n      add\n        /* \"#utility.yul\":3358:3377   */\n      swap1\n      pop\n        /* \"#utility.yul\":3017:3383   */\n      swap2\n      swap1\n      pop\n      jump\t// out\n        /* \"#utility.yul\":3389:3808   */\n    tag_22:\n        /* \"#utility.yul\":3555:3559   */\n      0x00\n        /* \"#utility.yul\":3593:3595   */\n      0x20\n        /* \"#utility.yul\":3582:3591   */\n      dup3\n        /* \"#utility.yul\":3578:3596   */\n      add\n        /* \"#utility.yul\":3570:3596   */\n      swap1\n      pop\n        /* \"#utility.yul\":3642:3651   */\n      dup2\n        /* \"#utility.yul\":3636:3640   */\n      dup2\n        /* \"#utility.yul\":3632:3652   */\n      sub\n        /* \"#utility.yul\":3628:3629   */\n      0x00\n        /* \"#utility.yul\":3617:3626   */\n      dup4\n        /* \"#utility.yul\":3613:3630   */\n      add\n        /* \"#utility.yul\":3606:3653   */\n      mstore\n        /* \"#utility.yul\":3670:3801   */\n      tag_75\n        /* \"#utility.yul\":3796:3800   */\n      dup2\n        /* \"#utility.yul\":3670:3801   */\n      tag_40\n      jump\t// in\n    tag_75:\n        /* \"#utility.yul\":3662:3801   */\n      swap1\n      pop\n        /* \"#utility.yul\":3389:3808   */\n      swap2\n      swap1\n      pop\n      jump\t// out\n\n    auxdata: 0xa26469706673582212202b2da5035537137dd00152e56dc60fa586d12f15eb3fb34b746ed9f44b4c055e64736f6c63430008110033\n}\n",
				"bytecode": {
					"linkReferences": {},
					"object": "6080604052610356806100136000396000f3fe608060405234801561001057600080fd5b50600436106100365760003560e01c806313b740951461003b5780636b55e99114610057575b600080fd5b610055600480360381019061005091906101fa565b610087565b005b610071600480360381019061006c91906101fa565b61013e565b60405161007e9190610242565b60405180910390f35b60008173ffffffffffffffffffffffffffffffffffffffff16662386f26fc100006040516100b49061028e565b60006040518083038185875af1925050503d80600081146100f1576040519150601f19603f3d011682016040523d82523d6000602084013e6100f6565b606091505b505090508061013a576040517f08c379a000000000000000000000000000000000000000000000000000000000815260040161013190610300565b60405180910390fd5b5050565b60008173ffffffffffffffffffffffffffffffffffffffff166108fc662386f26fc100009081150290604051600060405180830381858888f1935050505015801561018d573d6000803e3d6000fd5b5060019050919050565b600080fd5b600073ffffffffffffffffffffffffffffffffffffffff82169050919050565b60006101c78261019c565b9050919050565b6101d7816101bc565b81146101e257600080fd5b50565b6000813590506101f4816101ce565b92915050565b6000602082840312156102105761020f610197565b5b600061021e848285016101e5565b91505092915050565b60008115159050919050565b61023c81610227565b82525050565b60006020820190506102576000830184610233565b92915050565b600081905092915050565b50565b600061027860008361025d565b915061028382610268565b600082019050919050565b60006102998261026b565b9150819050919050565b600082825260208201905092915050565b7f7472616e73666572206574686572206661696c65640000000000000000000000600082015250565b60006102ea6015836102a3565b91506102f5826102b4565b602082019050919050565b60006020820190508181036000830152610319816102dd565b905091905056fea26469706673582212202b2da5035537137dd00152e56dc60fa586d12f15eb3fb34b746ed9f44b4c055e64736f6c63430008110033",
					"opcodes": "PUSH1 0x80 PUSH1 0x40 MSTORE PUSH2 0x356 DUP1 PUSH2 0x13 PUSH1 0x0 CODECOPY PUSH1 0x0 RETURN INVALID PUSH1 0x80 PUSH1 0x40 MSTORE CALLVALUE DUP1 ISZERO PUSH2 0x10 JUMPI PUSH1 0x0 DUP1 REVERT JUMPDEST POP PUSH1 0x4 CALLDATASIZE LT PUSH2 0x36 JUMPI PUSH1 0x0 CALLDATALOAD PUSH1 0xE0 SHR DUP1 PUSH4 0x13B74095 EQ PUSH2 0x3B JUMPI DUP1 PUSH4 0x6B55E991 EQ PUSH2 0x57 JUMPI JUMPDEST PUSH1 0x0 DUP1 REVERT JUMPDEST PUSH2 0x55 PUSH1 0x4 DUP1 CALLDATASIZE SUB DUP2 ADD SWAP1 PUSH2 0x50 SWAP2 SWAP1 PUSH2 0x1FA JUMP JUMPDEST PUSH2 0x87 JUMP JUMPDEST STOP JUMPDEST PUSH2 0x71 PUSH1 0x4 DUP1 CALLDATASIZE SUB DUP2 ADD SWAP1 PUSH2 0x6C SWAP2 SWAP1 PUSH2 0x1FA JUMP JUMPDEST PUSH2 0x13E JUMP JUMPDEST PUSH1 0x40 MLOAD PUSH2 0x7E SWAP2 SWAP1 PUSH2 0x242 JUMP JUMPDEST PUSH1 0x40 MLOAD DUP1 SWAP2 SUB SWAP1 RETURN JUMPDEST PUSH1 0x0 DUP2 PUSH20 0xFFFFFFFFFFFFFFFFFFFFFFFFFFFFFFFFFFFFFFFF AND PUSH7 0x2386F26FC10000 PUSH1 0x40 MLOAD PUSH2 0xB4 SWAP1 PUSH2 0x28E JUMP JUMPDEST PUSH1 0x0 PUSH1 0x40 MLOAD DUP1 DUP4 SUB DUP2 DUP6 DUP8 GAS CALL SWAP3 POP POP POP RETURNDATASIZE DUP1 PUSH1 0x0 DUP2 EQ PUSH2 0xF1 JUMPI PUSH1 0x40 MLOAD SWAP2 POP PUSH1 0x1F NOT PUSH1 0x3F RETURNDATASIZE ADD AND DUP3 ADD PUSH1 0x40 MSTORE RETURNDATASIZE DUP3 MSTORE RETURNDATASIZE PUSH1 0x0 PUSH1 0x20 DUP5 ADD RETURNDATACOPY PUSH2 0xF6 JUMP JUMPDEST PUSH1 0x60 SWAP2 POP JUMPDEST POP POP SWAP1 POP DUP1 PUSH2 0x13A JUMPI PUSH1 0x40 MLOAD PUSH32 0x8C379A000000000000000000000000000000000000000000000000000000000 DUP2 MSTORE PUSH1 0x4 ADD PUSH2 0x131 SWAP1 PUSH2 0x300 JUMP JUMPDEST PUSH1 0x40 MLOAD DUP1 SWAP2 SUB SWAP1 REVERT JUMPDEST POP POP JUMP JUMPDEST PUSH1 0x0 DUP2 PUSH20 0xFFFFFFFFFFFFFFFFFFFFFFFFFFFFFFFFFFFFFFFF AND PUSH2 0x8FC PUSH7 0x2386F26FC10000 SWAP1 DUP2 ISZERO MUL SWAP1 PUSH1 0x40 MLOAD PUSH1 0x0 PUSH1 0x40 MLOAD DUP1 DUP4 SUB DUP2 DUP6 DUP9 DUP9 CALL SWAP4 POP POP POP POP ISZERO DUP1 ISZERO PUSH2 0x18D JUMPI RETURNDATASIZE PUSH1 0x0 DUP1 RETURNDATACOPY RETURNDATASIZE PUSH1 0x0 REVERT JUMPDEST POP PUSH1 0x1 SWAP1 POP SWAP2 SWAP1 POP JUMP JUMPDEST PUSH1 0x0 DUP1 REVERT JUMPDEST PUSH1 0x0 PUSH20 0xFFFFFFFFFFFFFFFFFFFFFFFFFFFFFFFFFFFFFFFF DUP3 AND SWAP1 POP SWAP2 SWAP1 POP JUMP JUMPDEST PUSH1 0x0 PUSH2 0x1C7 DUP3 PUSH2 0x19C JUMP JUMPDEST SWAP1 POP SWAP2 SWAP1 POP JUMP JUMPDEST PUSH2 0x1D7 DUP2 PUSH2 0x1BC JUMP JUMPDEST DUP2 EQ PUSH2 0x1E2 JUMPI PUSH1 0x0 DUP1 REVERT JUMPDEST POP JUMP JUMPDEST PUSH1 0x0 DUP2 CALLDATALOAD SWAP1 POP PUSH2 0x1F4 DUP2 PUSH2 0x1CE JUMP JUMPDEST SWAP3 SWAP2 POP POP JUMP JUMPDEST PUSH1 0x0 PUSH1 0x20 DUP3 DUP5 SUB SLT ISZERO PUSH2 0x210 JUMPI PUSH2 0x20F PUSH2 0x197 JUMP JUMPDEST JUMPDEST PUSH1 0x0 PUSH2 0x21E DUP5 DUP3 DUP6 ADD PUSH2 0x1E5 JUMP JUMPDEST SWAP2 POP POP SWAP3 SWAP2 POP POP JUMP JUMPDEST PUSH1 0x0 DUP2 ISZERO ISZERO SWAP1 POP SWAP2 SWAP1 POP JUMP JUMPDEST PUSH2 0x23C DUP2 PUSH2 0x227 JUMP JUMPDEST DUP3 MSTORE POP POP JUMP JUMPDEST PUSH1 0x0 PUSH1 0x20 DUP3 ADD SWAP1 POP PUSH2 0x257 PUSH1 0x0 DUP4 ADD DUP5 PUSH2 0x233 JUMP JUMPDEST SWAP3 SWAP2 POP POP JUMP JUMPDEST PUSH1 0x0 DUP2 SWAP1 POP SWAP3 SWAP2 POP POP JUMP JUMPDEST POP JUMP JUMPDEST PUSH1 0x0 PUSH2 0x278 PUSH1 0x0 DUP4 PUSH2 0x25D JUMP JUMPDEST SWAP2 POP PUSH2 0x283 DUP3 PUSH2 0x268 JUMP JUMPDEST PUSH1 0x0 DUP3 ADD SWAP1 POP SWAP2 SWAP1 POP JUMP JUMPDEST PUSH1 0x0 PUSH2 0x299 DUP3 PUSH2 0x26B JUMP JUMPDEST SWAP2 POP DUP2 SWAP1 POP SWAP2 SWAP1 POP JUMP JUMPDEST PUSH1 0x0 DUP3 DUP3 MSTORE PUSH1 0x20 DUP3 ADD SWAP1 POP SWAP3 SWAP2 POP POP JUMP JUMPDEST PUSH32 0x7472616E73666572206574686572206661696C65640000000000000000000000 PUSH1 0x0 DUP3 ADD MSTORE POP JUMP JUMPDEST PUSH1 0x0 PUSH2 0x2EA PUSH1 0x15 DUP4 PUSH2 0x2A3 JUMP JUMPDEST SWAP2 POP PUSH2 0x2F5 DUP3 PUSH2 0x2B4 JUMP JUMPDEST PUSH1 0x20 DUP3 ADD SWAP1 POP SWAP2 SWAP1 POP JUMP JUMPDEST PUSH1 0x0 PUSH1 0x20 DUP3 ADD SWAP1 POP DUP2 DUP2 SUB PUSH1 0x0 DUP4 ADD MSTORE PUSH2 0x319 DUP2 PUSH2 0x2DD JUMP JUMPDEST SWAP1 POP SWAP2 SWAP1 POP JUMP INVALID LOG2 PUSH5 0x6970667358 0x22 SLT KECCAK256 0x2B 0x2D 0xA5 SUB SSTORE CALLDATACOPY SGT PUSH30 0xD00152E56DC60FA586D12F15EB3FB34B746ED9F44B4C055E64736F6C6343 STOP ADDMOD GT STOP CALLER "
				},
				"gasEstimates": {
					"creation": {
						"codeDepositCost": "170800",
						"executionCost": "190",
						"totalCost": "170990"
					},
					"external": {
						"transferEther(address)": "infinite",
						"transferEtherViaCall(address)": "infinite"
					}
				},
				"methodIdentifiers": {
					"transferEther(address)": "6b55e991",
					"transferEtherViaCall(address)": "13b74095"
				}
			},
			"storageLayout": {
				"storage": [],
				"types": null
			},
			"userdoc": {
				"kind": "user",
				"methods": {},
				"version": 1
			}
		}
	}
}