{
	"data": {
		"bytecode": {
			"linkReferences": {},
			"object": "608060405234801561001057600080fd5b50610233806100206000396000f3fe608060405234801561001057600080fd5b506004361061002b5760003560e01c8063500e135514610030575b600080fd5b61003861003a565b005b6000600367ffffffffffffffff8111156100575761005661019f565b5b6040519080825280602002602001820160405280156100855781602001602082028036833780820191505090505b50905060018160008151811061009e5761009d6101ce565b5b6020026020010181815250506003816001815181106100c0576100bf6101ce565b5b6020026020010181815250506005816002815181106100e2576100e16101ce565b5b6020026020010181815250506000604051806080016040528060018152602001600581526020016007815260200160098152509050600060405180604001604052806040518060400160405280600581526020017f68656c6c6f00000000000000000000000000000000000000000000000000000081525081526020016040518060400160405280600881526020017f736f6c69646974790000000000000000000000000000000000000000000000008152508152509050505050565b7f4e487b7100000000000000000000000000000000000000000000000000000000600052604160045260246000fd5b7f4e487b7100000000000000000000000000000000000000000000000000000000600052603260045260246000fdfea264697066735822122049ad26edf5845cf8b4563d06094d80d78a6248fee1356574518a200aa3cbe2de64736f6c63430008110033",
			"opcodes": "PUSH1 0x80 PUSH1 0x40 MSTORE CALLVALUE DUP1 ISZERO PUSH2 0x10 JUMPI PUSH1 0x0 DUP1 REVERT JUMPDEST POP PUSH2 0x233 DUP1 PUSH2 0x20 PUSH1 0x0 CODECOPY PUSH1 0x0 RETURN INVALID PUSH1 0x80 PUSH1 0x40 MSTORE CALLVALUE DUP1 ISZERO PUSH2 0x10 JUMPI PUSH1 0x0 DUP1 REVERT JUMPDEST POP PUSH1 0x4 CALLDATASIZE LT PUSH2 0x2B JUMPI PUSH1 0x0 CALLDATALOAD PUSH1 0xE0 SHR DUP1 PUSH4 0x500E1355 EQ PUSH2 0x30 JUMPI JUMPDEST PUSH1 0x0 DUP1 REVERT JUMPDEST PUSH2 0x38 PUSH2 0x3A JUMP JUMPDEST STOP JUMPDEST PUSH1 0x0 PUSH1 0x3 PUSH8 0xFFFFFFFFFFFFFFFF DUP2 GT ISZERO PUSH2 0x57 JUMPI PUSH2 0x56 PUSH2 0x19F JUMP JUMPDEST JUMPDEST PUSH1 0x40 MLOAD SWAP1 DUP1 DUP3 MSTORE DUP1 PUSH1 0x20 MUL PUSH1 0x20 ADD DUP3 ADD PUSH1 0x40 MSTORE DUP1 ISZERO PUSH2 0x85 JUMPI DUP2 PUSH1 0x20 ADD PUSH1 0x20 DUP3 MUL DUP1 CALLDATASIZE DUP4 CALLDATACOPY DUP1 DUP3 ADD SWAP2 POP POP SWAP1 POP JUMPDEST POP SWAP1 POP PUSH1 0x1 DUP2 PUSH1 0x0 DUP2 MLOAD DUP2 LT PUSH2 0x9E JUMPI PUSH2 0x9D PUSH2 0x1CE JUMP JUMPDEST JUMPDEST PUSH1 0x20 MUL PUSH1 0x20 ADD ADD DUP2 DUP2 MSTORE POP POP PUSH1 0x3 DUP2 PUSH1 0x1 DUP2 MLOAD DUP2 LT PUSH2 0xC0 JUMPI PUSH2 0xBF PUSH2 0x1CE JUMP JUMPDEST JUMPDEST PUSH1 0x20 MUL PUSH1 0x20 ADD ADD DUP2 DUP2 MSTORE POP POP PUSH1 0x5 DUP2 PUSH1 0x2 DUP2 MLOAD DUP2 LT PUSH2 0xE2 JUMPI PUSH2 0xE1 PUSH2 0x1CE JUMP JUMPDEST JUMPDEST PUSH1 0x20 MUL PUSH1 0x20 ADD ADD DUP2 DUP2 MSTORE POP POP PUSH1 0x0 PUSH1 0x40 MLOAD DUP1 PUSH1 0x80 ADD PUSH1 0x40 MSTORE DUP1 PUSH1 0x1 DUP2 MSTORE PUSH1 0x20 ADD PUSH1 0x5 DUP2 MSTORE PUSH1 0x20 ADD PUSH1 0x7 DUP2 MSTORE PUSH1 0x20 ADD PUSH1 0x9 DUP2 MSTORE POP SWAP1 POP PUSH1 0x0 PUSH1 0x40 MLOAD DUP1 PUSH1 0x40 ADD PUSH1 0x40 MSTORE DUP1 PUSH1 0x40 MLOAD DUP1 PUSH1 0x40 ADD PUSH1 0x40 MSTORE DUP1 PUSH1 0x5 DUP2 MSTORE PUSH1 0x20 ADD PUSH32 0x68656C6C6F000000000000000000000000000000000000000000000000000000 DUP2 MSTORE POP DUP2 MSTORE PUSH1 0x20 ADD PUSH1 0x40 MLOAD DUP1 PUSH1 0x40 ADD PUSH1 0x40 MSTORE DUP1 PUSH1 0x8 DUP2 MSTORE PUSH1 0x20 ADD PUSH32 0x736F6C6964697479000000000000000000000000000000000000000000000000 DUP2 MSTORE POP DUP2 MSTORE POP SWAP1 POP POP POP POP JUMP JUMPDEST PUSH32 0x4E487B7100000000000000000000000000000000000000000000000000000000 PUSH1 0x0 MSTORE PUSH1 0x41 PUSH1 0x4 MSTORE PUSH1 0x24 PUSH1 0x0 REVERT JUMPDEST PUSH32 0x4E487B7100000000000000000000000000000000000000000000000000000000 PUSH1 0x0 MSTORE PUSH1 0x32 PUSH1 0x4 MSTORE PUSH1 0x24 PUSH1 0x0 REVERT INVALID LOG2 PUSH5 0x6970667358 0x22 SLT KECCAK256 0x49 0xAD 0x26 0xED CREATE2 DUP5 0x5C 0xF8 0xB4 JUMP RETURNDATASIZE MOD MULMOD 0x4D DUP1 0xD7 DUP11 PUSH3 0x48FEE1 CALLDATALOAD PUSH6 0x74518A200AA3 0xCB 0xE2 0xDE PUSH5 0x736F6C6343 STOP ADDMOD GT STOP CALLER "
		},
		"gasEstimates": {
			"creation": {
				"codeDepositCost": "112600",
				"executionCost": "159",
				"totalCost": "112759"
			},
			"external": {
				"memoryArray()": "infinite"
			}
		},
		"methodIdentifiers": {
			"memoryArray()": "500e1355"
		}
	},
	"abi": [
		{
			"inputs": [],
			"name": "memoryArray",
			"outputs": [],
			"stateMutability": "nonpayable",
			"type": "function"
		}
	]
}