{
	"data": {
		"bytecode": {
			"linkReferences": {},
			"object": "608060405234801561001057600080fd5b506106d8806100206000396000f3fe608060405234801561001057600080fd5b50600436106100575760003560e01c806366e41cb71461005c578063670ea637146100665780636b59084d14610082578063d39fa2331461008c578063e91e5843146100bc575b600080fd5b6100646100d8565b005b610080600480360381019061007b91906104df565b610130565b005b61008a6101f3565b005b6100a660048036038101906100a191906104df565b610320565b6040516100b3919061051b565b60405180910390f35b6100d660048036038101906100d191906104df565b610344565b005b6040518060a00160405280600160ff168152602001600260ff168152602001600360ff168152602001600460ff168152602001600560ff168152506000906005610123929190610435565b5061012e6002610344565b565b6000808054905090506001816101469190610565565b820361017957600080548061015e5761015d610599565b5b600190038181906000526020600020016000905590556101ef565b60006001826101889190610565565b81548110610199576101986105c8565b5b9060005260206000200154600083815481106101b8576101b76105c8565b5b906000526020600020018190555060008054806101d8576101d7610599565b5b600190038181906000526020600020016000905590555b5050565b6040518060a00160405280600160ff168152602001600260ff168152602001600360ff168152602001600460ff168152602001600560ff16815250600090600561023e929190610435565b506102496002610130565b60046000805490501461025f5761025e6105f7565b5b600160008081548110610275576102746105c8565b5b90600052602060002001541461028e5761028d6105f7565b5b600260006001815481106102a5576102a46105c8565b5b9060005260206000200154146102be576102bd6105f7565b5b600560006002815481106102d5576102d46105c8565b5b9060005260206000200154146102ee576102ed6105f7565b5b60046000600381548110610305576103046105c8565b5b90600052602060002001541461031e5761031d6105f7565b5b565b6000818154811061033057600080fd5b906000526020600020016000915090505481565b60008080549050905060018161035a9190610565565b820361038d57600080548061037257610371610599565b5b60019003818190600052602060002001600090559055610431565b60008290505b6001826103a09190610565565b8110156104075760006001826103b69190610626565b815481106103c7576103c66105c8565b5b9060005260206000200154600082815481106103e6576103e56105c8565b5b906000526020600020018190555080806103ff9061065a565b915050610393565b50600080548061041a57610419610599565b5b600190038181906000526020600020016000905590555b5050565b828054828255906000526020600020908101928215610476579160200282015b82811115610475578251829060ff16905591602001919060010190610455565b5b5090506104839190610487565b5090565b5b808211156104a0576000816000905550600101610488565b5090565b600080fd5b6000819050919050565b6104bc816104a9565b81146104c757600080fd5b50565b6000813590506104d9816104b3565b92915050565b6000602082840312156104f5576104f46104a4565b5b6000610503848285016104ca565b91505092915050565b610515816104a9565b82525050565b6000602082019050610530600083018461050c565b92915050565b7f4e487b7100000000000000000000000000000000000000000000000000000000600052601160045260246000fd5b6000610570826104a9565b915061057b836104a9565b925082820390508181111561059357610592610536565b5b92915050565b7f4e487b7100000000000000000000000000000000000000000000000000000000600052603160045260246000fd5b7f4e487b7100000000000000000000000000000000000000000000000000000000600052603260045260246000fd5b7f4e487b7100000000000000000000000000000000000000000000000000000000600052600160045260246000fd5b6000610631826104a9565b915061063c836104a9565b925082820190508082111561065457610653610536565b5b92915050565b6000610665826104a9565b91507fffffffffffffffffffffffffffffffffffffffffffffffffffffffffffffffff820361069757610696610536565b5b60018201905091905056fea26469706673582212207160db7facd3a99c5fa3935ccca3f2d2b6c3ea6031cbd34388159d304a25308964736f6c63430008110033",
			"opcodes": "PUSH1 0x80 PUSH1 0x40 MSTORE CALLVALUE DUP1 ISZERO PUSH2 0x10 JUMPI PUSH1 0x0 DUP1 REVERT JUMPDEST POP PUSH2 0x6D8 DUP1 PUSH2 0x20 PUSH1 0x0 CODECOPY PUSH1 0x0 RETURN INVALID PUSH1 0x80 PUSH1 0x40 MSTORE CALLVALUE DUP1 ISZERO PUSH2 0x10 JUMPI PUSH1 0x0 DUP1 REVERT JUMPDEST POP PUSH1 0x4 CALLDATASIZE LT PUSH2 0x57 JUMPI PUSH1 0x0 CALLDATALOAD PUSH1 0xE0 SHR DUP1 PUSH4 0x66E41CB7 EQ PUSH2 0x5C JUMPI DUP1 PUSH4 0x670EA637 EQ PUSH2 0x66 JUMPI DUP1 PUSH4 0x6B59084D EQ PUSH2 0x82 JUMPI DUP1 PUSH4 0xD39FA233 EQ PUSH2 0x8C JUMPI DUP1 PUSH4 0xE91E5843 EQ PUSH2 0xBC JUMPI JUMPDEST PUSH1 0x0 DUP1 REVERT JUMPDEST PUSH2 0x64 PUSH2 0xD8 JUMP JUMPDEST STOP JUMPDEST PUSH2 0x80 PUSH1 0x4 DUP1 CALLDATASIZE SUB DUP2 ADD SWAP1 PUSH2 0x7B SWAP2 SWAP1 PUSH2 0x4DF JUMP JUMPDEST PUSH2 0x130 JUMP JUMPDEST STOP JUMPDEST PUSH2 0x8A PUSH2 0x1F3 JUMP JUMPDEST STOP JUMPDEST PUSH2 0xA6 PUSH1 0x4 DUP1 CALLDATASIZE SUB DUP2 ADD SWAP1 PUSH2 0xA1 SWAP2 SWAP1 PUSH2 0x4DF JUMP JUMPDEST PUSH2 0x320 JUMP JUMPDEST PUSH1 0x40 MLOAD PUSH2 0xB3 SWAP2 SWAP1 PUSH2 0x51B JUMP JUMPDEST PUSH1 0x40 MLOAD DUP1 SWAP2 SUB SWAP1 RETURN JUMPDEST PUSH2 0xD6 PUSH1 0x4 DUP1 CALLDATASIZE SUB DUP2 ADD SWAP1 PUSH2 0xD1 SWAP2 SWAP1 PUSH2 0x4DF JUMP JUMPDEST PUSH2 0x344 JUMP JUMPDEST STOP JUMPDEST PUSH1 0x40 MLOAD DUP1 PUSH1 0xA0 ADD PUSH1 0x40 MSTORE DUP1 PUSH1 0x1 PUSH1 0xFF AND DUP2 MSTORE PUSH1 0x20 ADD PUSH1 0x2 PUSH1 0xFF AND DUP2 MSTORE PUSH1 0x20 ADD PUSH1 0x3 PUSH1 0xFF AND DUP2 MSTORE PUSH1 0x20 ADD PUSH1 0x4 PUSH1 0xFF AND DUP2 MSTORE PUSH1 0x20 ADD PUSH1 0x5 PUSH1 0xFF AND DUP2 MSTORE POP PUSH1 0x0 SWAP1 PUSH1 0x5 PUSH2 0x123 SWAP3 SWAP2 SWAP1 PUSH2 0x435 JUMP JUMPDEST POP PUSH2 0x12E PUSH1 0x2 PUSH2 0x344 JUMP JUMPDEST JUMP JUMPDEST PUSH1 0x0 DUP1 DUP1 SLOAD SWAP1 POP SWAP1 POP PUSH1 0x1 DUP2 PUSH2 0x146 SWAP2 SWAP1 PUSH2 0x565 JUMP JUMPDEST DUP3 SUB PUSH2 0x179 JUMPI PUSH1 0x0 DUP1 SLOAD DUP1 PUSH2 0x15E JUMPI PUSH2 0x15D PUSH2 0x599 JUMP JUMPDEST JUMPDEST PUSH1 0x1 SWAP1 SUB DUP2 DUP2 SWAP1 PUSH1 0x0 MSTORE PUSH1 0x20 PUSH1 0x0 KECCAK256 ADD PUSH1 0x0 SWAP1 SSTORE SWAP1 SSTORE PUSH2 0x1EF JUMP JUMPDEST PUSH1 0x0 PUSH1 0x1 DUP3 PUSH2 0x188 SWAP2 SWAP1 PUSH2 0x565 JUMP JUMPDEST DUP2 SLOAD DUP2 LT PUSH2 0x199 JUMPI PUSH2 0x198 PUSH2 0x5C8 JUMP JUMPDEST JUMPDEST SWAP1 PUSH1 0x0 MSTORE PUSH1 0x20 PUSH1 0x0 KECCAK256 ADD SLOAD PUSH1 0x0 DUP4 DUP2 SLOAD DUP2 LT PUSH2 0x1B8 JUMPI PUSH2 0x1B7 PUSH2 0x5C8 JUMP JUMPDEST JUMPDEST SWAP1 PUSH1 0x0 MSTORE PUSH1 0x20 PUSH1 0x0 KECCAK256 ADD DUP2 SWAP1 SSTORE POP PUSH1 0x0 DUP1 SLOAD DUP1 PUSH2 0x1D8 JUMPI PUSH2 0x1D7 PUSH2 0x599 JUMP JUMPDEST JUMPDEST PUSH1 0x1 SWAP1 SUB DUP2 DUP2 SWAP1 PUSH1 0x0 MSTORE PUSH1 0x20 PUSH1 0x0 KECCAK256 ADD PUSH1 0x0 SWAP1 SSTORE SWAP1 SSTORE JUMPDEST POP POP JUMP JUMPDEST PUSH1 0x40 MLOAD DUP1 PUSH1 0xA0 ADD PUSH1 0x40 MSTORE DUP1 PUSH1 0x1 PUSH1 0xFF AND DUP2 MSTORE PUSH1 0x20 ADD PUSH1 0x2 PUSH1 0xFF AND DUP2 MSTORE PUSH1 0x20 ADD PUSH1 0x3 PUSH1 0xFF AND DUP2 MSTORE PUSH1 0x20 ADD PUSH1 0x4 PUSH1 0xFF AND DUP2 MSTORE PUSH1 0x20 ADD PUSH1 0x5 PUSH1 0xFF AND DUP2 MSTORE POP PUSH1 0x0 SWAP1 PUSH1 0x5 PUSH2 0x23E SWAP3 SWAP2 SWAP1 PUSH2 0x435 JUMP JUMPDEST POP PUSH2 0x249 PUSH1 0x2 PUSH2 0x130 JUMP JUMPDEST PUSH1 0x4 PUSH1 0x0 DUP1 SLOAD SWAP1 POP EQ PUSH2 0x25F JUMPI PUSH2 0x25E PUSH2 0x5F7 JUMP JUMPDEST JUMPDEST PUSH1 0x1 PUSH1 0x0 DUP1 DUP2 SLOAD DUP2 LT PUSH2 0x275 JUMPI PUSH2 0x274 PUSH2 0x5C8 JUMP JUMPDEST JUMPDEST SWAP1 PUSH1 0x0 MSTORE PUSH1 0x20 PUSH1 0x0 KECCAK256 ADD SLOAD EQ PUSH2 0x28E JUMPI PUSH2 0x28D PUSH2 0x5F7 JUMP JUMPDEST JUMPDEST PUSH1 0x2 PUSH1 0x0 PUSH1 0x1 DUP2 SLOAD DUP2 LT PUSH2 0x2A5 JUMPI PUSH2 0x2A4 PUSH2 0x5C8 JUMP JUMPDEST JUMPDEST SWAP1 PUSH1 0x0 MSTORE PUSH1 0x20 PUSH1 0x0 KECCAK256 ADD SLOAD EQ PUSH2 0x2BE JUMPI PUSH2 0x2BD PUSH2 0x5F7 JUMP JUMPDEST JUMPDEST PUSH1 0x5 PUSH1 0x0 PUSH1 0x2 DUP2 SLOAD DUP2 LT PUSH2 0x2D5 JUMPI PUSH2 0x2D4 PUSH2 0x5C8 JUMP JUMPDEST JUMPDEST SWAP1 PUSH1 0x0 MSTORE PUSH1 0x20 PUSH1 0x0 KECCAK256 ADD SLOAD EQ PUSH2 0x2EE JUMPI PUSH2 0x2ED PUSH2 0x5F7 JUMP JUMPDEST JUMPDEST PUSH1 0x4 PUSH1 0x0 PUSH1 0x3 DUP2 SLOAD DUP2 LT PUSH2 0x305 JUMPI PUSH2 0x304 PUSH2 0x5C8 JUMP JUMPDEST JUMPDEST SWAP1 PUSH1 0x0 MSTORE PUSH1 0x20 PUSH1 0x0 KECCAK256 ADD SLOAD EQ PUSH2 0x31E JUMPI PUSH2 0x31D PUSH2 0x5F7 JUMP JUMPDEST JUMPDEST JUMP JUMPDEST PUSH1 0x0 DUP2 DUP2 SLOAD DUP2 LT PUSH2 0x330 JUMPI PUSH1 0x0 DUP1 REVERT JUMPDEST SWAP1 PUSH1 0x0 MSTORE PUSH1 0x20 PUSH1 0x0 KECCAK256 ADD PUSH1 0x0 SWAP2 POP SWAP1 POP SLOAD DUP2 JUMP JUMPDEST PUSH1 0x0 DUP1 DUP1 SLOAD SWAP1 POP SWAP1 POP PUSH1 0x1 DUP2 PUSH2 0x35A SWAP2 SWAP1 PUSH2 0x565 JUMP JUMPDEST DUP3 SUB PUSH2 0x38D JUMPI PUSH1 0x0 DUP1 SLOAD DUP1 PUSH2 0x372 JUMPI PUSH2 0x371 PUSH2 0x599 JUMP JUMPDEST JUMPDEST PUSH1 0x1 SWAP1 SUB DUP2 DUP2 SWAP1 PUSH1 0x0 MSTORE PUSH1 0x20 PUSH1 0x0 KECCAK256 ADD PUSH1 0x0 SWAP1 SSTORE SWAP1 SSTORE PUSH2 0x431 JUMP JUMPDEST PUSH1 0x0 DUP3 SWAP1 POP JUMPDEST PUSH1 0x1 DUP3 PUSH2 0x3A0 SWAP2 SWAP1 PUSH2 0x565 JUMP JUMPDEST DUP2 LT ISZERO PUSH2 0x407 JUMPI PUSH1 0x0 PUSH1 0x1 DUP3 PUSH2 0x3B6 SWAP2 SWAP1 PUSH2 0x626 JUMP JUMPDEST DUP2 SLOAD DUP2 LT PUSH2 0x3C7 JUMPI PUSH2 0x3C6 PUSH2 0x5C8 JUMP JUMPDEST JUMPDEST SWAP1 PUSH1 0x0 MSTORE PUSH1 0x20 PUSH1 0x0 KECCAK256 ADD SLOAD PUSH1 0x0 DUP3 DUP2 SLOAD DUP2 LT PUSH2 0x3E6 JUMPI PUSH2 0x3E5 PUSH2 0x5C8 JUMP JUMPDEST JUMPDEST SWAP1 PUSH1 0x0 MSTORE PUSH1 0x20 PUSH1 0x0 KECCAK256 ADD DUP2 SWAP1 SSTORE POP DUP1 DUP1 PUSH2 0x3FF SWAP1 PUSH2 0x65A JUMP JUMPDEST SWAP2 POP POP PUSH2 0x393 JUMP JUMPDEST POP PUSH1 0x0 DUP1 SLOAD DUP1 PUSH2 0x41A JUMPI PUSH2 0x419 PUSH2 0x599 JUMP JUMPDEST JUMPDEST PUSH1 0x1 SWAP1 SUB DUP2 DUP2 SWAP1 PUSH1 0x0 MSTORE PUSH1 0x20 PUSH1 0x0 KECCAK256 ADD PUSH1 0x0 SWAP1 SSTORE SWAP1 SSTORE JUMPDEST POP POP JUMP JUMPDEST DUP3 DUP1 SLOAD DUP3 DUP3 SSTORE SWAP1 PUSH1 0x0 MSTORE PUSH1 0x20 PUSH1 0x0 KECCAK256 SWAP1 DUP2 ADD SWAP3 DUP3 ISZERO PUSH2 0x476 JUMPI SWAP2 PUSH1 0x20 MUL DUP3 ADD JUMPDEST DUP3 DUP2 GT ISZERO PUSH2 0x475 JUMPI DUP3 MLOAD DUP3 SWAP1 PUSH1 0xFF AND SWAP1 SSTORE SWAP2 PUSH1 0x20 ADD SWAP2 SWAP1 PUSH1 0x1 ADD SWAP1 PUSH2 0x455 JUMP JUMPDEST JUMPDEST POP SWAP1 POP PUSH2 0x483 SWAP2 SWAP1 PUSH2 0x487 JUMP JUMPDEST POP SWAP1 JUMP JUMPDEST JUMPDEST DUP1 DUP3 GT ISZERO PUSH2 0x4A0 JUMPI PUSH1 0x0 DUP2 PUSH1 0x0 SWAP1 SSTORE POP PUSH1 0x1 ADD PUSH2 0x488 JUMP JUMPDEST POP SWAP1 JUMP JUMPDEST PUSH1 0x0 DUP1 REVERT JUMPDEST PUSH1 0x0 DUP2 SWAP1 POP SWAP2 SWAP1 POP JUMP JUMPDEST PUSH2 0x4BC DUP2 PUSH2 0x4A9 JUMP JUMPDEST DUP2 EQ PUSH2 0x4C7 JUMPI PUSH1 0x0 DUP1 REVERT JUMPDEST POP JUMP JUMPDEST PUSH1 0x0 DUP2 CALLDATALOAD SWAP1 POP PUSH2 0x4D9 DUP2 PUSH2 0x4B3 JUMP JUMPDEST SWAP3 SWAP2 POP POP JUMP JUMPDEST PUSH1 0x0 PUSH1 0x20 DUP3 DUP5 SUB SLT ISZERO PUSH2 0x4F5 JUMPI PUSH2 0x4F4 PUSH2 0x4A4 JUMP JUMPDEST JUMPDEST PUSH1 0x0 PUSH2 0x503 DUP5 DUP3 DUP6 ADD PUSH2 0x4CA JUMP JUMPDEST SWAP2 POP POP SWAP3 SWAP2 POP POP JUMP JUMPDEST PUSH2 0x515 DUP2 PUSH2 0x4A9 JUMP JUMPDEST DUP3 MSTORE POP POP JUMP JUMPDEST PUSH1 0x0 PUSH1 0x20 DUP3 ADD SWAP1 POP PUSH2 0x530 PUSH1 0x0 DUP4 ADD DUP5 PUSH2 0x50C JUMP JUMPDEST SWAP3 SWAP2 POP POP JUMP JUMPDEST PUSH32 0x4E487B7100000000000000000000000000000000000000000000000000000000 PUSH1 0x0 MSTORE PUSH1 0x11 PUSH1 0x4 MSTORE PUSH1 0x24 PUSH1 0x0 REVERT JUMPDEST PUSH1 0x0 PUSH2 0x570 DUP3 PUSH2 0x4A9 JUMP JUMPDEST SWAP2 POP PUSH2 0x57B DUP4 PUSH2 0x4A9 JUMP JUMPDEST SWAP3 POP DUP3 DUP3 SUB SWAP1 POP DUP2 DUP2 GT ISZERO PUSH2 0x593 JUMPI PUSH2 0x592 PUSH2 0x536 JUMP JUMPDEST JUMPDEST SWAP3 SWAP2 POP POP JUMP JUMPDEST PUSH32 0x4E487B7100000000000000000000000000000000000000000000000000000000 PUSH1 0x0 MSTORE PUSH1 0x31 PUSH1 0x4 MSTORE PUSH1 0x24 PUSH1 0x0 REVERT JUMPDEST PUSH32 0x4E487B7100000000000000000000000000000000000000000000000000000000 PUSH1 0x0 MSTORE PUSH1 0x32 PUSH1 0x4 MSTORE PUSH1 0x24 PUSH1 0x0 REVERT JUMPDEST PUSH32 0x4E487B7100000000000000000000000000000000000000000000000000000000 PUSH1 0x0 MSTORE PUSH1 0x1 PUSH1 0x4 MSTORE PUSH1 0x24 PUSH1 0x0 REVERT JUMPDEST PUSH1 0x0 PUSH2 0x631 DUP3 PUSH2 0x4A9 JUMP JUMPDEST SWAP2 POP PUSH2 0x63C DUP4 PUSH2 0x4A9 JUMP JUMPDEST SWAP3 POP DUP3 DUP3 ADD SWAP1 POP DUP1 DUP3 GT ISZERO PUSH2 0x654 JUMPI PUSH2 0x653 PUSH2 0x536 JUMP JUMPDEST JUMPDEST SWAP3 SWAP2 POP POP JUMP JUMPDEST PUSH1 0x0 PUSH2 0x665 DUP3 PUSH2 0x4A9 JUMP JUMPDEST SWAP2 POP PUSH32 0xFFFFFFFFFFFFFFFFFFFFFFFFFFFFFFFFFFFFFFFFFFFFFFFFFFFFFFFFFFFFFFFF DUP3 SUB PUSH2 0x697 JUMPI PUSH2 0x696 PUSH2 0x536 JUMP JUMPDEST JUMPDEST PUSH1 0x1 DUP3 ADD SWAP1 POP SWAP2 SWAP1 POP JUMP INVALID LOG2 PUSH5 0x6970667358 0x22 SLT KECCAK256 PUSH18 0x60DB7FACD3A99C5FA3935CCCA3F2D2B6C3EA PUSH1 0x31 0xCB 0xD3 NUMBER DUP9 ISZERO SWAP14 ADDRESS 0x4A 0x25 ADDRESS DUP10 PUSH5 0x736F6C6343 STOP ADDMOD GT STOP CALLER "
		},
		"gasEstimates": {
			"creation": {
				"codeDepositCost": "350400",
				"executionCost": "386",
				"totalCost": "350786"
			},
			"external": {
				"numbers(uint256)": "infinite",
				"remove1(uint256)": "infinite",
				"remove2(uint256)": "infinite",
				"test1()": "infinite",
				"test2()": "infinite"
			}
		},
		"methodIdentifiers": {
			"numbers(uint256)": "d39fa233",
			"remove1(uint256)": "670ea637",
			"remove2(uint256)": "e91e5843",
			"test1()": "6b59084d",
			"test2()": "66e41cb7"
		}
	},
	"abi": [
		{
			"inputs": [
				{
					"internalType": "uint256",
					"name": "",
					"type": "uint256"
				}
			],
			"name": "numbers",
			"outputs": [
				{
					"internalType": "uint256",
					"name": "",
					"type": "uint256"
				}
			],
			"stateMutability": "view",
			"type": "function"
		},
		{
			"inputs": [
				{
					"internalType": "uint256",
					"name": "index",
					"type": "uint256"
				}
			],
			"name": "remove1",
			"outputs": [],
			"stateMutability": "nonpayable",
			"type": "function"
		},
		{
			"inputs": [
				{
					"internalType": "uint256",
					"name": "index",
					"type": "uint256"
				}
			],
			"name": "remove2",
			"outputs": [],
			"stateMutability": "nonpayable",
			"type": "function"
		},
		{
			"inputs": [],
			"name": "test1",
			"outputs": [],
			"stateMutability": "nonpayable",
			"type": "function"
		},
		{
			"inputs": [],
			"name": "test2",
			"outputs": [],
			"stateMutability": "nonpayable",
			"type": "function"
		}
	]
}