{
	"data": {
		"bytecode": {
			"linkReferences": {},
			"object": "60806040526040518060a00160405280600160ff168152602001600260ff168152602001600360ff168152602001600460ff168152602001600560ff16815250600090600561004f929190610062565b5034801561005c57600080fd5b506100d1565b8280548282559060005260206000209081019282156100a3579160200282015b828111156100a2578251829060ff16905591602001919060010190610082565b5b5090506100b091906100b4565b5090565b5b808211156100cd5760008160009055506001016100b5565b5090565b61037f806100e06000396000f3fe608060405234801561001057600080fd5b50600436106100415760003560e01c80634cc82215146100465780638269267914610062578063d39fa2331461006c575b600080fd5b610060600480360381019061005b91906101e9565b61009c565b005b61006a61015f565b005b610086600480360381019061008191906101e9565b61018a565b6040516100939190610225565b60405180910390f35b6000808054905090506001816100b2919061026f565b82036100e55760008054806100ca576100c96102a3565b5b6001900381819060005260206000200160009055905561015b565b60006001826100f4919061026f565b81548110610105576101046102d2565b5b906000526020600020015460008381548110610124576101236102d2565b5b90600052602060002001819055506000805480610144576101436102a3565b5b600190038181906000526020600020016000905590555b5050565b60008080549050905060005b8181101561018657808061017e90610301565b91505061016b565b5050565b6000818154811061019a57600080fd5b906000526020600020016000915090505481565b600080fd5b6000819050919050565b6101c6816101b3565b81146101d157600080fd5b50565b6000813590506101e3816101bd565b92915050565b6000602082840312156101ff576101fe6101ae565b5b600061020d848285016101d4565b91505092915050565b61021f816101b3565b82525050565b600060208201905061023a6000830184610216565b92915050565b7f4e487b7100000000000000000000000000000000000000000000000000000000600052601160045260246000fd5b600061027a826101b3565b9150610285836101b3565b925082820390508181111561029d5761029c610240565b5b92915050565b7f4e487b7100000000000000000000000000000000000000000000000000000000600052603160045260246000fd5b7f4e487b7100000000000000000000000000000000000000000000000000000000600052603260045260246000fd5b600061030c826101b3565b91507fffffffffffffffffffffffffffffffffffffffffffffffffffffffffffffffff820361033e5761033d610240565b5b60018201905091905056fea264697066735822122091f1aa25f7c81a48aa349fbb9c885c75c18fb947707ba2d8affe30606720fd6b64736f6c63430008110033",
			"opcodes": "PUSH1 0x80 PUSH1 0x40 MSTORE PUSH1 0x40 MLOAD DUP1 PUSH1 0xA0 ADD PUSH1 0x40 MSTORE DUP1 PUSH1 0x1 PUSH1 0xFF AND DUP2 MSTORE PUSH1 0x20 ADD PUSH1 0x2 PUSH1 0xFF AND DUP2 MSTORE PUSH1 0x20 ADD PUSH1 0x3 PUSH1 0xFF AND DUP2 MSTORE PUSH1 0x20 ADD PUSH1 0x4 PUSH1 0xFF AND DUP2 MSTORE PUSH1 0x20 ADD PUSH1 0x5 PUSH1 0xFF AND DUP2 MSTORE POP PUSH1 0x0 SWAP1 PUSH1 0x5 PUSH2 0x4F SWAP3 SWAP2 SWAP1 PUSH2 0x62 JUMP JUMPDEST POP CALLVALUE DUP1 ISZERO PUSH2 0x5C JUMPI PUSH1 0x0 DUP1 REVERT JUMPDEST POP PUSH2 0xD1 JUMP JUMPDEST DUP3 DUP1 SLOAD DUP3 DUP3 SSTORE SWAP1 PUSH1 0x0 MSTORE PUSH1 0x20 PUSH1 0x0 KECCAK256 SWAP1 DUP2 ADD SWAP3 DUP3 ISZERO PUSH2 0xA3 JUMPI SWAP2 PUSH1 0x20 MUL DUP3 ADD JUMPDEST DUP3 DUP2 GT ISZERO PUSH2 0xA2 JUMPI DUP3 MLOAD DUP3 SWAP1 PUSH1 0xFF AND SWAP1 SSTORE SWAP2 PUSH1 0x20 ADD SWAP2 SWAP1 PUSH1 0x1 ADD SWAP1 PUSH2 0x82 JUMP JUMPDEST JUMPDEST POP SWAP1 POP PUSH2 0xB0 SWAP2 SWAP1 PUSH2 0xB4 JUMP JUMPDEST POP SWAP1 JUMP JUMPDEST JUMPDEST DUP1 DUP3 GT ISZERO PUSH2 0xCD JUMPI PUSH1 0x0 DUP2 PUSH1 0x0 SWAP1 SSTORE POP PUSH1 0x1 ADD PUSH2 0xB5 JUMP JUMPDEST POP SWAP1 JUMP JUMPDEST PUSH2 0x37F DUP1 PUSH2 0xE0 PUSH1 0x0 CODECOPY PUSH1 0x0 RETURN INVALID PUSH1 0x80 PUSH1 0x40 MSTORE CALLVALUE DUP1 ISZERO PUSH2 0x10 JUMPI PUSH1 0x0 DUP1 REVERT JUMPDEST POP PUSH1 0x4 CALLDATASIZE LT PUSH2 0x41 JUMPI PUSH1 0x0 CALLDATALOAD PUSH1 0xE0 SHR DUP1 PUSH4 0x4CC82215 EQ PUSH2 0x46 JUMPI DUP1 PUSH4 0x82692679 EQ PUSH2 0x62 JUMPI DUP1 PUSH4 0xD39FA233 EQ PUSH2 0x6C JUMPI JUMPDEST PUSH1 0x0 DUP1 REVERT JUMPDEST PUSH2 0x60 PUSH1 0x4 DUP1 CALLDATASIZE SUB DUP2 ADD SWAP1 PUSH2 0x5B SWAP2 SWAP1 PUSH2 0x1E9 JUMP JUMPDEST PUSH2 0x9C JUMP JUMPDEST STOP JUMPDEST PUSH2 0x6A PUSH2 0x15F JUMP JUMPDEST STOP JUMPDEST PUSH2 0x86 PUSH1 0x4 DUP1 CALLDATASIZE SUB DUP2 ADD SWAP1 PUSH2 0x81 SWAP2 SWAP1 PUSH2 0x1E9 JUMP JUMPDEST PUSH2 0x18A JUMP JUMPDEST PUSH1 0x40 MLOAD PUSH2 0x93 SWAP2 SWAP1 PUSH2 0x225 JUMP JUMPDEST PUSH1 0x40 MLOAD DUP1 SWAP2 SUB SWAP1 RETURN JUMPDEST PUSH1 0x0 DUP1 DUP1 SLOAD SWAP1 POP SWAP1 POP PUSH1 0x1 DUP2 PUSH2 0xB2 SWAP2 SWAP1 PUSH2 0x26F JUMP JUMPDEST DUP3 SUB PUSH2 0xE5 JUMPI PUSH1 0x0 DUP1 SLOAD DUP1 PUSH2 0xCA JUMPI PUSH2 0xC9 PUSH2 0x2A3 JUMP JUMPDEST JUMPDEST PUSH1 0x1 SWAP1 SUB DUP2 DUP2 SWAP1 PUSH1 0x0 MSTORE PUSH1 0x20 PUSH1 0x0 KECCAK256 ADD PUSH1 0x0 SWAP1 SSTORE SWAP1 SSTORE PUSH2 0x15B JUMP JUMPDEST PUSH1 0x0 PUSH1 0x1 DUP3 PUSH2 0xF4 SWAP2 SWAP1 PUSH2 0x26F JUMP JUMPDEST DUP2 SLOAD DUP2 LT PUSH2 0x105 JUMPI PUSH2 0x104 PUSH2 0x2D2 JUMP JUMPDEST JUMPDEST SWAP1 PUSH1 0x0 MSTORE PUSH1 0x20 PUSH1 0x0 KECCAK256 ADD SLOAD PUSH1 0x0 DUP4 DUP2 SLOAD DUP2 LT PUSH2 0x124 JUMPI PUSH2 0x123 PUSH2 0x2D2 JUMP JUMPDEST JUMPDEST SWAP1 PUSH1 0x0 MSTORE PUSH1 0x20 PUSH1 0x0 KECCAK256 ADD DUP2 SWAP1 SSTORE POP PUSH1 0x0 DUP1 SLOAD DUP1 PUSH2 0x144 JUMPI PUSH2 0x143 PUSH2 0x2A3 JUMP JUMPDEST JUMPDEST PUSH1 0x1 SWAP1 SUB DUP2 DUP2 SWAP1 PUSH1 0x0 MSTORE PUSH1 0x20 PUSH1 0x0 KECCAK256 ADD PUSH1 0x0 SWAP1 SSTORE SWAP1 SSTORE JUMPDEST POP POP JUMP JUMPDEST PUSH1 0x0 DUP1 DUP1 SLOAD SWAP1 POP SWAP1 POP PUSH1 0x0 JUMPDEST DUP2 DUP2 LT ISZERO PUSH2 0x186 JUMPI DUP1 DUP1 PUSH2 0x17E SWAP1 PUSH2 0x301 JUMP JUMPDEST SWAP2 POP POP PUSH2 0x16B JUMP JUMPDEST POP POP JUMP JUMPDEST PUSH1 0x0 DUP2 DUP2 SLOAD DUP2 LT PUSH2 0x19A JUMPI PUSH1 0x0 DUP1 REVERT JUMPDEST SWAP1 PUSH1 0x0 MSTORE PUSH1 0x20 PUSH1 0x0 KECCAK256 ADD PUSH1 0x0 SWAP2 POP SWAP1 POP SLOAD DUP2 JUMP JUMPDEST PUSH1 0x0 DUP1 REVERT JUMPDEST PUSH1 0x0 DUP2 SWAP1 POP SWAP2 SWAP1 POP JUMP JUMPDEST PUSH2 0x1C6 DUP2 PUSH2 0x1B3 JUMP JUMPDEST DUP2 EQ PUSH2 0x1D1 JUMPI PUSH1 0x0 DUP1 REVERT JUMPDEST POP JUMP JUMPDEST PUSH1 0x0 DUP2 CALLDATALOAD SWAP1 POP PUSH2 0x1E3 DUP2 PUSH2 0x1BD JUMP JUMPDEST SWAP3 SWAP2 POP POP JUMP JUMPDEST PUSH1 0x0 PUSH1 0x20 DUP3 DUP5 SUB SLT ISZERO PUSH2 0x1FF JUMPI PUSH2 0x1FE PUSH2 0x1AE JUMP JUMPDEST JUMPDEST PUSH1 0x0 PUSH2 0x20D DUP5 DUP3 DUP6 ADD PUSH2 0x1D4 JUMP JUMPDEST SWAP2 POP POP SWAP3 SWAP2 POP POP JUMP JUMPDEST PUSH2 0x21F DUP2 PUSH2 0x1B3 JUMP JUMPDEST DUP3 MSTORE POP POP JUMP JUMPDEST PUSH1 0x0 PUSH1 0x20 DUP3 ADD SWAP1 POP PUSH2 0x23A PUSH1 0x0 DUP4 ADD DUP5 PUSH2 0x216 JUMP JUMPDEST SWAP3 SWAP2 POP POP JUMP JUMPDEST PUSH32 0x4E487B7100000000000000000000000000000000000000000000000000000000 PUSH1 0x0 MSTORE PUSH1 0x11 PUSH1 0x4 MSTORE PUSH1 0x24 PUSH1 0x0 REVERT JUMPDEST PUSH1 0x0 PUSH2 0x27A DUP3 PUSH2 0x1B3 JUMP JUMPDEST SWAP2 POP PUSH2 0x285 DUP4 PUSH2 0x1B3 JUMP JUMPDEST SWAP3 POP DUP3 DUP3 SUB SWAP1 POP DUP2 DUP2 GT ISZERO PUSH2 0x29D JUMPI PUSH2 0x29C PUSH2 0x240 JUMP JUMPDEST JUMPDEST SWAP3 SWAP2 POP POP JUMP JUMPDEST PUSH32 0x4E487B7100000000000000000000000000000000000000000000000000000000 PUSH1 0x0 MSTORE PUSH1 0x31 PUSH1 0x4 MSTORE PUSH1 0x24 PUSH1 0x0 REVERT JUMPDEST PUSH32 0x4E487B7100000000000000000000000000000000000000000000000000000000 PUSH1 0x0 MSTORE PUSH1 0x32 PUSH1 0x4 MSTORE PUSH1 0x24 PUSH1 0x0 REVERT JUMPDEST PUSH1 0x0 PUSH2 0x30C DUP3 PUSH2 0x1B3 JUMP JUMPDEST SWAP2 POP PUSH32 0xFFFFFFFFFFFFFFFFFFFFFFFFFFFFFFFFFFFFFFFFFFFFFFFFFFFFFFFFFFFFFFFF DUP3 SUB PUSH2 0x33E JUMPI PUSH2 0x33D PUSH2 0x240 JUMP JUMPDEST JUMPDEST PUSH1 0x1 DUP3 ADD SWAP1 POP SWAP2 SWAP1 POP JUMP INVALID LOG2 PUSH5 0x6970667358 0x22 SLT KECCAK256 SWAP2 CALL 0xAA 0x25 0xF7 0xC8 BYTE BASEFEE 0xAA CALLVALUE SWAP16 0xBB SWAP13 DUP9 0x5C PUSH22 0xC18FB947707BA2D8AFFE30606720FD6B64736F6C6343 STOP ADDMOD GT STOP CALLER "
		},
		"gasEstimates": {
			"creation": {
				"codeDepositCost": "179000",
				"executionCost": "infinite",
				"totalCost": "infinite"
			},
			"external": {
				"doSomething()": "infinite",
				"numbers(uint256)": "infinite",
				"remove(uint256)": "infinite"
			}
		},
		"methodIdentifiers": {
			"doSomething()": "82692679",
			"numbers(uint256)": "d39fa233",
			"remove(uint256)": "4cc82215"
		}
	},
	"abi": [
		{
			"inputs": [],
			"name": "doSomething",
			"outputs": [],
			"stateMutability": "nonpayable",
			"type": "function"
		},
		{
			"inputs": [
				{
					"internalType": "uint256",
					"name": "",
					"type": "uint256"
				}
			],
			"name": "numbers",
			"outputs": [
				{
					"internalType": "uint256",
					"name": "",
					"type": "uint256"
				}
			],
			"stateMutability": "view",
			"type": "function"
		},
		{
			"inputs": [
				{
					"internalType": "uint256",
					"name": "index",
					"type": "uint256"
				}
			],
			"name": "remove",
			"outputs": [],
			"stateMutability": "nonpayable",
			"type": "function"
		}
	]
}