{
	"data": {
		"bytecode": {
			"linkReferences": {},
			"object": "608060405234801561001057600080fd5b506104f9806100206000396000f3fe60806040526004361061003f5760003560e01c80634e70b1dc1461004457806353dfd3051461006f57806367e404ce1461008b578063e743ca07146100b6575b600080fd5b34801561005057600080fd5b506100596100d2565b60405161006691906103f0565b60405180910390f35b6100896004803603810190610084919061032f565b6100d8565b005b34801561009757600080fd5b506100a06101da565b6040516100ad91906103d5565b60405180910390f35b6100d060048036038101906100cb919061032f565b610200565b005b60005481565b6000808373ffffffffffffffffffffffffffffffffffffffff168360405160240161010391906103f0565b6040516020818303038152906040527f86be3f80000000000000000000000000000000000000000000000000000000007bffffffffffffffffffffffffffffffffffffffffffffffffffffffff19166020820180517bffffffffffffffffffffffffffffffffffffffffffffffffffffffff838183161783525050505060405161018d91906103be565b6000604051808303816000865af19150503d80600081146101ca576040519150601f19603f3d011682016040523d82523d6000602084013e6101cf565b606091505b509150915050505050565b600160009054906101000a900473ffffffffffffffffffffffffffffffffffffffff1681565b6000808373ffffffffffffffffffffffffffffffffffffffff16620186a08460405160240161022f91906103f0565b6040516020818303038152906040527f86be3f80000000000000000000000000000000000000000000000000000000007bffffffffffffffffffffffffffffffffffffffffffffffffffffffff19166020820180517bffffffffffffffffffffffffffffffffffffffffffffffffffffffff83818316178352505050506040516102b991906103be565b6000604051808303818686f4925050503d80600081146102f5576040519150601f19603f3d011682016040523d82523d6000602084013e6102fa565b606091505b509150915050505050565b60008135905061031481610495565b92915050565b600081359050610329816104ac565b92915050565b6000806040838503121561034657610345610490565b5b600061035485828601610305565b92505060206103658582860161031a565b9150509250929050565b61037881610421565b82525050565b60006103898261040b565b6103938185610416565b93506103a381856020860161045d565b80840191505092915050565b6103b881610453565b82525050565b60006103ca828461037e565b915081905092915050565b60006020820190506103ea600083018461036f565b92915050565b600060208201905061040560008301846103af565b92915050565b600081519050919050565b600081905092915050565b600061042c82610433565b9050919050565b600073ffffffffffffffffffffffffffffffffffffffff82169050919050565b6000819050919050565b60005b8381101561047b578082015181840152602081019050610460565b8381111561048a576000848401525b50505050565b600080fd5b61049e81610421565b81146104a957600080fd5b50565b6104b581610453565b81146104c057600080fd5b5056fea26469706673582212205469a0a024598a1308bf8231d44abddd5cf9dea32907e7286a631ec418cc929564736f6c63430008070033",
			"opcodes": "PUSH1 0x80 PUSH1 0x40 MSTORE CALLVALUE DUP1 ISZERO PUSH2 0x10 JUMPI PUSH1 0x0 DUP1 REVERT JUMPDEST POP PUSH2 0x4F9 DUP1 PUSH2 0x20 PUSH1 0x0 CODECOPY PUSH1 0x0 RETURN INVALID PUSH1 0x80 PUSH1 0x40 MSTORE PUSH1 0x4 CALLDATASIZE LT PUSH2 0x3F JUMPI PUSH1 0x0 CALLDATALOAD PUSH1 0xE0 SHR DUP1 PUSH4 0x4E70B1DC EQ PUSH2 0x44 JUMPI DUP1 PUSH4 0x53DFD305 EQ PUSH2 0x6F JUMPI DUP1 PUSH4 0x67E404CE EQ PUSH2 0x8B JUMPI DUP1 PUSH4 0xE743CA07 EQ PUSH2 0xB6 JUMPI JUMPDEST PUSH1 0x0 DUP1 REVERT JUMPDEST CALLVALUE DUP1 ISZERO PUSH2 0x50 JUMPI PUSH1 0x0 DUP1 REVERT JUMPDEST POP PUSH2 0x59 PUSH2 0xD2 JUMP JUMPDEST PUSH1 0x40 MLOAD PUSH2 0x66 SWAP2 SWAP1 PUSH2 0x3F0 JUMP JUMPDEST PUSH1 0x40 MLOAD DUP1 SWAP2 SUB SWAP1 RETURN JUMPDEST PUSH2 0x89 PUSH1 0x4 DUP1 CALLDATASIZE SUB DUP2 ADD SWAP1 PUSH2 0x84 SWAP2 SWAP1 PUSH2 0x32F JUMP JUMPDEST PUSH2 0xD8 JUMP JUMPDEST STOP JUMPDEST CALLVALUE DUP1 ISZERO PUSH2 0x97 JUMPI PUSH1 0x0 DUP1 REVERT JUMPDEST POP PUSH2 0xA0 PUSH2 0x1DA JUMP JUMPDEST PUSH1 0x40 MLOAD PUSH2 0xAD SWAP2 SWAP1 PUSH2 0x3D5 JUMP JUMPDEST PUSH1 0x40 MLOAD DUP1 SWAP2 SUB SWAP1 RETURN JUMPDEST PUSH2 0xD0 PUSH1 0x4 DUP1 CALLDATASIZE SUB DUP2 ADD SWAP1 PUSH2 0xCB SWAP2 SWAP1 PUSH2 0x32F JUMP JUMPDEST PUSH2 0x200 JUMP JUMPDEST STOP JUMPDEST PUSH1 0x0 SLOAD DUP2 JUMP JUMPDEST PUSH1 0x0 DUP1 DUP4 PUSH20 0xFFFFFFFFFFFFFFFFFFFFFFFFFFFFFFFFFFFFFFFF AND DUP4 PUSH1 0x40 MLOAD PUSH1 0x24 ADD PUSH2 0x103 SWAP2 SWAP1 PUSH2 0x3F0 JUMP JUMPDEST PUSH1 0x40 MLOAD PUSH1 0x20 DUP2 DUP4 SUB SUB DUP2 MSTORE SWAP1 PUSH1 0x40 MSTORE PUSH32 0x86BE3F8000000000000000000000000000000000000000000000000000000000 PUSH28 0xFFFFFFFFFFFFFFFFFFFFFFFFFFFFFFFFFFFFFFFFFFFFFFFFFFFFFFFF NOT AND PUSH1 0x20 DUP3 ADD DUP1 MLOAD PUSH28 0xFFFFFFFFFFFFFFFFFFFFFFFFFFFFFFFFFFFFFFFFFFFFFFFFFFFFFFFF DUP4 DUP2 DUP4 AND OR DUP4 MSTORE POP POP POP POP PUSH1 0x40 MLOAD PUSH2 0x18D SWAP2 SWAP1 PUSH2 0x3BE JUMP JUMPDEST PUSH1 0x0 PUSH1 0x40 MLOAD DUP1 DUP4 SUB DUP2 PUSH1 0x0 DUP7 GAS CALL SWAP2 POP POP RETURNDATASIZE DUP1 PUSH1 0x0 DUP2 EQ PUSH2 0x1CA JUMPI PUSH1 0x40 MLOAD SWAP2 POP PUSH1 0x1F NOT PUSH1 0x3F RETURNDATASIZE ADD AND DUP3 ADD PUSH1 0x40 MSTORE RETURNDATASIZE DUP3 MSTORE RETURNDATASIZE PUSH1 0x0 PUSH1 0x20 DUP5 ADD RETURNDATACOPY PUSH2 0x1CF JUMP JUMPDEST PUSH1 0x60 SWAP2 POP JUMPDEST POP SWAP2 POP SWAP2 POP POP POP POP POP JUMP JUMPDEST PUSH1 0x1 PUSH1 0x0 SWAP1 SLOAD SWAP1 PUSH2 0x100 EXP SWAP1 DIV PUSH20 0xFFFFFFFFFFFFFFFFFFFFFFFFFFFFFFFFFFFFFFFF AND DUP2 JUMP JUMPDEST PUSH1 0x0 DUP1 DUP4 PUSH20 0xFFFFFFFFFFFFFFFFFFFFFFFFFFFFFFFFFFFFFFFF AND PUSH3 0x186A0 DUP5 PUSH1 0x40 MLOAD PUSH1 0x24 ADD PUSH2 0x22F SWAP2 SWAP1 PUSH2 0x3F0 JUMP JUMPDEST PUSH1 0x40 MLOAD PUSH1 0x20 DUP2 DUP4 SUB SUB DUP2 MSTORE SWAP1 PUSH1 0x40 MSTORE PUSH32 0x86BE3F8000000000000000000000000000000000000000000000000000000000 PUSH28 0xFFFFFFFFFFFFFFFFFFFFFFFFFFFFFFFFFFFFFFFFFFFFFFFFFFFFFFFF NOT AND PUSH1 0x20 DUP3 ADD DUP1 MLOAD PUSH28 0xFFFFFFFFFFFFFFFFFFFFFFFFFFFFFFFFFFFFFFFFFFFFFFFFFFFFFFFF DUP4 DUP2 DUP4 AND OR DUP4 MSTORE POP POP POP POP PUSH1 0x40 MLOAD PUSH2 0x2B9 SWAP2 SWAP1 PUSH2 0x3BE JUMP JUMPDEST PUSH1 0x0 PUSH1 0x40 MLOAD DUP1 DUP4 SUB DUP2 DUP7 DUP7 DELEGATECALL SWAP3 POP POP POP RETURNDATASIZE DUP1 PUSH1 0x0 DUP2 EQ PUSH2 0x2F5 JUMPI PUSH1 0x40 MLOAD SWAP2 POP PUSH1 0x1F NOT PUSH1 0x3F RETURNDATASIZE ADD AND DUP3 ADD PUSH1 0x40 MSTORE RETURNDATASIZE DUP3 MSTORE RETURNDATASIZE PUSH1 0x0 PUSH1 0x20 DUP5 ADD RETURNDATACOPY PUSH2 0x2FA JUMP JUMPDEST PUSH1 0x60 SWAP2 POP JUMPDEST POP SWAP2 POP SWAP2 POP POP POP POP POP JUMP JUMPDEST PUSH1 0x0 DUP2 CALLDATALOAD SWAP1 POP PUSH2 0x314 DUP2 PUSH2 0x495 JUMP JUMPDEST SWAP3 SWAP2 POP POP JUMP JUMPDEST PUSH1 0x0 DUP2 CALLDATALOAD SWAP1 POP PUSH2 0x329 DUP2 PUSH2 0x4AC JUMP JUMPDEST SWAP3 SWAP2 POP POP JUMP JUMPDEST PUSH1 0x0 DUP1 PUSH1 0x40 DUP4 DUP6 SUB SLT ISZERO PUSH2 0x346 JUMPI PUSH2 0x345 PUSH2 0x490 JUMP JUMPDEST JUMPDEST PUSH1 0x0 PUSH2 0x354 DUP6 DUP3 DUP7 ADD PUSH2 0x305 JUMP JUMPDEST SWAP3 POP POP PUSH1 0x20 PUSH2 0x365 DUP6 DUP3 DUP7 ADD PUSH2 0x31A JUMP JUMPDEST SWAP2 POP POP SWAP3 POP SWAP3 SWAP1 POP JUMP JUMPDEST PUSH2 0x378 DUP2 PUSH2 0x421 JUMP JUMPDEST DUP3 MSTORE POP POP JUMP JUMPDEST PUSH1 0x0 PUSH2 0x389 DUP3 PUSH2 0x40B JUMP JUMPDEST PUSH2 0x393 DUP2 DUP6 PUSH2 0x416 JUMP JUMPDEST SWAP4 POP PUSH2 0x3A3 DUP2 DUP6 PUSH1 0x20 DUP7 ADD PUSH2 0x45D JUMP JUMPDEST DUP1 DUP5 ADD SWAP2 POP POP SWAP3 SWAP2 POP POP JUMP JUMPDEST PUSH2 0x3B8 DUP2 PUSH2 0x453 JUMP JUMPDEST DUP3 MSTORE POP POP JUMP JUMPDEST PUSH1 0x0 PUSH2 0x3CA DUP3 DUP5 PUSH2 0x37E JUMP JUMPDEST SWAP2 POP DUP2 SWAP1 POP SWAP3 SWAP2 POP POP JUMP JUMPDEST PUSH1 0x0 PUSH1 0x20 DUP3 ADD SWAP1 POP PUSH2 0x3EA PUSH1 0x0 DUP4 ADD DUP5 PUSH2 0x36F JUMP JUMPDEST SWAP3 SWAP2 POP POP JUMP JUMPDEST PUSH1 0x0 PUSH1 0x20 DUP3 ADD SWAP1 POP PUSH2 0x405 PUSH1 0x0 DUP4 ADD DUP5 PUSH2 0x3AF JUMP JUMPDEST SWAP3 SWAP2 POP POP JUMP JUMPDEST PUSH1 0x0 DUP2 MLOAD SWAP1 POP SWAP2 SWAP1 POP JUMP JUMPDEST PUSH1 0x0 DUP2 SWAP1 POP SWAP3 SWAP2 POP POP JUMP JUMPDEST PUSH1 0x0 PUSH2 0x42C DUP3 PUSH2 0x433 JUMP JUMPDEST SWAP1 POP SWAP2 SWAP1 POP JUMP JUMPDEST PUSH1 0x0 PUSH20 0xFFFFFFFFFFFFFFFFFFFFFFFFFFFFFFFFFFFFFFFF DUP3 AND SWAP1 POP SWAP2 SWAP1 POP JUMP JUMPDEST PUSH1 0x0 DUP2 SWAP1 POP SWAP2 SWAP1 POP JUMP JUMPDEST PUSH1 0x0 JUMPDEST DUP4 DUP2 LT ISZERO PUSH2 0x47B JUMPI DUP1 DUP3 ADD MLOAD DUP2 DUP5 ADD MSTORE PUSH1 0x20 DUP2 ADD SWAP1 POP PUSH2 0x460 JUMP JUMPDEST DUP4 DUP2 GT ISZERO PUSH2 0x48A JUMPI PUSH1 0x0 DUP5 DUP5 ADD MSTORE JUMPDEST POP POP POP POP JUMP JUMPDEST PUSH1 0x0 DUP1 REVERT JUMPDEST PUSH2 0x49E DUP2 PUSH2 0x421 JUMP JUMPDEST DUP2 EQ PUSH2 0x4A9 JUMPI PUSH1 0x0 DUP1 REVERT JUMPDEST POP JUMP JUMPDEST PUSH2 0x4B5 DUP2 PUSH2 0x453 JUMP JUMPDEST DUP2 EQ PUSH2 0x4C0 JUMPI PUSH1 0x0 DUP1 REVERT JUMPDEST POP JUMP INVALID LOG2 PUSH5 0x6970667358 0x22 SLT KECCAK256 SLOAD PUSH10 0xA0A024598A1308BF8231 0xD4 0x4A 0xBD 0xDD 0x5C 0xF9 0xDE LOG3 0x29 SMOD 0xE7 0x28 PUSH11 0x631EC418CC929564736F6C PUSH4 0x43000807 STOP CALLER "
		},
		"gasEstimates": {
			"creation": {
				"codeDepositCost": "254600",
				"executionCost": "294",
				"totalCost": "254894"
			},
			"external": {
				"callSetVariable(address,uint256)": "infinite",
				"delegateCallSetVariable(address,uint256)": "infinite",
				"num()": "2407",
				"sender()": "2536"
			}
		},
		"methodIdentifiers": {
			"callSetVariable(address,uint256)": "53dfd305",
			"delegateCallSetVariable(address,uint256)": "e743ca07",
			"num()": "4e70b1dc",
			"sender()": "67e404ce"
		}
	},
	"abi": [
		{
			"inputs": [
				{
					"internalType": "address",
					"name": "_addr",
					"type": "address"
				},
				{
					"internalType": "uint256",
					"name": "_num",
					"type": "uint256"
				}
			],
			"name": "callSetVariable",
			"outputs": [],
			"stateMutability": "payable",
			"type": "function"
		},
		{
			"inputs": [
				{
					"internalType": "address",
					"name": "_addr",
					"type": "address"
				},
				{
					"internalType": "uint256",
					"name": "_num",
					"type": "uint256"
				}
			],
			"name": "delegateCallSetVariable",
			"outputs": [],
			"stateMutability": "payable",
			"type": "function"
		},
		{
			"inputs": [],
			"name": "num",
			"outputs": [
				{
					"internalType": "uint256",
					"name": "",
					"type": "uint256"
				}
			],
			"stateMutability": "view",
			"type": "function"
		},
		{
			"inputs": [],
			"name": "sender",
			"outputs": [
				{
					"internalType": "address",
					"name": "",
					"type": "address"
				}
			],
			"stateMutability": "view",
			"type": "function"
		}
	]
}