{
	"data": {
		"bytecode": {
			"linkReferences": {},
			"object": "608060405234801561001057600080fd5b506104e1806100206000396000f3fe608060405234801561001057600080fd5b506004361061004c5760003560e01c8063171e19961461005157806367e404ce1461006d5780638381f58a1461008b578063905edae5146100a9575b600080fd5b61006b6004803603810190610066919061038f565b6100c5565b005b6100756101c4565b60405161008291906103de565b60405180910390f35b6100936101ea565b6040516100a09190610408565b60405180910390f35b6100c360048036038101906100be919061038f565b6101f0565b005b6000816040516024016100d89190610408565b6040516020818303038152906040527f3f7a0270000000000000000000000000000000000000000000000000000000007bffffffffffffffffffffffffffffffffffffffffffffffffffffffff19166020820180517bffffffffffffffffffffffffffffffffffffffffffffffffffffffff838183161783525050505090508273ffffffffffffffffffffffffffffffffffffffff168160405161017c9190610494565b600060405180830381855af49150503d80600081146101b7576040519150601f19603f3d011682016040523d82523d6000602084013e6101bc565b606091505b505050505050565b600160009054906101000a900473ffffffffffffffffffffffffffffffffffffffff1681565b60005481565b6000816040516024016102039190610408565b6040516020818303038152906040527f3f7a0270000000000000000000000000000000000000000000000000000000007bffffffffffffffffffffffffffffffffffffffffffffffffffffffff19166020820180517bffffffffffffffffffffffffffffffffffffffffffffffffffffffff838183161783525050505090508273ffffffffffffffffffffffffffffffffffffffff16620493e0826040516102ab9190610494565b60006040518083038160008787f1925050503d80600081146102e9576040519150601f19603f3d011682016040523d82523d6000602084013e6102ee565b606091505b505050505050565b600080fd5b600073ffffffffffffffffffffffffffffffffffffffff82169050919050565b6000610326826102fb565b9050919050565b6103368161031b565b811461034157600080fd5b50565b6000813590506103538161032d565b92915050565b6000819050919050565b61036c81610359565b811461037757600080fd5b50565b60008135905061038981610363565b92915050565b600080604083850312156103a6576103a56102f6565b5b60006103b485828601610344565b92505060206103c58582860161037a565b9150509250929050565b6103d88161031b565b82525050565b60006020820190506103f360008301846103cf565b92915050565b61040281610359565b82525050565b600060208201905061041d60008301846103f9565b92915050565b600081519050919050565b600081905092915050565b60005b8381101561045757808201518184015260208101905061043c565b60008484015250505050565b600061046e82610423565b610478818561042e565b9350610488818560208601610439565b80840191505092915050565b60006104a08284610463565b91508190509291505056fea2646970667358221220e42205f6ae54874e216bff90455b9eddc8349584906ca1a626be4a19bb8d4a4d64736f6c63430008110033",
			"opcodes": "PUSH1 0x80 PUSH1 0x40 MSTORE CALLVALUE DUP1 ISZERO PUSH2 0x10 JUMPI PUSH1 0x0 DUP1 REVERT JUMPDEST POP PUSH2 0x4E1 DUP1 PUSH2 0x20 PUSH1 0x0 CODECOPY PUSH1 0x0 RETURN INVALID PUSH1 0x80 PUSH1 0x40 MSTORE CALLVALUE DUP1 ISZERO PUSH2 0x10 JUMPI PUSH1 0x0 DUP1 REVERT JUMPDEST POP PUSH1 0x4 CALLDATASIZE LT PUSH2 0x4C JUMPI PUSH1 0x0 CALLDATALOAD PUSH1 0xE0 SHR DUP1 PUSH4 0x171E1996 EQ PUSH2 0x51 JUMPI DUP1 PUSH4 0x67E404CE EQ PUSH2 0x6D JUMPI DUP1 PUSH4 0x8381F58A EQ PUSH2 0x8B JUMPI DUP1 PUSH4 0x905EDAE5 EQ PUSH2 0xA9 JUMPI JUMPDEST PUSH1 0x0 DUP1 REVERT JUMPDEST PUSH2 0x6B PUSH1 0x4 DUP1 CALLDATASIZE SUB DUP2 ADD SWAP1 PUSH2 0x66 SWAP2 SWAP1 PUSH2 0x38F JUMP JUMPDEST PUSH2 0xC5 JUMP JUMPDEST STOP JUMPDEST PUSH2 0x75 PUSH2 0x1C4 JUMP JUMPDEST PUSH1 0x40 MLOAD PUSH2 0x82 SWAP2 SWAP1 PUSH2 0x3DE JUMP JUMPDEST PUSH1 0x40 MLOAD DUP1 SWAP2 SUB SWAP1 RETURN JUMPDEST PUSH2 0x93 PUSH2 0x1EA JUMP JUMPDEST PUSH1 0x40 MLOAD PUSH2 0xA0 SWAP2 SWAP1 PUSH2 0x408 JUMP JUMPDEST PUSH1 0x40 MLOAD DUP1 SWAP2 SUB SWAP1 RETURN JUMPDEST PUSH2 0xC3 PUSH1 0x4 DUP1 CALLDATASIZE SUB DUP2 ADD SWAP1 PUSH2 0xBE SWAP2 SWAP1 PUSH2 0x38F JUMP JUMPDEST PUSH2 0x1F0 JUMP JUMPDEST STOP JUMPDEST PUSH1 0x0 DUP2 PUSH1 0x40 MLOAD PUSH1 0x24 ADD PUSH2 0xD8 SWAP2 SWAP1 PUSH2 0x408 JUMP JUMPDEST PUSH1 0x40 MLOAD PUSH1 0x20 DUP2 DUP4 SUB SUB DUP2 MSTORE SWAP1 PUSH1 0x40 MSTORE PUSH32 0x3F7A027000000000000000000000000000000000000000000000000000000000 PUSH28 0xFFFFFFFFFFFFFFFFFFFFFFFFFFFFFFFFFFFFFFFFFFFFFFFFFFFFFFFF NOT AND PUSH1 0x20 DUP3 ADD DUP1 MLOAD PUSH28 0xFFFFFFFFFFFFFFFFFFFFFFFFFFFFFFFFFFFFFFFFFFFFFFFFFFFFFFFF DUP4 DUP2 DUP4 AND OR DUP4 MSTORE POP POP POP POP SWAP1 POP DUP3 PUSH20 0xFFFFFFFFFFFFFFFFFFFFFFFFFFFFFFFFFFFFFFFF AND DUP2 PUSH1 0x40 MLOAD PUSH2 0x17C SWAP2 SWAP1 PUSH2 0x494 JUMP JUMPDEST PUSH1 0x0 PUSH1 0x40 MLOAD DUP1 DUP4 SUB DUP2 DUP6 GAS DELEGATECALL SWAP2 POP POP RETURNDATASIZE DUP1 PUSH1 0x0 DUP2 EQ PUSH2 0x1B7 JUMPI PUSH1 0x40 MLOAD SWAP2 POP PUSH1 0x1F NOT PUSH1 0x3F RETURNDATASIZE ADD AND DUP3 ADD PUSH1 0x40 MSTORE RETURNDATASIZE DUP3 MSTORE RETURNDATASIZE PUSH1 0x0 PUSH1 0x20 DUP5 ADD RETURNDATACOPY PUSH2 0x1BC JUMP JUMPDEST PUSH1 0x60 SWAP2 POP JUMPDEST POP POP POP POP POP POP JUMP JUMPDEST PUSH1 0x1 PUSH1 0x0 SWAP1 SLOAD SWAP1 PUSH2 0x100 EXP SWAP1 DIV PUSH20 0xFFFFFFFFFFFFFFFFFFFFFFFFFFFFFFFFFFFFFFFF AND DUP2 JUMP JUMPDEST PUSH1 0x0 SLOAD DUP2 JUMP JUMPDEST PUSH1 0x0 DUP2 PUSH1 0x40 MLOAD PUSH1 0x24 ADD PUSH2 0x203 SWAP2 SWAP1 PUSH2 0x408 JUMP JUMPDEST PUSH1 0x40 MLOAD PUSH1 0x20 DUP2 DUP4 SUB SUB DUP2 MSTORE SWAP1 PUSH1 0x40 MSTORE PUSH32 0x3F7A027000000000000000000000000000000000000000000000000000000000 PUSH28 0xFFFFFFFFFFFFFFFFFFFFFFFFFFFFFFFFFFFFFFFFFFFFFFFFFFFFFFFF NOT AND PUSH1 0x20 DUP3 ADD DUP1 MLOAD PUSH28 0xFFFFFFFFFFFFFFFFFFFFFFFFFFFFFFFFFFFFFFFFFFFFFFFFFFFFFFFF DUP4 DUP2 DUP4 AND OR DUP4 MSTORE POP POP POP POP SWAP1 POP DUP3 PUSH20 0xFFFFFFFFFFFFFFFFFFFFFFFFFFFFFFFFFFFFFFFF AND PUSH3 0x493E0 DUP3 PUSH1 0x40 MLOAD PUSH2 0x2AB SWAP2 SWAP1 PUSH2 0x494 JUMP JUMPDEST PUSH1 0x0 PUSH1 0x40 MLOAD DUP1 DUP4 SUB DUP2 PUSH1 0x0 DUP8 DUP8 CALL SWAP3 POP POP POP RETURNDATASIZE DUP1 PUSH1 0x0 DUP2 EQ PUSH2 0x2E9 JUMPI PUSH1 0x40 MLOAD SWAP2 POP PUSH1 0x1F NOT PUSH1 0x3F RETURNDATASIZE ADD AND DUP3 ADD PUSH1 0x40 MSTORE RETURNDATASIZE DUP3 MSTORE RETURNDATASIZE PUSH1 0x0 PUSH1 0x20 DUP5 ADD RETURNDATACOPY PUSH2 0x2EE JUMP JUMPDEST PUSH1 0x60 SWAP2 POP JUMPDEST POP POP POP POP POP POP JUMP JUMPDEST PUSH1 0x0 DUP1 REVERT JUMPDEST PUSH1 0x0 PUSH20 0xFFFFFFFFFFFFFFFFFFFFFFFFFFFFFFFFFFFFFFFF DUP3 AND SWAP1 POP SWAP2 SWAP1 POP JUMP JUMPDEST PUSH1 0x0 PUSH2 0x326 DUP3 PUSH2 0x2FB JUMP JUMPDEST SWAP1 POP SWAP2 SWAP1 POP JUMP JUMPDEST PUSH2 0x336 DUP2 PUSH2 0x31B JUMP JUMPDEST DUP2 EQ PUSH2 0x341 JUMPI PUSH1 0x0 DUP1 REVERT JUMPDEST POP JUMP JUMPDEST PUSH1 0x0 DUP2 CALLDATALOAD SWAP1 POP PUSH2 0x353 DUP2 PUSH2 0x32D JUMP JUMPDEST SWAP3 SWAP2 POP POP JUMP JUMPDEST PUSH1 0x0 DUP2 SWAP1 POP SWAP2 SWAP1 POP JUMP JUMPDEST PUSH2 0x36C DUP2 PUSH2 0x359 JUMP JUMPDEST DUP2 EQ PUSH2 0x377 JUMPI PUSH1 0x0 DUP1 REVERT JUMPDEST POP JUMP JUMPDEST PUSH1 0x0 DUP2 CALLDATALOAD SWAP1 POP PUSH2 0x389 DUP2 PUSH2 0x363 JUMP JUMPDEST SWAP3 SWAP2 POP POP JUMP JUMPDEST PUSH1 0x0 DUP1 PUSH1 0x40 DUP4 DUP6 SUB SLT ISZERO PUSH2 0x3A6 JUMPI PUSH2 0x3A5 PUSH2 0x2F6 JUMP JUMPDEST JUMPDEST PUSH1 0x0 PUSH2 0x3B4 DUP6 DUP3 DUP7 ADD PUSH2 0x344 JUMP JUMPDEST SWAP3 POP POP PUSH1 0x20 PUSH2 0x3C5 DUP6 DUP3 DUP7 ADD PUSH2 0x37A JUMP JUMPDEST SWAP2 POP POP SWAP3 POP SWAP3 SWAP1 POP JUMP JUMPDEST PUSH2 0x3D8 DUP2 PUSH2 0x31B JUMP JUMPDEST DUP3 MSTORE POP POP JUMP JUMPDEST PUSH1 0x0 PUSH1 0x20 DUP3 ADD SWAP1 POP PUSH2 0x3F3 PUSH1 0x0 DUP4 ADD DUP5 PUSH2 0x3CF JUMP JUMPDEST SWAP3 SWAP2 POP POP JUMP JUMPDEST PUSH2 0x402 DUP2 PUSH2 0x359 JUMP JUMPDEST DUP3 MSTORE POP POP JUMP JUMPDEST PUSH1 0x0 PUSH1 0x20 DUP3 ADD SWAP1 POP PUSH2 0x41D PUSH1 0x0 DUP4 ADD DUP5 PUSH2 0x3F9 JUMP JUMPDEST SWAP3 SWAP2 POP POP JUMP JUMPDEST PUSH1 0x0 DUP2 MLOAD SWAP1 POP SWAP2 SWAP1 POP JUMP JUMPDEST PUSH1 0x0 DUP2 SWAP1 POP SWAP3 SWAP2 POP POP JUMP JUMPDEST PUSH1 0x0 JUMPDEST DUP4 DUP2 LT ISZERO PUSH2 0x457 JUMPI DUP1 DUP3 ADD MLOAD DUP2 DUP5 ADD MSTORE PUSH1 0x20 DUP2 ADD SWAP1 POP PUSH2 0x43C JUMP JUMPDEST PUSH1 0x0 DUP5 DUP5 ADD MSTORE POP POP POP POP JUMP JUMPDEST PUSH1 0x0 PUSH2 0x46E DUP3 PUSH2 0x423 JUMP JUMPDEST PUSH2 0x478 DUP2 DUP6 PUSH2 0x42E JUMP JUMPDEST SWAP4 POP PUSH2 0x488 DUP2 DUP6 PUSH1 0x20 DUP7 ADD PUSH2 0x439 JUMP JUMPDEST DUP1 DUP5 ADD SWAP2 POP POP SWAP3 SWAP2 POP POP JUMP JUMPDEST PUSH1 0x0 PUSH2 0x4A0 DUP3 DUP5 PUSH2 0x463 JUMP JUMPDEST SWAP2 POP DUP2 SWAP1 POP SWAP3 SWAP2 POP POP JUMP INVALID LOG2 PUSH5 0x6970667358 0x22 SLT KECCAK256 0xE4 0x22 SDIV 0xF6 0xAE SLOAD DUP8 0x4E 0x21 PUSH12 0xFF90455B9EDDC8349584906C LOG1 0xA6 0x26 0xBE 0x4A NOT 0xBB DUP14 0x4A 0x4D PUSH5 0x736F6C6343 STOP ADDMOD GT STOP CALLER "
		},
		"gasEstimates": {
			"creation": {
				"codeDepositCost": "249800",
				"executionCost": "294",
				"totalCost": "250094"
			},
			"external": {
				"callN(address,uint256)": "infinite",
				"delegateCallN(address,uint256)": "infinite",
				"number()": "2451",
				"sender()": "2514"
			}
		},
		"methodIdentifiers": {
			"callN(address,uint256)": "905edae5",
			"delegateCallN(address,uint256)": "171e1996",
			"number()": "8381f58a",
			"sender()": "67e404ce"
		}
	},
	"abi": [
		{
			"inputs": [
				{
					"internalType": "address",
					"name": "e",
					"type": "address"
				},
				{
					"internalType": "uint256",
					"name": "n",
					"type": "uint256"
				}
			],
			"name": "callN",
			"outputs": [],
			"stateMutability": "nonpayable",
			"type": "function"
		},
		{
			"inputs": [
				{
					"internalType": "address",
					"name": "e",
					"type": "address"
				},
				{
					"internalType": "uint256",
					"name": "n",
					"type": "uint256"
				}
			],
			"name": "delegateCallN",
			"outputs": [],
			"stateMutability": "nonpayable",
			"type": "function"
		},
		{
			"inputs": [],
			"name": "number",
			"outputs": [
				{
					"internalType": "uint256",
					"name": "",
					"type": "uint256"
				}
			],
			"stateMutability": "view",
			"type": "function"
		},
		{
			"inputs": [],
			"name": "sender",
			"outputs": [
				{
					"internalType": "address",
					"name": "",
					"type": "address"
				}
			],
			"stateMutability": "view",
			"type": "function"
		}
	]
}