{
	"data": {
		"bytecode": {
			"linkReferences": {},
			"object": "608060405234801561001057600080fd5b50610b21806100206000396000f3fe608060405234801561001057600080fd5b50600436106100575760003560e01c8063455f50241461005c5780639507d39a14610078578063b6a46b3b146100a9578063bc8bc2b4146100c5578063cd111614146100f6575b600080fd5b610076600480360381019061007191906104ba565b610112565b005b610092600480360381019061008d91906104ba565b610185565b6040516100a0929190610592565b60405180910390f35b6100c360048036038101906100be9190610627565b61027a565b005b6100df60048036038101906100da91906104ba565b61033d565b6040516100ed929190610592565b60405180910390f35b610110600480360381019061010b9190610674565b610406565b005b60008181548110610126576101256106d4565b5b906000526020600020906002020160010160009054906101000a900460ff16156000828154811061015a576101596106d4565b5b906000526020600020906002020160010160006101000a81548160ff02191690831515021790555050565b60606000806000848154811061019e5761019d6106d4565b5b90600052602060002090600202016040518060400160405290816000820180546101c790610732565b80601f01602080910402602001604051908101604052809291908181526020018280546101f390610732565b80156102405780601f1061021557610100808354040283529160200191610240565b820191906000526020600020905b81548152906001019060200180831161022357829003601f168201915b505050505081526020016001820160009054906101000a900460ff1615151515815250509050806000015181602001519250925050915091565b6000604051806040016040528084848080601f016020809104026020016040519081016040528093929190818152602001838380828437600081840152601f19601f8201169050808301925050505050505081526020016000151581525090806001815401808255809150506001900390600052602060002090600202016000909190919091506000820151816000019081610316919061093e565b5060208201518160010160006101000a81548160ff02191690831515021790555050505050565b6000818154811061034d57600080fd5b906000526020600020906002020160009150905080600001805461037090610732565b80601f016020809104026020016040519081016040528092919081815260200182805461039c90610732565b80156103e95780601f106103be576101008083540402835291602001916103e9565b820191906000526020600020905b8154815290600101906020018083116103cc57829003601f168201915b5050505050908060010160009054906101000a900460ff16905082565b81816000858154811061041c5761041b6106d4565b5b9060005260206000209060020201600001918261043a929190610a1b565b5060008084815481106104505761044f6106d4565b5b906000526020600020906002020190508282826000019182610473929190610a1b565b5050505050565b600080fd5b600080fd5b6000819050919050565b61049781610484565b81146104a257600080fd5b50565b6000813590506104b48161048e565b92915050565b6000602082840312156104d0576104cf61047a565b5b60006104de848285016104a5565b91505092915050565b600081519050919050565b600082825260208201905092915050565b60005b83811015610521578082015181840152602081019050610506565b60008484015250505050565b6000601f19601f8301169050919050565b6000610549826104e7565b61055381856104f2565b9350610563818560208601610503565b61056c8161052d565b840191505092915050565b60008115159050919050565b61058c81610577565b82525050565b600060408201905081810360008301526105ac818561053e565b90506105bb6020830184610583565b9392505050565b600080fd5b600080fd5b600080fd5b60008083601f8401126105e7576105e66105c2565b5b8235905067ffffffffffffffff811115610604576106036105c7565b5b6020830191508360018202830111156106205761061f6105cc565b5b9250929050565b6000806020838503121561063e5761063d61047a565b5b600083013567ffffffffffffffff81111561065c5761065b61047f565b5b610668858286016105d1565b92509250509250929050565b60008060006040848603121561068d5761068c61047a565b5b600061069b868287016104a5565b935050602084013567ffffffffffffffff8111156106bc576106bb61047f565b5b6106c8868287016105d1565b92509250509250925092565b7f4e487b7100000000000000000000000000000000000000000000000000000000600052603260045260246000fd5b7f4e487b7100000000000000000000000000000000000000000000000000000000600052602260045260246000fd5b6000600282049050600182168061074a57607f821691505b60208210810361075d5761075c610703565b5b50919050565b7f4e487b7100000000000000000000000000000000000000000000000000000000600052604160045260246000fd5b60008190508160005260206000209050919050565b60006020601f8301049050919050565b600082821b905092915050565b6000600883026107f47fffffffffffffffffffffffffffffffffffffffffffffffffffffffffffffffff826107b7565b6107fe86836107b7565b95508019841693508086168417925050509392505050565b6000819050919050565b600061083b61083661083184610484565b610816565b610484565b9050919050565b6000819050919050565b61085583610820565b61086961086182610842565b8484546107c4565b825550505050565b600090565b61087e610871565b61088981848461084c565b505050565b5b818110156108ad576108a2600082610876565b60018101905061088f565b5050565b601f8211156108f2576108c381610792565b6108cc846107a7565b810160208510156108db578190505b6108ef6108e7856107a7565b83018261088e565b50505b505050565b600082821c905092915050565b6000610915600019846008026108f7565b1980831691505092915050565b600061092e8383610904565b9150826002028217905092915050565b610947826104e7565b67ffffffffffffffff8111156109605761095f610763565b5b61096a8254610732565b6109758282856108b1565b600060209050601f8311600181146109a85760008415610996578287015190505b6109a08582610922565b865550610a08565b601f1984166109b686610792565b60005b828110156109de578489015182556001820191506020850194506020810190506109b9565b868310156109fb57848901516109f7601f891682610904565b8355505b6001600288020188555050505b505050505050565b600082905092915050565b610a258383610a10565b67ffffffffffffffff811115610a3e57610a3d610763565b5b610a488254610732565b610a538282856108b1565b6000601f831160018114610a825760008415610a70578287013590505b610a7a8582610922565b865550610ae2565b601f198416610a9086610792565b60005b82811015610ab857848901358255600182019150602085019450602081019050610a93565b86831015610ad55784890135610ad1601f891682610904565b8355505b6001600288020188555050505b5050505050505056fea26469706673582212200ee8b80cda01d345f56a266a0d820637a7cfb96b8ff7afc496b9cdd0b309ac9764736f6c63430008110033",
			"opcodes": "PUSH1 0x80 PUSH1 0x40 MSTORE CALLVALUE DUP1 ISZERO PUSH2 0x10 JUMPI PUSH1 0x0 DUP1 REVERT JUMPDEST POP PUSH2 0xB21 DUP1 PUSH2 0x20 PUSH1 0x0 CODECOPY PUSH1 0x0 RETURN INVALID PUSH1 0x80 PUSH1 0x40 MSTORE CALLVALUE DUP1 ISZERO PUSH2 0x10 JUMPI PUSH1 0x0 DUP1 REVERT JUMPDEST POP PUSH1 0x4 CALLDATASIZE LT PUSH2 0x57 JUMPI PUSH1 0x0 CALLDATALOAD PUSH1 0xE0 SHR DUP1 PUSH4 0x455F5024 EQ PUSH2 0x5C JUMPI DUP1 PUSH4 0x9507D39A EQ PUSH2 0x78 JUMPI DUP1 PUSH4 0xB6A46B3B EQ PUSH2 0xA9 JUMPI DUP1 PUSH4 0xBC8BC2B4 EQ PUSH2 0xC5 JUMPI DUP1 PUSH4 0xCD111614 EQ PUSH2 0xF6 JUMPI JUMPDEST PUSH1 0x0 DUP1 REVERT JUMPDEST PUSH2 0x76 PUSH1 0x4 DUP1 CALLDATASIZE SUB DUP2 ADD SWAP1 PUSH2 0x71 SWAP2 SWAP1 PUSH2 0x4BA JUMP JUMPDEST PUSH2 0x112 JUMP JUMPDEST STOP JUMPDEST PUSH2 0x92 PUSH1 0x4 DUP1 CALLDATASIZE SUB DUP2 ADD SWAP1 PUSH2 0x8D SWAP2 SWAP1 PUSH2 0x4BA JUMP JUMPDEST PUSH2 0x185 JUMP JUMPDEST PUSH1 0x40 MLOAD PUSH2 0xA0 SWAP3 SWAP2 SWAP1 PUSH2 0x592 JUMP JUMPDEST PUSH1 0x40 MLOAD DUP1 SWAP2 SUB SWAP1 RETURN JUMPDEST PUSH2 0xC3 PUSH1 0x4 DUP1 CALLDATASIZE SUB DUP2 ADD SWAP1 PUSH2 0xBE SWAP2 SWAP1 PUSH2 0x627 JUMP JUMPDEST PUSH2 0x27A JUMP JUMPDEST STOP JUMPDEST PUSH2 0xDF PUSH1 0x4 DUP1 CALLDATASIZE SUB DUP2 ADD SWAP1 PUSH2 0xDA SWAP2 SWAP1 PUSH2 0x4BA JUMP JUMPDEST PUSH2 0x33D JUMP JUMPDEST PUSH1 0x40 MLOAD PUSH2 0xED SWAP3 SWAP2 SWAP1 PUSH2 0x592 JUMP JUMPDEST PUSH1 0x40 MLOAD DUP1 SWAP2 SUB SWAP1 RETURN JUMPDEST PUSH2 0x110 PUSH1 0x4 DUP1 CALLDATASIZE SUB DUP2 ADD SWAP1 PUSH2 0x10B SWAP2 SWAP1 PUSH2 0x674 JUMP JUMPDEST PUSH2 0x406 JUMP JUMPDEST STOP JUMPDEST PUSH1 0x0 DUP2 DUP2 SLOAD DUP2 LT PUSH2 0x126 JUMPI PUSH2 0x125 PUSH2 0x6D4 JUMP JUMPDEST JUMPDEST SWAP1 PUSH1 0x0 MSTORE PUSH1 0x20 PUSH1 0x0 KECCAK256 SWAP1 PUSH1 0x2 MUL ADD PUSH1 0x1 ADD PUSH1 0x0 SWAP1 SLOAD SWAP1 PUSH2 0x100 EXP SWAP1 DIV PUSH1 0xFF AND ISZERO PUSH1 0x0 DUP3 DUP2 SLOAD DUP2 LT PUSH2 0x15A JUMPI PUSH2 0x159 PUSH2 0x6D4 JUMP JUMPDEST JUMPDEST SWAP1 PUSH1 0x0 MSTORE PUSH1 0x20 PUSH1 0x0 KECCAK256 SWAP1 PUSH1 0x2 MUL ADD PUSH1 0x1 ADD PUSH1 0x0 PUSH2 0x100 EXP DUP2 SLOAD DUP2 PUSH1 0xFF MUL NOT AND SWAP1 DUP4 ISZERO ISZERO MUL OR SWAP1 SSTORE POP POP JUMP JUMPDEST PUSH1 0x60 PUSH1 0x0 DUP1 PUSH1 0x0 DUP5 DUP2 SLOAD DUP2 LT PUSH2 0x19E JUMPI PUSH2 0x19D PUSH2 0x6D4 JUMP JUMPDEST JUMPDEST SWAP1 PUSH1 0x0 MSTORE PUSH1 0x20 PUSH1 0x0 KECCAK256 SWAP1 PUSH1 0x2 MUL ADD PUSH1 0x40 MLOAD DUP1 PUSH1 0x40 ADD PUSH1 0x40 MSTORE SWAP1 DUP2 PUSH1 0x0 DUP3 ADD DUP1 SLOAD PUSH2 0x1C7 SWAP1 PUSH2 0x732 JUMP JUMPDEST DUP1 PUSH1 0x1F ADD PUSH1 0x20 DUP1 SWAP2 DIV MUL PUSH1 0x20 ADD PUSH1 0x40 MLOAD SWAP1 DUP2 ADD PUSH1 0x40 MSTORE DUP1 SWAP3 SWAP2 SWAP1 DUP2 DUP2 MSTORE PUSH1 0x20 ADD DUP3 DUP1 SLOAD PUSH2 0x1F3 SWAP1 PUSH2 0x732 JUMP JUMPDEST DUP1 ISZERO PUSH2 0x240 JUMPI DUP1 PUSH1 0x1F LT PUSH2 0x215 JUMPI PUSH2 0x100 DUP1 DUP4 SLOAD DIV MUL DUP4 MSTORE SWAP2 PUSH1 0x20 ADD SWAP2 PUSH2 0x240 JUMP JUMPDEST DUP3 ADD SWAP2 SWAP1 PUSH1 0x0 MSTORE PUSH1 0x20 PUSH1 0x0 KECCAK256 SWAP1 JUMPDEST DUP2 SLOAD DUP2 MSTORE SWAP1 PUSH1 0x1 ADD SWAP1 PUSH1 0x20 ADD DUP1 DUP4 GT PUSH2 0x223 JUMPI DUP3 SWAP1 SUB PUSH1 0x1F AND DUP3 ADD SWAP2 JUMPDEST POP POP POP POP POP DUP2 MSTORE PUSH1 0x20 ADD PUSH1 0x1 DUP3 ADD PUSH1 0x0 SWAP1 SLOAD SWAP1 PUSH2 0x100 EXP SWAP1 DIV PUSH1 0xFF AND ISZERO ISZERO ISZERO ISZERO DUP2 MSTORE POP POP SWAP1 POP DUP1 PUSH1 0x0 ADD MLOAD DUP2 PUSH1 0x20 ADD MLOAD SWAP3 POP SWAP3 POP POP SWAP2 POP SWAP2 JUMP JUMPDEST PUSH1 0x0 PUSH1 0x40 MLOAD DUP1 PUSH1 0x40 ADD PUSH1 0x40 MSTORE DUP1 DUP5 DUP5 DUP1 DUP1 PUSH1 0x1F ADD PUSH1 0x20 DUP1 SWAP2 DIV MUL PUSH1 0x20 ADD PUSH1 0x40 MLOAD SWAP1 DUP2 ADD PUSH1 0x40 MSTORE DUP1 SWAP4 SWAP3 SWAP2 SWAP1 DUP2 DUP2 MSTORE PUSH1 0x20 ADD DUP4 DUP4 DUP1 DUP3 DUP5 CALLDATACOPY PUSH1 0x0 DUP2 DUP5 ADD MSTORE PUSH1 0x1F NOT PUSH1 0x1F DUP3 ADD AND SWAP1 POP DUP1 DUP4 ADD SWAP3 POP POP POP POP POP POP POP DUP2 MSTORE PUSH1 0x20 ADD PUSH1 0x0 ISZERO ISZERO DUP2 MSTORE POP SWAP1 DUP1 PUSH1 0x1 DUP2 SLOAD ADD DUP1 DUP3 SSTORE DUP1 SWAP2 POP POP PUSH1 0x1 SWAP1 SUB SWAP1 PUSH1 0x0 MSTORE PUSH1 0x20 PUSH1 0x0 KECCAK256 SWAP1 PUSH1 0x2 MUL ADD PUSH1 0x0 SWAP1 SWAP2 SWAP1 SWAP2 SWAP1 SWAP2 POP PUSH1 0x0 DUP3 ADD MLOAD DUP2 PUSH1 0x0 ADD SWAP1 DUP2 PUSH2 0x316 SWAP2 SWAP1 PUSH2 0x93E JUMP JUMPDEST POP PUSH1 0x20 DUP3 ADD MLOAD DUP2 PUSH1 0x1 ADD PUSH1 0x0 PUSH2 0x100 EXP DUP2 SLOAD DUP2 PUSH1 0xFF MUL NOT AND SWAP1 DUP4 ISZERO ISZERO MUL OR SWAP1 SSTORE POP POP POP POP POP JUMP JUMPDEST PUSH1 0x0 DUP2 DUP2 SLOAD DUP2 LT PUSH2 0x34D JUMPI PUSH1 0x0 DUP1 REVERT JUMPDEST SWAP1 PUSH1 0x0 MSTORE PUSH1 0x20 PUSH1 0x0 KECCAK256 SWAP1 PUSH1 0x2 MUL ADD PUSH1 0x0 SWAP2 POP SWAP1 POP DUP1 PUSH1 0x0 ADD DUP1 SLOAD PUSH2 0x370 SWAP1 PUSH2 0x732 JUMP JUMPDEST DUP1 PUSH1 0x1F ADD PUSH1 0x20 DUP1 SWAP2 DIV MUL PUSH1 0x20 ADD PUSH1 0x40 MLOAD SWAP1 DUP2 ADD PUSH1 0x40 MSTORE DUP1 SWAP3 SWAP2 SWAP1 DUP2 DUP2 MSTORE PUSH1 0x20 ADD DUP3 DUP1 SLOAD PUSH2 0x39C SWAP1 PUSH2 0x732 JUMP JUMPDEST DUP1 ISZERO PUSH2 0x3E9 JUMPI DUP1 PUSH1 0x1F LT PUSH2 0x3BE JUMPI PUSH2 0x100 DUP1 DUP4 SLOAD DIV MUL DUP4 MSTORE SWAP2 PUSH1 0x20 ADD SWAP2 PUSH2 0x3E9 JUMP JUMPDEST DUP3 ADD SWAP2 SWAP1 PUSH1 0x0 MSTORE PUSH1 0x20 PUSH1 0x0 KECCAK256 SWAP1 JUMPDEST DUP2 SLOAD DUP2 MSTORE SWAP1 PUSH1 0x1 ADD SWAP1 PUSH1 0x20 ADD DUP1 DUP4 GT PUSH2 0x3CC JUMPI DUP3 SWAP1 SUB PUSH1 0x1F AND DUP3 ADD SWAP2 JUMPDEST POP POP POP POP POP SWAP1 DUP1 PUSH1 0x1 ADD PUSH1 0x0 SWAP1 SLOAD SWAP1 PUSH2 0x100 EXP SWAP1 DIV PUSH1 0xFF AND SWAP1 POP DUP3 JUMP JUMPDEST DUP2 DUP2 PUSH1 0x0 DUP6 DUP2 SLOAD DUP2 LT PUSH2 0x41C JUMPI PUSH2 0x41B PUSH2 0x6D4 JUMP JUMPDEST JUMPDEST SWAP1 PUSH1 0x0 MSTORE PUSH1 0x20 PUSH1 0x0 KECCAK256 SWAP1 PUSH1 0x2 MUL ADD PUSH1 0x0 ADD SWAP2 DUP3 PUSH2 0x43A SWAP3 SWAP2 SWAP1 PUSH2 0xA1B JUMP JUMPDEST POP PUSH1 0x0 DUP1 DUP5 DUP2 SLOAD DUP2 LT PUSH2 0x450 JUMPI PUSH2 0x44F PUSH2 0x6D4 JUMP JUMPDEST JUMPDEST SWAP1 PUSH1 0x0 MSTORE PUSH1 0x20 PUSH1 0x0 KECCAK256 SWAP1 PUSH1 0x2 MUL ADD SWAP1 POP DUP3 DUP3 DUP3 PUSH1 0x0 ADD SWAP2 DUP3 PUSH2 0x473 SWAP3 SWAP2 SWAP1 PUSH2 0xA1B JUMP JUMPDEST POP POP POP POP POP JUMP JUMPDEST PUSH1 0x0 DUP1 REVERT JUMPDEST PUSH1 0x0 DUP1 REVERT JUMPDEST PUSH1 0x0 DUP2 SWAP1 POP SWAP2 SWAP1 POP JUMP JUMPDEST PUSH2 0x497 DUP2 PUSH2 0x484 JUMP JUMPDEST DUP2 EQ PUSH2 0x4A2 JUMPI PUSH1 0x0 DUP1 REVERT JUMPDEST POP JUMP JUMPDEST PUSH1 0x0 DUP2 CALLDATALOAD SWAP1 POP PUSH2 0x4B4 DUP2 PUSH2 0x48E JUMP JUMPDEST SWAP3 SWAP2 POP POP JUMP JUMPDEST PUSH1 0x0 PUSH1 0x20 DUP3 DUP5 SUB SLT ISZERO PUSH2 0x4D0 JUMPI PUSH2 0x4CF PUSH2 0x47A JUMP JUMPDEST JUMPDEST PUSH1 0x0 PUSH2 0x4DE DUP5 DUP3 DUP6 ADD PUSH2 0x4A5 JUMP JUMPDEST SWAP2 POP POP SWAP3 SWAP2 POP POP JUMP JUMPDEST PUSH1 0x0 DUP2 MLOAD SWAP1 POP SWAP2 SWAP1 POP JUMP JUMPDEST PUSH1 0x0 DUP3 DUP3 MSTORE PUSH1 0x20 DUP3 ADD SWAP1 POP SWAP3 SWAP2 POP POP JUMP JUMPDEST PUSH1 0x0 JUMPDEST DUP4 DUP2 LT ISZERO PUSH2 0x521 JUMPI DUP1 DUP3 ADD MLOAD DUP2 DUP5 ADD MSTORE PUSH1 0x20 DUP2 ADD SWAP1 POP PUSH2 0x506 JUMP JUMPDEST PUSH1 0x0 DUP5 DUP5 ADD MSTORE POP POP POP POP JUMP JUMPDEST PUSH1 0x0 PUSH1 0x1F NOT PUSH1 0x1F DUP4 ADD AND SWAP1 POP SWAP2 SWAP1 POP JUMP JUMPDEST PUSH1 0x0 PUSH2 0x549 DUP3 PUSH2 0x4E7 JUMP JUMPDEST PUSH2 0x553 DUP2 DUP6 PUSH2 0x4F2 JUMP JUMPDEST SWAP4 POP PUSH2 0x563 DUP2 DUP6 PUSH1 0x20 DUP7 ADD PUSH2 0x503 JUMP JUMPDEST PUSH2 0x56C DUP2 PUSH2 0x52D JUMP JUMPDEST DUP5 ADD SWAP2 POP POP SWAP3 SWAP2 POP POP JUMP JUMPDEST PUSH1 0x0 DUP2 ISZERO ISZERO SWAP1 POP SWAP2 SWAP1 POP JUMP JUMPDEST PUSH2 0x58C DUP2 PUSH2 0x577 JUMP JUMPDEST DUP3 MSTORE POP POP JUMP JUMPDEST PUSH1 0x0 PUSH1 0x40 DUP3 ADD SWAP1 POP DUP2 DUP2 SUB PUSH1 0x0 DUP4 ADD MSTORE PUSH2 0x5AC DUP2 DUP6 PUSH2 0x53E JUMP JUMPDEST SWAP1 POP PUSH2 0x5BB PUSH1 0x20 DUP4 ADD DUP5 PUSH2 0x583 JUMP JUMPDEST SWAP4 SWAP3 POP POP POP JUMP JUMPDEST PUSH1 0x0 DUP1 REVERT JUMPDEST PUSH1 0x0 DUP1 REVERT JUMPDEST PUSH1 0x0 DUP1 REVERT JUMPDEST PUSH1 0x0 DUP1 DUP4 PUSH1 0x1F DUP5 ADD SLT PUSH2 0x5E7 JUMPI PUSH2 0x5E6 PUSH2 0x5C2 JUMP JUMPDEST JUMPDEST DUP3 CALLDATALOAD SWAP1 POP PUSH8 0xFFFFFFFFFFFFFFFF DUP2 GT ISZERO PUSH2 0x604 JUMPI PUSH2 0x603 PUSH2 0x5C7 JUMP JUMPDEST JUMPDEST PUSH1 0x20 DUP4 ADD SWAP2 POP DUP4 PUSH1 0x1 DUP3 MUL DUP4 ADD GT ISZERO PUSH2 0x620 JUMPI PUSH2 0x61F PUSH2 0x5CC JUMP JUMPDEST JUMPDEST SWAP3 POP SWAP3 SWAP1 POP JUMP JUMPDEST PUSH1 0x0 DUP1 PUSH1 0x20 DUP4 DUP6 SUB SLT ISZERO PUSH2 0x63E JUMPI PUSH2 0x63D PUSH2 0x47A JUMP JUMPDEST JUMPDEST PUSH1 0x0 DUP4 ADD CALLDATALOAD PUSH8 0xFFFFFFFFFFFFFFFF DUP2 GT ISZERO PUSH2 0x65C JUMPI PUSH2 0x65B PUSH2 0x47F JUMP JUMPDEST JUMPDEST PUSH2 0x668 DUP6 DUP3 DUP7 ADD PUSH2 0x5D1 JUMP JUMPDEST SWAP3 POP SWAP3 POP POP SWAP3 POP SWAP3 SWAP1 POP JUMP JUMPDEST PUSH1 0x0 DUP1 PUSH1 0x0 PUSH1 0x40 DUP5 DUP7 SUB SLT ISZERO PUSH2 0x68D JUMPI PUSH2 0x68C PUSH2 0x47A JUMP JUMPDEST JUMPDEST PUSH1 0x0 PUSH2 0x69B DUP7 DUP3 DUP8 ADD PUSH2 0x4A5 JUMP JUMPDEST SWAP4 POP POP PUSH1 0x20 DUP5 ADD CALLDATALOAD PUSH8 0xFFFFFFFFFFFFFFFF DUP2 GT ISZERO PUSH2 0x6BC JUMPI PUSH2 0x6BB PUSH2 0x47F JUMP JUMPDEST JUMPDEST PUSH2 0x6C8 DUP7 DUP3 DUP8 ADD PUSH2 0x5D1 JUMP JUMPDEST SWAP3 POP SWAP3 POP POP SWAP3 POP SWAP3 POP SWAP3 JUMP JUMPDEST PUSH32 0x4E487B7100000000000000000000000000000000000000000000000000000000 PUSH1 0x0 MSTORE PUSH1 0x32 PUSH1 0x4 MSTORE PUSH1 0x24 PUSH1 0x0 REVERT JUMPDEST PUSH32 0x4E487B7100000000000000000000000000000000000000000000000000000000 PUSH1 0x0 MSTORE PUSH1 0x22 PUSH1 0x4 MSTORE PUSH1 0x24 PUSH1 0x0 REVERT JUMPDEST PUSH1 0x0 PUSH1 0x2 DUP3 DIV SWAP1 POP PUSH1 0x1 DUP3 AND DUP1 PUSH2 0x74A JUMPI PUSH1 0x7F DUP3 AND SWAP2 POP JUMPDEST PUSH1 0x20 DUP3 LT DUP2 SUB PUSH2 0x75D JUMPI PUSH2 0x75C PUSH2 0x703 JUMP JUMPDEST JUMPDEST POP SWAP2 SWAP1 POP JUMP JUMPDEST PUSH32 0x4E487B7100000000000000000000000000000000000000000000000000000000 PUSH1 0x0 MSTORE PUSH1 0x41 PUSH1 0x4 MSTORE PUSH1 0x24 PUSH1 0x0 REVERT JUMPDEST PUSH1 0x0 DUP2 SWAP1 POP DUP2 PUSH1 0x0 MSTORE PUSH1 0x20 PUSH1 0x0 KECCAK256 SWAP1 POP SWAP2 SWAP1 POP JUMP JUMPDEST PUSH1 0x0 PUSH1 0x20 PUSH1 0x1F DUP4 ADD DIV SWAP1 POP SWAP2 SWAP1 POP JUMP JUMPDEST PUSH1 0x0 DUP3 DUP3 SHL SWAP1 POP SWAP3 SWAP2 POP POP JUMP JUMPDEST PUSH1 0x0 PUSH1 0x8 DUP4 MUL PUSH2 0x7F4 PUSH32 0xFFFFFFFFFFFFFFFFFFFFFFFFFFFFFFFFFFFFFFFFFFFFFFFFFFFFFFFFFFFFFFFF DUP3 PUSH2 0x7B7 JUMP JUMPDEST PUSH2 0x7FE DUP7 DUP4 PUSH2 0x7B7 JUMP JUMPDEST SWAP6 POP DUP1 NOT DUP5 AND SWAP4 POP DUP1 DUP7 AND DUP5 OR SWAP3 POP POP POP SWAP4 SWAP3 POP POP POP JUMP JUMPDEST PUSH1 0x0 DUP2 SWAP1 POP SWAP2 SWAP1 POP JUMP JUMPDEST PUSH1 0x0 PUSH2 0x83B PUSH2 0x836 PUSH2 0x831 DUP5 PUSH2 0x484 JUMP JUMPDEST PUSH2 0x816 JUMP JUMPDEST PUSH2 0x484 JUMP JUMPDEST SWAP1 POP SWAP2 SWAP1 POP JUMP JUMPDEST PUSH1 0x0 DUP2 SWAP1 POP SWAP2 SWAP1 POP JUMP JUMPDEST PUSH2 0x855 DUP4 PUSH2 0x820 JUMP JUMPDEST PUSH2 0x869 PUSH2 0x861 DUP3 PUSH2 0x842 JUMP JUMPDEST DUP5 DUP5 SLOAD PUSH2 0x7C4 JUMP JUMPDEST DUP3 SSTORE POP POP POP POP JUMP JUMPDEST PUSH1 0x0 SWAP1 JUMP JUMPDEST PUSH2 0x87E PUSH2 0x871 JUMP JUMPDEST PUSH2 0x889 DUP2 DUP5 DUP5 PUSH2 0x84C JUMP JUMPDEST POP POP POP JUMP JUMPDEST JUMPDEST DUP2 DUP2 LT ISZERO PUSH2 0x8AD JUMPI PUSH2 0x8A2 PUSH1 0x0 DUP3 PUSH2 0x876 JUMP JUMPDEST PUSH1 0x1 DUP2 ADD SWAP1 POP PUSH2 0x88F JUMP JUMPDEST POP POP JUMP JUMPDEST PUSH1 0x1F DUP3 GT ISZERO PUSH2 0x8F2 JUMPI PUSH2 0x8C3 DUP2 PUSH2 0x792 JUMP JUMPDEST PUSH2 0x8CC DUP5 PUSH2 0x7A7 JUMP JUMPDEST DUP2 ADD PUSH1 0x20 DUP6 LT ISZERO PUSH2 0x8DB JUMPI DUP2 SWAP1 POP JUMPDEST PUSH2 0x8EF PUSH2 0x8E7 DUP6 PUSH2 0x7A7 JUMP JUMPDEST DUP4 ADD DUP3 PUSH2 0x88E JUMP JUMPDEST POP POP JUMPDEST POP POP POP JUMP JUMPDEST PUSH1 0x0 DUP3 DUP3 SHR SWAP1 POP SWAP3 SWAP2 POP POP JUMP JUMPDEST PUSH1 0x0 PUSH2 0x915 PUSH1 0x0 NOT DUP5 PUSH1 0x8 MUL PUSH2 0x8F7 JUMP JUMPDEST NOT DUP1 DUP4 AND SWAP2 POP POP SWAP3 SWAP2 POP POP JUMP JUMPDEST PUSH1 0x0 PUSH2 0x92E DUP4 DUP4 PUSH2 0x904 JUMP JUMPDEST SWAP2 POP DUP3 PUSH1 0x2 MUL DUP3 OR SWAP1 POP SWAP3 SWAP2 POP POP JUMP JUMPDEST PUSH2 0x947 DUP3 PUSH2 0x4E7 JUMP JUMPDEST PUSH8 0xFFFFFFFFFFFFFFFF DUP2 GT ISZERO PUSH2 0x960 JUMPI PUSH2 0x95F PUSH2 0x763 JUMP JUMPDEST JUMPDEST PUSH2 0x96A DUP3 SLOAD PUSH2 0x732 JUMP JUMPDEST PUSH2 0x975 DUP3 DUP3 DUP6 PUSH2 0x8B1 JUMP JUMPDEST PUSH1 0x0 PUSH1 0x20 SWAP1 POP PUSH1 0x1F DUP4 GT PUSH1 0x1 DUP2 EQ PUSH2 0x9A8 JUMPI PUSH1 0x0 DUP5 ISZERO PUSH2 0x996 JUMPI DUP3 DUP8 ADD MLOAD SWAP1 POP JUMPDEST PUSH2 0x9A0 DUP6 DUP3 PUSH2 0x922 JUMP JUMPDEST DUP7 SSTORE POP PUSH2 0xA08 JUMP JUMPDEST PUSH1 0x1F NOT DUP5 AND PUSH2 0x9B6 DUP7 PUSH2 0x792 JUMP JUMPDEST PUSH1 0x0 JUMPDEST DUP3 DUP2 LT ISZERO PUSH2 0x9DE JUMPI DUP5 DUP10 ADD MLOAD DUP3 SSTORE PUSH1 0x1 DUP3 ADD SWAP2 POP PUSH1 0x20 DUP6 ADD SWAP5 POP PUSH1 0x20 DUP2 ADD SWAP1 POP PUSH2 0x9B9 JUMP JUMPDEST DUP7 DUP4 LT ISZERO PUSH2 0x9FB JUMPI DUP5 DUP10 ADD MLOAD PUSH2 0x9F7 PUSH1 0x1F DUP10 AND DUP3 PUSH2 0x904 JUMP JUMPDEST DUP4 SSTORE POP JUMPDEST PUSH1 0x1 PUSH1 0x2 DUP9 MUL ADD DUP9 SSTORE POP POP POP JUMPDEST POP POP POP POP POP POP JUMP JUMPDEST PUSH1 0x0 DUP3 SWAP1 POP SWAP3 SWAP2 POP POP JUMP JUMPDEST PUSH2 0xA25 DUP4 DUP4 PUSH2 0xA10 JUMP JUMPDEST PUSH8 0xFFFFFFFFFFFFFFFF DUP2 GT ISZERO PUSH2 0xA3E JUMPI PUSH2 0xA3D PUSH2 0x763 JUMP JUMPDEST JUMPDEST PUSH2 0xA48 DUP3 SLOAD PUSH2 0x732 JUMP JUMPDEST PUSH2 0xA53 DUP3 DUP3 DUP6 PUSH2 0x8B1 JUMP JUMPDEST PUSH1 0x0 PUSH1 0x1F DUP4 GT PUSH1 0x1 DUP2 EQ PUSH2 0xA82 JUMPI PUSH1 0x0 DUP5 ISZERO PUSH2 0xA70 JUMPI DUP3 DUP8 ADD CALLDATALOAD SWAP1 POP JUMPDEST PUSH2 0xA7A DUP6 DUP3 PUSH2 0x922 JUMP JUMPDEST DUP7 SSTORE POP PUSH2 0xAE2 JUMP JUMPDEST PUSH1 0x1F NOT DUP5 AND PUSH2 0xA90 DUP7 PUSH2 0x792 JUMP JUMPDEST PUSH1 0x0 JUMPDEST DUP3 DUP2 LT ISZERO PUSH2 0xAB8 JUMPI DUP5 DUP10 ADD CALLDATALOAD DUP3 SSTORE PUSH1 0x1 DUP3 ADD SWAP2 POP PUSH1 0x20 DUP6 ADD SWAP5 POP PUSH1 0x20 DUP2 ADD SWAP1 POP PUSH2 0xA93 JUMP JUMPDEST DUP7 DUP4 LT ISZERO PUSH2 0xAD5 JUMPI DUP5 DUP10 ADD CALLDATALOAD PUSH2 0xAD1 PUSH1 0x1F DUP10 AND DUP3 PUSH2 0x904 JUMP JUMPDEST DUP4 SSTORE POP JUMPDEST PUSH1 0x1 PUSH1 0x2 DUP9 MUL ADD DUP9 SSTORE POP POP POP JUMPDEST POP POP POP POP POP POP POP JUMP INVALID LOG2 PUSH5 0x6970667358 0x22 SLT KECCAK256 0xE 0xE8 0xB8 0xC 0xDA ADD 0xD3 GASLIMIT CREATE2 PUSH11 0x266A0D820637A7CFB96B8F 0xF7 0xAF 0xC4 SWAP7 0xB9 0xCD 0xD0 0xB3 MULMOD 0xAC SWAP8 PUSH5 0x736F6C6343 STOP ADDMOD GT STOP CALLER "
		},
		"gasEstimates": {
			"creation": {
				"codeDepositCost": "569800",
				"executionCost": "606",
				"totalCost": "570406"
			},
			"external": {
				"create(string)": "infinite",
				"get(uint256)": "infinite",
				"todos(uint256)": "infinite",
				"toggleCompleted(uint256)": "31184",
				"updateText(uint256,string)": "infinite"
			}
		},
		"methodIdentifiers": {
			"create(string)": "b6a46b3b",
			"get(uint256)": "9507d39a",
			"todos(uint256)": "bc8bc2b4",
			"toggleCompleted(uint256)": "455f5024",
			"updateText(uint256,string)": "cd111614"
		}
	},
	"abi": [
		{
			"inputs": [
				{
					"internalType": "string",
					"name": "_text",
					"type": "string"
				}
			],
			"name": "create",
			"outputs": [],
			"stateMutability": "nonpayable",
			"type": "function"
		},
		{
			"inputs": [
				{
					"internalType": "uint256",
					"name": "_index",
					"type": "uint256"
				}
			],
			"name": "get",
			"outputs": [
				{
					"internalType": "string",
					"name": "",
					"type": "string"
				},
				{
					"internalType": "bool",
					"name": "",
					"type": "bool"
				}
			],
			"stateMutability": "view",
			"type": "function"
		},
		{
			"inputs": [
				{
					"internalType": "uint256",
					"name": "",
					"type": "uint256"
				}
			],
			"name": "todos",
			"outputs": [
				{
					"internalType": "string",
					"name": "text",
					"type": "string"
				},
				{
					"internalType": "bool",
					"name": "isCompleted",
					"type": "bool"
				}
			],
			"stateMutability": "view",
			"type": "function"
		},
		{
			"inputs": [
				{
					"internalType": "uint256",
					"name": "_index",
					"type": "uint256"
				}
			],
			"name": "toggleCompleted",
			"outputs": [],
			"stateMutability": "nonpayable",
			"type": "function"
		},
		{
			"inputs": [
				{
					"internalType": "uint256",
					"name": "_index",
					"type": "uint256"
				},
				{
					"internalType": "string",
					"name": "_text",
					"type": "string"
				}
			],
			"name": "updateText",
			"outputs": [],
			"stateMutability": "nonpayable",
			"type": "function"
		}
	]
}