{
	"data": {
		"bytecode": {
			"linkReferences": {},
			"object": "608060405234801561001057600080fd5b506108fa806100206000396000f3fe608060405234801561001057600080fd5b50600436106100365760003560e01c80631f1bd6921461003b578063c298557814610059575b600080fd5b610043610077565b60405161005091906103db565b60405180910390f35b610061610105565b60405161006e91906103db565b60405180910390f35b600080546100849061042c565b80601f01602080910402602001604051908101604052809291908181526020018280546100b09061042c565b80156100fd5780601f106100d2576101008083540402835291602001916100fd565b820191906000526020600020905b8154815290600101906020018083116100e057829003601f168201915b505050505081565b60607fcf34ef537ac33ee1ac626ca1587a0a7e8e51561e5514f8cb36afa1c5102b3bab604051610134906104a9565b60405180910390a16101446101e3565b6000908161015291906106ae565b50600080546101609061042c565b80601f016020809104026020016040519081016040528092919081815260200182805461018c9061042c565b80156101d95780601f106101ae576101008083540402835291602001916101d9565b820191906000526020600020905b8154815290600101906020018083116101bc57829003601f168201915b5050505050905090565b60607fcf34ef537ac33ee1ac626ca1587a0a7e8e51561e5514f8cb36afa1c5102b3bab604051610212906107cc565b60405180910390a161022261025e565b506040518060400160405280600281526020017f7966000000000000000000000000000000000000000000000000000000000000815250905090565b60607fcf34ef537ac33ee1ac626ca1587a0a7e8e51561e5514f8cb36afa1c5102b3bab60405161028d90610838565b60405180910390a161029d6102d9565b506040518060400160405280600281526020017f7866000000000000000000000000000000000000000000000000000000000000815250905090565b60607fcf34ef537ac33ee1ac626ca1587a0a7e8e51561e5514f8cb36afa1c5102b3bab604051610308906108a4565b60405180910390a16040518060400160405280600281526020017f7766000000000000000000000000000000000000000000000000000000000000815250905090565b600081519050919050565b600082825260208201905092915050565b60005b8381101561038557808201518184015260208101905061036a565b60008484015250505050565b6000601f19601f8301169050919050565b60006103ad8261034b565b6103b78185610356565b93506103c7818560208601610367565b6103d081610391565b840191505092915050565b600060208201905081810360008301526103f581846103a2565b905092915050565b7f4e487b7100000000000000000000000000000000000000000000000000000000600052602260045260246000fd5b6000600282049050600182168061044457607f821691505b602082108103610457576104566103fd565b5b50919050565b7f5a2e666f6f000000000000000000000000000000000000000000000000000000600082015250565b6000610493600583610356565b915061049e8261045d565b602082019050919050565b600060208201905081810360008301526104c281610486565b9050919050565b7f4e487b7100000000000000000000000000000000000000000000000000000000600052604160045260246000fd5b60008190508160005260206000209050919050565b60006020601f8301049050919050565b600082821b905092915050565b60006008830261055a7fffffffffffffffffffffffffffffffffffffffffffffffffffffffffffffffff8261051d565b610564868361051d565b95508019841693508086168417925050509392505050565b6000819050919050565b6000819050919050565b60006105ab6105a66105a18461057c565b610586565b61057c565b9050919050565b6000819050919050565b6105c583610590565b6105d96105d1826105b2565b84845461052a565b825550505050565b600090565b6105ee6105e1565b6105f98184846105bc565b505050565b5b8181101561061d576106126000826105e6565b6001810190506105ff565b5050565b601f82111561066257610633816104f8565b61063c8461050d565b8101602085101561064b578190505b61065f6106578561050d565b8301826105fe565b50505b505050565b600082821c905092915050565b600061068560001984600802610667565b1980831691505092915050565b600061069e8383610674565b9150826002028217905092915050565b6106b78261034b565b67ffffffffffffffff8111156106d0576106cf6104c9565b5b6106da825461042c565b6106e5828285610621565b600060209050601f8311600181146107185760008415610706578287015190505b6107108582610692565b865550610778565b601f198416610726866104f8565b60005b8281101561074e57848901518255600182019150602085019450602081019050610729565b8683101561076b5784890151610767601f891682610674565b8355505b6001600288020188555050505b505050505050565b7f592e666f6f000000000000000000000000000000000000000000000000000000600082015250565b60006107b6600583610356565b91506107c182610780565b602082019050919050565b600060208201905081810360008301526107e5816107a9565b9050919050565b7f582e666f6f000000000000000000000000000000000000000000000000000000600082015250565b6000610822600583610356565b915061082d826107ec565b602082019050919050565b6000602082019050818103600083015261085181610815565b9050919050565b7f572e666f6f000000000000000000000000000000000000000000000000000000600082015250565b600061088e600583610356565b915061089982610858565b602082019050919050565b600060208201905081810360008301526108bd81610881565b905091905056fea2646970667358221220529036cef56b13f65931a9ff8dacfc1438b9a802016725f280aa0175093948b164736f6c63430008110033",
			"opcodes": "PUSH1 0x80 PUSH1 0x40 MSTORE CALLVALUE DUP1 ISZERO PUSH2 0x10 JUMPI PUSH1 0x0 DUP1 REVERT JUMPDEST POP PUSH2 0x8FA DUP1 PUSH2 0x20 PUSH1 0x0 CODECOPY PUSH1 0x0 RETURN INVALID PUSH1 0x80 PUSH1 0x40 MSTORE CALLVALUE DUP1 ISZERO PUSH2 0x10 JUMPI PUSH1 0x0 DUP1 REVERT JUMPDEST POP PUSH1 0x4 CALLDATASIZE LT PUSH2 0x36 JUMPI PUSH1 0x0 CALLDATALOAD PUSH1 0xE0 SHR DUP1 PUSH4 0x1F1BD692 EQ PUSH2 0x3B JUMPI DUP1 PUSH4 0xC2985578 EQ PUSH2 0x59 JUMPI JUMPDEST PUSH1 0x0 DUP1 REVERT JUMPDEST PUSH2 0x43 PUSH2 0x77 JUMP JUMPDEST PUSH1 0x40 MLOAD PUSH2 0x50 SWAP2 SWAP1 PUSH2 0x3DB JUMP JUMPDEST PUSH1 0x40 MLOAD DUP1 SWAP2 SUB SWAP1 RETURN JUMPDEST PUSH2 0x61 PUSH2 0x105 JUMP JUMPDEST PUSH1 0x40 MLOAD PUSH2 0x6E SWAP2 SWAP1 PUSH2 0x3DB JUMP JUMPDEST PUSH1 0x40 MLOAD DUP1 SWAP2 SUB SWAP1 RETURN JUMPDEST PUSH1 0x0 DUP1 SLOAD PUSH2 0x84 SWAP1 PUSH2 0x42C JUMP JUMPDEST DUP1 PUSH1 0x1F ADD PUSH1 0x20 DUP1 SWAP2 DIV MUL PUSH1 0x20 ADD PUSH1 0x40 MLOAD SWAP1 DUP2 ADD PUSH1 0x40 MSTORE DUP1 SWAP3 SWAP2 SWAP1 DUP2 DUP2 MSTORE PUSH1 0x20 ADD DUP3 DUP1 SLOAD PUSH2 0xB0 SWAP1 PUSH2 0x42C JUMP JUMPDEST DUP1 ISZERO PUSH2 0xFD JUMPI DUP1 PUSH1 0x1F LT PUSH2 0xD2 JUMPI PUSH2 0x100 DUP1 DUP4 SLOAD DIV MUL DUP4 MSTORE SWAP2 PUSH1 0x20 ADD SWAP2 PUSH2 0xFD JUMP JUMPDEST DUP3 ADD SWAP2 SWAP1 PUSH1 0x0 MSTORE PUSH1 0x20 PUSH1 0x0 KECCAK256 SWAP1 JUMPDEST DUP2 SLOAD DUP2 MSTORE SWAP1 PUSH1 0x1 ADD SWAP1 PUSH1 0x20 ADD DUP1 DUP4 GT PUSH2 0xE0 JUMPI DUP3 SWAP1 SUB PUSH1 0x1F AND DUP3 ADD SWAP2 JUMPDEST POP POP POP POP POP DUP2 JUMP JUMPDEST PUSH1 0x60 PUSH32 0xCF34EF537AC33EE1AC626CA1587A0A7E8E51561E5514F8CB36AFA1C5102B3BAB PUSH1 0x40 MLOAD PUSH2 0x134 SWAP1 PUSH2 0x4A9 JUMP JUMPDEST PUSH1 0x40 MLOAD DUP1 SWAP2 SUB SWAP1 LOG1 PUSH2 0x144 PUSH2 0x1E3 JUMP JUMPDEST PUSH1 0x0 SWAP1 DUP2 PUSH2 0x152 SWAP2 SWAP1 PUSH2 0x6AE JUMP JUMPDEST POP PUSH1 0x0 DUP1 SLOAD PUSH2 0x160 SWAP1 PUSH2 0x42C JUMP JUMPDEST DUP1 PUSH1 0x1F ADD PUSH1 0x20 DUP1 SWAP2 DIV MUL PUSH1 0x20 ADD PUSH1 0x40 MLOAD SWAP1 DUP2 ADD PUSH1 0x40 MSTORE DUP1 SWAP3 SWAP2 SWAP1 DUP2 DUP2 MSTORE PUSH1 0x20 ADD DUP3 DUP1 SLOAD PUSH2 0x18C SWAP1 PUSH2 0x42C JUMP JUMPDEST DUP1 ISZERO PUSH2 0x1D9 JUMPI DUP1 PUSH1 0x1F LT PUSH2 0x1AE JUMPI PUSH2 0x100 DUP1 DUP4 SLOAD DIV MUL DUP4 MSTORE SWAP2 PUSH1 0x20 ADD SWAP2 PUSH2 0x1D9 JUMP JUMPDEST DUP3 ADD SWAP2 SWAP1 PUSH1 0x0 MSTORE PUSH1 0x20 PUSH1 0x0 KECCAK256 SWAP1 JUMPDEST DUP2 SLOAD DUP2 MSTORE SWAP1 PUSH1 0x1 ADD SWAP1 PUSH1 0x20 ADD DUP1 DUP4 GT PUSH2 0x1BC JUMPI DUP3 SWAP1 SUB PUSH1 0x1F AND DUP3 ADD SWAP2 JUMPDEST POP POP POP POP POP SWAP1 POP SWAP1 JUMP JUMPDEST PUSH1 0x60 PUSH32 0xCF34EF537AC33EE1AC626CA1587A0A7E8E51561E5514F8CB36AFA1C5102B3BAB PUSH1 0x40 MLOAD PUSH2 0x212 SWAP1 PUSH2 0x7CC JUMP JUMPDEST PUSH1 0x40 MLOAD DUP1 SWAP2 SUB SWAP1 LOG1 PUSH2 0x222 PUSH2 0x25E JUMP JUMPDEST POP PUSH1 0x40 MLOAD DUP1 PUSH1 0x40 ADD PUSH1 0x40 MSTORE DUP1 PUSH1 0x2 DUP2 MSTORE PUSH1 0x20 ADD PUSH32 0x7966000000000000000000000000000000000000000000000000000000000000 DUP2 MSTORE POP SWAP1 POP SWAP1 JUMP JUMPDEST PUSH1 0x60 PUSH32 0xCF34EF537AC33EE1AC626CA1587A0A7E8E51561E5514F8CB36AFA1C5102B3BAB PUSH1 0x40 MLOAD PUSH2 0x28D SWAP1 PUSH2 0x838 JUMP JUMPDEST PUSH1 0x40 MLOAD DUP1 SWAP2 SUB SWAP1 LOG1 PUSH2 0x29D PUSH2 0x2D9 JUMP JUMPDEST POP PUSH1 0x40 MLOAD DUP1 PUSH1 0x40 ADD PUSH1 0x40 MSTORE DUP1 PUSH1 0x2 DUP2 MSTORE PUSH1 0x20 ADD PUSH32 0x7866000000000000000000000000000000000000000000000000000000000000 DUP2 MSTORE POP SWAP1 POP SWAP1 JUMP JUMPDEST PUSH1 0x60 PUSH32 0xCF34EF537AC33EE1AC626CA1587A0A7E8E51561E5514F8CB36AFA1C5102B3BAB PUSH1 0x40 MLOAD PUSH2 0x308 SWAP1 PUSH2 0x8A4 JUMP JUMPDEST PUSH1 0x40 MLOAD DUP1 SWAP2 SUB SWAP1 LOG1 PUSH1 0x40 MLOAD DUP1 PUSH1 0x40 ADD PUSH1 0x40 MSTORE DUP1 PUSH1 0x2 DUP2 MSTORE PUSH1 0x20 ADD PUSH32 0x7766000000000000000000000000000000000000000000000000000000000000 DUP2 MSTORE POP SWAP1 POP SWAP1 JUMP JUMPDEST PUSH1 0x0 DUP2 MLOAD SWAP1 POP SWAP2 SWAP1 POP JUMP JUMPDEST PUSH1 0x0 DUP3 DUP3 MSTORE PUSH1 0x20 DUP3 ADD SWAP1 POP SWAP3 SWAP2 POP POP JUMP JUMPDEST PUSH1 0x0 JUMPDEST DUP4 DUP2 LT ISZERO PUSH2 0x385 JUMPI DUP1 DUP3 ADD MLOAD DUP2 DUP5 ADD MSTORE PUSH1 0x20 DUP2 ADD SWAP1 POP PUSH2 0x36A JUMP JUMPDEST PUSH1 0x0 DUP5 DUP5 ADD MSTORE POP POP POP POP JUMP JUMPDEST PUSH1 0x0 PUSH1 0x1F NOT PUSH1 0x1F DUP4 ADD AND SWAP1 POP SWAP2 SWAP1 POP JUMP JUMPDEST PUSH1 0x0 PUSH2 0x3AD DUP3 PUSH2 0x34B JUMP JUMPDEST PUSH2 0x3B7 DUP2 DUP6 PUSH2 0x356 JUMP JUMPDEST SWAP4 POP PUSH2 0x3C7 DUP2 DUP6 PUSH1 0x20 DUP7 ADD PUSH2 0x367 JUMP JUMPDEST PUSH2 0x3D0 DUP2 PUSH2 0x391 JUMP JUMPDEST DUP5 ADD SWAP2 POP POP SWAP3 SWAP2 POP POP JUMP JUMPDEST PUSH1 0x0 PUSH1 0x20 DUP3 ADD SWAP1 POP DUP2 DUP2 SUB PUSH1 0x0 DUP4 ADD MSTORE PUSH2 0x3F5 DUP2 DUP5 PUSH2 0x3A2 JUMP JUMPDEST SWAP1 POP SWAP3 SWAP2 POP POP JUMP JUMPDEST PUSH32 0x4E487B7100000000000000000000000000000000000000000000000000000000 PUSH1 0x0 MSTORE PUSH1 0x22 PUSH1 0x4 MSTORE PUSH1 0x24 PUSH1 0x0 REVERT JUMPDEST PUSH1 0x0 PUSH1 0x2 DUP3 DIV SWAP1 POP PUSH1 0x1 DUP3 AND DUP1 PUSH2 0x444 JUMPI PUSH1 0x7F DUP3 AND SWAP2 POP JUMPDEST PUSH1 0x20 DUP3 LT DUP2 SUB PUSH2 0x457 JUMPI PUSH2 0x456 PUSH2 0x3FD JUMP JUMPDEST JUMPDEST POP SWAP2 SWAP1 POP JUMP JUMPDEST PUSH32 0x5A2E666F6F000000000000000000000000000000000000000000000000000000 PUSH1 0x0 DUP3 ADD MSTORE POP JUMP JUMPDEST PUSH1 0x0 PUSH2 0x493 PUSH1 0x5 DUP4 PUSH2 0x356 JUMP JUMPDEST SWAP2 POP PUSH2 0x49E DUP3 PUSH2 0x45D JUMP JUMPDEST PUSH1 0x20 DUP3 ADD SWAP1 POP SWAP2 SWAP1 POP JUMP JUMPDEST PUSH1 0x0 PUSH1 0x20 DUP3 ADD SWAP1 POP DUP2 DUP2 SUB PUSH1 0x0 DUP4 ADD MSTORE PUSH2 0x4C2 DUP2 PUSH2 0x486 JUMP JUMPDEST SWAP1 POP SWAP2 SWAP1 POP JUMP JUMPDEST PUSH32 0x4E487B7100000000000000000000000000000000000000000000000000000000 PUSH1 0x0 MSTORE PUSH1 0x41 PUSH1 0x4 MSTORE PUSH1 0x24 PUSH1 0x0 REVERT JUMPDEST PUSH1 0x0 DUP2 SWAP1 POP DUP2 PUSH1 0x0 MSTORE PUSH1 0x20 PUSH1 0x0 KECCAK256 SWAP1 POP SWAP2 SWAP1 POP JUMP JUMPDEST PUSH1 0x0 PUSH1 0x20 PUSH1 0x1F DUP4 ADD DIV SWAP1 POP SWAP2 SWAP1 POP JUMP JUMPDEST PUSH1 0x0 DUP3 DUP3 SHL SWAP1 POP SWAP3 SWAP2 POP POP JUMP JUMPDEST PUSH1 0x0 PUSH1 0x8 DUP4 MUL PUSH2 0x55A PUSH32 0xFFFFFFFFFFFFFFFFFFFFFFFFFFFFFFFFFFFFFFFFFFFFFFFFFFFFFFFFFFFFFFFF DUP3 PUSH2 0x51D JUMP JUMPDEST PUSH2 0x564 DUP7 DUP4 PUSH2 0x51D JUMP JUMPDEST SWAP6 POP DUP1 NOT DUP5 AND SWAP4 POP DUP1 DUP7 AND DUP5 OR SWAP3 POP POP POP SWAP4 SWAP3 POP POP POP JUMP JUMPDEST PUSH1 0x0 DUP2 SWAP1 POP SWAP2 SWAP1 POP JUMP JUMPDEST PUSH1 0x0 DUP2 SWAP1 POP SWAP2 SWAP1 POP JUMP JUMPDEST PUSH1 0x0 PUSH2 0x5AB PUSH2 0x5A6 PUSH2 0x5A1 DUP5 PUSH2 0x57C JUMP JUMPDEST PUSH2 0x586 JUMP JUMPDEST PUSH2 0x57C JUMP JUMPDEST SWAP1 POP SWAP2 SWAP1 POP JUMP JUMPDEST PUSH1 0x0 DUP2 SWAP1 POP SWAP2 SWAP1 POP JUMP JUMPDEST PUSH2 0x5C5 DUP4 PUSH2 0x590 JUMP JUMPDEST PUSH2 0x5D9 PUSH2 0x5D1 DUP3 PUSH2 0x5B2 JUMP JUMPDEST DUP5 DUP5 SLOAD PUSH2 0x52A JUMP JUMPDEST DUP3 SSTORE POP POP POP POP JUMP JUMPDEST PUSH1 0x0 SWAP1 JUMP JUMPDEST PUSH2 0x5EE PUSH2 0x5E1 JUMP JUMPDEST PUSH2 0x5F9 DUP2 DUP5 DUP5 PUSH2 0x5BC JUMP JUMPDEST POP POP POP JUMP JUMPDEST JUMPDEST DUP2 DUP2 LT ISZERO PUSH2 0x61D JUMPI PUSH2 0x612 PUSH1 0x0 DUP3 PUSH2 0x5E6 JUMP JUMPDEST PUSH1 0x1 DUP2 ADD SWAP1 POP PUSH2 0x5FF JUMP JUMPDEST POP POP JUMP JUMPDEST PUSH1 0x1F DUP3 GT ISZERO PUSH2 0x662 JUMPI PUSH2 0x633 DUP2 PUSH2 0x4F8 JUMP JUMPDEST PUSH2 0x63C DUP5 PUSH2 0x50D JUMP JUMPDEST DUP2 ADD PUSH1 0x20 DUP6 LT ISZERO PUSH2 0x64B JUMPI DUP2 SWAP1 POP JUMPDEST PUSH2 0x65F PUSH2 0x657 DUP6 PUSH2 0x50D JUMP JUMPDEST DUP4 ADD DUP3 PUSH2 0x5FE JUMP JUMPDEST POP POP JUMPDEST POP POP POP JUMP JUMPDEST PUSH1 0x0 DUP3 DUP3 SHR SWAP1 POP SWAP3 SWAP2 POP POP JUMP JUMPDEST PUSH1 0x0 PUSH2 0x685 PUSH1 0x0 NOT DUP5 PUSH1 0x8 MUL PUSH2 0x667 JUMP JUMPDEST NOT DUP1 DUP4 AND SWAP2 POP POP SWAP3 SWAP2 POP POP JUMP JUMPDEST PUSH1 0x0 PUSH2 0x69E DUP4 DUP4 PUSH2 0x674 JUMP JUMPDEST SWAP2 POP DUP3 PUSH1 0x2 MUL DUP3 OR SWAP1 POP SWAP3 SWAP2 POP POP JUMP JUMPDEST PUSH2 0x6B7 DUP3 PUSH2 0x34B JUMP JUMPDEST PUSH8 0xFFFFFFFFFFFFFFFF DUP2 GT ISZERO PUSH2 0x6D0 JUMPI PUSH2 0x6CF PUSH2 0x4C9 JUMP JUMPDEST JUMPDEST PUSH2 0x6DA DUP3 SLOAD PUSH2 0x42C JUMP JUMPDEST PUSH2 0x6E5 DUP3 DUP3 DUP6 PUSH2 0x621 JUMP JUMPDEST PUSH1 0x0 PUSH1 0x20 SWAP1 POP PUSH1 0x1F DUP4 GT PUSH1 0x1 DUP2 EQ PUSH2 0x718 JUMPI PUSH1 0x0 DUP5 ISZERO PUSH2 0x706 JUMPI DUP3 DUP8 ADD MLOAD SWAP1 POP JUMPDEST PUSH2 0x710 DUP6 DUP3 PUSH2 0x692 JUMP JUMPDEST DUP7 SSTORE POP PUSH2 0x778 JUMP JUMPDEST PUSH1 0x1F NOT DUP5 AND PUSH2 0x726 DUP7 PUSH2 0x4F8 JUMP JUMPDEST PUSH1 0x0 JUMPDEST DUP3 DUP2 LT ISZERO PUSH2 0x74E JUMPI DUP5 DUP10 ADD MLOAD DUP3 SSTORE PUSH1 0x1 DUP3 ADD SWAP2 POP PUSH1 0x20 DUP6 ADD SWAP5 POP PUSH1 0x20 DUP2 ADD SWAP1 POP PUSH2 0x729 JUMP JUMPDEST DUP7 DUP4 LT ISZERO PUSH2 0x76B JUMPI DUP5 DUP10 ADD MLOAD PUSH2 0x767 PUSH1 0x1F DUP10 AND DUP3 PUSH2 0x674 JUMP JUMPDEST DUP4 SSTORE POP JUMPDEST PUSH1 0x1 PUSH1 0x2 DUP9 MUL ADD DUP9 SSTORE POP POP POP JUMPDEST POP POP POP POP POP POP JUMP JUMPDEST PUSH32 0x592E666F6F000000000000000000000000000000000000000000000000000000 PUSH1 0x0 DUP3 ADD MSTORE POP JUMP JUMPDEST PUSH1 0x0 PUSH2 0x7B6 PUSH1 0x5 DUP4 PUSH2 0x356 JUMP JUMPDEST SWAP2 POP PUSH2 0x7C1 DUP3 PUSH2 0x780 JUMP JUMPDEST PUSH1 0x20 DUP3 ADD SWAP1 POP SWAP2 SWAP1 POP JUMP JUMPDEST PUSH1 0x0 PUSH1 0x20 DUP3 ADD SWAP1 POP DUP2 DUP2 SUB PUSH1 0x0 DUP4 ADD MSTORE PUSH2 0x7E5 DUP2 PUSH2 0x7A9 JUMP JUMPDEST SWAP1 POP SWAP2 SWAP1 POP JUMP JUMPDEST PUSH32 0x582E666F6F000000000000000000000000000000000000000000000000000000 PUSH1 0x0 DUP3 ADD MSTORE POP JUMP JUMPDEST PUSH1 0x0 PUSH2 0x822 PUSH1 0x5 DUP4 PUSH2 0x356 JUMP JUMPDEST SWAP2 POP PUSH2 0x82D DUP3 PUSH2 0x7EC JUMP JUMPDEST PUSH1 0x20 DUP3 ADD SWAP1 POP SWAP2 SWAP1 POP JUMP JUMPDEST PUSH1 0x0 PUSH1 0x20 DUP3 ADD SWAP1 POP DUP2 DUP2 SUB PUSH1 0x0 DUP4 ADD MSTORE PUSH2 0x851 DUP2 PUSH2 0x815 JUMP JUMPDEST SWAP1 POP SWAP2 SWAP1 POP JUMP JUMPDEST PUSH32 0x572E666F6F000000000000000000000000000000000000000000000000000000 PUSH1 0x0 DUP3 ADD MSTORE POP JUMP JUMPDEST PUSH1 0x0 PUSH2 0x88E PUSH1 0x5 DUP4 PUSH2 0x356 JUMP JUMPDEST SWAP2 POP PUSH2 0x899 DUP3 PUSH2 0x858 JUMP JUMPDEST PUSH1 0x20 DUP3 ADD SWAP1 POP SWAP2 SWAP1 POP JUMP JUMPDEST PUSH1 0x0 PUSH1 0x20 DUP3 ADD SWAP1 POP DUP2 DUP2 SUB PUSH1 0x0 DUP4 ADD MSTORE PUSH2 0x8BD DUP2 PUSH2 0x881 JUMP JUMPDEST SWAP1 POP SWAP2 SWAP1 POP JUMP INVALID LOG2 PUSH5 0x6970667358 0x22 SLT KECCAK256 MSTORE SWAP1 CALLDATASIZE 0xCE CREATE2 PUSH12 0x13F65931A9FF8DACFC1438B9 0xA8 MUL ADD PUSH8 0x25F280AA01750939 BASEFEE 0xB1 PUSH5 0x736F6C6343 STOP ADDMOD GT STOP CALLER "
		},
		"gasEstimates": {
			"creation": {
				"codeDepositCost": "459600",
				"executionCost": "493",
				"totalCost": "460093"
			},
			"external": {
				"foo()": "infinite",
				"text()": "infinite"
			}
		},
		"methodIdentifiers": {
			"foo()": "c2985578",
			"text()": "1f1bd692"
		}
	},
	"abi": [
		{
			"anonymous": false,
			"inputs": [
				{
					"indexed": false,
					"internalType": "string",
					"name": "message",
					"type": "string"
				}
			],
			"name": "Log",
			"type": "event"
		},
		{
			"inputs": [],
			"name": "foo",
			"outputs": [
				{
					"internalType": "string",
					"name": "",
					"type": "string"
				}
			],
			"stateMutability": "nonpayable",
			"type": "function"
		},
		{
			"inputs": [],
			"name": "text",
			"outputs": [
				{
					"internalType": "string",
					"name": "",
					"type": "string"
				}
			],
			"stateMutability": "view",
			"type": "function"
		}
	]
}